{
  "_format": "hh-sol-artifact-1",
  "contractName": "TWABDelegator",
  "sourceName": "@pooltogether/v4-twab-delegator/contracts/TWABDelegator.sol",
  "abi": [
    {
      "inputs": [
        {
          "internalType": "string",
          "name": "name_",
          "type": "string"
        },
        {
          "internalType": "string",
          "name": "symbol_",
          "type": "string"
        },
        {
          "internalType": "contract ITicket",
          "name": "_ticket",
          "type": "address"
        }
      ],
      "stateMutability": "nonpayable",
      "type": "constructor"
    },
    {
      "anonymous": false,
      "inputs": [
        {
          "indexed": true,
          "internalType": "address",
          "name": "owner",
          "type": "address"
        },
        {
          "indexed": true,
          "internalType": "address",
          "name": "spender",
          "type": "address"
        },
        {
          "indexed": false,
          "internalType": "uint256",
          "name": "value",
          "type": "uint256"
        }
      ],
      "name": "Approval",
      "type": "event"
    },
    {
      "anonymous": false,
      "inputs": [
        {
          "indexed": true,
          "internalType": "address",
          "name": "delegator",
          "type": "address"
        },
        {
          "indexed": true,
          "internalType": "uint256",
          "name": "slot",
          "type": "uint256"
        },
        {
          "indexed": true,
          "internalType": "address",
          "name": "delegatee",
          "type": "address"
        },
        {
          "indexed": false,
          "internalType": "uint96",
          "name": "lockUntil",
          "type": "uint96"
        },
        {
          "indexed": false,
          "internalType": "address",
          "name": "user",
          "type": "address"
        }
      ],
      "name": "DelegateeUpdated",
      "type": "event"
    },
    {
      "anonymous": false,
      "inputs": [
        {
          "indexed": true,
          "internalType": "address",
          "name": "delegator",
          "type": "address"
        },
        {
          "indexed": true,
          "internalType": "uint256",
          "name": "slot",
          "type": "uint256"
        },
        {
          "indexed": false,
          "internalType": "uint96",
          "name": "lockUntil",
          "type": "uint96"
        },
        {
          "indexed": true,
          "internalType": "address",
          "name": "delegatee",
          "type": "address"
        },
        {
          "indexed": false,
          "internalType": "contract Delegation",
          "name": "delegation",
          "type": "address"
        },
        {
          "indexed": false,
          "internalType": "address",
          "name": "user",
          "type": "address"
        }
      ],
      "name": "DelegationCreated",
      "type": "event"
    },
    {
      "anonymous": false,
      "inputs": [
        {
          "indexed": true,
          "internalType": "address",
          "name": "delegator",
          "type": "address"
        },
        {
          "indexed": true,
          "internalType": "uint256",
          "name": "slot",
          "type": "uint256"
        },
        {
          "indexed": false,
          "internalType": "uint256",
          "name": "amount",
          "type": "uint256"
        },
        {
          "indexed": true,
          "internalType": "address",
          "name": "user",
          "type": "address"
        }
      ],
      "name": "DelegationFunded",
      "type": "event"
    },
    {
      "anonymous": false,
      "inputs": [
        {
          "indexed": true,
          "internalType": "address",
          "name": "delegator",
          "type": "address"
        },
        {
          "indexed": true,
          "internalType": "uint256",
          "name": "slot",
          "type": "uint256"
        },
        {
          "indexed": false,
          "internalType": "uint256",
          "name": "amount",
          "type": "uint256"
        },
        {
          "indexed": true,
          "internalType": "address",
          "name": "user",
          "type": "address"
        }
      ],
      "name": "DelegationFundedFromStake",
      "type": "event"
    },
    {
      "anonymous": false,
      "inputs": [
        {
          "indexed": true,
          "internalType": "address",
          "name": "delegator",
          "type": "address"
        },
        {
          "indexed": true,
          "internalType": "address",
          "name": "representative",
          "type": "address"
        },
        {
          "indexed": false,
          "internalType": "bool",
          "name": "set",
          "type": "bool"
        }
      ],
      "name": "RepresentativeSet",
      "type": "event"
    },
    {
      "anonymous": false,
      "inputs": [
        {
          "indexed": true,
          "internalType": "contract ITicket",
          "name": "ticket",
          "type": "address"
        }
      ],
      "name": "TicketSet",
      "type": "event"
    },
    {
      "anonymous": false,
      "inputs": [
        {
          "indexed": true,
          "internalType": "address",
          "name": "delegator",
          "type": "address"
        },
        {
          "indexed": false,
          "internalType": "uint256",
          "name": "amount",
          "type": "uint256"
        }
      ],
      "name": "TicketsStaked",
      "type": "event"
    },
    {
      "anonymous": false,
      "inputs": [
        {
          "indexed": true,
          "internalType": "address",
          "name": "delegator",
          "type": "address"
        },
        {
          "indexed": true,
          "internalType": "address",
          "name": "recipient",
          "type": "address"
        },
        {
          "indexed": false,
          "internalType": "uint256",
          "name": "amount",
          "type": "uint256"
        }
      ],
      "name": "TicketsUnstaked",
      "type": "event"
    },
    {
      "anonymous": false,
      "inputs": [
        {
          "indexed": true,
          "internalType": "address",
          "name": "from",
          "type": "address"
        },
        {
          "indexed": true,
          "internalType": "address",
          "name": "to",
          "type": "address"
        },
        {
          "indexed": false,
          "internalType": "uint256",
          "name": "value",
          "type": "uint256"
        }
      ],
      "name": "Transfer",
      "type": "event"
    },
    {
      "anonymous": false,
      "inputs": [
        {
          "indexed": true,
          "internalType": "address",
          "name": "delegator",
          "type": "address"
        },
        {
          "indexed": true,
          "internalType": "uint256",
          "name": "slot",
          "type": "uint256"
        },
        {
          "indexed": false,
          "internalType": "uint256",
          "name": "amount",
          "type": "uint256"
        },
        {
          "indexed": true,
          "internalType": "address",
          "name": "to",
          "type": "address"
        }
      ],
      "name": "TransferredDelegation",
      "type": "event"
    },
    {
      "anonymous": false,
      "inputs": [
        {
          "indexed": true,
          "internalType": "address",
          "name": "delegator",
          "type": "address"
        },
        {
          "indexed": true,
          "internalType": "uint256",
          "name": "slot",
          "type": "uint256"
        },
        {
          "indexed": false,
          "internalType": "uint256",
          "name": "amount",
          "type": "uint256"
        },
        {
          "indexed": true,
          "internalType": "address",
          "name": "user",
          "type": "address"
        }
      ],
      "name": "WithdrewDelegationToStake",
      "type": "event"
    },
    {
      "inputs": [],
      "name": "MAX_LOCK",
      "outputs": [
        {
          "internalType": "uint256",
          "name": "",
          "type": "uint256"
        }
      ],
      "stateMutability": "view",
      "type": "function"
    },
    {
      "inputs": [
        {
          "internalType": "address",
          "name": "owner",
          "type": "address"
        },
        {
          "internalType": "address",
          "name": "spender",
          "type": "address"
        }
      ],
      "name": "allowance",
      "outputs": [
        {
          "internalType": "uint256",
          "name": "",
          "type": "uint256"
        }
      ],
      "stateMutability": "view",
      "type": "function"
    },
    {
      "inputs": [
        {
          "internalType": "address",
          "name": "spender",
          "type": "address"
        },
        {
          "internalType": "uint256",
          "name": "amount",
          "type": "uint256"
        }
      ],
      "name": "approve",
      "outputs": [
        {
          "internalType": "bool",
          "name": "",
          "type": "bool"
        }
      ],
      "stateMutability": "nonpayable",
      "type": "function"
    },
    {
      "inputs": [
        {
          "internalType": "address",
          "name": "account",
          "type": "address"
        }
      ],
      "name": "balanceOf",
      "outputs": [
        {
          "internalType": "uint256",
          "name": "",
          "type": "uint256"
        }
      ],
      "stateMutability": "view",
      "type": "function"
    },
    {
      "inputs": [
        {
          "internalType": "address",
          "name": "_delegator",
          "type": "address"
        },
        {
          "internalType": "uint256",
          "name": "_slot",
          "type": "uint256"
        }
      ],
      "name": "computeDelegationAddress",
      "outputs": [
        {
          "internalType": "address",
          "name": "",
          "type": "address"
        }
      ],
      "stateMutability": "view",
      "type": "function"
    },
    {
      "inputs": [
        {
          "internalType": "address",
          "name": "_delegator",
          "type": "address"
        },
        {
          "internalType": "uint256",
          "name": "_slot",
          "type": "uint256"
        },
        {
          "internalType": "address",
          "name": "_delegatee",
          "type": "address"
        },
        {
          "internalType": "uint96",
          "name": "_lockDuration",
          "type": "uint96"
        }
      ],
      "name": "createDelegation",
      "outputs": [
        {
          "internalType": "contract Delegation",
          "name": "",
          "type": "address"
        }
      ],
      "stateMutability": "nonpayable",
      "type": "function"
    },
    {
      "inputs": [],
      "name": "decimals",
      "outputs": [
        {
          "internalType": "uint8",
          "name": "",
          "type": "uint8"
        }
      ],
      "stateMutability": "view",
      "type": "function"
    },
    {
      "inputs": [
        {
          "internalType": "address",
          "name": "spender",
          "type": "address"
        },
        {
          "internalType": "uint256",
          "name": "subtractedValue",
          "type": "uint256"
        }
      ],
      "name": "decreaseAllowance",
      "outputs": [
        {
          "internalType": "bool",
          "name": "",
          "type": "bool"
        }
      ],
      "stateMutability": "nonpayable",
      "type": "function"
    },
    {
      "inputs": [],
      "name": "delegationInstance",
      "outputs": [
        {
          "internalType": "contract Delegation",
          "name": "",
          "type": "address"
        }
      ],
      "stateMutability": "view",
      "type": "function"
    },
    {
      "inputs": [
        {
          "internalType": "address",
          "name": "_delegator",
          "type": "address"
        },
        {
          "internalType": "uint256",
          "name": "_slot",
          "type": "uint256"
        },
        {
          "internalType": "uint256",
          "name": "_amount",
          "type": "uint256"
        }
      ],
      "name": "fundDelegation",
      "outputs": [
        {
          "internalType": "contract Delegation",
          "name": "",
          "type": "address"
        }
      ],
      "stateMutability": "nonpayable",
      "type": "function"
    },
    {
      "inputs": [
        {
          "internalType": "address",
          "name": "_delegator",
          "type": "address"
        },
        {
          "internalType": "uint256",
          "name": "_slot",
          "type": "uint256"
        },
        {
          "internalType": "uint256",
          "name": "_amount",
          "type": "uint256"
        }
      ],
      "name": "fundDelegationFromStake",
      "outputs": [
        {
          "internalType": "contract Delegation",
          "name": "",
          "type": "address"
        }
      ],
      "stateMutability": "nonpayable",
      "type": "function"
    },
    {
      "inputs": [
        {
          "internalType": "address",
          "name": "_delegator",
          "type": "address"
        },
        {
          "internalType": "uint256",
          "name": "_slot",
          "type": "uint256"
        }
      ],
      "name": "getDelegation",
      "outputs": [
        {
          "internalType": "contract Delegation",
          "name": "delegation",
          "type": "address"
        },
        {
          "internalType": "address",
          "name": "delegatee",
          "type": "address"
        },
        {
          "internalType": "uint256",
          "name": "balance",
          "type": "uint256"
        },
        {
          "internalType": "uint256",
          "name": "lockUntil",
          "type": "uint256"
        },
        {
          "internalType": "bool",
          "name": "wasCreated",
          "type": "bool"
        }
      ],
      "stateMutability": "view",
      "type": "function"
    },
    {
      "inputs": [
        {
          "internalType": "address",
          "name": "spender",
          "type": "address"
        },
        {
          "internalType": "uint256",
          "name": "addedValue",
          "type": "uint256"
        }
      ],
      "name": "increaseAllowance",
      "outputs": [
        {
          "internalType": "bool",
          "name": "",
          "type": "bool"
        }
      ],
      "stateMutability": "nonpayable",
      "type": "function"
    },
    {
      "inputs": [
        {
          "internalType": "address",
          "name": "_delegator",
          "type": "address"
        },
        {
          "internalType": "address",
          "name": "_representative",
          "type": "address"
        }
      ],
      "name": "isRepresentativeOf",
      "outputs": [
        {
          "internalType": "bool",
          "name": "",
          "type": "bool"
        }
      ],
      "stateMutability": "view",
      "type": "function"
    },
    {
      "inputs": [
        {
          "internalType": "bytes[]",
          "name": "_data",
          "type": "bytes[]"
        }
      ],
      "name": "multicall",
      "outputs": [
        {
          "internalType": "bytes[]",
          "name": "",
          "type": "bytes[]"
        }
      ],
      "stateMutability": "nonpayable",
      "type": "function"
    },
    {
      "inputs": [],
      "name": "name",
      "outputs": [
        {
          "internalType": "string",
          "name": "",
          "type": "string"
        }
      ],
      "stateMutability": "view",
      "type": "function"
    },
    {
      "inputs": [
        {
          "internalType": "uint256",
          "name": "_amount",
          "type": "uint256"
        },
        {
          "components": [
            {
              "internalType": "uint256",
              "name": "deadline",
              "type": "uint256"
            },
            {
              "internalType": "uint8",
              "name": "v",
              "type": "uint8"
            },
            {
              "internalType": "bytes32",
              "name": "r",
              "type": "bytes32"
            },
            {
              "internalType": "bytes32",
              "name": "s",
              "type": "bytes32"
            }
          ],
          "internalType": "struct PermitAndMulticall.Signature",
          "name": "_permitSignature",
          "type": "tuple"
        },
        {
          "internalType": "bytes[]",
          "name": "_data",
          "type": "bytes[]"
        }
      ],
      "name": "permitAndMulticall",
      "outputs": [],
      "stateMutability": "nonpayable",
      "type": "function"
    },
    {
      "inputs": [
        {
          "internalType": "address",
          "name": "_representative",
          "type": "address"
        },
        {
          "internalType": "bool",
          "name": "_set",
          "type": "bool"
        }
      ],
      "name": "setRepresentative",
      "outputs": [],
      "stateMutability": "nonpayable",
      "type": "function"
    },
    {
      "inputs": [
        {
          "internalType": "address",
          "name": "_to",
          "type": "address"
        },
        {
          "internalType": "uint256",
          "name": "_amount",
          "type": "uint256"
        }
      ],
      "name": "stake",
      "outputs": [],
      "stateMutability": "nonpayable",
      "type": "function"
    },
    {
      "inputs": [],
      "name": "symbol",
      "outputs": [
        {
          "internalType": "string",
          "name": "",
          "type": "string"
        }
      ],
      "stateMutability": "view",
      "type": "function"
    },
    {
      "inputs": [],
      "name": "ticket",
      "outputs": [
        {
          "internalType": "contract ITicket",
          "name": "",
          "type": "address"
        }
      ],
      "stateMutability": "view",
      "type": "function"
    },
    {
      "inputs": [],
      "name": "totalSupply",
      "outputs": [
        {
          "internalType": "uint256",
          "name": "",
          "type": "uint256"
        }
      ],
      "stateMutability": "view",
      "type": "function"
    },
    {
      "inputs": [
        {
          "internalType": "address",
          "name": "recipient",
          "type": "address"
        },
        {
          "internalType": "uint256",
          "name": "amount",
          "type": "uint256"
        }
      ],
      "name": "transfer",
      "outputs": [
        {
          "internalType": "bool",
          "name": "",
          "type": "bool"
        }
      ],
      "stateMutability": "nonpayable",
      "type": "function"
    },
    {
      "inputs": [
        {
          "internalType": "uint256",
          "name": "_slot",
          "type": "uint256"
        },
        {
          "internalType": "uint256",
          "name": "_amount",
          "type": "uint256"
        },
        {
          "internalType": "address",
          "name": "_to",
          "type": "address"
        }
      ],
      "name": "transferDelegationTo",
      "outputs": [
        {
          "internalType": "contract Delegation",
          "name": "",
          "type": "address"
        }
      ],
      "stateMutability": "nonpayable",
      "type": "function"
    },
    {
      "inputs": [
        {
          "internalType": "address",
          "name": "sender",
          "type": "address"
        },
        {
          "internalType": "address",
          "name": "recipient",
          "type": "address"
        },
        {
          "internalType": "uint256",
          "name": "amount",
          "type": "uint256"
        }
      ],
      "name": "transferFrom",
      "outputs": [
        {
          "internalType": "bool",
          "name": "",
          "type": "bool"
        }
      ],
      "stateMutability": "nonpayable",
      "type": "function"
    },
    {
      "inputs": [
        {
          "internalType": "address",
          "name": "_to",
          "type": "address"
        },
        {
          "internalType": "uint256",
          "name": "_amount",
          "type": "uint256"
        }
      ],
      "name": "unstake",
      "outputs": [],
      "stateMutability": "nonpayable",
      "type": "function"
    },
    {
      "inputs": [
        {
          "internalType": "address",
          "name": "_delegator",
          "type": "address"
        },
        {
          "internalType": "uint256",
          "name": "_slot",
          "type": "uint256"
        },
        {
          "internalType": "address",
          "name": "_delegatee",
          "type": "address"
        },
        {
          "internalType": "uint96",
          "name": "_lockDuration",
          "type": "uint96"
        }
      ],
      "name": "updateDelegatee",
      "outputs": [
        {
          "internalType": "contract Delegation",
          "name": "",
          "type": "address"
        }
      ],
      "stateMutability": "nonpayable",
      "type": "function"
    },
    {
      "inputs": [
        {
          "internalType": "address",
          "name": "_delegator",
          "type": "address"
        },
        {
          "internalType": "uint256",
          "name": "_slot",
          "type": "uint256"
        },
        {
          "internalType": "uint256",
          "name": "_amount",
          "type": "uint256"
        }
      ],
      "name": "withdrawDelegationToStake",
      "outputs": [
        {
          "internalType": "contract Delegation",
          "name": "",
          "type": "address"
        }
      ],
      "stateMutability": "nonpayable",
      "type": "function"
    }
  ],
  "bytecode": "0x60a06040523480156200001157600080fd5b50604051620038a2380380620038a2833981016040819052620000349162000317565b8251839083906200004d906003906020850190620001ac565b50805162000063906004906020840190620001ac565b50505060405162000074906200023b565b604051809103906000f08015801562000091573d6000803e3d6000fd5b50600580546001600160a01b0319166001600160a01b0392909216918217905560405163909f1cad60e01b81526000600482015263909f1cad90602401600060405180830381600087803b158015620000e957600080fd5b505af1158015620000fe573d6000803e3d6000fd5b505050506001600160a01b0381166200015d5760405162461bcd60e51b815260206004820181905260248201527f5457414244656c656761746f722f7469636b2d6e6f742d7a65726f2d61646472604482015260640160405180910390fd5b6001600160601b0319606082901b166080526040516001600160a01b038216907f9f9d59c87dbdc6ca82d9e5924782004b9aebc366c505c0ccab12f61e2a9f332190600090a2505050620003f7565b828054620001ba90620003a4565b90600052602060002090601f016020900481019282620001de576000855562000229565b82601f10620001f957805160ff191683800117855562000229565b8280016001018555821562000229579182015b82811115620002295782518255916020019190600101906200020c565b506200023792915062000249565b5090565b6107fc80620030a683390190565b5b808211156200023757600081556001016200024a565b600082601f8301126200027257600080fd5b81516001600160401b03808211156200028f576200028f620003e1565b604051601f8301601f19908116603f01168101908282118183101715620002ba57620002ba620003e1565b81604052838152602092508683858801011115620002d757600080fd5b600091505b83821015620002fb5785820183015181830184015290820190620002dc565b838211156200030d5760008385830101525b9695505050505050565b6000806000606084860312156200032d57600080fd5b83516001600160401b03808211156200034557600080fd5b620003538783880162000260565b945060208601519150808211156200036a57600080fd5b50620003798682870162000260565b604086015190935090506001600160a01b03811681146200039957600080fd5b809150509250925092565b600181811c90821680620003b957607f821691505b60208210811415620003db57634e487b7160e01b600052602260045260246000fd5b50919050565b634e487b7160e01b600052604160045260246000fd5b60805160601c612c5162000455600039600081816102e4015281816104c4015281816106650152818161083501528181610d1e01528181610dc001528181610e8001528181610f3701528181611080015261201e0152612c516000f3fe608060405234801561001057600080fd5b50600436106101c45760003560e01c8063889de805116100f9578063ac9650d811610097578063ca40edf111610071578063ca40edf114610418578063dd62ed3e14610460578063e18fa6eb14610499578063e7880ae1146104ac57600080fd5b8063ac9650d8146103d2578063adc9772e146103f2578063c2a672e01461040557600080fd5b806395d89b41116100d357806395d89b4114610391578063982b1f2f14610399578063a457c2d7146103ac578063a9059cbb146103bf57600080fd5b8063889de8051461032f5780638b4b4ec91461034257806390ab08851461035557600080fd5b80635f66501111610166578063666f7af611610140578063666f7af6146102b95780636c59f295146102cc5780636cc25db7146102df57806370a082311461030657600080fd5b80635f6650111461027157806363fc611f1461029c57806365a5d5f0146102af57600080fd5b806318160ddd116101a257806318160ddd1461021f57806323b872dd14610231578063313ce56714610244578063395093511461025e57600080fd5b806306452792146101c957806306fdde03146101de578063095ea7b3146101fc575b600080fd5b6101dc6101d73660046127d1565b6104bf565b005b6101e66104f2565b6040516101f391906129ee565b60405180910390f35b61020f61020a36600461258c565b610584565b60405190151581526020016101f3565b6002545b6040519081526020016101f3565b61020f61023f36600461251d565b61059b565b61024c610661565b60405160ff90911681526020016101f3565b61020f61026c36600461258c565b6106f9565b61028461027f36600461260b565b610735565b6040516001600160a01b0390911681526020016101f3565b600554610284906001600160a01b031681565b61022362ed4e0081565b6102846102c736600461260b565b6107b9565b6102846102da3660046125b8565b6108a3565b6102847f000000000000000000000000000000000000000000000000000000000000000081565b6102236103143660046124aa565b6001600160a01b031660009081526020819052604090205490565b61028461033d3660046125b8565b6109e9565b610284610350366004612837565b610ae4565b61020f6103633660046124e4565b6001600160a01b03918216600090815260066020908152604080832093909416825291909152205460ff1690565b6101e6610b4e565b6101dc6103a736600461255e565b610b5d565b61020f6103ba36600461258c565b610c3e565b61020f6103cd36600461258c565b610cef565b6103e56103e0366004612640565b610cfc565b6040516101f3919061290f565b6101dc61040036600461258c565b610d08565b6101dc61041336600461258c565b610d97565b61042b61042636600461258c565b610e24565b604080516001600160a01b0396871681529590941660208601529284019190915260608301521515608082015260a0016101f3565b61022361046e3660046124e4565b6001600160a01b03918216600090815260016020908152604080832093909416825291909152205490565b6102846104a736600461260b565b611047565b6102846104ba36600461258c565b6110ed565b6104ec7f0000000000000000000000000000000000000000000000000000000000000000858585856110f9565b50505050565b60606003805461050190612af2565b80601f016020809104026020016040519081016040528092919081815260200182805461052d90612af2565b801561057a5780601f1061054f5761010080835404028352916020019161057a565b820191906000526020600020905b81548152906001019060200180831161055d57829003601f168201915b5050505050905090565b60006105913384846111d1565b5060015b92915050565b60006105a8848484611329565b6001600160a01b0384166000908152600160209081526040808320338452909152902054828110156106475760405162461bcd60e51b815260206004820152602860248201527f45524332303a207472616e7366657220616d6f756e742065786365656473206160448201527f6c6c6f77616e636500000000000000000000000000000000000000000000000060648201526084015b60405180910390fd5b61065485338584036111d1565b60019150505b9392505050565b60007f00000000000000000000000000000000000000000000000000000000000000006001600160a01b031663313ce5676040518163ffffffff1660e01b815260040160206040518083038186803b1580156106bc57600080fd5b505afa1580156106d0573d6000803e3d6000fd5b505050506040513d601f19601f820116820180604052508101906106f4919061288d565b905090565b3360008181526001602090815260408083206001600160a01b03871684529091528120549091610591918590610730908690612a97565b6111d1565b600061074084611540565b600061074c85856115c9565b905061075981308561161f565b6107638584611641565b336001600160a01b031684866001600160a01b03167f6862a473baa6176f1c866c69aa93da8508d7afc71b52dddc9d5e8b0bb7aab6f4866040516107a991815260200190565b60405180910390a4949350505050565b60006001600160a01b0384166108115760405162461bcd60e51b815260206004820181905260248201527f5457414244656c656761746f722f646c6774722d6e6f742d7a65726f2d616472604482015260640161063e565b61081a82611719565b600061082685856115c9565b905061085d6001600160a01b037f000000000000000000000000000000000000000000000000000000000000000016338386611769565b336001600160a01b031684866001600160a01b03167f383183291bd9a7fb8bd9c7c86c5013a89d1490c9f4e486da279804b83729a1dc866040516107a991815260200190565b60006108ae85611540565b6108b78361181a565b6108ce826bffffffffffffffffffffffff16611870565b60006108da86866115c9565b90506108e5816118c3565b4283016bffffffffffffffffffffffff84161561097d576040517fac2293af0000000000000000000000000000000000000000000000000000000081526bffffffffffffffffffffffff821660048201526001600160a01b0383169063ac2293af90602401600060405180830381600087803b15801561096457600080fd5b505af1158015610978573d6000803e3d6000fd5b505050505b6109878286611991565b604080516bffffffffffffffffffffffff831681523360208201526001600160a01b03808816928992918b16917ffd96a87f22afea1e17a7117a4923f1499a1c1eb2bd7c492caf07f3a3c38ade6f910160405180910390a45095945050505050565b60006109f485611540565b6109fd8361181a565b610a14826bffffffffffffffffffffffff16611870565b4282016000610a6e610a6888886040516bffffffffffffffffffffffff19606084901b1660208201526034810182905260009060540160405160208183030381529060405280519060200120905092915050565b83611a17565b9050610a7a8186611991565b604080516bffffffffffffffffffffffff841681526001600160a01b03838116602083015233828401529151878316928992908b16917f5533acb96061e404278604d3df68397263be1d4b9df394136a2968802633d8a59181900360600190a49695505050505050565b6000610aef82611abd565b6000610afb33866115c9565b9050610b0881848661161f565b826001600160a01b031685336001600160a01b03167f622b7da8a20026f1176ccc7ec0a635a4544a67e99b0125018e3d89b888ce8ebe876040516107a991815260200190565b60606004805461050190612af2565b6001600160a01b038216610bb35760405162461bcd60e51b815260206004820152601f60248201527f5457414244656c656761746f722f7265702d6e6f742d7a65726f2d6164647200604482015260640161063e565b3360008181526006602090815260408083206001600160a01b0387168085529083529281902080547fffffffffffffffffffffffffffffffffffffffffffffffffffffffffffffff001686151590811790915590519081529192917f50062a33e55b9f3dfcf05fbf1356b7c92313796cfb8526cdee5a497fcbb8cc3391015b60405180910390a35050565b3360009081526001602090815260408083206001600160a01b038616845290915281205482811015610cd85760405162461bcd60e51b815260206004820152602560248201527f45524332303a2064656372656173656420616c6c6f77616e63652062656c6f7760448201527f207a65726f000000000000000000000000000000000000000000000000000000606482015260840161063e565b610ce533858584036111d1565b5060019392505050565b6000610591338484611329565b606061065a8383611b13565b610d1181611719565b610d466001600160a01b037f000000000000000000000000000000000000000000000000000000000000000016333084611769565b610d508282611641565b816001600160a01b03167f15c2c6e5db9e25d828754c9c5cee6c5c3df074e6ac26e7491c0f8ce7bbd447d682604051610d8b91815260200190565b60405180910390a25050565b610da082611abd565b610da981611719565b610db33382611c0d565b610de76001600160a01b037f0000000000000000000000000000000000000000000000000000000000000000168383611d92565b6040518181526001600160a01b0383169033907ff7128607975b3ff61bc02d19a1c8267e526f7a5b7144dc4efcdac634663fd36990602001610c32565b6000806000806000610e3687876115c9565b94506001600160a01b0385163b15156040517f8d22ea2a0000000000000000000000000000000000000000000000000000000081526001600160a01b0387811660048301529192507f000000000000000000000000000000000000000000000000000000000000000090911690638d22ea2a9060240160206040518083038186803b158015610ec457600080fd5b505afa158015610ed8573d6000803e3d6000fd5b505050506040513d601f19601f82011682018060405250810190610efc91906124c7565b6040517f70a082310000000000000000000000000000000000000000000000000000000081526001600160a01b0387811660048301529195507f0000000000000000000000000000000000000000000000000000000000000000909116906370a082319060240160206040518083038186803b158015610f7b57600080fd5b505afa158015610f8f573d6000803e3d6000fd5b505050506040513d601f19601f82011682018060405250810190610fb391906127b8565b9250801561103d57846001600160a01b0316633c78929e6040518163ffffffff1660e01b815260040160206040518083038186803b158015610ff457600080fd5b505afa158015611008573d6000803e3d6000fd5b505050506040513d601f19601f8201168201806040525081019061102c91906128aa565b6bffffffffffffffffffffffff1691505b9295509295909350565b600061105284611540565b61105b82611719565b600061106785856115c9565b90506110738584611c0d565b6110a76001600160a01b037f0000000000000000000000000000000000000000000000000000000000000000168285611d92565b336001600160a01b031684866001600160a01b03167fb1968721eeb35d2206c8aa91805bc908019965ff4cff13c158f89956fb8e9248866040516107a991815260200190565b600061065a83836115c9565b6001600160a01b03851663d505accf333087873561111d60408a0160208b01612870565b604080517fffffffff0000000000000000000000000000000000000000000000000000000060e089901b1681526001600160a01b0396871660048201529590941660248601526044850192909252606484015260ff16608483015286013560a4820152606086013560c482015260e401600060405180830381600087803b1580156111a757600080fd5b505af11580156111bb573d6000803e3d6000fd5b505050506111c98282611b13565b505050505050565b6001600160a01b03831661124c5760405162461bcd60e51b8152602060048201526024808201527f45524332303a20617070726f76652066726f6d20746865207a65726f2061646460448201527f7265737300000000000000000000000000000000000000000000000000000000606482015260840161063e565b6001600160a01b0382166112c85760405162461bcd60e51b815260206004820152602260248201527f45524332303a20617070726f766520746f20746865207a65726f20616464726560448201527f7373000000000000000000000000000000000000000000000000000000000000606482015260840161063e565b6001600160a01b0383811660008181526001602090815260408083209487168084529482529182902085905590518481527f8c5be1e5ebec7d5bd14f71427d1e84f3dd0314c0f7b2291e5b200ac8c7c3b925910160405180910390a3505050565b6001600160a01b0383166113a55760405162461bcd60e51b815260206004820152602560248201527f45524332303a207472616e736665722066726f6d20746865207a65726f20616460448201527f6472657373000000000000000000000000000000000000000000000000000000606482015260840161063e565b6001600160a01b0382166114215760405162461bcd60e51b815260206004820152602360248201527f45524332303a207472616e7366657220746f20746865207a65726f206164647260448201527f6573730000000000000000000000000000000000000000000000000000000000606482015260840161063e565b6001600160a01b038316600090815260208190526040902054818110156114b05760405162461bcd60e51b815260206004820152602660248201527f45524332303a207472616e7366657220616d6f756e742065786365656473206260448201527f616c616e63650000000000000000000000000000000000000000000000000000606482015260840161063e565b6001600160a01b038085166000908152602081905260408082208585039055918516815290812080548492906114e7908490612a97565b92505081905550826001600160a01b0316846001600160a01b03167fddf252ad1be2c89b69c2b068fc378daa952ba7f163c4a11628f55a4df523b3ef8460405161153391815260200190565b60405180910390a36104ec565b6001600160a01b03811633148061157a57506001600160a01b038116600090815260066020908152604080832033845290915290205460ff165b6115c65760405162461bcd60e51b815260206004820152601e60248201527f5457414244656c656761746f722f6e6f742d646c6774722d6f722d7265700000604482015260640161063e565b50565b600061065a61161a84846040516bffffffffffffffffffffffff19606084901b1660208201526034810182905260009060540160405160208183030381529060405280519060200120905092915050565b611ddb565b61162881611719565b611631836118c3565b61163c838383611e64565b505050565b6001600160a01b0382166116975760405162461bcd60e51b815260206004820152601f60248201527f45524332303a206d696e7420746f20746865207a65726f206164647265737300604482015260640161063e565b80600260008282546116a99190612a97565b90915550506001600160a01b038216600090815260208190526040812080548392906116d6908490612a97565b90915550506040518181526001600160a01b038316906000907fddf252ad1be2c89b69c2b068fc378daa952ba7f163c4a11628f55a4df523b3ef90602001610c32565b600081116115c65760405162461bcd60e51b815260206004820152601c60248201527f5457414244656c656761746f722f616d6f756e742d67742d7a65726f00000000604482015260640161063e565b6040516001600160a01b03808516602483015283166044820152606481018290526104ec9085907f23b872dd00000000000000000000000000000000000000000000000000000000906084015b60408051601f198184030181529190526020810180517bffffffffffffffffffffffffffffffffffffffffffffffffffffffff167fffffffff0000000000000000000000000000000000000000000000000000000090931692909217909152611ee7565b6001600160a01b0381166115c65760405162461bcd60e51b815260206004820181905260248201527f5457414244656c656761746f722f646c67742d6e6f742d7a65726f2d61646472604482015260640161063e565b62ed4e008111156115c65760405162461bcd60e51b815260206004820152601b60248201527f5457414244656c656761746f722f6c6f636b2d746f6f2d6c6f6e670000000000604482015260640161063e565b806001600160a01b0316633c78929e6040518163ffffffff1660e01b815260040160206040518083038186803b1580156118fc57600080fd5b505afa158015611910573d6000803e3d6000fd5b505050506040513d601f19601f8201168201806040525081019061193491906128aa565b6bffffffffffffffffffffffff164210156115c65760405162461bcd60e51b815260206004820152601f60248201527f5457414244656c656761746f722f64656c65676174696f6e2d6c6f636b656400604482015260640161063e565b604080516001600160a01b0383166024808301919091528251808303909101815260449091019091526020810180517bffffffffffffffffffffffffffffffffffffffffffffffffffffffff167f5c19a95c0000000000000000000000000000000000000000000000000000000090811790915290611a108482611fcc565b5050505050565b6005546000908190611a32906001600160a01b031685612110565b6040517f909f1cad0000000000000000000000000000000000000000000000000000000081526bffffffffffffffffffffffff851660048201529091506001600160a01b0382169063909f1cad90602401600060405180830381600087803b158015611a9d57600080fd5b505af1158015611ab1573d6000803e3d6000fd5b50929695505050505050565b6001600160a01b0381166115c65760405162461bcd60e51b815260206004820152601e60248201527f5457414244656c656761746f722f746f2d6e6f742d7a65726f2d616464720000604482015260640161063e565b60608160008167ffffffffffffffff811115611b3157611b31612b92565b604051908082528060200260200182016040528015611b6457816020015b6060815260200190600190039081611b4f5790505b50905060005b82811015611c0457611bd430878784818110611b8857611b88612b7c565b9050602002810190611b9a9190612a01565b8080601f0160208091040260200160405190810160405280939291908181526020018383808284376000920191909152506121c792505050565b828281518110611be657611be6612b7c565b60200260200101819052508080611bfc90612b2d565b915050611b6a565b50949350505050565b6001600160a01b038216611c895760405162461bcd60e51b815260206004820152602160248201527f45524332303a206275726e2066726f6d20746865207a65726f2061646472657360448201527f7300000000000000000000000000000000000000000000000000000000000000606482015260840161063e565b6001600160a01b03821660009081526020819052604090205481811015611d185760405162461bcd60e51b815260206004820152602260248201527f45524332303a206275726e20616d6f756e7420657863656564732062616c616e60448201527f6365000000000000000000000000000000000000000000000000000000000000606482015260840161063e565b6001600160a01b0383166000908152602081905260408120838303905560028054849290611d47908490612aaf565b90915550506040518281526000906001600160a01b038516907fddf252ad1be2c89b69c2b068fc378daa952ba7f163c4a11628f55a4df523b3ef9060200160405180910390a3505050565b6040516001600160a01b03831660248201526044810182905261163c9084907fa9059cbb00000000000000000000000000000000000000000000000000000000906064016117b6565b600554600090610595906001600160a01b031683306040517f3d602d80600a3d3981f3363d3d373d3d3d363d730000000000000000000000008152606093841b60148201527f5af43d82803e903d91602b57fd5bf3ff000000000000000000000000000000006028820152921b6038830152604c8201526037808220606c830152605591012090565b604080516001600160a01b038416602482015260448082018490528251808303909101815260649091019091526020810180517bffffffffffffffffffffffffffffffffffffffffffffffffffffffff167fa9059cbb00000000000000000000000000000000000000000000000000000000908117909152906111c98582611fcc565b6000611f3c826040518060400160405280602081526020017f5361666545524332303a206c6f772d6c6576656c2063616c6c206661696c6564815250856001600160a01b03166121ec9092919063ffffffff16565b80519091501561163c5780806020019051810190611f5a919061279b565b61163c5760405162461bcd60e51b815260206004820152602a60248201527f5361666545524332303a204552433230206f7065726174696f6e20646964206e60448201527f6f74207375636365656400000000000000000000000000000000000000000000606482015260840161063e565b60408051600180825281830190925260609160009190816020015b604080518082019091526000815260606020820152815260200190600190039081611fe757905050905060405180604001604052807f00000000000000000000000000000000000000000000000000000000000000006001600160a01b03168152602001848152508160008151811061206257612062612b7c565b60209081029190910101526040517fde9443bf0000000000000000000000000000000000000000000000000000000081526001600160a01b0385169063de9443bf906120b2908490600401612971565b600060405180830381600087803b1580156120cc57600080fd5b505af11580156120e0573d6000803e3d6000fd5b505050506040513d6000823e601f3d908101601f191682016040526121089190810190612682565b949350505050565b60006040517f3d602d80600a3d3981f3363d3d373d3d3d363d7300000000000000000000000081528360601b60148201527f5af43d82803e903d91602b57fd5bf300000000000000000000000000000000006028820152826037826000f59150506001600160a01b0381166105955760405162461bcd60e51b815260206004820152601760248201527f455243313136373a2063726561746532206661696c6564000000000000000000604482015260640161063e565b606061065a8383604051806060016040528060278152602001612bf5602791396121fb565b606061210884846000856122e6565b6060833b6122715760405162461bcd60e51b815260206004820152602660248201527f416464726573733a2064656c65676174652063616c6c20746f206e6f6e2d636f60448201527f6e74726163740000000000000000000000000000000000000000000000000000606482015260840161063e565b600080856001600160a01b03168560405161228c91906128f3565b600060405180830381855af49150503d80600081146122c7576040519150601f19603f3d011682016040523d82523d6000602084013e6122cc565b606091505b50915091506122dc828286612425565b9695505050505050565b60608247101561235e5760405162461bcd60e51b815260206004820152602660248201527f416464726573733a20696e73756666696369656e742062616c616e636520666f60448201527f722063616c6c0000000000000000000000000000000000000000000000000000606482015260840161063e565b843b6123ac5760405162461bcd60e51b815260206004820152601d60248201527f416464726573733a2063616c6c20746f206e6f6e2d636f6e7472616374000000604482015260640161063e565b600080866001600160a01b031685876040516123c891906128f3565b60006040518083038185875af1925050503d8060008114612405576040519150601f19603f3d011682016040523d82523d6000602084013e61240a565b606091505b509150915061241a828286612425565b979650505050505050565b6060831561243457508161065a565b8251156124445782518084602001fd5b8160405162461bcd60e51b815260040161063e91906129ee565b60008083601f84011261247057600080fd5b50813567ffffffffffffffff81111561248857600080fd5b6020830191508360208260051b85010111156124a357600080fd5b9250929050565b6000602082840312156124bc57600080fd5b813561065a81612ba8565b6000602082840312156124d957600080fd5b815161065a81612ba8565b600080604083850312156124f757600080fd5b823561250281612ba8565b9150602083013561251281612ba8565b809150509250929050565b60008060006060848603121561253257600080fd5b833561253d81612ba8565b9250602084013561254d81612ba8565b929592945050506040919091013590565b6000806040838503121561257157600080fd5b823561257c81612ba8565b9150602083013561251281612bbd565b6000806040838503121561259f57600080fd5b82356125aa81612ba8565b946020939093013593505050565b600080600080608085870312156125ce57600080fd5b84356125d981612ba8565b93506020850135925060408501356125f081612ba8565b9150606085013561260081612bda565b939692955090935050565b60008060006060848603121561262057600080fd5b833561262b81612ba8565b95602085013595506040909401359392505050565b6000806020838503121561265357600080fd5b823567ffffffffffffffff81111561266a57600080fd5b6126768582860161245e565b90969095509350505050565b6000602080838503121561269557600080fd5b825167ffffffffffffffff808211156126ad57600080fd5b8185019150601f86818401126126c257600080fd5b8251828111156126d4576126d4612b92565b8060051b6126e3868201612a66565b8281528681019086880183880189018c10156126fe57600080fd5b600093505b8484101561278c5780518781111561271a57600080fd5b8801603f81018d1361272b57600080fd5b8981015160408982111561274157612741612b92565b6127528c601f198b85011601612a66565b8281528f8284860101111561276657600080fd5b612775838e8301848701612ac6565b865250505060019390930192918801918801612703565b509a9950505050505050505050565b6000602082840312156127ad57600080fd5b815161065a81612bbd565b6000602082840312156127ca57600080fd5b5051919050565b60008060008084860360c08112156127e857600080fd5b853594506080601f19820112156127fe57600080fd5b5060208501925060a085013567ffffffffffffffff81111561281f57600080fd5b61282b8782880161245e565b95989497509550505050565b60008060006060848603121561284c57600080fd5b8335925060208401359150604084013561286581612ba8565b809150509250925092565b60006020828403121561288257600080fd5b813561065a81612bcb565b60006020828403121561289f57600080fd5b815161065a81612bcb565b6000602082840312156128bc57600080fd5b815161065a81612bda565b600081518084526128df816020860160208601612ac6565b601f01601f19169290920160200192915050565b60008251612905818460208701612ac6565b9190910192915050565b6000602080830181845280855180835260408601915060408160051b870101925083870160005b8281101561296457603f198886030184526129528583516128c7565b94509285019290850190600101612936565b5092979650505050505050565b60006020808301818452808551808352604092508286019150828160051b87010184880160005b838110156129e057888303603f19018552815180516001600160a01b031684528701518784018790526129cd878501826128c7565b9588019593505090860190600101612998565b509098975050505050505050565b60208152600061065a60208301846128c7565b60008083357fffffffffffffffffffffffffffffffffffffffffffffffffffffffffffffffe1843603018112612a3657600080fd5b83018035915067ffffffffffffffff821115612a5157600080fd5b6020019150368190038213156124a357600080fd5b604051601f8201601f1916810167ffffffffffffffff81118282101715612a8f57612a8f612b92565b604052919050565b60008219821115612aaa57612aaa612b66565b500190565b600082821015612ac157612ac1612b66565b500390565b60005b83811015612ae1578181015183820152602001612ac9565b838111156104ec5750506000910152565b600181811c90821680612b0657607f821691505b60208210811415612b2757634e487b7160e01b600052602260045260246000fd5b50919050565b60007fffffffffffffffffffffffffffffffffffffffffffffffffffffffffffffffff821415612b5f57612b5f612b66565b5060010190565b634e487b7160e01b600052601160045260246000fd5b634e487b7160e01b600052603260045260246000fd5b634e487b7160e01b600052604160045260246000fd5b6001600160a01b03811681146115c657600080fd5b80151581146115c657600080fd5b60ff811681146115c657600080fd5b6bffffffffffffffffffffffff811681146115c657600080fdfe416464726573733a206c6f772d6c6576656c2064656c65676174652063616c6c206661696c6564a2646970667358221220bd23ca7a3b87962e0a1874f4570fe0e87661f2f4fe1e8fca5e3c793377f4e80864736f6c63430008060033608060405234801561001057600080fd5b506107dc806100206000396000f3fe608060405234801561001057600080fd5b506004361061004c5760003560e01c80633c78929e14610051578063909f1cad146100a3578063ac2293af146100b8578063de9443bf146100cb575b600080fd5b600054610081907401000000000000000000000000000000000000000090046bffffffffffffffffffffffff1681565b6040516bffffffffffffffffffffffff90911681526020015b60405180910390f35b6100b66100b136600461049e565b6100eb565b005b6100b66100c636600461049e565b610182565b6100de6100d9366004610429565b610234565b60405161009a919061051b565b60005473ffffffffffffffffffffffffffffffffffffffff16156101565760405162461bcd60e51b815260206004820152601760248201527f44656c65676174696f6e2f616c72656164792d696e697400000000000000000060448201526064015b60405180910390fd5b6bffffffffffffffffffffffff1674010000000000000000000000000000000000000000023317600055565b60005473ffffffffffffffffffffffffffffffffffffffff1633146101e95760405162461bcd60e51b815260206004820152601560248201527f44656c65676174696f6e2f6f6e6c792d6f776e65720000000000000000000000604482015260640161014d565b600080546bffffffffffffffffffffffff909216740100000000000000000000000000000000000000000273ffffffffffffffffffffffffffffffffffffffff909216919091179055565b60005460609073ffffffffffffffffffffffffffffffffffffffff16331461029e5760405162461bcd60e51b815260206004820152601560248201527f44656c65676174696f6e2f6f6e6c792d6f776e65720000000000000000000000604482015260640161014d565b8160008167ffffffffffffffff8111156102ba576102ba610790565b6040519080825280602002602001820160405280156102ed57816020015b60608152602001906001900390816102d85790505b5060408051808201909152600081526060602082015290915060005b83811015610382578686828181106103235761032361077a565b905060200281019061033591906105ae565b61033e9061063c565b91506103528260000151836020015161038d565b8382815181106103645761036461077a565b6020026020010181905250808061037a90610733565b915050610309565b509095945050505050565b60606000808473ffffffffffffffffffffffffffffffffffffffff166000856040516103b991906104ff565b60006040518083038185875af1925050503d80600081146103f6576040519150601f19603f3d011682016040523d82523d6000602084013e6103fb565b606091505b50915091508181906104205760405162461bcd60e51b815260040161014d919061059b565b50949350505050565b6000806020838503121561043c57600080fd5b823567ffffffffffffffff8082111561045457600080fd5b818501915085601f83011261046857600080fd5b81358181111561047757600080fd5b8660208260051b850101111561048c57600080fd5b60209290920196919550909350505050565b6000602082840312156104b057600080fd5b81356bffffffffffffffffffffffff811681146104cc57600080fd5b9392505050565b600081518084526104eb816020860160208601610703565b601f01601f19169290920160200192915050565b60008251610511818460208701610703565b9190910192915050565b6000602080830181845280855180835260408601915060408160051b870101925083870160005b8281101561058e577fffffffffffffffffffffffffffffffffffffffffffffffffffffffffffffffc088860301845261057c8583516104d3565b94509285019290850190600101610542565b5092979650505050505050565b6020815260006104cc60208301846104d3565b600082357fffffffffffffffffffffffffffffffffffffffffffffffffffffffffffffffc183360301811261051157600080fd5b6040805190810167ffffffffffffffff8111828210171561060557610605610790565b60405290565b604051601f8201601f1916810167ffffffffffffffff8111828210171561063457610634610790565b604052919050565b60006040823603121561064e57600080fd5b6106566105e2565b823573ffffffffffffffffffffffffffffffffffffffff8116811461067a57600080fd5b815260208381013567ffffffffffffffff8082111561069857600080fd5b9085019036601f8301126106ab57600080fd5b8135818111156106bd576106bd610790565b6106cf84601f19601f8401160161060b565b915080825236848285010111156106e557600080fd5b80848401858401376000908201840152918301919091525092915050565b60005b8381101561071e578181015183820152602001610706565b8381111561072d576000848401525b50505050565b60007fffffffffffffffffffffffffffffffffffffffffffffffffffffffffffffffff82141561077357634e487b7160e01b600052601160045260246000fd5b5060010190565b634e487b7160e01b600052603260045260246000fd5b634e487b7160e01b600052604160045260246000fdfea2646970667358221220e12294174ea821f82c2a1f83c4f824acb92d2de0e672f2347c9eb5611a26a93564736f6c63430008060033",
  "linkReferences": {},
  "deployedLinkReferences": {}
}