{"@erc721k/periphery-sol/contracts/svg/svg.sol":{"svg":{"abi":[{"inputs":[{"internalType":"bytes","name":"_data","type":"bytes"},{"internalType":"uint256","name":"_offset","type":"uint256"}],"name":"byte2uint8","outputs":[{"internalType":"uint8","name":"","type":"uint8"}],"stateMutability":"pure","type":"function"},{"inputs":[{"internalType":"bytes","name":"_data","type":"bytes"},{"internalType":"uint256","name":"_offset","type":"uint256"},{"internalType":"uint256","name":"_len","type":"uint256"}],"name":"stringifyIntSet","outputs":[{"internalType":"bytes","name":"","type":"bytes"}],"stateMutability":"pure","type":"function"}],"devdoc":{"author":"Kames Geraghty","details":"Original code from w1nt3r-eth/hot-chain-svg (https://github.com/w1nt3r-eth/hot-chain-svg)","kind":"dev","methods":{},"title":"svg","version":1},"evm":{"bytecode":{"linkReferences":{},"object":"6109e3610053600b82828239805160001a607314610046577f4e487b7100000000000000000000000000000000000000000000000000000000600052600060045260246000fd5b30600052607381538281f3fe73000000000000000000000000000000000000000030146080604052600436106100405760003560e01c80635119ce4b14610045578063c821f2ef14610075575b600080fd5b61005f600480360381019061005a91906104c5565b6100a5565b60405161006c919061053d565b60405180910390f35b61008f600480360381019061008a9190610558565b610113565b60405161009c919061064f565b60405180910390f35b6000818351116100ea576040517f08c379a00000000000000000000000000000000000000000000000000000000081526004016100e1906106ce565b60405180910390fd5b8282815181106100fd576100fc6106ee565b5b602001015160f81c60f81b60f81c905092915050565b6060808284610122919061074c565b85511015610165576040517f08c379a000000000000000000000000000000000000000000000000000000000815260040161015c906106ce565b60405180910390fd5b60008490505b8385610177919061074c565b8110156101c9578161019461018c88846100a5565b60ff166101d5565b6040516020016101a5929190610871565b604051602081830303815290604052915080806101c1906108a0565b91505061016b565b50809150509392505050565b60606000820361021c576040518060400160405280600181526020017f30000000000000000000000000000000000000000000000000000000000000008152509050610330565b600082905060005b6000821461024e578080610237906108a0565b915050600a826102479190610917565b9150610224565b60008167ffffffffffffffff81111561026a57610269610364565b5b6040519080825280601f01601f19166020018201604052801561029c5781602001600182028036833780820191505090505b5090505b60008514610329576001826102b59190610948565b9150600a856102c4919061097c565b60306102d0919061074c565b60f81b8183815181106102e6576102e56106ee565b5b60200101907effffffffffffffffffffffffffffffffffffffffffffffffffffffffffffff1916908160001a905350600a856103229190610917565b94506102a0565b8093505050505b919050565b6000604051905090565b600080fd5b600080fd5b600080fd5b600080fd5b6000601f19601f8301169050919050565b7f4e487b7100000000000000000000000000000000000000000000000000000000600052604160045260246000fd5b61039c82610353565b810181811067ffffffffffffffff821117156103bb576103ba610364565b5b80604052505050565b60006103ce610335565b90506103da8282610393565b919050565b600067ffffffffffffffff8211156103fa576103f9610364565b5b61040382610353565b9050602081019050919050565b82818337600083830152505050565b600061043261042d846103df565b6103c4565b90508281526020810184848401111561044e5761044d61034e565b5b610459848285610410565b509392505050565b600082601f83011261047657610475610349565b5b813561048684826020860161041f565b91505092915050565b6000819050919050565b6104a28161048f565b81146104ad57600080fd5b50565b6000813590506104bf81610499565b92915050565b600080604083850312156104dc576104db61033f565b5b600083013567ffffffffffffffff8111156104fa576104f9610344565b5b61050685828601610461565b9250506020610517858286016104b0565b9150509250929050565b600060ff82169050919050565b61053781610521565b82525050565b6000602082019050610552600083018461052e565b92915050565b6000806000606084860312156105715761057061033f565b5b600084013567ffffffffffffffff81111561058f5761058e610344565b5b61059b86828701610461565b93505060206105ac868287016104b0565b92505060406105bd868287016104b0565b9150509250925092565b600081519050919050565b600082825260208201905092915050565b60005b838110156106015780820151818401526020810190506105e6565b83811115610610576000848401525b50505050565b6000610621826105c7565b61062b81856105d2565b935061063b8185602086016105e3565b61064481610353565b840191505092915050565b600060208201905081810360008301526106698184610616565b905092915050565b600082825260208201905092915050565b7f4f7574206f662072616e67650000000000000000000000000000000000000000600082015250565b60006106b8600c83610671565b91506106c382610682565b602082019050919050565b600060208201905081810360008301526106e7816106ab565b9050919050565b7f4e487b7100000000000000000000000000000000000000000000000000000000600052603260045260246000fd5b7f4e487b7100000000000000000000000000000000000000000000000000000000600052601160045260246000fd5b60006107578261048f565b91506107628361048f565b9250827fffffffffffffffffffffffffffffffffffffffffffffffffffffffffffffffff038211156107975761079661071d565b5b828201905092915050565b600081905092915050565b60006107b8826105c7565b6107c281856107a2565b93506107d28185602086016105e3565b80840191505092915050565b600081519050919050565b600081905092915050565b60006107ff826107de565b61080981856107e9565b93506108198185602086016105e3565b80840191505092915050565b7f2000000000000000000000000000000000000000000000000000000000000000600082015250565b600061085b6001836107e9565b915061086682610825565b600182019050919050565b600061087d82856107ad565b915061088982846107f4565b91506108948261084e565b91508190509392505050565b60006108ab8261048f565b91507fffffffffffffffffffffffffffffffffffffffffffffffffffffffffffffffff82036108dd576108dc61071d565b5b600182019050919050565b7f4e487b7100000000000000000000000000000000000000000000000000000000600052601260045260246000fd5b60006109228261048f565b915061092d8361048f565b92508261093d5761093c6108e8565b5b828204905092915050565b60006109538261048f565b915061095e8361048f565b9250828210156109715761097061071d565b5b828203905092915050565b60006109878261048f565b91506109928361048f565b9250826109a2576109a16108e8565b5b82820690509291505056fea2646970667358221220d5305ad94c5b18932fe30f9597fe929393b6e7185c96ee61e342905df9569ffa64736f6c634300080f0033","opcodes":"PUSH2 0x9E3 PUSH2 0x53 PUSH1 0xB DUP3 DUP3 DUP3 CODECOPY DUP1 MLOAD PUSH1 0x0 BYTE PUSH1 0x73 EQ PUSH2 0x46 JUMPI PUSH32 0x4E487B7100000000000000000000000000000000000000000000000000000000 PUSH1 0x0 MSTORE PUSH1 0x0 PUSH1 0x4 MSTORE PUSH1 0x24 PUSH1 0x0 REVERT JUMPDEST ADDRESS PUSH1 0x0 MSTORE PUSH1 0x73 DUP2 MSTORE8 DUP3 DUP2 RETURN INVALID PUSH20 0x0 ADDRESS EQ PUSH1 0x80 PUSH1 0x40 MSTORE PUSH1 0x4 CALLDATASIZE LT PUSH2 0x40 JUMPI PUSH1 0x0 CALLDATALOAD PUSH1 0xE0 SHR DUP1 PUSH4 0x5119CE4B EQ PUSH2 0x45 JUMPI DUP1 PUSH4 0xC821F2EF EQ PUSH2 0x75 JUMPI JUMPDEST PUSH1 0x0 DUP1 REVERT JUMPDEST PUSH2 0x5F PUSH1 0x4 DUP1 CALLDATASIZE SUB DUP2 ADD SWAP1 PUSH2 0x5A SWAP2 SWAP1 PUSH2 0x4C5 JUMP JUMPDEST PUSH2 0xA5 JUMP JUMPDEST PUSH1 0x40 MLOAD PUSH2 0x6C SWAP2 SWAP1 PUSH2 0x53D JUMP JUMPDEST PUSH1 0x40 MLOAD DUP1 SWAP2 SUB SWAP1 RETURN JUMPDEST PUSH2 0x8F PUSH1 0x4 DUP1 CALLDATASIZE SUB DUP2 ADD SWAP1 PUSH2 0x8A SWAP2 SWAP1 PUSH2 0x558 JUMP JUMPDEST PUSH2 0x113 JUMP JUMPDEST PUSH1 0x40 MLOAD PUSH2 0x9C SWAP2 SWAP1 PUSH2 0x64F JUMP JUMPDEST PUSH1 0x40 MLOAD DUP1 SWAP2 SUB SWAP1 RETURN JUMPDEST PUSH1 0x0 DUP2 DUP4 MLOAD GT PUSH2 0xEA JUMPI PUSH1 0x40 MLOAD PUSH32 0x8C379A000000000000000000000000000000000000000000000000000000000 DUP2 MSTORE PUSH1 0x4 ADD PUSH2 0xE1 SWAP1 PUSH2 0x6CE JUMP JUMPDEST PUSH1 0x40 MLOAD DUP1 SWAP2 SUB SWAP1 REVERT JUMPDEST DUP3 DUP3 DUP2 MLOAD DUP2 LT PUSH2 0xFD JUMPI PUSH2 0xFC PUSH2 0x6EE JUMP JUMPDEST JUMPDEST PUSH1 0x20 ADD ADD MLOAD PUSH1 0xF8 SHR PUSH1 0xF8 SHL PUSH1 0xF8 SHR SWAP1 POP SWAP3 SWAP2 POP POP JUMP JUMPDEST PUSH1 0x60 DUP1 DUP3 DUP5 PUSH2 0x122 SWAP2 SWAP1 PUSH2 0x74C JUMP JUMPDEST DUP6 MLOAD LT ISZERO PUSH2 0x165 JUMPI PUSH1 0x40 MLOAD PUSH32 0x8C379A000000000000000000000000000000000000000000000000000000000 DUP2 MSTORE PUSH1 0x4 ADD PUSH2 0x15C SWAP1 PUSH2 0x6CE JUMP JUMPDEST PUSH1 0x40 MLOAD DUP1 SWAP2 SUB SWAP1 REVERT JUMPDEST PUSH1 0x0 DUP5 SWAP1 POP JUMPDEST DUP4 DUP6 PUSH2 0x177 SWAP2 SWAP1 PUSH2 0x74C JUMP JUMPDEST DUP2 LT ISZERO PUSH2 0x1C9 JUMPI DUP2 PUSH2 0x194 PUSH2 0x18C DUP9 DUP5 PUSH2 0xA5 JUMP JUMPDEST PUSH1 0xFF AND PUSH2 0x1D5 JUMP JUMPDEST PUSH1 0x40 MLOAD PUSH1 0x20 ADD PUSH2 0x1A5 SWAP3 SWAP2 SWAP1 PUSH2 0x871 JUMP JUMPDEST PUSH1 0x40 MLOAD PUSH1 0x20 DUP2 DUP4 SUB SUB DUP2 MSTORE SWAP1 PUSH1 0x40 MSTORE SWAP2 POP DUP1 DUP1 PUSH2 0x1C1 SWAP1 PUSH2 0x8A0 JUMP JUMPDEST SWAP2 POP POP PUSH2 0x16B JUMP JUMPDEST POP DUP1 SWAP2 POP POP SWAP4 SWAP3 POP POP POP JUMP JUMPDEST PUSH1 0x60 PUSH1 0x0 DUP3 SUB PUSH2 0x21C JUMPI PUSH1 0x40 MLOAD DUP1 PUSH1 0x40 ADD PUSH1 0x40 MSTORE DUP1 PUSH1 0x1 DUP2 MSTORE PUSH1 0x20 ADD PUSH32 0x3000000000000000000000000000000000000000000000000000000000000000 DUP2 MSTORE POP SWAP1 POP PUSH2 0x330 JUMP JUMPDEST PUSH1 0x0 DUP3 SWAP1 POP PUSH1 0x0 JUMPDEST PUSH1 0x0 DUP3 EQ PUSH2 0x24E JUMPI DUP1 DUP1 PUSH2 0x237 SWAP1 PUSH2 0x8A0 JUMP JUMPDEST SWAP2 POP POP PUSH1 0xA DUP3 PUSH2 0x247 SWAP2 SWAP1 PUSH2 0x917 JUMP JUMPDEST SWAP2 POP PUSH2 0x224 JUMP JUMPDEST PUSH1 0x0 DUP2 PUSH8 0xFFFFFFFFFFFFFFFF DUP2 GT ISZERO PUSH2 0x26A JUMPI PUSH2 0x269 PUSH2 0x364 JUMP JUMPDEST JUMPDEST PUSH1 0x40 MLOAD SWAP1 DUP1 DUP3 MSTORE DUP1 PUSH1 0x1F ADD PUSH1 0x1F NOT AND PUSH1 0x20 ADD DUP3 ADD PUSH1 0x40 MSTORE DUP1 ISZERO PUSH2 0x29C JUMPI DUP2 PUSH1 0x20 ADD PUSH1 0x1 DUP3 MUL DUP1 CALLDATASIZE DUP4 CALLDATACOPY DUP1 DUP3 ADD SWAP2 POP POP SWAP1 POP JUMPDEST POP SWAP1 POP JUMPDEST PUSH1 0x0 DUP6 EQ PUSH2 0x329 JUMPI PUSH1 0x1 DUP3 PUSH2 0x2B5 SWAP2 SWAP1 PUSH2 0x948 JUMP JUMPDEST SWAP2 POP PUSH1 0xA DUP6 PUSH2 0x2C4 SWAP2 SWAP1 PUSH2 0x97C JUMP JUMPDEST PUSH1 0x30 PUSH2 0x2D0 SWAP2 SWAP1 PUSH2 0x74C JUMP JUMPDEST PUSH1 0xF8 SHL DUP2 DUP4 DUP2 MLOAD DUP2 LT PUSH2 0x2E6 JUMPI PUSH2 0x2E5 PUSH2 0x6EE JUMP JUMPDEST JUMPDEST PUSH1 0x20 ADD ADD SWAP1 PUSH31 0xFFFFFFFFFFFFFFFFFFFFFFFFFFFFFFFFFFFFFFFFFFFFFFFFFFFFFFFFFFFFFF NOT AND SWAP1 DUP2 PUSH1 0x0 BYTE SWAP1 MSTORE8 POP PUSH1 0xA DUP6 PUSH2 0x322 SWAP2 SWAP1 PUSH2 0x917 JUMP JUMPDEST SWAP5 POP PUSH2 0x2A0 JUMP JUMPDEST DUP1 SWAP4 POP POP POP POP JUMPDEST SWAP2 SWAP1 POP JUMP JUMPDEST PUSH1 0x0 PUSH1 0x40 MLOAD SWAP1 POP SWAP1 JUMP JUMPDEST PUSH1 0x0 DUP1 REVERT JUMPDEST PUSH1 0x0 DUP1 REVERT JUMPDEST PUSH1 0x0 DUP1 REVERT JUMPDEST PUSH1 0x0 DUP1 REVERT JUMPDEST PUSH1 0x0 PUSH1 0x1F NOT PUSH1 0x1F DUP4 ADD AND SWAP1 POP SWAP2 SWAP1 POP JUMP JUMPDEST PUSH32 0x4E487B7100000000000000000000000000000000000000000000000000000000 PUSH1 0x0 MSTORE PUSH1 0x41 PUSH1 0x4 MSTORE PUSH1 0x24 PUSH1 0x0 REVERT JUMPDEST PUSH2 0x39C DUP3 PUSH2 0x353 JUMP JUMPDEST DUP2 ADD DUP2 DUP2 LT PUSH8 0xFFFFFFFFFFFFFFFF DUP3 GT OR ISZERO PUSH2 0x3BB JUMPI PUSH2 0x3BA PUSH2 0x364 JUMP JUMPDEST JUMPDEST DUP1 PUSH1 0x40 MSTORE POP POP POP JUMP JUMPDEST PUSH1 0x0 PUSH2 0x3CE PUSH2 0x335 JUMP JUMPDEST SWAP1 POP PUSH2 0x3DA DUP3 DUP3 PUSH2 0x393 JUMP JUMPDEST SWAP2 SWAP1 POP JUMP JUMPDEST PUSH1 0x0 PUSH8 0xFFFFFFFFFFFFFFFF DUP3 GT ISZERO PUSH2 0x3FA JUMPI PUSH2 0x3F9 PUSH2 0x364 JUMP JUMPDEST JUMPDEST PUSH2 0x403 DUP3 PUSH2 0x353 JUMP JUMPDEST SWAP1 POP PUSH1 0x20 DUP2 ADD SWAP1 POP SWAP2 SWAP1 POP JUMP JUMPDEST DUP3 DUP2 DUP4 CALLDATACOPY PUSH1 0x0 DUP4 DUP4 ADD MSTORE POP POP POP JUMP JUMPDEST PUSH1 0x0 PUSH2 0x432 PUSH2 0x42D DUP5 PUSH2 0x3DF JUMP JUMPDEST PUSH2 0x3C4 JUMP JUMPDEST SWAP1 POP DUP3 DUP2 MSTORE PUSH1 0x20 DUP2 ADD DUP5 DUP5 DUP5 ADD GT ISZERO PUSH2 0x44E JUMPI PUSH2 0x44D PUSH2 0x34E JUMP JUMPDEST JUMPDEST PUSH2 0x459 DUP5 DUP3 DUP6 PUSH2 0x410 JUMP JUMPDEST POP SWAP4 SWAP3 POP POP POP JUMP JUMPDEST PUSH1 0x0 DUP3 PUSH1 0x1F DUP4 ADD SLT PUSH2 0x476 JUMPI PUSH2 0x475 PUSH2 0x349 JUMP JUMPDEST JUMPDEST DUP2 CALLDATALOAD PUSH2 0x486 DUP5 DUP3 PUSH1 0x20 DUP7 ADD PUSH2 0x41F JUMP JUMPDEST SWAP2 POP POP SWAP3 SWAP2 POP POP JUMP JUMPDEST PUSH1 0x0 DUP2 SWAP1 POP SWAP2 SWAP1 POP JUMP JUMPDEST PUSH2 0x4A2 DUP2 PUSH2 0x48F JUMP JUMPDEST DUP2 EQ PUSH2 0x4AD JUMPI PUSH1 0x0 DUP1 REVERT JUMPDEST POP JUMP JUMPDEST PUSH1 0x0 DUP2 CALLDATALOAD SWAP1 POP PUSH2 0x4BF DUP2 PUSH2 0x499 JUMP JUMPDEST SWAP3 SWAP2 POP POP JUMP JUMPDEST PUSH1 0x0 DUP1 PUSH1 0x40 DUP4 DUP6 SUB SLT ISZERO PUSH2 0x4DC JUMPI PUSH2 0x4DB PUSH2 0x33F JUMP JUMPDEST JUMPDEST PUSH1 0x0 DUP4 ADD CALLDATALOAD PUSH8 0xFFFFFFFFFFFFFFFF DUP2 GT ISZERO PUSH2 0x4FA JUMPI PUSH2 0x4F9 PUSH2 0x344 JUMP JUMPDEST JUMPDEST PUSH2 0x506 DUP6 DUP3 DUP7 ADD PUSH2 0x461 JUMP JUMPDEST SWAP3 POP POP PUSH1 0x20 PUSH2 0x517 DUP6 DUP3 DUP7 ADD PUSH2 0x4B0 JUMP JUMPDEST SWAP2 POP POP SWAP3 POP SWAP3 SWAP1 POP JUMP JUMPDEST PUSH1 0x0 PUSH1 0xFF DUP3 AND SWAP1 POP SWAP2 SWAP1 POP JUMP JUMPDEST PUSH2 0x537 DUP2 PUSH2 0x521 JUMP JUMPDEST DUP3 MSTORE POP POP JUMP JUMPDEST PUSH1 0x0 PUSH1 0x20 DUP3 ADD SWAP1 POP PUSH2 0x552 PUSH1 0x0 DUP4 ADD DUP5 PUSH2 0x52E JUMP JUMPDEST SWAP3 SWAP2 POP POP JUMP JUMPDEST PUSH1 0x0 DUP1 PUSH1 0x0 PUSH1 0x60 DUP5 DUP7 SUB SLT ISZERO PUSH2 0x571 JUMPI PUSH2 0x570 PUSH2 0x33F JUMP JUMPDEST JUMPDEST PUSH1 0x0 DUP5 ADD CALLDATALOAD PUSH8 0xFFFFFFFFFFFFFFFF DUP2 GT ISZERO PUSH2 0x58F JUMPI PUSH2 0x58E PUSH2 0x344 JUMP JUMPDEST JUMPDEST PUSH2 0x59B DUP7 DUP3 DUP8 ADD PUSH2 0x461 JUMP JUMPDEST SWAP4 POP POP PUSH1 0x20 PUSH2 0x5AC DUP7 DUP3 DUP8 ADD PUSH2 0x4B0 JUMP JUMPDEST SWAP3 POP POP PUSH1 0x40 PUSH2 0x5BD DUP7 DUP3 DUP8 ADD PUSH2 0x4B0 JUMP JUMPDEST SWAP2 POP POP SWAP3 POP SWAP3 POP SWAP3 JUMP JUMPDEST PUSH1 0x0 DUP2 MLOAD SWAP1 POP SWAP2 SWAP1 POP JUMP JUMPDEST PUSH1 0x0 DUP3 DUP3 MSTORE PUSH1 0x20 DUP3 ADD SWAP1 POP SWAP3 SWAP2 POP POP JUMP JUMPDEST PUSH1 0x0 JUMPDEST DUP4 DUP2 LT ISZERO PUSH2 0x601 JUMPI DUP1 DUP3 ADD MLOAD DUP2 DUP5 ADD MSTORE PUSH1 0x20 DUP2 ADD SWAP1 POP PUSH2 0x5E6 JUMP JUMPDEST DUP4 DUP2 GT ISZERO PUSH2 0x610 JUMPI PUSH1 0x0 DUP5 DUP5 ADD MSTORE JUMPDEST POP POP POP POP JUMP JUMPDEST PUSH1 0x0 PUSH2 0x621 DUP3 PUSH2 0x5C7 JUMP JUMPDEST PUSH2 0x62B DUP2 DUP6 PUSH2 0x5D2 JUMP JUMPDEST SWAP4 POP PUSH2 0x63B DUP2 DUP6 PUSH1 0x20 DUP7 ADD PUSH2 0x5E3 JUMP JUMPDEST PUSH2 0x644 DUP2 PUSH2 0x353 JUMP JUMPDEST DUP5 ADD SWAP2 POP POP SWAP3 SWAP2 POP POP JUMP JUMPDEST PUSH1 0x0 PUSH1 0x20 DUP3 ADD SWAP1 POP DUP2 DUP2 SUB PUSH1 0x0 DUP4 ADD MSTORE PUSH2 0x669 DUP2 DUP5 PUSH2 0x616 JUMP JUMPDEST SWAP1 POP SWAP3 SWAP2 POP POP JUMP JUMPDEST PUSH1 0x0 DUP3 DUP3 MSTORE PUSH1 0x20 DUP3 ADD SWAP1 POP SWAP3 SWAP2 POP POP JUMP JUMPDEST PUSH32 0x4F7574206F662072616E67650000000000000000000000000000000000000000 PUSH1 0x0 DUP3 ADD MSTORE POP JUMP JUMPDEST PUSH1 0x0 PUSH2 0x6B8 PUSH1 0xC DUP4 PUSH2 0x671 JUMP JUMPDEST SWAP2 POP PUSH2 0x6C3 DUP3 PUSH2 0x682 JUMP JUMPDEST PUSH1 0x20 DUP3 ADD SWAP1 POP SWAP2 SWAP1 POP JUMP JUMPDEST PUSH1 0x0 PUSH1 0x20 DUP3 ADD SWAP1 POP DUP2 DUP2 SUB PUSH1 0x0 DUP4 ADD MSTORE PUSH2 0x6E7 DUP2 PUSH2 0x6AB JUMP JUMPDEST SWAP1 POP SWAP2 SWAP1 POP JUMP JUMPDEST PUSH32 0x4E487B7100000000000000000000000000000000000000000000000000000000 PUSH1 0x0 MSTORE PUSH1 0x32 PUSH1 0x4 MSTORE PUSH1 0x24 PUSH1 0x0 REVERT JUMPDEST PUSH32 0x4E487B7100000000000000000000000000000000000000000000000000000000 PUSH1 0x0 MSTORE PUSH1 0x11 PUSH1 0x4 MSTORE PUSH1 0x24 PUSH1 0x0 REVERT JUMPDEST PUSH1 0x0 PUSH2 0x757 DUP3 PUSH2 0x48F JUMP JUMPDEST SWAP2 POP PUSH2 0x762 DUP4 PUSH2 0x48F JUMP JUMPDEST SWAP3 POP DUP3 PUSH32 0xFFFFFFFFFFFFFFFFFFFFFFFFFFFFFFFFFFFFFFFFFFFFFFFFFFFFFFFFFFFFFFFF SUB DUP3 GT ISZERO PUSH2 0x797 JUMPI PUSH2 0x796 PUSH2 0x71D JUMP JUMPDEST JUMPDEST DUP3 DUP3 ADD SWAP1 POP SWAP3 SWAP2 POP POP JUMP JUMPDEST PUSH1 0x0 DUP2 SWAP1 POP SWAP3 SWAP2 POP POP JUMP JUMPDEST PUSH1 0x0 PUSH2 0x7B8 DUP3 PUSH2 0x5C7 JUMP JUMPDEST PUSH2 0x7C2 DUP2 DUP6 PUSH2 0x7A2 JUMP JUMPDEST SWAP4 POP PUSH2 0x7D2 DUP2 DUP6 PUSH1 0x20 DUP7 ADD PUSH2 0x5E3 JUMP JUMPDEST DUP1 DUP5 ADD SWAP2 POP POP SWAP3 SWAP2 POP POP JUMP JUMPDEST PUSH1 0x0 DUP2 MLOAD SWAP1 POP SWAP2 SWAP1 POP JUMP JUMPDEST PUSH1 0x0 DUP2 SWAP1 POP SWAP3 SWAP2 POP POP JUMP JUMPDEST PUSH1 0x0 PUSH2 0x7FF DUP3 PUSH2 0x7DE JUMP JUMPDEST PUSH2 0x809 DUP2 DUP6 PUSH2 0x7E9 JUMP JUMPDEST SWAP4 POP PUSH2 0x819 DUP2 DUP6 PUSH1 0x20 DUP7 ADD PUSH2 0x5E3 JUMP JUMPDEST DUP1 DUP5 ADD SWAP2 POP POP SWAP3 SWAP2 POP POP JUMP JUMPDEST PUSH32 0x2000000000000000000000000000000000000000000000000000000000000000 PUSH1 0x0 DUP3 ADD MSTORE POP JUMP JUMPDEST PUSH1 0x0 PUSH2 0x85B PUSH1 0x1 DUP4 PUSH2 0x7E9 JUMP JUMPDEST SWAP2 POP PUSH2 0x866 DUP3 PUSH2 0x825 JUMP JUMPDEST PUSH1 0x1 DUP3 ADD SWAP1 POP SWAP2 SWAP1 POP JUMP JUMPDEST PUSH1 0x0 PUSH2 0x87D DUP3 DUP6 PUSH2 0x7AD JUMP JUMPDEST SWAP2 POP PUSH2 0x889 DUP3 DUP5 PUSH2 0x7F4 JUMP JUMPDEST SWAP2 POP PUSH2 0x894 DUP3 PUSH2 0x84E JUMP JUMPDEST SWAP2 POP DUP2 SWAP1 POP SWAP4 SWAP3 POP POP POP JUMP JUMPDEST PUSH1 0x0 PUSH2 0x8AB DUP3 PUSH2 0x48F JUMP JUMPDEST SWAP2 POP PUSH32 0xFFFFFFFFFFFFFFFFFFFFFFFFFFFFFFFFFFFFFFFFFFFFFFFFFFFFFFFFFFFFFFFF DUP3 SUB PUSH2 0x8DD JUMPI PUSH2 0x8DC PUSH2 0x71D JUMP JUMPDEST JUMPDEST PUSH1 0x1 DUP3 ADD SWAP1 POP SWAP2 SWAP1 POP JUMP JUMPDEST PUSH32 0x4E487B7100000000000000000000000000000000000000000000000000000000 PUSH1 0x0 MSTORE PUSH1 0x12 PUSH1 0x4 MSTORE PUSH1 0x24 PUSH1 0x0 REVERT JUMPDEST PUSH1 0x0 PUSH2 0x922 DUP3 PUSH2 0x48F JUMP JUMPDEST SWAP2 POP PUSH2 0x92D DUP4 PUSH2 0x48F JUMP JUMPDEST SWAP3 POP DUP3 PUSH2 0x93D JUMPI PUSH2 0x93C PUSH2 0x8E8 JUMP JUMPDEST JUMPDEST DUP3 DUP3 DIV SWAP1 POP SWAP3 SWAP2 POP POP JUMP JUMPDEST PUSH1 0x0 PUSH2 0x953 DUP3 PUSH2 0x48F JUMP JUMPDEST SWAP2 POP PUSH2 0x95E DUP4 PUSH2 0x48F JUMP JUMPDEST SWAP3 POP DUP3 DUP3 LT ISZERO PUSH2 0x971 JUMPI PUSH2 0x970 PUSH2 0x71D JUMP JUMPDEST JUMPDEST DUP3 DUP3 SUB SWAP1 POP SWAP3 SWAP2 POP POP JUMP JUMPDEST PUSH1 0x0 PUSH2 0x987 DUP3 PUSH2 0x48F JUMP JUMPDEST SWAP2 POP PUSH2 0x992 DUP4 PUSH2 0x48F JUMP JUMPDEST SWAP3 POP DUP3 PUSH2 0x9A2 JUMPI PUSH2 0x9A1 PUSH2 0x8E8 JUMP JUMPDEST JUMPDEST DUP3 DUP3 MOD SWAP1 POP SWAP3 SWAP2 POP POP JUMP INVALID LOG2 PUSH5 0x6970667358 0x22 SLT KECCAK256 0xD5 ADDRESS GAS 0xD9 0x4C JUMPDEST XOR SWAP4 0x2F 0xE3 0xF SWAP6 SWAP8 INVALID SWAP3 SWAP4 SWAP4 0xB6 0xE7 XOR 0x5C SWAP7 0xEE PUSH2 0xE342 SWAP1 0x5D 0xF9 JUMP SWAP16 STATICCALL PUSH5 0x736F6C6343 STOP ADDMOD 0xF STOP CALLER "},"gasEstimates":{"creation":{"codeDepositCost":"506200","executionCost":"568","totalCost":"506768"},"external":{"byte2uint8(bytes,uint256)":"infinite","stringifyIntSet(bytes,uint256,uint256)":"infinite"},"internal":{"animateTransform(string memory)":"infinite","cdata(string memory)":"infinite","circle(string memory)":"infinite","circle(string memory,string memory)":"infinite","defs(string memory)":"infinite","el(string memory,string memory)":"infinite","el(string memory,string memory,string memory)":"infinite","end()":"infinite","filter(string memory,string memory)":"infinite","g(string memory,string memory)":"infinite","gradientStop(uint256,string memory,string memory)":"infinite","image(string memory,string memory)":"infinite","line(string memory,string memory)":"infinite","linearGradient(string memory,string memory)":"infinite","path(string memory,string memory)":"infinite","prop(string memory,string memory)":"infinite","radialGradient(string memory,string memory)":"infinite","rect(string memory)":"infinite","rect(string memory,string memory)":"infinite","start()":"infinite","stop(string memory)":"infinite","text(string memory,string memory)":"infinite"}},"methodIdentifiers":{"byte2uint8(bytes,uint256)":"5119ce4b","stringifyIntSet(bytes,uint256,uint256)":"c821f2ef"}},"storageLayout":{"storage":[],"types":null},"userdoc":{"kind":"user","methods":{},"notice":"SVG construction library using web-like API.","version":1}}}}