{"@erc721k/periphery-sol/contracts/svg/SVGLibrary.sol":{"SVGLibrary":{"abi":[{"inputs":[{"internalType":"address","name":"_colors_","type":"address"}],"stateMutability":"nonpayable","type":"constructor"},{"inputs":[{"internalType":"bytes32","name":"package","type":"bytes32"},{"internalType":"bytes","name":"input","type":"bytes"}],"name":"execute","outputs":[{"internalType":"string","name":"data","type":"string"}],"stateMutability":"view","type":"function"}],"devdoc":{"kind":"dev","methods":{},"version":1},"evm":{"bytecode":{"linkReferences":{"@erc721k/periphery-sol/contracts/svg/svg.sol":{"svg":[{"length":20,"start":845}]},"@erc721k/periphery-sol/contracts/svg/svgUtils.sol":{"svgUtils":[{"length":20,"start":1217}]}},"object":"60e06040527f5fd8cb24549624227a78453feaec1565b8d1f4626577a1d15c0719a34804b4606080908152507fe108be43dbedebdd6a5e12088e3ff0ee819db892baccf0fc636e26a2da6c252c60a0908152507f790ef67b6749ebf7a55a8aa23a6703c0074d4b3c0bfb6d059ed0e60eda56b19c60c09081525034801561008557600080fd5b5060405161079f38038061079f83398181016040528101906100a79190610150565b806000806101000a81548173ffffffffffffffffffffffffffffffffffffffff021916908373ffffffffffffffffffffffffffffffffffffffff1602179055505061017d565b600080fd5b600073ffffffffffffffffffffffffffffffffffffffff82169050919050565b600061011d826100f2565b9050919050565b61012d81610112565b811461013857600080fd5b50565b60008151905061014a81610124565b92915050565b600060208284031215610166576101656100ed565b5b60006101748482850161013b565b91505092915050565b60805160a05160c0516105f36101ac60003960006102eb0152600061022b0152600061017701526105f36000f3fe608060405234801561001057600080fd5b506004361061002b5760003560e01c8063e9ae5c5314610030575b600080fd5b61004a6004803603810190610045919061044a565b610060565b6040516100579190610543565b60405180910390f35b6060600073ffffffffffffffffffffffffffffffffffffffff166001600086815260200190815260200160002060009054906101000a900473ffffffffffffffffffffffffffffffffffffffff1673ffffffffffffffffffffffffffffffffffffffff1614610175576000806001600087815260200190815260200160002060009054906101000a900473ffffffffffffffffffffffffffffffffffffffff1673ffffffffffffffffffffffffffffffffffffffff1685856040516101269291906105a4565b600060405180830381855afa9150503d8060008114610161576040519150601f19603f3d011682016040523d82523d6000602084013e610166565b606091505b5091509150809250505061039e565b7f000000000000000000000000000000000000000000000000000000000000000084036102295760008073__$c6f2003f7d3b61116c8cd05afb053ad2db$__73ffffffffffffffffffffffffffffffffffffffff1685856040516101da9291906105a4565b600060405180830381855afa9150503d8060008114610215576040519150601f19603f3d011682016040523d82523d6000602084013e61021a565b606091505b5091509150809250505061039e565b7f000000000000000000000000000000000000000000000000000000000000000084036102e95760008060008054906101000a900473ffffffffffffffffffffffffffffffffffffffff1673ffffffffffffffffffffffffffffffffffffffff16858560405161029a9291906105a4565b600060405180830381855afa9150503d80600081146102d5576040519150601f19603f3d011682016040523d82523d6000602084013e6102da565b606091505b5091509150809250505061039e565b7f0000000000000000000000000000000000000000000000000000000000000000840361039d5760008073__$6682988cdc32c33d1c5aaf5f735b12c37e$__73ffffffffffffffffffffffffffffffffffffffff16858560405161034e9291906105a4565b600060405180830381855afa9150503d8060008114610389576040519150601f19603f3d011682016040523d82523d6000602084013e61038e565b606091505b5091509150809250505061039e565b5b9392505050565b600080fd5b600080fd5b6000819050919050565b6103c2816103af565b81146103cd57600080fd5b50565b6000813590506103df816103b9565b92915050565b600080fd5b600080fd5b600080fd5b60008083601f84011261040a576104096103e5565b5b8235905067ffffffffffffffff811115610427576104266103ea565b5b602083019150836001820283011115610443576104426103ef565b5b9250929050565b600080600060408486031215610463576104626103a5565b5b6000610471868287016103d0565b935050602084013567ffffffffffffffff811115610492576104916103aa565b5b61049e868287016103f4565b92509250509250925092565b600081519050919050565b600082825260208201905092915050565b60005b838110156104e45780820151818401526020810190506104c9565b838111156104f3576000848401525b50505050565b6000601f19601f8301169050919050565b6000610515826104aa565b61051f81856104b5565b935061052f8185602086016104c6565b610538816104f9565b840191505092915050565b6000602082019050818103600083015261055d818461050a565b905092915050565b600081905092915050565b82818337600083830152505050565b600061058b8385610565565b9350610598838584610570565b82840190509392505050565b60006105b182848661057f565b9150819050939250505056fea2646970667358221220a059ca7717c4611c22c530a0667379cc3ad54c3a21993a33ee4979f973e0005164736f6c634300080f0033","opcodes":"PUSH1 0xE0 PUSH1 0x40 MSTORE PUSH32 0x5FD8CB24549624227A78453FEAEC1565B8D1F4626577A1D15C0719A34804B460 PUSH1 0x80 SWAP1 DUP2 MSTORE POP PUSH32 0xE108BE43DBEDEBDD6A5E12088E3FF0EE819DB892BACCF0FC636E26A2DA6C252C PUSH1 0xA0 SWAP1 DUP2 MSTORE POP PUSH32 0x790EF67B6749EBF7A55A8AA23A6703C0074D4B3C0BFB6D059ED0E60EDA56B19C PUSH1 0xC0 SWAP1 DUP2 MSTORE POP CALLVALUE DUP1 ISZERO PUSH2 0x85 JUMPI PUSH1 0x0 DUP1 REVERT JUMPDEST POP PUSH1 0x40 MLOAD PUSH2 0x79F CODESIZE SUB DUP1 PUSH2 0x79F DUP4 CODECOPY DUP2 DUP2 ADD PUSH1 0x40 MSTORE DUP2 ADD SWAP1 PUSH2 0xA7 SWAP2 SWAP1 PUSH2 0x150 JUMP JUMPDEST DUP1 PUSH1 0x0 DUP1 PUSH2 0x100 EXP DUP2 SLOAD DUP2 PUSH20 0xFFFFFFFFFFFFFFFFFFFFFFFFFFFFFFFFFFFFFFFF MUL NOT AND SWAP1 DUP4 PUSH20 0xFFFFFFFFFFFFFFFFFFFFFFFFFFFFFFFFFFFFFFFF AND MUL OR SWAP1 SSTORE POP POP PUSH2 0x17D JUMP JUMPDEST PUSH1 0x0 DUP1 REVERT JUMPDEST PUSH1 0x0 PUSH20 0xFFFFFFFFFFFFFFFFFFFFFFFFFFFFFFFFFFFFFFFF DUP3 AND SWAP1 POP SWAP2 SWAP1 POP JUMP JUMPDEST PUSH1 0x0 PUSH2 0x11D DUP3 PUSH2 0xF2 JUMP JUMPDEST SWAP1 POP SWAP2 SWAP1 POP JUMP JUMPDEST PUSH2 0x12D DUP2 PUSH2 0x112 JUMP JUMPDEST DUP2 EQ PUSH2 0x138 JUMPI PUSH1 0x0 DUP1 REVERT JUMPDEST POP JUMP JUMPDEST PUSH1 0x0 DUP2 MLOAD SWAP1 POP PUSH2 0x14A DUP2 PUSH2 0x124 JUMP JUMPDEST SWAP3 SWAP2 POP POP JUMP JUMPDEST PUSH1 0x0 PUSH1 0x20 DUP3 DUP5 SUB SLT ISZERO PUSH2 0x166 JUMPI PUSH2 0x165 PUSH2 0xED JUMP JUMPDEST JUMPDEST PUSH1 0x0 PUSH2 0x174 DUP5 DUP3 DUP6 ADD PUSH2 0x13B JUMP JUMPDEST SWAP2 POP POP SWAP3 SWAP2 POP POP JUMP JUMPDEST PUSH1 0x80 MLOAD PUSH1 0xA0 MLOAD PUSH1 0xC0 MLOAD PUSH2 0x5F3 PUSH2 0x1AC PUSH1 0x0 CODECOPY PUSH1 0x0 PUSH2 0x2EB ADD MSTORE PUSH1 0x0 PUSH2 0x22B ADD MSTORE PUSH1 0x0 PUSH2 0x177 ADD MSTORE PUSH2 0x5F3 PUSH1 0x0 RETURN INVALID PUSH1 0x80 PUSH1 0x40 MSTORE CALLVALUE DUP1 ISZERO PUSH2 0x10 JUMPI PUSH1 0x0 DUP1 REVERT JUMPDEST POP PUSH1 0x4 CALLDATASIZE LT PUSH2 0x2B JUMPI PUSH1 0x0 CALLDATALOAD PUSH1 0xE0 SHR DUP1 PUSH4 0xE9AE5C53 EQ PUSH2 0x30 JUMPI JUMPDEST PUSH1 0x0 DUP1 REVERT JUMPDEST PUSH2 0x4A PUSH1 0x4 DUP1 CALLDATASIZE SUB DUP2 ADD SWAP1 PUSH2 0x45 SWAP2 SWAP1 PUSH2 0x44A JUMP JUMPDEST PUSH2 0x60 JUMP JUMPDEST PUSH1 0x40 MLOAD PUSH2 0x57 SWAP2 SWAP1 PUSH2 0x543 JUMP JUMPDEST PUSH1 0x40 MLOAD DUP1 SWAP2 SUB SWAP1 RETURN JUMPDEST PUSH1 0x60 PUSH1 0x0 PUSH20 0xFFFFFFFFFFFFFFFFFFFFFFFFFFFFFFFFFFFFFFFF AND PUSH1 0x1 PUSH1 0x0 DUP7 DUP2 MSTORE PUSH1 0x20 ADD SWAP1 DUP2 MSTORE PUSH1 0x20 ADD PUSH1 0x0 KECCAK256 PUSH1 0x0 SWAP1 SLOAD SWAP1 PUSH2 0x100 EXP SWAP1 DIV PUSH20 0xFFFFFFFFFFFFFFFFFFFFFFFFFFFFFFFFFFFFFFFF AND PUSH20 0xFFFFFFFFFFFFFFFFFFFFFFFFFFFFFFFFFFFFFFFF AND EQ PUSH2 0x175 JUMPI PUSH1 0x0 DUP1 PUSH1 0x1 PUSH1 0x0 DUP8 DUP2 MSTORE PUSH1 0x20 ADD SWAP1 DUP2 MSTORE PUSH1 0x20 ADD PUSH1 0x0 KECCAK256 PUSH1 0x0 SWAP1 SLOAD SWAP1 PUSH2 0x100 EXP SWAP1 DIV PUSH20 0xFFFFFFFFFFFFFFFFFFFFFFFFFFFFFFFFFFFFFFFF AND PUSH20 0xFFFFFFFFFFFFFFFFFFFFFFFFFFFFFFFFFFFFFFFF AND DUP6 DUP6 PUSH1 0x40 MLOAD PUSH2 0x126 SWAP3 SWAP2 SWAP1 PUSH2 0x5A4 JUMP JUMPDEST PUSH1 0x0 PUSH1 0x40 MLOAD DUP1 DUP4 SUB DUP2 DUP6 GAS STATICCALL SWAP2 POP POP RETURNDATASIZE DUP1 PUSH1 0x0 DUP2 EQ PUSH2 0x161 JUMPI PUSH1 0x40 MLOAD SWAP2 POP PUSH1 0x1F NOT PUSH1 0x3F RETURNDATASIZE ADD AND DUP3 ADD PUSH1 0x40 MSTORE RETURNDATASIZE DUP3 MSTORE RETURNDATASIZE PUSH1 0x0 PUSH1 0x20 DUP5 ADD RETURNDATACOPY PUSH2 0x166 JUMP JUMPDEST PUSH1 0x60 SWAP2 POP JUMPDEST POP SWAP2 POP SWAP2 POP DUP1 SWAP3 POP POP POP PUSH2 0x39E JUMP JUMPDEST PUSH32 0x0 DUP5 SUB PUSH2 0x229 JUMPI PUSH1 0x0 DUP1 PUSH20 0x0 PUSH20 0xFFFFFFFFFFFFFFFFFFFFFFFFFFFFFFFFFFFFFFFF AND DUP6 DUP6 PUSH1 0x40 MLOAD PUSH2 0x1DA SWAP3 SWAP2 SWAP1 PUSH2 0x5A4 JUMP JUMPDEST PUSH1 0x0 PUSH1 0x40 MLOAD DUP1 DUP4 SUB DUP2 DUP6 GAS STATICCALL SWAP2 POP POP RETURNDATASIZE DUP1 PUSH1 0x0 DUP2 EQ PUSH2 0x215 JUMPI PUSH1 0x40 MLOAD SWAP2 POP PUSH1 0x1F NOT PUSH1 0x3F RETURNDATASIZE ADD AND DUP3 ADD PUSH1 0x40 MSTORE RETURNDATASIZE DUP3 MSTORE RETURNDATASIZE PUSH1 0x0 PUSH1 0x20 DUP5 ADD RETURNDATACOPY PUSH2 0x21A JUMP JUMPDEST PUSH1 0x60 SWAP2 POP JUMPDEST POP SWAP2 POP SWAP2 POP DUP1 SWAP3 POP POP POP PUSH2 0x39E JUMP JUMPDEST PUSH32 0x0 DUP5 SUB PUSH2 0x2E9 JUMPI PUSH1 0x0 DUP1 PUSH1 0x0 DUP1 SLOAD SWAP1 PUSH2 0x100 EXP SWAP1 DIV PUSH20 0xFFFFFFFFFFFFFFFFFFFFFFFFFFFFFFFFFFFFFFFF AND PUSH20 0xFFFFFFFFFFFFFFFFFFFFFFFFFFFFFFFFFFFFFFFF AND DUP6 DUP6 PUSH1 0x40 MLOAD PUSH2 0x29A SWAP3 SWAP2 SWAP1 PUSH2 0x5A4 JUMP JUMPDEST PUSH1 0x0 PUSH1 0x40 MLOAD DUP1 DUP4 SUB DUP2 DUP6 GAS STATICCALL SWAP2 POP POP RETURNDATASIZE DUP1 PUSH1 0x0 DUP2 EQ PUSH2 0x2D5 JUMPI PUSH1 0x40 MLOAD SWAP2 POP PUSH1 0x1F NOT PUSH1 0x3F RETURNDATASIZE ADD AND DUP3 ADD PUSH1 0x40 MSTORE RETURNDATASIZE DUP3 MSTORE RETURNDATASIZE PUSH1 0x0 PUSH1 0x20 DUP5 ADD RETURNDATACOPY PUSH2 0x2DA JUMP JUMPDEST PUSH1 0x60 SWAP2 POP JUMPDEST POP SWAP2 POP SWAP2 POP DUP1 SWAP3 POP POP POP PUSH2 0x39E JUMP JUMPDEST PUSH32 0x0 DUP5 SUB PUSH2 0x39D JUMPI PUSH1 0x0 DUP1 PUSH20 0x0 PUSH20 0xFFFFFFFFFFFFFFFFFFFFFFFFFFFFFFFFFFFFFFFF AND DUP6 DUP6 PUSH1 0x40 MLOAD PUSH2 0x34E SWAP3 SWAP2 SWAP1 PUSH2 0x5A4 JUMP JUMPDEST PUSH1 0x0 PUSH1 0x40 MLOAD DUP1 DUP4 SUB DUP2 DUP6 GAS STATICCALL SWAP2 POP POP RETURNDATASIZE DUP1 PUSH1 0x0 DUP2 EQ PUSH2 0x389 JUMPI PUSH1 0x40 MLOAD SWAP2 POP PUSH1 0x1F NOT PUSH1 0x3F RETURNDATASIZE ADD AND DUP3 ADD PUSH1 0x40 MSTORE RETURNDATASIZE DUP3 MSTORE RETURNDATASIZE PUSH1 0x0 PUSH1 0x20 DUP5 ADD RETURNDATACOPY PUSH2 0x38E JUMP JUMPDEST PUSH1 0x60 SWAP2 POP JUMPDEST POP SWAP2 POP SWAP2 POP DUP1 SWAP3 POP POP POP PUSH2 0x39E JUMP JUMPDEST JUMPDEST SWAP4 SWAP3 POP POP POP JUMP JUMPDEST PUSH1 0x0 DUP1 REVERT JUMPDEST PUSH1 0x0 DUP1 REVERT JUMPDEST PUSH1 0x0 DUP2 SWAP1 POP SWAP2 SWAP1 POP JUMP JUMPDEST PUSH2 0x3C2 DUP2 PUSH2 0x3AF JUMP JUMPDEST DUP2 EQ PUSH2 0x3CD JUMPI PUSH1 0x0 DUP1 REVERT JUMPDEST POP JUMP JUMPDEST PUSH1 0x0 DUP2 CALLDATALOAD SWAP1 POP PUSH2 0x3DF DUP2 PUSH2 0x3B9 JUMP JUMPDEST SWAP3 SWAP2 POP POP JUMP JUMPDEST PUSH1 0x0 DUP1 REVERT JUMPDEST PUSH1 0x0 DUP1 REVERT JUMPDEST PUSH1 0x0 DUP1 REVERT JUMPDEST PUSH1 0x0 DUP1 DUP4 PUSH1 0x1F DUP5 ADD SLT PUSH2 0x40A JUMPI PUSH2 0x409 PUSH2 0x3E5 JUMP JUMPDEST JUMPDEST DUP3 CALLDATALOAD SWAP1 POP PUSH8 0xFFFFFFFFFFFFFFFF DUP2 GT ISZERO PUSH2 0x427 JUMPI PUSH2 0x426 PUSH2 0x3EA JUMP JUMPDEST JUMPDEST PUSH1 0x20 DUP4 ADD SWAP2 POP DUP4 PUSH1 0x1 DUP3 MUL DUP4 ADD GT ISZERO PUSH2 0x443 JUMPI PUSH2 0x442 PUSH2 0x3EF JUMP JUMPDEST JUMPDEST SWAP3 POP SWAP3 SWAP1 POP JUMP JUMPDEST PUSH1 0x0 DUP1 PUSH1 0x0 PUSH1 0x40 DUP5 DUP7 SUB SLT ISZERO PUSH2 0x463 JUMPI PUSH2 0x462 PUSH2 0x3A5 JUMP JUMPDEST JUMPDEST PUSH1 0x0 PUSH2 0x471 DUP7 DUP3 DUP8 ADD PUSH2 0x3D0 JUMP JUMPDEST SWAP4 POP POP PUSH1 0x20 DUP5 ADD CALLDATALOAD PUSH8 0xFFFFFFFFFFFFFFFF DUP2 GT ISZERO PUSH2 0x492 JUMPI PUSH2 0x491 PUSH2 0x3AA JUMP JUMPDEST JUMPDEST PUSH2 0x49E DUP7 DUP3 DUP8 ADD PUSH2 0x3F4 JUMP JUMPDEST SWAP3 POP SWAP3 POP POP SWAP3 POP SWAP3 POP SWAP3 JUMP JUMPDEST PUSH1 0x0 DUP2 MLOAD SWAP1 POP SWAP2 SWAP1 POP JUMP JUMPDEST PUSH1 0x0 DUP3 DUP3 MSTORE PUSH1 0x20 DUP3 ADD SWAP1 POP SWAP3 SWAP2 POP POP JUMP JUMPDEST PUSH1 0x0 JUMPDEST DUP4 DUP2 LT ISZERO PUSH2 0x4E4 JUMPI DUP1 DUP3 ADD MLOAD DUP2 DUP5 ADD MSTORE PUSH1 0x20 DUP2 ADD SWAP1 POP PUSH2 0x4C9 JUMP JUMPDEST DUP4 DUP2 GT ISZERO PUSH2 0x4F3 JUMPI PUSH1 0x0 DUP5 DUP5 ADD MSTORE JUMPDEST POP POP POP POP JUMP JUMPDEST PUSH1 0x0 PUSH1 0x1F NOT PUSH1 0x1F DUP4 ADD AND SWAP1 POP SWAP2 SWAP1 POP JUMP JUMPDEST PUSH1 0x0 PUSH2 0x515 DUP3 PUSH2 0x4AA JUMP JUMPDEST PUSH2 0x51F DUP2 DUP6 PUSH2 0x4B5 JUMP JUMPDEST SWAP4 POP PUSH2 0x52F DUP2 DUP6 PUSH1 0x20 DUP7 ADD PUSH2 0x4C6 JUMP JUMPDEST PUSH2 0x538 DUP2 PUSH2 0x4F9 JUMP JUMPDEST DUP5 ADD SWAP2 POP POP SWAP3 SWAP2 POP POP JUMP JUMPDEST PUSH1 0x0 PUSH1 0x20 DUP3 ADD SWAP1 POP DUP2 DUP2 SUB PUSH1 0x0 DUP4 ADD MSTORE PUSH2 0x55D DUP2 DUP5 PUSH2 0x50A JUMP JUMPDEST SWAP1 POP SWAP3 SWAP2 POP POP JUMP JUMPDEST PUSH1 0x0 DUP2 SWAP1 POP SWAP3 SWAP2 POP POP JUMP JUMPDEST DUP3 DUP2 DUP4 CALLDATACOPY PUSH1 0x0 DUP4 DUP4 ADD MSTORE POP POP POP JUMP JUMPDEST PUSH1 0x0 PUSH2 0x58B DUP4 DUP6 PUSH2 0x565 JUMP JUMPDEST SWAP4 POP PUSH2 0x598 DUP4 DUP6 DUP5 PUSH2 0x570 JUMP JUMPDEST DUP3 DUP5 ADD SWAP1 POP SWAP4 SWAP3 POP POP POP JUMP JUMPDEST PUSH1 0x0 PUSH2 0x5B1 DUP3 DUP5 DUP7 PUSH2 0x57F JUMP JUMPDEST SWAP2 POP DUP2 SWAP1 POP SWAP4 SWAP3 POP POP POP JUMP INVALID LOG2 PUSH5 0x6970667358 0x22 SLT KECCAK256 LOG0 MSIZE 0xCA PUSH24 0x17C4611C22C530A0667379CC3AD54C3A21993A33EE4979F9 PUSH20 0xE0005164736F6C634300080F0033000000000000 "},"gasEstimates":{"creation":{"codeDepositCost":"304600","executionCost":"infinite","totalCost":"infinite"},"external":{"execute(bytes32,bytes)":"infinite"}},"methodIdentifiers":{"execute(bytes32,bytes)":"e9ae5c53"}},"storageLayout":{"storage":[{"astId":662,"contract":"@erc721k/periphery-sol/contracts/svg/SVGLibrary.sol:SVGLibrary","label":"_colors","offset":0,"slot":"0","type":"t_address"},{"astId":681,"contract":"@erc721k/periphery-sol/contracts/svg/SVGLibrary.sol:SVGLibrary","label":"_modules","offset":0,"slot":"1","type":"t_mapping(t_bytes32,t_address)"}],"types":{"t_address":{"encoding":"inplace","label":"address","numberOfBytes":"20"},"t_bytes32":{"encoding":"inplace","label":"bytes32","numberOfBytes":"32"},"t_mapping(t_bytes32,t_address)":{"encoding":"mapping","key":"t_bytes32","label":"mapping(bytes32 => address)","numberOfBytes":"32","value":"t_address"}}},"userdoc":{"kind":"user","methods":{},"version":1}}}}