{"@erc721k/periphery-sol/contracts/svg/SVGColor.sol":{"SVGColor":{"abi":[{"inputs":[],"stateMutability":"nonpayable","type":"constructor"},{"inputs":[{"internalType":"bytes","name":"_colors","type":"bytes"},{"internalType":"bytes","name":"_id","type":"bytes"},{"internalType":"bytes","name":"_customAttributes","type":"bytes"}],"name":"autoLinearGradient","outputs":[{"internalType":"bytes","name":"","type":"bytes"}],"stateMutability":"view","type":"function"},{"inputs":[{"internalType":"bytes","name":"_coordinates","type":"bytes"},{"internalType":"bytes","name":"_colors","type":"bytes"},{"internalType":"bytes","name":"_id","type":"bytes"},{"internalType":"bytes","name":"_customAttributes","type":"bytes"}],"name":"autoLinearGradient","outputs":[{"internalType":"bytes","name":"","type":"bytes"}],"stateMutability":"view","type":"function"},{"inputs":[{"internalType":"bytes","name":"_data","type":"bytes"},{"internalType":"uint256","name":"_offset","type":"uint256"}],"name":"byte2uint8","outputs":[{"internalType":"uint8","name":"","type":"uint8"}],"stateMutability":"pure","type":"function"},{"inputs":[{"internalType":"string","name":"","type":"string"}],"name":"colors","outputs":[{"internalType":"bytes","name":"","type":"bytes"}],"stateMutability":"view","type":"function"},{"inputs":[{"internalType":"string","name":"_colorName","type":"string"},{"internalType":"uint8","name":"_alpha","type":"uint8"}],"name":"getColor","outputs":[{"internalType":"bytes","name":"","type":"bytes"}],"stateMutability":"view","type":"function"},{"inputs":[{"internalType":"string","name":"_colorName","type":"string"}],"name":"getColor","outputs":[{"internalType":"bytes","name":"","type":"bytes"}],"stateMutability":"view","type":"function"},{"inputs":[{"internalType":"string","name":"_colorName","type":"string"}],"name":"getRgba","outputs":[{"internalType":"string","name":"","type":"string"}],"stateMutability":"view","type":"function"},{"inputs":[{"internalType":"bytes","name":"_lg","type":"bytes"},{"internalType":"bytes","name":"_id","type":"bytes"},{"internalType":"bytes","name":"_customAttributes","type":"bytes"}],"name":"linearGradient","outputs":[{"internalType":"bytes","name":"","type":"bytes"}],"stateMutability":"pure","type":"function"},{"inputs":[{"internalType":"bytes","name":"_rgba","type":"bytes"},{"internalType":"uint256","name":"offset","type":"uint256"}],"name":"toRgba","outputs":[{"internalType":"bytes","name":"","type":"bytes"}],"stateMutability":"pure","type":"function"}],"devdoc":{"kind":"dev","methods":{},"version":1},"evm":{"bytecode":{"linkReferences":{},"object":"60806040523480156200001157600080fd5b50604051806040016040528060038152602001600081525060006040516200003990620001e0565b9081526020016040518091039020908162000055919062000471565b506040518060400160405280600381526020017fffffff000000000000000000000000000000000000000000000000000000000081525060006040516200009c90620005a8565b90815260200160405180910390209081620000b8919062000471565b506040518060400160405280600381526020017f23232300000000000000000000000000000000000000000000000000000000008152506000604051620000ff906200060f565b908152602001604051809103902090816200011b919062000471565b506040518060400160405280600381526020017f46464600000000000000000000000000000000000000000000000000000000008152506000604051620001629062000676565b908152602001604051809103902090816200017e919062000471565b506200068d565b600081905092915050565b7f426c61636b000000000000000000000000000000000000000000000000000000600082015250565b6000620001c860058362000185565b9150620001d58262000190565b600582019050919050565b6000620001ed82620001b9565b9150819050919050565b600081519050919050565b7f4e487b7100000000000000000000000000000000000000000000000000000000600052604160045260246000fd5b7f4e487b7100000000000000000000000000000000000000000000000000000000600052602260045260246000fd5b600060028204905060018216806200027957607f821691505b6020821081036200028f576200028e62000231565b5b50919050565b60008190508160005260206000209050919050565b60006020601f8301049050919050565b600082821b905092915050565b600060088302620002f97fffffffffffffffffffffffffffffffffffffffffffffffffffffffffffffffff82620002ba565b620003058683620002ba565b95508019841693508086168417925050509392505050565b6000819050919050565b6000819050919050565b6000620003526200034c62000346846200031d565b62000327565b6200031d565b9050919050565b6000819050919050565b6200036e8362000331565b620003866200037d8262000359565b848454620002c7565b825550505050565b600090565b6200039d6200038e565b620003aa81848462000363565b505050565b5b81811015620003d257620003c660008262000393565b600181019050620003b0565b5050565b601f8211156200042157620003eb8162000295565b620003f684620002aa565b8101602085101562000406578190505b6200041e6200041585620002aa565b830182620003af565b50505b505050565b600082821c905092915050565b6000620004466000198460080262000426565b1980831691505092915050565b600062000461838362000433565b9150826002028217905092915050565b6200047c82620001f7565b67ffffffffffffffff81111562000498576200049762000202565b5b620004a4825462000260565b620004b1828285620003d6565b600060209050601f831160018114620004e95760008415620004d4578287015190505b620004e0858262000453565b86555062000550565b601f198416620004f98662000295565b60005b828110156200052357848901518255600182019150602085019450602081019050620004fc565b868310156200054357848901516200053f601f89168262000433565b8355505b6001600288020188555050505b505050505050565b7f5768697465000000000000000000000000000000000000000000000000000000600082015250565b60006200059060058362000185565b91506200059d8262000558565b600582019050919050565b6000620005b58262000581565b9150819050919050565b7f4461726b31000000000000000000000000000000000000000000000000000000600082015250565b6000620005f760058362000185565b91506200060482620005bf565b600582019050919050565b60006200061c82620005e8565b9150819050919050565b7f4461726b32000000000000000000000000000000000000000000000000000000600082015250565b60006200065e60058362000185565b91506200066b8262000626565b600582019050919050565b600062000683826200064f565b9150819050919050565b611f9a806200069d6000396000f3fe608060405234801561001057600080fd5b50600436106100935760003560e01c8063b018757011610066578063b018757014610158578063cde5891014610188578063cf0eca09146101b8578063d6412c27146101e8578063e5d19e691461021857610093565b806340c629fe146100985780634b698358146100c85780635119ce4b146100f8578063525f365414610128575b600080fd5b6100b260048036038101906100ad9190610c42565b610248565b6040516100bf9190610d13565b60405180910390f35b6100e260048036038101906100dd9190610dd6565b6102fe565b6040516100ef9190610d13565b60405180910390f35b610112600480360381019061010d9190610eb3565b61038c565b60405161011f9190610f2b565b60405180910390f35b610142600480360381019061013d9190610f72565b6103fa565b60405161014f9190610d13565b60405180910390f35b610172600480360381019061016d9190610c42565b6104b0565b60405161017f9190610d13565b60405180910390f35b6101a2600480360381019061019d9190610c42565b610563565b6040516101af9190611023565b60405180910390f35b6101d260048036038101906101cd9190610dd6565b61057f565b6040516101df9190610d13565b60405180910390f35b61020260048036038101906101fd9190611045565b610716565b60405161020f9190610d13565b60405180910390f35b610232600480360381019061022d9190610eb3565b6108e4565b60405161023f9190610d13565b60405180910390f35b600081805160208101820180518482526020830160208501208183528095505050505050600091509050805461027d9061114b565b80601f01602080910402602001604051908101604052809291908181526020018280546102a99061114b565b80156102f65780601f106102cb576101008083540402835291602001916102f6565b820191906000526020600020905b8154815290600101906020018083116102d957829003601f168201915b505050505081565b60603073ffffffffffffffffffffffffffffffffffffffff1663d6412c278585856040518463ffffffff1660e01b815260040161033d939291906111a2565b600060405180830381865afa15801561035a573d6000803e3d6000fd5b505050506040513d6000823e3d601f19601f820116820180604052508101906103839190611271565b90509392505050565b6000818351116103d1576040517f08c379a00000000000000000000000000000000000000000000000000000000081526004016103c890611306565b60405180910390fd5b8282815181106103e4576103e3611326565b5b602001015160f81c60f81b60f81c905092915050565b6060600360008460405161040e9190611391565b908152602001604051809103902080546104279061114b565b905014610469576040517f08c379a0000000000000000000000000000000000000000000000000000000008152600401610460906113f4565b60405180910390fd5b6000836040516104799190611391565b9081526020016040518091039020826040516020016104999291906114ed565b604051602081830303815290604052905092915050565b606060036000836040516104c49190611391565b908152602001604051809103902080546104dd9061114b565b90501461051f576040517f08c379a0000000000000000000000000000000000000000000000000000000008152600401610516906113f4565b60405180910390fd5b60008260405161052f9190611391565b908152602001604051809103902060405160200161054d9190611561565b6040516020818303038152906040529050919050565b6060610578610571836104b0565b60006108e4565b9050919050565b6060806000600190506080808760008151811061059f5761059e611326565b5b602001015160f81c60f81b60f81c1660ff1603610637576105cc6105c487600161038c565b60ff16610988565b6105e26105da88600261038c565b60ff16610988565b6105f86105f089600361038c565b60ff16610988565b61060e6106068a600461038c565b60ff16610988565b60405160200161062194939291906116ff565b6040516020818303038152906040529150600590505b84848360405160200161064c93929190611889565b604051602081830303815290604052915060008160ff1690505b86518110156106ea578261068561067d898461038c565b60ff16610988565b61069b89600185610696919061190a565b6108e4565b886106b16106a98c8761038c565b60ff16610988565b6040516020016106c5959493929190611a90565b60405160208183030381529060405292506005816106e3919061190a565b9050610666565b50816040516020016106fc9190611b53565b604051602081830303815290604052925050509392505050565b60608060038651111561074d57608086604051602001610737929190611b75565b6040516020818303038152906040529050610767565b604051806040016040528060018152602001600081525090505b6000600486516107779190611bcc565b905060005b818160ff1610156108cc57826001836107959190611bfd565b60646107a19190611bcc565b8260ff166107af9190611c31565b886004846107bd9190611c8b565b60ff16815181106107d1576107d0611326565b5b602001015160f81c60f81b60f81c8960016004866107ef9190611c8b565b6107f99190611cc6565b60ff168151811061080d5761080c611326565b5b602001015160f81c60f81b60f81c8a600260048761082b9190611c8b565b6108359190611cc6565b60ff168151811061084957610848611326565b5b602001015160f81c60f81b60f81c8b60036004886108679190611c8b565b6108719190611cc6565b60ff168151811061088557610884611326565b5b602001015160f81c60f81b60f81c6040516020016108a896959493929190611cfd565b604051602081830303815290604052925080806108c490611d69565b91505061077c565b6108d783878761057f565b9350505050949350505050565b60606108fb6108f3848461038c565b60ff16610988565b61091c6109148560018661090f919061190a565b61038c565b60ff16610988565b61093d61093586600287610930919061190a565b61038c565b60ff16610988565b61095e61095687600388610951919061190a565b61038c565b60ff16610988565b6040516020016109719493929190611e76565b604051602081830303815290604052905092915050565b6060600082036109cf576040518060400160405280600181526020017f30000000000000000000000000000000000000000000000000000000000000008152509050610ae3565b600082905060005b60008214610a015780806109ea90611eeb565b915050600a826109fa9190611bcc565b91506109d7565b60008167ffffffffffffffff811115610a1d57610a1c610b17565b5b6040519080825280601f01601f191660200182016040528015610a4f5781602001600182028036833780820191505090505b5090505b60008514610adc57600182610a689190611bfd565b9150600a85610a779190611f33565b6030610a83919061190a565b60f81b818381518110610a9957610a98611326565b5b60200101907effffffffffffffffffffffffffffffffffffffffffffffffffffffffffffff1916908160001a905350600a85610ad59190611bcc565b9450610a53565b8093505050505b919050565b6000604051905090565b600080fd5b600080fd5b600080fd5b600080fd5b6000601f19601f8301169050919050565b7f4e487b7100000000000000000000000000000000000000000000000000000000600052604160045260246000fd5b610b4f82610b06565b810181811067ffffffffffffffff82111715610b6e57610b6d610b17565b5b80604052505050565b6000610b81610ae8565b9050610b8d8282610b46565b919050565b600067ffffffffffffffff821115610bad57610bac610b17565b5b610bb682610b06565b9050602081019050919050565b82818337600083830152505050565b6000610be5610be084610b92565b610b77565b905082815260208101848484011115610c0157610c00610b01565b5b610c0c848285610bc3565b509392505050565b600082601f830112610c2957610c28610afc565b5b8135610c39848260208601610bd2565b91505092915050565b600060208284031215610c5857610c57610af2565b5b600082013567ffffffffffffffff811115610c7657610c75610af7565b5b610c8284828501610c14565b91505092915050565b600081519050919050565b600082825260208201905092915050565b60005b83811015610cc5578082015181840152602081019050610caa565b83811115610cd4576000848401525b50505050565b6000610ce582610c8b565b610cef8185610c96565b9350610cff818560208601610ca7565b610d0881610b06565b840191505092915050565b60006020820190508181036000830152610d2d8184610cda565b905092915050565b600067ffffffffffffffff821115610d5057610d4f610b17565b5b610d5982610b06565b9050602081019050919050565b6000610d79610d7484610d35565b610b77565b905082815260208101848484011115610d9557610d94610b01565b5b610da0848285610bc3565b509392505050565b600082601f830112610dbd57610dbc610afc565b5b8135610dcd848260208601610d66565b91505092915050565b600080600060608486031215610def57610dee610af2565b5b600084013567ffffffffffffffff811115610e0d57610e0c610af7565b5b610e1986828701610da8565b935050602084013567ffffffffffffffff811115610e3a57610e39610af7565b5b610e4686828701610da8565b925050604084013567ffffffffffffffff811115610e6757610e66610af7565b5b610e7386828701610da8565b9150509250925092565b6000819050919050565b610e9081610e7d565b8114610e9b57600080fd5b50565b600081359050610ead81610e87565b92915050565b60008060408385031215610eca57610ec9610af2565b5b600083013567ffffffffffffffff811115610ee857610ee7610af7565b5b610ef485828601610da8565b9250506020610f0585828601610e9e565b9150509250929050565b600060ff82169050919050565b610f2581610f0f565b82525050565b6000602082019050610f406000830184610f1c565b92915050565b610f4f81610f0f565b8114610f5a57600080fd5b50565b600081359050610f6c81610f46565b92915050565b60008060408385031215610f8957610f88610af2565b5b600083013567ffffffffffffffff811115610fa757610fa6610af7565b5b610fb385828601610c14565b9250506020610fc485828601610f5d565b9150509250929050565b600081519050919050565b600082825260208201905092915050565b6000610ff582610fce565b610fff8185610fd9565b935061100f818560208601610ca7565b61101881610b06565b840191505092915050565b6000602082019050818103600083015261103d8184610fea565b905092915050565b6000806000806080858703121561105f5761105e610af2565b5b600085013567ffffffffffffffff81111561107d5761107c610af7565b5b61108987828801610da8565b945050602085013567ffffffffffffffff8111156110aa576110a9610af7565b5b6110b687828801610da8565b935050604085013567ffffffffffffffff8111156110d7576110d6610af7565b5b6110e387828801610da8565b925050606085013567ffffffffffffffff81111561110457611103610af7565b5b61111087828801610da8565b91505092959194509250565b7f4e487b7100000000000000000000000000000000000000000000000000000000600052602260045260246000fd5b6000600282049050600182168061116357607f821691505b6020821081036111765761117561111c565b5b50919050565b50565b600061118c600083610c96565b91506111978261117c565b600082019050919050565b600060808201905081810360008301526111bb8161117f565b905081810360208301526111cf8186610cda565b905081810360408301526111e38185610cda565b905081810360608301526111f78184610cda565b9050949350505050565b600061121461120f84610d35565b610b77565b9050828152602081018484840111156112305761122f610b01565b5b61123b848285610ca7565b509392505050565b600082601f83011261125857611257610afc565b5b8151611268848260208601611201565b91505092915050565b60006020828403121561128757611286610af2565b5b600082015167ffffffffffffffff8111156112a5576112a4610af7565b5b6112b184828501611243565b91505092915050565b7f4f7574206f662072616e67650000000000000000000000000000000000000000600082015250565b60006112f0600c83610fd9565b91506112fb826112ba565b602082019050919050565b6000602082019050818103600083015261131f816112e3565b9050919050565b7f4e487b7100000000000000000000000000000000000000000000000000000000600052603260045260246000fd5b600081905092915050565b600061136b82610fce565b6113758185611355565b9350611385818560208601610ca7565b80840191505092915050565b600061139d8284611360565b915081905092915050565b7f556e6b6e6f776e20636f6c6f7200000000000000000000000000000000000000600082015250565b60006113de600d83610fd9565b91506113e9826113a8565b602082019050919050565b6000602082019050818103600083015261140d816113d1565b9050919050565b600081905092915050565b60008190508160005260206000209050919050565b600081546114418161114b565b61144b8186611414565b94506001821660008114611466576001811461147b576114ae565b60ff19831686528115158202860193506114ae565b6114848561141f565b60005b838110156114a657815481890152600182019150602081019050611487565b838801955050505b50505092915050565b60008160f81b9050919050565b60006114cf826114b7565b9050919050565b6114e76114e282610f0f565b6114c4565b82525050565b60006114f98285611434565b915061150582846114d6565b6001820191508190509392505050565b7f6400000000000000000000000000000000000000000000000000000000000000600082015250565b600061154b600183611355565b915061155682611515565b600182019050919050565b600061156d8284611434565b91506115788261153e565b915081905092915050565b7f78313d2200000000000000000000000000000000000000000000000000000000600082015250565b60006115b9600483611355565b91506115c482611583565b600482019050919050565b7f25222078323d2200000000000000000000000000000000000000000000000000600082015250565b6000611605600783611355565b9150611610826115cf565b600782019050919050565b7f25222079313d2200000000000000000000000000000000000000000000000000600082015250565b6000611651600783611355565b915061165c8261161b565b600782019050919050565b7f25222079323d2200000000000000000000000000000000000000000000000000600082015250565b600061169d600783611355565b91506116a882611667565b600782019050919050565b7f2522000000000000000000000000000000000000000000000000000000000000600082015250565b60006116e9600283611355565b91506116f4826116b3565b600282019050919050565b600061170a826115ac565b91506117168287611360565b9150611721826115f8565b915061172d8286611360565b915061173882611644565b91506117448285611360565b915061174f82611690565b915061175b8284611360565b9150611766826116dc565b915081905095945050505050565b7f3c6c696e6561724772616469656e742069643d22000000000000000000000000600082015250565b60006117aa601483611355565b91506117b582611774565b601482019050919050565b60006117cb82610c8b565b6117d58185611414565b93506117e5818560208601610ca7565b80840191505092915050565b7f2220000000000000000000000000000000000000000000000000000000000000600082015250565b6000611827600283611355565b9150611832826117f1565b600282019050919050565b7f3e00000000000000000000000000000000000000000000000000000000000000600082015250565b6000611873600183611355565b915061187e8261183d565b600182019050919050565b60006118948261179d565b91506118a082866117c0565b91506118ab8261181a565b91506118b782856117c0565b91506118c382846117c0565b91506118ce82611866565b9150819050949350505050565b7f4e487b7100000000000000000000000000000000000000000000000000000000600052601160045260246000fd5b600061191582610e7d565b915061192083610e7d565b9250827fffffffffffffffffffffffffffffffffffffffffffffffffffffffffffffffff03821115611955576119546118db565b5b828201905092915050565b7f3c73746f70206f66667365743d22000000000000000000000000000000000000600082015250565b6000611996600e83611355565b91506119a182611960565b600e82019050919050565b7f25222073746f702d636f6c6f723d220000000000000000000000000000000000600082015250565b60006119e2600f83611355565b91506119ed826119ac565b600f82019050919050565b7f222069643d220000000000000000000000000000000000000000000000000000600082015250565b6000611a2e600683611355565b9150611a39826119f8565b600682019050919050565b7f222f3e0000000000000000000000000000000000000000000000000000000000600082015250565b6000611a7a600383611355565b9150611a8582611a44565b600382019050919050565b6000611a9c82886117c0565b9150611aa782611989565b9150611ab38287611360565b9150611abe826119d5565b9150611aca82866117c0565b9150611ad582611a21565b9150611ae182856117c0565b9150611aed8284611360565b9150611af882611a6d565b91508190509695505050505050565b7f3c2f6c696e6561724772616469656e743e000000000000000000000000000000600082015250565b6000611b3d601183611355565b9150611b4882611b07565b601182019050919050565b6000611b5f82846117c0565b9150611b6a82611b30565b915081905092915050565b6000611b8182856114d6565b600182019150611b9182846117c0565b91508190509392505050565b7f4e487b7100000000000000000000000000000000000000000000000000000000600052601260045260246000fd5b6000611bd782610e7d565b9150611be283610e7d565b925082611bf257611bf1611b9d565b5b828204905092915050565b6000611c0882610e7d565b9150611c1383610e7d565b925082821015611c2657611c256118db565b5b828203905092915050565b6000611c3c82610e7d565b9150611c4783610e7d565b9250817fffffffffffffffffffffffffffffffffffffffffffffffffffffffffffffffff0483118215151615611c8057611c7f6118db565b5b828202905092915050565b6000611c9682610f0f565b9150611ca183610f0f565b92508160ff0483118215151615611cbb57611cba6118db565b5b828202905092915050565b6000611cd182610f0f565b9150611cdc83610f0f565b92508260ff03821115611cf257611cf16118db565b5b828201905092915050565b6000611d0982896117c0565b9150611d1582886114d6565b600182019150611d2582876114d6565b600182019150611d3582866114d6565b600182019150611d4582856114d6565b600182019150611d5582846114d6565b600182019150819050979650505050505050565b6000611d7482610f0f565b915060ff8203611d8757611d866118db565b5b600182019050919050565b7f7267626128000000000000000000000000000000000000000000000000000000600082015250565b6000611dc8600583611355565b9150611dd382611d92565b600582019050919050565b7f2c00000000000000000000000000000000000000000000000000000000000000600082015250565b6000611e14600183611355565b9150611e1f82611dde565b600182019050919050565b7f2529000000000000000000000000000000000000000000000000000000000000600082015250565b6000611e60600283611355565b9150611e6b82611e2a565b600282019050919050565b6000611e8182611dbb565b9150611e8d8287611360565b9150611e9882611e07565b9150611ea48286611360565b9150611eaf82611e07565b9150611ebb8285611360565b9150611ec682611e07565b9150611ed28284611360565b9150611edd82611e53565b915081905095945050505050565b6000611ef682610e7d565b91507fffffffffffffffffffffffffffffffffffffffffffffffffffffffffffffffff8203611f2857611f276118db565b5b600182019050919050565b6000611f3e82610e7d565b9150611f4983610e7d565b925082611f5957611f58611b9d565b5b82820690509291505056fea2646970667358221220e67811229760362c3868bcfe2138e3732f59356cc7ca35adaa6d56cf8d5129a164736f6c634300080f0033","opcodes":"PUSH1 0x80 PUSH1 0x40 MSTORE CALLVALUE DUP1 ISZERO PUSH3 0x11 JUMPI PUSH1 0x0 DUP1 REVERT JUMPDEST POP PUSH1 0x40 MLOAD DUP1 PUSH1 0x40 ADD PUSH1 0x40 MSTORE DUP1 PUSH1 0x3 DUP2 MSTORE PUSH1 0x20 ADD PUSH1 0x0 DUP2 MSTORE POP PUSH1 0x0 PUSH1 0x40 MLOAD PUSH3 0x39 SWAP1 PUSH3 0x1E0 JUMP JUMPDEST SWAP1 DUP2 MSTORE PUSH1 0x20 ADD PUSH1 0x40 MLOAD DUP1 SWAP2 SUB SWAP1 KECCAK256 SWAP1 DUP2 PUSH3 0x55 SWAP2 SWAP1 PUSH3 0x471 JUMP JUMPDEST POP PUSH1 0x40 MLOAD DUP1 PUSH1 0x40 ADD PUSH1 0x40 MSTORE DUP1 PUSH1 0x3 DUP2 MSTORE PUSH1 0x20 ADD PUSH32 0xFFFFFF0000000000000000000000000000000000000000000000000000000000 DUP2 MSTORE POP PUSH1 0x0 PUSH1 0x40 MLOAD PUSH3 0x9C SWAP1 PUSH3 0x5A8 JUMP JUMPDEST SWAP1 DUP2 MSTORE PUSH1 0x20 ADD PUSH1 0x40 MLOAD DUP1 SWAP2 SUB SWAP1 KECCAK256 SWAP1 DUP2 PUSH3 0xB8 SWAP2 SWAP1 PUSH3 0x471 JUMP JUMPDEST POP PUSH1 0x40 MLOAD DUP1 PUSH1 0x40 ADD PUSH1 0x40 MSTORE DUP1 PUSH1 0x3 DUP2 MSTORE PUSH1 0x20 ADD PUSH32 0x2323230000000000000000000000000000000000000000000000000000000000 DUP2 MSTORE POP PUSH1 0x0 PUSH1 0x40 MLOAD PUSH3 0xFF SWAP1 PUSH3 0x60F JUMP JUMPDEST SWAP1 DUP2 MSTORE PUSH1 0x20 ADD PUSH1 0x40 MLOAD DUP1 SWAP2 SUB SWAP1 KECCAK256 SWAP1 DUP2 PUSH3 0x11B SWAP2 SWAP1 PUSH3 0x471 JUMP JUMPDEST POP PUSH1 0x40 MLOAD DUP1 PUSH1 0x40 ADD PUSH1 0x40 MSTORE DUP1 PUSH1 0x3 DUP2 MSTORE PUSH1 0x20 ADD PUSH32 0x4646460000000000000000000000000000000000000000000000000000000000 DUP2 MSTORE POP PUSH1 0x0 PUSH1 0x40 MLOAD PUSH3 0x162 SWAP1 PUSH3 0x676 JUMP JUMPDEST SWAP1 DUP2 MSTORE PUSH1 0x20 ADD PUSH1 0x40 MLOAD DUP1 SWAP2 SUB SWAP1 KECCAK256 SWAP1 DUP2 PUSH3 0x17E SWAP2 SWAP1 PUSH3 0x471 JUMP JUMPDEST POP PUSH3 0x68D JUMP JUMPDEST PUSH1 0x0 DUP2 SWAP1 POP SWAP3 SWAP2 POP POP JUMP JUMPDEST PUSH32 0x426C61636B000000000000000000000000000000000000000000000000000000 PUSH1 0x0 DUP3 ADD MSTORE POP JUMP JUMPDEST PUSH1 0x0 PUSH3 0x1C8 PUSH1 0x5 DUP4 PUSH3 0x185 JUMP JUMPDEST SWAP2 POP PUSH3 0x1D5 DUP3 PUSH3 0x190 JUMP JUMPDEST PUSH1 0x5 DUP3 ADD SWAP1 POP SWAP2 SWAP1 POP JUMP JUMPDEST PUSH1 0x0 PUSH3 0x1ED DUP3 PUSH3 0x1B9 JUMP JUMPDEST SWAP2 POP DUP2 SWAP1 POP SWAP2 SWAP1 POP JUMP JUMPDEST PUSH1 0x0 DUP2 MLOAD SWAP1 POP SWAP2 SWAP1 POP JUMP JUMPDEST PUSH32 0x4E487B7100000000000000000000000000000000000000000000000000000000 PUSH1 0x0 MSTORE PUSH1 0x41 PUSH1 0x4 MSTORE PUSH1 0x24 PUSH1 0x0 REVERT JUMPDEST PUSH32 0x4E487B7100000000000000000000000000000000000000000000000000000000 PUSH1 0x0 MSTORE PUSH1 0x22 PUSH1 0x4 MSTORE PUSH1 0x24 PUSH1 0x0 REVERT JUMPDEST PUSH1 0x0 PUSH1 0x2 DUP3 DIV SWAP1 POP PUSH1 0x1 DUP3 AND DUP1 PUSH3 0x279 JUMPI PUSH1 0x7F DUP3 AND SWAP2 POP JUMPDEST PUSH1 0x20 DUP3 LT DUP2 SUB PUSH3 0x28F JUMPI PUSH3 0x28E PUSH3 0x231 JUMP JUMPDEST JUMPDEST POP SWAP2 SWAP1 POP JUMP JUMPDEST PUSH1 0x0 DUP2 SWAP1 POP DUP2 PUSH1 0x0 MSTORE PUSH1 0x20 PUSH1 0x0 KECCAK256 SWAP1 POP SWAP2 SWAP1 POP JUMP JUMPDEST PUSH1 0x0 PUSH1 0x20 PUSH1 0x1F DUP4 ADD DIV SWAP1 POP SWAP2 SWAP1 POP JUMP JUMPDEST PUSH1 0x0 DUP3 DUP3 SHL SWAP1 POP SWAP3 SWAP2 POP POP JUMP JUMPDEST PUSH1 0x0 PUSH1 0x8 DUP4 MUL PUSH3 0x2F9 PUSH32 0xFFFFFFFFFFFFFFFFFFFFFFFFFFFFFFFFFFFFFFFFFFFFFFFFFFFFFFFFFFFFFFFF DUP3 PUSH3 0x2BA JUMP JUMPDEST PUSH3 0x305 DUP7 DUP4 PUSH3 0x2BA JUMP JUMPDEST SWAP6 POP DUP1 NOT DUP5 AND SWAP4 POP DUP1 DUP7 AND DUP5 OR SWAP3 POP POP POP SWAP4 SWAP3 POP POP POP JUMP JUMPDEST PUSH1 0x0 DUP2 SWAP1 POP SWAP2 SWAP1 POP JUMP JUMPDEST PUSH1 0x0 DUP2 SWAP1 POP SWAP2 SWAP1 POP JUMP JUMPDEST PUSH1 0x0 PUSH3 0x352 PUSH3 0x34C PUSH3 0x346 DUP5 PUSH3 0x31D JUMP JUMPDEST PUSH3 0x327 JUMP JUMPDEST PUSH3 0x31D JUMP JUMPDEST SWAP1 POP SWAP2 SWAP1 POP JUMP JUMPDEST PUSH1 0x0 DUP2 SWAP1 POP SWAP2 SWAP1 POP JUMP JUMPDEST PUSH3 0x36E DUP4 PUSH3 0x331 JUMP JUMPDEST PUSH3 0x386 PUSH3 0x37D DUP3 PUSH3 0x359 JUMP JUMPDEST DUP5 DUP5 SLOAD PUSH3 0x2C7 JUMP JUMPDEST DUP3 SSTORE POP POP POP POP JUMP JUMPDEST PUSH1 0x0 SWAP1 JUMP JUMPDEST PUSH3 0x39D PUSH3 0x38E JUMP JUMPDEST PUSH3 0x3AA DUP2 DUP5 DUP5 PUSH3 0x363 JUMP JUMPDEST POP POP POP JUMP JUMPDEST JUMPDEST DUP2 DUP2 LT ISZERO PUSH3 0x3D2 JUMPI PUSH3 0x3C6 PUSH1 0x0 DUP3 PUSH3 0x393 JUMP JUMPDEST PUSH1 0x1 DUP2 ADD SWAP1 POP PUSH3 0x3B0 JUMP JUMPDEST POP POP JUMP JUMPDEST PUSH1 0x1F DUP3 GT ISZERO PUSH3 0x421 JUMPI PUSH3 0x3EB DUP2 PUSH3 0x295 JUMP JUMPDEST PUSH3 0x3F6 DUP5 PUSH3 0x2AA JUMP JUMPDEST DUP2 ADD PUSH1 0x20 DUP6 LT ISZERO PUSH3 0x406 JUMPI DUP2 SWAP1 POP JUMPDEST PUSH3 0x41E PUSH3 0x415 DUP6 PUSH3 0x2AA JUMP JUMPDEST DUP4 ADD DUP3 PUSH3 0x3AF JUMP JUMPDEST POP POP JUMPDEST POP POP POP JUMP JUMPDEST PUSH1 0x0 DUP3 DUP3 SHR SWAP1 POP SWAP3 SWAP2 POP POP JUMP JUMPDEST PUSH1 0x0 PUSH3 0x446 PUSH1 0x0 NOT DUP5 PUSH1 0x8 MUL PUSH3 0x426 JUMP JUMPDEST NOT DUP1 DUP4 AND SWAP2 POP POP SWAP3 SWAP2 POP POP JUMP JUMPDEST PUSH1 0x0 PUSH3 0x461 DUP4 DUP4 PUSH3 0x433 JUMP JUMPDEST SWAP2 POP DUP3 PUSH1 0x2 MUL DUP3 OR SWAP1 POP SWAP3 SWAP2 POP POP JUMP JUMPDEST PUSH3 0x47C DUP3 PUSH3 0x1F7 JUMP JUMPDEST PUSH8 0xFFFFFFFFFFFFFFFF DUP2 GT ISZERO PUSH3 0x498 JUMPI PUSH3 0x497 PUSH3 0x202 JUMP JUMPDEST JUMPDEST PUSH3 0x4A4 DUP3 SLOAD PUSH3 0x260 JUMP JUMPDEST PUSH3 0x4B1 DUP3 DUP3 DUP6 PUSH3 0x3D6 JUMP JUMPDEST PUSH1 0x0 PUSH1 0x20 SWAP1 POP PUSH1 0x1F DUP4 GT PUSH1 0x1 DUP2 EQ PUSH3 0x4E9 JUMPI PUSH1 0x0 DUP5 ISZERO PUSH3 0x4D4 JUMPI DUP3 DUP8 ADD MLOAD SWAP1 POP JUMPDEST PUSH3 0x4E0 DUP6 DUP3 PUSH3 0x453 JUMP JUMPDEST DUP7 SSTORE POP PUSH3 0x550 JUMP JUMPDEST PUSH1 0x1F NOT DUP5 AND PUSH3 0x4F9 DUP7 PUSH3 0x295 JUMP JUMPDEST PUSH1 0x0 JUMPDEST DUP3 DUP2 LT ISZERO PUSH3 0x523 JUMPI DUP5 DUP10 ADD MLOAD DUP3 SSTORE PUSH1 0x1 DUP3 ADD SWAP2 POP PUSH1 0x20 DUP6 ADD SWAP5 POP PUSH1 0x20 DUP2 ADD SWAP1 POP PUSH3 0x4FC JUMP JUMPDEST DUP7 DUP4 LT ISZERO PUSH3 0x543 JUMPI DUP5 DUP10 ADD MLOAD PUSH3 0x53F PUSH1 0x1F DUP10 AND DUP3 PUSH3 0x433 JUMP JUMPDEST DUP4 SSTORE POP JUMPDEST PUSH1 0x1 PUSH1 0x2 DUP9 MUL ADD DUP9 SSTORE POP POP POP JUMPDEST POP POP POP POP POP POP JUMP JUMPDEST PUSH32 0x5768697465000000000000000000000000000000000000000000000000000000 PUSH1 0x0 DUP3 ADD MSTORE POP JUMP JUMPDEST PUSH1 0x0 PUSH3 0x590 PUSH1 0x5 DUP4 PUSH3 0x185 JUMP JUMPDEST SWAP2 POP PUSH3 0x59D DUP3 PUSH3 0x558 JUMP JUMPDEST PUSH1 0x5 DUP3 ADD SWAP1 POP SWAP2 SWAP1 POP JUMP JUMPDEST PUSH1 0x0 PUSH3 0x5B5 DUP3 PUSH3 0x581 JUMP JUMPDEST SWAP2 POP DUP2 SWAP1 POP SWAP2 SWAP1 POP JUMP JUMPDEST PUSH32 0x4461726B31000000000000000000000000000000000000000000000000000000 PUSH1 0x0 DUP3 ADD MSTORE POP JUMP JUMPDEST PUSH1 0x0 PUSH3 0x5F7 PUSH1 0x5 DUP4 PUSH3 0x185 JUMP JUMPDEST SWAP2 POP PUSH3 0x604 DUP3 PUSH3 0x5BF JUMP JUMPDEST PUSH1 0x5 DUP3 ADD SWAP1 POP SWAP2 SWAP1 POP JUMP JUMPDEST PUSH1 0x0 PUSH3 0x61C DUP3 PUSH3 0x5E8 JUMP JUMPDEST SWAP2 POP DUP2 SWAP1 POP SWAP2 SWAP1 POP JUMP JUMPDEST PUSH32 0x4461726B32000000000000000000000000000000000000000000000000000000 PUSH1 0x0 DUP3 ADD MSTORE POP JUMP JUMPDEST PUSH1 0x0 PUSH3 0x65E PUSH1 0x5 DUP4 PUSH3 0x185 JUMP JUMPDEST SWAP2 POP PUSH3 0x66B DUP3 PUSH3 0x626 JUMP JUMPDEST PUSH1 0x5 DUP3 ADD SWAP1 POP SWAP2 SWAP1 POP JUMP JUMPDEST PUSH1 0x0 PUSH3 0x683 DUP3 PUSH3 0x64F JUMP JUMPDEST SWAP2 POP DUP2 SWAP1 POP SWAP2 SWAP1 POP JUMP JUMPDEST PUSH2 0x1F9A DUP1 PUSH3 0x69D PUSH1 0x0 CODECOPY PUSH1 0x0 RETURN INVALID PUSH1 0x80 PUSH1 0x40 MSTORE CALLVALUE DUP1 ISZERO PUSH2 0x10 JUMPI PUSH1 0x0 DUP1 REVERT JUMPDEST POP PUSH1 0x4 CALLDATASIZE LT PUSH2 0x93 JUMPI PUSH1 0x0 CALLDATALOAD PUSH1 0xE0 SHR DUP1 PUSH4 0xB0187570 GT PUSH2 0x66 JUMPI DUP1 PUSH4 0xB0187570 EQ PUSH2 0x158 JUMPI DUP1 PUSH4 0xCDE58910 EQ PUSH2 0x188 JUMPI DUP1 PUSH4 0xCF0ECA09 EQ PUSH2 0x1B8 JUMPI DUP1 PUSH4 0xD6412C27 EQ PUSH2 0x1E8 JUMPI DUP1 PUSH4 0xE5D19E69 EQ PUSH2 0x218 JUMPI PUSH2 0x93 JUMP JUMPDEST DUP1 PUSH4 0x40C629FE EQ PUSH2 0x98 JUMPI DUP1 PUSH4 0x4B698358 EQ PUSH2 0xC8 JUMPI DUP1 PUSH4 0x5119CE4B EQ PUSH2 0xF8 JUMPI DUP1 PUSH4 0x525F3654 EQ PUSH2 0x128 JUMPI JUMPDEST PUSH1 0x0 DUP1 REVERT JUMPDEST PUSH2 0xB2 PUSH1 0x4 DUP1 CALLDATASIZE SUB DUP2 ADD SWAP1 PUSH2 0xAD SWAP2 SWAP1 PUSH2 0xC42 JUMP JUMPDEST PUSH2 0x248 JUMP JUMPDEST PUSH1 0x40 MLOAD PUSH2 0xBF SWAP2 SWAP1 PUSH2 0xD13 JUMP JUMPDEST PUSH1 0x40 MLOAD DUP1 SWAP2 SUB SWAP1 RETURN JUMPDEST PUSH2 0xE2 PUSH1 0x4 DUP1 CALLDATASIZE SUB DUP2 ADD SWAP1 PUSH2 0xDD SWAP2 SWAP1 PUSH2 0xDD6 JUMP JUMPDEST PUSH2 0x2FE JUMP JUMPDEST PUSH1 0x40 MLOAD PUSH2 0xEF SWAP2 SWAP1 PUSH2 0xD13 JUMP JUMPDEST PUSH1 0x40 MLOAD DUP1 SWAP2 SUB SWAP1 RETURN JUMPDEST PUSH2 0x112 PUSH1 0x4 DUP1 CALLDATASIZE SUB DUP2 ADD SWAP1 PUSH2 0x10D SWAP2 SWAP1 PUSH2 0xEB3 JUMP JUMPDEST PUSH2 0x38C JUMP JUMPDEST PUSH1 0x40 MLOAD PUSH2 0x11F SWAP2 SWAP1 PUSH2 0xF2B JUMP JUMPDEST PUSH1 0x40 MLOAD DUP1 SWAP2 SUB SWAP1 RETURN JUMPDEST PUSH2 0x142 PUSH1 0x4 DUP1 CALLDATASIZE SUB DUP2 ADD SWAP1 PUSH2 0x13D SWAP2 SWAP1 PUSH2 0xF72 JUMP JUMPDEST PUSH2 0x3FA JUMP JUMPDEST PUSH1 0x40 MLOAD PUSH2 0x14F SWAP2 SWAP1 PUSH2 0xD13 JUMP JUMPDEST PUSH1 0x40 MLOAD DUP1 SWAP2 SUB SWAP1 RETURN JUMPDEST PUSH2 0x172 PUSH1 0x4 DUP1 CALLDATASIZE SUB DUP2 ADD SWAP1 PUSH2 0x16D SWAP2 SWAP1 PUSH2 0xC42 JUMP JUMPDEST PUSH2 0x4B0 JUMP JUMPDEST PUSH1 0x40 MLOAD PUSH2 0x17F SWAP2 SWAP1 PUSH2 0xD13 JUMP JUMPDEST PUSH1 0x40 MLOAD DUP1 SWAP2 SUB SWAP1 RETURN JUMPDEST PUSH2 0x1A2 PUSH1 0x4 DUP1 CALLDATASIZE SUB DUP2 ADD SWAP1 PUSH2 0x19D SWAP2 SWAP1 PUSH2 0xC42 JUMP JUMPDEST PUSH2 0x563 JUMP JUMPDEST PUSH1 0x40 MLOAD PUSH2 0x1AF SWAP2 SWAP1 PUSH2 0x1023 JUMP JUMPDEST PUSH1 0x40 MLOAD DUP1 SWAP2 SUB SWAP1 RETURN JUMPDEST PUSH2 0x1D2 PUSH1 0x4 DUP1 CALLDATASIZE SUB DUP2 ADD SWAP1 PUSH2 0x1CD SWAP2 SWAP1 PUSH2 0xDD6 JUMP JUMPDEST PUSH2 0x57F JUMP JUMPDEST PUSH1 0x40 MLOAD PUSH2 0x1DF SWAP2 SWAP1 PUSH2 0xD13 JUMP JUMPDEST PUSH1 0x40 MLOAD DUP1 SWAP2 SUB SWAP1 RETURN JUMPDEST PUSH2 0x202 PUSH1 0x4 DUP1 CALLDATASIZE SUB DUP2 ADD SWAP1 PUSH2 0x1FD SWAP2 SWAP1 PUSH2 0x1045 JUMP JUMPDEST PUSH2 0x716 JUMP JUMPDEST PUSH1 0x40 MLOAD PUSH2 0x20F SWAP2 SWAP1 PUSH2 0xD13 JUMP JUMPDEST PUSH1 0x40 MLOAD DUP1 SWAP2 SUB SWAP1 RETURN JUMPDEST PUSH2 0x232 PUSH1 0x4 DUP1 CALLDATASIZE SUB DUP2 ADD SWAP1 PUSH2 0x22D SWAP2 SWAP1 PUSH2 0xEB3 JUMP JUMPDEST PUSH2 0x8E4 JUMP JUMPDEST PUSH1 0x40 MLOAD PUSH2 0x23F SWAP2 SWAP1 PUSH2 0xD13 JUMP JUMPDEST PUSH1 0x40 MLOAD DUP1 SWAP2 SUB SWAP1 RETURN JUMPDEST PUSH1 0x0 DUP2 DUP1 MLOAD PUSH1 0x20 DUP2 ADD DUP3 ADD DUP1 MLOAD DUP5 DUP3 MSTORE PUSH1 0x20 DUP4 ADD PUSH1 0x20 DUP6 ADD KECCAK256 DUP2 DUP4 MSTORE DUP1 SWAP6 POP POP POP POP POP POP PUSH1 0x0 SWAP2 POP SWAP1 POP DUP1 SLOAD PUSH2 0x27D SWAP1 PUSH2 0x114B JUMP JUMPDEST DUP1 PUSH1 0x1F ADD PUSH1 0x20 DUP1 SWAP2 DIV MUL PUSH1 0x20 ADD PUSH1 0x40 MLOAD SWAP1 DUP2 ADD PUSH1 0x40 MSTORE DUP1 SWAP3 SWAP2 SWAP1 DUP2 DUP2 MSTORE PUSH1 0x20 ADD DUP3 DUP1 SLOAD PUSH2 0x2A9 SWAP1 PUSH2 0x114B JUMP JUMPDEST DUP1 ISZERO PUSH2 0x2F6 JUMPI DUP1 PUSH1 0x1F LT PUSH2 0x2CB JUMPI PUSH2 0x100 DUP1 DUP4 SLOAD DIV MUL DUP4 MSTORE SWAP2 PUSH1 0x20 ADD SWAP2 PUSH2 0x2F6 JUMP JUMPDEST DUP3 ADD SWAP2 SWAP1 PUSH1 0x0 MSTORE PUSH1 0x20 PUSH1 0x0 KECCAK256 SWAP1 JUMPDEST DUP2 SLOAD DUP2 MSTORE SWAP1 PUSH1 0x1 ADD SWAP1 PUSH1 0x20 ADD DUP1 DUP4 GT PUSH2 0x2D9 JUMPI DUP3 SWAP1 SUB PUSH1 0x1F AND DUP3 ADD SWAP2 JUMPDEST POP POP POP POP POP DUP2 JUMP JUMPDEST PUSH1 0x60 ADDRESS PUSH20 0xFFFFFFFFFFFFFFFFFFFFFFFFFFFFFFFFFFFFFFFF AND PUSH4 0xD6412C27 DUP6 DUP6 DUP6 PUSH1 0x40 MLOAD DUP5 PUSH4 0xFFFFFFFF AND PUSH1 0xE0 SHL DUP2 MSTORE PUSH1 0x4 ADD PUSH2 0x33D SWAP4 SWAP3 SWAP2 SWAP1 PUSH2 0x11A2 JUMP JUMPDEST PUSH1 0x0 PUSH1 0x40 MLOAD DUP1 DUP4 SUB DUP2 DUP7 GAS STATICCALL ISZERO DUP1 ISZERO PUSH2 0x35A JUMPI RETURNDATASIZE PUSH1 0x0 DUP1 RETURNDATACOPY RETURNDATASIZE PUSH1 0x0 REVERT JUMPDEST POP POP POP POP PUSH1 0x40 MLOAD RETURNDATASIZE PUSH1 0x0 DUP3 RETURNDATACOPY RETURNDATASIZE PUSH1 0x1F NOT PUSH1 0x1F DUP3 ADD AND DUP3 ADD DUP1 PUSH1 0x40 MSTORE POP DUP2 ADD SWAP1 PUSH2 0x383 SWAP2 SWAP1 PUSH2 0x1271 JUMP JUMPDEST SWAP1 POP SWAP4 SWAP3 POP POP POP JUMP JUMPDEST PUSH1 0x0 DUP2 DUP4 MLOAD GT PUSH2 0x3D1 JUMPI PUSH1 0x40 MLOAD PUSH32 0x8C379A000000000000000000000000000000000000000000000000000000000 DUP2 MSTORE PUSH1 0x4 ADD PUSH2 0x3C8 SWAP1 PUSH2 0x1306 JUMP JUMPDEST PUSH1 0x40 MLOAD DUP1 SWAP2 SUB SWAP1 REVERT JUMPDEST DUP3 DUP3 DUP2 MLOAD DUP2 LT PUSH2 0x3E4 JUMPI PUSH2 0x3E3 PUSH2 0x1326 JUMP JUMPDEST JUMPDEST PUSH1 0x20 ADD ADD MLOAD PUSH1 0xF8 SHR PUSH1 0xF8 SHL PUSH1 0xF8 SHR SWAP1 POP SWAP3 SWAP2 POP POP JUMP JUMPDEST PUSH1 0x60 PUSH1 0x3 PUSH1 0x0 DUP5 PUSH1 0x40 MLOAD PUSH2 0x40E SWAP2 SWAP1 PUSH2 0x1391 JUMP JUMPDEST SWAP1 DUP2 MSTORE PUSH1 0x20 ADD PUSH1 0x40 MLOAD DUP1 SWAP2 SUB SWAP1 KECCAK256 DUP1 SLOAD PUSH2 0x427 SWAP1 PUSH2 0x114B JUMP JUMPDEST SWAP1 POP EQ PUSH2 0x469 JUMPI PUSH1 0x40 MLOAD PUSH32 0x8C379A000000000000000000000000000000000000000000000000000000000 DUP2 MSTORE PUSH1 0x4 ADD PUSH2 0x460 SWAP1 PUSH2 0x13F4 JUMP JUMPDEST PUSH1 0x40 MLOAD DUP1 SWAP2 SUB SWAP1 REVERT JUMPDEST PUSH1 0x0 DUP4 PUSH1 0x40 MLOAD PUSH2 0x479 SWAP2 SWAP1 PUSH2 0x1391 JUMP JUMPDEST SWAP1 DUP2 MSTORE PUSH1 0x20 ADD PUSH1 0x40 MLOAD DUP1 SWAP2 SUB SWAP1 KECCAK256 DUP3 PUSH1 0x40 MLOAD PUSH1 0x20 ADD PUSH2 0x499 SWAP3 SWAP2 SWAP1 PUSH2 0x14ED JUMP JUMPDEST PUSH1 0x40 MLOAD PUSH1 0x20 DUP2 DUP4 SUB SUB DUP2 MSTORE SWAP1 PUSH1 0x40 MSTORE SWAP1 POP SWAP3 SWAP2 POP POP JUMP JUMPDEST PUSH1 0x60 PUSH1 0x3 PUSH1 0x0 DUP4 PUSH1 0x40 MLOAD PUSH2 0x4C4 SWAP2 SWAP1 PUSH2 0x1391 JUMP JUMPDEST SWAP1 DUP2 MSTORE PUSH1 0x20 ADD PUSH1 0x40 MLOAD DUP1 SWAP2 SUB SWAP1 KECCAK256 DUP1 SLOAD PUSH2 0x4DD SWAP1 PUSH2 0x114B JUMP JUMPDEST SWAP1 POP EQ PUSH2 0x51F JUMPI PUSH1 0x40 MLOAD PUSH32 0x8C379A000000000000000000000000000000000000000000000000000000000 DUP2 MSTORE PUSH1 0x4 ADD PUSH2 0x516 SWAP1 PUSH2 0x13F4 JUMP JUMPDEST PUSH1 0x40 MLOAD DUP1 SWAP2 SUB SWAP1 REVERT JUMPDEST PUSH1 0x0 DUP3 PUSH1 0x40 MLOAD PUSH2 0x52F SWAP2 SWAP1 PUSH2 0x1391 JUMP JUMPDEST SWAP1 DUP2 MSTORE PUSH1 0x20 ADD PUSH1 0x40 MLOAD DUP1 SWAP2 SUB SWAP1 KECCAK256 PUSH1 0x40 MLOAD PUSH1 0x20 ADD PUSH2 0x54D SWAP2 SWAP1 PUSH2 0x1561 JUMP JUMPDEST PUSH1 0x40 MLOAD PUSH1 0x20 DUP2 DUP4 SUB SUB DUP2 MSTORE SWAP1 PUSH1 0x40 MSTORE SWAP1 POP SWAP2 SWAP1 POP JUMP JUMPDEST PUSH1 0x60 PUSH2 0x578 PUSH2 0x571 DUP4 PUSH2 0x4B0 JUMP JUMPDEST PUSH1 0x0 PUSH2 0x8E4 JUMP JUMPDEST SWAP1 POP SWAP2 SWAP1 POP JUMP JUMPDEST PUSH1 0x60 DUP1 PUSH1 0x0 PUSH1 0x1 SWAP1 POP PUSH1 0x80 DUP1 DUP8 PUSH1 0x0 DUP2 MLOAD DUP2 LT PUSH2 0x59F JUMPI PUSH2 0x59E PUSH2 0x1326 JUMP JUMPDEST JUMPDEST PUSH1 0x20 ADD ADD MLOAD PUSH1 0xF8 SHR PUSH1 0xF8 SHL PUSH1 0xF8 SHR AND PUSH1 0xFF AND SUB PUSH2 0x637 JUMPI PUSH2 0x5CC PUSH2 0x5C4 DUP8 PUSH1 0x1 PUSH2 0x38C JUMP JUMPDEST PUSH1 0xFF AND PUSH2 0x988 JUMP JUMPDEST PUSH2 0x5E2 PUSH2 0x5DA DUP9 PUSH1 0x2 PUSH2 0x38C JUMP JUMPDEST PUSH1 0xFF AND PUSH2 0x988 JUMP JUMPDEST PUSH2 0x5F8 PUSH2 0x5F0 DUP10 PUSH1 0x3 PUSH2 0x38C JUMP JUMPDEST PUSH1 0xFF AND PUSH2 0x988 JUMP JUMPDEST PUSH2 0x60E PUSH2 0x606 DUP11 PUSH1 0x4 PUSH2 0x38C JUMP JUMPDEST PUSH1 0xFF AND PUSH2 0x988 JUMP JUMPDEST PUSH1 0x40 MLOAD PUSH1 0x20 ADD PUSH2 0x621 SWAP5 SWAP4 SWAP3 SWAP2 SWAP1 PUSH2 0x16FF JUMP JUMPDEST PUSH1 0x40 MLOAD PUSH1 0x20 DUP2 DUP4 SUB SUB DUP2 MSTORE SWAP1 PUSH1 0x40 MSTORE SWAP2 POP PUSH1 0x5 SWAP1 POP JUMPDEST DUP5 DUP5 DUP4 PUSH1 0x40 MLOAD PUSH1 0x20 ADD PUSH2 0x64C SWAP4 SWAP3 SWAP2 SWAP1 PUSH2 0x1889 JUMP JUMPDEST PUSH1 0x40 MLOAD PUSH1 0x20 DUP2 DUP4 SUB SUB DUP2 MSTORE SWAP1 PUSH1 0x40 MSTORE SWAP2 POP PUSH1 0x0 DUP2 PUSH1 0xFF AND SWAP1 POP JUMPDEST DUP7 MLOAD DUP2 LT ISZERO PUSH2 0x6EA JUMPI DUP3 PUSH2 0x685 PUSH2 0x67D DUP10 DUP5 PUSH2 0x38C JUMP JUMPDEST PUSH1 0xFF AND PUSH2 0x988 JUMP JUMPDEST PUSH2 0x69B DUP10 PUSH1 0x1 DUP6 PUSH2 0x696 SWAP2 SWAP1 PUSH2 0x190A JUMP JUMPDEST PUSH2 0x8E4 JUMP JUMPDEST DUP9 PUSH2 0x6B1 PUSH2 0x6A9 DUP13 DUP8 PUSH2 0x38C JUMP JUMPDEST PUSH1 0xFF AND PUSH2 0x988 JUMP JUMPDEST PUSH1 0x40 MLOAD PUSH1 0x20 ADD PUSH2 0x6C5 SWAP6 SWAP5 SWAP4 SWAP3 SWAP2 SWAP1 PUSH2 0x1A90 JUMP JUMPDEST PUSH1 0x40 MLOAD PUSH1 0x20 DUP2 DUP4 SUB SUB DUP2 MSTORE SWAP1 PUSH1 0x40 MSTORE SWAP3 POP PUSH1 0x5 DUP2 PUSH2 0x6E3 SWAP2 SWAP1 PUSH2 0x190A JUMP JUMPDEST SWAP1 POP PUSH2 0x666 JUMP JUMPDEST POP DUP2 PUSH1 0x40 MLOAD PUSH1 0x20 ADD PUSH2 0x6FC SWAP2 SWAP1 PUSH2 0x1B53 JUMP JUMPDEST PUSH1 0x40 MLOAD PUSH1 0x20 DUP2 DUP4 SUB SUB DUP2 MSTORE SWAP1 PUSH1 0x40 MSTORE SWAP3 POP POP POP SWAP4 SWAP3 POP POP POP JUMP JUMPDEST PUSH1 0x60 DUP1 PUSH1 0x3 DUP7 MLOAD GT ISZERO PUSH2 0x74D JUMPI PUSH1 0x80 DUP7 PUSH1 0x40 MLOAD PUSH1 0x20 ADD PUSH2 0x737 SWAP3 SWAP2 SWAP1 PUSH2 0x1B75 JUMP JUMPDEST PUSH1 0x40 MLOAD PUSH1 0x20 DUP2 DUP4 SUB SUB DUP2 MSTORE SWAP1 PUSH1 0x40 MSTORE SWAP1 POP PUSH2 0x767 JUMP JUMPDEST PUSH1 0x40 MLOAD DUP1 PUSH1 0x40 ADD PUSH1 0x40 MSTORE DUP1 PUSH1 0x1 DUP2 MSTORE PUSH1 0x20 ADD PUSH1 0x0 DUP2 MSTORE POP SWAP1 POP JUMPDEST PUSH1 0x0 PUSH1 0x4 DUP7 MLOAD PUSH2 0x777 SWAP2 SWAP1 PUSH2 0x1BCC JUMP JUMPDEST SWAP1 POP PUSH1 0x0 JUMPDEST DUP2 DUP2 PUSH1 0xFF AND LT ISZERO PUSH2 0x8CC JUMPI DUP3 PUSH1 0x1 DUP4 PUSH2 0x795 SWAP2 SWAP1 PUSH2 0x1BFD JUMP JUMPDEST PUSH1 0x64 PUSH2 0x7A1 SWAP2 SWAP1 PUSH2 0x1BCC JUMP JUMPDEST DUP3 PUSH1 0xFF AND PUSH2 0x7AF SWAP2 SWAP1 PUSH2 0x1C31 JUMP JUMPDEST DUP9 PUSH1 0x4 DUP5 PUSH2 0x7BD SWAP2 SWAP1 PUSH2 0x1C8B JUMP JUMPDEST PUSH1 0xFF AND DUP2 MLOAD DUP2 LT PUSH2 0x7D1 JUMPI PUSH2 0x7D0 PUSH2 0x1326 JUMP JUMPDEST JUMPDEST PUSH1 0x20 ADD ADD MLOAD PUSH1 0xF8 SHR PUSH1 0xF8 SHL PUSH1 0xF8 SHR DUP10 PUSH1 0x1 PUSH1 0x4 DUP7 PUSH2 0x7EF SWAP2 SWAP1 PUSH2 0x1C8B JUMP JUMPDEST PUSH2 0x7F9 SWAP2 SWAP1 PUSH2 0x1CC6 JUMP JUMPDEST PUSH1 0xFF AND DUP2 MLOAD DUP2 LT PUSH2 0x80D JUMPI PUSH2 0x80C PUSH2 0x1326 JUMP JUMPDEST JUMPDEST PUSH1 0x20 ADD ADD MLOAD PUSH1 0xF8 SHR PUSH1 0xF8 SHL PUSH1 0xF8 SHR DUP11 PUSH1 0x2 PUSH1 0x4 DUP8 PUSH2 0x82B SWAP2 SWAP1 PUSH2 0x1C8B JUMP JUMPDEST PUSH2 0x835 SWAP2 SWAP1 PUSH2 0x1CC6 JUMP JUMPDEST PUSH1 0xFF AND DUP2 MLOAD DUP2 LT PUSH2 0x849 JUMPI PUSH2 0x848 PUSH2 0x1326 JUMP JUMPDEST JUMPDEST PUSH1 0x20 ADD ADD MLOAD PUSH1 0xF8 SHR PUSH1 0xF8 SHL PUSH1 0xF8 SHR DUP12 PUSH1 0x3 PUSH1 0x4 DUP9 PUSH2 0x867 SWAP2 SWAP1 PUSH2 0x1C8B JUMP JUMPDEST PUSH2 0x871 SWAP2 SWAP1 PUSH2 0x1CC6 JUMP JUMPDEST PUSH1 0xFF AND DUP2 MLOAD DUP2 LT PUSH2 0x885 JUMPI PUSH2 0x884 PUSH2 0x1326 JUMP JUMPDEST JUMPDEST PUSH1 0x20 ADD ADD MLOAD PUSH1 0xF8 SHR PUSH1 0xF8 SHL PUSH1 0xF8 SHR PUSH1 0x40 MLOAD PUSH1 0x20 ADD PUSH2 0x8A8 SWAP7 SWAP6 SWAP5 SWAP4 SWAP3 SWAP2 SWAP1 PUSH2 0x1CFD JUMP JUMPDEST PUSH1 0x40 MLOAD PUSH1 0x20 DUP2 DUP4 SUB SUB DUP2 MSTORE SWAP1 PUSH1 0x40 MSTORE SWAP3 POP DUP1 DUP1 PUSH2 0x8C4 SWAP1 PUSH2 0x1D69 JUMP JUMPDEST SWAP2 POP POP PUSH2 0x77C JUMP JUMPDEST PUSH2 0x8D7 DUP4 DUP8 DUP8 PUSH2 0x57F JUMP JUMPDEST SWAP4 POP POP POP POP SWAP5 SWAP4 POP POP POP POP JUMP JUMPDEST PUSH1 0x60 PUSH2 0x8FB PUSH2 0x8F3 DUP5 DUP5 PUSH2 0x38C JUMP JUMPDEST PUSH1 0xFF AND PUSH2 0x988 JUMP JUMPDEST PUSH2 0x91C PUSH2 0x914 DUP6 PUSH1 0x1 DUP7 PUSH2 0x90F SWAP2 SWAP1 PUSH2 0x190A JUMP JUMPDEST PUSH2 0x38C JUMP JUMPDEST PUSH1 0xFF AND PUSH2 0x988 JUMP JUMPDEST PUSH2 0x93D PUSH2 0x935 DUP7 PUSH1 0x2 DUP8 PUSH2 0x930 SWAP2 SWAP1 PUSH2 0x190A JUMP JUMPDEST PUSH2 0x38C JUMP JUMPDEST PUSH1 0xFF AND PUSH2 0x988 JUMP JUMPDEST PUSH2 0x95E PUSH2 0x956 DUP8 PUSH1 0x3 DUP9 PUSH2 0x951 SWAP2 SWAP1 PUSH2 0x190A JUMP JUMPDEST PUSH2 0x38C JUMP JUMPDEST PUSH1 0xFF AND PUSH2 0x988 JUMP JUMPDEST PUSH1 0x40 MLOAD PUSH1 0x20 ADD PUSH2 0x971 SWAP5 SWAP4 SWAP3 SWAP2 SWAP1 PUSH2 0x1E76 JUMP JUMPDEST PUSH1 0x40 MLOAD PUSH1 0x20 DUP2 DUP4 SUB SUB DUP2 MSTORE SWAP1 PUSH1 0x40 MSTORE SWAP1 POP SWAP3 SWAP2 POP POP JUMP JUMPDEST PUSH1 0x60 PUSH1 0x0 DUP3 SUB PUSH2 0x9CF JUMPI PUSH1 0x40 MLOAD DUP1 PUSH1 0x40 ADD PUSH1 0x40 MSTORE DUP1 PUSH1 0x1 DUP2 MSTORE PUSH1 0x20 ADD PUSH32 0x3000000000000000000000000000000000000000000000000000000000000000 DUP2 MSTORE POP SWAP1 POP PUSH2 0xAE3 JUMP JUMPDEST PUSH1 0x0 DUP3 SWAP1 POP PUSH1 0x0 JUMPDEST PUSH1 0x0 DUP3 EQ PUSH2 0xA01 JUMPI DUP1 DUP1 PUSH2 0x9EA SWAP1 PUSH2 0x1EEB JUMP JUMPDEST SWAP2 POP POP PUSH1 0xA DUP3 PUSH2 0x9FA SWAP2 SWAP1 PUSH2 0x1BCC JUMP JUMPDEST SWAP2 POP PUSH2 0x9D7 JUMP JUMPDEST PUSH1 0x0 DUP2 PUSH8 0xFFFFFFFFFFFFFFFF DUP2 GT ISZERO PUSH2 0xA1D JUMPI PUSH2 0xA1C PUSH2 0xB17 JUMP JUMPDEST JUMPDEST PUSH1 0x40 MLOAD SWAP1 DUP1 DUP3 MSTORE DUP1 PUSH1 0x1F ADD PUSH1 0x1F NOT AND PUSH1 0x20 ADD DUP3 ADD PUSH1 0x40 MSTORE DUP1 ISZERO PUSH2 0xA4F JUMPI DUP2 PUSH1 0x20 ADD PUSH1 0x1 DUP3 MUL DUP1 CALLDATASIZE DUP4 CALLDATACOPY DUP1 DUP3 ADD SWAP2 POP POP SWAP1 POP JUMPDEST POP SWAP1 POP JUMPDEST PUSH1 0x0 DUP6 EQ PUSH2 0xADC JUMPI PUSH1 0x1 DUP3 PUSH2 0xA68 SWAP2 SWAP1 PUSH2 0x1BFD JUMP JUMPDEST SWAP2 POP PUSH1 0xA DUP6 PUSH2 0xA77 SWAP2 SWAP1 PUSH2 0x1F33 JUMP JUMPDEST PUSH1 0x30 PUSH2 0xA83 SWAP2 SWAP1 PUSH2 0x190A JUMP JUMPDEST PUSH1 0xF8 SHL DUP2 DUP4 DUP2 MLOAD DUP2 LT PUSH2 0xA99 JUMPI PUSH2 0xA98 PUSH2 0x1326 JUMP JUMPDEST JUMPDEST PUSH1 0x20 ADD ADD SWAP1 PUSH31 0xFFFFFFFFFFFFFFFFFFFFFFFFFFFFFFFFFFFFFFFFFFFFFFFFFFFFFFFFFFFFFF NOT AND SWAP1 DUP2 PUSH1 0x0 BYTE SWAP1 MSTORE8 POP PUSH1 0xA DUP6 PUSH2 0xAD5 SWAP2 SWAP1 PUSH2 0x1BCC JUMP JUMPDEST SWAP5 POP PUSH2 0xA53 JUMP JUMPDEST DUP1 SWAP4 POP POP POP POP JUMPDEST SWAP2 SWAP1 POP JUMP JUMPDEST PUSH1 0x0 PUSH1 0x40 MLOAD SWAP1 POP SWAP1 JUMP JUMPDEST PUSH1 0x0 DUP1 REVERT JUMPDEST PUSH1 0x0 DUP1 REVERT JUMPDEST PUSH1 0x0 DUP1 REVERT JUMPDEST PUSH1 0x0 DUP1 REVERT JUMPDEST PUSH1 0x0 PUSH1 0x1F NOT PUSH1 0x1F DUP4 ADD AND SWAP1 POP SWAP2 SWAP1 POP JUMP JUMPDEST PUSH32 0x4E487B7100000000000000000000000000000000000000000000000000000000 PUSH1 0x0 MSTORE PUSH1 0x41 PUSH1 0x4 MSTORE PUSH1 0x24 PUSH1 0x0 REVERT JUMPDEST PUSH2 0xB4F DUP3 PUSH2 0xB06 JUMP JUMPDEST DUP2 ADD DUP2 DUP2 LT PUSH8 0xFFFFFFFFFFFFFFFF DUP3 GT OR ISZERO PUSH2 0xB6E JUMPI PUSH2 0xB6D PUSH2 0xB17 JUMP JUMPDEST JUMPDEST DUP1 PUSH1 0x40 MSTORE POP POP POP JUMP JUMPDEST PUSH1 0x0 PUSH2 0xB81 PUSH2 0xAE8 JUMP JUMPDEST SWAP1 POP PUSH2 0xB8D DUP3 DUP3 PUSH2 0xB46 JUMP JUMPDEST SWAP2 SWAP1 POP JUMP JUMPDEST PUSH1 0x0 PUSH8 0xFFFFFFFFFFFFFFFF DUP3 GT ISZERO PUSH2 0xBAD JUMPI PUSH2 0xBAC PUSH2 0xB17 JUMP JUMPDEST JUMPDEST PUSH2 0xBB6 DUP3 PUSH2 0xB06 JUMP JUMPDEST SWAP1 POP PUSH1 0x20 DUP2 ADD SWAP1 POP SWAP2 SWAP1 POP JUMP JUMPDEST DUP3 DUP2 DUP4 CALLDATACOPY PUSH1 0x0 DUP4 DUP4 ADD MSTORE POP POP POP JUMP JUMPDEST PUSH1 0x0 PUSH2 0xBE5 PUSH2 0xBE0 DUP5 PUSH2 0xB92 JUMP JUMPDEST PUSH2 0xB77 JUMP JUMPDEST SWAP1 POP DUP3 DUP2 MSTORE PUSH1 0x20 DUP2 ADD DUP5 DUP5 DUP5 ADD GT ISZERO PUSH2 0xC01 JUMPI PUSH2 0xC00 PUSH2 0xB01 JUMP JUMPDEST JUMPDEST PUSH2 0xC0C DUP5 DUP3 DUP6 PUSH2 0xBC3 JUMP JUMPDEST POP SWAP4 SWAP3 POP POP POP JUMP JUMPDEST PUSH1 0x0 DUP3 PUSH1 0x1F DUP4 ADD SLT PUSH2 0xC29 JUMPI PUSH2 0xC28 PUSH2 0xAFC JUMP JUMPDEST JUMPDEST DUP2 CALLDATALOAD PUSH2 0xC39 DUP5 DUP3 PUSH1 0x20 DUP7 ADD PUSH2 0xBD2 JUMP JUMPDEST SWAP2 POP POP SWAP3 SWAP2 POP POP JUMP JUMPDEST PUSH1 0x0 PUSH1 0x20 DUP3 DUP5 SUB SLT ISZERO PUSH2 0xC58 JUMPI PUSH2 0xC57 PUSH2 0xAF2 JUMP JUMPDEST JUMPDEST PUSH1 0x0 DUP3 ADD CALLDATALOAD PUSH8 0xFFFFFFFFFFFFFFFF DUP2 GT ISZERO PUSH2 0xC76 JUMPI PUSH2 0xC75 PUSH2 0xAF7 JUMP JUMPDEST JUMPDEST PUSH2 0xC82 DUP5 DUP3 DUP6 ADD PUSH2 0xC14 JUMP JUMPDEST SWAP2 POP POP SWAP3 SWAP2 POP POP JUMP JUMPDEST PUSH1 0x0 DUP2 MLOAD SWAP1 POP SWAP2 SWAP1 POP JUMP JUMPDEST PUSH1 0x0 DUP3 DUP3 MSTORE PUSH1 0x20 DUP3 ADD SWAP1 POP SWAP3 SWAP2 POP POP JUMP JUMPDEST PUSH1 0x0 JUMPDEST DUP4 DUP2 LT ISZERO PUSH2 0xCC5 JUMPI DUP1 DUP3 ADD MLOAD DUP2 DUP5 ADD MSTORE PUSH1 0x20 DUP2 ADD SWAP1 POP PUSH2 0xCAA JUMP JUMPDEST DUP4 DUP2 GT ISZERO PUSH2 0xCD4 JUMPI PUSH1 0x0 DUP5 DUP5 ADD MSTORE JUMPDEST POP POP POP POP JUMP JUMPDEST PUSH1 0x0 PUSH2 0xCE5 DUP3 PUSH2 0xC8B JUMP JUMPDEST PUSH2 0xCEF DUP2 DUP6 PUSH2 0xC96 JUMP JUMPDEST SWAP4 POP PUSH2 0xCFF DUP2 DUP6 PUSH1 0x20 DUP7 ADD PUSH2 0xCA7 JUMP JUMPDEST PUSH2 0xD08 DUP2 PUSH2 0xB06 JUMP JUMPDEST DUP5 ADD SWAP2 POP POP SWAP3 SWAP2 POP POP JUMP JUMPDEST PUSH1 0x0 PUSH1 0x20 DUP3 ADD SWAP1 POP DUP2 DUP2 SUB PUSH1 0x0 DUP4 ADD MSTORE PUSH2 0xD2D DUP2 DUP5 PUSH2 0xCDA JUMP JUMPDEST SWAP1 POP SWAP3 SWAP2 POP POP JUMP JUMPDEST PUSH1 0x0 PUSH8 0xFFFFFFFFFFFFFFFF DUP3 GT ISZERO PUSH2 0xD50 JUMPI PUSH2 0xD4F PUSH2 0xB17 JUMP JUMPDEST JUMPDEST PUSH2 0xD59 DUP3 PUSH2 0xB06 JUMP JUMPDEST SWAP1 POP PUSH1 0x20 DUP2 ADD SWAP1 POP SWAP2 SWAP1 POP JUMP JUMPDEST PUSH1 0x0 PUSH2 0xD79 PUSH2 0xD74 DUP5 PUSH2 0xD35 JUMP JUMPDEST PUSH2 0xB77 JUMP JUMPDEST SWAP1 POP DUP3 DUP2 MSTORE PUSH1 0x20 DUP2 ADD DUP5 DUP5 DUP5 ADD GT ISZERO PUSH2 0xD95 JUMPI PUSH2 0xD94 PUSH2 0xB01 JUMP JUMPDEST JUMPDEST PUSH2 0xDA0 DUP5 DUP3 DUP6 PUSH2 0xBC3 JUMP JUMPDEST POP SWAP4 SWAP3 POP POP POP JUMP JUMPDEST PUSH1 0x0 DUP3 PUSH1 0x1F DUP4 ADD SLT PUSH2 0xDBD JUMPI PUSH2 0xDBC PUSH2 0xAFC JUMP JUMPDEST JUMPDEST DUP2 CALLDATALOAD PUSH2 0xDCD DUP5 DUP3 PUSH1 0x20 DUP7 ADD PUSH2 0xD66 JUMP JUMPDEST SWAP2 POP POP SWAP3 SWAP2 POP POP JUMP JUMPDEST PUSH1 0x0 DUP1 PUSH1 0x0 PUSH1 0x60 DUP5 DUP7 SUB SLT ISZERO PUSH2 0xDEF JUMPI PUSH2 0xDEE PUSH2 0xAF2 JUMP JUMPDEST JUMPDEST PUSH1 0x0 DUP5 ADD CALLDATALOAD PUSH8 0xFFFFFFFFFFFFFFFF DUP2 GT ISZERO PUSH2 0xE0D JUMPI PUSH2 0xE0C PUSH2 0xAF7 JUMP JUMPDEST JUMPDEST PUSH2 0xE19 DUP7 DUP3 DUP8 ADD PUSH2 0xDA8 JUMP JUMPDEST SWAP4 POP POP PUSH1 0x20 DUP5 ADD CALLDATALOAD PUSH8 0xFFFFFFFFFFFFFFFF DUP2 GT ISZERO PUSH2 0xE3A JUMPI PUSH2 0xE39 PUSH2 0xAF7 JUMP JUMPDEST JUMPDEST PUSH2 0xE46 DUP7 DUP3 DUP8 ADD PUSH2 0xDA8 JUMP JUMPDEST SWAP3 POP POP PUSH1 0x40 DUP5 ADD CALLDATALOAD PUSH8 0xFFFFFFFFFFFFFFFF DUP2 GT ISZERO PUSH2 0xE67 JUMPI PUSH2 0xE66 PUSH2 0xAF7 JUMP JUMPDEST JUMPDEST PUSH2 0xE73 DUP7 DUP3 DUP8 ADD PUSH2 0xDA8 JUMP JUMPDEST SWAP2 POP POP SWAP3 POP SWAP3 POP SWAP3 JUMP JUMPDEST PUSH1 0x0 DUP2 SWAP1 POP SWAP2 SWAP1 POP JUMP JUMPDEST PUSH2 0xE90 DUP2 PUSH2 0xE7D JUMP JUMPDEST DUP2 EQ PUSH2 0xE9B JUMPI PUSH1 0x0 DUP1 REVERT JUMPDEST POP JUMP JUMPDEST PUSH1 0x0 DUP2 CALLDATALOAD SWAP1 POP PUSH2 0xEAD DUP2 PUSH2 0xE87 JUMP JUMPDEST SWAP3 SWAP2 POP POP JUMP JUMPDEST PUSH1 0x0 DUP1 PUSH1 0x40 DUP4 DUP6 SUB SLT ISZERO PUSH2 0xECA JUMPI PUSH2 0xEC9 PUSH2 0xAF2 JUMP JUMPDEST JUMPDEST PUSH1 0x0 DUP4 ADD CALLDATALOAD PUSH8 0xFFFFFFFFFFFFFFFF DUP2 GT ISZERO PUSH2 0xEE8 JUMPI PUSH2 0xEE7 PUSH2 0xAF7 JUMP JUMPDEST JUMPDEST PUSH2 0xEF4 DUP6 DUP3 DUP7 ADD PUSH2 0xDA8 JUMP JUMPDEST SWAP3 POP POP PUSH1 0x20 PUSH2 0xF05 DUP6 DUP3 DUP7 ADD PUSH2 0xE9E JUMP JUMPDEST SWAP2 POP POP SWAP3 POP SWAP3 SWAP1 POP JUMP JUMPDEST PUSH1 0x0 PUSH1 0xFF DUP3 AND SWAP1 POP SWAP2 SWAP1 POP JUMP JUMPDEST PUSH2 0xF25 DUP2 PUSH2 0xF0F JUMP JUMPDEST DUP3 MSTORE POP POP JUMP JUMPDEST PUSH1 0x0 PUSH1 0x20 DUP3 ADD SWAP1 POP PUSH2 0xF40 PUSH1 0x0 DUP4 ADD DUP5 PUSH2 0xF1C JUMP JUMPDEST SWAP3 SWAP2 POP POP JUMP JUMPDEST PUSH2 0xF4F DUP2 PUSH2 0xF0F JUMP JUMPDEST DUP2 EQ PUSH2 0xF5A JUMPI PUSH1 0x0 DUP1 REVERT JUMPDEST POP JUMP JUMPDEST PUSH1 0x0 DUP2 CALLDATALOAD SWAP1 POP PUSH2 0xF6C DUP2 PUSH2 0xF46 JUMP JUMPDEST SWAP3 SWAP2 POP POP JUMP JUMPDEST PUSH1 0x0 DUP1 PUSH1 0x40 DUP4 DUP6 SUB SLT ISZERO PUSH2 0xF89 JUMPI PUSH2 0xF88 PUSH2 0xAF2 JUMP JUMPDEST JUMPDEST PUSH1 0x0 DUP4 ADD CALLDATALOAD PUSH8 0xFFFFFFFFFFFFFFFF DUP2 GT ISZERO PUSH2 0xFA7 JUMPI PUSH2 0xFA6 PUSH2 0xAF7 JUMP JUMPDEST JUMPDEST PUSH2 0xFB3 DUP6 DUP3 DUP7 ADD PUSH2 0xC14 JUMP JUMPDEST SWAP3 POP POP PUSH1 0x20 PUSH2 0xFC4 DUP6 DUP3 DUP7 ADD PUSH2 0xF5D JUMP JUMPDEST SWAP2 POP POP SWAP3 POP SWAP3 SWAP1 POP JUMP JUMPDEST PUSH1 0x0 DUP2 MLOAD SWAP1 POP SWAP2 SWAP1 POP JUMP JUMPDEST PUSH1 0x0 DUP3 DUP3 MSTORE PUSH1 0x20 DUP3 ADD SWAP1 POP SWAP3 SWAP2 POP POP JUMP JUMPDEST PUSH1 0x0 PUSH2 0xFF5 DUP3 PUSH2 0xFCE JUMP JUMPDEST PUSH2 0xFFF DUP2 DUP6 PUSH2 0xFD9 JUMP JUMPDEST SWAP4 POP PUSH2 0x100F DUP2 DUP6 PUSH1 0x20 DUP7 ADD PUSH2 0xCA7 JUMP JUMPDEST PUSH2 0x1018 DUP2 PUSH2 0xB06 JUMP JUMPDEST DUP5 ADD SWAP2 POP POP SWAP3 SWAP2 POP POP JUMP JUMPDEST PUSH1 0x0 PUSH1 0x20 DUP3 ADD SWAP1 POP DUP2 DUP2 SUB PUSH1 0x0 DUP4 ADD MSTORE PUSH2 0x103D DUP2 DUP5 PUSH2 0xFEA JUMP JUMPDEST SWAP1 POP SWAP3 SWAP2 POP POP JUMP JUMPDEST PUSH1 0x0 DUP1 PUSH1 0x0 DUP1 PUSH1 0x80 DUP6 DUP8 SUB SLT ISZERO PUSH2 0x105F JUMPI PUSH2 0x105E PUSH2 0xAF2 JUMP JUMPDEST JUMPDEST PUSH1 0x0 DUP6 ADD CALLDATALOAD PUSH8 0xFFFFFFFFFFFFFFFF DUP2 GT ISZERO PUSH2 0x107D JUMPI PUSH2 0x107C PUSH2 0xAF7 JUMP JUMPDEST JUMPDEST PUSH2 0x1089 DUP8 DUP3 DUP9 ADD PUSH2 0xDA8 JUMP JUMPDEST SWAP5 POP POP PUSH1 0x20 DUP6 ADD CALLDATALOAD PUSH8 0xFFFFFFFFFFFFFFFF DUP2 GT ISZERO PUSH2 0x10AA JUMPI PUSH2 0x10A9 PUSH2 0xAF7 JUMP JUMPDEST JUMPDEST PUSH2 0x10B6 DUP8 DUP3 DUP9 ADD PUSH2 0xDA8 JUMP JUMPDEST SWAP4 POP POP PUSH1 0x40 DUP6 ADD CALLDATALOAD PUSH8 0xFFFFFFFFFFFFFFFF DUP2 GT ISZERO PUSH2 0x10D7 JUMPI PUSH2 0x10D6 PUSH2 0xAF7 JUMP JUMPDEST JUMPDEST PUSH2 0x10E3 DUP8 DUP3 DUP9 ADD PUSH2 0xDA8 JUMP JUMPDEST SWAP3 POP POP PUSH1 0x60 DUP6 ADD CALLDATALOAD PUSH8 0xFFFFFFFFFFFFFFFF DUP2 GT ISZERO PUSH2 0x1104 JUMPI PUSH2 0x1103 PUSH2 0xAF7 JUMP JUMPDEST JUMPDEST PUSH2 0x1110 DUP8 DUP3 DUP9 ADD PUSH2 0xDA8 JUMP JUMPDEST SWAP2 POP POP SWAP3 SWAP6 SWAP2 SWAP5 POP SWAP3 POP JUMP JUMPDEST PUSH32 0x4E487B7100000000000000000000000000000000000000000000000000000000 PUSH1 0x0 MSTORE PUSH1 0x22 PUSH1 0x4 MSTORE PUSH1 0x24 PUSH1 0x0 REVERT JUMPDEST PUSH1 0x0 PUSH1 0x2 DUP3 DIV SWAP1 POP PUSH1 0x1 DUP3 AND DUP1 PUSH2 0x1163 JUMPI PUSH1 0x7F DUP3 AND SWAP2 POP JUMPDEST PUSH1 0x20 DUP3 LT DUP2 SUB PUSH2 0x1176 JUMPI PUSH2 0x1175 PUSH2 0x111C JUMP JUMPDEST JUMPDEST POP SWAP2 SWAP1 POP JUMP JUMPDEST POP JUMP JUMPDEST PUSH1 0x0 PUSH2 0x118C PUSH1 0x0 DUP4 PUSH2 0xC96 JUMP JUMPDEST SWAP2 POP PUSH2 0x1197 DUP3 PUSH2 0x117C JUMP JUMPDEST PUSH1 0x0 DUP3 ADD SWAP1 POP SWAP2 SWAP1 POP JUMP JUMPDEST PUSH1 0x0 PUSH1 0x80 DUP3 ADD SWAP1 POP DUP2 DUP2 SUB PUSH1 0x0 DUP4 ADD MSTORE PUSH2 0x11BB DUP2 PUSH2 0x117F JUMP JUMPDEST SWAP1 POP DUP2 DUP2 SUB PUSH1 0x20 DUP4 ADD MSTORE PUSH2 0x11CF DUP2 DUP7 PUSH2 0xCDA JUMP JUMPDEST SWAP1 POP DUP2 DUP2 SUB PUSH1 0x40 DUP4 ADD MSTORE PUSH2 0x11E3 DUP2 DUP6 PUSH2 0xCDA JUMP JUMPDEST SWAP1 POP DUP2 DUP2 SUB PUSH1 0x60 DUP4 ADD MSTORE PUSH2 0x11F7 DUP2 DUP5 PUSH2 0xCDA JUMP JUMPDEST SWAP1 POP SWAP5 SWAP4 POP POP POP POP JUMP JUMPDEST PUSH1 0x0 PUSH2 0x1214 PUSH2 0x120F DUP5 PUSH2 0xD35 JUMP JUMPDEST PUSH2 0xB77 JUMP JUMPDEST SWAP1 POP DUP3 DUP2 MSTORE PUSH1 0x20 DUP2 ADD DUP5 DUP5 DUP5 ADD GT ISZERO PUSH2 0x1230 JUMPI PUSH2 0x122F PUSH2 0xB01 JUMP JUMPDEST JUMPDEST PUSH2 0x123B DUP5 DUP3 DUP6 PUSH2 0xCA7 JUMP JUMPDEST POP SWAP4 SWAP3 POP POP POP JUMP JUMPDEST PUSH1 0x0 DUP3 PUSH1 0x1F DUP4 ADD SLT PUSH2 0x1258 JUMPI PUSH2 0x1257 PUSH2 0xAFC JUMP JUMPDEST JUMPDEST DUP2 MLOAD PUSH2 0x1268 DUP5 DUP3 PUSH1 0x20 DUP7 ADD PUSH2 0x1201 JUMP JUMPDEST SWAP2 POP POP SWAP3 SWAP2 POP POP JUMP JUMPDEST PUSH1 0x0 PUSH1 0x20 DUP3 DUP5 SUB SLT ISZERO PUSH2 0x1287 JUMPI PUSH2 0x1286 PUSH2 0xAF2 JUMP JUMPDEST JUMPDEST PUSH1 0x0 DUP3 ADD MLOAD PUSH8 0xFFFFFFFFFFFFFFFF DUP2 GT ISZERO PUSH2 0x12A5 JUMPI PUSH2 0x12A4 PUSH2 0xAF7 JUMP JUMPDEST JUMPDEST PUSH2 0x12B1 DUP5 DUP3 DUP6 ADD PUSH2 0x1243 JUMP JUMPDEST SWAP2 POP POP SWAP3 SWAP2 POP POP JUMP JUMPDEST PUSH32 0x4F7574206F662072616E67650000000000000000000000000000000000000000 PUSH1 0x0 DUP3 ADD MSTORE POP JUMP JUMPDEST PUSH1 0x0 PUSH2 0x12F0 PUSH1 0xC DUP4 PUSH2 0xFD9 JUMP JUMPDEST SWAP2 POP PUSH2 0x12FB DUP3 PUSH2 0x12BA JUMP JUMPDEST PUSH1 0x20 DUP3 ADD SWAP1 POP SWAP2 SWAP1 POP JUMP JUMPDEST PUSH1 0x0 PUSH1 0x20 DUP3 ADD SWAP1 POP DUP2 DUP2 SUB PUSH1 0x0 DUP4 ADD MSTORE PUSH2 0x131F DUP2 PUSH2 0x12E3 JUMP JUMPDEST SWAP1 POP SWAP2 SWAP1 POP JUMP JUMPDEST PUSH32 0x4E487B7100000000000000000000000000000000000000000000000000000000 PUSH1 0x0 MSTORE PUSH1 0x32 PUSH1 0x4 MSTORE PUSH1 0x24 PUSH1 0x0 REVERT JUMPDEST PUSH1 0x0 DUP2 SWAP1 POP SWAP3 SWAP2 POP POP JUMP JUMPDEST PUSH1 0x0 PUSH2 0x136B DUP3 PUSH2 0xFCE JUMP JUMPDEST PUSH2 0x1375 DUP2 DUP6 PUSH2 0x1355 JUMP JUMPDEST SWAP4 POP PUSH2 0x1385 DUP2 DUP6 PUSH1 0x20 DUP7 ADD PUSH2 0xCA7 JUMP JUMPDEST DUP1 DUP5 ADD SWAP2 POP POP SWAP3 SWAP2 POP POP JUMP JUMPDEST PUSH1 0x0 PUSH2 0x139D DUP3 DUP5 PUSH2 0x1360 JUMP JUMPDEST SWAP2 POP DUP2 SWAP1 POP SWAP3 SWAP2 POP POP JUMP JUMPDEST PUSH32 0x556E6B6E6F776E20636F6C6F7200000000000000000000000000000000000000 PUSH1 0x0 DUP3 ADD MSTORE POP JUMP JUMPDEST PUSH1 0x0 PUSH2 0x13DE PUSH1 0xD DUP4 PUSH2 0xFD9 JUMP JUMPDEST SWAP2 POP PUSH2 0x13E9 DUP3 PUSH2 0x13A8 JUMP JUMPDEST PUSH1 0x20 DUP3 ADD SWAP1 POP SWAP2 SWAP1 POP JUMP JUMPDEST PUSH1 0x0 PUSH1 0x20 DUP3 ADD SWAP1 POP DUP2 DUP2 SUB PUSH1 0x0 DUP4 ADD MSTORE PUSH2 0x140D DUP2 PUSH2 0x13D1 JUMP JUMPDEST SWAP1 POP SWAP2 SWAP1 POP JUMP JUMPDEST PUSH1 0x0 DUP2 SWAP1 POP SWAP3 SWAP2 POP POP JUMP JUMPDEST PUSH1 0x0 DUP2 SWAP1 POP DUP2 PUSH1 0x0 MSTORE PUSH1 0x20 PUSH1 0x0 KECCAK256 SWAP1 POP SWAP2 SWAP1 POP JUMP JUMPDEST PUSH1 0x0 DUP2 SLOAD PUSH2 0x1441 DUP2 PUSH2 0x114B JUMP JUMPDEST PUSH2 0x144B DUP2 DUP7 PUSH2 0x1414 JUMP JUMPDEST SWAP5 POP PUSH1 0x1 DUP3 AND PUSH1 0x0 DUP2 EQ PUSH2 0x1466 JUMPI PUSH1 0x1 DUP2 EQ PUSH2 0x147B JUMPI PUSH2 0x14AE JUMP JUMPDEST PUSH1 0xFF NOT DUP4 AND DUP7 MSTORE DUP2 ISZERO ISZERO DUP3 MUL DUP7 ADD SWAP4 POP PUSH2 0x14AE JUMP JUMPDEST PUSH2 0x1484 DUP6 PUSH2 0x141F JUMP JUMPDEST PUSH1 0x0 JUMPDEST DUP4 DUP2 LT ISZERO PUSH2 0x14A6 JUMPI DUP2 SLOAD DUP2 DUP10 ADD MSTORE PUSH1 0x1 DUP3 ADD SWAP2 POP PUSH1 0x20 DUP2 ADD SWAP1 POP PUSH2 0x1487 JUMP JUMPDEST DUP4 DUP9 ADD SWAP6 POP POP POP JUMPDEST POP POP POP SWAP3 SWAP2 POP POP JUMP JUMPDEST PUSH1 0x0 DUP2 PUSH1 0xF8 SHL SWAP1 POP SWAP2 SWAP1 POP JUMP JUMPDEST PUSH1 0x0 PUSH2 0x14CF DUP3 PUSH2 0x14B7 JUMP JUMPDEST SWAP1 POP SWAP2 SWAP1 POP JUMP JUMPDEST PUSH2 0x14E7 PUSH2 0x14E2 DUP3 PUSH2 0xF0F JUMP JUMPDEST PUSH2 0x14C4 JUMP JUMPDEST DUP3 MSTORE POP POP JUMP JUMPDEST PUSH1 0x0 PUSH2 0x14F9 DUP3 DUP6 PUSH2 0x1434 JUMP JUMPDEST SWAP2 POP PUSH2 0x1505 DUP3 DUP5 PUSH2 0x14D6 JUMP JUMPDEST PUSH1 0x1 DUP3 ADD SWAP2 POP DUP2 SWAP1 POP SWAP4 SWAP3 POP POP POP JUMP JUMPDEST PUSH32 0x6400000000000000000000000000000000000000000000000000000000000000 PUSH1 0x0 DUP3 ADD MSTORE POP JUMP JUMPDEST PUSH1 0x0 PUSH2 0x154B PUSH1 0x1 DUP4 PUSH2 0x1355 JUMP JUMPDEST SWAP2 POP PUSH2 0x1556 DUP3 PUSH2 0x1515 JUMP JUMPDEST PUSH1 0x1 DUP3 ADD SWAP1 POP SWAP2 SWAP1 POP JUMP JUMPDEST PUSH1 0x0 PUSH2 0x156D DUP3 DUP5 PUSH2 0x1434 JUMP JUMPDEST SWAP2 POP PUSH2 0x1578 DUP3 PUSH2 0x153E JUMP JUMPDEST SWAP2 POP DUP2 SWAP1 POP SWAP3 SWAP2 POP POP JUMP JUMPDEST PUSH32 0x78313D2200000000000000000000000000000000000000000000000000000000 PUSH1 0x0 DUP3 ADD MSTORE POP JUMP JUMPDEST PUSH1 0x0 PUSH2 0x15B9 PUSH1 0x4 DUP4 PUSH2 0x1355 JUMP JUMPDEST SWAP2 POP PUSH2 0x15C4 DUP3 PUSH2 0x1583 JUMP JUMPDEST PUSH1 0x4 DUP3 ADD SWAP1 POP SWAP2 SWAP1 POP JUMP JUMPDEST PUSH32 0x25222078323D2200000000000000000000000000000000000000000000000000 PUSH1 0x0 DUP3 ADD MSTORE POP JUMP JUMPDEST PUSH1 0x0 PUSH2 0x1605 PUSH1 0x7 DUP4 PUSH2 0x1355 JUMP JUMPDEST SWAP2 POP PUSH2 0x1610 DUP3 PUSH2 0x15CF JUMP JUMPDEST PUSH1 0x7 DUP3 ADD SWAP1 POP SWAP2 SWAP1 POP JUMP JUMPDEST PUSH32 0x25222079313D2200000000000000000000000000000000000000000000000000 PUSH1 0x0 DUP3 ADD MSTORE POP JUMP JUMPDEST PUSH1 0x0 PUSH2 0x1651 PUSH1 0x7 DUP4 PUSH2 0x1355 JUMP JUMPDEST SWAP2 POP PUSH2 0x165C DUP3 PUSH2 0x161B JUMP JUMPDEST PUSH1 0x7 DUP3 ADD SWAP1 POP SWAP2 SWAP1 POP JUMP JUMPDEST PUSH32 0x25222079323D2200000000000000000000000000000000000000000000000000 PUSH1 0x0 DUP3 ADD MSTORE POP JUMP JUMPDEST PUSH1 0x0 PUSH2 0x169D PUSH1 0x7 DUP4 PUSH2 0x1355 JUMP JUMPDEST SWAP2 POP PUSH2 0x16A8 DUP3 PUSH2 0x1667 JUMP JUMPDEST PUSH1 0x7 DUP3 ADD SWAP1 POP SWAP2 SWAP1 POP JUMP JUMPDEST PUSH32 0x2522000000000000000000000000000000000000000000000000000000000000 PUSH1 0x0 DUP3 ADD MSTORE POP JUMP JUMPDEST PUSH1 0x0 PUSH2 0x16E9 PUSH1 0x2 DUP4 PUSH2 0x1355 JUMP JUMPDEST SWAP2 POP PUSH2 0x16F4 DUP3 PUSH2 0x16B3 JUMP JUMPDEST PUSH1 0x2 DUP3 ADD SWAP1 POP SWAP2 SWAP1 POP JUMP JUMPDEST PUSH1 0x0 PUSH2 0x170A DUP3 PUSH2 0x15AC JUMP JUMPDEST SWAP2 POP PUSH2 0x1716 DUP3 DUP8 PUSH2 0x1360 JUMP JUMPDEST SWAP2 POP PUSH2 0x1721 DUP3 PUSH2 0x15F8 JUMP JUMPDEST SWAP2 POP PUSH2 0x172D DUP3 DUP7 PUSH2 0x1360 JUMP JUMPDEST SWAP2 POP PUSH2 0x1738 DUP3 PUSH2 0x1644 JUMP JUMPDEST SWAP2 POP PUSH2 0x1744 DUP3 DUP6 PUSH2 0x1360 JUMP JUMPDEST SWAP2 POP PUSH2 0x174F DUP3 PUSH2 0x1690 JUMP JUMPDEST SWAP2 POP PUSH2 0x175B DUP3 DUP5 PUSH2 0x1360 JUMP JUMPDEST SWAP2 POP PUSH2 0x1766 DUP3 PUSH2 0x16DC JUMP JUMPDEST SWAP2 POP DUP2 SWAP1 POP SWAP6 SWAP5 POP POP POP POP POP JUMP JUMPDEST PUSH32 0x3C6C696E6561724772616469656E742069643D22000000000000000000000000 PUSH1 0x0 DUP3 ADD MSTORE POP JUMP JUMPDEST PUSH1 0x0 PUSH2 0x17AA PUSH1 0x14 DUP4 PUSH2 0x1355 JUMP JUMPDEST SWAP2 POP PUSH2 0x17B5 DUP3 PUSH2 0x1774 JUMP JUMPDEST PUSH1 0x14 DUP3 ADD SWAP1 POP SWAP2 SWAP1 POP JUMP JUMPDEST PUSH1 0x0 PUSH2 0x17CB DUP3 PUSH2 0xC8B JUMP JUMPDEST PUSH2 0x17D5 DUP2 DUP6 PUSH2 0x1414 JUMP JUMPDEST SWAP4 POP PUSH2 0x17E5 DUP2 DUP6 PUSH1 0x20 DUP7 ADD PUSH2 0xCA7 JUMP JUMPDEST DUP1 DUP5 ADD SWAP2 POP POP SWAP3 SWAP2 POP POP JUMP JUMPDEST PUSH32 0x2220000000000000000000000000000000000000000000000000000000000000 PUSH1 0x0 DUP3 ADD MSTORE POP JUMP JUMPDEST PUSH1 0x0 PUSH2 0x1827 PUSH1 0x2 DUP4 PUSH2 0x1355 JUMP JUMPDEST SWAP2 POP PUSH2 0x1832 DUP3 PUSH2 0x17F1 JUMP JUMPDEST PUSH1 0x2 DUP3 ADD SWAP1 POP SWAP2 SWAP1 POP JUMP JUMPDEST PUSH32 0x3E00000000000000000000000000000000000000000000000000000000000000 PUSH1 0x0 DUP3 ADD MSTORE POP JUMP JUMPDEST PUSH1 0x0 PUSH2 0x1873 PUSH1 0x1 DUP4 PUSH2 0x1355 JUMP JUMPDEST SWAP2 POP PUSH2 0x187E DUP3 PUSH2 0x183D JUMP JUMPDEST PUSH1 0x1 DUP3 ADD SWAP1 POP SWAP2 SWAP1 POP JUMP JUMPDEST PUSH1 0x0 PUSH2 0x1894 DUP3 PUSH2 0x179D JUMP JUMPDEST SWAP2 POP PUSH2 0x18A0 DUP3 DUP7 PUSH2 0x17C0 JUMP JUMPDEST SWAP2 POP PUSH2 0x18AB DUP3 PUSH2 0x181A JUMP JUMPDEST SWAP2 POP PUSH2 0x18B7 DUP3 DUP6 PUSH2 0x17C0 JUMP JUMPDEST SWAP2 POP PUSH2 0x18C3 DUP3 DUP5 PUSH2 0x17C0 JUMP JUMPDEST SWAP2 POP PUSH2 0x18CE DUP3 PUSH2 0x1866 JUMP JUMPDEST SWAP2 POP DUP2 SWAP1 POP SWAP5 SWAP4 POP POP POP POP JUMP JUMPDEST PUSH32 0x4E487B7100000000000000000000000000000000000000000000000000000000 PUSH1 0x0 MSTORE PUSH1 0x11 PUSH1 0x4 MSTORE PUSH1 0x24 PUSH1 0x0 REVERT JUMPDEST PUSH1 0x0 PUSH2 0x1915 DUP3 PUSH2 0xE7D JUMP JUMPDEST SWAP2 POP PUSH2 0x1920 DUP4 PUSH2 0xE7D JUMP JUMPDEST SWAP3 POP DUP3 PUSH32 0xFFFFFFFFFFFFFFFFFFFFFFFFFFFFFFFFFFFFFFFFFFFFFFFFFFFFFFFFFFFFFFFF SUB DUP3 GT ISZERO PUSH2 0x1955 JUMPI PUSH2 0x1954 PUSH2 0x18DB JUMP JUMPDEST JUMPDEST DUP3 DUP3 ADD SWAP1 POP SWAP3 SWAP2 POP POP JUMP JUMPDEST PUSH32 0x3C73746F70206F66667365743D22000000000000000000000000000000000000 PUSH1 0x0 DUP3 ADD MSTORE POP JUMP JUMPDEST PUSH1 0x0 PUSH2 0x1996 PUSH1 0xE DUP4 PUSH2 0x1355 JUMP JUMPDEST SWAP2 POP PUSH2 0x19A1 DUP3 PUSH2 0x1960 JUMP JUMPDEST PUSH1 0xE DUP3 ADD SWAP1 POP SWAP2 SWAP1 POP JUMP JUMPDEST PUSH32 0x25222073746F702D636F6C6F723D220000000000000000000000000000000000 PUSH1 0x0 DUP3 ADD MSTORE POP JUMP JUMPDEST PUSH1 0x0 PUSH2 0x19E2 PUSH1 0xF DUP4 PUSH2 0x1355 JUMP JUMPDEST SWAP2 POP PUSH2 0x19ED DUP3 PUSH2 0x19AC JUMP JUMPDEST PUSH1 0xF DUP3 ADD SWAP1 POP SWAP2 SWAP1 POP JUMP JUMPDEST PUSH32 0x222069643D220000000000000000000000000000000000000000000000000000 PUSH1 0x0 DUP3 ADD MSTORE POP JUMP JUMPDEST PUSH1 0x0 PUSH2 0x1A2E PUSH1 0x6 DUP4 PUSH2 0x1355 JUMP JUMPDEST SWAP2 POP PUSH2 0x1A39 DUP3 PUSH2 0x19F8 JUMP JUMPDEST PUSH1 0x6 DUP3 ADD SWAP1 POP SWAP2 SWAP1 POP JUMP JUMPDEST PUSH32 0x222F3E0000000000000000000000000000000000000000000000000000000000 PUSH1 0x0 DUP3 ADD MSTORE POP JUMP JUMPDEST PUSH1 0x0 PUSH2 0x1A7A PUSH1 0x3 DUP4 PUSH2 0x1355 JUMP JUMPDEST SWAP2 POP PUSH2 0x1A85 DUP3 PUSH2 0x1A44 JUMP JUMPDEST PUSH1 0x3 DUP3 ADD SWAP1 POP SWAP2 SWAP1 POP JUMP JUMPDEST PUSH1 0x0 PUSH2 0x1A9C DUP3 DUP9 PUSH2 0x17C0 JUMP JUMPDEST SWAP2 POP PUSH2 0x1AA7 DUP3 PUSH2 0x1989 JUMP JUMPDEST SWAP2 POP PUSH2 0x1AB3 DUP3 DUP8 PUSH2 0x1360 JUMP JUMPDEST SWAP2 POP PUSH2 0x1ABE DUP3 PUSH2 0x19D5 JUMP JUMPDEST SWAP2 POP PUSH2 0x1ACA DUP3 DUP7 PUSH2 0x17C0 JUMP JUMPDEST SWAP2 POP PUSH2 0x1AD5 DUP3 PUSH2 0x1A21 JUMP JUMPDEST SWAP2 POP PUSH2 0x1AE1 DUP3 DUP6 PUSH2 0x17C0 JUMP JUMPDEST SWAP2 POP PUSH2 0x1AED DUP3 DUP5 PUSH2 0x1360 JUMP JUMPDEST SWAP2 POP PUSH2 0x1AF8 DUP3 PUSH2 0x1A6D JUMP JUMPDEST SWAP2 POP DUP2 SWAP1 POP SWAP7 SWAP6 POP POP POP POP POP POP JUMP JUMPDEST PUSH32 0x3C2F6C696E6561724772616469656E743E000000000000000000000000000000 PUSH1 0x0 DUP3 ADD MSTORE POP JUMP JUMPDEST PUSH1 0x0 PUSH2 0x1B3D PUSH1 0x11 DUP4 PUSH2 0x1355 JUMP JUMPDEST SWAP2 POP PUSH2 0x1B48 DUP3 PUSH2 0x1B07 JUMP JUMPDEST PUSH1 0x11 DUP3 ADD SWAP1 POP SWAP2 SWAP1 POP JUMP JUMPDEST PUSH1 0x0 PUSH2 0x1B5F DUP3 DUP5 PUSH2 0x17C0 JUMP JUMPDEST SWAP2 POP PUSH2 0x1B6A DUP3 PUSH2 0x1B30 JUMP JUMPDEST SWAP2 POP DUP2 SWAP1 POP SWAP3 SWAP2 POP POP JUMP JUMPDEST PUSH1 0x0 PUSH2 0x1B81 DUP3 DUP6 PUSH2 0x14D6 JUMP JUMPDEST PUSH1 0x1 DUP3 ADD SWAP2 POP PUSH2 0x1B91 DUP3 DUP5 PUSH2 0x17C0 JUMP JUMPDEST SWAP2 POP DUP2 SWAP1 POP SWAP4 SWAP3 POP POP POP JUMP JUMPDEST PUSH32 0x4E487B7100000000000000000000000000000000000000000000000000000000 PUSH1 0x0 MSTORE PUSH1 0x12 PUSH1 0x4 MSTORE PUSH1 0x24 PUSH1 0x0 REVERT JUMPDEST PUSH1 0x0 PUSH2 0x1BD7 DUP3 PUSH2 0xE7D JUMP JUMPDEST SWAP2 POP PUSH2 0x1BE2 DUP4 PUSH2 0xE7D JUMP JUMPDEST SWAP3 POP DUP3 PUSH2 0x1BF2 JUMPI PUSH2 0x1BF1 PUSH2 0x1B9D JUMP JUMPDEST JUMPDEST DUP3 DUP3 DIV SWAP1 POP SWAP3 SWAP2 POP POP JUMP JUMPDEST PUSH1 0x0 PUSH2 0x1C08 DUP3 PUSH2 0xE7D JUMP JUMPDEST SWAP2 POP PUSH2 0x1C13 DUP4 PUSH2 0xE7D JUMP JUMPDEST SWAP3 POP DUP3 DUP3 LT ISZERO PUSH2 0x1C26 JUMPI PUSH2 0x1C25 PUSH2 0x18DB JUMP JUMPDEST JUMPDEST DUP3 DUP3 SUB SWAP1 POP SWAP3 SWAP2 POP POP JUMP JUMPDEST PUSH1 0x0 PUSH2 0x1C3C DUP3 PUSH2 0xE7D JUMP JUMPDEST SWAP2 POP PUSH2 0x1C47 DUP4 PUSH2 0xE7D JUMP JUMPDEST SWAP3 POP DUP2 PUSH32 0xFFFFFFFFFFFFFFFFFFFFFFFFFFFFFFFFFFFFFFFFFFFFFFFFFFFFFFFFFFFFFFFF DIV DUP4 GT DUP3 ISZERO ISZERO AND ISZERO PUSH2 0x1C80 JUMPI PUSH2 0x1C7F PUSH2 0x18DB JUMP JUMPDEST JUMPDEST DUP3 DUP3 MUL SWAP1 POP SWAP3 SWAP2 POP POP JUMP JUMPDEST PUSH1 0x0 PUSH2 0x1C96 DUP3 PUSH2 0xF0F JUMP JUMPDEST SWAP2 POP PUSH2 0x1CA1 DUP4 PUSH2 0xF0F JUMP JUMPDEST SWAP3 POP DUP2 PUSH1 0xFF DIV DUP4 GT DUP3 ISZERO ISZERO AND ISZERO PUSH2 0x1CBB JUMPI PUSH2 0x1CBA PUSH2 0x18DB JUMP JUMPDEST JUMPDEST DUP3 DUP3 MUL SWAP1 POP SWAP3 SWAP2 POP POP JUMP JUMPDEST PUSH1 0x0 PUSH2 0x1CD1 DUP3 PUSH2 0xF0F JUMP JUMPDEST SWAP2 POP PUSH2 0x1CDC DUP4 PUSH2 0xF0F JUMP JUMPDEST SWAP3 POP DUP3 PUSH1 0xFF SUB DUP3 GT ISZERO PUSH2 0x1CF2 JUMPI PUSH2 0x1CF1 PUSH2 0x18DB JUMP JUMPDEST JUMPDEST DUP3 DUP3 ADD SWAP1 POP SWAP3 SWAP2 POP POP JUMP JUMPDEST PUSH1 0x0 PUSH2 0x1D09 DUP3 DUP10 PUSH2 0x17C0 JUMP JUMPDEST SWAP2 POP PUSH2 0x1D15 DUP3 DUP9 PUSH2 0x14D6 JUMP JUMPDEST PUSH1 0x1 DUP3 ADD SWAP2 POP PUSH2 0x1D25 DUP3 DUP8 PUSH2 0x14D6 JUMP JUMPDEST PUSH1 0x1 DUP3 ADD SWAP2 POP PUSH2 0x1D35 DUP3 DUP7 PUSH2 0x14D6 JUMP JUMPDEST PUSH1 0x1 DUP3 ADD SWAP2 POP PUSH2 0x1D45 DUP3 DUP6 PUSH2 0x14D6 JUMP JUMPDEST PUSH1 0x1 DUP3 ADD SWAP2 POP PUSH2 0x1D55 DUP3 DUP5 PUSH2 0x14D6 JUMP JUMPDEST PUSH1 0x1 DUP3 ADD SWAP2 POP DUP2 SWAP1 POP SWAP8 SWAP7 POP POP POP POP POP POP POP JUMP JUMPDEST PUSH1 0x0 PUSH2 0x1D74 DUP3 PUSH2 0xF0F JUMP JUMPDEST SWAP2 POP PUSH1 0xFF DUP3 SUB PUSH2 0x1D87 JUMPI PUSH2 0x1D86 PUSH2 0x18DB JUMP JUMPDEST JUMPDEST PUSH1 0x1 DUP3 ADD SWAP1 POP SWAP2 SWAP1 POP JUMP JUMPDEST PUSH32 0x7267626128000000000000000000000000000000000000000000000000000000 PUSH1 0x0 DUP3 ADD MSTORE POP JUMP JUMPDEST PUSH1 0x0 PUSH2 0x1DC8 PUSH1 0x5 DUP4 PUSH2 0x1355 JUMP JUMPDEST SWAP2 POP PUSH2 0x1DD3 DUP3 PUSH2 0x1D92 JUMP JUMPDEST PUSH1 0x5 DUP3 ADD SWAP1 POP SWAP2 SWAP1 POP JUMP JUMPDEST PUSH32 0x2C00000000000000000000000000000000000000000000000000000000000000 PUSH1 0x0 DUP3 ADD MSTORE POP JUMP JUMPDEST PUSH1 0x0 PUSH2 0x1E14 PUSH1 0x1 DUP4 PUSH2 0x1355 JUMP JUMPDEST SWAP2 POP PUSH2 0x1E1F DUP3 PUSH2 0x1DDE JUMP JUMPDEST PUSH1 0x1 DUP3 ADD SWAP1 POP SWAP2 SWAP1 POP JUMP JUMPDEST PUSH32 0x2529000000000000000000000000000000000000000000000000000000000000 PUSH1 0x0 DUP3 ADD MSTORE POP JUMP JUMPDEST PUSH1 0x0 PUSH2 0x1E60 PUSH1 0x2 DUP4 PUSH2 0x1355 JUMP JUMPDEST SWAP2 POP PUSH2 0x1E6B DUP3 PUSH2 0x1E2A JUMP JUMPDEST PUSH1 0x2 DUP3 ADD SWAP1 POP SWAP2 SWAP1 POP JUMP JUMPDEST PUSH1 0x0 PUSH2 0x1E81 DUP3 PUSH2 0x1DBB JUMP JUMPDEST SWAP2 POP PUSH2 0x1E8D DUP3 DUP8 PUSH2 0x1360 JUMP JUMPDEST SWAP2 POP PUSH2 0x1E98 DUP3 PUSH2 0x1E07 JUMP JUMPDEST SWAP2 POP PUSH2 0x1EA4 DUP3 DUP7 PUSH2 0x1360 JUMP JUMPDEST SWAP2 POP PUSH2 0x1EAF DUP3 PUSH2 0x1E07 JUMP JUMPDEST SWAP2 POP PUSH2 0x1EBB DUP3 DUP6 PUSH2 0x1360 JUMP JUMPDEST SWAP2 POP PUSH2 0x1EC6 DUP3 PUSH2 0x1E07 JUMP JUMPDEST SWAP2 POP PUSH2 0x1ED2 DUP3 DUP5 PUSH2 0x1360 JUMP JUMPDEST SWAP2 POP PUSH2 0x1EDD DUP3 PUSH2 0x1E53 JUMP JUMPDEST SWAP2 POP DUP2 SWAP1 POP SWAP6 SWAP5 POP POP POP POP POP JUMP JUMPDEST PUSH1 0x0 PUSH2 0x1EF6 DUP3 PUSH2 0xE7D JUMP JUMPDEST SWAP2 POP PUSH32 0xFFFFFFFFFFFFFFFFFFFFFFFFFFFFFFFFFFFFFFFFFFFFFFFFFFFFFFFFFFFFFFFF DUP3 SUB PUSH2 0x1F28 JUMPI PUSH2 0x1F27 PUSH2 0x18DB JUMP JUMPDEST JUMPDEST PUSH1 0x1 DUP3 ADD SWAP1 POP SWAP2 SWAP1 POP JUMP JUMPDEST PUSH1 0x0 PUSH2 0x1F3E DUP3 PUSH2 0xE7D JUMP JUMPDEST SWAP2 POP PUSH2 0x1F49 DUP4 PUSH2 0xE7D JUMP JUMPDEST SWAP3 POP DUP3 PUSH2 0x1F59 JUMPI PUSH2 0x1F58 PUSH2 0x1B9D JUMP JUMPDEST JUMPDEST DUP3 DUP3 MOD SWAP1 POP SWAP3 SWAP2 POP POP JUMP INVALID LOG2 PUSH5 0x6970667358 0x22 SLT KECCAK256 0xE6 PUSH25 0x11229760362C3868BCFE2138E3732F59356CC7CA35ADAA6D56 0xCF DUP14 MLOAD 0x29 LOG1 PUSH5 0x736F6C6343 STOP ADDMOD 0xF STOP CALLER "},"gasEstimates":{"creation":{"codeDepositCost":"1618000","executionCost":"infinite","totalCost":"infinite"},"external":{"autoLinearGradient(bytes,bytes,bytes)":"infinite","autoLinearGradient(bytes,bytes,bytes,bytes)":"infinite","byte2uint8(bytes,uint256)":"infinite","colors(string)":"infinite","getColor(string)":"infinite","getColor(string,uint8)":"infinite","getRgba(string)":"infinite","linearGradient(bytes,bytes,bytes)":"infinite","toRgba(bytes,uint256)":"infinite"},"internal":{"black_a(uint256)":"infinite","rgba(uint256,uint256,uint256,uint256)":"infinite","uint2str(uint256)":"infinite","white_a(uint256)":"infinite"}},"methodIdentifiers":{"autoLinearGradient(bytes,bytes,bytes)":"4b698358","autoLinearGradient(bytes,bytes,bytes,bytes)":"d6412c27","byte2uint8(bytes,uint256)":"5119ce4b","colors(string)":"40c629fe","getColor(string)":"b0187570","getColor(string,uint8)":"525f3654","getRgba(string)":"cde58910","linearGradient(bytes,bytes,bytes)":"cf0eca09","toRgba(bytes,uint256)":"e5d19e69"}},"storageLayout":{"storage":[{"astId":27,"contract":"@erc721k/periphery-sol/contracts/svg/SVGColor.sol:SVGColor","label":"colors","offset":0,"slot":"0","type":"t_mapping(t_string_memory_ptr,t_bytes_storage)"}],"types":{"t_bytes_storage":{"encoding":"bytes","label":"bytes","numberOfBytes":"32"},"t_mapping(t_string_memory_ptr,t_bytes_storage)":{"encoding":"mapping","key":"t_string_memory_ptr","label":"mapping(string => bytes)","numberOfBytes":"32","value":"t_bytes_storage"},"t_string_memory_ptr":{"encoding":"bytes","label":"string","numberOfBytes":"32"}}},"userdoc":{"kind":"user","methods":{},"version":1}}}}