{"@erc721k/periphery-sol/contracts/svg/SVGRegistry.sol":{"SVGRegistry":{"abi":[{"inputs":[],"stateMutability":"nonpayable","type":"constructor"},{"anonymous":false,"inputs":[{"indexed":true,"internalType":"address","name":"previousOwner","type":"address"},{"indexed":true,"internalType":"address","name":"newOwner","type":"address"}],"name":"OwnershipTransferred","type":"event"},{"inputs":[{"internalType":"bytes32","name":"widgetId","type":"bytes32"},{"internalType":"bytes","name":"input","type":"bytes"}],"name":"fetch","outputs":[{"internalType":"string","name":"","type":"string"}],"stateMutability":"view","type":"function"},{"inputs":[{"internalType":"bytes32","name":"widgetId","type":"bytes32"}],"name":"getWidget","outputs":[{"internalType":"address","name":"widget","type":"address"}],"stateMutability":"view","type":"function"},{"inputs":[],"name":"owner","outputs":[{"internalType":"address","name":"","type":"address"}],"stateMutability":"view","type":"function"},{"inputs":[],"name":"renounceOwnership","outputs":[],"stateMutability":"nonpayable","type":"function"},{"inputs":[{"internalType":"bytes32","name":"widgetId","type":"bytes32"},{"internalType":"address","name":"widget","type":"address"}],"name":"setWidget","outputs":[],"stateMutability":"nonpayable","type":"function"},{"inputs":[{"internalType":"address","name":"newOwner","type":"address"}],"name":"transferOwnership","outputs":[],"stateMutability":"nonpayable","type":"function"}],"devdoc":{"kind":"dev","methods":{"owner()":{"details":"Returns the address of the current owner."},"renounceOwnership()":{"details":"Leaves the contract without owner. It will not be possible to call `onlyOwner` functions anymore. Can only be called by the current owner. NOTE: Renouncing ownership will leave the contract without an owner, thereby removing any functionality that is only available to the owner."},"transferOwnership(address)":{"details":"Transfers ownership of the contract to a new account (`newOwner`). Can only be called by the current owner."}},"version":1},"evm":{"bytecode":{"linkReferences":{},"object":"608060405234801561001057600080fd5b5061002d61002261003260201b60201c565b61003a60201b60201c565b6100fe565b600033905090565b60008060009054906101000a900473ffffffffffffffffffffffffffffffffffffffff169050816000806101000a81548173ffffffffffffffffffffffffffffffffffffffff021916908373ffffffffffffffffffffffffffffffffffffffff1602179055508173ffffffffffffffffffffffffffffffffffffffff168173ffffffffffffffffffffffffffffffffffffffff167f8be0079c531659141344cd1fd0a4f28419497f9722a3daafe3b4186f6b6457e060405160405180910390a35050565b610b548061010d6000396000f3fe608060405234801561001057600080fd5b50600436106100625760003560e01c80631045b14e146100675780633a68f5db14610083578063715018a6146100b35780638da5cb5b146100bd578063e0d18500146100db578063f2fde38b1461010b575b600080fd5b610081600480360381019061007c91906105af565b610127565b005b61009d60048036038101906100989190610735565b610185565b6040516100aa9190610819565b60405180910390f35b6100bb6102c0565b005b6100c56102d4565b6040516100d2919061084a565b60405180910390f35b6100f560048036038101906100f09190610865565b6102fd565b604051610102919061084a565b60405180910390f35b61012560048036038101906101209190610892565b61033a565b005b61012f6103bd565b806001600084815260200190815260200160002060006101000a81548173ffffffffffffffffffffffffffffffffffffffff021916908373ffffffffffffffffffffffffffffffffffffffff1602179055505050565b6060600073ffffffffffffffffffffffffffffffffffffffff166001600085815260200190815260200160002060009054906101000a900473ffffffffffffffffffffffffffffffffffffffff1673ffffffffffffffffffffffffffffffffffffffff16146102a7576001600084815260200190815260200160002060009054906101000a900473ffffffffffffffffffffffffffffffffffffffff1673ffffffffffffffffffffffffffffffffffffffff1663e5c5e9a3836040518263ffffffff1660e01b815260040161025a9190610914565b600060405180830381865afa158015610277573d6000803e3d6000fd5b505050506040513d6000823e3d601f19601f820116820180604052508101906102a091906109d7565b90506102ba565b6040518060200160405280600081525090505b92915050565b6102c86103bd565b6102d2600061043b565b565b60008060009054906101000a900473ffffffffffffffffffffffffffffffffffffffff16905090565b60006001600083815260200190815260200160002060009054906101000a900473ffffffffffffffffffffffffffffffffffffffff169050919050565b6103426103bd565b600073ffffffffffffffffffffffffffffffffffffffff168173ffffffffffffffffffffffffffffffffffffffff16036103b1576040517f08c379a00000000000000000000000000000000000000000000000000000000081526004016103a890610a92565b60405180910390fd5b6103ba8161043b565b50565b6103c56104ff565b73ffffffffffffffffffffffffffffffffffffffff166103e36102d4565b73ffffffffffffffffffffffffffffffffffffffff1614610439576040517f08c379a000000000000000000000000000000000000000000000000000000000815260040161043090610afe565b60405180910390fd5b565b60008060009054906101000a900473ffffffffffffffffffffffffffffffffffffffff169050816000806101000a81548173ffffffffffffffffffffffffffffffffffffffff021916908373ffffffffffffffffffffffffffffffffffffffff1602179055508173ffffffffffffffffffffffffffffffffffffffff168173ffffffffffffffffffffffffffffffffffffffff167f8be0079c531659141344cd1fd0a4f28419497f9722a3daafe3b4186f6b6457e060405160405180910390a35050565b600033905090565b6000604051905090565b600080fd5b600080fd5b6000819050919050565b61052e8161051b565b811461053957600080fd5b50565b60008135905061054b81610525565b92915050565b600073ffffffffffffffffffffffffffffffffffffffff82169050919050565b600061057c82610551565b9050919050565b61058c81610571565b811461059757600080fd5b50565b6000813590506105a981610583565b92915050565b600080604083850312156105c6576105c5610511565b5b60006105d48582860161053c565b92505060206105e58582860161059a565b9150509250929050565b600080fd5b600080fd5b6000601f19601f8301169050919050565b7f4e487b7100000000000000000000000000000000000000000000000000000000600052604160045260246000fd5b610642826105f9565b810181811067ffffffffffffffff821117156106615761066061060a565b5b80604052505050565b6000610674610507565b90506106808282610639565b919050565b600067ffffffffffffffff8211156106a05761069f61060a565b5b6106a9826105f9565b9050602081019050919050565b82818337600083830152505050565b60006106d86106d384610685565b61066a565b9050828152602081018484840111156106f4576106f36105f4565b5b6106ff8482856106b6565b509392505050565b600082601f83011261071c5761071b6105ef565b5b813561072c8482602086016106c5565b91505092915050565b6000806040838503121561074c5761074b610511565b5b600061075a8582860161053c565b925050602083013567ffffffffffffffff81111561077b5761077a610516565b5b61078785828601610707565b9150509250929050565b600081519050919050565b600082825260208201905092915050565b60005b838110156107cb5780820151818401526020810190506107b0565b838111156107da576000848401525b50505050565b60006107eb82610791565b6107f5818561079c565b93506108058185602086016107ad565b61080e816105f9565b840191505092915050565b6000602082019050818103600083015261083381846107e0565b905092915050565b61084481610571565b82525050565b600060208201905061085f600083018461083b565b92915050565b60006020828403121561087b5761087a610511565b5b60006108898482850161053c565b91505092915050565b6000602082840312156108a8576108a7610511565b5b60006108b68482850161059a565b91505092915050565b600081519050919050565b600082825260208201905092915050565b60006108e6826108bf565b6108f081856108ca565b93506109008185602086016107ad565b610909816105f9565b840191505092915050565b6000602082019050818103600083015261092e81846108db565b905092915050565b600067ffffffffffffffff8211156109515761095061060a565b5b61095a826105f9565b9050602081019050919050565b600061097a61097584610936565b61066a565b905082815260208101848484011115610996576109956105f4565b5b6109a18482856107ad565b509392505050565b600082601f8301126109be576109bd6105ef565b5b81516109ce848260208601610967565b91505092915050565b6000602082840312156109ed576109ec610511565b5b600082015167ffffffffffffffff811115610a0b57610a0a610516565b5b610a17848285016109a9565b91505092915050565b7f4f776e61626c653a206e6577206f776e657220697320746865207a65726f206160008201527f6464726573730000000000000000000000000000000000000000000000000000602082015250565b6000610a7c60268361079c565b9150610a8782610a20565b604082019050919050565b60006020820190508181036000830152610aab81610a6f565b9050919050565b7f4f776e61626c653a2063616c6c6572206973206e6f7420746865206f776e6572600082015250565b6000610ae860208361079c565b9150610af382610ab2565b602082019050919050565b60006020820190508181036000830152610b1781610adb565b905091905056fea2646970667358221220e4860be5fbfb8b797b552225d133a9f3c9a2e0ae093898043223769ce4a9c60a64736f6c634300080f0033","opcodes":"PUSH1 0x80 PUSH1 0x40 MSTORE CALLVALUE DUP1 ISZERO PUSH2 0x10 JUMPI PUSH1 0x0 DUP1 REVERT JUMPDEST POP PUSH2 0x2D PUSH2 0x22 PUSH2 0x32 PUSH1 0x20 SHL PUSH1 0x20 SHR JUMP JUMPDEST PUSH2 0x3A PUSH1 0x20 SHL PUSH1 0x20 SHR JUMP JUMPDEST PUSH2 0xFE JUMP JUMPDEST PUSH1 0x0 CALLER SWAP1 POP SWAP1 JUMP JUMPDEST PUSH1 0x0 DUP1 PUSH1 0x0 SWAP1 SLOAD SWAP1 PUSH2 0x100 EXP SWAP1 DIV PUSH20 0xFFFFFFFFFFFFFFFFFFFFFFFFFFFFFFFFFFFFFFFF AND SWAP1 POP DUP2 PUSH1 0x0 DUP1 PUSH2 0x100 EXP DUP2 SLOAD DUP2 PUSH20 0xFFFFFFFFFFFFFFFFFFFFFFFFFFFFFFFFFFFFFFFF MUL NOT AND SWAP1 DUP4 PUSH20 0xFFFFFFFFFFFFFFFFFFFFFFFFFFFFFFFFFFFFFFFF AND MUL OR SWAP1 SSTORE POP DUP2 PUSH20 0xFFFFFFFFFFFFFFFFFFFFFFFFFFFFFFFFFFFFFFFF AND DUP2 PUSH20 0xFFFFFFFFFFFFFFFFFFFFFFFFFFFFFFFFFFFFFFFF AND PUSH32 0x8BE0079C531659141344CD1FD0A4F28419497F9722A3DAAFE3B4186F6B6457E0 PUSH1 0x40 MLOAD PUSH1 0x40 MLOAD DUP1 SWAP2 SUB SWAP1 LOG3 POP POP JUMP JUMPDEST PUSH2 0xB54 DUP1 PUSH2 0x10D PUSH1 0x0 CODECOPY PUSH1 0x0 RETURN INVALID PUSH1 0x80 PUSH1 0x40 MSTORE CALLVALUE DUP1 ISZERO PUSH2 0x10 JUMPI PUSH1 0x0 DUP1 REVERT JUMPDEST POP PUSH1 0x4 CALLDATASIZE LT PUSH2 0x62 JUMPI PUSH1 0x0 CALLDATALOAD PUSH1 0xE0 SHR DUP1 PUSH4 0x1045B14E EQ PUSH2 0x67 JUMPI DUP1 PUSH4 0x3A68F5DB EQ PUSH2 0x83 JUMPI DUP1 PUSH4 0x715018A6 EQ PUSH2 0xB3 JUMPI DUP1 PUSH4 0x8DA5CB5B EQ PUSH2 0xBD JUMPI DUP1 PUSH4 0xE0D18500 EQ PUSH2 0xDB JUMPI DUP1 PUSH4 0xF2FDE38B EQ PUSH2 0x10B JUMPI JUMPDEST PUSH1 0x0 DUP1 REVERT JUMPDEST PUSH2 0x81 PUSH1 0x4 DUP1 CALLDATASIZE SUB DUP2 ADD SWAP1 PUSH2 0x7C SWAP2 SWAP1 PUSH2 0x5AF JUMP JUMPDEST PUSH2 0x127 JUMP JUMPDEST STOP JUMPDEST PUSH2 0x9D PUSH1 0x4 DUP1 CALLDATASIZE SUB DUP2 ADD SWAP1 PUSH2 0x98 SWAP2 SWAP1 PUSH2 0x735 JUMP JUMPDEST PUSH2 0x185 JUMP JUMPDEST PUSH1 0x40 MLOAD PUSH2 0xAA SWAP2 SWAP1 PUSH2 0x819 JUMP JUMPDEST PUSH1 0x40 MLOAD DUP1 SWAP2 SUB SWAP1 RETURN JUMPDEST PUSH2 0xBB PUSH2 0x2C0 JUMP JUMPDEST STOP JUMPDEST PUSH2 0xC5 PUSH2 0x2D4 JUMP JUMPDEST PUSH1 0x40 MLOAD PUSH2 0xD2 SWAP2 SWAP1 PUSH2 0x84A JUMP JUMPDEST PUSH1 0x40 MLOAD DUP1 SWAP2 SUB SWAP1 RETURN JUMPDEST PUSH2 0xF5 PUSH1 0x4 DUP1 CALLDATASIZE SUB DUP2 ADD SWAP1 PUSH2 0xF0 SWAP2 SWAP1 PUSH2 0x865 JUMP JUMPDEST PUSH2 0x2FD JUMP JUMPDEST PUSH1 0x40 MLOAD PUSH2 0x102 SWAP2 SWAP1 PUSH2 0x84A JUMP JUMPDEST PUSH1 0x40 MLOAD DUP1 SWAP2 SUB SWAP1 RETURN JUMPDEST PUSH2 0x125 PUSH1 0x4 DUP1 CALLDATASIZE SUB DUP2 ADD SWAP1 PUSH2 0x120 SWAP2 SWAP1 PUSH2 0x892 JUMP JUMPDEST PUSH2 0x33A JUMP JUMPDEST STOP JUMPDEST PUSH2 0x12F PUSH2 0x3BD JUMP JUMPDEST DUP1 PUSH1 0x1 PUSH1 0x0 DUP5 DUP2 MSTORE PUSH1 0x20 ADD SWAP1 DUP2 MSTORE PUSH1 0x20 ADD PUSH1 0x0 KECCAK256 PUSH1 0x0 PUSH2 0x100 EXP DUP2 SLOAD DUP2 PUSH20 0xFFFFFFFFFFFFFFFFFFFFFFFFFFFFFFFFFFFFFFFF MUL NOT AND SWAP1 DUP4 PUSH20 0xFFFFFFFFFFFFFFFFFFFFFFFFFFFFFFFFFFFFFFFF AND MUL OR SWAP1 SSTORE POP POP POP JUMP JUMPDEST PUSH1 0x60 PUSH1 0x0 PUSH20 0xFFFFFFFFFFFFFFFFFFFFFFFFFFFFFFFFFFFFFFFF AND PUSH1 0x1 PUSH1 0x0 DUP6 DUP2 MSTORE PUSH1 0x20 ADD SWAP1 DUP2 MSTORE PUSH1 0x20 ADD PUSH1 0x0 KECCAK256 PUSH1 0x0 SWAP1 SLOAD SWAP1 PUSH2 0x100 EXP SWAP1 DIV PUSH20 0xFFFFFFFFFFFFFFFFFFFFFFFFFFFFFFFFFFFFFFFF AND PUSH20 0xFFFFFFFFFFFFFFFFFFFFFFFFFFFFFFFFFFFFFFFF AND EQ PUSH2 0x2A7 JUMPI PUSH1 0x1 PUSH1 0x0 DUP5 DUP2 MSTORE PUSH1 0x20 ADD SWAP1 DUP2 MSTORE PUSH1 0x20 ADD PUSH1 0x0 KECCAK256 PUSH1 0x0 SWAP1 SLOAD SWAP1 PUSH2 0x100 EXP SWAP1 DIV PUSH20 0xFFFFFFFFFFFFFFFFFFFFFFFFFFFFFFFFFFFFFFFF AND PUSH20 0xFFFFFFFFFFFFFFFFFFFFFFFFFFFFFFFFFFFFFFFF AND PUSH4 0xE5C5E9A3 DUP4 PUSH1 0x40 MLOAD DUP3 PUSH4 0xFFFFFFFF AND PUSH1 0xE0 SHL DUP2 MSTORE PUSH1 0x4 ADD PUSH2 0x25A SWAP2 SWAP1 PUSH2 0x914 JUMP JUMPDEST PUSH1 0x0 PUSH1 0x40 MLOAD DUP1 DUP4 SUB DUP2 DUP7 GAS STATICCALL ISZERO DUP1 ISZERO PUSH2 0x277 JUMPI RETURNDATASIZE PUSH1 0x0 DUP1 RETURNDATACOPY RETURNDATASIZE PUSH1 0x0 REVERT JUMPDEST POP POP POP POP PUSH1 0x40 MLOAD RETURNDATASIZE PUSH1 0x0 DUP3 RETURNDATACOPY RETURNDATASIZE PUSH1 0x1F NOT PUSH1 0x1F DUP3 ADD AND DUP3 ADD DUP1 PUSH1 0x40 MSTORE POP DUP2 ADD SWAP1 PUSH2 0x2A0 SWAP2 SWAP1 PUSH2 0x9D7 JUMP JUMPDEST SWAP1 POP PUSH2 0x2BA JUMP JUMPDEST PUSH1 0x40 MLOAD DUP1 PUSH1 0x20 ADD PUSH1 0x40 MSTORE DUP1 PUSH1 0x0 DUP2 MSTORE POP SWAP1 POP JUMPDEST SWAP3 SWAP2 POP POP JUMP JUMPDEST PUSH2 0x2C8 PUSH2 0x3BD JUMP JUMPDEST PUSH2 0x2D2 PUSH1 0x0 PUSH2 0x43B JUMP JUMPDEST JUMP JUMPDEST PUSH1 0x0 DUP1 PUSH1 0x0 SWAP1 SLOAD SWAP1 PUSH2 0x100 EXP SWAP1 DIV PUSH20 0xFFFFFFFFFFFFFFFFFFFFFFFFFFFFFFFFFFFFFFFF AND SWAP1 POP SWAP1 JUMP JUMPDEST PUSH1 0x0 PUSH1 0x1 PUSH1 0x0 DUP4 DUP2 MSTORE PUSH1 0x20 ADD SWAP1 DUP2 MSTORE PUSH1 0x20 ADD PUSH1 0x0 KECCAK256 PUSH1 0x0 SWAP1 SLOAD SWAP1 PUSH2 0x100 EXP SWAP1 DIV PUSH20 0xFFFFFFFFFFFFFFFFFFFFFFFFFFFFFFFFFFFFFFFF AND SWAP1 POP SWAP2 SWAP1 POP JUMP JUMPDEST PUSH2 0x342 PUSH2 0x3BD JUMP JUMPDEST PUSH1 0x0 PUSH20 0xFFFFFFFFFFFFFFFFFFFFFFFFFFFFFFFFFFFFFFFF AND DUP2 PUSH20 0xFFFFFFFFFFFFFFFFFFFFFFFFFFFFFFFFFFFFFFFF AND SUB PUSH2 0x3B1 JUMPI PUSH1 0x40 MLOAD PUSH32 0x8C379A000000000000000000000000000000000000000000000000000000000 DUP2 MSTORE PUSH1 0x4 ADD PUSH2 0x3A8 SWAP1 PUSH2 0xA92 JUMP JUMPDEST PUSH1 0x40 MLOAD DUP1 SWAP2 SUB SWAP1 REVERT JUMPDEST PUSH2 0x3BA DUP2 PUSH2 0x43B JUMP JUMPDEST POP JUMP JUMPDEST PUSH2 0x3C5 PUSH2 0x4FF JUMP JUMPDEST PUSH20 0xFFFFFFFFFFFFFFFFFFFFFFFFFFFFFFFFFFFFFFFF AND PUSH2 0x3E3 PUSH2 0x2D4 JUMP JUMPDEST PUSH20 0xFFFFFFFFFFFFFFFFFFFFFFFFFFFFFFFFFFFFFFFF AND EQ PUSH2 0x439 JUMPI PUSH1 0x40 MLOAD PUSH32 0x8C379A000000000000000000000000000000000000000000000000000000000 DUP2 MSTORE PUSH1 0x4 ADD PUSH2 0x430 SWAP1 PUSH2 0xAFE JUMP JUMPDEST PUSH1 0x40 MLOAD DUP1 SWAP2 SUB SWAP1 REVERT JUMPDEST JUMP JUMPDEST PUSH1 0x0 DUP1 PUSH1 0x0 SWAP1 SLOAD SWAP1 PUSH2 0x100 EXP SWAP1 DIV PUSH20 0xFFFFFFFFFFFFFFFFFFFFFFFFFFFFFFFFFFFFFFFF AND SWAP1 POP DUP2 PUSH1 0x0 DUP1 PUSH2 0x100 EXP DUP2 SLOAD DUP2 PUSH20 0xFFFFFFFFFFFFFFFFFFFFFFFFFFFFFFFFFFFFFFFF MUL NOT AND SWAP1 DUP4 PUSH20 0xFFFFFFFFFFFFFFFFFFFFFFFFFFFFFFFFFFFFFFFF AND MUL OR SWAP1 SSTORE POP DUP2 PUSH20 0xFFFFFFFFFFFFFFFFFFFFFFFFFFFFFFFFFFFFFFFF AND DUP2 PUSH20 0xFFFFFFFFFFFFFFFFFFFFFFFFFFFFFFFFFFFFFFFF AND PUSH32 0x8BE0079C531659141344CD1FD0A4F28419497F9722A3DAAFE3B4186F6B6457E0 PUSH1 0x40 MLOAD PUSH1 0x40 MLOAD DUP1 SWAP2 SUB SWAP1 LOG3 POP POP JUMP JUMPDEST PUSH1 0x0 CALLER SWAP1 POP SWAP1 JUMP JUMPDEST PUSH1 0x0 PUSH1 0x40 MLOAD SWAP1 POP SWAP1 JUMP JUMPDEST PUSH1 0x0 DUP1 REVERT JUMPDEST PUSH1 0x0 DUP1 REVERT JUMPDEST PUSH1 0x0 DUP2 SWAP1 POP SWAP2 SWAP1 POP JUMP JUMPDEST PUSH2 0x52E DUP2 PUSH2 0x51B JUMP JUMPDEST DUP2 EQ PUSH2 0x539 JUMPI PUSH1 0x0 DUP1 REVERT JUMPDEST POP JUMP JUMPDEST PUSH1 0x0 DUP2 CALLDATALOAD SWAP1 POP PUSH2 0x54B DUP2 PUSH2 0x525 JUMP JUMPDEST SWAP3 SWAP2 POP POP JUMP JUMPDEST PUSH1 0x0 PUSH20 0xFFFFFFFFFFFFFFFFFFFFFFFFFFFFFFFFFFFFFFFF DUP3 AND SWAP1 POP SWAP2 SWAP1 POP JUMP JUMPDEST PUSH1 0x0 PUSH2 0x57C DUP3 PUSH2 0x551 JUMP JUMPDEST SWAP1 POP SWAP2 SWAP1 POP JUMP JUMPDEST PUSH2 0x58C DUP2 PUSH2 0x571 JUMP JUMPDEST DUP2 EQ PUSH2 0x597 JUMPI PUSH1 0x0 DUP1 REVERT JUMPDEST POP JUMP JUMPDEST PUSH1 0x0 DUP2 CALLDATALOAD SWAP1 POP PUSH2 0x5A9 DUP2 PUSH2 0x583 JUMP JUMPDEST SWAP3 SWAP2 POP POP JUMP JUMPDEST PUSH1 0x0 DUP1 PUSH1 0x40 DUP4 DUP6 SUB SLT ISZERO PUSH2 0x5C6 JUMPI PUSH2 0x5C5 PUSH2 0x511 JUMP JUMPDEST JUMPDEST PUSH1 0x0 PUSH2 0x5D4 DUP6 DUP3 DUP7 ADD PUSH2 0x53C JUMP JUMPDEST SWAP3 POP POP PUSH1 0x20 PUSH2 0x5E5 DUP6 DUP3 DUP7 ADD PUSH2 0x59A JUMP JUMPDEST SWAP2 POP POP SWAP3 POP SWAP3 SWAP1 POP JUMP JUMPDEST PUSH1 0x0 DUP1 REVERT JUMPDEST PUSH1 0x0 DUP1 REVERT JUMPDEST PUSH1 0x0 PUSH1 0x1F NOT PUSH1 0x1F DUP4 ADD AND SWAP1 POP SWAP2 SWAP1 POP JUMP JUMPDEST PUSH32 0x4E487B7100000000000000000000000000000000000000000000000000000000 PUSH1 0x0 MSTORE PUSH1 0x41 PUSH1 0x4 MSTORE PUSH1 0x24 PUSH1 0x0 REVERT JUMPDEST PUSH2 0x642 DUP3 PUSH2 0x5F9 JUMP JUMPDEST DUP2 ADD DUP2 DUP2 LT PUSH8 0xFFFFFFFFFFFFFFFF DUP3 GT OR ISZERO PUSH2 0x661 JUMPI PUSH2 0x660 PUSH2 0x60A JUMP JUMPDEST JUMPDEST DUP1 PUSH1 0x40 MSTORE POP POP POP JUMP JUMPDEST PUSH1 0x0 PUSH2 0x674 PUSH2 0x507 JUMP JUMPDEST SWAP1 POP PUSH2 0x680 DUP3 DUP3 PUSH2 0x639 JUMP JUMPDEST SWAP2 SWAP1 POP JUMP JUMPDEST PUSH1 0x0 PUSH8 0xFFFFFFFFFFFFFFFF DUP3 GT ISZERO PUSH2 0x6A0 JUMPI PUSH2 0x69F PUSH2 0x60A JUMP JUMPDEST JUMPDEST PUSH2 0x6A9 DUP3 PUSH2 0x5F9 JUMP JUMPDEST SWAP1 POP PUSH1 0x20 DUP2 ADD SWAP1 POP SWAP2 SWAP1 POP JUMP JUMPDEST DUP3 DUP2 DUP4 CALLDATACOPY PUSH1 0x0 DUP4 DUP4 ADD MSTORE POP POP POP JUMP JUMPDEST PUSH1 0x0 PUSH2 0x6D8 PUSH2 0x6D3 DUP5 PUSH2 0x685 JUMP JUMPDEST PUSH2 0x66A JUMP JUMPDEST SWAP1 POP DUP3 DUP2 MSTORE PUSH1 0x20 DUP2 ADD DUP5 DUP5 DUP5 ADD GT ISZERO PUSH2 0x6F4 JUMPI PUSH2 0x6F3 PUSH2 0x5F4 JUMP JUMPDEST JUMPDEST PUSH2 0x6FF DUP5 DUP3 DUP6 PUSH2 0x6B6 JUMP JUMPDEST POP SWAP4 SWAP3 POP POP POP JUMP JUMPDEST PUSH1 0x0 DUP3 PUSH1 0x1F DUP4 ADD SLT PUSH2 0x71C JUMPI PUSH2 0x71B PUSH2 0x5EF JUMP JUMPDEST JUMPDEST DUP2 CALLDATALOAD PUSH2 0x72C DUP5 DUP3 PUSH1 0x20 DUP7 ADD PUSH2 0x6C5 JUMP JUMPDEST SWAP2 POP POP SWAP3 SWAP2 POP POP JUMP JUMPDEST PUSH1 0x0 DUP1 PUSH1 0x40 DUP4 DUP6 SUB SLT ISZERO PUSH2 0x74C JUMPI PUSH2 0x74B PUSH2 0x511 JUMP JUMPDEST JUMPDEST PUSH1 0x0 PUSH2 0x75A DUP6 DUP3 DUP7 ADD PUSH2 0x53C JUMP JUMPDEST SWAP3 POP POP PUSH1 0x20 DUP4 ADD CALLDATALOAD PUSH8 0xFFFFFFFFFFFFFFFF DUP2 GT ISZERO PUSH2 0x77B JUMPI PUSH2 0x77A PUSH2 0x516 JUMP JUMPDEST JUMPDEST PUSH2 0x787 DUP6 DUP3 DUP7 ADD PUSH2 0x707 JUMP JUMPDEST SWAP2 POP POP SWAP3 POP SWAP3 SWAP1 POP JUMP JUMPDEST PUSH1 0x0 DUP2 MLOAD SWAP1 POP SWAP2 SWAP1 POP JUMP JUMPDEST PUSH1 0x0 DUP3 DUP3 MSTORE PUSH1 0x20 DUP3 ADD SWAP1 POP SWAP3 SWAP2 POP POP JUMP JUMPDEST PUSH1 0x0 JUMPDEST DUP4 DUP2 LT ISZERO PUSH2 0x7CB JUMPI DUP1 DUP3 ADD MLOAD DUP2 DUP5 ADD MSTORE PUSH1 0x20 DUP2 ADD SWAP1 POP PUSH2 0x7B0 JUMP JUMPDEST DUP4 DUP2 GT ISZERO PUSH2 0x7DA JUMPI PUSH1 0x0 DUP5 DUP5 ADD MSTORE JUMPDEST POP POP POP POP JUMP JUMPDEST PUSH1 0x0 PUSH2 0x7EB DUP3 PUSH2 0x791 JUMP JUMPDEST PUSH2 0x7F5 DUP2 DUP6 PUSH2 0x79C JUMP JUMPDEST SWAP4 POP PUSH2 0x805 DUP2 DUP6 PUSH1 0x20 DUP7 ADD PUSH2 0x7AD JUMP JUMPDEST PUSH2 0x80E DUP2 PUSH2 0x5F9 JUMP JUMPDEST DUP5 ADD SWAP2 POP POP SWAP3 SWAP2 POP POP JUMP JUMPDEST PUSH1 0x0 PUSH1 0x20 DUP3 ADD SWAP1 POP DUP2 DUP2 SUB PUSH1 0x0 DUP4 ADD MSTORE PUSH2 0x833 DUP2 DUP5 PUSH2 0x7E0 JUMP JUMPDEST SWAP1 POP SWAP3 SWAP2 POP POP JUMP JUMPDEST PUSH2 0x844 DUP2 PUSH2 0x571 JUMP JUMPDEST DUP3 MSTORE POP POP JUMP JUMPDEST PUSH1 0x0 PUSH1 0x20 DUP3 ADD SWAP1 POP PUSH2 0x85F PUSH1 0x0 DUP4 ADD DUP5 PUSH2 0x83B JUMP JUMPDEST SWAP3 SWAP2 POP POP JUMP JUMPDEST PUSH1 0x0 PUSH1 0x20 DUP3 DUP5 SUB SLT ISZERO PUSH2 0x87B JUMPI PUSH2 0x87A PUSH2 0x511 JUMP JUMPDEST JUMPDEST PUSH1 0x0 PUSH2 0x889 DUP5 DUP3 DUP6 ADD PUSH2 0x53C JUMP JUMPDEST SWAP2 POP POP SWAP3 SWAP2 POP POP JUMP JUMPDEST PUSH1 0x0 PUSH1 0x20 DUP3 DUP5 SUB SLT ISZERO PUSH2 0x8A8 JUMPI PUSH2 0x8A7 PUSH2 0x511 JUMP JUMPDEST JUMPDEST PUSH1 0x0 PUSH2 0x8B6 DUP5 DUP3 DUP6 ADD PUSH2 0x59A JUMP JUMPDEST SWAP2 POP POP SWAP3 SWAP2 POP POP JUMP JUMPDEST PUSH1 0x0 DUP2 MLOAD SWAP1 POP SWAP2 SWAP1 POP JUMP JUMPDEST PUSH1 0x0 DUP3 DUP3 MSTORE PUSH1 0x20 DUP3 ADD SWAP1 POP SWAP3 SWAP2 POP POP JUMP JUMPDEST PUSH1 0x0 PUSH2 0x8E6 DUP3 PUSH2 0x8BF JUMP JUMPDEST PUSH2 0x8F0 DUP2 DUP6 PUSH2 0x8CA JUMP JUMPDEST SWAP4 POP PUSH2 0x900 DUP2 DUP6 PUSH1 0x20 DUP7 ADD PUSH2 0x7AD JUMP JUMPDEST PUSH2 0x909 DUP2 PUSH2 0x5F9 JUMP JUMPDEST DUP5 ADD SWAP2 POP POP SWAP3 SWAP2 POP POP JUMP JUMPDEST PUSH1 0x0 PUSH1 0x20 DUP3 ADD SWAP1 POP DUP2 DUP2 SUB PUSH1 0x0 DUP4 ADD MSTORE PUSH2 0x92E DUP2 DUP5 PUSH2 0x8DB JUMP JUMPDEST SWAP1 POP SWAP3 SWAP2 POP POP JUMP JUMPDEST PUSH1 0x0 PUSH8 0xFFFFFFFFFFFFFFFF DUP3 GT ISZERO PUSH2 0x951 JUMPI PUSH2 0x950 PUSH2 0x60A JUMP JUMPDEST JUMPDEST PUSH2 0x95A DUP3 PUSH2 0x5F9 JUMP JUMPDEST SWAP1 POP PUSH1 0x20 DUP2 ADD SWAP1 POP SWAP2 SWAP1 POP JUMP JUMPDEST PUSH1 0x0 PUSH2 0x97A PUSH2 0x975 DUP5 PUSH2 0x936 JUMP JUMPDEST PUSH2 0x66A JUMP JUMPDEST SWAP1 POP DUP3 DUP2 MSTORE PUSH1 0x20 DUP2 ADD DUP5 DUP5 DUP5 ADD GT ISZERO PUSH2 0x996 JUMPI PUSH2 0x995 PUSH2 0x5F4 JUMP JUMPDEST JUMPDEST PUSH2 0x9A1 DUP5 DUP3 DUP6 PUSH2 0x7AD JUMP JUMPDEST POP SWAP4 SWAP3 POP POP POP JUMP JUMPDEST PUSH1 0x0 DUP3 PUSH1 0x1F DUP4 ADD SLT PUSH2 0x9BE JUMPI PUSH2 0x9BD PUSH2 0x5EF JUMP JUMPDEST JUMPDEST DUP2 MLOAD PUSH2 0x9CE DUP5 DUP3 PUSH1 0x20 DUP7 ADD PUSH2 0x967 JUMP JUMPDEST SWAP2 POP POP SWAP3 SWAP2 POP POP JUMP JUMPDEST PUSH1 0x0 PUSH1 0x20 DUP3 DUP5 SUB SLT ISZERO PUSH2 0x9ED JUMPI PUSH2 0x9EC PUSH2 0x511 JUMP JUMPDEST JUMPDEST PUSH1 0x0 DUP3 ADD MLOAD PUSH8 0xFFFFFFFFFFFFFFFF DUP2 GT ISZERO PUSH2 0xA0B JUMPI PUSH2 0xA0A PUSH2 0x516 JUMP JUMPDEST JUMPDEST PUSH2 0xA17 DUP5 DUP3 DUP6 ADD PUSH2 0x9A9 JUMP JUMPDEST SWAP2 POP POP SWAP3 SWAP2 POP POP JUMP JUMPDEST PUSH32 0x4F776E61626C653A206E6577206F776E657220697320746865207A65726F2061 PUSH1 0x0 DUP3 ADD MSTORE PUSH32 0x6464726573730000000000000000000000000000000000000000000000000000 PUSH1 0x20 DUP3 ADD MSTORE POP JUMP JUMPDEST PUSH1 0x0 PUSH2 0xA7C PUSH1 0x26 DUP4 PUSH2 0x79C JUMP JUMPDEST SWAP2 POP PUSH2 0xA87 DUP3 PUSH2 0xA20 JUMP JUMPDEST PUSH1 0x40 DUP3 ADD SWAP1 POP SWAP2 SWAP1 POP JUMP JUMPDEST PUSH1 0x0 PUSH1 0x20 DUP3 ADD SWAP1 POP DUP2 DUP2 SUB PUSH1 0x0 DUP4 ADD MSTORE PUSH2 0xAAB DUP2 PUSH2 0xA6F JUMP JUMPDEST SWAP1 POP SWAP2 SWAP1 POP JUMP JUMPDEST PUSH32 0x4F776E61626C653A2063616C6C6572206973206E6F7420746865206F776E6572 PUSH1 0x0 DUP3 ADD MSTORE POP JUMP JUMPDEST PUSH1 0x0 PUSH2 0xAE8 PUSH1 0x20 DUP4 PUSH2 0x79C JUMP JUMPDEST SWAP2 POP PUSH2 0xAF3 DUP3 PUSH2 0xAB2 JUMP JUMPDEST PUSH1 0x20 DUP3 ADD SWAP1 POP SWAP2 SWAP1 POP JUMP JUMPDEST PUSH1 0x0 PUSH1 0x20 DUP3 ADD SWAP1 POP DUP2 DUP2 SUB PUSH1 0x0 DUP4 ADD MSTORE PUSH2 0xB17 DUP2 PUSH2 0xADB JUMP JUMPDEST SWAP1 POP SWAP2 SWAP1 POP JUMP INVALID LOG2 PUSH5 0x6970667358 0x22 SLT KECCAK256 0xE4 DUP7 SIGNEXTEND 0xE5 0xFB 0xFB DUP12 PUSH26 0x7B552225D133A9F3C9A2E0AE093898043223769CE4A9C60A6473 PUSH16 0x6C634300080F00330000000000000000 "},"gasEstimates":{"creation":{"codeDepositCost":"580000","executionCost":"infinite","totalCost":"infinite"},"external":{"fetch(bytes32,bytes)":"infinite","getWidget(bytes32)":"1631","owner()":"1266","renounceOwnership()":"24420","setWidget(bytes32,address)":"22515","transferOwnership(address)":"24832"}},"methodIdentifiers":{"fetch(bytes32,bytes)":"3a68f5db","getWidget(bytes32)":"e0d18500","owner()":"8da5cb5b","renounceOwnership()":"715018a6","setWidget(bytes32,address)":"1045b14e","transferOwnership(address)":"f2fde38b"}},"storageLayout":{"storage":[{"astId":1691,"contract":"@erc721k/periphery-sol/contracts/svg/SVGRegistry.sol:SVGRegistry","label":"_owner","offset":0,"slot":"0","type":"t_address"},{"astId":813,"contract":"@erc721k/periphery-sol/contracts/svg/SVGRegistry.sol:SVGRegistry","label":"_modules","offset":0,"slot":"1","type":"t_mapping(t_bytes32,t_address)"}],"types":{"t_address":{"encoding":"inplace","label":"address","numberOfBytes":"20"},"t_bytes32":{"encoding":"inplace","label":"bytes32","numberOfBytes":"32"},"t_mapping(t_bytes32,t_address)":{"encoding":"mapping","key":"t_bytes32","label":"mapping(bytes32 => address)","numberOfBytes":"32","value":"t_address"}}},"userdoc":{"kind":"user","methods":{},"version":1}}}}