{"@web3-savings-cards/core-sol/contracts/rendering/PoolTogetherV0Render.sol":{"PoolTogetherV0Render":{"abi":[{"inputs":[{"internalType":"address","name":"svgLibrary_","type":"address"},{"internalType":"address","name":"svgRegistry_","type":"address"}],"stateMutability":"nonpayable","type":"constructor"},{"anonymous":false,"inputs":[{"indexed":true,"internalType":"address","name":"previousOwner","type":"address"},{"indexed":true,"internalType":"address","name":"newOwner","type":"address"}],"name":"OwnershipTransferred","type":"event"},{"inputs":[],"name":"owner","outputs":[{"internalType":"address","name":"","type":"address"}],"stateMutability":"view","type":"function"},{"inputs":[{"internalType":"bytes","name":"input","type":"bytes"}],"name":"render","outputs":[{"internalType":"string","name":"","type":"string"}],"stateMutability":"view","type":"function"},{"inputs":[],"name":"renounceOwnership","outputs":[],"stateMutability":"nonpayable","type":"function"},{"inputs":[],"name":"svgLibrary","outputs":[{"internalType":"address","name":"","type":"address"}],"stateMutability":"view","type":"function"},{"inputs":[],"name":"svgRegistry","outputs":[{"internalType":"address","name":"","type":"address"}],"stateMutability":"view","type":"function"},{"inputs":[{"internalType":"address","name":"newOwner","type":"address"}],"name":"transferOwnership","outputs":[],"stateMutability":"nonpayable","type":"function"}],"devdoc":{"kind":"dev","methods":{"owner()":{"details":"Returns the address of the current owner."},"renounceOwnership()":{"details":"Leaves the contract without owner. It will not be possible to call `onlyOwner` functions anymore. Can only be called by the current owner. NOTE: Renouncing ownership will leave the contract without an owner, thereby removing any functionality that is only available to the owner."},"transferOwnership(address)":{"details":"Transfers ownership of the contract to a new account (`newOwner`). Can only be called by the current owner."}},"version":1},"evm":{"bytecode":{"linkReferences":{},"object":"60806040523480156200001157600080fd5b50604051620048ec380380620048ec833981810160405281019062000037919062000217565b620000576200004b620000e160201b60201c565b620000e960201b60201c565b81600160006101000a81548173ffffffffffffffffffffffffffffffffffffffff021916908373ffffffffffffffffffffffffffffffffffffffff16021790555080600260006101000a81548173ffffffffffffffffffffffffffffffffffffffff021916908373ffffffffffffffffffffffffffffffffffffffff16021790555050506200025e565b600033905090565b60008060009054906101000a900473ffffffffffffffffffffffffffffffffffffffff169050816000806101000a81548173ffffffffffffffffffffffffffffffffffffffff021916908373ffffffffffffffffffffffffffffffffffffffff1602179055508173ffffffffffffffffffffffffffffffffffffffff168173ffffffffffffffffffffffffffffffffffffffff167f8be0079c531659141344cd1fd0a4f28419497f9722a3daafe3b4186f6b6457e060405160405180910390a35050565b600080fd5b600073ffffffffffffffffffffffffffffffffffffffff82169050919050565b6000620001df82620001b2565b9050919050565b620001f181620001d2565b8114620001fd57600080fd5b50565b6000815190506200021181620001e6565b92915050565b60008060408385031215620002315762000230620001ad565b5b6000620002418582860162000200565b9250506020620002548582860162000200565b9150509250929050565b61467e806200026e6000396000f3fe608060405234801561001057600080fd5b50600436106100625760003560e01c8063316df61e14610067578063715018a6146100975780638da5cb5b146100a1578063933d9eb5146100bf578063a001e0d5146100dd578063f2fde38b146100fb575b600080fd5b610081600480360381019061007c91906130f7565b610117565b60405161008e91906131c8565b60405180910390f35b61009f610187565b005b6100a961019b565b6040516100b6919061322b565b60405180910390f35b6100c76101c4565b6040516100d4919061322b565b60405180910390f35b6100e56101ea565b6040516100f2919061322b565b60405180910390f35b61011560048036038101906101109190613272565b610210565b005b60606040518060400160405280601b81526020017f646174613a696d6167652f7376672b786d6c3b6261736536342c20000000000081525061016061015b84610293565b6106ce565b6040516020016101719291906132db565b6040516020818303038152906040529050919050565b61018f610846565b61019960006108c4565b565b60008060009054906101000a900473ffffffffffffffffffffffffffffffffffffffff16905090565b600260009054906101000a900473ffffffffffffffffffffffffffffffffffffffff1681565b600160009054906101000a900473ffffffffffffffffffffffffffffffffffffffff1681565b610218610846565b600073ffffffffffffffffffffffffffffffffffffffff168173ffffffffffffffffffffffffffffffffffffffff1603610287576040517f08c379a000000000000000000000000000000000000000000000000000000000815260040161027e90613371565b60405180910390fd5b610290816108c4565b50565b60606000806000806000806000806000808b8060200190518101906102b891906134dc565b995099509950995099509950995099509950995060006040518060400160405280601481526020017f5765623320536176696e6773204e6574776f726b000000000000000000000000815250905061050061037d6040518060400160405280600181526020017f78000000000000000000000000000000000000000000000000000000000000008152506040518060400160405280600a81526020017f302e303031393533313200000000000000000000000000000000000000000000815250610988565b6103f16040518060400160405280600581526020017f77696474680000000000000000000000000000000000000000000000000000008152506040518060400160405280600381526020017f3530300000000000000000000000000000000000000000000000000000000000815250610988565b6104656040518060400160405280600681526020017f68656967687400000000000000000000000000000000000000000000000000008152506040518060400160405280600381526020017f3330300000000000000000000000000000000000000000000000000000000000815250610988565b6104d96040518060400160405280600481526020017f66696c6c000000000000000000000000000000000000000000000000000000008152506040518060400160405280601b81526020017f75726c28237061696e74305f6c696e6561725f3231335f383630290000000000815250610988565b6040516020016104ec94939291906135d7565b6040516020818303038152906040526109b4565b6106856105776040518060400160405280600181526020017f78000000000000000000000000000000000000000000000000000000000000008152506040518060400160405280600181526020017f3000000000000000000000000000000000000000000000000000000000000000815250610988565b6105eb6040518060400160405280600581526020017f77696474680000000000000000000000000000000000000000000000000000008152506040518060400160405280600381526020017f3530300000000000000000000000000000000000000000000000000000000000815250610988565b61065f6040518060400160405280600681526020017f68656967687400000000000000000000000000000000000000000000000000008152506040518060400160405280600381526020017f3530300000000000000000000000000000000000000000000000000000000000815250610988565b60405160200161067193929190613615565b6040516020818303038152906040526109b4565b61068e8a6109fc565b61069a8e8a8887610a36565b6040516020016106ad94939291906139d9565b6040516020818303038152906040529b505050505050505050505050919050565b606060008251036106f057604051806020016040528060008152509050610841565b6000604051806060016040528060408152602001614609604091399050600060036002855161071f9190613a76565b6107299190613afb565b60046107359190613b2c565b905060006020826107469190613a76565b67ffffffffffffffff81111561075f5761075e612fcc565b5b6040519080825280601f01601f1916602001820160405280156107915781602001600182028036833780820191505090505b509050818152600183018586518101602084015b81831015610800576003830192508251603f8160121c168501518253600182019150603f81600c1c168501518253600182019150603f8160061c168501518253600182019150603f81168501518253600182019150506107a5565b60038951066001811461081a576002811461082a57610835565b613d3d60f01b6002830352610835565b603d60f81b60018303525b50505050508093505050505b919050565b61084e610a7f565b73ffffffffffffffffffffffffffffffffffffffff1661086c61019b565b73ffffffffffffffffffffffffffffffffffffffff16146108c2576040517f08c379a00000000000000000000000000000000000000000000000000000000081526004016108b990613bd2565b60405180910390fd5b565b60008060009054906101000a900473ffffffffffffffffffffffffffffffffffffffff169050816000806101000a81548173ffffffffffffffffffffffffffffffffffffffff021916908373ffffffffffffffffffffffffffffffffffffffff1602179055508173ffffffffffffffffffffffffffffffffffffffff168173ffffffffffffffffffffffffffffffffffffffff167f8be0079c531659141344cd1fd0a4f28419497f9722a3daafe3b4186f6b6457e060405160405180910390a35050565b6060828260405160200161099d929190613c64565b604051602081830303815290604052905092915050565b60606109f56040518060400160405280600481526020017f726563740000000000000000000000000000000000000000000000000000000081525083610a87565b9050919050565b6060610a0782610ab3565b610a0f6110ee565b604051602001610a209291906132db565b6040516020818303038152906040529050919050565b6060610a4385848461121e565b610a4b611b76565b610a548661217e565b604051602001610a6693929190613615565b6040516020818303038152906040529050949350505050565b600033905090565b60608282604051602001610a9c929190613d27565b604051602081830303815290604052905092915050565b6060610db7610b2c6040518060400160405280600181526020017f78000000000000000000000000000000000000000000000000000000000000008152506040518060400160405280600481526020017f372e352500000000000000000000000000000000000000000000000000000000815250610988565b610ba06040518060400160405280600181526020017f79000000000000000000000000000000000000000000000000000000000000008152506040518060400160405280600481526020017f36322e3500000000000000000000000000000000000000000000000000000000815250610988565b610c146040518060400160405280600981526020017f666f6e742d73697a6500000000000000000000000000000000000000000000008152506040518060400160405280600281526020017f3138000000000000000000000000000000000000000000000000000000000000815250610988565b610c886040518060400160405280601281526020017f616c69676e6d656e742d626173656c696e6500000000000000000000000000008152506040518060400160405280600681526020017f6d6964646c650000000000000000000000000000000000000000000000000000815250610988565b610cfc6040518060400160405280600b81526020017f746578742d616e63686f720000000000000000000000000000000000000000008152506040518060400160405280600581526020017f7374617274000000000000000000000000000000000000000000000000000000815250610988565b610d706040518060400160405280600481526020017f66696c6c000000000000000000000000000000000000000000000000000000008152506040518060400160405280600581526020017f7768697465000000000000000000000000000000000000000000000000000000815250610988565b604051602001610d8596959493929190613d78565b604051602081830303815290604052604051602001610da390613e1c565b6040516020818303038152906040526127d1565b6110c7610e2e6040518060400160405280600181526020017f78000000000000000000000000000000000000000000000000000000000000008152506040518060400160405280600481526020017f372e352500000000000000000000000000000000000000000000000000000000815250610988565b610ea26040518060400160405280600181526020017f79000000000000000000000000000000000000000000000000000000000000008152506040518060400160405280600381526020017f3130300000000000000000000000000000000000000000000000000000000000815250610988565b610f166040518060400160405280600981526020017f666f6e742d73697a6500000000000000000000000000000000000000000000008152506040518060400160405280600281526020017f3332000000000000000000000000000000000000000000000000000000000000815250610988565b610f8a6040518060400160405280601281526020017f616c69676e6d656e742d626173656c696e6500000000000000000000000000008152506040518060400160405280600681526020017f6d6964646c650000000000000000000000000000000000000000000000000000815250610988565b610ffe6040518060400160405280600b81526020017f746578742d616e63686f720000000000000000000000000000000000000000008152506040518060400160405280600581526020017f7374617274000000000000000000000000000000000000000000000000000000815250610988565b6110726040518060400160405280600481526020017f66696c6c000000000000000000000000000000000000000000000000000000008152506040518060400160405280600581526020017f7768697465000000000000000000000000000000000000000000000000000000815250610988565b60405160200161108796959493929190613d78565b6040516020818303038152906040526110a3856006600261281b565b6040516020016110b39190613e6a565b6040516020818303038152906040526127d1565b6040516020016110d89291906132db565b6040516020818303038152906040529050919050565b60606111fa6111676040518060400160405280600981526020017f7472616e73666f726d00000000000000000000000000000000000000000000008152506040518060400160405280601181526020017f7472616e736c617465283335302c333029000000000000000000000000000000815250610988565b6040516020016111779190613e90565b6040516020818303038152906040526111f57f574542335f41535345545300000000000000000000000000000000000000000060001b7f4c4f474f5f504f4f4c000000000000000000000000000000000000000000000060001b6040516020016111e19190613eb6565b6040516020818303038152906040526128ca565b612977565b60405160200161120a9190613e90565b604051602081830303815290604052905090565b60606115056112976040518060400160405280600181526020017f78000000000000000000000000000000000000000000000000000000000000008152506040518060400160405280600481526020017f372e352500000000000000000000000000000000000000000000000000000000815250610988565b61130b6040518060400160405280600181526020017f79000000000000000000000000000000000000000000000000000000000000008152506040518060400160405280600581526020017f36372e3525000000000000000000000000000000000000000000000000000000815250610988565b61137f6040518060400160405280600981526020017f666f6e742d73697a6500000000000000000000000000000000000000000000008152506040518060400160405280600281526020017f3234000000000000000000000000000000000000000000000000000000000000815250610988565b6113f36040518060400160405280601281526020017f616c69676e6d656e742d626173656c696e6500000000000000000000000000008152506040518060400160405280600681526020017f6d6964646c650000000000000000000000000000000000000000000000000000815250610988565b6114676040518060400160405280600b81526020017f746578742d616e63686f720000000000000000000000000000000000000000008152506040518060400160405280600581526020017f7374617274000000000000000000000000000000000000000000000000000000815250610988565b6114db6040518060400160405280600481526020017f66696c6c000000000000000000000000000000000000000000000000000000008152506040518060400160405280600581526020017f7768697465000000000000000000000000000000000000000000000000000000815250610988565b6040516020016114f096959493929190613d78565b604051602081830303815290604052846127d1565b6117f261157c6040518060400160405280600181526020017f78000000000000000000000000000000000000000000000000000000000000008152506040518060400160405280600481526020017f372e352500000000000000000000000000000000000000000000000000000000815250610988565b6115f06040518060400160405280600181526020017f79000000000000000000000000000000000000000000000000000000000000008152506040518060400160405280600581526020017f37372e3525000000000000000000000000000000000000000000000000000000815250610988565b6116646040518060400160405280600981526020017f666f6e742d73697a6500000000000000000000000000000000000000000000008152506040518060400160405280600281526020017f3238000000000000000000000000000000000000000000000000000000000000815250610988565b6116d86040518060400160405280601281526020017f616c69676e6d656e742d626173656c696e6500000000000000000000000000008152506040518060400160405280600681526020017f6d6964646c650000000000000000000000000000000000000000000000000000815250610988565b61174c6040518060400160405280600b81526020017f746578742d616e63686f720000000000000000000000000000000000000000008152506040518060400160405280600581526020017f7374617274000000000000000000000000000000000000000000000000000000815250610988565b6117c06040518060400160405280600481526020017f66696c6c000000000000000000000000000000000000000000000000000000008152506040518060400160405280600581526020017f7768697465000000000000000000000000000000000000000000000000000000815250610988565b6040516020016117d596959493929190613d78565b6040516020818303038152906040526117ed876129c1565b6127d1565b611b4c6118696040518060400160405280600181526020017f78000000000000000000000000000000000000000000000000000000000000008152506040518060400160405280600481526020017f372e352500000000000000000000000000000000000000000000000000000000815250610988565b6118dd6040518060400160405280600181526020017f79000000000000000000000000000000000000000000000000000000000000008152506040518060400160405280600581526020017f38372e3525000000000000000000000000000000000000000000000000000000815250610988565b6119516040518060400160405280600981526020017f666f6e742d73697a6500000000000000000000000000000000000000000000008152506040518060400160405280600281526020017f3134000000000000000000000000000000000000000000000000000000000000815250610988565b6119c56040518060400160405280600b81526020017f666f6e742d7765696768740000000000000000000000000000000000000000008152506040518060400160405280600381526020017f3330300000000000000000000000000000000000000000000000000000000000815250610988565b611a396040518060400160405280601281526020017f616c69676e6d656e742d626173656c696e6500000000000000000000000000008152506040518060400160405280600681526020017f6d6964646c650000000000000000000000000000000000000000000000000000815250610988565b611aad6040518060400160405280600b81526020017f746578742d616e63686f720000000000000000000000000000000000000000008152506040518060400160405280600581526020017f7374617274000000000000000000000000000000000000000000000000000000815250610988565b611b216040518060400160405280600481526020017f66696c6c000000000000000000000000000000000000000000000000000000008152506040518060400160405280600581526020017f7768697465000000000000000000000000000000000000000000000000000000815250610988565b604051602001611b379796959493929190613ed1565b604051602081830303815290604052856127d1565b604051602001611b5e93929190613615565b60405160208183030381529060405290509392505050565b60606000606060014603611be7576040518060400160405280600881526020017f457468657265756d00000000000000000000000000000000000000000000000081525090507f49434f4e5f4e4554574f524b5f455448455245554d000000000000000000000060001b9150611d8b565b600a4603611c52576040518060400160405280600881526020017f4f7074696d69736d00000000000000000000000000000000000000000000000081525090507f49434f4e5f4e4554574f524b5f4f5054494d49534d000000000000000000000060001b9150611d8a565b60894603611cbd576040518060400160405280600781526020017f506f6c79676f6e0000000000000000000000000000000000000000000000000081525090507f49434f4e5f4e4554574f524b5f504f4c59474f4e00000000000000000000000060001b9150611d89565b61a4b14603611d29576040518060400160405280600881526020017f417262697472756d00000000000000000000000000000000000000000000000081525090507f49434f4e5f4e4554574f524b5f415242495452554d000000000000000000000060001b9150611d88565b6040518060400160405280600781526020017f556e6b6e6f776e0000000000000000000000000000000000000000000000000081525090507f49434f4e5f4e4554574f524b5f5445535400000000000000000000000000000060001b91505b5b5b5b612070611e026040518060400160405280600181526020017f78000000000000000000000000000000000000000000000000000000000000008152506040518060400160405280600381526020017f3835250000000000000000000000000000000000000000000000000000000000815250610988565b611e766040518060400160405280600181526020017f79000000000000000000000000000000000000000000000000000000000000008152506040518060400160405280600381526020017f3830250000000000000000000000000000000000000000000000000000000000815250610988565b611eea6040518060400160405280600981526020017f666f6e742d73697a6500000000000000000000000000000000000000000000008152506040518060400160405280600281526020017f3138000000000000000000000000000000000000000000000000000000000000815250610988565b611f5e6040518060400160405280601281526020017f616c69676e6d656e742d626173656c696e6500000000000000000000000000008152506040518060400160405280600681526020017f6d6964646c650000000000000000000000000000000000000000000000000000815250610988565b611fd26040518060400160405280600b81526020017f746578742d616e63686f720000000000000000000000000000000000000000008152506040518060400160405280600381526020017f656e640000000000000000000000000000000000000000000000000000000000815250610988565b6120466040518060400160405280600481526020017f66696c6c000000000000000000000000000000000000000000000000000000008152506040518060400160405280600581526020017f7768697465000000000000000000000000000000000000000000000000000000815250610988565b60405160200161205b96959493929190613d78565b604051602081830303815290604052826127d1565b6121576120e76040518060400160405280600981526020017f7472616e73666f726d00000000000000000000000000000000000000000000008152506040518060400160405280601281526020017f7472616e736c617465283434302c323235290000000000000000000000000000815250610988565b6040516020016120f79190613e90565b6040516020818303038152906040526121527f574542335f41535345545300000000000000000000000000000000000000000060001b8660405160200161213e9190613eb6565b6040516020818303038152906040526128ca565b612977565b6040516020016121689291906132db565b6040516020818303038152906040529250505090565b606061249a6121f76040518060400160405280600181526020017f78000000000000000000000000000000000000000000000000000000000000008152506040518060400160405280600381526020017f3935250000000000000000000000000000000000000000000000000000000000815250610988565b61226b6040518060400160405280600181526020017f79000000000000000000000000000000000000000000000000000000000000008152506040518060400160405280600381526020017f3530250000000000000000000000000000000000000000000000000000000000815250610988565b6122df6040518060400160405280600981526020017f666f6e742d73697a6500000000000000000000000000000000000000000000008152506040518060400160405280600281526020017f3134000000000000000000000000000000000000000000000000000000000000815250610988565b6123536040518060400160405280601281526020017f616c69676e6d656e742d626173656c696e6500000000000000000000000000008152506040518060400160405280600681526020017f6d6964646c650000000000000000000000000000000000000000000000000000815250610988565b6123c76040518060400160405280600b81526020017f746578742d616e63686f720000000000000000000000000000000000000000008152506040518060400160405280600381526020017f656e640000000000000000000000000000000000000000000000000000000000815250610988565b61243b6040518060400160405280600481526020017f66696c6c000000000000000000000000000000000000000000000000000000008152506040518060400160405280600581526020017f7768697465000000000000000000000000000000000000000000000000000000815250610988565b60405160200161245096959493929190613d78565b6040516020818303038152906040526040518060400160405280600b81526020017f363020446179204176672e0000000000000000000000000000000000000000008152506127d1565b6127aa6125116040518060400160405280600181526020017f78000000000000000000000000000000000000000000000000000000000000008152506040518060400160405280600381526020017f3935250000000000000000000000000000000000000000000000000000000000815250610988565b6125856040518060400160405280600181526020017f79000000000000000000000000000000000000000000000000000000000000008152506040518060400160405280600381526020017f3630250000000000000000000000000000000000000000000000000000000000815250610988565b6125f96040518060400160405280600981526020017f666f6e742d73697a6500000000000000000000000000000000000000000000008152506040518060400160405280600281526020017f3234000000000000000000000000000000000000000000000000000000000000815250610988565b61266d6040518060400160405280601281526020017f616c69676e6d656e742d626173656c696e6500000000000000000000000000008152506040518060400160405280600681526020017f6d6964646c650000000000000000000000000000000000000000000000000000815250610988565b6126e16040518060400160405280600b81526020017f746578742d616e63686f720000000000000000000000000000000000000000008152506040518060400160405280600381526020017f656e640000000000000000000000000000000000000000000000000000000000815250610988565b6127556040518060400160405280600481526020017f66696c6c000000000000000000000000000000000000000000000000000000008152506040518060400160405280600581526020017f7768697465000000000000000000000000000000000000000000000000000000815250610988565b60405160200161276a96959493929190613d78565b604051602081830303815290604052612786856006600261281b565b6040516020016127969190613e6a565b6040516020818303038152906040526127d1565b6040516020016127bb9291906132db565b6040516020818303038152906040529050919050565b60606128136040518060400160405280600481526020017f74657874000000000000000000000000000000000000000000000000000000008152508484612ab2565b905092915050565b606061283d83600a61282d9190614076565b856128389190613afb565b612ae3565b6128a183600a61284d9190614076565b85600a61285a9190614076565b876128659190613afb565b61286f9190613b2c565b848661287b91906140c1565b600a6128879190614076565b876128929190613afb565b61289c91906140f5565b612ae3565b6040516020016128b2929190614175565b60405160208183030381529060405290509392505050565b6060600260009054906101000a900473ffffffffffffffffffffffffffffffffffffffff1673ffffffffffffffffffffffffffffffffffffffff16633a68f5db84846040518363ffffffff1660e01b81526004016129299291906141f9565b600060405180830381865afa158015612946573d6000803e3d6000fd5b505050506040513d6000823e3d601f19601f8201168201806040525081019061296f9190614229565b905092915050565b60606129b96040518060400160405280600181526020017f67000000000000000000000000000000000000000000000000000000000000008152508484612ab2565b905092915050565b606060006129e68373ffffffffffffffffffffffffffffffffffffffff166014612c43565b90506000612a16826040516020016129fe9190613e90565b60405160208183030381529060405260006006612e7f565b90506000612a4683604051602001612a2e9190613e90565b60405160208183030381529060405260256004612e7f565b905081604051602001612a5991906142ae565b60405160208183030381529060405281604051602001612a7991906142ae565b604051602081830303815290604052604051602001612a999291906142eb565b6040516020818303038152906040529350505050919050565b606083838386604051602001612acb949392919061436a565b60405160208183030381529060405290509392505050565b606060008203612b2a576040518060400160405280600181526020017f30000000000000000000000000000000000000000000000000000000000000008152509050612c3e565b600082905060005b60008214612b5c578080612b45906143f3565b915050600a82612b559190613afb565b9150612b32565b60008167ffffffffffffffff811115612b7857612b77612fcc565b5b6040519080825280601f01601f191660200182016040528015612baa5781602001600182028036833780820191505090505b5090505b60008514612c3757600182612bc391906140f5565b9150600a85612bd2919061443b565b6030612bde9190613a76565b60f81b818381518110612bf457612bf361446c565b5b60200101907effffffffffffffffffffffffffffffffffffffffffffffffffffffffffffff1916908160001a905350600a85612c309190613afb565b9450612bae565b8093505050505b919050565b606060006002836002612c569190613b2c565b612c609190613a76565b67ffffffffffffffff811115612c7957612c78612fcc565b5b6040519080825280601f01601f191660200182016040528015612cab5781602001600182028036833780820191505090505b5090507f300000000000000000000000000000000000000000000000000000000000000081600081518110612ce357612ce261446c565b5b60200101907effffffffffffffffffffffffffffffffffffffffffffffffffffffffffffff1916908160001a9053507f780000000000000000000000000000000000000000000000000000000000000081600181518110612d4757612d4661446c565b5b60200101907effffffffffffffffffffffffffffffffffffffffffffffffffffffffffffff1916908160001a90535060006001846002612d879190613b2c565b612d919190613a76565b90505b6001811115612e31577f3031323334353637383961626364656600000000000000000000000000000000600f861660108110612dd357612dd261446c565b5b1a60f81b828281518110612dea57612de961446c565b5b60200101907effffffffffffffffffffffffffffffffffffffffffffffffffffffffffffff1916908160001a905350600485901c945080612e2a9061449b565b9050612d94565b5060008414612e75576040517f08c379a0000000000000000000000000000000000000000000000000000000008152600401612e6c90614510565b60405180910390fd5b8091505092915050565b606081601f83612e8f9190613a76565b1015612ed0576040517f08c379a0000000000000000000000000000000000000000000000000000000008152600401612ec79061457c565b60405180910390fd5b8183612edc9190613a76565b84511015612f1f576040517f08c379a0000000000000000000000000000000000000000000000000000000008152600401612f16906145e8565b60405180910390fd5b6060821560008114612f405760405191506000825260208201604052612f91565b6040519150601f8416801560200281840101858101878315602002848b0101015b81831015612f7e5780518352602083019250602081019050612f61565b50868552601f19601f8301166040525050505b50809150509392505050565b6000604051905090565b600080fd5b600080fd5b600080fd5b600080fd5b6000601f19601f8301169050919050565b7f4e487b7100000000000000000000000000000000000000000000000000000000600052604160045260246000fd5b61300482612fbb565b810181811067ffffffffffffffff8211171561302357613022612fcc565b5b80604052505050565b6000613036612f9d565b90506130428282612ffb565b919050565b600067ffffffffffffffff82111561306257613061612fcc565b5b61306b82612fbb565b9050602081019050919050565b82818337600083830152505050565b600061309a61309584613047565b61302c565b9050828152602081018484840111156130b6576130b5612fb6565b5b6130c1848285613078565b509392505050565b600082601f8301126130de576130dd612fb1565b5b81356130ee848260208601613087565b91505092915050565b60006020828403121561310d5761310c612fa7565b5b600082013567ffffffffffffffff81111561312b5761312a612fac565b5b613137848285016130c9565b91505092915050565b600081519050919050565b600082825260208201905092915050565b60005b8381101561317a57808201518184015260208101905061315f565b83811115613189576000848401525b50505050565b600061319a82613140565b6131a4818561314b565b93506131b481856020860161315c565b6131bd81612fbb565b840191505092915050565b600060208201905081810360008301526131e2818461318f565b905092915050565b600073ffffffffffffffffffffffffffffffffffffffff82169050919050565b6000613215826131ea565b9050919050565b6132258161320a565b82525050565b6000602082019050613240600083018461321c565b92915050565b61324f8161320a565b811461325a57600080fd5b50565b60008135905061326c81613246565b92915050565b60006020828403121561328857613287612fa7565b5b60006132968482850161325d565b91505092915050565b600081905092915050565b60006132b582613140565b6132bf818561329f565b93506132cf81856020860161315c565b80840191505092915050565b60006132e782856132aa565b91506132f382846132aa565b91508190509392505050565b7f4f776e61626c653a206e6577206f776e657220697320746865207a65726f206160008201527f6464726573730000000000000000000000000000000000000000000000000000602082015250565b600061335b60268361314b565b9150613366826132ff565b604082019050919050565b6000602082019050818103600083015261338a8161334e565b9050919050565b600061339c826131ea565b9050919050565b6133ac81613391565b81146133b757600080fd5b50565b6000815190506133c9816133a3565b92915050565b6000819050919050565b6133e2816133cf565b81146133ed57600080fd5b50565b6000815190506133ff816133d9565b92915050565b600067ffffffffffffffff8211156134205761341f612fcc565b5b61342982612fbb565b9050602081019050919050565b600061344961344484613405565b61302c565b90508281526020810184848401111561346557613464612fb6565b5b61347084828561315c565b509392505050565b600082601f83011261348d5761348c612fb1565b5b815161349d848260208601613436565b91505092915050565b6000819050919050565b6134b9816134a6565b81146134c457600080fd5b50565b6000815190506134d6816134b0565b92915050565b6000806000806000806000806000806101408b8d031215613500576134ff612fa7565b5b600061350e8d828e016133ba565b9a5050602061351f8d828e016133ba565b99505060406135308d828e016133f0565b98505060606135418d828e016133f0565b97505060806135528d828e016133f0565b96505060a06135638d828e016133f0565b95505060c06135748d828e016133f0565b94505060e06135858d828e016133f0565b9350506101008b015167ffffffffffffffff8111156135a7576135a6612fac565b5b6135b38d828e01613478565b9250506101206135c58d828e016134c7565b9150509295989b9194979a5092959850565b60006135e382876132aa565b91506135ef82866132aa565b91506135fb82856132aa565b915061360782846132aa565b915081905095945050505050565b600061362182866132aa565b915061362d82856132aa565b915061363982846132aa565b9150819050949350505050565b7f3c73766720786d6c6e733d22687474703a2f2f7777772e77332e6f72672f323060008201527f30302f737667222077696474683d2235303022206865696768743d223330302260208201527f2076696577426f783d223020302035303020333030222066696c6c3d2223363360408201527f3345463722207374796c653d22666f6e742d66616d696c793a2073616e732d7360608201527f657269663b22203e000000000000000000000000000000000000000000000000608082015250565b600061371460888361329f565b915061371f82613646565b608882019050919050565b7f3c67206d61736b3d2275726c28236d61736b305f3231335f38363029223e203c60008201527f656c6c69707365206f7061636974793d22302e31222063783d2239332220637960208201527f3d22333030222072783d22323330222072793d22313435222066696c6c3d226260408201527f6c61636b222f3e203c656c6c69707365206f7061636974793d22302e3038222060608201527f63783d22353530222063793d222d313139222072783d22343530222072793d2260808201527f323437222066696c6c3d22626c61636b222f3e203c2f673e000000000000000060a082015250565b600061381e60b88361329f565b91506138298261372a565b60b882019050919050565b7f3c646566733e3c7374796c653e2e636c732d317b66696c6c3a234646463b7d2e60008201527f746578742d736861646f772d6d64207b746578742d736861646f773a2030707860208201527f203470782031307078207267626128302c20302c20302c20302e3132293b7d3c60408201527f2f7374796c653e3c6c696e6561724772616469656e742069643d226d7947726160608201527f6469656e7422206772616469656e745472616e73666f726d3d22726f7461746560808201527f28393029223e203c73746f70206f66667365743d223525222073746f702d636f60a08201527f6c6f723d22676f6c6422202f3e203c73746f70206f66667365743d223935252260c08201527f2073746f702d636f6c6f723d2272656422202f3e203c2f6c696e65617247726160e08201527f6469656e743e3c2f646566733e0000000000000000000000000000000000000061010082015250565b600061399c61010d8361329f565b91506139a782613834565b61010d82019050919050565b7f3c2f7376673e0000000000000000000000000000000000000000000000000000815250565b60006139e482613707565b91506139f082876132aa565b91506139fc82866132aa565b9150613a0782613811565b9150613a1382856132aa565b9150613a1f82846132aa565b9150613a2a8261398e565b9150613a35826139b3565b60068201915081905095945050505050565b7f4e487b7100000000000000000000000000000000000000000000000000000000600052601160045260246000fd5b6000613a81826133cf565b9150613a8c836133cf565b9250827fffffffffffffffffffffffffffffffffffffffffffffffffffffffffffffffff03821115613ac157613ac0613a47565b5b828201905092915050565b7f4e487b7100000000000000000000000000000000000000000000000000000000600052601260045260246000fd5b6000613b06826133cf565b9150613b11836133cf565b925082613b2157613b20613acc565b5b828204905092915050565b6000613b37826133cf565b9150613b42836133cf565b9250817fffffffffffffffffffffffffffffffffffffffffffffffffffffffffffffffff0483118215151615613b7b57613b7a613a47565b5b828202905092915050565b7f4f776e61626c653a2063616c6c6572206973206e6f7420746865206f776e6572600082015250565b6000613bbc60208361314b565b9150613bc782613b86565b602082019050919050565b60006020820190508181036000830152613beb81613baf565b9050919050565b7f3d00000000000000000000000000000000000000000000000000000000000000815250565b7f2200000000000000000000000000000000000000000000000000000000000000815250565b7f2220000000000000000000000000000000000000000000000000000000000000815250565b6000613c7082856132aa565b9150613c7b82613bf2565b600182019150613c8a82613c18565b600182019150613c9a82846132aa565b9150613ca582613c3e565b6002820191508190509392505050565b7f3c00000000000000000000000000000000000000000000000000000000000000815250565b7f2000000000000000000000000000000000000000000000000000000000000000815250565b7f2f3e000000000000000000000000000000000000000000000000000000000000815250565b6000613d3282613cb5565b600182019150613d4282856132aa565b9150613d4d82613cdb565b600182019150613d5d82846132aa565b9150613d6882613d01565b6002820191508190509392505050565b6000613d8482896132aa565b9150613d9082886132aa565b9150613d9c82876132aa565b9150613da882866132aa565b9150613db482856132aa565b9150613dc082846132aa565b9150819050979650505050505050565b7ff09f8f8600000000000000000000000000000000000000000000000000000000815250565b7f204368616e636500000000000000000000000000000000000000000000000000815250565b6000613e2782613dd0565b600482019150613e3682613df6565b600782019150819050919050565b7f2400000000000000000000000000000000000000000000000000000000000000815250565b6000613e7582613e44565b600182019150613e8582846132aa565b915081905092915050565b6000613e9c82846132aa565b915081905092915050565b613eb0816134a6565b82525050565b6000602082019050613ecb6000830184613ea7565b92915050565b6000613edd828a6132aa565b9150613ee982896132aa565b9150613ef582886132aa565b9150613f0182876132aa565b9150613f0d82866132aa565b9150613f1982856132aa565b9150613f2582846132aa565b915081905098975050505050505050565b60008160011c9050919050565b6000808291508390505b6001851115613f8d57808604811115613f6957613f68613a47565b5b6001851615613f785780820291505b8081029050613f8685613f36565b9450613f4d565b94509492505050565b600082613fa65760019050614062565b81613fb45760009050614062565b8160018114613fca5760028114613fd457614003565b6001915050614062565b60ff841115613fe657613fe5613a47565b5b8360020a915084821115613ffd57613ffc613a47565b5b50614062565b5060208310610133831016604e8410600b84101617156140385782820a90508381111561403357614032613a47565b5b614062565b6140458484846001613f43565b9250905081840481111561405c5761405b613a47565b5b81810290505b9392505050565b600060ff82169050919050565b6000614081826133cf565b915061408c83614069565b92506140b97fffffffffffffffffffffffffffffffffffffffffffffffffffffffffffffffff8484613f96565b905092915050565b60006140cc82614069565b91506140d783614069565b9250828210156140ea576140e9613a47565b5b828203905092915050565b6000614100826133cf565b915061410b836133cf565b92508282101561411e5761411d613a47565b5b828203905092915050565b7f2e00000000000000000000000000000000000000000000000000000000000000600082015250565b600061415f60018361329f565b915061416a82614129565b600182019050919050565b600061418182856132aa565b915061418c82614152565b915061419882846132aa565b91508190509392505050565b600081519050919050565b600082825260208201905092915050565b60006141cb826141a4565b6141d581856141af565b93506141e581856020860161315c565b6141ee81612fbb565b840191505092915050565b600060408201905061420e6000830185613ea7565b818103602083015261422081846141c0565b90509392505050565b60006020828403121561423f5761423e612fa7565b5b600082015167ffffffffffffffff81111561425d5761425c612fac565b5b61426984828501613478565b91505092915050565b600081905092915050565b6000614288826141a4565b6142928185614272565b93506142a281856020860161315c565b80840191505092915050565b60006142ba828461427d565b915081905092915050565b7f2e2e2e0000000000000000000000000000000000000000000000000000000000815250565b60006142f782856132aa565b9150614302826142c5565b60038201915061431282846132aa565b91508190509392505050565b7f3e00000000000000000000000000000000000000000000000000000000000000815250565b7f3c2f000000000000000000000000000000000000000000000000000000000000815250565b600061437582613cb5565b60018201915061438582876132aa565b915061439082613cdb565b6001820191506143a082866132aa565b91506143ab8261431e565b6001820191506143bb82856132aa565b91506143c682614344565b6002820191506143d682846132aa565b91506143e18261431e565b60018201915081905095945050505050565b60006143fe826133cf565b91507fffffffffffffffffffffffffffffffffffffffffffffffffffffffffffffffff82036144305761442f613a47565b5b600182019050919050565b6000614446826133cf565b9150614451836133cf565b92508261446157614460613acc565b5b828206905092915050565b7f4e487b7100000000000000000000000000000000000000000000000000000000600052603260045260246000fd5b60006144a6826133cf565b9150600082036144b9576144b8613a47565b5b600182039050919050565b7f537472696e67733a20686578206c656e67746820696e73756666696369656e74600082015250565b60006144fa60208361314b565b9150614505826144c4565b602082019050919050565b60006020820190508181036000830152614529816144ed565b9050919050565b7f736c6963655f6f766572666c6f77000000000000000000000000000000000000600082015250565b6000614566600e8361314b565b915061457182614530565b602082019050919050565b6000602082019050818103600083015261459581614559565b9050919050565b7f736c6963655f6f75744f66426f756e6473000000000000000000000000000000600082015250565b60006145d260118361314b565b91506145dd8261459c565b602082019050919050565b60006020820190508181036000830152614601816145c5565b905091905056fe4142434445464748494a4b4c4d4e4f505152535455565758595a6162636465666768696a6b6c6d6e6f707172737475767778797a303132333435363738392b2fa26469706673582212204873caaf2ce1e1fdaabbc47806442e02b5a631401cbd368e05a70ea588bf4c2d64736f6c634300080f0033","opcodes":"PUSH1 0x80 PUSH1 0x40 MSTORE CALLVALUE DUP1 ISZERO PUSH3 0x11 JUMPI PUSH1 0x0 DUP1 REVERT JUMPDEST POP PUSH1 0x40 MLOAD PUSH3 0x48EC CODESIZE SUB DUP1 PUSH3 0x48EC DUP4 CODECOPY DUP2 DUP2 ADD PUSH1 0x40 MSTORE DUP2 ADD SWAP1 PUSH3 0x37 SWAP2 SWAP1 PUSH3 0x217 JUMP JUMPDEST PUSH3 0x57 PUSH3 0x4B PUSH3 0xE1 PUSH1 0x20 SHL PUSH1 0x20 SHR JUMP JUMPDEST PUSH3 0xE9 PUSH1 0x20 SHL PUSH1 0x20 SHR JUMP JUMPDEST DUP2 PUSH1 0x1 PUSH1 0x0 PUSH2 0x100 EXP DUP2 SLOAD DUP2 PUSH20 0xFFFFFFFFFFFFFFFFFFFFFFFFFFFFFFFFFFFFFFFF MUL NOT AND SWAP1 DUP4 PUSH20 0xFFFFFFFFFFFFFFFFFFFFFFFFFFFFFFFFFFFFFFFF AND MUL OR SWAP1 SSTORE POP DUP1 PUSH1 0x2 PUSH1 0x0 PUSH2 0x100 EXP DUP2 SLOAD DUP2 PUSH20 0xFFFFFFFFFFFFFFFFFFFFFFFFFFFFFFFFFFFFFFFF MUL NOT AND SWAP1 DUP4 PUSH20 0xFFFFFFFFFFFFFFFFFFFFFFFFFFFFFFFFFFFFFFFF AND MUL OR SWAP1 SSTORE POP POP POP PUSH3 0x25E JUMP JUMPDEST PUSH1 0x0 CALLER SWAP1 POP SWAP1 JUMP JUMPDEST PUSH1 0x0 DUP1 PUSH1 0x0 SWAP1 SLOAD SWAP1 PUSH2 0x100 EXP SWAP1 DIV PUSH20 0xFFFFFFFFFFFFFFFFFFFFFFFFFFFFFFFFFFFFFFFF AND SWAP1 POP DUP2 PUSH1 0x0 DUP1 PUSH2 0x100 EXP DUP2 SLOAD DUP2 PUSH20 0xFFFFFFFFFFFFFFFFFFFFFFFFFFFFFFFFFFFFFFFF MUL NOT AND SWAP1 DUP4 PUSH20 0xFFFFFFFFFFFFFFFFFFFFFFFFFFFFFFFFFFFFFFFF AND MUL OR SWAP1 SSTORE POP DUP2 PUSH20 0xFFFFFFFFFFFFFFFFFFFFFFFFFFFFFFFFFFFFFFFF AND DUP2 PUSH20 0xFFFFFFFFFFFFFFFFFFFFFFFFFFFFFFFFFFFFFFFF AND PUSH32 0x8BE0079C531659141344CD1FD0A4F28419497F9722A3DAAFE3B4186F6B6457E0 PUSH1 0x40 MLOAD PUSH1 0x40 MLOAD DUP1 SWAP2 SUB SWAP1 LOG3 POP POP JUMP JUMPDEST PUSH1 0x0 DUP1 REVERT JUMPDEST PUSH1 0x0 PUSH20 0xFFFFFFFFFFFFFFFFFFFFFFFFFFFFFFFFFFFFFFFF DUP3 AND SWAP1 POP SWAP2 SWAP1 POP JUMP JUMPDEST PUSH1 0x0 PUSH3 0x1DF DUP3 PUSH3 0x1B2 JUMP JUMPDEST SWAP1 POP SWAP2 SWAP1 POP JUMP JUMPDEST PUSH3 0x1F1 DUP2 PUSH3 0x1D2 JUMP JUMPDEST DUP2 EQ PUSH3 0x1FD JUMPI PUSH1 0x0 DUP1 REVERT JUMPDEST POP JUMP JUMPDEST PUSH1 0x0 DUP2 MLOAD SWAP1 POP PUSH3 0x211 DUP2 PUSH3 0x1E6 JUMP JUMPDEST SWAP3 SWAP2 POP POP JUMP JUMPDEST PUSH1 0x0 DUP1 PUSH1 0x40 DUP4 DUP6 SUB SLT ISZERO PUSH3 0x231 JUMPI PUSH3 0x230 PUSH3 0x1AD JUMP JUMPDEST JUMPDEST PUSH1 0x0 PUSH3 0x241 DUP6 DUP3 DUP7 ADD PUSH3 0x200 JUMP JUMPDEST SWAP3 POP POP PUSH1 0x20 PUSH3 0x254 DUP6 DUP3 DUP7 ADD PUSH3 0x200 JUMP JUMPDEST SWAP2 POP POP SWAP3 POP SWAP3 SWAP1 POP JUMP JUMPDEST PUSH2 0x467E DUP1 PUSH3 0x26E PUSH1 0x0 CODECOPY PUSH1 0x0 RETURN INVALID PUSH1 0x80 PUSH1 0x40 MSTORE CALLVALUE DUP1 ISZERO PUSH2 0x10 JUMPI PUSH1 0x0 DUP1 REVERT JUMPDEST POP PUSH1 0x4 CALLDATASIZE LT PUSH2 0x62 JUMPI PUSH1 0x0 CALLDATALOAD PUSH1 0xE0 SHR DUP1 PUSH4 0x316DF61E EQ PUSH2 0x67 JUMPI DUP1 PUSH4 0x715018A6 EQ PUSH2 0x97 JUMPI DUP1 PUSH4 0x8DA5CB5B EQ PUSH2 0xA1 JUMPI DUP1 PUSH4 0x933D9EB5 EQ PUSH2 0xBF JUMPI DUP1 PUSH4 0xA001E0D5 EQ PUSH2 0xDD JUMPI DUP1 PUSH4 0xF2FDE38B EQ PUSH2 0xFB JUMPI JUMPDEST PUSH1 0x0 DUP1 REVERT JUMPDEST PUSH2 0x81 PUSH1 0x4 DUP1 CALLDATASIZE SUB DUP2 ADD SWAP1 PUSH2 0x7C SWAP2 SWAP1 PUSH2 0x30F7 JUMP JUMPDEST PUSH2 0x117 JUMP JUMPDEST PUSH1 0x40 MLOAD PUSH2 0x8E SWAP2 SWAP1 PUSH2 0x31C8 JUMP JUMPDEST PUSH1 0x40 MLOAD DUP1 SWAP2 SUB SWAP1 RETURN JUMPDEST PUSH2 0x9F PUSH2 0x187 JUMP JUMPDEST STOP JUMPDEST PUSH2 0xA9 PUSH2 0x19B JUMP JUMPDEST PUSH1 0x40 MLOAD PUSH2 0xB6 SWAP2 SWAP1 PUSH2 0x322B JUMP JUMPDEST PUSH1 0x40 MLOAD DUP1 SWAP2 SUB SWAP1 RETURN JUMPDEST PUSH2 0xC7 PUSH2 0x1C4 JUMP JUMPDEST PUSH1 0x40 MLOAD PUSH2 0xD4 SWAP2 SWAP1 PUSH2 0x322B JUMP JUMPDEST PUSH1 0x40 MLOAD DUP1 SWAP2 SUB SWAP1 RETURN JUMPDEST PUSH2 0xE5 PUSH2 0x1EA JUMP JUMPDEST PUSH1 0x40 MLOAD PUSH2 0xF2 SWAP2 SWAP1 PUSH2 0x322B JUMP JUMPDEST PUSH1 0x40 MLOAD DUP1 SWAP2 SUB SWAP1 RETURN JUMPDEST PUSH2 0x115 PUSH1 0x4 DUP1 CALLDATASIZE SUB DUP2 ADD SWAP1 PUSH2 0x110 SWAP2 SWAP1 PUSH2 0x3272 JUMP JUMPDEST PUSH2 0x210 JUMP JUMPDEST STOP JUMPDEST PUSH1 0x60 PUSH1 0x40 MLOAD DUP1 PUSH1 0x40 ADD PUSH1 0x40 MSTORE DUP1 PUSH1 0x1B DUP2 MSTORE PUSH1 0x20 ADD PUSH32 0x646174613A696D6167652F7376672B786D6C3B6261736536342C200000000000 DUP2 MSTORE POP PUSH2 0x160 PUSH2 0x15B DUP5 PUSH2 0x293 JUMP JUMPDEST PUSH2 0x6CE JUMP JUMPDEST PUSH1 0x40 MLOAD PUSH1 0x20 ADD PUSH2 0x171 SWAP3 SWAP2 SWAP1 PUSH2 0x32DB JUMP JUMPDEST PUSH1 0x40 MLOAD PUSH1 0x20 DUP2 DUP4 SUB SUB DUP2 MSTORE SWAP1 PUSH1 0x40 MSTORE SWAP1 POP SWAP2 SWAP1 POP JUMP JUMPDEST PUSH2 0x18F PUSH2 0x846 JUMP JUMPDEST PUSH2 0x199 PUSH1 0x0 PUSH2 0x8C4 JUMP JUMPDEST JUMP JUMPDEST PUSH1 0x0 DUP1 PUSH1 0x0 SWAP1 SLOAD SWAP1 PUSH2 0x100 EXP SWAP1 DIV PUSH20 0xFFFFFFFFFFFFFFFFFFFFFFFFFFFFFFFFFFFFFFFF AND SWAP1 POP SWAP1 JUMP JUMPDEST PUSH1 0x2 PUSH1 0x0 SWAP1 SLOAD SWAP1 PUSH2 0x100 EXP SWAP1 DIV PUSH20 0xFFFFFFFFFFFFFFFFFFFFFFFFFFFFFFFFFFFFFFFF AND DUP2 JUMP JUMPDEST PUSH1 0x1 PUSH1 0x0 SWAP1 SLOAD SWAP1 PUSH2 0x100 EXP SWAP1 DIV PUSH20 0xFFFFFFFFFFFFFFFFFFFFFFFFFFFFFFFFFFFFFFFF AND DUP2 JUMP JUMPDEST PUSH2 0x218 PUSH2 0x846 JUMP JUMPDEST PUSH1 0x0 PUSH20 0xFFFFFFFFFFFFFFFFFFFFFFFFFFFFFFFFFFFFFFFF AND DUP2 PUSH20 0xFFFFFFFFFFFFFFFFFFFFFFFFFFFFFFFFFFFFFFFF AND SUB PUSH2 0x287 JUMPI PUSH1 0x40 MLOAD PUSH32 0x8C379A000000000000000000000000000000000000000000000000000000000 DUP2 MSTORE PUSH1 0x4 ADD PUSH2 0x27E SWAP1 PUSH2 0x3371 JUMP JUMPDEST PUSH1 0x40 MLOAD DUP1 SWAP2 SUB SWAP1 REVERT JUMPDEST PUSH2 0x290 DUP2 PUSH2 0x8C4 JUMP JUMPDEST POP JUMP JUMPDEST PUSH1 0x60 PUSH1 0x0 DUP1 PUSH1 0x0 DUP1 PUSH1 0x0 DUP1 PUSH1 0x0 DUP1 PUSH1 0x0 DUP1 DUP12 DUP1 PUSH1 0x20 ADD SWAP1 MLOAD DUP2 ADD SWAP1 PUSH2 0x2B8 SWAP2 SWAP1 PUSH2 0x34DC JUMP JUMPDEST SWAP10 POP SWAP10 POP SWAP10 POP SWAP10 POP SWAP10 POP SWAP10 POP SWAP10 POP SWAP10 POP SWAP10 POP SWAP10 POP PUSH1 0x0 PUSH1 0x40 MLOAD DUP1 PUSH1 0x40 ADD PUSH1 0x40 MSTORE DUP1 PUSH1 0x14 DUP2 MSTORE PUSH1 0x20 ADD PUSH32 0x5765623320536176696E6773204E6574776F726B000000000000000000000000 DUP2 MSTORE POP SWAP1 POP PUSH2 0x500 PUSH2 0x37D PUSH1 0x40 MLOAD DUP1 PUSH1 0x40 ADD PUSH1 0x40 MSTORE DUP1 PUSH1 0x1 DUP2 MSTORE PUSH1 0x20 ADD PUSH32 0x7800000000000000000000000000000000000000000000000000000000000000 DUP2 MSTORE POP PUSH1 0x40 MLOAD DUP1 PUSH1 0x40 ADD PUSH1 0x40 MSTORE DUP1 PUSH1 0xA DUP2 MSTORE PUSH1 0x20 ADD PUSH32 0x302E303031393533313200000000000000000000000000000000000000000000 DUP2 MSTORE POP PUSH2 0x988 JUMP JUMPDEST PUSH2 0x3F1 PUSH1 0x40 MLOAD DUP1 PUSH1 0x40 ADD PUSH1 0x40 MSTORE DUP1 PUSH1 0x5 DUP2 MSTORE PUSH1 0x20 ADD PUSH32 0x7769647468000000000000000000000000000000000000000000000000000000 DUP2 MSTORE POP PUSH1 0x40 MLOAD DUP1 PUSH1 0x40 ADD PUSH1 0x40 MSTORE DUP1 PUSH1 0x3 DUP2 MSTORE PUSH1 0x20 ADD PUSH32 0x3530300000000000000000000000000000000000000000000000000000000000 DUP2 MSTORE POP PUSH2 0x988 JUMP JUMPDEST PUSH2 0x465 PUSH1 0x40 MLOAD DUP1 PUSH1 0x40 ADD PUSH1 0x40 MSTORE DUP1 PUSH1 0x6 DUP2 MSTORE PUSH1 0x20 ADD PUSH32 0x6865696768740000000000000000000000000000000000000000000000000000 DUP2 MSTORE POP PUSH1 0x40 MLOAD DUP1 PUSH1 0x40 ADD PUSH1 0x40 MSTORE DUP1 PUSH1 0x3 DUP2 MSTORE PUSH1 0x20 ADD PUSH32 0x3330300000000000000000000000000000000000000000000000000000000000 DUP2 MSTORE POP PUSH2 0x988 JUMP JUMPDEST PUSH2 0x4D9 PUSH1 0x40 MLOAD DUP1 PUSH1 0x40 ADD PUSH1 0x40 MSTORE DUP1 PUSH1 0x4 DUP2 MSTORE PUSH1 0x20 ADD PUSH32 0x66696C6C00000000000000000000000000000000000000000000000000000000 DUP2 MSTORE POP PUSH1 0x40 MLOAD DUP1 PUSH1 0x40 ADD PUSH1 0x40 MSTORE DUP1 PUSH1 0x1B DUP2 MSTORE PUSH1 0x20 ADD PUSH32 0x75726C28237061696E74305F6C696E6561725F3231335F383630290000000000 DUP2 MSTORE POP PUSH2 0x988 JUMP JUMPDEST PUSH1 0x40 MLOAD PUSH1 0x20 ADD PUSH2 0x4EC SWAP5 SWAP4 SWAP3 SWAP2 SWAP1 PUSH2 0x35D7 JUMP JUMPDEST PUSH1 0x40 MLOAD PUSH1 0x20 DUP2 DUP4 SUB SUB DUP2 MSTORE SWAP1 PUSH1 0x40 MSTORE PUSH2 0x9B4 JUMP JUMPDEST PUSH2 0x685 PUSH2 0x577 PUSH1 0x40 MLOAD DUP1 PUSH1 0x40 ADD PUSH1 0x40 MSTORE DUP1 PUSH1 0x1 DUP2 MSTORE PUSH1 0x20 ADD PUSH32 0x7800000000000000000000000000000000000000000000000000000000000000 DUP2 MSTORE POP PUSH1 0x40 MLOAD DUP1 PUSH1 0x40 ADD PUSH1 0x40 MSTORE DUP1 PUSH1 0x1 DUP2 MSTORE PUSH1 0x20 ADD PUSH32 0x3000000000000000000000000000000000000000000000000000000000000000 DUP2 MSTORE POP PUSH2 0x988 JUMP JUMPDEST PUSH2 0x5EB PUSH1 0x40 MLOAD DUP1 PUSH1 0x40 ADD PUSH1 0x40 MSTORE DUP1 PUSH1 0x5 DUP2 MSTORE PUSH1 0x20 ADD PUSH32 0x7769647468000000000000000000000000000000000000000000000000000000 DUP2 MSTORE POP PUSH1 0x40 MLOAD DUP1 PUSH1 0x40 ADD PUSH1 0x40 MSTORE DUP1 PUSH1 0x3 DUP2 MSTORE PUSH1 0x20 ADD PUSH32 0x3530300000000000000000000000000000000000000000000000000000000000 DUP2 MSTORE POP PUSH2 0x988 JUMP JUMPDEST PUSH2 0x65F PUSH1 0x40 MLOAD DUP1 PUSH1 0x40 ADD PUSH1 0x40 MSTORE DUP1 PUSH1 0x6 DUP2 MSTORE PUSH1 0x20 ADD PUSH32 0x6865696768740000000000000000000000000000000000000000000000000000 DUP2 MSTORE POP PUSH1 0x40 MLOAD DUP1 PUSH1 0x40 ADD PUSH1 0x40 MSTORE DUP1 PUSH1 0x3 DUP2 MSTORE PUSH1 0x20 ADD PUSH32 0x3530300000000000000000000000000000000000000000000000000000000000 DUP2 MSTORE POP PUSH2 0x988 JUMP JUMPDEST PUSH1 0x40 MLOAD PUSH1 0x20 ADD PUSH2 0x671 SWAP4 SWAP3 SWAP2 SWAP1 PUSH2 0x3615 JUMP JUMPDEST PUSH1 0x40 MLOAD PUSH1 0x20 DUP2 DUP4 SUB SUB DUP2 MSTORE SWAP1 PUSH1 0x40 MSTORE PUSH2 0x9B4 JUMP JUMPDEST PUSH2 0x68E DUP11 PUSH2 0x9FC JUMP JUMPDEST PUSH2 0x69A DUP15 DUP11 DUP9 DUP8 PUSH2 0xA36 JUMP JUMPDEST PUSH1 0x40 MLOAD PUSH1 0x20 ADD PUSH2 0x6AD SWAP5 SWAP4 SWAP3 SWAP2 SWAP1 PUSH2 0x39D9 JUMP JUMPDEST PUSH1 0x40 MLOAD PUSH1 0x20 DUP2 DUP4 SUB SUB DUP2 MSTORE SWAP1 PUSH1 0x40 MSTORE SWAP12 POP POP POP POP POP POP POP POP POP POP POP POP SWAP2 SWAP1 POP JUMP JUMPDEST PUSH1 0x60 PUSH1 0x0 DUP3 MLOAD SUB PUSH2 0x6F0 JUMPI PUSH1 0x40 MLOAD DUP1 PUSH1 0x20 ADD PUSH1 0x40 MSTORE DUP1 PUSH1 0x0 DUP2 MSTORE POP SWAP1 POP PUSH2 0x841 JUMP JUMPDEST PUSH1 0x0 PUSH1 0x40 MLOAD DUP1 PUSH1 0x60 ADD PUSH1 0x40 MSTORE DUP1 PUSH1 0x40 DUP2 MSTORE PUSH1 0x20 ADD PUSH2 0x4609 PUSH1 0x40 SWAP2 CODECOPY SWAP1 POP PUSH1 0x0 PUSH1 0x3 PUSH1 0x2 DUP6 MLOAD PUSH2 0x71F SWAP2 SWAP1 PUSH2 0x3A76 JUMP JUMPDEST PUSH2 0x729 SWAP2 SWAP1 PUSH2 0x3AFB JUMP JUMPDEST PUSH1 0x4 PUSH2 0x735 SWAP2 SWAP1 PUSH2 0x3B2C JUMP JUMPDEST SWAP1 POP PUSH1 0x0 PUSH1 0x20 DUP3 PUSH2 0x746 SWAP2 SWAP1 PUSH2 0x3A76 JUMP JUMPDEST PUSH8 0xFFFFFFFFFFFFFFFF DUP2 GT ISZERO PUSH2 0x75F JUMPI PUSH2 0x75E PUSH2 0x2FCC JUMP JUMPDEST JUMPDEST PUSH1 0x40 MLOAD SWAP1 DUP1 DUP3 MSTORE DUP1 PUSH1 0x1F ADD PUSH1 0x1F NOT AND PUSH1 0x20 ADD DUP3 ADD PUSH1 0x40 MSTORE DUP1 ISZERO PUSH2 0x791 JUMPI DUP2 PUSH1 0x20 ADD PUSH1 0x1 DUP3 MUL DUP1 CALLDATASIZE DUP4 CALLDATACOPY DUP1 DUP3 ADD SWAP2 POP POP SWAP1 POP JUMPDEST POP SWAP1 POP DUP2 DUP2 MSTORE PUSH1 0x1 DUP4 ADD DUP6 DUP7 MLOAD DUP2 ADD PUSH1 0x20 DUP5 ADD JUMPDEST DUP2 DUP4 LT ISZERO PUSH2 0x800 JUMPI PUSH1 0x3 DUP4 ADD SWAP3 POP DUP3 MLOAD PUSH1 0x3F DUP2 PUSH1 0x12 SHR AND DUP6 ADD MLOAD DUP3 MSTORE8 PUSH1 0x1 DUP3 ADD SWAP2 POP PUSH1 0x3F DUP2 PUSH1 0xC SHR AND DUP6 ADD MLOAD DUP3 MSTORE8 PUSH1 0x1 DUP3 ADD SWAP2 POP PUSH1 0x3F DUP2 PUSH1 0x6 SHR AND DUP6 ADD MLOAD DUP3 MSTORE8 PUSH1 0x1 DUP3 ADD SWAP2 POP PUSH1 0x3F DUP2 AND DUP6 ADD MLOAD DUP3 MSTORE8 PUSH1 0x1 DUP3 ADD SWAP2 POP POP PUSH2 0x7A5 JUMP JUMPDEST PUSH1 0x3 DUP10 MLOAD MOD PUSH1 0x1 DUP2 EQ PUSH2 0x81A JUMPI PUSH1 0x2 DUP2 EQ PUSH2 0x82A JUMPI PUSH2 0x835 JUMP JUMPDEST PUSH2 0x3D3D PUSH1 0xF0 SHL PUSH1 0x2 DUP4 SUB MSTORE PUSH2 0x835 JUMP JUMPDEST PUSH1 0x3D PUSH1 0xF8 SHL PUSH1 0x1 DUP4 SUB MSTORE JUMPDEST POP POP POP POP POP DUP1 SWAP4 POP POP POP POP JUMPDEST SWAP2 SWAP1 POP JUMP JUMPDEST PUSH2 0x84E PUSH2 0xA7F JUMP JUMPDEST PUSH20 0xFFFFFFFFFFFFFFFFFFFFFFFFFFFFFFFFFFFFFFFF AND PUSH2 0x86C PUSH2 0x19B JUMP JUMPDEST PUSH20 0xFFFFFFFFFFFFFFFFFFFFFFFFFFFFFFFFFFFFFFFF AND EQ PUSH2 0x8C2 JUMPI PUSH1 0x40 MLOAD PUSH32 0x8C379A000000000000000000000000000000000000000000000000000000000 DUP2 MSTORE PUSH1 0x4 ADD PUSH2 0x8B9 SWAP1 PUSH2 0x3BD2 JUMP JUMPDEST PUSH1 0x40 MLOAD DUP1 SWAP2 SUB SWAP1 REVERT JUMPDEST JUMP JUMPDEST PUSH1 0x0 DUP1 PUSH1 0x0 SWAP1 SLOAD SWAP1 PUSH2 0x100 EXP SWAP1 DIV PUSH20 0xFFFFFFFFFFFFFFFFFFFFFFFFFFFFFFFFFFFFFFFF AND SWAP1 POP DUP2 PUSH1 0x0 DUP1 PUSH2 0x100 EXP DUP2 SLOAD DUP2 PUSH20 0xFFFFFFFFFFFFFFFFFFFFFFFFFFFFFFFFFFFFFFFF MUL NOT AND SWAP1 DUP4 PUSH20 0xFFFFFFFFFFFFFFFFFFFFFFFFFFFFFFFFFFFFFFFF AND MUL OR SWAP1 SSTORE POP DUP2 PUSH20 0xFFFFFFFFFFFFFFFFFFFFFFFFFFFFFFFFFFFFFFFF AND DUP2 PUSH20 0xFFFFFFFFFFFFFFFFFFFFFFFFFFFFFFFFFFFFFFFF AND PUSH32 0x8BE0079C531659141344CD1FD0A4F28419497F9722A3DAAFE3B4186F6B6457E0 PUSH1 0x40 MLOAD PUSH1 0x40 MLOAD DUP1 SWAP2 SUB SWAP1 LOG3 POP POP JUMP JUMPDEST PUSH1 0x60 DUP3 DUP3 PUSH1 0x40 MLOAD PUSH1 0x20 ADD PUSH2 0x99D SWAP3 SWAP2 SWAP1 PUSH2 0x3C64 JUMP JUMPDEST PUSH1 0x40 MLOAD PUSH1 0x20 DUP2 DUP4 SUB SUB DUP2 MSTORE SWAP1 PUSH1 0x40 MSTORE SWAP1 POP SWAP3 SWAP2 POP POP JUMP JUMPDEST PUSH1 0x60 PUSH2 0x9F5 PUSH1 0x40 MLOAD DUP1 PUSH1 0x40 ADD PUSH1 0x40 MSTORE DUP1 PUSH1 0x4 DUP2 MSTORE PUSH1 0x20 ADD PUSH32 0x7265637400000000000000000000000000000000000000000000000000000000 DUP2 MSTORE POP DUP4 PUSH2 0xA87 JUMP JUMPDEST SWAP1 POP SWAP2 SWAP1 POP JUMP JUMPDEST PUSH1 0x60 PUSH2 0xA07 DUP3 PUSH2 0xAB3 JUMP JUMPDEST PUSH2 0xA0F PUSH2 0x10EE JUMP JUMPDEST PUSH1 0x40 MLOAD PUSH1 0x20 ADD PUSH2 0xA20 SWAP3 SWAP2 SWAP1 PUSH2 0x32DB JUMP JUMPDEST PUSH1 0x40 MLOAD PUSH1 0x20 DUP2 DUP4 SUB SUB DUP2 MSTORE SWAP1 PUSH1 0x40 MSTORE SWAP1 POP SWAP2 SWAP1 POP JUMP JUMPDEST PUSH1 0x60 PUSH2 0xA43 DUP6 DUP5 DUP5 PUSH2 0x121E JUMP JUMPDEST PUSH2 0xA4B PUSH2 0x1B76 JUMP JUMPDEST PUSH2 0xA54 DUP7 PUSH2 0x217E JUMP JUMPDEST PUSH1 0x40 MLOAD PUSH1 0x20 ADD PUSH2 0xA66 SWAP4 SWAP3 SWAP2 SWAP1 PUSH2 0x3615 JUMP JUMPDEST PUSH1 0x40 MLOAD PUSH1 0x20 DUP2 DUP4 SUB SUB DUP2 MSTORE SWAP1 PUSH1 0x40 MSTORE SWAP1 POP SWAP5 SWAP4 POP POP POP POP JUMP JUMPDEST PUSH1 0x0 CALLER SWAP1 POP SWAP1 JUMP JUMPDEST PUSH1 0x60 DUP3 DUP3 PUSH1 0x40 MLOAD PUSH1 0x20 ADD PUSH2 0xA9C SWAP3 SWAP2 SWAP1 PUSH2 0x3D27 JUMP JUMPDEST PUSH1 0x40 MLOAD PUSH1 0x20 DUP2 DUP4 SUB SUB DUP2 MSTORE SWAP1 PUSH1 0x40 MSTORE SWAP1 POP SWAP3 SWAP2 POP POP JUMP JUMPDEST PUSH1 0x60 PUSH2 0xDB7 PUSH2 0xB2C PUSH1 0x40 MLOAD DUP1 PUSH1 0x40 ADD PUSH1 0x40 MSTORE DUP1 PUSH1 0x1 DUP2 MSTORE PUSH1 0x20 ADD PUSH32 0x7800000000000000000000000000000000000000000000000000000000000000 DUP2 MSTORE POP PUSH1 0x40 MLOAD DUP1 PUSH1 0x40 ADD PUSH1 0x40 MSTORE DUP1 PUSH1 0x4 DUP2 MSTORE PUSH1 0x20 ADD PUSH32 0x372E352500000000000000000000000000000000000000000000000000000000 DUP2 MSTORE POP PUSH2 0x988 JUMP JUMPDEST PUSH2 0xBA0 PUSH1 0x40 MLOAD DUP1 PUSH1 0x40 ADD PUSH1 0x40 MSTORE DUP1 PUSH1 0x1 DUP2 MSTORE PUSH1 0x20 ADD PUSH32 0x7900000000000000000000000000000000000000000000000000000000000000 DUP2 MSTORE POP PUSH1 0x40 MLOAD DUP1 PUSH1 0x40 ADD PUSH1 0x40 MSTORE DUP1 PUSH1 0x4 DUP2 MSTORE PUSH1 0x20 ADD PUSH32 0x36322E3500000000000000000000000000000000000000000000000000000000 DUP2 MSTORE POP PUSH2 0x988 JUMP JUMPDEST PUSH2 0xC14 PUSH1 0x40 MLOAD DUP1 PUSH1 0x40 ADD PUSH1 0x40 MSTORE DUP1 PUSH1 0x9 DUP2 MSTORE PUSH1 0x20 ADD PUSH32 0x666F6E742D73697A650000000000000000000000000000000000000000000000 DUP2 MSTORE POP PUSH1 0x40 MLOAD DUP1 PUSH1 0x40 ADD PUSH1 0x40 MSTORE DUP1 PUSH1 0x2 DUP2 MSTORE PUSH1 0x20 ADD PUSH32 0x3138000000000000000000000000000000000000000000000000000000000000 DUP2 MSTORE POP PUSH2 0x988 JUMP JUMPDEST PUSH2 0xC88 PUSH1 0x40 MLOAD DUP1 PUSH1 0x40 ADD PUSH1 0x40 MSTORE DUP1 PUSH1 0x12 DUP2 MSTORE PUSH1 0x20 ADD PUSH32 0x616C69676E6D656E742D626173656C696E650000000000000000000000000000 DUP2 MSTORE POP PUSH1 0x40 MLOAD DUP1 PUSH1 0x40 ADD PUSH1 0x40 MSTORE DUP1 PUSH1 0x6 DUP2 MSTORE PUSH1 0x20 ADD PUSH32 0x6D6964646C650000000000000000000000000000000000000000000000000000 DUP2 MSTORE POP PUSH2 0x988 JUMP JUMPDEST PUSH2 0xCFC PUSH1 0x40 MLOAD DUP1 PUSH1 0x40 ADD PUSH1 0x40 MSTORE DUP1 PUSH1 0xB DUP2 MSTORE PUSH1 0x20 ADD PUSH32 0x746578742D616E63686F72000000000000000000000000000000000000000000 DUP2 MSTORE POP PUSH1 0x40 MLOAD DUP1 PUSH1 0x40 ADD PUSH1 0x40 MSTORE DUP1 PUSH1 0x5 DUP2 MSTORE PUSH1 0x20 ADD PUSH32 0x7374617274000000000000000000000000000000000000000000000000000000 DUP2 MSTORE POP PUSH2 0x988 JUMP JUMPDEST PUSH2 0xD70 PUSH1 0x40 MLOAD DUP1 PUSH1 0x40 ADD PUSH1 0x40 MSTORE DUP1 PUSH1 0x4 DUP2 MSTORE PUSH1 0x20 ADD PUSH32 0x66696C6C00000000000000000000000000000000000000000000000000000000 DUP2 MSTORE POP PUSH1 0x40 MLOAD DUP1 PUSH1 0x40 ADD PUSH1 0x40 MSTORE DUP1 PUSH1 0x5 DUP2 MSTORE PUSH1 0x20 ADD PUSH32 0x7768697465000000000000000000000000000000000000000000000000000000 DUP2 MSTORE POP PUSH2 0x988 JUMP JUMPDEST PUSH1 0x40 MLOAD PUSH1 0x20 ADD PUSH2 0xD85 SWAP7 SWAP6 SWAP5 SWAP4 SWAP3 SWAP2 SWAP1 PUSH2 0x3D78 JUMP JUMPDEST PUSH1 0x40 MLOAD PUSH1 0x20 DUP2 DUP4 SUB SUB DUP2 MSTORE SWAP1 PUSH1 0x40 MSTORE PUSH1 0x40 MLOAD PUSH1 0x20 ADD PUSH2 0xDA3 SWAP1 PUSH2 0x3E1C JUMP JUMPDEST PUSH1 0x40 MLOAD PUSH1 0x20 DUP2 DUP4 SUB SUB DUP2 MSTORE SWAP1 PUSH1 0x40 MSTORE PUSH2 0x27D1 JUMP JUMPDEST PUSH2 0x10C7 PUSH2 0xE2E PUSH1 0x40 MLOAD DUP1 PUSH1 0x40 ADD PUSH1 0x40 MSTORE DUP1 PUSH1 0x1 DUP2 MSTORE PUSH1 0x20 ADD PUSH32 0x7800000000000000000000000000000000000000000000000000000000000000 DUP2 MSTORE POP PUSH1 0x40 MLOAD DUP1 PUSH1 0x40 ADD PUSH1 0x40 MSTORE DUP1 PUSH1 0x4 DUP2 MSTORE PUSH1 0x20 ADD PUSH32 0x372E352500000000000000000000000000000000000000000000000000000000 DUP2 MSTORE POP PUSH2 0x988 JUMP JUMPDEST PUSH2 0xEA2 PUSH1 0x40 MLOAD DUP1 PUSH1 0x40 ADD PUSH1 0x40 MSTORE DUP1 PUSH1 0x1 DUP2 MSTORE PUSH1 0x20 ADD PUSH32 0x7900000000000000000000000000000000000000000000000000000000000000 DUP2 MSTORE POP PUSH1 0x40 MLOAD DUP1 PUSH1 0x40 ADD PUSH1 0x40 MSTORE DUP1 PUSH1 0x3 DUP2 MSTORE PUSH1 0x20 ADD PUSH32 0x3130300000000000000000000000000000000000000000000000000000000000 DUP2 MSTORE POP PUSH2 0x988 JUMP JUMPDEST PUSH2 0xF16 PUSH1 0x40 MLOAD DUP1 PUSH1 0x40 ADD PUSH1 0x40 MSTORE DUP1 PUSH1 0x9 DUP2 MSTORE PUSH1 0x20 ADD PUSH32 0x666F6E742D73697A650000000000000000000000000000000000000000000000 DUP2 MSTORE POP PUSH1 0x40 MLOAD DUP1 PUSH1 0x40 ADD PUSH1 0x40 MSTORE DUP1 PUSH1 0x2 DUP2 MSTORE PUSH1 0x20 ADD PUSH32 0x3332000000000000000000000000000000000000000000000000000000000000 DUP2 MSTORE POP PUSH2 0x988 JUMP JUMPDEST PUSH2 0xF8A PUSH1 0x40 MLOAD DUP1 PUSH1 0x40 ADD PUSH1 0x40 MSTORE DUP1 PUSH1 0x12 DUP2 MSTORE PUSH1 0x20 ADD PUSH32 0x616C69676E6D656E742D626173656C696E650000000000000000000000000000 DUP2 MSTORE POP PUSH1 0x40 MLOAD DUP1 PUSH1 0x40 ADD PUSH1 0x40 MSTORE DUP1 PUSH1 0x6 DUP2 MSTORE PUSH1 0x20 ADD PUSH32 0x6D6964646C650000000000000000000000000000000000000000000000000000 DUP2 MSTORE POP PUSH2 0x988 JUMP JUMPDEST PUSH2 0xFFE PUSH1 0x40 MLOAD DUP1 PUSH1 0x40 ADD PUSH1 0x40 MSTORE DUP1 PUSH1 0xB DUP2 MSTORE PUSH1 0x20 ADD PUSH32 0x746578742D616E63686F72000000000000000000000000000000000000000000 DUP2 MSTORE POP PUSH1 0x40 MLOAD DUP1 PUSH1 0x40 ADD PUSH1 0x40 MSTORE DUP1 PUSH1 0x5 DUP2 MSTORE PUSH1 0x20 ADD PUSH32 0x7374617274000000000000000000000000000000000000000000000000000000 DUP2 MSTORE POP PUSH2 0x988 JUMP JUMPDEST PUSH2 0x1072 PUSH1 0x40 MLOAD DUP1 PUSH1 0x40 ADD PUSH1 0x40 MSTORE DUP1 PUSH1 0x4 DUP2 MSTORE PUSH1 0x20 ADD PUSH32 0x66696C6C00000000000000000000000000000000000000000000000000000000 DUP2 MSTORE POP PUSH1 0x40 MLOAD DUP1 PUSH1 0x40 ADD PUSH1 0x40 MSTORE DUP1 PUSH1 0x5 DUP2 MSTORE PUSH1 0x20 ADD PUSH32 0x7768697465000000000000000000000000000000000000000000000000000000 DUP2 MSTORE POP PUSH2 0x988 JUMP JUMPDEST PUSH1 0x40 MLOAD PUSH1 0x20 ADD PUSH2 0x1087 SWAP7 SWAP6 SWAP5 SWAP4 SWAP3 SWAP2 SWAP1 PUSH2 0x3D78 JUMP JUMPDEST PUSH1 0x40 MLOAD PUSH1 0x20 DUP2 DUP4 SUB SUB DUP2 MSTORE SWAP1 PUSH1 0x40 MSTORE PUSH2 0x10A3 DUP6 PUSH1 0x6 PUSH1 0x2 PUSH2 0x281B JUMP JUMPDEST PUSH1 0x40 MLOAD PUSH1 0x20 ADD PUSH2 0x10B3 SWAP2 SWAP1 PUSH2 0x3E6A JUMP JUMPDEST PUSH1 0x40 MLOAD PUSH1 0x20 DUP2 DUP4 SUB SUB DUP2 MSTORE SWAP1 PUSH1 0x40 MSTORE PUSH2 0x27D1 JUMP JUMPDEST PUSH1 0x40 MLOAD PUSH1 0x20 ADD PUSH2 0x10D8 SWAP3 SWAP2 SWAP1 PUSH2 0x32DB JUMP JUMPDEST PUSH1 0x40 MLOAD PUSH1 0x20 DUP2 DUP4 SUB SUB DUP2 MSTORE SWAP1 PUSH1 0x40 MSTORE SWAP1 POP SWAP2 SWAP1 POP JUMP JUMPDEST PUSH1 0x60 PUSH2 0x11FA PUSH2 0x1167 PUSH1 0x40 MLOAD DUP1 PUSH1 0x40 ADD PUSH1 0x40 MSTORE DUP1 PUSH1 0x9 DUP2 MSTORE PUSH1 0x20 ADD PUSH32 0x7472616E73666F726D0000000000000000000000000000000000000000000000 DUP2 MSTORE POP PUSH1 0x40 MLOAD DUP1 PUSH1 0x40 ADD PUSH1 0x40 MSTORE DUP1 PUSH1 0x11 DUP2 MSTORE PUSH1 0x20 ADD PUSH32 0x7472616E736C617465283335302C333029000000000000000000000000000000 DUP2 MSTORE POP PUSH2 0x988 JUMP JUMPDEST PUSH1 0x40 MLOAD PUSH1 0x20 ADD PUSH2 0x1177 SWAP2 SWAP1 PUSH2 0x3E90 JUMP JUMPDEST PUSH1 0x40 MLOAD PUSH1 0x20 DUP2 DUP4 SUB SUB DUP2 MSTORE SWAP1 PUSH1 0x40 MSTORE PUSH2 0x11F5 PUSH32 0x574542335F415353455453000000000000000000000000000000000000000000 PUSH1 0x0 SHL PUSH32 0x4C4F474F5F504F4F4C0000000000000000000000000000000000000000000000 PUSH1 0x0 SHL PUSH1 0x40 MLOAD PUSH1 0x20 ADD PUSH2 0x11E1 SWAP2 SWAP1 PUSH2 0x3EB6 JUMP JUMPDEST PUSH1 0x40 MLOAD PUSH1 0x20 DUP2 DUP4 SUB SUB DUP2 MSTORE SWAP1 PUSH1 0x40 MSTORE PUSH2 0x28CA JUMP JUMPDEST PUSH2 0x2977 JUMP JUMPDEST PUSH1 0x40 MLOAD PUSH1 0x20 ADD PUSH2 0x120A SWAP2 SWAP1 PUSH2 0x3E90 JUMP JUMPDEST PUSH1 0x40 MLOAD PUSH1 0x20 DUP2 DUP4 SUB SUB DUP2 MSTORE SWAP1 PUSH1 0x40 MSTORE SWAP1 POP SWAP1 JUMP JUMPDEST PUSH1 0x60 PUSH2 0x1505 PUSH2 0x1297 PUSH1 0x40 MLOAD DUP1 PUSH1 0x40 ADD PUSH1 0x40 MSTORE DUP1 PUSH1 0x1 DUP2 MSTORE PUSH1 0x20 ADD PUSH32 0x7800000000000000000000000000000000000000000000000000000000000000 DUP2 MSTORE POP PUSH1 0x40 MLOAD DUP1 PUSH1 0x40 ADD PUSH1 0x40 MSTORE DUP1 PUSH1 0x4 DUP2 MSTORE PUSH1 0x20 ADD PUSH32 0x372E352500000000000000000000000000000000000000000000000000000000 DUP2 MSTORE POP PUSH2 0x988 JUMP JUMPDEST PUSH2 0x130B PUSH1 0x40 MLOAD DUP1 PUSH1 0x40 ADD PUSH1 0x40 MSTORE DUP1 PUSH1 0x1 DUP2 MSTORE PUSH1 0x20 ADD PUSH32 0x7900000000000000000000000000000000000000000000000000000000000000 DUP2 MSTORE POP PUSH1 0x40 MLOAD DUP1 PUSH1 0x40 ADD PUSH1 0x40 MSTORE DUP1 PUSH1 0x5 DUP2 MSTORE PUSH1 0x20 ADD PUSH32 0x36372E3525000000000000000000000000000000000000000000000000000000 DUP2 MSTORE POP PUSH2 0x988 JUMP JUMPDEST PUSH2 0x137F PUSH1 0x40 MLOAD DUP1 PUSH1 0x40 ADD PUSH1 0x40 MSTORE DUP1 PUSH1 0x9 DUP2 MSTORE PUSH1 0x20 ADD PUSH32 0x666F6E742D73697A650000000000000000000000000000000000000000000000 DUP2 MSTORE POP PUSH1 0x40 MLOAD DUP1 PUSH1 0x40 ADD PUSH1 0x40 MSTORE DUP1 PUSH1 0x2 DUP2 MSTORE PUSH1 0x20 ADD PUSH32 0x3234000000000000000000000000000000000000000000000000000000000000 DUP2 MSTORE POP PUSH2 0x988 JUMP JUMPDEST PUSH2 0x13F3 PUSH1 0x40 MLOAD DUP1 PUSH1 0x40 ADD PUSH1 0x40 MSTORE DUP1 PUSH1 0x12 DUP2 MSTORE PUSH1 0x20 ADD PUSH32 0x616C69676E6D656E742D626173656C696E650000000000000000000000000000 DUP2 MSTORE POP PUSH1 0x40 MLOAD DUP1 PUSH1 0x40 ADD PUSH1 0x40 MSTORE DUP1 PUSH1 0x6 DUP2 MSTORE PUSH1 0x20 ADD PUSH32 0x6D6964646C650000000000000000000000000000000000000000000000000000 DUP2 MSTORE POP PUSH2 0x988 JUMP JUMPDEST PUSH2 0x1467 PUSH1 0x40 MLOAD DUP1 PUSH1 0x40 ADD PUSH1 0x40 MSTORE DUP1 PUSH1 0xB DUP2 MSTORE PUSH1 0x20 ADD PUSH32 0x746578742D616E63686F72000000000000000000000000000000000000000000 DUP2 MSTORE POP PUSH1 0x40 MLOAD DUP1 PUSH1 0x40 ADD PUSH1 0x40 MSTORE DUP1 PUSH1 0x5 DUP2 MSTORE PUSH1 0x20 ADD PUSH32 0x7374617274000000000000000000000000000000000000000000000000000000 DUP2 MSTORE POP PUSH2 0x988 JUMP JUMPDEST PUSH2 0x14DB PUSH1 0x40 MLOAD DUP1 PUSH1 0x40 ADD PUSH1 0x40 MSTORE DUP1 PUSH1 0x4 DUP2 MSTORE PUSH1 0x20 ADD PUSH32 0x66696C6C00000000000000000000000000000000000000000000000000000000 DUP2 MSTORE POP PUSH1 0x40 MLOAD DUP1 PUSH1 0x40 ADD PUSH1 0x40 MSTORE DUP1 PUSH1 0x5 DUP2 MSTORE PUSH1 0x20 ADD PUSH32 0x7768697465000000000000000000000000000000000000000000000000000000 DUP2 MSTORE POP PUSH2 0x988 JUMP JUMPDEST PUSH1 0x40 MLOAD PUSH1 0x20 ADD PUSH2 0x14F0 SWAP7 SWAP6 SWAP5 SWAP4 SWAP3 SWAP2 SWAP1 PUSH2 0x3D78 JUMP JUMPDEST PUSH1 0x40 MLOAD PUSH1 0x20 DUP2 DUP4 SUB SUB DUP2 MSTORE SWAP1 PUSH1 0x40 MSTORE DUP5 PUSH2 0x27D1 JUMP JUMPDEST PUSH2 0x17F2 PUSH2 0x157C PUSH1 0x40 MLOAD DUP1 PUSH1 0x40 ADD PUSH1 0x40 MSTORE DUP1 PUSH1 0x1 DUP2 MSTORE PUSH1 0x20 ADD PUSH32 0x7800000000000000000000000000000000000000000000000000000000000000 DUP2 MSTORE POP PUSH1 0x40 MLOAD DUP1 PUSH1 0x40 ADD PUSH1 0x40 MSTORE DUP1 PUSH1 0x4 DUP2 MSTORE PUSH1 0x20 ADD PUSH32 0x372E352500000000000000000000000000000000000000000000000000000000 DUP2 MSTORE POP PUSH2 0x988 JUMP JUMPDEST PUSH2 0x15F0 PUSH1 0x40 MLOAD DUP1 PUSH1 0x40 ADD PUSH1 0x40 MSTORE DUP1 PUSH1 0x1 DUP2 MSTORE PUSH1 0x20 ADD PUSH32 0x7900000000000000000000000000000000000000000000000000000000000000 DUP2 MSTORE POP PUSH1 0x40 MLOAD DUP1 PUSH1 0x40 ADD PUSH1 0x40 MSTORE DUP1 PUSH1 0x5 DUP2 MSTORE PUSH1 0x20 ADD PUSH32 0x37372E3525000000000000000000000000000000000000000000000000000000 DUP2 MSTORE POP PUSH2 0x988 JUMP JUMPDEST PUSH2 0x1664 PUSH1 0x40 MLOAD DUP1 PUSH1 0x40 ADD PUSH1 0x40 MSTORE DUP1 PUSH1 0x9 DUP2 MSTORE PUSH1 0x20 ADD PUSH32 0x666F6E742D73697A650000000000000000000000000000000000000000000000 DUP2 MSTORE POP PUSH1 0x40 MLOAD DUP1 PUSH1 0x40 ADD PUSH1 0x40 MSTORE DUP1 PUSH1 0x2 DUP2 MSTORE PUSH1 0x20 ADD PUSH32 0x3238000000000000000000000000000000000000000000000000000000000000 DUP2 MSTORE POP PUSH2 0x988 JUMP JUMPDEST PUSH2 0x16D8 PUSH1 0x40 MLOAD DUP1 PUSH1 0x40 ADD PUSH1 0x40 MSTORE DUP1 PUSH1 0x12 DUP2 MSTORE PUSH1 0x20 ADD PUSH32 0x616C69676E6D656E742D626173656C696E650000000000000000000000000000 DUP2 MSTORE POP PUSH1 0x40 MLOAD DUP1 PUSH1 0x40 ADD PUSH1 0x40 MSTORE DUP1 PUSH1 0x6 DUP2 MSTORE PUSH1 0x20 ADD PUSH32 0x6D6964646C650000000000000000000000000000000000000000000000000000 DUP2 MSTORE POP PUSH2 0x988 JUMP JUMPDEST PUSH2 0x174C PUSH1 0x40 MLOAD DUP1 PUSH1 0x40 ADD PUSH1 0x40 MSTORE DUP1 PUSH1 0xB DUP2 MSTORE PUSH1 0x20 ADD PUSH32 0x746578742D616E63686F72000000000000000000000000000000000000000000 DUP2 MSTORE POP PUSH1 0x40 MLOAD DUP1 PUSH1 0x40 ADD PUSH1 0x40 MSTORE DUP1 PUSH1 0x5 DUP2 MSTORE PUSH1 0x20 ADD PUSH32 0x7374617274000000000000000000000000000000000000000000000000000000 DUP2 MSTORE POP PUSH2 0x988 JUMP JUMPDEST PUSH2 0x17C0 PUSH1 0x40 MLOAD DUP1 PUSH1 0x40 ADD PUSH1 0x40 MSTORE DUP1 PUSH1 0x4 DUP2 MSTORE PUSH1 0x20 ADD PUSH32 0x66696C6C00000000000000000000000000000000000000000000000000000000 DUP2 MSTORE POP PUSH1 0x40 MLOAD DUP1 PUSH1 0x40 ADD PUSH1 0x40 MSTORE DUP1 PUSH1 0x5 DUP2 MSTORE PUSH1 0x20 ADD PUSH32 0x7768697465000000000000000000000000000000000000000000000000000000 DUP2 MSTORE POP PUSH2 0x988 JUMP JUMPDEST PUSH1 0x40 MLOAD PUSH1 0x20 ADD PUSH2 0x17D5 SWAP7 SWAP6 SWAP5 SWAP4 SWAP3 SWAP2 SWAP1 PUSH2 0x3D78 JUMP JUMPDEST PUSH1 0x40 MLOAD PUSH1 0x20 DUP2 DUP4 SUB SUB DUP2 MSTORE SWAP1 PUSH1 0x40 MSTORE PUSH2 0x17ED DUP8 PUSH2 0x29C1 JUMP JUMPDEST PUSH2 0x27D1 JUMP JUMPDEST PUSH2 0x1B4C PUSH2 0x1869 PUSH1 0x40 MLOAD DUP1 PUSH1 0x40 ADD PUSH1 0x40 MSTORE DUP1 PUSH1 0x1 DUP2 MSTORE PUSH1 0x20 ADD PUSH32 0x7800000000000000000000000000000000000000000000000000000000000000 DUP2 MSTORE POP PUSH1 0x40 MLOAD DUP1 PUSH1 0x40 ADD PUSH1 0x40 MSTORE DUP1 PUSH1 0x4 DUP2 MSTORE PUSH1 0x20 ADD PUSH32 0x372E352500000000000000000000000000000000000000000000000000000000 DUP2 MSTORE POP PUSH2 0x988 JUMP JUMPDEST PUSH2 0x18DD PUSH1 0x40 MLOAD DUP1 PUSH1 0x40 ADD PUSH1 0x40 MSTORE DUP1 PUSH1 0x1 DUP2 MSTORE PUSH1 0x20 ADD PUSH32 0x7900000000000000000000000000000000000000000000000000000000000000 DUP2 MSTORE POP PUSH1 0x40 MLOAD DUP1 PUSH1 0x40 ADD PUSH1 0x40 MSTORE DUP1 PUSH1 0x5 DUP2 MSTORE PUSH1 0x20 ADD PUSH32 0x38372E3525000000000000000000000000000000000000000000000000000000 DUP2 MSTORE POP PUSH2 0x988 JUMP JUMPDEST PUSH2 0x1951 PUSH1 0x40 MLOAD DUP1 PUSH1 0x40 ADD PUSH1 0x40 MSTORE DUP1 PUSH1 0x9 DUP2 MSTORE PUSH1 0x20 ADD PUSH32 0x666F6E742D73697A650000000000000000000000000000000000000000000000 DUP2 MSTORE POP PUSH1 0x40 MLOAD DUP1 PUSH1 0x40 ADD PUSH1 0x40 MSTORE DUP1 PUSH1 0x2 DUP2 MSTORE PUSH1 0x20 ADD PUSH32 0x3134000000000000000000000000000000000000000000000000000000000000 DUP2 MSTORE POP PUSH2 0x988 JUMP JUMPDEST PUSH2 0x19C5 PUSH1 0x40 MLOAD DUP1 PUSH1 0x40 ADD PUSH1 0x40 MSTORE DUP1 PUSH1 0xB DUP2 MSTORE PUSH1 0x20 ADD PUSH32 0x666F6E742D776569676874000000000000000000000000000000000000000000 DUP2 MSTORE POP PUSH1 0x40 MLOAD DUP1 PUSH1 0x40 ADD PUSH1 0x40 MSTORE DUP1 PUSH1 0x3 DUP2 MSTORE PUSH1 0x20 ADD PUSH32 0x3330300000000000000000000000000000000000000000000000000000000000 DUP2 MSTORE POP PUSH2 0x988 JUMP JUMPDEST PUSH2 0x1A39 PUSH1 0x40 MLOAD DUP1 PUSH1 0x40 ADD PUSH1 0x40 MSTORE DUP1 PUSH1 0x12 DUP2 MSTORE PUSH1 0x20 ADD PUSH32 0x616C69676E6D656E742D626173656C696E650000000000000000000000000000 DUP2 MSTORE POP PUSH1 0x40 MLOAD DUP1 PUSH1 0x40 ADD PUSH1 0x40 MSTORE DUP1 PUSH1 0x6 DUP2 MSTORE PUSH1 0x20 ADD PUSH32 0x6D6964646C650000000000000000000000000000000000000000000000000000 DUP2 MSTORE POP PUSH2 0x988 JUMP JUMPDEST PUSH2 0x1AAD PUSH1 0x40 MLOAD DUP1 PUSH1 0x40 ADD PUSH1 0x40 MSTORE DUP1 PUSH1 0xB DUP2 MSTORE PUSH1 0x20 ADD PUSH32 0x746578742D616E63686F72000000000000000000000000000000000000000000 DUP2 MSTORE POP PUSH1 0x40 MLOAD DUP1 PUSH1 0x40 ADD PUSH1 0x40 MSTORE DUP1 PUSH1 0x5 DUP2 MSTORE PUSH1 0x20 ADD PUSH32 0x7374617274000000000000000000000000000000000000000000000000000000 DUP2 MSTORE POP PUSH2 0x988 JUMP JUMPDEST PUSH2 0x1B21 PUSH1 0x40 MLOAD DUP1 PUSH1 0x40 ADD PUSH1 0x40 MSTORE DUP1 PUSH1 0x4 DUP2 MSTORE PUSH1 0x20 ADD PUSH32 0x66696C6C00000000000000000000000000000000000000000000000000000000 DUP2 MSTORE POP PUSH1 0x40 MLOAD DUP1 PUSH1 0x40 ADD PUSH1 0x40 MSTORE DUP1 PUSH1 0x5 DUP2 MSTORE PUSH1 0x20 ADD PUSH32 0x7768697465000000000000000000000000000000000000000000000000000000 DUP2 MSTORE POP PUSH2 0x988 JUMP JUMPDEST PUSH1 0x40 MLOAD PUSH1 0x20 ADD PUSH2 0x1B37 SWAP8 SWAP7 SWAP6 SWAP5 SWAP4 SWAP3 SWAP2 SWAP1 PUSH2 0x3ED1 JUMP JUMPDEST PUSH1 0x40 MLOAD PUSH1 0x20 DUP2 DUP4 SUB SUB DUP2 MSTORE SWAP1 PUSH1 0x40 MSTORE DUP6 PUSH2 0x27D1 JUMP JUMPDEST PUSH1 0x40 MLOAD PUSH1 0x20 ADD PUSH2 0x1B5E SWAP4 SWAP3 SWAP2 SWAP1 PUSH2 0x3615 JUMP JUMPDEST PUSH1 0x40 MLOAD PUSH1 0x20 DUP2 DUP4 SUB SUB DUP2 MSTORE SWAP1 PUSH1 0x40 MSTORE SWAP1 POP SWAP4 SWAP3 POP POP POP JUMP JUMPDEST PUSH1 0x60 PUSH1 0x0 PUSH1 0x60 PUSH1 0x1 CHAINID SUB PUSH2 0x1BE7 JUMPI PUSH1 0x40 MLOAD DUP1 PUSH1 0x40 ADD PUSH1 0x40 MSTORE DUP1 PUSH1 0x8 DUP2 MSTORE PUSH1 0x20 ADD PUSH32 0x457468657265756D000000000000000000000000000000000000000000000000 DUP2 MSTORE POP SWAP1 POP PUSH32 0x49434F4E5F4E4554574F524B5F455448455245554D0000000000000000000000 PUSH1 0x0 SHL SWAP2 POP PUSH2 0x1D8B JUMP JUMPDEST PUSH1 0xA CHAINID SUB PUSH2 0x1C52 JUMPI PUSH1 0x40 MLOAD DUP1 PUSH1 0x40 ADD PUSH1 0x40 MSTORE DUP1 PUSH1 0x8 DUP2 MSTORE PUSH1 0x20 ADD PUSH32 0x4F7074696D69736D000000000000000000000000000000000000000000000000 DUP2 MSTORE POP SWAP1 POP PUSH32 0x49434F4E5F4E4554574F524B5F4F5054494D49534D0000000000000000000000 PUSH1 0x0 SHL SWAP2 POP PUSH2 0x1D8A JUMP JUMPDEST PUSH1 0x89 CHAINID SUB PUSH2 0x1CBD JUMPI PUSH1 0x40 MLOAD DUP1 PUSH1 0x40 ADD PUSH1 0x40 MSTORE DUP1 PUSH1 0x7 DUP2 MSTORE PUSH1 0x20 ADD PUSH32 0x506F6C79676F6E00000000000000000000000000000000000000000000000000 DUP2 MSTORE POP SWAP1 POP PUSH32 0x49434F4E5F4E4554574F524B5F504F4C59474F4E000000000000000000000000 PUSH1 0x0 SHL SWAP2 POP PUSH2 0x1D89 JUMP JUMPDEST PUSH2 0xA4B1 CHAINID SUB PUSH2 0x1D29 JUMPI PUSH1 0x40 MLOAD DUP1 PUSH1 0x40 ADD PUSH1 0x40 MSTORE DUP1 PUSH1 0x8 DUP2 MSTORE PUSH1 0x20 ADD PUSH32 0x417262697472756D000000000000000000000000000000000000000000000000 DUP2 MSTORE POP SWAP1 POP PUSH32 0x49434F4E5F4E4554574F524B5F415242495452554D0000000000000000000000 PUSH1 0x0 SHL SWAP2 POP PUSH2 0x1D88 JUMP JUMPDEST PUSH1 0x40 MLOAD DUP1 PUSH1 0x40 ADD PUSH1 0x40 MSTORE DUP1 PUSH1 0x7 DUP2 MSTORE PUSH1 0x20 ADD PUSH32 0x556E6B6E6F776E00000000000000000000000000000000000000000000000000 DUP2 MSTORE POP SWAP1 POP PUSH32 0x49434F4E5F4E4554574F524B5F54455354000000000000000000000000000000 PUSH1 0x0 SHL SWAP2 POP JUMPDEST JUMPDEST JUMPDEST JUMPDEST PUSH2 0x2070 PUSH2 0x1E02 PUSH1 0x40 MLOAD DUP1 PUSH1 0x40 ADD PUSH1 0x40 MSTORE DUP1 PUSH1 0x1 DUP2 MSTORE PUSH1 0x20 ADD PUSH32 0x7800000000000000000000000000000000000000000000000000000000000000 DUP2 MSTORE POP PUSH1 0x40 MLOAD DUP1 PUSH1 0x40 ADD PUSH1 0x40 MSTORE DUP1 PUSH1 0x3 DUP2 MSTORE PUSH1 0x20 ADD PUSH32 0x3835250000000000000000000000000000000000000000000000000000000000 DUP2 MSTORE POP PUSH2 0x988 JUMP JUMPDEST PUSH2 0x1E76 PUSH1 0x40 MLOAD DUP1 PUSH1 0x40 ADD PUSH1 0x40 MSTORE DUP1 PUSH1 0x1 DUP2 MSTORE PUSH1 0x20 ADD PUSH32 0x7900000000000000000000000000000000000000000000000000000000000000 DUP2 MSTORE POP PUSH1 0x40 MLOAD DUP1 PUSH1 0x40 ADD PUSH1 0x40 MSTORE DUP1 PUSH1 0x3 DUP2 MSTORE PUSH1 0x20 ADD PUSH32 0x3830250000000000000000000000000000000000000000000000000000000000 DUP2 MSTORE POP PUSH2 0x988 JUMP JUMPDEST PUSH2 0x1EEA PUSH1 0x40 MLOAD DUP1 PUSH1 0x40 ADD PUSH1 0x40 MSTORE DUP1 PUSH1 0x9 DUP2 MSTORE PUSH1 0x20 ADD PUSH32 0x666F6E742D73697A650000000000000000000000000000000000000000000000 DUP2 MSTORE POP PUSH1 0x40 MLOAD DUP1 PUSH1 0x40 ADD PUSH1 0x40 MSTORE DUP1 PUSH1 0x2 DUP2 MSTORE PUSH1 0x20 ADD PUSH32 0x3138000000000000000000000000000000000000000000000000000000000000 DUP2 MSTORE POP PUSH2 0x988 JUMP JUMPDEST PUSH2 0x1F5E PUSH1 0x40 MLOAD DUP1 PUSH1 0x40 ADD PUSH1 0x40 MSTORE DUP1 PUSH1 0x12 DUP2 MSTORE PUSH1 0x20 ADD PUSH32 0x616C69676E6D656E742D626173656C696E650000000000000000000000000000 DUP2 MSTORE POP PUSH1 0x40 MLOAD DUP1 PUSH1 0x40 ADD PUSH1 0x40 MSTORE DUP1 PUSH1 0x6 DUP2 MSTORE PUSH1 0x20 ADD PUSH32 0x6D6964646C650000000000000000000000000000000000000000000000000000 DUP2 MSTORE POP PUSH2 0x988 JUMP JUMPDEST PUSH2 0x1FD2 PUSH1 0x40 MLOAD DUP1 PUSH1 0x40 ADD PUSH1 0x40 MSTORE DUP1 PUSH1 0xB DUP2 MSTORE PUSH1 0x20 ADD PUSH32 0x746578742D616E63686F72000000000000000000000000000000000000000000 DUP2 MSTORE POP PUSH1 0x40 MLOAD DUP1 PUSH1 0x40 ADD PUSH1 0x40 MSTORE DUP1 PUSH1 0x3 DUP2 MSTORE PUSH1 0x20 ADD PUSH32 0x656E640000000000000000000000000000000000000000000000000000000000 DUP2 MSTORE POP PUSH2 0x988 JUMP JUMPDEST PUSH2 0x2046 PUSH1 0x40 MLOAD DUP1 PUSH1 0x40 ADD PUSH1 0x40 MSTORE DUP1 PUSH1 0x4 DUP2 MSTORE PUSH1 0x20 ADD PUSH32 0x66696C6C00000000000000000000000000000000000000000000000000000000 DUP2 MSTORE POP PUSH1 0x40 MLOAD DUP1 PUSH1 0x40 ADD PUSH1 0x40 MSTORE DUP1 PUSH1 0x5 DUP2 MSTORE PUSH1 0x20 ADD PUSH32 0x7768697465000000000000000000000000000000000000000000000000000000 DUP2 MSTORE POP PUSH2 0x988 JUMP JUMPDEST PUSH1 0x40 MLOAD PUSH1 0x20 ADD PUSH2 0x205B SWAP7 SWAP6 SWAP5 SWAP4 SWAP3 SWAP2 SWAP1 PUSH2 0x3D78 JUMP JUMPDEST PUSH1 0x40 MLOAD PUSH1 0x20 DUP2 DUP4 SUB SUB DUP2 MSTORE SWAP1 PUSH1 0x40 MSTORE DUP3 PUSH2 0x27D1 JUMP JUMPDEST PUSH2 0x2157 PUSH2 0x20E7 PUSH1 0x40 MLOAD DUP1 PUSH1 0x40 ADD PUSH1 0x40 MSTORE DUP1 PUSH1 0x9 DUP2 MSTORE PUSH1 0x20 ADD PUSH32 0x7472616E73666F726D0000000000000000000000000000000000000000000000 DUP2 MSTORE POP PUSH1 0x40 MLOAD DUP1 PUSH1 0x40 ADD PUSH1 0x40 MSTORE DUP1 PUSH1 0x12 DUP2 MSTORE PUSH1 0x20 ADD PUSH32 0x7472616E736C617465283434302C323235290000000000000000000000000000 DUP2 MSTORE POP PUSH2 0x988 JUMP JUMPDEST PUSH1 0x40 MLOAD PUSH1 0x20 ADD PUSH2 0x20F7 SWAP2 SWAP1 PUSH2 0x3E90 JUMP JUMPDEST PUSH1 0x40 MLOAD PUSH1 0x20 DUP2 DUP4 SUB SUB DUP2 MSTORE SWAP1 PUSH1 0x40 MSTORE PUSH2 0x2152 PUSH32 0x574542335F415353455453000000000000000000000000000000000000000000 PUSH1 0x0 SHL DUP7 PUSH1 0x40 MLOAD PUSH1 0x20 ADD PUSH2 0x213E SWAP2 SWAP1 PUSH2 0x3EB6 JUMP JUMPDEST PUSH1 0x40 MLOAD PUSH1 0x20 DUP2 DUP4 SUB SUB DUP2 MSTORE SWAP1 PUSH1 0x40 MSTORE PUSH2 0x28CA JUMP JUMPDEST PUSH2 0x2977 JUMP JUMPDEST PUSH1 0x40 MLOAD PUSH1 0x20 ADD PUSH2 0x2168 SWAP3 SWAP2 SWAP1 PUSH2 0x32DB JUMP JUMPDEST PUSH1 0x40 MLOAD PUSH1 0x20 DUP2 DUP4 SUB SUB DUP2 MSTORE SWAP1 PUSH1 0x40 MSTORE SWAP3 POP POP POP SWAP1 JUMP JUMPDEST PUSH1 0x60 PUSH2 0x249A PUSH2 0x21F7 PUSH1 0x40 MLOAD DUP1 PUSH1 0x40 ADD PUSH1 0x40 MSTORE DUP1 PUSH1 0x1 DUP2 MSTORE PUSH1 0x20 ADD PUSH32 0x7800000000000000000000000000000000000000000000000000000000000000 DUP2 MSTORE POP PUSH1 0x40 MLOAD DUP1 PUSH1 0x40 ADD PUSH1 0x40 MSTORE DUP1 PUSH1 0x3 DUP2 MSTORE PUSH1 0x20 ADD PUSH32 0x3935250000000000000000000000000000000000000000000000000000000000 DUP2 MSTORE POP PUSH2 0x988 JUMP JUMPDEST PUSH2 0x226B PUSH1 0x40 MLOAD DUP1 PUSH1 0x40 ADD PUSH1 0x40 MSTORE DUP1 PUSH1 0x1 DUP2 MSTORE PUSH1 0x20 ADD PUSH32 0x7900000000000000000000000000000000000000000000000000000000000000 DUP2 MSTORE POP PUSH1 0x40 MLOAD DUP1 PUSH1 0x40 ADD PUSH1 0x40 MSTORE DUP1 PUSH1 0x3 DUP2 MSTORE PUSH1 0x20 ADD PUSH32 0x3530250000000000000000000000000000000000000000000000000000000000 DUP2 MSTORE POP PUSH2 0x988 JUMP JUMPDEST PUSH2 0x22DF PUSH1 0x40 MLOAD DUP1 PUSH1 0x40 ADD PUSH1 0x40 MSTORE DUP1 PUSH1 0x9 DUP2 MSTORE PUSH1 0x20 ADD PUSH32 0x666F6E742D73697A650000000000000000000000000000000000000000000000 DUP2 MSTORE POP PUSH1 0x40 MLOAD DUP1 PUSH1 0x40 ADD PUSH1 0x40 MSTORE DUP1 PUSH1 0x2 DUP2 MSTORE PUSH1 0x20 ADD PUSH32 0x3134000000000000000000000000000000000000000000000000000000000000 DUP2 MSTORE POP PUSH2 0x988 JUMP JUMPDEST PUSH2 0x2353 PUSH1 0x40 MLOAD DUP1 PUSH1 0x40 ADD PUSH1 0x40 MSTORE DUP1 PUSH1 0x12 DUP2 MSTORE PUSH1 0x20 ADD PUSH32 0x616C69676E6D656E742D626173656C696E650000000000000000000000000000 DUP2 MSTORE POP PUSH1 0x40 MLOAD DUP1 PUSH1 0x40 ADD PUSH1 0x40 MSTORE DUP1 PUSH1 0x6 DUP2 MSTORE PUSH1 0x20 ADD PUSH32 0x6D6964646C650000000000000000000000000000000000000000000000000000 DUP2 MSTORE POP PUSH2 0x988 JUMP JUMPDEST PUSH2 0x23C7 PUSH1 0x40 MLOAD DUP1 PUSH1 0x40 ADD PUSH1 0x40 MSTORE DUP1 PUSH1 0xB DUP2 MSTORE PUSH1 0x20 ADD PUSH32 0x746578742D616E63686F72000000000000000000000000000000000000000000 DUP2 MSTORE POP PUSH1 0x40 MLOAD DUP1 PUSH1 0x40 ADD PUSH1 0x40 MSTORE DUP1 PUSH1 0x3 DUP2 MSTORE PUSH1 0x20 ADD PUSH32 0x656E640000000000000000000000000000000000000000000000000000000000 DUP2 MSTORE POP PUSH2 0x988 JUMP JUMPDEST PUSH2 0x243B PUSH1 0x40 MLOAD DUP1 PUSH1 0x40 ADD PUSH1 0x40 MSTORE DUP1 PUSH1 0x4 DUP2 MSTORE PUSH1 0x20 ADD PUSH32 0x66696C6C00000000000000000000000000000000000000000000000000000000 DUP2 MSTORE POP PUSH1 0x40 MLOAD DUP1 PUSH1 0x40 ADD PUSH1 0x40 MSTORE DUP1 PUSH1 0x5 DUP2 MSTORE PUSH1 0x20 ADD PUSH32 0x7768697465000000000000000000000000000000000000000000000000000000 DUP2 MSTORE POP PUSH2 0x988 JUMP JUMPDEST PUSH1 0x40 MLOAD PUSH1 0x20 ADD PUSH2 0x2450 SWAP7 SWAP6 SWAP5 SWAP4 SWAP3 SWAP2 SWAP1 PUSH2 0x3D78 JUMP JUMPDEST PUSH1 0x40 MLOAD PUSH1 0x20 DUP2 DUP4 SUB SUB DUP2 MSTORE SWAP1 PUSH1 0x40 MSTORE PUSH1 0x40 MLOAD DUP1 PUSH1 0x40 ADD PUSH1 0x40 MSTORE DUP1 PUSH1 0xB DUP2 MSTORE PUSH1 0x20 ADD PUSH32 0x363020446179204176672E000000000000000000000000000000000000000000 DUP2 MSTORE POP PUSH2 0x27D1 JUMP JUMPDEST PUSH2 0x27AA PUSH2 0x2511 PUSH1 0x40 MLOAD DUP1 PUSH1 0x40 ADD PUSH1 0x40 MSTORE DUP1 PUSH1 0x1 DUP2 MSTORE PUSH1 0x20 ADD PUSH32 0x7800000000000000000000000000000000000000000000000000000000000000 DUP2 MSTORE POP PUSH1 0x40 MLOAD DUP1 PUSH1 0x40 ADD PUSH1 0x40 MSTORE DUP1 PUSH1 0x3 DUP2 MSTORE PUSH1 0x20 ADD PUSH32 0x3935250000000000000000000000000000000000000000000000000000000000 DUP2 MSTORE POP PUSH2 0x988 JUMP JUMPDEST PUSH2 0x2585 PUSH1 0x40 MLOAD DUP1 PUSH1 0x40 ADD PUSH1 0x40 MSTORE DUP1 PUSH1 0x1 DUP2 MSTORE PUSH1 0x20 ADD PUSH32 0x7900000000000000000000000000000000000000000000000000000000000000 DUP2 MSTORE POP PUSH1 0x40 MLOAD DUP1 PUSH1 0x40 ADD PUSH1 0x40 MSTORE DUP1 PUSH1 0x3 DUP2 MSTORE PUSH1 0x20 ADD PUSH32 0x3630250000000000000000000000000000000000000000000000000000000000 DUP2 MSTORE POP PUSH2 0x988 JUMP JUMPDEST PUSH2 0x25F9 PUSH1 0x40 MLOAD DUP1 PUSH1 0x40 ADD PUSH1 0x40 MSTORE DUP1 PUSH1 0x9 DUP2 MSTORE PUSH1 0x20 ADD PUSH32 0x666F6E742D73697A650000000000000000000000000000000000000000000000 DUP2 MSTORE POP PUSH1 0x40 MLOAD DUP1 PUSH1 0x40 ADD PUSH1 0x40 MSTORE DUP1 PUSH1 0x2 DUP2 MSTORE PUSH1 0x20 ADD PUSH32 0x3234000000000000000000000000000000000000000000000000000000000000 DUP2 MSTORE POP PUSH2 0x988 JUMP JUMPDEST PUSH2 0x266D PUSH1 0x40 MLOAD DUP1 PUSH1 0x40 ADD PUSH1 0x40 MSTORE DUP1 PUSH1 0x12 DUP2 MSTORE PUSH1 0x20 ADD PUSH32 0x616C69676E6D656E742D626173656C696E650000000000000000000000000000 DUP2 MSTORE POP PUSH1 0x40 MLOAD DUP1 PUSH1 0x40 ADD PUSH1 0x40 MSTORE DUP1 PUSH1 0x6 DUP2 MSTORE PUSH1 0x20 ADD PUSH32 0x6D6964646C650000000000000000000000000000000000000000000000000000 DUP2 MSTORE POP PUSH2 0x988 JUMP JUMPDEST PUSH2 0x26E1 PUSH1 0x40 MLOAD DUP1 PUSH1 0x40 ADD PUSH1 0x40 MSTORE DUP1 PUSH1 0xB DUP2 MSTORE PUSH1 0x20 ADD PUSH32 0x746578742D616E63686F72000000000000000000000000000000000000000000 DUP2 MSTORE POP PUSH1 0x40 MLOAD DUP1 PUSH1 0x40 ADD PUSH1 0x40 MSTORE DUP1 PUSH1 0x3 DUP2 MSTORE PUSH1 0x20 ADD PUSH32 0x656E640000000000000000000000000000000000000000000000000000000000 DUP2 MSTORE POP PUSH2 0x988 JUMP JUMPDEST PUSH2 0x2755 PUSH1 0x40 MLOAD DUP1 PUSH1 0x40 ADD PUSH1 0x40 MSTORE DUP1 PUSH1 0x4 DUP2 MSTORE PUSH1 0x20 ADD PUSH32 0x66696C6C00000000000000000000000000000000000000000000000000000000 DUP2 MSTORE POP PUSH1 0x40 MLOAD DUP1 PUSH1 0x40 ADD PUSH1 0x40 MSTORE DUP1 PUSH1 0x5 DUP2 MSTORE PUSH1 0x20 ADD PUSH32 0x7768697465000000000000000000000000000000000000000000000000000000 DUP2 MSTORE POP PUSH2 0x988 JUMP JUMPDEST PUSH1 0x40 MLOAD PUSH1 0x20 ADD PUSH2 0x276A SWAP7 SWAP6 SWAP5 SWAP4 SWAP3 SWAP2 SWAP1 PUSH2 0x3D78 JUMP JUMPDEST PUSH1 0x40 MLOAD PUSH1 0x20 DUP2 DUP4 SUB SUB DUP2 MSTORE SWAP1 PUSH1 0x40 MSTORE PUSH2 0x2786 DUP6 PUSH1 0x6 PUSH1 0x2 PUSH2 0x281B JUMP JUMPDEST PUSH1 0x40 MLOAD PUSH1 0x20 ADD PUSH2 0x2796 SWAP2 SWAP1 PUSH2 0x3E6A JUMP JUMPDEST PUSH1 0x40 MLOAD PUSH1 0x20 DUP2 DUP4 SUB SUB DUP2 MSTORE SWAP1 PUSH1 0x40 MSTORE PUSH2 0x27D1 JUMP JUMPDEST PUSH1 0x40 MLOAD PUSH1 0x20 ADD PUSH2 0x27BB SWAP3 SWAP2 SWAP1 PUSH2 0x32DB JUMP JUMPDEST PUSH1 0x40 MLOAD PUSH1 0x20 DUP2 DUP4 SUB SUB DUP2 MSTORE SWAP1 PUSH1 0x40 MSTORE SWAP1 POP SWAP2 SWAP1 POP JUMP JUMPDEST PUSH1 0x60 PUSH2 0x2813 PUSH1 0x40 MLOAD DUP1 PUSH1 0x40 ADD PUSH1 0x40 MSTORE DUP1 PUSH1 0x4 DUP2 MSTORE PUSH1 0x20 ADD PUSH32 0x7465787400000000000000000000000000000000000000000000000000000000 DUP2 MSTORE POP DUP5 DUP5 PUSH2 0x2AB2 JUMP JUMPDEST SWAP1 POP SWAP3 SWAP2 POP POP JUMP JUMPDEST PUSH1 0x60 PUSH2 0x283D DUP4 PUSH1 0xA PUSH2 0x282D SWAP2 SWAP1 PUSH2 0x4076 JUMP JUMPDEST DUP6 PUSH2 0x2838 SWAP2 SWAP1 PUSH2 0x3AFB JUMP JUMPDEST PUSH2 0x2AE3 JUMP JUMPDEST PUSH2 0x28A1 DUP4 PUSH1 0xA PUSH2 0x284D SWAP2 SWAP1 PUSH2 0x4076 JUMP JUMPDEST DUP6 PUSH1 0xA PUSH2 0x285A SWAP2 SWAP1 PUSH2 0x4076 JUMP JUMPDEST DUP8 PUSH2 0x2865 SWAP2 SWAP1 PUSH2 0x3AFB JUMP JUMPDEST PUSH2 0x286F SWAP2 SWAP1 PUSH2 0x3B2C JUMP JUMPDEST DUP5 DUP7 PUSH2 0x287B SWAP2 SWAP1 PUSH2 0x40C1 JUMP JUMPDEST PUSH1 0xA PUSH2 0x2887 SWAP2 SWAP1 PUSH2 0x4076 JUMP JUMPDEST DUP8 PUSH2 0x2892 SWAP2 SWAP1 PUSH2 0x3AFB JUMP JUMPDEST PUSH2 0x289C SWAP2 SWAP1 PUSH2 0x40F5 JUMP JUMPDEST PUSH2 0x2AE3 JUMP JUMPDEST PUSH1 0x40 MLOAD PUSH1 0x20 ADD PUSH2 0x28B2 SWAP3 SWAP2 SWAP1 PUSH2 0x4175 JUMP JUMPDEST PUSH1 0x40 MLOAD PUSH1 0x20 DUP2 DUP4 SUB SUB DUP2 MSTORE SWAP1 PUSH1 0x40 MSTORE SWAP1 POP SWAP4 SWAP3 POP POP POP JUMP JUMPDEST PUSH1 0x60 PUSH1 0x2 PUSH1 0x0 SWAP1 SLOAD SWAP1 PUSH2 0x100 EXP SWAP1 DIV PUSH20 0xFFFFFFFFFFFFFFFFFFFFFFFFFFFFFFFFFFFFFFFF AND PUSH20 0xFFFFFFFFFFFFFFFFFFFFFFFFFFFFFFFFFFFFFFFF AND PUSH4 0x3A68F5DB DUP5 DUP5 PUSH1 0x40 MLOAD DUP4 PUSH4 0xFFFFFFFF AND PUSH1 0xE0 SHL DUP2 MSTORE PUSH1 0x4 ADD PUSH2 0x2929 SWAP3 SWAP2 SWAP1 PUSH2 0x41F9 JUMP JUMPDEST PUSH1 0x0 PUSH1 0x40 MLOAD DUP1 DUP4 SUB DUP2 DUP7 GAS STATICCALL ISZERO DUP1 ISZERO PUSH2 0x2946 JUMPI RETURNDATASIZE PUSH1 0x0 DUP1 RETURNDATACOPY RETURNDATASIZE PUSH1 0x0 REVERT JUMPDEST POP POP POP POP PUSH1 0x40 MLOAD RETURNDATASIZE PUSH1 0x0 DUP3 RETURNDATACOPY RETURNDATASIZE PUSH1 0x1F NOT PUSH1 0x1F DUP3 ADD AND DUP3 ADD DUP1 PUSH1 0x40 MSTORE POP DUP2 ADD SWAP1 PUSH2 0x296F SWAP2 SWAP1 PUSH2 0x4229 JUMP JUMPDEST SWAP1 POP SWAP3 SWAP2 POP POP JUMP JUMPDEST PUSH1 0x60 PUSH2 0x29B9 PUSH1 0x40 MLOAD DUP1 PUSH1 0x40 ADD PUSH1 0x40 MSTORE DUP1 PUSH1 0x1 DUP2 MSTORE PUSH1 0x20 ADD PUSH32 0x6700000000000000000000000000000000000000000000000000000000000000 DUP2 MSTORE POP DUP5 DUP5 PUSH2 0x2AB2 JUMP JUMPDEST SWAP1 POP SWAP3 SWAP2 POP POP JUMP JUMPDEST PUSH1 0x60 PUSH1 0x0 PUSH2 0x29E6 DUP4 PUSH20 0xFFFFFFFFFFFFFFFFFFFFFFFFFFFFFFFFFFFFFFFF AND PUSH1 0x14 PUSH2 0x2C43 JUMP JUMPDEST SWAP1 POP PUSH1 0x0 PUSH2 0x2A16 DUP3 PUSH1 0x40 MLOAD PUSH1 0x20 ADD PUSH2 0x29FE SWAP2 SWAP1 PUSH2 0x3E90 JUMP JUMPDEST PUSH1 0x40 MLOAD PUSH1 0x20 DUP2 DUP4 SUB SUB DUP2 MSTORE SWAP1 PUSH1 0x40 MSTORE PUSH1 0x0 PUSH1 0x6 PUSH2 0x2E7F JUMP JUMPDEST SWAP1 POP PUSH1 0x0 PUSH2 0x2A46 DUP4 PUSH1 0x40 MLOAD PUSH1 0x20 ADD PUSH2 0x2A2E SWAP2 SWAP1 PUSH2 0x3E90 JUMP JUMPDEST PUSH1 0x40 MLOAD PUSH1 0x20 DUP2 DUP4 SUB SUB DUP2 MSTORE SWAP1 PUSH1 0x40 MSTORE PUSH1 0x25 PUSH1 0x4 PUSH2 0x2E7F JUMP JUMPDEST SWAP1 POP DUP2 PUSH1 0x40 MLOAD PUSH1 0x20 ADD PUSH2 0x2A59 SWAP2 SWAP1 PUSH2 0x42AE JUMP JUMPDEST PUSH1 0x40 MLOAD PUSH1 0x20 DUP2 DUP4 SUB SUB DUP2 MSTORE SWAP1 PUSH1 0x40 MSTORE DUP2 PUSH1 0x40 MLOAD PUSH1 0x20 ADD PUSH2 0x2A79 SWAP2 SWAP1 PUSH2 0x42AE JUMP JUMPDEST PUSH1 0x40 MLOAD PUSH1 0x20 DUP2 DUP4 SUB SUB DUP2 MSTORE SWAP1 PUSH1 0x40 MSTORE PUSH1 0x40 MLOAD PUSH1 0x20 ADD PUSH2 0x2A99 SWAP3 SWAP2 SWAP1 PUSH2 0x42EB JUMP JUMPDEST PUSH1 0x40 MLOAD PUSH1 0x20 DUP2 DUP4 SUB SUB DUP2 MSTORE SWAP1 PUSH1 0x40 MSTORE SWAP4 POP POP POP POP SWAP2 SWAP1 POP JUMP JUMPDEST PUSH1 0x60 DUP4 DUP4 DUP4 DUP7 PUSH1 0x40 MLOAD PUSH1 0x20 ADD PUSH2 0x2ACB SWAP5 SWAP4 SWAP3 SWAP2 SWAP1 PUSH2 0x436A JUMP JUMPDEST PUSH1 0x40 MLOAD PUSH1 0x20 DUP2 DUP4 SUB SUB DUP2 MSTORE SWAP1 PUSH1 0x40 MSTORE SWAP1 POP SWAP4 SWAP3 POP POP POP JUMP JUMPDEST PUSH1 0x60 PUSH1 0x0 DUP3 SUB PUSH2 0x2B2A JUMPI PUSH1 0x40 MLOAD DUP1 PUSH1 0x40 ADD PUSH1 0x40 MSTORE DUP1 PUSH1 0x1 DUP2 MSTORE PUSH1 0x20 ADD PUSH32 0x3000000000000000000000000000000000000000000000000000000000000000 DUP2 MSTORE POP SWAP1 POP PUSH2 0x2C3E JUMP JUMPDEST PUSH1 0x0 DUP3 SWAP1 POP PUSH1 0x0 JUMPDEST PUSH1 0x0 DUP3 EQ PUSH2 0x2B5C JUMPI DUP1 DUP1 PUSH2 0x2B45 SWAP1 PUSH2 0x43F3 JUMP JUMPDEST SWAP2 POP POP PUSH1 0xA DUP3 PUSH2 0x2B55 SWAP2 SWAP1 PUSH2 0x3AFB JUMP JUMPDEST SWAP2 POP PUSH2 0x2B32 JUMP JUMPDEST PUSH1 0x0 DUP2 PUSH8 0xFFFFFFFFFFFFFFFF DUP2 GT ISZERO PUSH2 0x2B78 JUMPI PUSH2 0x2B77 PUSH2 0x2FCC JUMP JUMPDEST JUMPDEST PUSH1 0x40 MLOAD SWAP1 DUP1 DUP3 MSTORE DUP1 PUSH1 0x1F ADD PUSH1 0x1F NOT AND PUSH1 0x20 ADD DUP3 ADD PUSH1 0x40 MSTORE DUP1 ISZERO PUSH2 0x2BAA JUMPI DUP2 PUSH1 0x20 ADD PUSH1 0x1 DUP3 MUL DUP1 CALLDATASIZE DUP4 CALLDATACOPY DUP1 DUP3 ADD SWAP2 POP POP SWAP1 POP JUMPDEST POP SWAP1 POP JUMPDEST PUSH1 0x0 DUP6 EQ PUSH2 0x2C37 JUMPI PUSH1 0x1 DUP3 PUSH2 0x2BC3 SWAP2 SWAP1 PUSH2 0x40F5 JUMP JUMPDEST SWAP2 POP PUSH1 0xA DUP6 PUSH2 0x2BD2 SWAP2 SWAP1 PUSH2 0x443B JUMP JUMPDEST PUSH1 0x30 PUSH2 0x2BDE SWAP2 SWAP1 PUSH2 0x3A76 JUMP JUMPDEST PUSH1 0xF8 SHL DUP2 DUP4 DUP2 MLOAD DUP2 LT PUSH2 0x2BF4 JUMPI PUSH2 0x2BF3 PUSH2 0x446C JUMP JUMPDEST JUMPDEST PUSH1 0x20 ADD ADD SWAP1 PUSH31 0xFFFFFFFFFFFFFFFFFFFFFFFFFFFFFFFFFFFFFFFFFFFFFFFFFFFFFFFFFFFFFF NOT AND SWAP1 DUP2 PUSH1 0x0 BYTE SWAP1 MSTORE8 POP PUSH1 0xA DUP6 PUSH2 0x2C30 SWAP2 SWAP1 PUSH2 0x3AFB JUMP JUMPDEST SWAP5 POP PUSH2 0x2BAE JUMP JUMPDEST DUP1 SWAP4 POP POP POP POP JUMPDEST SWAP2 SWAP1 POP JUMP JUMPDEST PUSH1 0x60 PUSH1 0x0 PUSH1 0x2 DUP4 PUSH1 0x2 PUSH2 0x2C56 SWAP2 SWAP1 PUSH2 0x3B2C JUMP JUMPDEST PUSH2 0x2C60 SWAP2 SWAP1 PUSH2 0x3A76 JUMP JUMPDEST PUSH8 0xFFFFFFFFFFFFFFFF DUP2 GT ISZERO PUSH2 0x2C79 JUMPI PUSH2 0x2C78 PUSH2 0x2FCC JUMP JUMPDEST JUMPDEST PUSH1 0x40 MLOAD SWAP1 DUP1 DUP3 MSTORE DUP1 PUSH1 0x1F ADD PUSH1 0x1F NOT AND PUSH1 0x20 ADD DUP3 ADD PUSH1 0x40 MSTORE DUP1 ISZERO PUSH2 0x2CAB JUMPI DUP2 PUSH1 0x20 ADD PUSH1 0x1 DUP3 MUL DUP1 CALLDATASIZE DUP4 CALLDATACOPY DUP1 DUP3 ADD SWAP2 POP POP SWAP1 POP JUMPDEST POP SWAP1 POP PUSH32 0x3000000000000000000000000000000000000000000000000000000000000000 DUP2 PUSH1 0x0 DUP2 MLOAD DUP2 LT PUSH2 0x2CE3 JUMPI PUSH2 0x2CE2 PUSH2 0x446C JUMP JUMPDEST JUMPDEST PUSH1 0x20 ADD ADD SWAP1 PUSH31 0xFFFFFFFFFFFFFFFFFFFFFFFFFFFFFFFFFFFFFFFFFFFFFFFFFFFFFFFFFFFFFF NOT AND SWAP1 DUP2 PUSH1 0x0 BYTE SWAP1 MSTORE8 POP PUSH32 0x7800000000000000000000000000000000000000000000000000000000000000 DUP2 PUSH1 0x1 DUP2 MLOAD DUP2 LT PUSH2 0x2D47 JUMPI PUSH2 0x2D46 PUSH2 0x446C JUMP JUMPDEST JUMPDEST PUSH1 0x20 ADD ADD SWAP1 PUSH31 0xFFFFFFFFFFFFFFFFFFFFFFFFFFFFFFFFFFFFFFFFFFFFFFFFFFFFFFFFFFFFFF NOT AND SWAP1 DUP2 PUSH1 0x0 BYTE SWAP1 MSTORE8 POP PUSH1 0x0 PUSH1 0x1 DUP5 PUSH1 0x2 PUSH2 0x2D87 SWAP2 SWAP1 PUSH2 0x3B2C JUMP JUMPDEST PUSH2 0x2D91 SWAP2 SWAP1 PUSH2 0x3A76 JUMP JUMPDEST SWAP1 POP JUMPDEST PUSH1 0x1 DUP2 GT ISZERO PUSH2 0x2E31 JUMPI PUSH32 0x3031323334353637383961626364656600000000000000000000000000000000 PUSH1 0xF DUP7 AND PUSH1 0x10 DUP2 LT PUSH2 0x2DD3 JUMPI PUSH2 0x2DD2 PUSH2 0x446C JUMP JUMPDEST JUMPDEST BYTE PUSH1 0xF8 SHL DUP3 DUP3 DUP2 MLOAD DUP2 LT PUSH2 0x2DEA JUMPI PUSH2 0x2DE9 PUSH2 0x446C JUMP JUMPDEST JUMPDEST PUSH1 0x20 ADD ADD SWAP1 PUSH31 0xFFFFFFFFFFFFFFFFFFFFFFFFFFFFFFFFFFFFFFFFFFFFFFFFFFFFFFFFFFFFFF NOT AND SWAP1 DUP2 PUSH1 0x0 BYTE SWAP1 MSTORE8 POP PUSH1 0x4 DUP6 SWAP1 SHR SWAP5 POP DUP1 PUSH2 0x2E2A SWAP1 PUSH2 0x449B JUMP JUMPDEST SWAP1 POP PUSH2 0x2D94 JUMP JUMPDEST POP PUSH1 0x0 DUP5 EQ PUSH2 0x2E75 JUMPI PUSH1 0x40 MLOAD PUSH32 0x8C379A000000000000000000000000000000000000000000000000000000000 DUP2 MSTORE PUSH1 0x4 ADD PUSH2 0x2E6C SWAP1 PUSH2 0x4510 JUMP JUMPDEST PUSH1 0x40 MLOAD DUP1 SWAP2 SUB SWAP1 REVERT JUMPDEST DUP1 SWAP2 POP POP SWAP3 SWAP2 POP POP JUMP JUMPDEST PUSH1 0x60 DUP2 PUSH1 0x1F DUP4 PUSH2 0x2E8F SWAP2 SWAP1 PUSH2 0x3A76 JUMP JUMPDEST LT ISZERO PUSH2 0x2ED0 JUMPI PUSH1 0x40 MLOAD PUSH32 0x8C379A000000000000000000000000000000000000000000000000000000000 DUP2 MSTORE PUSH1 0x4 ADD PUSH2 0x2EC7 SWAP1 PUSH2 0x457C JUMP JUMPDEST PUSH1 0x40 MLOAD DUP1 SWAP2 SUB SWAP1 REVERT JUMPDEST DUP2 DUP4 PUSH2 0x2EDC SWAP2 SWAP1 PUSH2 0x3A76 JUMP JUMPDEST DUP5 MLOAD LT ISZERO PUSH2 0x2F1F JUMPI PUSH1 0x40 MLOAD PUSH32 0x8C379A000000000000000000000000000000000000000000000000000000000 DUP2 MSTORE PUSH1 0x4 ADD PUSH2 0x2F16 SWAP1 PUSH2 0x45E8 JUMP JUMPDEST PUSH1 0x40 MLOAD DUP1 SWAP2 SUB SWAP1 REVERT JUMPDEST PUSH1 0x60 DUP3 ISZERO PUSH1 0x0 DUP2 EQ PUSH2 0x2F40 JUMPI PUSH1 0x40 MLOAD SWAP2 POP PUSH1 0x0 DUP3 MSTORE PUSH1 0x20 DUP3 ADD PUSH1 0x40 MSTORE PUSH2 0x2F91 JUMP JUMPDEST PUSH1 0x40 MLOAD SWAP2 POP PUSH1 0x1F DUP5 AND DUP1 ISZERO PUSH1 0x20 MUL DUP2 DUP5 ADD ADD DUP6 DUP2 ADD DUP8 DUP4 ISZERO PUSH1 0x20 MUL DUP5 DUP12 ADD ADD ADD JUMPDEST DUP2 DUP4 LT ISZERO PUSH2 0x2F7E JUMPI DUP1 MLOAD DUP4 MSTORE PUSH1 0x20 DUP4 ADD SWAP3 POP PUSH1 0x20 DUP2 ADD SWAP1 POP PUSH2 0x2F61 JUMP JUMPDEST POP DUP7 DUP6 MSTORE PUSH1 0x1F NOT PUSH1 0x1F DUP4 ADD AND PUSH1 0x40 MSTORE POP POP POP JUMPDEST POP DUP1 SWAP2 POP POP SWAP4 SWAP3 POP POP POP JUMP JUMPDEST PUSH1 0x0 PUSH1 0x40 MLOAD SWAP1 POP SWAP1 JUMP JUMPDEST PUSH1 0x0 DUP1 REVERT JUMPDEST PUSH1 0x0 DUP1 REVERT JUMPDEST PUSH1 0x0 DUP1 REVERT JUMPDEST PUSH1 0x0 DUP1 REVERT JUMPDEST PUSH1 0x0 PUSH1 0x1F NOT PUSH1 0x1F DUP4 ADD AND SWAP1 POP SWAP2 SWAP1 POP JUMP JUMPDEST PUSH32 0x4E487B7100000000000000000000000000000000000000000000000000000000 PUSH1 0x0 MSTORE PUSH1 0x41 PUSH1 0x4 MSTORE PUSH1 0x24 PUSH1 0x0 REVERT JUMPDEST PUSH2 0x3004 DUP3 PUSH2 0x2FBB JUMP JUMPDEST DUP2 ADD DUP2 DUP2 LT PUSH8 0xFFFFFFFFFFFFFFFF DUP3 GT OR ISZERO PUSH2 0x3023 JUMPI PUSH2 0x3022 PUSH2 0x2FCC JUMP JUMPDEST JUMPDEST DUP1 PUSH1 0x40 MSTORE POP POP POP JUMP JUMPDEST PUSH1 0x0 PUSH2 0x3036 PUSH2 0x2F9D JUMP JUMPDEST SWAP1 POP PUSH2 0x3042 DUP3 DUP3 PUSH2 0x2FFB JUMP JUMPDEST SWAP2 SWAP1 POP JUMP JUMPDEST PUSH1 0x0 PUSH8 0xFFFFFFFFFFFFFFFF DUP3 GT ISZERO PUSH2 0x3062 JUMPI PUSH2 0x3061 PUSH2 0x2FCC JUMP JUMPDEST JUMPDEST PUSH2 0x306B DUP3 PUSH2 0x2FBB JUMP JUMPDEST SWAP1 POP PUSH1 0x20 DUP2 ADD SWAP1 POP SWAP2 SWAP1 POP JUMP JUMPDEST DUP3 DUP2 DUP4 CALLDATACOPY PUSH1 0x0 DUP4 DUP4 ADD MSTORE POP POP POP JUMP JUMPDEST PUSH1 0x0 PUSH2 0x309A PUSH2 0x3095 DUP5 PUSH2 0x3047 JUMP JUMPDEST PUSH2 0x302C JUMP JUMPDEST SWAP1 POP DUP3 DUP2 MSTORE PUSH1 0x20 DUP2 ADD DUP5 DUP5 DUP5 ADD GT ISZERO PUSH2 0x30B6 JUMPI PUSH2 0x30B5 PUSH2 0x2FB6 JUMP JUMPDEST JUMPDEST PUSH2 0x30C1 DUP5 DUP3 DUP6 PUSH2 0x3078 JUMP JUMPDEST POP SWAP4 SWAP3 POP POP POP JUMP JUMPDEST PUSH1 0x0 DUP3 PUSH1 0x1F DUP4 ADD SLT PUSH2 0x30DE JUMPI PUSH2 0x30DD PUSH2 0x2FB1 JUMP JUMPDEST JUMPDEST DUP2 CALLDATALOAD PUSH2 0x30EE DUP5 DUP3 PUSH1 0x20 DUP7 ADD PUSH2 0x3087 JUMP JUMPDEST SWAP2 POP POP SWAP3 SWAP2 POP POP JUMP JUMPDEST PUSH1 0x0 PUSH1 0x20 DUP3 DUP5 SUB SLT ISZERO PUSH2 0x310D JUMPI PUSH2 0x310C PUSH2 0x2FA7 JUMP JUMPDEST JUMPDEST PUSH1 0x0 DUP3 ADD CALLDATALOAD PUSH8 0xFFFFFFFFFFFFFFFF DUP2 GT ISZERO PUSH2 0x312B JUMPI PUSH2 0x312A PUSH2 0x2FAC JUMP JUMPDEST JUMPDEST PUSH2 0x3137 DUP5 DUP3 DUP6 ADD PUSH2 0x30C9 JUMP JUMPDEST SWAP2 POP POP SWAP3 SWAP2 POP POP JUMP JUMPDEST PUSH1 0x0 DUP2 MLOAD SWAP1 POP SWAP2 SWAP1 POP JUMP JUMPDEST PUSH1 0x0 DUP3 DUP3 MSTORE PUSH1 0x20 DUP3 ADD SWAP1 POP SWAP3 SWAP2 POP POP JUMP JUMPDEST PUSH1 0x0 JUMPDEST DUP4 DUP2 LT ISZERO PUSH2 0x317A JUMPI DUP1 DUP3 ADD MLOAD DUP2 DUP5 ADD MSTORE PUSH1 0x20 DUP2 ADD SWAP1 POP PUSH2 0x315F JUMP JUMPDEST DUP4 DUP2 GT ISZERO PUSH2 0x3189 JUMPI PUSH1 0x0 DUP5 DUP5 ADD MSTORE JUMPDEST POP POP POP POP JUMP JUMPDEST PUSH1 0x0 PUSH2 0x319A DUP3 PUSH2 0x3140 JUMP JUMPDEST PUSH2 0x31A4 DUP2 DUP6 PUSH2 0x314B JUMP JUMPDEST SWAP4 POP PUSH2 0x31B4 DUP2 DUP6 PUSH1 0x20 DUP7 ADD PUSH2 0x315C JUMP JUMPDEST PUSH2 0x31BD DUP2 PUSH2 0x2FBB JUMP JUMPDEST DUP5 ADD SWAP2 POP POP SWAP3 SWAP2 POP POP JUMP JUMPDEST PUSH1 0x0 PUSH1 0x20 DUP3 ADD SWAP1 POP DUP2 DUP2 SUB PUSH1 0x0 DUP4 ADD MSTORE PUSH2 0x31E2 DUP2 DUP5 PUSH2 0x318F JUMP JUMPDEST SWAP1 POP SWAP3 SWAP2 POP POP JUMP JUMPDEST PUSH1 0x0 PUSH20 0xFFFFFFFFFFFFFFFFFFFFFFFFFFFFFFFFFFFFFFFF DUP3 AND SWAP1 POP SWAP2 SWAP1 POP JUMP JUMPDEST PUSH1 0x0 PUSH2 0x3215 DUP3 PUSH2 0x31EA JUMP JUMPDEST SWAP1 POP SWAP2 SWAP1 POP JUMP JUMPDEST PUSH2 0x3225 DUP2 PUSH2 0x320A JUMP JUMPDEST DUP3 MSTORE POP POP JUMP JUMPDEST PUSH1 0x0 PUSH1 0x20 DUP3 ADD SWAP1 POP PUSH2 0x3240 PUSH1 0x0 DUP4 ADD DUP5 PUSH2 0x321C JUMP JUMPDEST SWAP3 SWAP2 POP POP JUMP JUMPDEST PUSH2 0x324F DUP2 PUSH2 0x320A JUMP JUMPDEST DUP2 EQ PUSH2 0x325A JUMPI PUSH1 0x0 DUP1 REVERT JUMPDEST POP JUMP JUMPDEST PUSH1 0x0 DUP2 CALLDATALOAD SWAP1 POP PUSH2 0x326C DUP2 PUSH2 0x3246 JUMP JUMPDEST SWAP3 SWAP2 POP POP JUMP JUMPDEST PUSH1 0x0 PUSH1 0x20 DUP3 DUP5 SUB SLT ISZERO PUSH2 0x3288 JUMPI PUSH2 0x3287 PUSH2 0x2FA7 JUMP JUMPDEST JUMPDEST PUSH1 0x0 PUSH2 0x3296 DUP5 DUP3 DUP6 ADD PUSH2 0x325D JUMP JUMPDEST SWAP2 POP POP SWAP3 SWAP2 POP POP JUMP JUMPDEST PUSH1 0x0 DUP2 SWAP1 POP SWAP3 SWAP2 POP POP JUMP JUMPDEST PUSH1 0x0 PUSH2 0x32B5 DUP3 PUSH2 0x3140 JUMP JUMPDEST PUSH2 0x32BF DUP2 DUP6 PUSH2 0x329F JUMP JUMPDEST SWAP4 POP PUSH2 0x32CF DUP2 DUP6 PUSH1 0x20 DUP7 ADD PUSH2 0x315C JUMP JUMPDEST DUP1 DUP5 ADD SWAP2 POP POP SWAP3 SWAP2 POP POP JUMP JUMPDEST PUSH1 0x0 PUSH2 0x32E7 DUP3 DUP6 PUSH2 0x32AA JUMP JUMPDEST SWAP2 POP PUSH2 0x32F3 DUP3 DUP5 PUSH2 0x32AA JUMP JUMPDEST SWAP2 POP DUP2 SWAP1 POP SWAP4 SWAP3 POP POP POP JUMP JUMPDEST PUSH32 0x4F776E61626C653A206E6577206F776E657220697320746865207A65726F2061 PUSH1 0x0 DUP3 ADD MSTORE PUSH32 0x6464726573730000000000000000000000000000000000000000000000000000 PUSH1 0x20 DUP3 ADD MSTORE POP JUMP JUMPDEST PUSH1 0x0 PUSH2 0x335B PUSH1 0x26 DUP4 PUSH2 0x314B JUMP JUMPDEST SWAP2 POP PUSH2 0x3366 DUP3 PUSH2 0x32FF JUMP JUMPDEST PUSH1 0x40 DUP3 ADD SWAP1 POP SWAP2 SWAP1 POP JUMP JUMPDEST PUSH1 0x0 PUSH1 0x20 DUP3 ADD SWAP1 POP DUP2 DUP2 SUB PUSH1 0x0 DUP4 ADD MSTORE PUSH2 0x338A DUP2 PUSH2 0x334E JUMP JUMPDEST SWAP1 POP SWAP2 SWAP1 POP JUMP JUMPDEST PUSH1 0x0 PUSH2 0x339C DUP3 PUSH2 0x31EA JUMP JUMPDEST SWAP1 POP SWAP2 SWAP1 POP JUMP JUMPDEST PUSH2 0x33AC DUP2 PUSH2 0x3391 JUMP JUMPDEST DUP2 EQ PUSH2 0x33B7 JUMPI PUSH1 0x0 DUP1 REVERT JUMPDEST POP JUMP JUMPDEST PUSH1 0x0 DUP2 MLOAD SWAP1 POP PUSH2 0x33C9 DUP2 PUSH2 0x33A3 JUMP JUMPDEST SWAP3 SWAP2 POP POP JUMP JUMPDEST PUSH1 0x0 DUP2 SWAP1 POP SWAP2 SWAP1 POP JUMP JUMPDEST PUSH2 0x33E2 DUP2 PUSH2 0x33CF JUMP JUMPDEST DUP2 EQ PUSH2 0x33ED JUMPI PUSH1 0x0 DUP1 REVERT JUMPDEST POP JUMP JUMPDEST PUSH1 0x0 DUP2 MLOAD SWAP1 POP PUSH2 0x33FF DUP2 PUSH2 0x33D9 JUMP JUMPDEST SWAP3 SWAP2 POP POP JUMP JUMPDEST PUSH1 0x0 PUSH8 0xFFFFFFFFFFFFFFFF DUP3 GT ISZERO PUSH2 0x3420 JUMPI PUSH2 0x341F PUSH2 0x2FCC JUMP JUMPDEST JUMPDEST PUSH2 0x3429 DUP3 PUSH2 0x2FBB JUMP JUMPDEST SWAP1 POP PUSH1 0x20 DUP2 ADD SWAP1 POP SWAP2 SWAP1 POP JUMP JUMPDEST PUSH1 0x0 PUSH2 0x3449 PUSH2 0x3444 DUP5 PUSH2 0x3405 JUMP JUMPDEST PUSH2 0x302C JUMP JUMPDEST SWAP1 POP DUP3 DUP2 MSTORE PUSH1 0x20 DUP2 ADD DUP5 DUP5 DUP5 ADD GT ISZERO PUSH2 0x3465 JUMPI PUSH2 0x3464 PUSH2 0x2FB6 JUMP JUMPDEST JUMPDEST PUSH2 0x3470 DUP5 DUP3 DUP6 PUSH2 0x315C JUMP JUMPDEST POP SWAP4 SWAP3 POP POP POP JUMP JUMPDEST PUSH1 0x0 DUP3 PUSH1 0x1F DUP4 ADD SLT PUSH2 0x348D JUMPI PUSH2 0x348C PUSH2 0x2FB1 JUMP JUMPDEST JUMPDEST DUP2 MLOAD PUSH2 0x349D DUP5 DUP3 PUSH1 0x20 DUP7 ADD PUSH2 0x3436 JUMP JUMPDEST SWAP2 POP POP SWAP3 SWAP2 POP POP JUMP JUMPDEST PUSH1 0x0 DUP2 SWAP1 POP SWAP2 SWAP1 POP JUMP JUMPDEST PUSH2 0x34B9 DUP2 PUSH2 0x34A6 JUMP JUMPDEST DUP2 EQ PUSH2 0x34C4 JUMPI PUSH1 0x0 DUP1 REVERT JUMPDEST POP JUMP JUMPDEST PUSH1 0x0 DUP2 MLOAD SWAP1 POP PUSH2 0x34D6 DUP2 PUSH2 0x34B0 JUMP JUMPDEST SWAP3 SWAP2 POP POP JUMP JUMPDEST PUSH1 0x0 DUP1 PUSH1 0x0 DUP1 PUSH1 0x0 DUP1 PUSH1 0x0 DUP1 PUSH1 0x0 DUP1 PUSH2 0x140 DUP12 DUP14 SUB SLT ISZERO PUSH2 0x3500 JUMPI PUSH2 0x34FF PUSH2 0x2FA7 JUMP JUMPDEST JUMPDEST PUSH1 0x0 PUSH2 0x350E DUP14 DUP3 DUP15 ADD PUSH2 0x33BA JUMP JUMPDEST SWAP11 POP POP PUSH1 0x20 PUSH2 0x351F DUP14 DUP3 DUP15 ADD PUSH2 0x33BA JUMP JUMPDEST SWAP10 POP POP PUSH1 0x40 PUSH2 0x3530 DUP14 DUP3 DUP15 ADD PUSH2 0x33F0 JUMP JUMPDEST SWAP9 POP POP PUSH1 0x60 PUSH2 0x3541 DUP14 DUP3 DUP15 ADD PUSH2 0x33F0 JUMP JUMPDEST SWAP8 POP POP PUSH1 0x80 PUSH2 0x3552 DUP14 DUP3 DUP15 ADD PUSH2 0x33F0 JUMP JUMPDEST SWAP7 POP POP PUSH1 0xA0 PUSH2 0x3563 DUP14 DUP3 DUP15 ADD PUSH2 0x33F0 JUMP JUMPDEST SWAP6 POP POP PUSH1 0xC0 PUSH2 0x3574 DUP14 DUP3 DUP15 ADD PUSH2 0x33F0 JUMP JUMPDEST SWAP5 POP POP PUSH1 0xE0 PUSH2 0x3585 DUP14 DUP3 DUP15 ADD PUSH2 0x33F0 JUMP JUMPDEST SWAP4 POP POP PUSH2 0x100 DUP12 ADD MLOAD PUSH8 0xFFFFFFFFFFFFFFFF DUP2 GT ISZERO PUSH2 0x35A7 JUMPI PUSH2 0x35A6 PUSH2 0x2FAC JUMP JUMPDEST JUMPDEST PUSH2 0x35B3 DUP14 DUP3 DUP15 ADD PUSH2 0x3478 JUMP JUMPDEST SWAP3 POP POP PUSH2 0x120 PUSH2 0x35C5 DUP14 DUP3 DUP15 ADD PUSH2 0x34C7 JUMP JUMPDEST SWAP2 POP POP SWAP3 SWAP6 SWAP9 SWAP12 SWAP2 SWAP5 SWAP8 SWAP11 POP SWAP3 SWAP6 SWAP9 POP JUMP JUMPDEST PUSH1 0x0 PUSH2 0x35E3 DUP3 DUP8 PUSH2 0x32AA JUMP JUMPDEST SWAP2 POP PUSH2 0x35EF DUP3 DUP7 PUSH2 0x32AA JUMP JUMPDEST SWAP2 POP PUSH2 0x35FB DUP3 DUP6 PUSH2 0x32AA JUMP JUMPDEST SWAP2 POP PUSH2 0x3607 DUP3 DUP5 PUSH2 0x32AA JUMP JUMPDEST SWAP2 POP DUP2 SWAP1 POP SWAP6 SWAP5 POP POP POP POP POP JUMP JUMPDEST PUSH1 0x0 PUSH2 0x3621 DUP3 DUP7 PUSH2 0x32AA JUMP JUMPDEST SWAP2 POP PUSH2 0x362D DUP3 DUP6 PUSH2 0x32AA JUMP JUMPDEST SWAP2 POP PUSH2 0x3639 DUP3 DUP5 PUSH2 0x32AA JUMP JUMPDEST SWAP2 POP DUP2 SWAP1 POP SWAP5 SWAP4 POP POP POP POP JUMP JUMPDEST PUSH32 0x3C73766720786D6C6E733D22687474703A2F2F7777772E77332E6F72672F3230 PUSH1 0x0 DUP3 ADD MSTORE PUSH32 0x30302F737667222077696474683D2235303022206865696768743D2233303022 PUSH1 0x20 DUP3 ADD MSTORE PUSH32 0x2076696577426F783D223020302035303020333030222066696C6C3D22233633 PUSH1 0x40 DUP3 ADD MSTORE PUSH32 0x3345463722207374796C653D22666F6E742D66616D696C793A2073616E732D73 PUSH1 0x60 DUP3 ADD MSTORE PUSH32 0x657269663B22203E000000000000000000000000000000000000000000000000 PUSH1 0x80 DUP3 ADD MSTORE POP JUMP JUMPDEST PUSH1 0x0 PUSH2 0x3714 PUSH1 0x88 DUP4 PUSH2 0x329F JUMP JUMPDEST SWAP2 POP PUSH2 0x371F DUP3 PUSH2 0x3646 JUMP JUMPDEST PUSH1 0x88 DUP3 ADD SWAP1 POP SWAP2 SWAP1 POP JUMP JUMPDEST PUSH32 0x3C67206D61736B3D2275726C28236D61736B305F3231335F38363029223E203C PUSH1 0x0 DUP3 ADD MSTORE PUSH32 0x656C6C69707365206F7061636974793D22302E31222063783D22393322206379 PUSH1 0x20 DUP3 ADD MSTORE PUSH32 0x3D22333030222072783D22323330222072793D22313435222066696C6C3D2262 PUSH1 0x40 DUP3 ADD MSTORE PUSH32 0x6C61636B222F3E203C656C6C69707365206F7061636974793D22302E30382220 PUSH1 0x60 DUP3 ADD MSTORE PUSH32 0x63783D22353530222063793D222D313139222072783D22343530222072793D22 PUSH1 0x80 DUP3 ADD MSTORE PUSH32 0x323437222066696C6C3D22626C61636B222F3E203C2F673E0000000000000000 PUSH1 0xA0 DUP3 ADD MSTORE POP JUMP JUMPDEST PUSH1 0x0 PUSH2 0x381E PUSH1 0xB8 DUP4 PUSH2 0x329F JUMP JUMPDEST SWAP2 POP PUSH2 0x3829 DUP3 PUSH2 0x372A JUMP JUMPDEST PUSH1 0xB8 DUP3 ADD SWAP1 POP SWAP2 SWAP1 POP JUMP JUMPDEST PUSH32 0x3C646566733E3C7374796C653E2E636C732D317B66696C6C3A234646463B7D2E PUSH1 0x0 DUP3 ADD MSTORE PUSH32 0x746578742D736861646F772D6D64207B746578742D736861646F773A20307078 PUSH1 0x20 DUP3 ADD MSTORE PUSH32 0x203470782031307078207267626128302C20302C20302C20302E3132293B7D3C PUSH1 0x40 DUP3 ADD MSTORE PUSH32 0x2F7374796C653E3C6C696E6561724772616469656E742069643D226D79477261 PUSH1 0x60 DUP3 ADD MSTORE PUSH32 0x6469656E7422206772616469656E745472616E73666F726D3D22726F74617465 PUSH1 0x80 DUP3 ADD MSTORE PUSH32 0x28393029223E203C73746F70206F66667365743D223525222073746F702D636F PUSH1 0xA0 DUP3 ADD MSTORE PUSH32 0x6C6F723D22676F6C6422202F3E203C73746F70206F66667365743D2239352522 PUSH1 0xC0 DUP3 ADD MSTORE PUSH32 0x2073746F702D636F6C6F723D2272656422202F3E203C2F6C696E656172477261 PUSH1 0xE0 DUP3 ADD MSTORE PUSH32 0x6469656E743E3C2F646566733E00000000000000000000000000000000000000 PUSH2 0x100 DUP3 ADD MSTORE POP JUMP JUMPDEST PUSH1 0x0 PUSH2 0x399C PUSH2 0x10D DUP4 PUSH2 0x329F JUMP JUMPDEST SWAP2 POP PUSH2 0x39A7 DUP3 PUSH2 0x3834 JUMP JUMPDEST PUSH2 0x10D DUP3 ADD SWAP1 POP SWAP2 SWAP1 POP JUMP JUMPDEST PUSH32 0x3C2F7376673E0000000000000000000000000000000000000000000000000000 DUP2 MSTORE POP JUMP JUMPDEST PUSH1 0x0 PUSH2 0x39E4 DUP3 PUSH2 0x3707 JUMP JUMPDEST SWAP2 POP PUSH2 0x39F0 DUP3 DUP8 PUSH2 0x32AA JUMP JUMPDEST SWAP2 POP PUSH2 0x39FC DUP3 DUP7 PUSH2 0x32AA JUMP JUMPDEST SWAP2 POP PUSH2 0x3A07 DUP3 PUSH2 0x3811 JUMP JUMPDEST SWAP2 POP PUSH2 0x3A13 DUP3 DUP6 PUSH2 0x32AA JUMP JUMPDEST SWAP2 POP PUSH2 0x3A1F DUP3 DUP5 PUSH2 0x32AA JUMP JUMPDEST SWAP2 POP PUSH2 0x3A2A DUP3 PUSH2 0x398E JUMP JUMPDEST SWAP2 POP PUSH2 0x3A35 DUP3 PUSH2 0x39B3 JUMP JUMPDEST PUSH1 0x6 DUP3 ADD SWAP2 POP DUP2 SWAP1 POP SWAP6 SWAP5 POP POP POP POP POP JUMP JUMPDEST PUSH32 0x4E487B7100000000000000000000000000000000000000000000000000000000 PUSH1 0x0 MSTORE PUSH1 0x11 PUSH1 0x4 MSTORE PUSH1 0x24 PUSH1 0x0 REVERT JUMPDEST PUSH1 0x0 PUSH2 0x3A81 DUP3 PUSH2 0x33CF JUMP JUMPDEST SWAP2 POP PUSH2 0x3A8C DUP4 PUSH2 0x33CF JUMP JUMPDEST SWAP3 POP DUP3 PUSH32 0xFFFFFFFFFFFFFFFFFFFFFFFFFFFFFFFFFFFFFFFFFFFFFFFFFFFFFFFFFFFFFFFF SUB DUP3 GT ISZERO PUSH2 0x3AC1 JUMPI PUSH2 0x3AC0 PUSH2 0x3A47 JUMP JUMPDEST JUMPDEST DUP3 DUP3 ADD SWAP1 POP SWAP3 SWAP2 POP POP JUMP JUMPDEST PUSH32 0x4E487B7100000000000000000000000000000000000000000000000000000000 PUSH1 0x0 MSTORE PUSH1 0x12 PUSH1 0x4 MSTORE PUSH1 0x24 PUSH1 0x0 REVERT JUMPDEST PUSH1 0x0 PUSH2 0x3B06 DUP3 PUSH2 0x33CF JUMP JUMPDEST SWAP2 POP PUSH2 0x3B11 DUP4 PUSH2 0x33CF JUMP JUMPDEST SWAP3 POP DUP3 PUSH2 0x3B21 JUMPI PUSH2 0x3B20 PUSH2 0x3ACC JUMP JUMPDEST JUMPDEST DUP3 DUP3 DIV SWAP1 POP SWAP3 SWAP2 POP POP JUMP JUMPDEST PUSH1 0x0 PUSH2 0x3B37 DUP3 PUSH2 0x33CF JUMP JUMPDEST SWAP2 POP PUSH2 0x3B42 DUP4 PUSH2 0x33CF JUMP JUMPDEST SWAP3 POP DUP2 PUSH32 0xFFFFFFFFFFFFFFFFFFFFFFFFFFFFFFFFFFFFFFFFFFFFFFFFFFFFFFFFFFFFFFFF DIV DUP4 GT DUP3 ISZERO ISZERO AND ISZERO PUSH2 0x3B7B JUMPI PUSH2 0x3B7A PUSH2 0x3A47 JUMP JUMPDEST JUMPDEST DUP3 DUP3 MUL SWAP1 POP SWAP3 SWAP2 POP POP JUMP JUMPDEST PUSH32 0x4F776E61626C653A2063616C6C6572206973206E6F7420746865206F776E6572 PUSH1 0x0 DUP3 ADD MSTORE POP JUMP JUMPDEST PUSH1 0x0 PUSH2 0x3BBC PUSH1 0x20 DUP4 PUSH2 0x314B JUMP JUMPDEST SWAP2 POP PUSH2 0x3BC7 DUP3 PUSH2 0x3B86 JUMP JUMPDEST PUSH1 0x20 DUP3 ADD SWAP1 POP SWAP2 SWAP1 POP JUMP JUMPDEST PUSH1 0x0 PUSH1 0x20 DUP3 ADD SWAP1 POP DUP2 DUP2 SUB PUSH1 0x0 DUP4 ADD MSTORE PUSH2 0x3BEB DUP2 PUSH2 0x3BAF JUMP JUMPDEST SWAP1 POP SWAP2 SWAP1 POP JUMP JUMPDEST PUSH32 0x3D00000000000000000000000000000000000000000000000000000000000000 DUP2 MSTORE POP JUMP JUMPDEST PUSH32 0x2200000000000000000000000000000000000000000000000000000000000000 DUP2 MSTORE POP JUMP JUMPDEST PUSH32 0x2220000000000000000000000000000000000000000000000000000000000000 DUP2 MSTORE POP JUMP JUMPDEST PUSH1 0x0 PUSH2 0x3C70 DUP3 DUP6 PUSH2 0x32AA JUMP JUMPDEST SWAP2 POP PUSH2 0x3C7B DUP3 PUSH2 0x3BF2 JUMP JUMPDEST PUSH1 0x1 DUP3 ADD SWAP2 POP PUSH2 0x3C8A DUP3 PUSH2 0x3C18 JUMP JUMPDEST PUSH1 0x1 DUP3 ADD SWAP2 POP PUSH2 0x3C9A DUP3 DUP5 PUSH2 0x32AA JUMP JUMPDEST SWAP2 POP PUSH2 0x3CA5 DUP3 PUSH2 0x3C3E JUMP JUMPDEST PUSH1 0x2 DUP3 ADD SWAP2 POP DUP2 SWAP1 POP SWAP4 SWAP3 POP POP POP JUMP JUMPDEST PUSH32 0x3C00000000000000000000000000000000000000000000000000000000000000 DUP2 MSTORE POP JUMP JUMPDEST PUSH32 0x2000000000000000000000000000000000000000000000000000000000000000 DUP2 MSTORE POP JUMP JUMPDEST PUSH32 0x2F3E000000000000000000000000000000000000000000000000000000000000 DUP2 MSTORE POP JUMP JUMPDEST PUSH1 0x0 PUSH2 0x3D32 DUP3 PUSH2 0x3CB5 JUMP JUMPDEST PUSH1 0x1 DUP3 ADD SWAP2 POP PUSH2 0x3D42 DUP3 DUP6 PUSH2 0x32AA JUMP JUMPDEST SWAP2 POP PUSH2 0x3D4D DUP3 PUSH2 0x3CDB JUMP JUMPDEST PUSH1 0x1 DUP3 ADD SWAP2 POP PUSH2 0x3D5D DUP3 DUP5 PUSH2 0x32AA JUMP JUMPDEST SWAP2 POP PUSH2 0x3D68 DUP3 PUSH2 0x3D01 JUMP JUMPDEST PUSH1 0x2 DUP3 ADD SWAP2 POP DUP2 SWAP1 POP SWAP4 SWAP3 POP POP POP JUMP JUMPDEST PUSH1 0x0 PUSH2 0x3D84 DUP3 DUP10 PUSH2 0x32AA JUMP JUMPDEST SWAP2 POP PUSH2 0x3D90 DUP3 DUP9 PUSH2 0x32AA JUMP JUMPDEST SWAP2 POP PUSH2 0x3D9C DUP3 DUP8 PUSH2 0x32AA JUMP JUMPDEST SWAP2 POP PUSH2 0x3DA8 DUP3 DUP7 PUSH2 0x32AA JUMP JUMPDEST SWAP2 POP PUSH2 0x3DB4 DUP3 DUP6 PUSH2 0x32AA JUMP JUMPDEST SWAP2 POP PUSH2 0x3DC0 DUP3 DUP5 PUSH2 0x32AA JUMP JUMPDEST SWAP2 POP DUP2 SWAP1 POP SWAP8 SWAP7 POP POP POP POP POP POP POP JUMP JUMPDEST PUSH32 0xF09F8F8600000000000000000000000000000000000000000000000000000000 DUP2 MSTORE POP JUMP JUMPDEST PUSH32 0x204368616E636500000000000000000000000000000000000000000000000000 DUP2 MSTORE POP JUMP JUMPDEST PUSH1 0x0 PUSH2 0x3E27 DUP3 PUSH2 0x3DD0 JUMP JUMPDEST PUSH1 0x4 DUP3 ADD SWAP2 POP PUSH2 0x3E36 DUP3 PUSH2 0x3DF6 JUMP JUMPDEST PUSH1 0x7 DUP3 ADD SWAP2 POP DUP2 SWAP1 POP SWAP2 SWAP1 POP JUMP JUMPDEST PUSH32 0x2400000000000000000000000000000000000000000000000000000000000000 DUP2 MSTORE POP JUMP JUMPDEST PUSH1 0x0 PUSH2 0x3E75 DUP3 PUSH2 0x3E44 JUMP JUMPDEST PUSH1 0x1 DUP3 ADD SWAP2 POP PUSH2 0x3E85 DUP3 DUP5 PUSH2 0x32AA JUMP JUMPDEST SWAP2 POP DUP2 SWAP1 POP SWAP3 SWAP2 POP POP JUMP JUMPDEST PUSH1 0x0 PUSH2 0x3E9C DUP3 DUP5 PUSH2 0x32AA JUMP JUMPDEST SWAP2 POP DUP2 SWAP1 POP SWAP3 SWAP2 POP POP JUMP JUMPDEST PUSH2 0x3EB0 DUP2 PUSH2 0x34A6 JUMP JUMPDEST DUP3 MSTORE POP POP JUMP JUMPDEST PUSH1 0x0 PUSH1 0x20 DUP3 ADD SWAP1 POP PUSH2 0x3ECB PUSH1 0x0 DUP4 ADD DUP5 PUSH2 0x3EA7 JUMP JUMPDEST SWAP3 SWAP2 POP POP JUMP JUMPDEST PUSH1 0x0 PUSH2 0x3EDD DUP3 DUP11 PUSH2 0x32AA JUMP JUMPDEST SWAP2 POP PUSH2 0x3EE9 DUP3 DUP10 PUSH2 0x32AA JUMP JUMPDEST SWAP2 POP PUSH2 0x3EF5 DUP3 DUP9 PUSH2 0x32AA JUMP JUMPDEST SWAP2 POP PUSH2 0x3F01 DUP3 DUP8 PUSH2 0x32AA JUMP JUMPDEST SWAP2 POP PUSH2 0x3F0D DUP3 DUP7 PUSH2 0x32AA JUMP JUMPDEST SWAP2 POP PUSH2 0x3F19 DUP3 DUP6 PUSH2 0x32AA JUMP JUMPDEST SWAP2 POP PUSH2 0x3F25 DUP3 DUP5 PUSH2 0x32AA JUMP JUMPDEST SWAP2 POP DUP2 SWAP1 POP SWAP9 SWAP8 POP POP POP POP POP POP POP POP JUMP JUMPDEST PUSH1 0x0 DUP2 PUSH1 0x1 SHR SWAP1 POP SWAP2 SWAP1 POP JUMP JUMPDEST PUSH1 0x0 DUP1 DUP3 SWAP2 POP DUP4 SWAP1 POP JUMPDEST PUSH1 0x1 DUP6 GT ISZERO PUSH2 0x3F8D JUMPI DUP1 DUP7 DIV DUP2 GT ISZERO PUSH2 0x3F69 JUMPI PUSH2 0x3F68 PUSH2 0x3A47 JUMP JUMPDEST JUMPDEST PUSH1 0x1 DUP6 AND ISZERO PUSH2 0x3F78 JUMPI DUP1 DUP3 MUL SWAP2 POP JUMPDEST DUP1 DUP2 MUL SWAP1 POP PUSH2 0x3F86 DUP6 PUSH2 0x3F36 JUMP JUMPDEST SWAP5 POP PUSH2 0x3F4D JUMP JUMPDEST SWAP5 POP SWAP5 SWAP3 POP POP POP JUMP JUMPDEST PUSH1 0x0 DUP3 PUSH2 0x3FA6 JUMPI PUSH1 0x1 SWAP1 POP PUSH2 0x4062 JUMP JUMPDEST DUP2 PUSH2 0x3FB4 JUMPI PUSH1 0x0 SWAP1 POP PUSH2 0x4062 JUMP JUMPDEST DUP2 PUSH1 0x1 DUP2 EQ PUSH2 0x3FCA JUMPI PUSH1 0x2 DUP2 EQ PUSH2 0x3FD4 JUMPI PUSH2 0x4003 JUMP JUMPDEST PUSH1 0x1 SWAP2 POP POP PUSH2 0x4062 JUMP JUMPDEST PUSH1 0xFF DUP5 GT ISZERO PUSH2 0x3FE6 JUMPI PUSH2 0x3FE5 PUSH2 0x3A47 JUMP JUMPDEST JUMPDEST DUP4 PUSH1 0x2 EXP SWAP2 POP DUP5 DUP3 GT ISZERO PUSH2 0x3FFD JUMPI PUSH2 0x3FFC PUSH2 0x3A47 JUMP JUMPDEST JUMPDEST POP PUSH2 0x4062 JUMP JUMPDEST POP PUSH1 0x20 DUP4 LT PUSH2 0x133 DUP4 LT AND PUSH1 0x4E DUP5 LT PUSH1 0xB DUP5 LT AND OR ISZERO PUSH2 0x4038 JUMPI DUP3 DUP3 EXP SWAP1 POP DUP4 DUP2 GT ISZERO PUSH2 0x4033 JUMPI PUSH2 0x4032 PUSH2 0x3A47 JUMP JUMPDEST JUMPDEST PUSH2 0x4062 JUMP JUMPDEST PUSH2 0x4045 DUP5 DUP5 DUP5 PUSH1 0x1 PUSH2 0x3F43 JUMP JUMPDEST SWAP3 POP SWAP1 POP DUP2 DUP5 DIV DUP2 GT ISZERO PUSH2 0x405C JUMPI PUSH2 0x405B PUSH2 0x3A47 JUMP JUMPDEST JUMPDEST DUP2 DUP2 MUL SWAP1 POP JUMPDEST SWAP4 SWAP3 POP POP POP JUMP JUMPDEST PUSH1 0x0 PUSH1 0xFF DUP3 AND SWAP1 POP SWAP2 SWAP1 POP JUMP JUMPDEST PUSH1 0x0 PUSH2 0x4081 DUP3 PUSH2 0x33CF JUMP JUMPDEST SWAP2 POP PUSH2 0x408C DUP4 PUSH2 0x4069 JUMP JUMPDEST SWAP3 POP PUSH2 0x40B9 PUSH32 0xFFFFFFFFFFFFFFFFFFFFFFFFFFFFFFFFFFFFFFFFFFFFFFFFFFFFFFFFFFFFFFFF DUP5 DUP5 PUSH2 0x3F96 JUMP JUMPDEST SWAP1 POP SWAP3 SWAP2 POP POP JUMP JUMPDEST PUSH1 0x0 PUSH2 0x40CC DUP3 PUSH2 0x4069 JUMP JUMPDEST SWAP2 POP PUSH2 0x40D7 DUP4 PUSH2 0x4069 JUMP JUMPDEST SWAP3 POP DUP3 DUP3 LT ISZERO PUSH2 0x40EA JUMPI PUSH2 0x40E9 PUSH2 0x3A47 JUMP JUMPDEST JUMPDEST DUP3 DUP3 SUB SWAP1 POP SWAP3 SWAP2 POP POP JUMP JUMPDEST PUSH1 0x0 PUSH2 0x4100 DUP3 PUSH2 0x33CF JUMP JUMPDEST SWAP2 POP PUSH2 0x410B DUP4 PUSH2 0x33CF JUMP JUMPDEST SWAP3 POP DUP3 DUP3 LT ISZERO PUSH2 0x411E JUMPI PUSH2 0x411D PUSH2 0x3A47 JUMP JUMPDEST JUMPDEST DUP3 DUP3 SUB SWAP1 POP SWAP3 SWAP2 POP POP JUMP JUMPDEST PUSH32 0x2E00000000000000000000000000000000000000000000000000000000000000 PUSH1 0x0 DUP3 ADD MSTORE POP JUMP JUMPDEST PUSH1 0x0 PUSH2 0x415F PUSH1 0x1 DUP4 PUSH2 0x329F JUMP JUMPDEST SWAP2 POP PUSH2 0x416A DUP3 PUSH2 0x4129 JUMP JUMPDEST PUSH1 0x1 DUP3 ADD SWAP1 POP SWAP2 SWAP1 POP JUMP JUMPDEST PUSH1 0x0 PUSH2 0x4181 DUP3 DUP6 PUSH2 0x32AA JUMP JUMPDEST SWAP2 POP PUSH2 0x418C DUP3 PUSH2 0x4152 JUMP JUMPDEST SWAP2 POP PUSH2 0x4198 DUP3 DUP5 PUSH2 0x32AA JUMP JUMPDEST SWAP2 POP DUP2 SWAP1 POP SWAP4 SWAP3 POP POP POP JUMP JUMPDEST PUSH1 0x0 DUP2 MLOAD SWAP1 POP SWAP2 SWAP1 POP JUMP JUMPDEST PUSH1 0x0 DUP3 DUP3 MSTORE PUSH1 0x20 DUP3 ADD SWAP1 POP SWAP3 SWAP2 POP POP JUMP JUMPDEST PUSH1 0x0 PUSH2 0x41CB DUP3 PUSH2 0x41A4 JUMP JUMPDEST PUSH2 0x41D5 DUP2 DUP6 PUSH2 0x41AF JUMP JUMPDEST SWAP4 POP PUSH2 0x41E5 DUP2 DUP6 PUSH1 0x20 DUP7 ADD PUSH2 0x315C JUMP JUMPDEST PUSH2 0x41EE DUP2 PUSH2 0x2FBB JUMP JUMPDEST DUP5 ADD SWAP2 POP POP SWAP3 SWAP2 POP POP JUMP JUMPDEST PUSH1 0x0 PUSH1 0x40 DUP3 ADD SWAP1 POP PUSH2 0x420E PUSH1 0x0 DUP4 ADD DUP6 PUSH2 0x3EA7 JUMP JUMPDEST DUP2 DUP2 SUB PUSH1 0x20 DUP4 ADD MSTORE PUSH2 0x4220 DUP2 DUP5 PUSH2 0x41C0 JUMP JUMPDEST SWAP1 POP SWAP4 SWAP3 POP POP POP JUMP JUMPDEST PUSH1 0x0 PUSH1 0x20 DUP3 DUP5 SUB SLT ISZERO PUSH2 0x423F JUMPI PUSH2 0x423E PUSH2 0x2FA7 JUMP JUMPDEST JUMPDEST PUSH1 0x0 DUP3 ADD MLOAD PUSH8 0xFFFFFFFFFFFFFFFF DUP2 GT ISZERO PUSH2 0x425D JUMPI PUSH2 0x425C PUSH2 0x2FAC JUMP JUMPDEST JUMPDEST PUSH2 0x4269 DUP5 DUP3 DUP6 ADD PUSH2 0x3478 JUMP JUMPDEST SWAP2 POP POP SWAP3 SWAP2 POP POP JUMP JUMPDEST PUSH1 0x0 DUP2 SWAP1 POP SWAP3 SWAP2 POP POP JUMP JUMPDEST PUSH1 0x0 PUSH2 0x4288 DUP3 PUSH2 0x41A4 JUMP JUMPDEST PUSH2 0x4292 DUP2 DUP6 PUSH2 0x4272 JUMP JUMPDEST SWAP4 POP PUSH2 0x42A2 DUP2 DUP6 PUSH1 0x20 DUP7 ADD PUSH2 0x315C JUMP JUMPDEST DUP1 DUP5 ADD SWAP2 POP POP SWAP3 SWAP2 POP POP JUMP JUMPDEST PUSH1 0x0 PUSH2 0x42BA DUP3 DUP5 PUSH2 0x427D JUMP JUMPDEST SWAP2 POP DUP2 SWAP1 POP SWAP3 SWAP2 POP POP JUMP JUMPDEST PUSH32 0x2E2E2E0000000000000000000000000000000000000000000000000000000000 DUP2 MSTORE POP JUMP JUMPDEST PUSH1 0x0 PUSH2 0x42F7 DUP3 DUP6 PUSH2 0x32AA JUMP JUMPDEST SWAP2 POP PUSH2 0x4302 DUP3 PUSH2 0x42C5 JUMP JUMPDEST PUSH1 0x3 DUP3 ADD SWAP2 POP PUSH2 0x4312 DUP3 DUP5 PUSH2 0x32AA JUMP JUMPDEST SWAP2 POP DUP2 SWAP1 POP SWAP4 SWAP3 POP POP POP JUMP JUMPDEST PUSH32 0x3E00000000000000000000000000000000000000000000000000000000000000 DUP2 MSTORE POP JUMP JUMPDEST PUSH32 0x3C2F000000000000000000000000000000000000000000000000000000000000 DUP2 MSTORE POP JUMP JUMPDEST PUSH1 0x0 PUSH2 0x4375 DUP3 PUSH2 0x3CB5 JUMP JUMPDEST PUSH1 0x1 DUP3 ADD SWAP2 POP PUSH2 0x4385 DUP3 DUP8 PUSH2 0x32AA JUMP JUMPDEST SWAP2 POP PUSH2 0x4390 DUP3 PUSH2 0x3CDB JUMP JUMPDEST PUSH1 0x1 DUP3 ADD SWAP2 POP PUSH2 0x43A0 DUP3 DUP7 PUSH2 0x32AA JUMP JUMPDEST SWAP2 POP PUSH2 0x43AB DUP3 PUSH2 0x431E JUMP JUMPDEST PUSH1 0x1 DUP3 ADD SWAP2 POP PUSH2 0x43BB DUP3 DUP6 PUSH2 0x32AA JUMP JUMPDEST SWAP2 POP PUSH2 0x43C6 DUP3 PUSH2 0x4344 JUMP JUMPDEST PUSH1 0x2 DUP3 ADD SWAP2 POP PUSH2 0x43D6 DUP3 DUP5 PUSH2 0x32AA JUMP JUMPDEST SWAP2 POP PUSH2 0x43E1 DUP3 PUSH2 0x431E JUMP JUMPDEST PUSH1 0x1 DUP3 ADD SWAP2 POP DUP2 SWAP1 POP SWAP6 SWAP5 POP POP POP POP POP JUMP JUMPDEST PUSH1 0x0 PUSH2 0x43FE DUP3 PUSH2 0x33CF JUMP JUMPDEST SWAP2 POP PUSH32 0xFFFFFFFFFFFFFFFFFFFFFFFFFFFFFFFFFFFFFFFFFFFFFFFFFFFFFFFFFFFFFFFF DUP3 SUB PUSH2 0x4430 JUMPI PUSH2 0x442F PUSH2 0x3A47 JUMP JUMPDEST JUMPDEST PUSH1 0x1 DUP3 ADD SWAP1 POP SWAP2 SWAP1 POP JUMP JUMPDEST PUSH1 0x0 PUSH2 0x4446 DUP3 PUSH2 0x33CF JUMP JUMPDEST SWAP2 POP PUSH2 0x4451 DUP4 PUSH2 0x33CF JUMP JUMPDEST SWAP3 POP DUP3 PUSH2 0x4461 JUMPI PUSH2 0x4460 PUSH2 0x3ACC JUMP JUMPDEST JUMPDEST DUP3 DUP3 MOD SWAP1 POP SWAP3 SWAP2 POP POP JUMP JUMPDEST PUSH32 0x4E487B7100000000000000000000000000000000000000000000000000000000 PUSH1 0x0 MSTORE PUSH1 0x32 PUSH1 0x4 MSTORE PUSH1 0x24 PUSH1 0x0 REVERT JUMPDEST PUSH1 0x0 PUSH2 0x44A6 DUP3 PUSH2 0x33CF JUMP JUMPDEST SWAP2 POP PUSH1 0x0 DUP3 SUB PUSH2 0x44B9 JUMPI PUSH2 0x44B8 PUSH2 0x3A47 JUMP JUMPDEST JUMPDEST PUSH1 0x1 DUP3 SUB SWAP1 POP SWAP2 SWAP1 POP JUMP JUMPDEST PUSH32 0x537472696E67733A20686578206C656E67746820696E73756666696369656E74 PUSH1 0x0 DUP3 ADD MSTORE POP JUMP JUMPDEST PUSH1 0x0 PUSH2 0x44FA PUSH1 0x20 DUP4 PUSH2 0x314B JUMP JUMPDEST SWAP2 POP PUSH2 0x4505 DUP3 PUSH2 0x44C4 JUMP JUMPDEST PUSH1 0x20 DUP3 ADD SWAP1 POP SWAP2 SWAP1 POP JUMP JUMPDEST PUSH1 0x0 PUSH1 0x20 DUP3 ADD SWAP1 POP DUP2 DUP2 SUB PUSH1 0x0 DUP4 ADD MSTORE PUSH2 0x4529 DUP2 PUSH2 0x44ED JUMP JUMPDEST SWAP1 POP SWAP2 SWAP1 POP JUMP JUMPDEST PUSH32 0x736C6963655F6F766572666C6F77000000000000000000000000000000000000 PUSH1 0x0 DUP3 ADD MSTORE POP JUMP JUMPDEST PUSH1 0x0 PUSH2 0x4566 PUSH1 0xE DUP4 PUSH2 0x314B JUMP JUMPDEST SWAP2 POP PUSH2 0x4571 DUP3 PUSH2 0x4530 JUMP JUMPDEST PUSH1 0x20 DUP3 ADD SWAP1 POP SWAP2 SWAP1 POP JUMP JUMPDEST PUSH1 0x0 PUSH1 0x20 DUP3 ADD SWAP1 POP DUP2 DUP2 SUB PUSH1 0x0 DUP4 ADD MSTORE PUSH2 0x4595 DUP2 PUSH2 0x4559 JUMP JUMPDEST SWAP1 POP SWAP2 SWAP1 POP JUMP JUMPDEST PUSH32 0x736C6963655F6F75744F66426F756E6473000000000000000000000000000000 PUSH1 0x0 DUP3 ADD MSTORE POP JUMP JUMPDEST PUSH1 0x0 PUSH2 0x45D2 PUSH1 0x11 DUP4 PUSH2 0x314B JUMP JUMPDEST SWAP2 POP PUSH2 0x45DD DUP3 PUSH2 0x459C JUMP JUMPDEST PUSH1 0x20 DUP3 ADD SWAP1 POP SWAP2 SWAP1 POP JUMP JUMPDEST PUSH1 0x0 PUSH1 0x20 DUP3 ADD SWAP1 POP DUP2 DUP2 SUB PUSH1 0x0 DUP4 ADD MSTORE PUSH2 0x4601 DUP2 PUSH2 0x45C5 JUMP JUMPDEST SWAP1 POP SWAP2 SWAP1 POP JUMP INVALID COINBASE TIMESTAMP NUMBER DIFFICULTY GASLIMIT CHAINID SELFBALANCE BASEFEE 0x49 0x4A 0x4B 0x4C 0x4D 0x4E 0x4F POP MLOAD MSTORE MSTORE8 SLOAD SSTORE JUMP JUMPI PC MSIZE GAS PUSH2 0x6263 PUSH5 0x6566676869 PUSH11 0x6B6C6D6E6F707172737475 PUSH23 0x7778797A303132333435363738392B2FA2646970667358 0x22 SLT KECCAK256 BASEFEE PUSH20 0xCAAF2CE1E1FDAABBC47806442E02B5A631401CBD CALLDATASIZE DUP15 SDIV 0xA7 0xE 0xA5 DUP9 0xBF 0x4C 0x2D PUSH5 0x736F6C6343 STOP ADDMOD 0xF STOP CALLER "},"gasEstimates":{"creation":{"codeDepositCost":"3609200","executionCost":"infinite","totalCost":"infinite"},"external":{"owner()":"1244","render(bytes)":"infinite","renounceOwnership()":"24398","svgLibrary()":"1280","svgRegistry()":"1258","transferOwnership(address)":"24832"},"internal":{"_construct(bytes memory)":"infinite","_lib(bytes32,bytes memory)":"infinite","_registry(bytes32,bytes memory)":"infinite","accountDetails(address,string memory,string memory)":"infinite","avgBalanceDetails(uint256)":"infinite","cardDetails()":"infinite","chanceDetails(uint256)":"infinite","renderFooter(address,uint256,string memory,string memory)":"infinite","renderHeader(uint256)":"infinite","renderNetwork()":"infinite"}},"methodIdentifiers":{"owner()":"8da5cb5b","render(bytes)":"316df61e","renounceOwnership()":"715018a6","svgLibrary()":"a001e0d5","svgRegistry()":"933d9eb5","transferOwnership(address)":"f2fde38b"}},"storageLayout":{"storage":[{"astId":1691,"contract":"@web3-savings-cards/core-sol/contracts/rendering/PoolTogetherV0Render.sol:PoolTogetherV0Render","label":"_owner","offset":0,"slot":"0","type":"t_address"},{"astId":2715,"contract":"@web3-savings-cards/core-sol/contracts/rendering/PoolTogetherV0Render.sol:PoolTogetherV0Render","label":"svgLibrary","offset":0,"slot":"1","type":"t_address"},{"astId":2717,"contract":"@web3-savings-cards/core-sol/contracts/rendering/PoolTogetherV0Render.sol:PoolTogetherV0Render","label":"svgRegistry","offset":0,"slot":"2","type":"t_address"}],"types":{"t_address":{"encoding":"inplace","label":"address","numberOfBytes":"20"}}},"userdoc":{"kind":"user","methods":{},"version":1}}}}