{
  "contracts/svg/svg.sol": {
    "svg": {
      "abi": [
        {
          "inputs": [
            {
              "internalType": "bytes",
              "name": "_data",
              "type": "bytes"
            },
            {
              "internalType": "uint256",
              "name": "_offset",
              "type": "uint256"
            }
          ],
          "name": "byte2uint8",
          "outputs": [
            {
              "internalType": "uint8",
              "name": "",
              "type": "uint8"
            }
          ],
          "stateMutability": "pure",
          "type": "function"
        },
        {
          "inputs": [
            {
              "internalType": "bytes",
              "name": "_data",
              "type": "bytes"
            },
            {
              "internalType": "uint256",
              "name": "_offset",
              "type": "uint256"
            },
            {
              "internalType": "uint256",
              "name": "_len",
              "type": "uint256"
            }
          ],
          "name": "stringifyIntSet",
          "outputs": [
            {
              "internalType": "bytes",
              "name": "",
              "type": "bytes"
            }
          ],
          "stateMutability": "pure",
          "type": "function"
        }
      ],
      "devdoc": {
        "author": "Kames Geraghty",
        "details": "Original code from w1nt3r-eth/hot-chain-svg (https://github.com/w1nt3r-eth/hot-chain-svg)",
        "kind": "dev",
        "methods": {},
        "title": "svg",
        "version": 1
      },
      "evm": {
        "bytecode": {
          "linkReferences": {},
          "object": "61056f61003a600b82828239805160001a60731461002d57634e487b7160e01b600052600060045260246000fd5b30600052607381538281f3fe73000000000000000000000000000000000000000030146080604052600436106100405760003560e01c80635119ce4b14610045578063c821f2ef1461006f575b600080fd5b610058610053366004610356565b61008f565b60405160ff90911681526020015b60405180910390f35b61008261007d36600461039b565b6100f7565b6040516100669190610419565b6000818351116100d55760405162461bcd60e51b815260206004820152600c60248201526b4f7574206f662072616e676560a01b60448201526064015b60405180910390fd5b8282815181106100e7576100e761044c565b016020015160f81c905092915050565b6060806101048385610478565b855110156101435760405162461bcd60e51b815260206004820152600c60248201526b4f7574206f662072616e676560a01b60448201526064016100cc565b835b61014f8486610478565b8110156101a1578161016c610164888461008f565b60ff166101aa565b60405160200161017d929190610490565b60405160208183030381529060405291508080610199906104cb565b915050610145565b50949350505050565b6060816000036101d15750506040805180820190915260018152600360fc1b602082015290565b8160005b81156101fb57806101e5816104cb565b91506101f49050600a836104fa565b91506101d5565b60008167ffffffffffffffff811115610216576102166102b3565b6040519080825280601f01601f191660200182016040528015610240576020820181803683370190505b5090505b84156102ab5761025560018361050e565b9150610262600a86610525565b61026d906030610478565b60f81b8183815181106102825761028261044c565b60200101906001600160f81b031916908160001a9053506102a4600a866104fa565b9450610244565b949350505050565b634e487b7160e01b600052604160045260246000fd5b600082601f8301126102da57600080fd5b813567ffffffffffffffff808211156102f5576102f56102b3565b604051601f8301601f19908116603f0116810190828211818310171561031d5761031d6102b3565b8160405283815286602085880101111561033657600080fd5b836020870160208301376000602085830101528094505050505092915050565b6000806040838503121561036957600080fd5b823567ffffffffffffffff81111561038057600080fd5b61038c858286016102c9565b95602094909401359450505050565b6000806000606084860312156103b057600080fd5b833567ffffffffffffffff8111156103c757600080fd5b6103d3868287016102c9565b9660208601359650604090950135949350505050565b60005b838110156104045781810151838201526020016103ec565b83811115610413576000848401525b50505050565b60208152600082518060208401526104388160408501602087016103e9565b601f01601f19169190910160400192915050565b634e487b7160e01b600052603260045260246000fd5b634e487b7160e01b600052601160045260246000fd5b6000821982111561048b5761048b610462565b500190565b600083516104a28184602088016103e9565b8351908301906104b68183602088016103e9565b600160fd1b9101908152600101949350505050565b6000600182016104dd576104dd610462565b5060010190565b634e487b7160e01b600052601260045260246000fd5b600082610509576105096104e4565b500490565b60008282101561052057610520610462565b500390565b600082610534576105346104e4565b50069056fea264697066735822122030432c4736a1a5a68d88a8ae34580ce4a1ef6e0d3cf5822562a1437aa4c919fd64736f6c634300080f0033",
          "opcodes": "PUSH2 0x56F PUSH2 0x3A PUSH1 0xB DUP3 DUP3 DUP3 CODECOPY DUP1 MLOAD PUSH1 0x0 BYTE PUSH1 0x73 EQ PUSH2 0x2D JUMPI PUSH4 0x4E487B71 PUSH1 0xE0 SHL PUSH1 0x0 MSTORE PUSH1 0x0 PUSH1 0x4 MSTORE PUSH1 0x24 PUSH1 0x0 REVERT JUMPDEST ADDRESS PUSH1 0x0 MSTORE PUSH1 0x73 DUP2 MSTORE8 DUP3 DUP2 RETURN INVALID PUSH20 0x0 ADDRESS EQ PUSH1 0x80 PUSH1 0x40 MSTORE PUSH1 0x4 CALLDATASIZE LT PUSH2 0x40 JUMPI PUSH1 0x0 CALLDATALOAD PUSH1 0xE0 SHR DUP1 PUSH4 0x5119CE4B EQ PUSH2 0x45 JUMPI DUP1 PUSH4 0xC821F2EF EQ PUSH2 0x6F JUMPI JUMPDEST PUSH1 0x0 DUP1 REVERT JUMPDEST PUSH2 0x58 PUSH2 0x53 CALLDATASIZE PUSH1 0x4 PUSH2 0x356 JUMP JUMPDEST PUSH2 0x8F JUMP JUMPDEST PUSH1 0x40 MLOAD PUSH1 0xFF SWAP1 SWAP2 AND DUP2 MSTORE PUSH1 0x20 ADD JUMPDEST PUSH1 0x40 MLOAD DUP1 SWAP2 SUB SWAP1 RETURN JUMPDEST PUSH2 0x82 PUSH2 0x7D CALLDATASIZE PUSH1 0x4 PUSH2 0x39B JUMP JUMPDEST PUSH2 0xF7 JUMP JUMPDEST PUSH1 0x40 MLOAD PUSH2 0x66 SWAP2 SWAP1 PUSH2 0x419 JUMP JUMPDEST PUSH1 0x0 DUP2 DUP4 MLOAD GT PUSH2 0xD5 JUMPI PUSH1 0x40 MLOAD PUSH3 0x461BCD PUSH1 0xE5 SHL DUP2 MSTORE PUSH1 0x20 PUSH1 0x4 DUP3 ADD MSTORE PUSH1 0xC PUSH1 0x24 DUP3 ADD MSTORE PUSH12 0x4F7574206F662072616E6765 PUSH1 0xA0 SHL PUSH1 0x44 DUP3 ADD MSTORE PUSH1 0x64 ADD JUMPDEST PUSH1 0x40 MLOAD DUP1 SWAP2 SUB SWAP1 REVERT JUMPDEST DUP3 DUP3 DUP2 MLOAD DUP2 LT PUSH2 0xE7 JUMPI PUSH2 0xE7 PUSH2 0x44C JUMP JUMPDEST ADD PUSH1 0x20 ADD MLOAD PUSH1 0xF8 SHR SWAP1 POP SWAP3 SWAP2 POP POP JUMP JUMPDEST PUSH1 0x60 DUP1 PUSH2 0x104 DUP4 DUP6 PUSH2 0x478 JUMP JUMPDEST DUP6 MLOAD LT ISZERO PUSH2 0x143 JUMPI PUSH1 0x40 MLOAD PUSH3 0x461BCD PUSH1 0xE5 SHL DUP2 MSTORE PUSH1 0x20 PUSH1 0x4 DUP3 ADD MSTORE PUSH1 0xC PUSH1 0x24 DUP3 ADD MSTORE PUSH12 0x4F7574206F662072616E6765 PUSH1 0xA0 SHL PUSH1 0x44 DUP3 ADD MSTORE PUSH1 0x64 ADD PUSH2 0xCC JUMP JUMPDEST DUP4 JUMPDEST PUSH2 0x14F DUP5 DUP7 PUSH2 0x478 JUMP JUMPDEST DUP2 LT ISZERO PUSH2 0x1A1 JUMPI DUP2 PUSH2 0x16C PUSH2 0x164 DUP9 DUP5 PUSH2 0x8F JUMP JUMPDEST PUSH1 0xFF AND PUSH2 0x1AA JUMP JUMPDEST PUSH1 0x40 MLOAD PUSH1 0x20 ADD PUSH2 0x17D SWAP3 SWAP2 SWAP1 PUSH2 0x490 JUMP JUMPDEST PUSH1 0x40 MLOAD PUSH1 0x20 DUP2 DUP4 SUB SUB DUP2 MSTORE SWAP1 PUSH1 0x40 MSTORE SWAP2 POP DUP1 DUP1 PUSH2 0x199 SWAP1 PUSH2 0x4CB JUMP JUMPDEST SWAP2 POP POP PUSH2 0x145 JUMP JUMPDEST POP SWAP5 SWAP4 POP POP POP POP JUMP JUMPDEST PUSH1 0x60 DUP2 PUSH1 0x0 SUB PUSH2 0x1D1 JUMPI POP POP PUSH1 0x40 DUP1 MLOAD DUP1 DUP3 ADD SWAP1 SWAP2 MSTORE PUSH1 0x1 DUP2 MSTORE PUSH1 0x3 PUSH1 0xFC SHL PUSH1 0x20 DUP3 ADD MSTORE SWAP1 JUMP JUMPDEST DUP2 PUSH1 0x0 JUMPDEST DUP2 ISZERO PUSH2 0x1FB JUMPI DUP1 PUSH2 0x1E5 DUP2 PUSH2 0x4CB JUMP JUMPDEST SWAP2 POP PUSH2 0x1F4 SWAP1 POP PUSH1 0xA DUP4 PUSH2 0x4FA JUMP JUMPDEST SWAP2 POP PUSH2 0x1D5 JUMP JUMPDEST PUSH1 0x0 DUP2 PUSH8 0xFFFFFFFFFFFFFFFF DUP2 GT ISZERO PUSH2 0x216 JUMPI PUSH2 0x216 PUSH2 0x2B3 JUMP JUMPDEST PUSH1 0x40 MLOAD SWAP1 DUP1 DUP3 MSTORE DUP1 PUSH1 0x1F ADD PUSH1 0x1F NOT AND PUSH1 0x20 ADD DUP3 ADD PUSH1 0x40 MSTORE DUP1 ISZERO PUSH2 0x240 JUMPI PUSH1 0x20 DUP3 ADD DUP2 DUP1 CALLDATASIZE DUP4 CALLDATACOPY ADD SWAP1 POP JUMPDEST POP SWAP1 POP JUMPDEST DUP5 ISZERO PUSH2 0x2AB JUMPI PUSH2 0x255 PUSH1 0x1 DUP4 PUSH2 0x50E JUMP JUMPDEST SWAP2 POP PUSH2 0x262 PUSH1 0xA DUP7 PUSH2 0x525 JUMP JUMPDEST PUSH2 0x26D SWAP1 PUSH1 0x30 PUSH2 0x478 JUMP JUMPDEST PUSH1 0xF8 SHL DUP2 DUP4 DUP2 MLOAD DUP2 LT PUSH2 0x282 JUMPI PUSH2 0x282 PUSH2 0x44C JUMP JUMPDEST PUSH1 0x20 ADD ADD SWAP1 PUSH1 0x1 PUSH1 0x1 PUSH1 0xF8 SHL SUB NOT AND SWAP1 DUP2 PUSH1 0x0 BYTE SWAP1 MSTORE8 POP PUSH2 0x2A4 PUSH1 0xA DUP7 PUSH2 0x4FA JUMP JUMPDEST SWAP5 POP PUSH2 0x244 JUMP JUMPDEST SWAP5 SWAP4 POP POP POP POP JUMP JUMPDEST PUSH4 0x4E487B71 PUSH1 0xE0 SHL PUSH1 0x0 MSTORE PUSH1 0x41 PUSH1 0x4 MSTORE PUSH1 0x24 PUSH1 0x0 REVERT JUMPDEST PUSH1 0x0 DUP3 PUSH1 0x1F DUP4 ADD SLT PUSH2 0x2DA JUMPI PUSH1 0x0 DUP1 REVERT JUMPDEST DUP2 CALLDATALOAD PUSH8 0xFFFFFFFFFFFFFFFF DUP1 DUP3 GT ISZERO PUSH2 0x2F5 JUMPI PUSH2 0x2F5 PUSH2 0x2B3 JUMP JUMPDEST PUSH1 0x40 MLOAD PUSH1 0x1F DUP4 ADD PUSH1 0x1F NOT SWAP1 DUP2 AND PUSH1 0x3F ADD AND DUP2 ADD SWAP1 DUP3 DUP3 GT DUP2 DUP4 LT OR ISZERO PUSH2 0x31D JUMPI PUSH2 0x31D PUSH2 0x2B3 JUMP JUMPDEST DUP2 PUSH1 0x40 MSTORE DUP4 DUP2 MSTORE DUP7 PUSH1 0x20 DUP6 DUP9 ADD ADD GT ISZERO PUSH2 0x336 JUMPI PUSH1 0x0 DUP1 REVERT JUMPDEST DUP4 PUSH1 0x20 DUP8 ADD PUSH1 0x20 DUP4 ADD CALLDATACOPY PUSH1 0x0 PUSH1 0x20 DUP6 DUP4 ADD ADD MSTORE DUP1 SWAP5 POP POP POP POP POP SWAP3 SWAP2 POP POP JUMP JUMPDEST PUSH1 0x0 DUP1 PUSH1 0x40 DUP4 DUP6 SUB SLT ISZERO PUSH2 0x369 JUMPI PUSH1 0x0 DUP1 REVERT JUMPDEST DUP3 CALLDATALOAD PUSH8 0xFFFFFFFFFFFFFFFF DUP2 GT ISZERO PUSH2 0x380 JUMPI PUSH1 0x0 DUP1 REVERT JUMPDEST PUSH2 0x38C DUP6 DUP3 DUP7 ADD PUSH2 0x2C9 JUMP JUMPDEST SWAP6 PUSH1 0x20 SWAP5 SWAP1 SWAP5 ADD CALLDATALOAD SWAP5 POP POP POP POP JUMP JUMPDEST PUSH1 0x0 DUP1 PUSH1 0x0 PUSH1 0x60 DUP5 DUP7 SUB SLT ISZERO PUSH2 0x3B0 JUMPI PUSH1 0x0 DUP1 REVERT JUMPDEST DUP4 CALLDATALOAD PUSH8 0xFFFFFFFFFFFFFFFF DUP2 GT ISZERO PUSH2 0x3C7 JUMPI PUSH1 0x0 DUP1 REVERT JUMPDEST PUSH2 0x3D3 DUP7 DUP3 DUP8 ADD PUSH2 0x2C9 JUMP JUMPDEST SWAP7 PUSH1 0x20 DUP7 ADD CALLDATALOAD SWAP7 POP PUSH1 0x40 SWAP1 SWAP6 ADD CALLDATALOAD SWAP5 SWAP4 POP POP POP POP JUMP JUMPDEST PUSH1 0x0 JUMPDEST DUP4 DUP2 LT ISZERO PUSH2 0x404 JUMPI DUP2 DUP2 ADD MLOAD DUP4 DUP3 ADD MSTORE PUSH1 0x20 ADD PUSH2 0x3EC JUMP JUMPDEST DUP4 DUP2 GT ISZERO PUSH2 0x413 JUMPI PUSH1 0x0 DUP5 DUP5 ADD MSTORE JUMPDEST POP POP POP POP JUMP JUMPDEST PUSH1 0x20 DUP2 MSTORE PUSH1 0x0 DUP3 MLOAD DUP1 PUSH1 0x20 DUP5 ADD MSTORE PUSH2 0x438 DUP2 PUSH1 0x40 DUP6 ADD PUSH1 0x20 DUP8 ADD PUSH2 0x3E9 JUMP JUMPDEST PUSH1 0x1F ADD PUSH1 0x1F NOT AND SWAP2 SWAP1 SWAP2 ADD PUSH1 0x40 ADD SWAP3 SWAP2 POP POP JUMP JUMPDEST PUSH4 0x4E487B71 PUSH1 0xE0 SHL PUSH1 0x0 MSTORE PUSH1 0x32 PUSH1 0x4 MSTORE PUSH1 0x24 PUSH1 0x0 REVERT JUMPDEST PUSH4 0x4E487B71 PUSH1 0xE0 SHL PUSH1 0x0 MSTORE PUSH1 0x11 PUSH1 0x4 MSTORE PUSH1 0x24 PUSH1 0x0 REVERT JUMPDEST PUSH1 0x0 DUP3 NOT DUP3 GT ISZERO PUSH2 0x48B JUMPI PUSH2 0x48B PUSH2 0x462 JUMP JUMPDEST POP ADD SWAP1 JUMP JUMPDEST PUSH1 0x0 DUP4 MLOAD PUSH2 0x4A2 DUP2 DUP5 PUSH1 0x20 DUP9 ADD PUSH2 0x3E9 JUMP JUMPDEST DUP4 MLOAD SWAP1 DUP4 ADD SWAP1 PUSH2 0x4B6 DUP2 DUP4 PUSH1 0x20 DUP9 ADD PUSH2 0x3E9 JUMP JUMPDEST PUSH1 0x1 PUSH1 0xFD SHL SWAP2 ADD SWAP1 DUP2 MSTORE PUSH1 0x1 ADD SWAP5 SWAP4 POP POP POP POP JUMP JUMPDEST PUSH1 0x0 PUSH1 0x1 DUP3 ADD PUSH2 0x4DD JUMPI PUSH2 0x4DD PUSH2 0x462 JUMP JUMPDEST POP PUSH1 0x1 ADD SWAP1 JUMP JUMPDEST PUSH4 0x4E487B71 PUSH1 0xE0 SHL PUSH1 0x0 MSTORE PUSH1 0x12 PUSH1 0x4 MSTORE PUSH1 0x24 PUSH1 0x0 REVERT JUMPDEST PUSH1 0x0 DUP3 PUSH2 0x509 JUMPI PUSH2 0x509 PUSH2 0x4E4 JUMP JUMPDEST POP DIV SWAP1 JUMP JUMPDEST PUSH1 0x0 DUP3 DUP3 LT ISZERO PUSH2 0x520 JUMPI PUSH2 0x520 PUSH2 0x462 JUMP JUMPDEST POP SUB SWAP1 JUMP JUMPDEST PUSH1 0x0 DUP3 PUSH2 0x534 JUMPI PUSH2 0x534 PUSH2 0x4E4 JUMP JUMPDEST POP MOD SWAP1 JUMP INVALID LOG2 PUSH5 0x6970667358 0x22 SLT KECCAK256 ADDRESS NUMBER 0x2C SELFBALANCE CALLDATASIZE LOG1 0xA5 0xA6 DUP14 DUP9 0xA8 0xAE CALLVALUE PC 0xC 0xE4 LOG1 0xEF PUSH15 0xD3CF5822562A1437AA4C919FD6473 PUSH16 0x6C634300080F00330000000000000000 "
        },
        "gasEstimates": {
          "creation": {
            "codeDepositCost": "278200",
            "executionCost": "349",
            "totalCost": "278549"
          },
          "external": {
            "byte2uint8(bytes,uint256)": "infinite",
            "stringifyIntSet(bytes,uint256,uint256)": "infinite"
          },
          "internal": {
            "animateTransform(string memory)": "infinite",
            "cdata(string memory)": "infinite",
            "circle(string memory)": "infinite",
            "circle(string memory,string memory)": "infinite",
            "defs(string memory)": "infinite",
            "el(string memory,string memory)": "infinite",
            "el(string memory,string memory,string memory)": "infinite",
            "end()": "infinite",
            "filter(string memory,string memory)": "infinite",
            "g(string memory,string memory)": "infinite",
            "gradientStop(uint256,string memory,string memory)": "infinite",
            "image(string memory,string memory)": "infinite",
            "line(string memory,string memory)": "infinite",
            "linearGradient(string memory,string memory)": "infinite",
            "path(string memory,string memory)": "infinite",
            "prop(string memory,string memory)": "infinite",
            "radialGradient(string memory,string memory)": "infinite",
            "rect(string memory)": "infinite",
            "rect(string memory,string memory)": "infinite",
            "start()": "infinite",
            "stop(string memory)": "infinite",
            "text(string memory,string memory)": "infinite"
          }
        },
        "methodIdentifiers": {
          "byte2uint8(bytes,uint256)": "5119ce4b",
          "stringifyIntSet(bytes,uint256,uint256)": "c821f2ef"
        }
      },
      "storageLayout": {
        "storage": [],
        "types": null
      },
      "userdoc": {
        "kind": "user",
        "methods": {},
        "notice": "SVG construction library using web-like API.",
        "version": 1
      }
    }
  }
}