{
  "contracts/svg/SVGColor.sol": {
    "SVGColor": {
      "abi": [
        {
          "inputs": [],
          "stateMutability": "nonpayable",
          "type": "constructor"
        },
        {
          "inputs": [
            {
              "internalType": "bytes",
              "name": "_colors",
              "type": "bytes"
            },
            {
              "internalType": "bytes",
              "name": "_id",
              "type": "bytes"
            },
            {
              "internalType": "bytes",
              "name": "_customAttributes",
              "type": "bytes"
            }
          ],
          "name": "autoLinearGradient",
          "outputs": [
            {
              "internalType": "bytes",
              "name": "",
              "type": "bytes"
            }
          ],
          "stateMutability": "view",
          "type": "function"
        },
        {
          "inputs": [
            {
              "internalType": "bytes",
              "name": "_coordinates",
              "type": "bytes"
            },
            {
              "internalType": "bytes",
              "name": "_colors",
              "type": "bytes"
            },
            {
              "internalType": "bytes",
              "name": "_id",
              "type": "bytes"
            },
            {
              "internalType": "bytes",
              "name": "_customAttributes",
              "type": "bytes"
            }
          ],
          "name": "autoLinearGradient",
          "outputs": [
            {
              "internalType": "bytes",
              "name": "",
              "type": "bytes"
            }
          ],
          "stateMutability": "view",
          "type": "function"
        },
        {
          "inputs": [
            {
              "internalType": "bytes",
              "name": "_data",
              "type": "bytes"
            },
            {
              "internalType": "uint256",
              "name": "_offset",
              "type": "uint256"
            }
          ],
          "name": "byte2uint8",
          "outputs": [
            {
              "internalType": "uint8",
              "name": "",
              "type": "uint8"
            }
          ],
          "stateMutability": "pure",
          "type": "function"
        },
        {
          "inputs": [
            {
              "internalType": "string",
              "name": "",
              "type": "string"
            }
          ],
          "name": "colors",
          "outputs": [
            {
              "internalType": "bytes",
              "name": "",
              "type": "bytes"
            }
          ],
          "stateMutability": "view",
          "type": "function"
        },
        {
          "inputs": [
            {
              "internalType": "string",
              "name": "_colorName",
              "type": "string"
            },
            {
              "internalType": "uint8",
              "name": "_alpha",
              "type": "uint8"
            }
          ],
          "name": "getColor",
          "outputs": [
            {
              "internalType": "bytes",
              "name": "",
              "type": "bytes"
            }
          ],
          "stateMutability": "view",
          "type": "function"
        },
        {
          "inputs": [
            {
              "internalType": "string",
              "name": "_colorName",
              "type": "string"
            }
          ],
          "name": "getColor",
          "outputs": [
            {
              "internalType": "bytes",
              "name": "",
              "type": "bytes"
            }
          ],
          "stateMutability": "view",
          "type": "function"
        },
        {
          "inputs": [
            {
              "internalType": "string",
              "name": "_colorName",
              "type": "string"
            }
          ],
          "name": "getRgba",
          "outputs": [
            {
              "internalType": "string",
              "name": "",
              "type": "string"
            }
          ],
          "stateMutability": "view",
          "type": "function"
        },
        {
          "inputs": [
            {
              "internalType": "bytes",
              "name": "_lg",
              "type": "bytes"
            },
            {
              "internalType": "bytes",
              "name": "_id",
              "type": "bytes"
            },
            {
              "internalType": "bytes",
              "name": "_customAttributes",
              "type": "bytes"
            }
          ],
          "name": "linearGradient",
          "outputs": [
            {
              "internalType": "bytes",
              "name": "",
              "type": "bytes"
            }
          ],
          "stateMutability": "pure",
          "type": "function"
        },
        {
          "inputs": [
            {
              "internalType": "bytes",
              "name": "_rgba",
              "type": "bytes"
            },
            {
              "internalType": "uint256",
              "name": "offset",
              "type": "uint256"
            }
          ],
          "name": "toRgba",
          "outputs": [
            {
              "internalType": "bytes",
              "name": "",
              "type": "bytes"
            }
          ],
          "stateMutability": "pure",
          "type": "function"
        }
      ],
      "devdoc": {
        "kind": "dev",
        "methods": {},
        "version": 1
      },
      "evm": {
        "bytecode": {
          "linkReferences": {},
          "object": "60806040523480156200001157600080fd5b5060405180604001604052806003815260200160008152506000604051620000449064426c61636b60d81b815260050190565b90815260200160405180910390209081620000609190620001e3565b50604080518082018252600381526001600160e81b03196020820152815164576869746560d81b81526000600582015291519182900360250190912090620000a99082620001e3565b50604080518082018252600381526223232360e81b60208201528151644461726b3160d81b81526000600582015291519182900360250190912090620000f09082620001e3565b50604080518082018252600381526223232360e91b60208201528151642230b9359960d91b81526000600582015291519182900360250190912090620001379082620001e3565b50620002af565b634e487b7160e01b600052604160045260246000fd5b600181811c908216806200016957607f821691505b6020821081036200018a57634e487b7160e01b600052602260045260246000fd5b50919050565b601f821115620001de57600081815260208120601f850160051c81016020861015620001b95750805b601f850160051c820191505b81811015620001da57828155600101620001c5565b5050505b505050565b81516001600160401b03811115620001ff57620001ff6200013e565b620002178162000210845462000154565b8462000190565b602080601f8311600181146200024f5760008415620002365750858301515b600019600386901b1c1916600185901b178555620001da565b600085815260208120601f198616915b8281101562000280578886015182559484019460019091019084016200025f565b50858210156200029f5787850151600019600388901b60f8161c191681555b5050505050600190811b01905550565b6112ec80620002bf6000396000f3fe608060405234801561001057600080fd5b50600436106100935760003560e01c8063b018757011610066578063b01875701461010c578063cde589101461011f578063cf0eca0914610132578063d6412c2714610145578063e5d19e691461015857600080fd5b806340c629fe146100985780634b698358146100c15780635119ce4b146100d4578063525f3654146100f9575b600080fd5b6100ab6100a636600461099c565b61016b565b6040516100b89190610a2d565b60405180910390f35b6100ab6100cf366004610a40565b610210565b6100e76100e2366004610ac8565b610287565b60405160ff90911681526020016100b8565b6100ab610107366004610b0d565b6102ef565b6100ab61011a36600461099c565b6103a2565b6100ab61012d36600461099c565b610452565b6100ab610140366004610a40565b61046d565b6100ab610153366004610b65565b6105ca565b6100ab610166366004610ac8565b61076f565b80516020818301810180516000825292820191909301209152805461018f90610c12565b80601f01602080910402602001604051908101604052809291908181526020018280546101bb90610c12565b80156102085780601f106101dd57610100808354040283529160200191610208565b820191906000526020600020905b8154815290600101906020018083116101eb57829003601f168201915b505050505081565b60405163d6412c2760e01b8152606090309063d6412c279061023a90879087908790600401610c4c565b600060405180830381865afa158015610257573d6000803e3d6000fd5b505050506040513d6000823e601f3d908101601f1916820160405261027f9190810190610c9d565b949350505050565b6000818351116102cd5760405162461bcd60e51b815260206004820152600c60248201526b4f7574206f662072616e676560a01b60448201526064015b60405180910390fd5b8282815181106102df576102df610d14565b016020015160f81c905092915050565b60606000836040516103019190610d2a565b9081526020016040518091039020805461031a90610c12565b905060031461035b5760405162461bcd60e51b815260206004820152600d60248201526c2ab735b737bbb71031b7b637b960991b60448201526064016102c4565b60008360405161036b9190610d2a565b90815260200160405180910390208260405160200161038b929190610de3565b604051602081830303815290604052905092915050565b60606000826040516103b49190610d2a565b908152602001604051809103902080546103cd90610c12565b905060031461040e5760405162461bcd60e51b815260206004820152600d60248201526c2ab735b737bbb71031b7b637b960991b60448201526064016102c4565b60008260405161041e9190610d2a565b908152602001604051809103902060405160200161043c9190610e0b565b6040516020818303038152906040529050919050565b6060610467610460836103a2565b600061076f565b92915050565b6060806000600190508560008151811061048957610489610d14565b60209101015160f81c60809081169003610506576104b36104ab876001610287565b60ff166107c7565b6104c16104ab886002610287565b6104cf6104ab896003610287565b6104dd6104ab8a6004610287565b6040516020016104f09493929190610e28565b6040516020818303038152906040529150600590505b84848360405160200161051b93929190610ee0565b60408051601f19818403018152919052915060ff81165b865181101561059e57826105496104ab8984610287565b61055889610166856001610f79565b886105666104ab8c87610287565b60405160200161057a959493929190610f91565b60408051601f198184030181529190529250610597600582610f79565b9050610532565b50816040516020016105b09190611060565b604051602081830303815290604052925050509392505050565b606080600386511115610601576080866040516020016105eb929190611095565b6040516020818303038152906040529050610618565b506040805180820190915260018152600060208201525b60006004865161062891906110da565b905060005b818160ff16101561075857826106446001846110ee565b61064f9060646110da565b61065c9060ff8416611105565b88610668846004611124565b60ff168151811061067b5761067b610d14565b016020015160f81c8961068f856004611124565b61069a90600161114d565b60ff16815181106106ad576106ad610d14565b016020015160f81c8a6106c1866004611124565b6106cc90600261114d565b60ff16815181106106df576106df610d14565b016020015160f81c8b6106f3876004611124565b6106fe90600361114d565b60ff168151811061071157610711610d14565b602001015160f81c60f81b60f81c60405160200161073496959493929190611172565b60405160208183030381529060405292508080610750906111cc565b91505061062d565b61076383878761046d565b98975050505050505050565b606061077e6104ab8484610287565b6107906104ab856100e2866001610f79565b6107a26104ab866100e2876002610f79565b6107b46104ab876100e2886003610f79565b60405160200161038b94939291906111eb565b6060816000036107ee5750506040805180820190915260018152600360fc1b602082015290565b8160005b8115610818578061080281611289565b91506108119050600a836110da565b91506107f2565b60008167ffffffffffffffff811115610833576108336108c8565b6040519080825280601f01601f19166020018201604052801561085d576020820181803683370190505b5090505b841561027f576108726001836110ee565b915061087f600a866112a2565b61088a906030610f79565b60f81b81838151811061089f5761089f610d14565b60200101906001600160f81b031916908160001a9053506108c1600a866110da565b9450610861565b634e487b7160e01b600052604160045260246000fd5b604051601f8201601f1916810167ffffffffffffffff81118282101715610907576109076108c8565b604052919050565b600067ffffffffffffffff821115610929576109296108c8565b50601f01601f191660200190565b600061094a6109458461090f565b6108de565b905082815283838301111561095e57600080fd5b828260208301376000602084830101529392505050565b600082601f83011261098657600080fd5b61099583833560208501610937565b9392505050565b6000602082840312156109ae57600080fd5b813567ffffffffffffffff8111156109c557600080fd5b61027f84828501610975565b60005b838110156109ec5781810151838201526020016109d4565b838111156109fb576000848401525b50505050565b60008151808452610a198160208601602086016109d1565b601f01601f19169290920160200192915050565b6020815260006109956020830184610a01565b600080600060608486031215610a5557600080fd5b833567ffffffffffffffff80821115610a6d57600080fd5b610a7987838801610975565b94506020860135915080821115610a8f57600080fd5b610a9b87838801610975565b93506040860135915080821115610ab157600080fd5b50610abe86828701610975565b9150509250925092565b60008060408385031215610adb57600080fd5b823567ffffffffffffffff811115610af257600080fd5b610afe85828601610975565b95602094909401359450505050565b60008060408385031215610b2057600080fd5b823567ffffffffffffffff811115610b3757600080fd5b610b4385828601610975565b925050602083013560ff81168114610b5a57600080fd5b809150509250929050565b60008060008060808587031215610b7b57600080fd5b843567ffffffffffffffff80821115610b9357600080fd5b610b9f88838901610975565b95506020870135915080821115610bb557600080fd5b610bc188838901610975565b94506040870135915080821115610bd757600080fd5b610be388838901610975565b93506060870135915080821115610bf957600080fd5b50610c0687828801610975565b91505092959194509250565b600181811c90821680610c2657607f821691505b602082108103610c4657634e487b7160e01b600052602260045260246000fd5b50919050565b608081526000608082015260a060208201526000610c6d60a0830186610a01565b8281036040840152610c7f8186610a01565b90508281036060840152610c938185610a01565b9695505050505050565b600060208284031215610caf57600080fd5b815167ffffffffffffffff811115610cc657600080fd5b8201601f81018413610cd757600080fd5b8051610ce56109458261090f565b818152856020838501011115610cfa57600080fd5b610d0b8260208301602086016109d1565b95945050505050565b634e487b7160e01b600052603260045260246000fd5b60008251610d3c8184602087016109d1565b9190910192915050565b8054600090600181811c9080831680610d6057607f831692505b60208084108203610d8157634e487b7160e01b600052602260045260246000fd5b818015610d955760018114610daa57610dd7565b60ff1986168952841515850289019650610dd7565b60008881526020902060005b86811015610dcf5781548b820152908501908301610db6565b505084890196505b50505050505092915050565b6000610def8285610d46565b60f89390931b6001600160f81b03191683525050600101919050565b6000610e178284610d46565b601960fa1b81526001019392505050565b633c189e9160e11b81528451600090610e48816004850160208a016109d1565b661291103c191e9160c91b6004918401918201528551610e6f81600b840160208a016109d1565b661291103c989e9160c91b600b92909101918201528451610e978160128401602089016109d1565b600481830101915050661291103c991e9160c91b600e8201528351610ec38160158401602088016109d1565b61129160f11b601592909101918201526017019695505050505050565b731e3634b732b0b923b930b234b2b73a1034b21e9160611b81528351600090610f108160148501602089016109d1565b61011160f51b6014918401918201528451610f328160168401602089016109d1565b8451910190610f488160168401602088016109d1565b601f60f91b6016929091019182015260170195945050505050565b634e487b7160e01b600052601160045260246000fd5b60008219821115610f8c57610f8c610f63565b500190565b60008651610fa3818460208b016109d1565b6d1e39ba37b81037b33339b2ba1e9160911b9083019081528651610fce81600e840160208b016109d1565b6e12911039ba37b816b1b7b637b91e9160891b600e92909101918201528551610ffe81601d840160208a016109d1565b65111034b21e9160d11b601d929091019182015284516110258160238401602089016109d1565b600e8183010191505083516110418160158401602088016109d1565b6211179f60e91b60159290910191820152601801979650505050505050565b600082516110728184602087016109d1565b701e17b634b732b0b923b930b234b2b73a1f60791b920191825250601101919050565b60ff60f81b8360f81b168152600082516110b68160018501602087016109d1565b919091016001019392505050565b634e487b7160e01b600052601260045260246000fd5b6000826110e9576110e96110c4565b500490565b60008282101561110057611100610f63565b500390565b600081600019048311821515161561111f5761111f610f63565b500290565b600060ff821660ff84168160ff048111821515161561114557611145610f63565b029392505050565b600060ff821660ff84168060ff0382111561116a5761116a610f63565b019392505050565b60008751611184818460208c016109d1565b60f897881b6001600160f81b03199081169390910192835295871b861660018301525092851b8416600284015290841b8316600383015290921b166004820152600501919050565b600060ff821660ff81036111e2576111e2610f63565b60010192915050565b640e4cec4c2560db1b81526000855161120b816005850160208a016109d1565b8083019050600b60fa1b806005830152865161122e816006850160208b016109d1565b60069201918201819052855161124b816007850160208a016109d1565b60079201918201528351600582019161126c908290600801602088016109d1565b61252960f01b600392909101918201526005019695505050505050565b60006001820161129b5761129b610f63565b5060010190565b6000826112b1576112b16110c4565b50069056fea264697066735822122083d543867e24134af5d3b953ba2ba7d5403bf49e33d89fe48ea3d958d2eb427064736f6c634300080f0033",
          "opcodes": "PUSH1 0x80 PUSH1 0x40 MSTORE CALLVALUE DUP1 ISZERO PUSH3 0x11 JUMPI PUSH1 0x0 DUP1 REVERT JUMPDEST POP PUSH1 0x40 MLOAD DUP1 PUSH1 0x40 ADD PUSH1 0x40 MSTORE DUP1 PUSH1 0x3 DUP2 MSTORE PUSH1 0x20 ADD PUSH1 0x0 DUP2 MSTORE POP PUSH1 0x0 PUSH1 0x40 MLOAD PUSH3 0x44 SWAP1 PUSH5 0x426C61636B PUSH1 0xD8 SHL DUP2 MSTORE PUSH1 0x5 ADD SWAP1 JUMP JUMPDEST SWAP1 DUP2 MSTORE PUSH1 0x20 ADD PUSH1 0x40 MLOAD DUP1 SWAP2 SUB SWAP1 KECCAK256 SWAP1 DUP2 PUSH3 0x60 SWAP2 SWAP1 PUSH3 0x1E3 JUMP JUMPDEST POP PUSH1 0x40 DUP1 MLOAD DUP1 DUP3 ADD DUP3 MSTORE PUSH1 0x3 DUP2 MSTORE PUSH1 0x1 PUSH1 0x1 PUSH1 0xE8 SHL SUB NOT PUSH1 0x20 DUP3 ADD MSTORE DUP2 MLOAD PUSH5 0x5768697465 PUSH1 0xD8 SHL DUP2 MSTORE PUSH1 0x0 PUSH1 0x5 DUP3 ADD MSTORE SWAP2 MLOAD SWAP2 DUP3 SWAP1 SUB PUSH1 0x25 ADD SWAP1 SWAP2 KECCAK256 SWAP1 PUSH3 0xA9 SWAP1 DUP3 PUSH3 0x1E3 JUMP JUMPDEST POP PUSH1 0x40 DUP1 MLOAD DUP1 DUP3 ADD DUP3 MSTORE PUSH1 0x3 DUP2 MSTORE PUSH3 0x232323 PUSH1 0xE8 SHL PUSH1 0x20 DUP3 ADD MSTORE DUP2 MLOAD PUSH5 0x4461726B31 PUSH1 0xD8 SHL DUP2 MSTORE PUSH1 0x0 PUSH1 0x5 DUP3 ADD MSTORE SWAP2 MLOAD SWAP2 DUP3 SWAP1 SUB PUSH1 0x25 ADD SWAP1 SWAP2 KECCAK256 SWAP1 PUSH3 0xF0 SWAP1 DUP3 PUSH3 0x1E3 JUMP JUMPDEST POP PUSH1 0x40 DUP1 MLOAD DUP1 DUP3 ADD DUP3 MSTORE PUSH1 0x3 DUP2 MSTORE PUSH3 0x232323 PUSH1 0xE9 SHL PUSH1 0x20 DUP3 ADD MSTORE DUP2 MLOAD PUSH5 0x2230B93599 PUSH1 0xD9 SHL DUP2 MSTORE PUSH1 0x0 PUSH1 0x5 DUP3 ADD MSTORE SWAP2 MLOAD SWAP2 DUP3 SWAP1 SUB PUSH1 0x25 ADD SWAP1 SWAP2 KECCAK256 SWAP1 PUSH3 0x137 SWAP1 DUP3 PUSH3 0x1E3 JUMP JUMPDEST POP PUSH3 0x2AF JUMP JUMPDEST PUSH4 0x4E487B71 PUSH1 0xE0 SHL PUSH1 0x0 MSTORE PUSH1 0x41 PUSH1 0x4 MSTORE PUSH1 0x24 PUSH1 0x0 REVERT JUMPDEST PUSH1 0x1 DUP2 DUP2 SHR SWAP1 DUP3 AND DUP1 PUSH3 0x169 JUMPI PUSH1 0x7F DUP3 AND SWAP2 POP JUMPDEST PUSH1 0x20 DUP3 LT DUP2 SUB PUSH3 0x18A JUMPI PUSH4 0x4E487B71 PUSH1 0xE0 SHL PUSH1 0x0 MSTORE PUSH1 0x22 PUSH1 0x4 MSTORE PUSH1 0x24 PUSH1 0x0 REVERT JUMPDEST POP SWAP2 SWAP1 POP JUMP JUMPDEST PUSH1 0x1F DUP3 GT ISZERO PUSH3 0x1DE JUMPI PUSH1 0x0 DUP2 DUP2 MSTORE PUSH1 0x20 DUP2 KECCAK256 PUSH1 0x1F DUP6 ADD PUSH1 0x5 SHR DUP2 ADD PUSH1 0x20 DUP7 LT ISZERO PUSH3 0x1B9 JUMPI POP DUP1 JUMPDEST PUSH1 0x1F DUP6 ADD PUSH1 0x5 SHR DUP3 ADD SWAP2 POP JUMPDEST DUP2 DUP2 LT ISZERO PUSH3 0x1DA JUMPI DUP3 DUP2 SSTORE PUSH1 0x1 ADD PUSH3 0x1C5 JUMP JUMPDEST POP POP POP JUMPDEST POP POP POP JUMP JUMPDEST DUP2 MLOAD PUSH1 0x1 PUSH1 0x1 PUSH1 0x40 SHL SUB DUP2 GT ISZERO PUSH3 0x1FF JUMPI PUSH3 0x1FF PUSH3 0x13E JUMP JUMPDEST PUSH3 0x217 DUP2 PUSH3 0x210 DUP5 SLOAD PUSH3 0x154 JUMP JUMPDEST DUP5 PUSH3 0x190 JUMP JUMPDEST PUSH1 0x20 DUP1 PUSH1 0x1F DUP4 GT PUSH1 0x1 DUP2 EQ PUSH3 0x24F JUMPI PUSH1 0x0 DUP5 ISZERO PUSH3 0x236 JUMPI POP DUP6 DUP4 ADD MLOAD JUMPDEST PUSH1 0x0 NOT PUSH1 0x3 DUP7 SWAP1 SHL SHR NOT AND PUSH1 0x1 DUP6 SWAP1 SHL OR DUP6 SSTORE PUSH3 0x1DA JUMP JUMPDEST PUSH1 0x0 DUP6 DUP2 MSTORE PUSH1 0x20 DUP2 KECCAK256 PUSH1 0x1F NOT DUP7 AND SWAP2 JUMPDEST DUP3 DUP2 LT ISZERO PUSH3 0x280 JUMPI DUP9 DUP7 ADD MLOAD DUP3 SSTORE SWAP5 DUP5 ADD SWAP5 PUSH1 0x1 SWAP1 SWAP2 ADD SWAP1 DUP5 ADD PUSH3 0x25F JUMP JUMPDEST POP DUP6 DUP3 LT ISZERO PUSH3 0x29F JUMPI DUP8 DUP6 ADD MLOAD PUSH1 0x0 NOT PUSH1 0x3 DUP9 SWAP1 SHL PUSH1 0xF8 AND SHR NOT AND DUP2 SSTORE JUMPDEST POP POP POP POP POP PUSH1 0x1 SWAP1 DUP2 SHL ADD SWAP1 SSTORE POP JUMP JUMPDEST PUSH2 0x12EC DUP1 PUSH3 0x2BF PUSH1 0x0 CODECOPY PUSH1 0x0 RETURN INVALID PUSH1 0x80 PUSH1 0x40 MSTORE CALLVALUE DUP1 ISZERO PUSH2 0x10 JUMPI PUSH1 0x0 DUP1 REVERT JUMPDEST POP PUSH1 0x4 CALLDATASIZE LT PUSH2 0x93 JUMPI PUSH1 0x0 CALLDATALOAD PUSH1 0xE0 SHR DUP1 PUSH4 0xB0187570 GT PUSH2 0x66 JUMPI DUP1 PUSH4 0xB0187570 EQ PUSH2 0x10C JUMPI DUP1 PUSH4 0xCDE58910 EQ PUSH2 0x11F JUMPI DUP1 PUSH4 0xCF0ECA09 EQ PUSH2 0x132 JUMPI DUP1 PUSH4 0xD6412C27 EQ PUSH2 0x145 JUMPI DUP1 PUSH4 0xE5D19E69 EQ PUSH2 0x158 JUMPI PUSH1 0x0 DUP1 REVERT JUMPDEST DUP1 PUSH4 0x40C629FE EQ PUSH2 0x98 JUMPI DUP1 PUSH4 0x4B698358 EQ PUSH2 0xC1 JUMPI DUP1 PUSH4 0x5119CE4B EQ PUSH2 0xD4 JUMPI DUP1 PUSH4 0x525F3654 EQ PUSH2 0xF9 JUMPI JUMPDEST PUSH1 0x0 DUP1 REVERT JUMPDEST PUSH2 0xAB PUSH2 0xA6 CALLDATASIZE PUSH1 0x4 PUSH2 0x99C JUMP JUMPDEST PUSH2 0x16B JUMP JUMPDEST PUSH1 0x40 MLOAD PUSH2 0xB8 SWAP2 SWAP1 PUSH2 0xA2D JUMP JUMPDEST PUSH1 0x40 MLOAD DUP1 SWAP2 SUB SWAP1 RETURN JUMPDEST PUSH2 0xAB PUSH2 0xCF CALLDATASIZE PUSH1 0x4 PUSH2 0xA40 JUMP JUMPDEST PUSH2 0x210 JUMP JUMPDEST PUSH2 0xE7 PUSH2 0xE2 CALLDATASIZE PUSH1 0x4 PUSH2 0xAC8 JUMP JUMPDEST PUSH2 0x287 JUMP JUMPDEST PUSH1 0x40 MLOAD PUSH1 0xFF SWAP1 SWAP2 AND DUP2 MSTORE PUSH1 0x20 ADD PUSH2 0xB8 JUMP JUMPDEST PUSH2 0xAB PUSH2 0x107 CALLDATASIZE PUSH1 0x4 PUSH2 0xB0D JUMP JUMPDEST PUSH2 0x2EF JUMP JUMPDEST PUSH2 0xAB PUSH2 0x11A CALLDATASIZE PUSH1 0x4 PUSH2 0x99C JUMP JUMPDEST PUSH2 0x3A2 JUMP JUMPDEST PUSH2 0xAB PUSH2 0x12D CALLDATASIZE PUSH1 0x4 PUSH2 0x99C JUMP JUMPDEST PUSH2 0x452 JUMP JUMPDEST PUSH2 0xAB PUSH2 0x140 CALLDATASIZE PUSH1 0x4 PUSH2 0xA40 JUMP JUMPDEST PUSH2 0x46D JUMP JUMPDEST PUSH2 0xAB PUSH2 0x153 CALLDATASIZE PUSH1 0x4 PUSH2 0xB65 JUMP JUMPDEST PUSH2 0x5CA JUMP JUMPDEST PUSH2 0xAB PUSH2 0x166 CALLDATASIZE PUSH1 0x4 PUSH2 0xAC8 JUMP JUMPDEST PUSH2 0x76F JUMP JUMPDEST DUP1 MLOAD PUSH1 0x20 DUP2 DUP4 ADD DUP2 ADD DUP1 MLOAD PUSH1 0x0 DUP3 MSTORE SWAP3 DUP3 ADD SWAP2 SWAP1 SWAP4 ADD KECCAK256 SWAP2 MSTORE DUP1 SLOAD PUSH2 0x18F SWAP1 PUSH2 0xC12 JUMP JUMPDEST DUP1 PUSH1 0x1F ADD PUSH1 0x20 DUP1 SWAP2 DIV MUL PUSH1 0x20 ADD PUSH1 0x40 MLOAD SWAP1 DUP2 ADD PUSH1 0x40 MSTORE DUP1 SWAP3 SWAP2 SWAP1 DUP2 DUP2 MSTORE PUSH1 0x20 ADD DUP3 DUP1 SLOAD PUSH2 0x1BB SWAP1 PUSH2 0xC12 JUMP JUMPDEST DUP1 ISZERO PUSH2 0x208 JUMPI DUP1 PUSH1 0x1F LT PUSH2 0x1DD JUMPI PUSH2 0x100 DUP1 DUP4 SLOAD DIV MUL DUP4 MSTORE SWAP2 PUSH1 0x20 ADD SWAP2 PUSH2 0x208 JUMP JUMPDEST DUP3 ADD SWAP2 SWAP1 PUSH1 0x0 MSTORE PUSH1 0x20 PUSH1 0x0 KECCAK256 SWAP1 JUMPDEST DUP2 SLOAD DUP2 MSTORE SWAP1 PUSH1 0x1 ADD SWAP1 PUSH1 0x20 ADD DUP1 DUP4 GT PUSH2 0x1EB JUMPI DUP3 SWAP1 SUB PUSH1 0x1F AND DUP3 ADD SWAP2 JUMPDEST POP POP POP POP POP DUP2 JUMP JUMPDEST PUSH1 0x40 MLOAD PUSH4 0xD6412C27 PUSH1 0xE0 SHL DUP2 MSTORE PUSH1 0x60 SWAP1 ADDRESS SWAP1 PUSH4 0xD6412C27 SWAP1 PUSH2 0x23A SWAP1 DUP8 SWAP1 DUP8 SWAP1 DUP8 SWAP1 PUSH1 0x4 ADD PUSH2 0xC4C JUMP JUMPDEST PUSH1 0x0 PUSH1 0x40 MLOAD DUP1 DUP4 SUB DUP2 DUP7 GAS STATICCALL ISZERO DUP1 ISZERO PUSH2 0x257 JUMPI RETURNDATASIZE PUSH1 0x0 DUP1 RETURNDATACOPY RETURNDATASIZE PUSH1 0x0 REVERT JUMPDEST POP POP POP POP PUSH1 0x40 MLOAD RETURNDATASIZE PUSH1 0x0 DUP3 RETURNDATACOPY PUSH1 0x1F RETURNDATASIZE SWAP1 DUP2 ADD PUSH1 0x1F NOT AND DUP3 ADD PUSH1 0x40 MSTORE PUSH2 0x27F SWAP2 SWAP1 DUP2 ADD SWAP1 PUSH2 0xC9D JUMP JUMPDEST SWAP5 SWAP4 POP POP POP POP JUMP JUMPDEST PUSH1 0x0 DUP2 DUP4 MLOAD GT PUSH2 0x2CD JUMPI PUSH1 0x40 MLOAD PUSH3 0x461BCD PUSH1 0xE5 SHL DUP2 MSTORE PUSH1 0x20 PUSH1 0x4 DUP3 ADD MSTORE PUSH1 0xC PUSH1 0x24 DUP3 ADD MSTORE PUSH12 0x4F7574206F662072616E6765 PUSH1 0xA0 SHL PUSH1 0x44 DUP3 ADD MSTORE PUSH1 0x64 ADD JUMPDEST PUSH1 0x40 MLOAD DUP1 SWAP2 SUB SWAP1 REVERT JUMPDEST DUP3 DUP3 DUP2 MLOAD DUP2 LT PUSH2 0x2DF JUMPI PUSH2 0x2DF PUSH2 0xD14 JUMP JUMPDEST ADD PUSH1 0x20 ADD MLOAD PUSH1 0xF8 SHR SWAP1 POP SWAP3 SWAP2 POP POP JUMP JUMPDEST PUSH1 0x60 PUSH1 0x0 DUP4 PUSH1 0x40 MLOAD PUSH2 0x301 SWAP2 SWAP1 PUSH2 0xD2A JUMP JUMPDEST SWAP1 DUP2 MSTORE PUSH1 0x20 ADD PUSH1 0x40 MLOAD DUP1 SWAP2 SUB SWAP1 KECCAK256 DUP1 SLOAD PUSH2 0x31A SWAP1 PUSH2 0xC12 JUMP JUMPDEST SWAP1 POP PUSH1 0x3 EQ PUSH2 0x35B JUMPI PUSH1 0x40 MLOAD PUSH3 0x461BCD PUSH1 0xE5 SHL DUP2 MSTORE PUSH1 0x20 PUSH1 0x4 DUP3 ADD MSTORE PUSH1 0xD PUSH1 0x24 DUP3 ADD MSTORE PUSH13 0x2AB735B737BBB71031B7B637B9 PUSH1 0x99 SHL PUSH1 0x44 DUP3 ADD MSTORE PUSH1 0x64 ADD PUSH2 0x2C4 JUMP JUMPDEST PUSH1 0x0 DUP4 PUSH1 0x40 MLOAD PUSH2 0x36B SWAP2 SWAP1 PUSH2 0xD2A JUMP JUMPDEST SWAP1 DUP2 MSTORE PUSH1 0x20 ADD PUSH1 0x40 MLOAD DUP1 SWAP2 SUB SWAP1 KECCAK256 DUP3 PUSH1 0x40 MLOAD PUSH1 0x20 ADD PUSH2 0x38B SWAP3 SWAP2 SWAP1 PUSH2 0xDE3 JUMP JUMPDEST PUSH1 0x40 MLOAD PUSH1 0x20 DUP2 DUP4 SUB SUB DUP2 MSTORE SWAP1 PUSH1 0x40 MSTORE SWAP1 POP SWAP3 SWAP2 POP POP JUMP JUMPDEST PUSH1 0x60 PUSH1 0x0 DUP3 PUSH1 0x40 MLOAD PUSH2 0x3B4 SWAP2 SWAP1 PUSH2 0xD2A JUMP JUMPDEST SWAP1 DUP2 MSTORE PUSH1 0x20 ADD PUSH1 0x40 MLOAD DUP1 SWAP2 SUB SWAP1 KECCAK256 DUP1 SLOAD PUSH2 0x3CD SWAP1 PUSH2 0xC12 JUMP JUMPDEST SWAP1 POP PUSH1 0x3 EQ PUSH2 0x40E JUMPI PUSH1 0x40 MLOAD PUSH3 0x461BCD PUSH1 0xE5 SHL DUP2 MSTORE PUSH1 0x20 PUSH1 0x4 DUP3 ADD MSTORE PUSH1 0xD PUSH1 0x24 DUP3 ADD MSTORE PUSH13 0x2AB735B737BBB71031B7B637B9 PUSH1 0x99 SHL PUSH1 0x44 DUP3 ADD MSTORE PUSH1 0x64 ADD PUSH2 0x2C4 JUMP JUMPDEST PUSH1 0x0 DUP3 PUSH1 0x40 MLOAD PUSH2 0x41E SWAP2 SWAP1 PUSH2 0xD2A JUMP JUMPDEST SWAP1 DUP2 MSTORE PUSH1 0x20 ADD PUSH1 0x40 MLOAD DUP1 SWAP2 SUB SWAP1 KECCAK256 PUSH1 0x40 MLOAD PUSH1 0x20 ADD PUSH2 0x43C SWAP2 SWAP1 PUSH2 0xE0B JUMP JUMPDEST PUSH1 0x40 MLOAD PUSH1 0x20 DUP2 DUP4 SUB SUB DUP2 MSTORE SWAP1 PUSH1 0x40 MSTORE SWAP1 POP SWAP2 SWAP1 POP JUMP JUMPDEST PUSH1 0x60 PUSH2 0x467 PUSH2 0x460 DUP4 PUSH2 0x3A2 JUMP JUMPDEST PUSH1 0x0 PUSH2 0x76F JUMP JUMPDEST SWAP3 SWAP2 POP POP JUMP JUMPDEST PUSH1 0x60 DUP1 PUSH1 0x0 PUSH1 0x1 SWAP1 POP DUP6 PUSH1 0x0 DUP2 MLOAD DUP2 LT PUSH2 0x489 JUMPI PUSH2 0x489 PUSH2 0xD14 JUMP JUMPDEST PUSH1 0x20 SWAP2 ADD ADD MLOAD PUSH1 0xF8 SHR PUSH1 0x80 SWAP1 DUP2 AND SWAP1 SUB PUSH2 0x506 JUMPI PUSH2 0x4B3 PUSH2 0x4AB DUP8 PUSH1 0x1 PUSH2 0x287 JUMP JUMPDEST PUSH1 0xFF AND PUSH2 0x7C7 JUMP JUMPDEST PUSH2 0x4C1 PUSH2 0x4AB DUP9 PUSH1 0x2 PUSH2 0x287 JUMP JUMPDEST PUSH2 0x4CF PUSH2 0x4AB DUP10 PUSH1 0x3 PUSH2 0x287 JUMP JUMPDEST PUSH2 0x4DD PUSH2 0x4AB DUP11 PUSH1 0x4 PUSH2 0x287 JUMP JUMPDEST PUSH1 0x40 MLOAD PUSH1 0x20 ADD PUSH2 0x4F0 SWAP5 SWAP4 SWAP3 SWAP2 SWAP1 PUSH2 0xE28 JUMP JUMPDEST PUSH1 0x40 MLOAD PUSH1 0x20 DUP2 DUP4 SUB SUB DUP2 MSTORE SWAP1 PUSH1 0x40 MSTORE SWAP2 POP PUSH1 0x5 SWAP1 POP JUMPDEST DUP5 DUP5 DUP4 PUSH1 0x40 MLOAD PUSH1 0x20 ADD PUSH2 0x51B SWAP4 SWAP3 SWAP2 SWAP1 PUSH2 0xEE0 JUMP JUMPDEST PUSH1 0x40 DUP1 MLOAD PUSH1 0x1F NOT DUP2 DUP5 SUB ADD DUP2 MSTORE SWAP2 SWAP1 MSTORE SWAP2 POP PUSH1 0xFF DUP2 AND JUMPDEST DUP7 MLOAD DUP2 LT ISZERO PUSH2 0x59E JUMPI DUP3 PUSH2 0x549 PUSH2 0x4AB DUP10 DUP5 PUSH2 0x287 JUMP JUMPDEST PUSH2 0x558 DUP10 PUSH2 0x166 DUP6 PUSH1 0x1 PUSH2 0xF79 JUMP JUMPDEST DUP9 PUSH2 0x566 PUSH2 0x4AB DUP13 DUP8 PUSH2 0x287 JUMP JUMPDEST PUSH1 0x40 MLOAD PUSH1 0x20 ADD PUSH2 0x57A SWAP6 SWAP5 SWAP4 SWAP3 SWAP2 SWAP1 PUSH2 0xF91 JUMP JUMPDEST PUSH1 0x40 DUP1 MLOAD PUSH1 0x1F NOT DUP2 DUP5 SUB ADD DUP2 MSTORE SWAP2 SWAP1 MSTORE SWAP3 POP PUSH2 0x597 PUSH1 0x5 DUP3 PUSH2 0xF79 JUMP JUMPDEST SWAP1 POP PUSH2 0x532 JUMP JUMPDEST POP DUP2 PUSH1 0x40 MLOAD PUSH1 0x20 ADD PUSH2 0x5B0 SWAP2 SWAP1 PUSH2 0x1060 JUMP JUMPDEST PUSH1 0x40 MLOAD PUSH1 0x20 DUP2 DUP4 SUB SUB DUP2 MSTORE SWAP1 PUSH1 0x40 MSTORE SWAP3 POP POP POP SWAP4 SWAP3 POP POP POP JUMP JUMPDEST PUSH1 0x60 DUP1 PUSH1 0x3 DUP7 MLOAD GT ISZERO PUSH2 0x601 JUMPI PUSH1 0x80 DUP7 PUSH1 0x40 MLOAD PUSH1 0x20 ADD PUSH2 0x5EB SWAP3 SWAP2 SWAP1 PUSH2 0x1095 JUMP JUMPDEST PUSH1 0x40 MLOAD PUSH1 0x20 DUP2 DUP4 SUB SUB DUP2 MSTORE SWAP1 PUSH1 0x40 MSTORE SWAP1 POP PUSH2 0x618 JUMP JUMPDEST POP PUSH1 0x40 DUP1 MLOAD DUP1 DUP3 ADD SWAP1 SWAP2 MSTORE PUSH1 0x1 DUP2 MSTORE PUSH1 0x0 PUSH1 0x20 DUP3 ADD MSTORE JUMPDEST PUSH1 0x0 PUSH1 0x4 DUP7 MLOAD PUSH2 0x628 SWAP2 SWAP1 PUSH2 0x10DA JUMP JUMPDEST SWAP1 POP PUSH1 0x0 JUMPDEST DUP2 DUP2 PUSH1 0xFF AND LT ISZERO PUSH2 0x758 JUMPI DUP3 PUSH2 0x644 PUSH1 0x1 DUP5 PUSH2 0x10EE JUMP JUMPDEST PUSH2 0x64F SWAP1 PUSH1 0x64 PUSH2 0x10DA JUMP JUMPDEST PUSH2 0x65C SWAP1 PUSH1 0xFF DUP5 AND PUSH2 0x1105 JUMP JUMPDEST DUP9 PUSH2 0x668 DUP5 PUSH1 0x4 PUSH2 0x1124 JUMP JUMPDEST PUSH1 0xFF AND DUP2 MLOAD DUP2 LT PUSH2 0x67B JUMPI PUSH2 0x67B PUSH2 0xD14 JUMP JUMPDEST ADD PUSH1 0x20 ADD MLOAD PUSH1 0xF8 SHR DUP10 PUSH2 0x68F DUP6 PUSH1 0x4 PUSH2 0x1124 JUMP JUMPDEST PUSH2 0x69A SWAP1 PUSH1 0x1 PUSH2 0x114D JUMP JUMPDEST PUSH1 0xFF AND DUP2 MLOAD DUP2 LT PUSH2 0x6AD JUMPI PUSH2 0x6AD PUSH2 0xD14 JUMP JUMPDEST ADD PUSH1 0x20 ADD MLOAD PUSH1 0xF8 SHR DUP11 PUSH2 0x6C1 DUP7 PUSH1 0x4 PUSH2 0x1124 JUMP JUMPDEST PUSH2 0x6CC SWAP1 PUSH1 0x2 PUSH2 0x114D JUMP JUMPDEST PUSH1 0xFF AND DUP2 MLOAD DUP2 LT PUSH2 0x6DF JUMPI PUSH2 0x6DF PUSH2 0xD14 JUMP JUMPDEST ADD PUSH1 0x20 ADD MLOAD PUSH1 0xF8 SHR DUP12 PUSH2 0x6F3 DUP8 PUSH1 0x4 PUSH2 0x1124 JUMP JUMPDEST PUSH2 0x6FE SWAP1 PUSH1 0x3 PUSH2 0x114D JUMP JUMPDEST PUSH1 0xFF AND DUP2 MLOAD DUP2 LT PUSH2 0x711 JUMPI PUSH2 0x711 PUSH2 0xD14 JUMP JUMPDEST PUSH1 0x20 ADD ADD MLOAD PUSH1 0xF8 SHR PUSH1 0xF8 SHL PUSH1 0xF8 SHR PUSH1 0x40 MLOAD PUSH1 0x20 ADD PUSH2 0x734 SWAP7 SWAP6 SWAP5 SWAP4 SWAP3 SWAP2 SWAP1 PUSH2 0x1172 JUMP JUMPDEST PUSH1 0x40 MLOAD PUSH1 0x20 DUP2 DUP4 SUB SUB DUP2 MSTORE SWAP1 PUSH1 0x40 MSTORE SWAP3 POP DUP1 DUP1 PUSH2 0x750 SWAP1 PUSH2 0x11CC JUMP JUMPDEST SWAP2 POP POP PUSH2 0x62D JUMP JUMPDEST PUSH2 0x763 DUP4 DUP8 DUP8 PUSH2 0x46D JUMP JUMPDEST SWAP9 SWAP8 POP POP POP POP POP POP POP POP JUMP JUMPDEST PUSH1 0x60 PUSH2 0x77E PUSH2 0x4AB DUP5 DUP5 PUSH2 0x287 JUMP JUMPDEST PUSH2 0x790 PUSH2 0x4AB DUP6 PUSH2 0xE2 DUP7 PUSH1 0x1 PUSH2 0xF79 JUMP JUMPDEST PUSH2 0x7A2 PUSH2 0x4AB DUP7 PUSH2 0xE2 DUP8 PUSH1 0x2 PUSH2 0xF79 JUMP JUMPDEST PUSH2 0x7B4 PUSH2 0x4AB DUP8 PUSH2 0xE2 DUP9 PUSH1 0x3 PUSH2 0xF79 JUMP JUMPDEST PUSH1 0x40 MLOAD PUSH1 0x20 ADD PUSH2 0x38B SWAP5 SWAP4 SWAP3 SWAP2 SWAP1 PUSH2 0x11EB JUMP JUMPDEST PUSH1 0x60 DUP2 PUSH1 0x0 SUB PUSH2 0x7EE JUMPI POP POP PUSH1 0x40 DUP1 MLOAD DUP1 DUP3 ADD SWAP1 SWAP2 MSTORE PUSH1 0x1 DUP2 MSTORE PUSH1 0x3 PUSH1 0xFC SHL PUSH1 0x20 DUP3 ADD MSTORE SWAP1 JUMP JUMPDEST DUP2 PUSH1 0x0 JUMPDEST DUP2 ISZERO PUSH2 0x818 JUMPI DUP1 PUSH2 0x802 DUP2 PUSH2 0x1289 JUMP JUMPDEST SWAP2 POP PUSH2 0x811 SWAP1 POP PUSH1 0xA DUP4 PUSH2 0x10DA JUMP JUMPDEST SWAP2 POP PUSH2 0x7F2 JUMP JUMPDEST PUSH1 0x0 DUP2 PUSH8 0xFFFFFFFFFFFFFFFF DUP2 GT ISZERO PUSH2 0x833 JUMPI PUSH2 0x833 PUSH2 0x8C8 JUMP JUMPDEST PUSH1 0x40 MLOAD SWAP1 DUP1 DUP3 MSTORE DUP1 PUSH1 0x1F ADD PUSH1 0x1F NOT AND PUSH1 0x20 ADD DUP3 ADD PUSH1 0x40 MSTORE DUP1 ISZERO PUSH2 0x85D JUMPI PUSH1 0x20 DUP3 ADD DUP2 DUP1 CALLDATASIZE DUP4 CALLDATACOPY ADD SWAP1 POP JUMPDEST POP SWAP1 POP JUMPDEST DUP5 ISZERO PUSH2 0x27F JUMPI PUSH2 0x872 PUSH1 0x1 DUP4 PUSH2 0x10EE JUMP JUMPDEST SWAP2 POP PUSH2 0x87F PUSH1 0xA DUP7 PUSH2 0x12A2 JUMP JUMPDEST PUSH2 0x88A SWAP1 PUSH1 0x30 PUSH2 0xF79 JUMP JUMPDEST PUSH1 0xF8 SHL DUP2 DUP4 DUP2 MLOAD DUP2 LT PUSH2 0x89F JUMPI PUSH2 0x89F PUSH2 0xD14 JUMP JUMPDEST PUSH1 0x20 ADD ADD SWAP1 PUSH1 0x1 PUSH1 0x1 PUSH1 0xF8 SHL SUB NOT AND SWAP1 DUP2 PUSH1 0x0 BYTE SWAP1 MSTORE8 POP PUSH2 0x8C1 PUSH1 0xA DUP7 PUSH2 0x10DA JUMP JUMPDEST SWAP5 POP PUSH2 0x861 JUMP JUMPDEST PUSH4 0x4E487B71 PUSH1 0xE0 SHL PUSH1 0x0 MSTORE PUSH1 0x41 PUSH1 0x4 MSTORE PUSH1 0x24 PUSH1 0x0 REVERT JUMPDEST PUSH1 0x40 MLOAD PUSH1 0x1F DUP3 ADD PUSH1 0x1F NOT AND DUP2 ADD PUSH8 0xFFFFFFFFFFFFFFFF DUP2 GT DUP3 DUP3 LT OR ISZERO PUSH2 0x907 JUMPI PUSH2 0x907 PUSH2 0x8C8 JUMP JUMPDEST PUSH1 0x40 MSTORE SWAP2 SWAP1 POP JUMP JUMPDEST PUSH1 0x0 PUSH8 0xFFFFFFFFFFFFFFFF DUP3 GT ISZERO PUSH2 0x929 JUMPI PUSH2 0x929 PUSH2 0x8C8 JUMP JUMPDEST POP PUSH1 0x1F ADD PUSH1 0x1F NOT AND PUSH1 0x20 ADD SWAP1 JUMP JUMPDEST PUSH1 0x0 PUSH2 0x94A PUSH2 0x945 DUP5 PUSH2 0x90F JUMP JUMPDEST PUSH2 0x8DE JUMP JUMPDEST SWAP1 POP DUP3 DUP2 MSTORE DUP4 DUP4 DUP4 ADD GT ISZERO PUSH2 0x95E JUMPI PUSH1 0x0 DUP1 REVERT JUMPDEST DUP3 DUP3 PUSH1 0x20 DUP4 ADD CALLDATACOPY PUSH1 0x0 PUSH1 0x20 DUP5 DUP4 ADD ADD MSTORE SWAP4 SWAP3 POP POP POP JUMP JUMPDEST PUSH1 0x0 DUP3 PUSH1 0x1F DUP4 ADD SLT PUSH2 0x986 JUMPI PUSH1 0x0 DUP1 REVERT JUMPDEST PUSH2 0x995 DUP4 DUP4 CALLDATALOAD PUSH1 0x20 DUP6 ADD PUSH2 0x937 JUMP JUMPDEST SWAP4 SWAP3 POP POP POP JUMP JUMPDEST PUSH1 0x0 PUSH1 0x20 DUP3 DUP5 SUB SLT ISZERO PUSH2 0x9AE JUMPI PUSH1 0x0 DUP1 REVERT JUMPDEST DUP2 CALLDATALOAD PUSH8 0xFFFFFFFFFFFFFFFF DUP2 GT ISZERO PUSH2 0x9C5 JUMPI PUSH1 0x0 DUP1 REVERT JUMPDEST PUSH2 0x27F DUP5 DUP3 DUP6 ADD PUSH2 0x975 JUMP JUMPDEST PUSH1 0x0 JUMPDEST DUP4 DUP2 LT ISZERO PUSH2 0x9EC JUMPI DUP2 DUP2 ADD MLOAD DUP4 DUP3 ADD MSTORE PUSH1 0x20 ADD PUSH2 0x9D4 JUMP JUMPDEST DUP4 DUP2 GT ISZERO PUSH2 0x9FB JUMPI PUSH1 0x0 DUP5 DUP5 ADD MSTORE JUMPDEST POP POP POP POP JUMP JUMPDEST PUSH1 0x0 DUP2 MLOAD DUP1 DUP5 MSTORE PUSH2 0xA19 DUP2 PUSH1 0x20 DUP7 ADD PUSH1 0x20 DUP7 ADD PUSH2 0x9D1 JUMP JUMPDEST PUSH1 0x1F ADD PUSH1 0x1F NOT AND SWAP3 SWAP1 SWAP3 ADD PUSH1 0x20 ADD SWAP3 SWAP2 POP POP JUMP JUMPDEST PUSH1 0x20 DUP2 MSTORE PUSH1 0x0 PUSH2 0x995 PUSH1 0x20 DUP4 ADD DUP5 PUSH2 0xA01 JUMP JUMPDEST PUSH1 0x0 DUP1 PUSH1 0x0 PUSH1 0x60 DUP5 DUP7 SUB SLT ISZERO PUSH2 0xA55 JUMPI PUSH1 0x0 DUP1 REVERT JUMPDEST DUP4 CALLDATALOAD PUSH8 0xFFFFFFFFFFFFFFFF DUP1 DUP3 GT ISZERO PUSH2 0xA6D JUMPI PUSH1 0x0 DUP1 REVERT JUMPDEST PUSH2 0xA79 DUP8 DUP4 DUP9 ADD PUSH2 0x975 JUMP JUMPDEST SWAP5 POP PUSH1 0x20 DUP7 ADD CALLDATALOAD SWAP2 POP DUP1 DUP3 GT ISZERO PUSH2 0xA8F JUMPI PUSH1 0x0 DUP1 REVERT JUMPDEST PUSH2 0xA9B DUP8 DUP4 DUP9 ADD PUSH2 0x975 JUMP JUMPDEST SWAP4 POP PUSH1 0x40 DUP7 ADD CALLDATALOAD SWAP2 POP DUP1 DUP3 GT ISZERO PUSH2 0xAB1 JUMPI PUSH1 0x0 DUP1 REVERT JUMPDEST POP PUSH2 0xABE DUP7 DUP3 DUP8 ADD PUSH2 0x975 JUMP JUMPDEST SWAP2 POP POP SWAP3 POP SWAP3 POP SWAP3 JUMP JUMPDEST PUSH1 0x0 DUP1 PUSH1 0x40 DUP4 DUP6 SUB SLT ISZERO PUSH2 0xADB JUMPI PUSH1 0x0 DUP1 REVERT JUMPDEST DUP3 CALLDATALOAD PUSH8 0xFFFFFFFFFFFFFFFF DUP2 GT ISZERO PUSH2 0xAF2 JUMPI PUSH1 0x0 DUP1 REVERT JUMPDEST PUSH2 0xAFE DUP6 DUP3 DUP7 ADD PUSH2 0x975 JUMP JUMPDEST SWAP6 PUSH1 0x20 SWAP5 SWAP1 SWAP5 ADD CALLDATALOAD SWAP5 POP POP POP POP JUMP JUMPDEST PUSH1 0x0 DUP1 PUSH1 0x40 DUP4 DUP6 SUB SLT ISZERO PUSH2 0xB20 JUMPI PUSH1 0x0 DUP1 REVERT JUMPDEST DUP3 CALLDATALOAD PUSH8 0xFFFFFFFFFFFFFFFF DUP2 GT ISZERO PUSH2 0xB37 JUMPI PUSH1 0x0 DUP1 REVERT JUMPDEST PUSH2 0xB43 DUP6 DUP3 DUP7 ADD PUSH2 0x975 JUMP JUMPDEST SWAP3 POP POP PUSH1 0x20 DUP4 ADD CALLDATALOAD PUSH1 0xFF DUP2 AND DUP2 EQ PUSH2 0xB5A JUMPI PUSH1 0x0 DUP1 REVERT JUMPDEST DUP1 SWAP2 POP POP SWAP3 POP SWAP3 SWAP1 POP JUMP JUMPDEST PUSH1 0x0 DUP1 PUSH1 0x0 DUP1 PUSH1 0x80 DUP6 DUP8 SUB SLT ISZERO PUSH2 0xB7B JUMPI PUSH1 0x0 DUP1 REVERT JUMPDEST DUP5 CALLDATALOAD PUSH8 0xFFFFFFFFFFFFFFFF DUP1 DUP3 GT ISZERO PUSH2 0xB93 JUMPI PUSH1 0x0 DUP1 REVERT JUMPDEST PUSH2 0xB9F DUP9 DUP4 DUP10 ADD PUSH2 0x975 JUMP JUMPDEST SWAP6 POP PUSH1 0x20 DUP8 ADD CALLDATALOAD SWAP2 POP DUP1 DUP3 GT ISZERO PUSH2 0xBB5 JUMPI PUSH1 0x0 DUP1 REVERT JUMPDEST PUSH2 0xBC1 DUP9 DUP4 DUP10 ADD PUSH2 0x975 JUMP JUMPDEST SWAP5 POP PUSH1 0x40 DUP8 ADD CALLDATALOAD SWAP2 POP DUP1 DUP3 GT ISZERO PUSH2 0xBD7 JUMPI PUSH1 0x0 DUP1 REVERT JUMPDEST PUSH2 0xBE3 DUP9 DUP4 DUP10 ADD PUSH2 0x975 JUMP JUMPDEST SWAP4 POP PUSH1 0x60 DUP8 ADD CALLDATALOAD SWAP2 POP DUP1 DUP3 GT ISZERO PUSH2 0xBF9 JUMPI PUSH1 0x0 DUP1 REVERT JUMPDEST POP PUSH2 0xC06 DUP8 DUP3 DUP9 ADD PUSH2 0x975 JUMP JUMPDEST SWAP2 POP POP SWAP3 SWAP6 SWAP2 SWAP5 POP SWAP3 POP JUMP JUMPDEST PUSH1 0x1 DUP2 DUP2 SHR SWAP1 DUP3 AND DUP1 PUSH2 0xC26 JUMPI PUSH1 0x7F DUP3 AND SWAP2 POP JUMPDEST PUSH1 0x20 DUP3 LT DUP2 SUB PUSH2 0xC46 JUMPI PUSH4 0x4E487B71 PUSH1 0xE0 SHL PUSH1 0x0 MSTORE PUSH1 0x22 PUSH1 0x4 MSTORE PUSH1 0x24 PUSH1 0x0 REVERT JUMPDEST POP SWAP2 SWAP1 POP JUMP JUMPDEST PUSH1 0x80 DUP2 MSTORE PUSH1 0x0 PUSH1 0x80 DUP3 ADD MSTORE PUSH1 0xA0 PUSH1 0x20 DUP3 ADD MSTORE PUSH1 0x0 PUSH2 0xC6D PUSH1 0xA0 DUP4 ADD DUP7 PUSH2 0xA01 JUMP JUMPDEST DUP3 DUP2 SUB PUSH1 0x40 DUP5 ADD MSTORE PUSH2 0xC7F DUP2 DUP7 PUSH2 0xA01 JUMP JUMPDEST SWAP1 POP DUP3 DUP2 SUB PUSH1 0x60 DUP5 ADD MSTORE PUSH2 0xC93 DUP2 DUP6 PUSH2 0xA01 JUMP JUMPDEST SWAP7 SWAP6 POP POP POP POP POP POP JUMP JUMPDEST PUSH1 0x0 PUSH1 0x20 DUP3 DUP5 SUB SLT ISZERO PUSH2 0xCAF JUMPI PUSH1 0x0 DUP1 REVERT JUMPDEST DUP2 MLOAD PUSH8 0xFFFFFFFFFFFFFFFF DUP2 GT ISZERO PUSH2 0xCC6 JUMPI PUSH1 0x0 DUP1 REVERT JUMPDEST DUP3 ADD PUSH1 0x1F DUP2 ADD DUP5 SGT PUSH2 0xCD7 JUMPI PUSH1 0x0 DUP1 REVERT JUMPDEST DUP1 MLOAD PUSH2 0xCE5 PUSH2 0x945 DUP3 PUSH2 0x90F JUMP JUMPDEST DUP2 DUP2 MSTORE DUP6 PUSH1 0x20 DUP4 DUP6 ADD ADD GT ISZERO PUSH2 0xCFA JUMPI PUSH1 0x0 DUP1 REVERT JUMPDEST PUSH2 0xD0B DUP3 PUSH1 0x20 DUP4 ADD PUSH1 0x20 DUP7 ADD PUSH2 0x9D1 JUMP JUMPDEST SWAP6 SWAP5 POP POP POP POP POP JUMP JUMPDEST PUSH4 0x4E487B71 PUSH1 0xE0 SHL PUSH1 0x0 MSTORE PUSH1 0x32 PUSH1 0x4 MSTORE PUSH1 0x24 PUSH1 0x0 REVERT JUMPDEST PUSH1 0x0 DUP3 MLOAD PUSH2 0xD3C DUP2 DUP5 PUSH1 0x20 DUP8 ADD PUSH2 0x9D1 JUMP JUMPDEST SWAP2 SWAP1 SWAP2 ADD SWAP3 SWAP2 POP POP JUMP JUMPDEST DUP1 SLOAD PUSH1 0x0 SWAP1 PUSH1 0x1 DUP2 DUP2 SHR SWAP1 DUP1 DUP4 AND DUP1 PUSH2 0xD60 JUMPI PUSH1 0x7F DUP4 AND SWAP3 POP JUMPDEST PUSH1 0x20 DUP1 DUP5 LT DUP3 SUB PUSH2 0xD81 JUMPI PUSH4 0x4E487B71 PUSH1 0xE0 SHL PUSH1 0x0 MSTORE PUSH1 0x22 PUSH1 0x4 MSTORE PUSH1 0x24 PUSH1 0x0 REVERT JUMPDEST DUP2 DUP1 ISZERO PUSH2 0xD95 JUMPI PUSH1 0x1 DUP2 EQ PUSH2 0xDAA JUMPI PUSH2 0xDD7 JUMP JUMPDEST PUSH1 0xFF NOT DUP7 AND DUP10 MSTORE DUP5 ISZERO ISZERO DUP6 MUL DUP10 ADD SWAP7 POP PUSH2 0xDD7 JUMP JUMPDEST PUSH1 0x0 DUP9 DUP2 MSTORE PUSH1 0x20 SWAP1 KECCAK256 PUSH1 0x0 JUMPDEST DUP7 DUP2 LT ISZERO PUSH2 0xDCF JUMPI DUP2 SLOAD DUP12 DUP3 ADD MSTORE SWAP1 DUP6 ADD SWAP1 DUP4 ADD PUSH2 0xDB6 JUMP JUMPDEST POP POP DUP5 DUP10 ADD SWAP7 POP JUMPDEST POP POP POP POP POP POP SWAP3 SWAP2 POP POP JUMP JUMPDEST PUSH1 0x0 PUSH2 0xDEF DUP3 DUP6 PUSH2 0xD46 JUMP JUMPDEST PUSH1 0xF8 SWAP4 SWAP1 SWAP4 SHL PUSH1 0x1 PUSH1 0x1 PUSH1 0xF8 SHL SUB NOT AND DUP4 MSTORE POP POP PUSH1 0x1 ADD SWAP2 SWAP1 POP JUMP JUMPDEST PUSH1 0x0 PUSH2 0xE17 DUP3 DUP5 PUSH2 0xD46 JUMP JUMPDEST PUSH1 0x19 PUSH1 0xFA SHL DUP2 MSTORE PUSH1 0x1 ADD SWAP4 SWAP3 POP POP POP JUMP JUMPDEST PUSH4 0x3C189E91 PUSH1 0xE1 SHL DUP2 MSTORE DUP5 MLOAD PUSH1 0x0 SWAP1 PUSH2 0xE48 DUP2 PUSH1 0x4 DUP6 ADD PUSH1 0x20 DUP11 ADD PUSH2 0x9D1 JUMP JUMPDEST PUSH7 0x1291103C191E91 PUSH1 0xC9 SHL PUSH1 0x4 SWAP2 DUP5 ADD SWAP2 DUP3 ADD MSTORE DUP6 MLOAD PUSH2 0xE6F DUP2 PUSH1 0xB DUP5 ADD PUSH1 0x20 DUP11 ADD PUSH2 0x9D1 JUMP JUMPDEST PUSH7 0x1291103C989E91 PUSH1 0xC9 SHL PUSH1 0xB SWAP3 SWAP1 SWAP2 ADD SWAP2 DUP3 ADD MSTORE DUP5 MLOAD PUSH2 0xE97 DUP2 PUSH1 0x12 DUP5 ADD PUSH1 0x20 DUP10 ADD PUSH2 0x9D1 JUMP JUMPDEST PUSH1 0x4 DUP2 DUP4 ADD ADD SWAP2 POP POP PUSH7 0x1291103C991E91 PUSH1 0xC9 SHL PUSH1 0xE DUP3 ADD MSTORE DUP4 MLOAD PUSH2 0xEC3 DUP2 PUSH1 0x15 DUP5 ADD PUSH1 0x20 DUP9 ADD PUSH2 0x9D1 JUMP JUMPDEST PUSH2 0x1291 PUSH1 0xF1 SHL PUSH1 0x15 SWAP3 SWAP1 SWAP2 ADD SWAP2 DUP3 ADD MSTORE PUSH1 0x17 ADD SWAP7 SWAP6 POP POP POP POP POP POP JUMP JUMPDEST PUSH20 0x1E3634B732B0B923B930B234B2B73A1034B21E91 PUSH1 0x61 SHL DUP2 MSTORE DUP4 MLOAD PUSH1 0x0 SWAP1 PUSH2 0xF10 DUP2 PUSH1 0x14 DUP6 ADD PUSH1 0x20 DUP10 ADD PUSH2 0x9D1 JUMP JUMPDEST PUSH2 0x111 PUSH1 0xF5 SHL PUSH1 0x14 SWAP2 DUP5 ADD SWAP2 DUP3 ADD MSTORE DUP5 MLOAD PUSH2 0xF32 DUP2 PUSH1 0x16 DUP5 ADD PUSH1 0x20 DUP10 ADD PUSH2 0x9D1 JUMP JUMPDEST DUP5 MLOAD SWAP2 ADD SWAP1 PUSH2 0xF48 DUP2 PUSH1 0x16 DUP5 ADD PUSH1 0x20 DUP9 ADD PUSH2 0x9D1 JUMP JUMPDEST PUSH1 0x1F PUSH1 0xF9 SHL PUSH1 0x16 SWAP3 SWAP1 SWAP2 ADD SWAP2 DUP3 ADD MSTORE PUSH1 0x17 ADD SWAP6 SWAP5 POP POP POP POP POP JUMP JUMPDEST PUSH4 0x4E487B71 PUSH1 0xE0 SHL PUSH1 0x0 MSTORE PUSH1 0x11 PUSH1 0x4 MSTORE PUSH1 0x24 PUSH1 0x0 REVERT JUMPDEST PUSH1 0x0 DUP3 NOT DUP3 GT ISZERO PUSH2 0xF8C JUMPI PUSH2 0xF8C PUSH2 0xF63 JUMP JUMPDEST POP ADD SWAP1 JUMP JUMPDEST PUSH1 0x0 DUP7 MLOAD PUSH2 0xFA3 DUP2 DUP5 PUSH1 0x20 DUP12 ADD PUSH2 0x9D1 JUMP JUMPDEST PUSH14 0x1E39BA37B81037B33339B2BA1E91 PUSH1 0x91 SHL SWAP1 DUP4 ADD SWAP1 DUP2 MSTORE DUP7 MLOAD PUSH2 0xFCE DUP2 PUSH1 0xE DUP5 ADD PUSH1 0x20 DUP12 ADD PUSH2 0x9D1 JUMP JUMPDEST PUSH15 0x12911039BA37B816B1B7B637B91E91 PUSH1 0x89 SHL PUSH1 0xE SWAP3 SWAP1 SWAP2 ADD SWAP2 DUP3 ADD MSTORE DUP6 MLOAD PUSH2 0xFFE DUP2 PUSH1 0x1D DUP5 ADD PUSH1 0x20 DUP11 ADD PUSH2 0x9D1 JUMP JUMPDEST PUSH6 0x111034B21E91 PUSH1 0xD1 SHL PUSH1 0x1D SWAP3 SWAP1 SWAP2 ADD SWAP2 DUP3 ADD MSTORE DUP5 MLOAD PUSH2 0x1025 DUP2 PUSH1 0x23 DUP5 ADD PUSH1 0x20 DUP10 ADD PUSH2 0x9D1 JUMP JUMPDEST PUSH1 0xE DUP2 DUP4 ADD ADD SWAP2 POP POP DUP4 MLOAD PUSH2 0x1041 DUP2 PUSH1 0x15 DUP5 ADD PUSH1 0x20 DUP9 ADD PUSH2 0x9D1 JUMP JUMPDEST PUSH3 0x11179F PUSH1 0xE9 SHL PUSH1 0x15 SWAP3 SWAP1 SWAP2 ADD SWAP2 DUP3 ADD MSTORE PUSH1 0x18 ADD SWAP8 SWAP7 POP POP POP POP POP POP POP JUMP JUMPDEST PUSH1 0x0 DUP3 MLOAD PUSH2 0x1072 DUP2 DUP5 PUSH1 0x20 DUP8 ADD PUSH2 0x9D1 JUMP JUMPDEST PUSH17 0x1E17B634B732B0B923B930B234B2B73A1F PUSH1 0x79 SHL SWAP3 ADD SWAP2 DUP3 MSTORE POP PUSH1 0x11 ADD SWAP2 SWAP1 POP JUMP JUMPDEST PUSH1 0xFF PUSH1 0xF8 SHL DUP4 PUSH1 0xF8 SHL AND DUP2 MSTORE PUSH1 0x0 DUP3 MLOAD PUSH2 0x10B6 DUP2 PUSH1 0x1 DUP6 ADD PUSH1 0x20 DUP8 ADD PUSH2 0x9D1 JUMP JUMPDEST SWAP2 SWAP1 SWAP2 ADD PUSH1 0x1 ADD SWAP4 SWAP3 POP POP POP JUMP JUMPDEST PUSH4 0x4E487B71 PUSH1 0xE0 SHL PUSH1 0x0 MSTORE PUSH1 0x12 PUSH1 0x4 MSTORE PUSH1 0x24 PUSH1 0x0 REVERT JUMPDEST PUSH1 0x0 DUP3 PUSH2 0x10E9 JUMPI PUSH2 0x10E9 PUSH2 0x10C4 JUMP JUMPDEST POP DIV SWAP1 JUMP JUMPDEST PUSH1 0x0 DUP3 DUP3 LT ISZERO PUSH2 0x1100 JUMPI PUSH2 0x1100 PUSH2 0xF63 JUMP JUMPDEST POP SUB SWAP1 JUMP JUMPDEST PUSH1 0x0 DUP2 PUSH1 0x0 NOT DIV DUP4 GT DUP3 ISZERO ISZERO AND ISZERO PUSH2 0x111F JUMPI PUSH2 0x111F PUSH2 0xF63 JUMP JUMPDEST POP MUL SWAP1 JUMP JUMPDEST PUSH1 0x0 PUSH1 0xFF DUP3 AND PUSH1 0xFF DUP5 AND DUP2 PUSH1 0xFF DIV DUP2 GT DUP3 ISZERO ISZERO AND ISZERO PUSH2 0x1145 JUMPI PUSH2 0x1145 PUSH2 0xF63 JUMP JUMPDEST MUL SWAP4 SWAP3 POP POP POP JUMP JUMPDEST PUSH1 0x0 PUSH1 0xFF DUP3 AND PUSH1 0xFF DUP5 AND DUP1 PUSH1 0xFF SUB DUP3 GT ISZERO PUSH2 0x116A JUMPI PUSH2 0x116A PUSH2 0xF63 JUMP JUMPDEST ADD SWAP4 SWAP3 POP POP POP JUMP JUMPDEST PUSH1 0x0 DUP8 MLOAD PUSH2 0x1184 DUP2 DUP5 PUSH1 0x20 DUP13 ADD PUSH2 0x9D1 JUMP JUMPDEST PUSH1 0xF8 SWAP8 DUP9 SHL PUSH1 0x1 PUSH1 0x1 PUSH1 0xF8 SHL SUB NOT SWAP1 DUP2 AND SWAP4 SWAP1 SWAP2 ADD SWAP3 DUP4 MSTORE SWAP6 DUP8 SHL DUP7 AND PUSH1 0x1 DUP4 ADD MSTORE POP SWAP3 DUP6 SHL DUP5 AND PUSH1 0x2 DUP5 ADD MSTORE SWAP1 DUP5 SHL DUP4 AND PUSH1 0x3 DUP4 ADD MSTORE SWAP1 SWAP3 SHL AND PUSH1 0x4 DUP3 ADD MSTORE PUSH1 0x5 ADD SWAP2 SWAP1 POP JUMP JUMPDEST PUSH1 0x0 PUSH1 0xFF DUP3 AND PUSH1 0xFF DUP2 SUB PUSH2 0x11E2 JUMPI PUSH2 0x11E2 PUSH2 0xF63 JUMP JUMPDEST PUSH1 0x1 ADD SWAP3 SWAP2 POP POP JUMP JUMPDEST PUSH5 0xE4CEC4C25 PUSH1 0xDB SHL DUP2 MSTORE PUSH1 0x0 DUP6 MLOAD PUSH2 0x120B DUP2 PUSH1 0x5 DUP6 ADD PUSH1 0x20 DUP11 ADD PUSH2 0x9D1 JUMP JUMPDEST DUP1 DUP4 ADD SWAP1 POP PUSH1 0xB PUSH1 0xFA SHL DUP1 PUSH1 0x5 DUP4 ADD MSTORE DUP7 MLOAD PUSH2 0x122E DUP2 PUSH1 0x6 DUP6 ADD PUSH1 0x20 DUP12 ADD PUSH2 0x9D1 JUMP JUMPDEST PUSH1 0x6 SWAP3 ADD SWAP2 DUP3 ADD DUP2 SWAP1 MSTORE DUP6 MLOAD PUSH2 0x124B DUP2 PUSH1 0x7 DUP6 ADD PUSH1 0x20 DUP11 ADD PUSH2 0x9D1 JUMP JUMPDEST PUSH1 0x7 SWAP3 ADD SWAP2 DUP3 ADD MSTORE DUP4 MLOAD PUSH1 0x5 DUP3 ADD SWAP2 PUSH2 0x126C SWAP1 DUP3 SWAP1 PUSH1 0x8 ADD PUSH1 0x20 DUP9 ADD PUSH2 0x9D1 JUMP JUMPDEST PUSH2 0x2529 PUSH1 0xF0 SHL PUSH1 0x3 SWAP3 SWAP1 SWAP2 ADD SWAP2 DUP3 ADD MSTORE PUSH1 0x5 ADD SWAP7 SWAP6 POP POP POP POP POP POP JUMP JUMPDEST PUSH1 0x0 PUSH1 0x1 DUP3 ADD PUSH2 0x129B JUMPI PUSH2 0x129B PUSH2 0xF63 JUMP JUMPDEST POP PUSH1 0x1 ADD SWAP1 JUMP JUMPDEST PUSH1 0x0 DUP3 PUSH2 0x12B1 JUMPI PUSH2 0x12B1 PUSH2 0x10C4 JUMP JUMPDEST POP MOD SWAP1 JUMP INVALID LOG2 PUSH5 0x6970667358 0x22 SLT KECCAK256 DUP4 0xD5 NUMBER DUP7 PUSH31 0x24134AF5D3B953BA2BA7D5403BF49E33D89FE48EA3D958D2EB427064736F6C PUSH4 0x4300080F STOP CALLER "
        },
        "gasEstimates": {
          "creation": {
            "codeDepositCost": "968800",
            "executionCost": "infinite",
            "totalCost": "infinite"
          },
          "external": {
            "autoLinearGradient(bytes,bytes,bytes)": "infinite",
            "autoLinearGradient(bytes,bytes,bytes,bytes)": "infinite",
            "byte2uint8(bytes,uint256)": "infinite",
            "colors(string)": "infinite",
            "getColor(string)": "infinite",
            "getColor(string,uint8)": "infinite",
            "getRgba(string)": "infinite",
            "linearGradient(bytes,bytes,bytes)": "infinite",
            "toRgba(bytes,uint256)": "infinite"
          },
          "internal": {
            "black_a(uint256)": "infinite",
            "rgba(uint256,uint256,uint256,uint256)": "infinite",
            "uint2str(uint256)": "infinite",
            "white_a(uint256)": "infinite"
          }
        },
        "methodIdentifiers": {
          "autoLinearGradient(bytes,bytes,bytes)": "4b698358",
          "autoLinearGradient(bytes,bytes,bytes,bytes)": "d6412c27",
          "byte2uint8(bytes,uint256)": "5119ce4b",
          "colors(string)": "40c629fe",
          "getColor(string)": "b0187570",
          "getColor(string,uint8)": "525f3654",
          "getRgba(string)": "cde58910",
          "linearGradient(bytes,bytes,bytes)": "cf0eca09",
          "toRgba(bytes,uint256)": "e5d19e69"
        }
      },
      "storageLayout": {
        "storage": [
          {
            "astId": 388,
            "contract": "contracts/svg/SVGColor.sol:SVGColor",
            "label": "colors",
            "offset": 0,
            "slot": "0",
            "type": "t_mapping(t_string_memory_ptr,t_bytes_storage)"
          }
        ],
        "types": {
          "t_bytes_storage": {
            "encoding": "bytes",
            "label": "bytes",
            "numberOfBytes": "32"
          },
          "t_mapping(t_string_memory_ptr,t_bytes_storage)": {
            "encoding": "mapping",
            "key": "t_string_memory_ptr",
            "label": "mapping(string => bytes)",
            "numberOfBytes": "32",
            "value": "t_bytes_storage"
          },
          "t_string_memory_ptr": {
            "encoding": "bytes",
            "label": "string",
            "numberOfBytes": "32"
          }
        }
      },
      "userdoc": {
        "kind": "user",
        "methods": {},
        "version": 1
      }
    }
  }
}