{
  "contracts/svg/SVGLibrary.sol": {
    "SVGLibrary": {
      "abi": [
        {
          "inputs": [
            {
              "internalType": "address",
              "name": "_colors_",
              "type": "address"
            }
          ],
          "stateMutability": "nonpayable",
          "type": "constructor"
        },
        {
          "inputs": [
            {
              "internalType": "bytes32",
              "name": "package",
              "type": "bytes32"
            },
            {
              "internalType": "bytes",
              "name": "input",
              "type": "bytes"
            }
          ],
          "name": "execute",
          "outputs": [
            {
              "internalType": "string",
              "name": "data",
              "type": "string"
            }
          ],
          "stateMutability": "view",
          "type": "function"
        }
      ],
      "devdoc": {
        "kind": "dev",
        "methods": {},
        "version": 1
      },
      "evm": {
        "bytecode": {
          "linkReferences": {
            "contracts/svg/svg.sol": {
              "svg": [
                {
                  "length": 20,
                  "start": 570
                }
              ]
            },
            "contracts/svg/svgUtils.sol": {
              "svgUtils": [
                {
                  "length": 20,
                  "start": 729
                }
              ]
            }
          },
          "object": "60e06040527f5fd8cb24549624227a78453feaec1565b8d1f4626577a1d15c0719a34804b4606080527fe108be43dbedebdd6a5e12088e3ff0ee819db892baccf0fc636e26a2da6c252c60a0527f790ef67b6749ebf7a55a8aa23a6703c0074d4b3c0bfb6d059ed0e60eda56b19c60c05234801561007c57600080fd5b5060405161042338038061042383398101604081905261009b916100c0565b600080546001600160a01b0319166001600160a01b03929092169190911790556100f0565b6000602082840312156100d257600080fd5b81516001600160a01b03811681146100e957600080fd5b9392505050565b60805160a05160c05161030561011e60003960006101910152600061014a0152600060f201526103056000f3fe608060405234801561001057600080fd5b506004361061002b5760003560e01c8063e9ae5c5314610030575b600080fd5b61004361003e3660046101ee565b610059565b604051610050919061026a565b60405180910390f35b6000838152600160205260409020546060906001600160a01b0316156100f05760008481526001602052604080822054905182916001600160a01b0316906100a490879087906102bf565b600060405180830381855afa9150503d80600081146100df576040519150601f19603f3d011682016040523d82523d6000602084013e6100e4565b606091505b5093506101e792505050565b7f000000000000000000000000000000000000000000000000000000000000000084036101485760008073__$f6856915f7b50105d8cc6bcdbf698ccc1f$__6001600160a01b031685856040516100a49291906102bf565b7f0000000000000000000000000000000000000000000000000000000000000000840361018f576000805460405182916001600160a01b0316906100a490879087906102bf565b7f000000000000000000000000000000000000000000000000000000000000000084036101e75760008073__$e60f8c3ac5f1be6dd681f7ee0e7b73b376$__6001600160a01b031685856040516100a49291906102bf565b9392505050565b60008060006040848603121561020357600080fd5b83359250602084013567ffffffffffffffff8082111561022257600080fd5b818601915086601f83011261023657600080fd5b81358181111561024557600080fd5b87602082850101111561025757600080fd5b6020830194508093505050509250925092565b600060208083528351808285015260005b818110156102975785810183015185820160400152820161027b565b818111156102a9576000604083870101525b50601f01601f1916929092016040019392505050565b818382376000910190815291905056fea2646970667358221220f3a4a9156aea3e35d396946249f1c5e8b6756c302aa1249789a9f2b1b49d89a064736f6c634300080f0033",
          "opcodes": "PUSH1 0xE0 PUSH1 0x40 MSTORE PUSH32 0x5FD8CB24549624227A78453FEAEC1565B8D1F4626577A1D15C0719A34804B460 PUSH1 0x80 MSTORE PUSH32 0xE108BE43DBEDEBDD6A5E12088E3FF0EE819DB892BACCF0FC636E26A2DA6C252C PUSH1 0xA0 MSTORE PUSH32 0x790EF67B6749EBF7A55A8AA23A6703C0074D4B3C0BFB6D059ED0E60EDA56B19C PUSH1 0xC0 MSTORE CALLVALUE DUP1 ISZERO PUSH2 0x7C JUMPI PUSH1 0x0 DUP1 REVERT JUMPDEST POP PUSH1 0x40 MLOAD PUSH2 0x423 CODESIZE SUB DUP1 PUSH2 0x423 DUP4 CODECOPY DUP2 ADD PUSH1 0x40 DUP2 SWAP1 MSTORE PUSH2 0x9B SWAP2 PUSH2 0xC0 JUMP JUMPDEST PUSH1 0x0 DUP1 SLOAD PUSH1 0x1 PUSH1 0x1 PUSH1 0xA0 SHL SUB NOT AND PUSH1 0x1 PUSH1 0x1 PUSH1 0xA0 SHL SUB SWAP3 SWAP1 SWAP3 AND SWAP2 SWAP1 SWAP2 OR SWAP1 SSTORE PUSH2 0xF0 JUMP JUMPDEST PUSH1 0x0 PUSH1 0x20 DUP3 DUP5 SUB SLT ISZERO PUSH2 0xD2 JUMPI PUSH1 0x0 DUP1 REVERT JUMPDEST DUP2 MLOAD PUSH1 0x1 PUSH1 0x1 PUSH1 0xA0 SHL SUB DUP2 AND DUP2 EQ PUSH2 0xE9 JUMPI PUSH1 0x0 DUP1 REVERT JUMPDEST SWAP4 SWAP3 POP POP POP JUMP JUMPDEST PUSH1 0x80 MLOAD PUSH1 0xA0 MLOAD PUSH1 0xC0 MLOAD PUSH2 0x305 PUSH2 0x11E PUSH1 0x0 CODECOPY PUSH1 0x0 PUSH2 0x191 ADD MSTORE PUSH1 0x0 PUSH2 0x14A ADD MSTORE PUSH1 0x0 PUSH1 0xF2 ADD MSTORE PUSH2 0x305 PUSH1 0x0 RETURN INVALID PUSH1 0x80 PUSH1 0x40 MSTORE CALLVALUE DUP1 ISZERO PUSH2 0x10 JUMPI PUSH1 0x0 DUP1 REVERT JUMPDEST POP PUSH1 0x4 CALLDATASIZE LT PUSH2 0x2B JUMPI PUSH1 0x0 CALLDATALOAD PUSH1 0xE0 SHR DUP1 PUSH4 0xE9AE5C53 EQ PUSH2 0x30 JUMPI JUMPDEST PUSH1 0x0 DUP1 REVERT JUMPDEST PUSH2 0x43 PUSH2 0x3E CALLDATASIZE PUSH1 0x4 PUSH2 0x1EE JUMP JUMPDEST PUSH2 0x59 JUMP JUMPDEST PUSH1 0x40 MLOAD PUSH2 0x50 SWAP2 SWAP1 PUSH2 0x26A JUMP JUMPDEST PUSH1 0x40 MLOAD DUP1 SWAP2 SUB SWAP1 RETURN JUMPDEST PUSH1 0x0 DUP4 DUP2 MSTORE PUSH1 0x1 PUSH1 0x20 MSTORE PUSH1 0x40 SWAP1 KECCAK256 SLOAD PUSH1 0x60 SWAP1 PUSH1 0x1 PUSH1 0x1 PUSH1 0xA0 SHL SUB AND ISZERO PUSH2 0xF0 JUMPI PUSH1 0x0 DUP5 DUP2 MSTORE PUSH1 0x1 PUSH1 0x20 MSTORE PUSH1 0x40 DUP1 DUP3 KECCAK256 SLOAD SWAP1 MLOAD DUP3 SWAP2 PUSH1 0x1 PUSH1 0x1 PUSH1 0xA0 SHL SUB AND SWAP1 PUSH2 0xA4 SWAP1 DUP8 SWAP1 DUP8 SWAP1 PUSH2 0x2BF JUMP JUMPDEST PUSH1 0x0 PUSH1 0x40 MLOAD DUP1 DUP4 SUB DUP2 DUP6 GAS STATICCALL SWAP2 POP POP RETURNDATASIZE DUP1 PUSH1 0x0 DUP2 EQ PUSH2 0xDF JUMPI PUSH1 0x40 MLOAD SWAP2 POP PUSH1 0x1F NOT PUSH1 0x3F RETURNDATASIZE ADD AND DUP3 ADD PUSH1 0x40 MSTORE RETURNDATASIZE DUP3 MSTORE RETURNDATASIZE PUSH1 0x0 PUSH1 0x20 DUP5 ADD RETURNDATACOPY PUSH2 0xE4 JUMP JUMPDEST PUSH1 0x60 SWAP2 POP JUMPDEST POP SWAP4 POP PUSH2 0x1E7 SWAP3 POP POP POP JUMP JUMPDEST PUSH32 0x0 DUP5 SUB PUSH2 0x148 JUMPI PUSH1 0x0 DUP1 PUSH20 0x0 PUSH1 0x1 PUSH1 0x1 PUSH1 0xA0 SHL SUB AND DUP6 DUP6 PUSH1 0x40 MLOAD PUSH2 0xA4 SWAP3 SWAP2 SWAP1 PUSH2 0x2BF JUMP JUMPDEST PUSH32 0x0 DUP5 SUB PUSH2 0x18F JUMPI PUSH1 0x0 DUP1 SLOAD PUSH1 0x40 MLOAD DUP3 SWAP2 PUSH1 0x1 PUSH1 0x1 PUSH1 0xA0 SHL SUB AND SWAP1 PUSH2 0xA4 SWAP1 DUP8 SWAP1 DUP8 SWAP1 PUSH2 0x2BF JUMP JUMPDEST PUSH32 0x0 DUP5 SUB PUSH2 0x1E7 JUMPI PUSH1 0x0 DUP1 PUSH20 0x0 PUSH1 0x1 PUSH1 0x1 PUSH1 0xA0 SHL SUB AND DUP6 DUP6 PUSH1 0x40 MLOAD PUSH2 0xA4 SWAP3 SWAP2 SWAP1 PUSH2 0x2BF JUMP JUMPDEST SWAP4 SWAP3 POP POP POP JUMP JUMPDEST PUSH1 0x0 DUP1 PUSH1 0x0 PUSH1 0x40 DUP5 DUP7 SUB SLT ISZERO PUSH2 0x203 JUMPI PUSH1 0x0 DUP1 REVERT JUMPDEST DUP4 CALLDATALOAD SWAP3 POP PUSH1 0x20 DUP5 ADD CALLDATALOAD PUSH8 0xFFFFFFFFFFFFFFFF DUP1 DUP3 GT ISZERO PUSH2 0x222 JUMPI PUSH1 0x0 DUP1 REVERT JUMPDEST DUP2 DUP7 ADD SWAP2 POP DUP7 PUSH1 0x1F DUP4 ADD SLT PUSH2 0x236 JUMPI PUSH1 0x0 DUP1 REVERT JUMPDEST DUP2 CALLDATALOAD DUP2 DUP2 GT ISZERO PUSH2 0x245 JUMPI PUSH1 0x0 DUP1 REVERT JUMPDEST DUP8 PUSH1 0x20 DUP3 DUP6 ADD ADD GT ISZERO PUSH2 0x257 JUMPI PUSH1 0x0 DUP1 REVERT JUMPDEST PUSH1 0x20 DUP4 ADD SWAP5 POP DUP1 SWAP4 POP POP POP POP SWAP3 POP SWAP3 POP SWAP3 JUMP JUMPDEST PUSH1 0x0 PUSH1 0x20 DUP1 DUP4 MSTORE DUP4 MLOAD DUP1 DUP3 DUP6 ADD MSTORE PUSH1 0x0 JUMPDEST DUP2 DUP2 LT ISZERO PUSH2 0x297 JUMPI DUP6 DUP2 ADD DUP4 ADD MLOAD DUP6 DUP3 ADD PUSH1 0x40 ADD MSTORE DUP3 ADD PUSH2 0x27B JUMP JUMPDEST DUP2 DUP2 GT ISZERO PUSH2 0x2A9 JUMPI PUSH1 0x0 PUSH1 0x40 DUP4 DUP8 ADD ADD MSTORE JUMPDEST POP PUSH1 0x1F ADD PUSH1 0x1F NOT AND SWAP3 SWAP1 SWAP3 ADD PUSH1 0x40 ADD SWAP4 SWAP3 POP POP POP JUMP JUMPDEST DUP2 DUP4 DUP3 CALLDATACOPY PUSH1 0x0 SWAP2 ADD SWAP1 DUP2 MSTORE SWAP2 SWAP1 POP JUMP INVALID LOG2 PUSH5 0x6970667358 0x22 SLT KECCAK256 RETURN LOG4 0xA9 ISZERO PUSH11 0xEA3E35D396946249F1C5E8 0xB6 PUSH22 0x6C302AA1249789A9F2B1B49D89A064736F6C63430008 0xF STOP CALLER "
        },
        "gasEstimates": {
          "creation": {
            "codeDepositCost": "154600",
            "executionCost": "infinite",
            "totalCost": "infinite"
          },
          "external": {
            "execute(bytes32,bytes)": "infinite"
          }
        },
        "methodIdentifiers": {
          "execute(bytes32,bytes)": "e9ae5c53"
        }
      },
      "storageLayout": {
        "storage": [
          {
            "astId": 1023,
            "contract": "contracts/svg/SVGLibrary.sol:SVGLibrary",
            "label": "_colors",
            "offset": 0,
            "slot": "0",
            "type": "t_address"
          },
          {
            "astId": 1042,
            "contract": "contracts/svg/SVGLibrary.sol:SVGLibrary",
            "label": "_modules",
            "offset": 0,
            "slot": "1",
            "type": "t_mapping(t_bytes32,t_address)"
          }
        ],
        "types": {
          "t_address": {
            "encoding": "inplace",
            "label": "address",
            "numberOfBytes": "20"
          },
          "t_bytes32": {
            "encoding": "inplace",
            "label": "bytes32",
            "numberOfBytes": "32"
          },
          "t_mapping(t_bytes32,t_address)": {
            "encoding": "mapping",
            "key": "t_bytes32",
            "label": "mapping(bytes32 => address)",
            "numberOfBytes": "32",
            "value": "t_address"
          }
        }
      },
      "userdoc": {
        "kind": "user",
        "methods": {},
        "version": 1
      }
    }
  }
}