{
  "_format": "hh-sol-artifact-1",
  "contractName": "ExampleRender",
  "sourceName": "contracts/examples/ExampleRender.sol",
  "abi": [
    {
      "inputs": [
        {
          "internalType": "address",
          "name": "_svgRegistry_",
          "type": "address"
        }
      ],
      "stateMutability": "nonpayable",
      "type": "constructor"
    },
    {
      "anonymous": false,
      "inputs": [
        {
          "indexed": true,
          "internalType": "address",
          "name": "previousOwner",
          "type": "address"
        },
        {
          "indexed": true,
          "internalType": "address",
          "name": "newOwner",
          "type": "address"
        }
      ],
      "name": "OwnershipTransferred",
      "type": "event"
    },
    {
      "inputs": [],
      "name": "owner",
      "outputs": [
        {
          "internalType": "address",
          "name": "",
          "type": "address"
        }
      ],
      "stateMutability": "view",
      "type": "function"
    },
    {
      "inputs": [
        {
          "internalType": "bytes",
          "name": "input",
          "type": "bytes"
        }
      ],
      "name": "render",
      "outputs": [
        {
          "internalType": "string",
          "name": "",
          "type": "string"
        }
      ],
      "stateMutability": "view",
      "type": "function"
    },
    {
      "inputs": [],
      "name": "renounceOwnership",
      "outputs": [],
      "stateMutability": "nonpayable",
      "type": "function"
    },
    {
      "inputs": [
        {
          "internalType": "address",
          "name": "newOwner",
          "type": "address"
        }
      ],
      "name": "transferOwnership",
      "outputs": [],
      "stateMutability": "nonpayable",
      "type": "function"
    }
  ],
  "bytecode": "0x608060405234801561001057600080fd5b50604051610daf380380610daf83398101604081905261002f916100ad565b6100383361005d565b600180546001600160a01b0319166001600160a01b03929092169190911790556100dd565b600080546001600160a01b038381166001600160a01b0319831681178455604051919092169283917f8be0079c531659141344cd1fd0a4f28419497f9722a3daafe3b4186f6b6457e09190a35050565b6000602082840312156100bf57600080fd5b81516001600160a01b03811681146100d657600080fd5b9392505050565b610cc3806100ec6000396000f3fe608060405234801561001057600080fd5b506004361061004c5760003560e01c8063316df61e14610051578063715018a61461007a5780638da5cb5b14610084578063f2fde38b1461009f575b600080fd5b61006461005f3660046107e3565b6100b2565b60405161007191906108bf565b60405180910390f35b6100826100cb565b005b6000546040516001600160a01b039091168152602001610071565b6100826100ad3660046108d2565b6100df565b60606100c56100c08361015d565b61036c565b92915050565b6100d361039d565b6100dd60006103f7565b565b6100e761039d565b6001600160a01b0381166101515760405162461bcd60e51b815260206004820152602660248201527f4f776e61626c653a206e6577206f776e657220697320746865207a65726f206160448201526564647265737360d01b60648201526084015b60405180910390fd5b61015a816103f7565b50565b6060600080600080858060200190518101906101799190610911565b9350935093509350610189610447565b61025d6101ca604051806040016040528060018152602001600f60fb1b8152506040518060400160405280600381526020016233302560e81b81525061050a565b610208604051806040016040528060018152602001607960f81b8152506040518060400160405280600381526020016235302560e81b81525061050a565b604051602001610219929190610965565b60408051601f1981840301815282825260ff891660208401529161025891662327aaa72222a960c91b9101604051602081830303815290604052610536565b6105b5565b61029e6101ca604051806040016040528060018152602001600f60fb1b8152506040518060400160405280600381526020016234352560e81b81525061050a565b6102df6101ca604051806040016040528060018152602001600f60fb1b8152506040518060400160405280600381526020016235352560e81b81525061050a565b6103206101ca604051806040016040528060018152602001600f60fb1b8152506040518060400160405280600381526020016237352560e81b81525061050a565b6040805180820190915260068152651e17b9bb339f60d11b602082015260405160200161035296959493929190610994565b604051602081830303815290604052945050505050919050565b6060610377826105de565b6040516020016103879190610a13565b6040516020818303038152906040529050919050565b6000546001600160a01b031633146100dd5760405162461bcd60e51b815260206004820181905260248201527f4f776e61626c653a2063616c6c6572206973206e6f7420746865206f776e65726044820152606401610148565b600080546001600160a01b038381166001600160a01b0319831681178455604051919092169283917f8be0079c531659141344cd1fd0a4f28419497f9722a3daafe3b4186f6b6457e09190a35050565b60606040516020016104f6907f3c7376672077696474683d2233323022206865696768743d223332302220737481527503cb6329e913130b1b5b3b937bab7321d11a3232311160551b60208201527503b34b2bba137bc1e91181018101999181019991811160551b60368201527f786d6c6e733d22687474703a2f2f7777772e77332e6f72672f323030302f7376604c8201526203391160ed1b606c820152601f60f91b606f82015260700190565b604051602081830303815290604052905090565b6060828260405160200161051f929190610a58565b604051602081830303815290604052905092915050565b600154604051633a68f5db60e01b81526060916001600160a01b031690633a68f5db906105699086908690600401610aad565b600060405180830381865afa158015610586573d6000803e3d6000fd5b505050506040513d6000823e601f3d908101601f191682016040526105ae9190810190610ace565b9392505050565b60606105ae604051806040016040528060048152602001631d195e1d60e21b8152508484610743565b606081516000036105fd57505060408051602081019091526000815290565b6000604051806060016040528060408152602001610c4e604091399050600060038451600261062c9190610b5b565b6106369190610b73565b610641906004610b95565b90506000610650826020610b5b565b67ffffffffffffffff81111561066857610668610774565b6040519080825280601f01601f191660200182016040528015610692576020820181803683370190505b509050818152600183018586518101602084015b818310156106fe576003830192508251603f8160121c168501518253600182019150603f81600c1c168501518253600182019150603f8160061c168501518253600182019150603f81168501518253506001016106a6565b600389510660018114610718576002811461072957610735565b613d3d60f01b600119830152610735565b603d60f81b6000198301525b509398975050505050505050565b60608383838660405160200161075c9493929190610bb4565b60405160208183030381529060405290509392505050565b634e487b7160e01b600052604160045260246000fd5b604051601f8201601f1916810167ffffffffffffffff811182821017156107b3576107b3610774565b604052919050565b600067ffffffffffffffff8211156107d5576107d5610774565b50601f01601f191660200190565b6000602082840312156107f557600080fd5b813567ffffffffffffffff81111561080c57600080fd5b8201601f8101841361081d57600080fd5b803561083061082b826107bb565b61078a565b81815285602083850101111561084557600080fd5b81602084016020830137600091810160200191909152949350505050565b60005b8381101561087e578181015183820152602001610866565b8381111561088d576000848401525b50505050565b600081518084526108ab816020860160208601610863565b601f01601f19169290920160200192915050565b6020815260006105ae6020830184610893565b6000602082840312156108e457600080fd5b81356001600160a01b03811681146105ae57600080fd5b805160ff8116811461090c57600080fd5b919050565b6000806000806080858703121561092757600080fd5b610930856108fb565b935061093e602086016108fb565b925061094c604086016108fb565b915061095a606086016108fb565b905092959194509250565b60008351610977818460208801610863565b83519083019061098b818360208801610863565b01949350505050565b6000875160206109a78285838d01610863565b8851918401916109ba8184848d01610863565b88519201916109cc8184848c01610863565b87519201916109de8184848b01610863565b86519201916109f08184848a01610863565b8551920191610a028184848901610863565b919091019998505050505050505050565b7f646174613a696d6167652f7376672b786d6c3b6261736536342c000000000000815260008251610a4b81601a850160208701610863565b91909101601a0192915050565b60008351610a6a818460208801610863565b603d60f81b908301908152601160f91b60018201528351610a92816002840160208801610863565b61011160f51b60029290910191820152600401949350505050565b828152604060208201526000610ac66040830184610893565b949350505050565b600060208284031215610ae057600080fd5b815167ffffffffffffffff811115610af757600080fd5b8201601f81018413610b0857600080fd5b8051610b1661082b826107bb565b818152856020838501011115610b2b57600080fd5b610b3c826020830160208601610863565b95945050505050565b634e487b7160e01b600052601160045260246000fd5b60008219821115610b6e57610b6e610b45565b500190565b600082610b9057634e487b7160e01b600052601260045260246000fd5b500490565b6000816000190483118215151615610baf57610baf610b45565b500290565b600f60fa1b815260008551610bd0816001850160208a01610863565b600160fd1b6001918401918201528551610bf1816002840160208a01610863565b808201915050601f60f91b8060028301528551610c15816003850160208a01610863565b613c2f60f01b600393909101928301528451610c38816005850160208901610863565b6005920191820152600601969550505050505056fe4142434445464748494a4b4c4d4e4f505152535455565758595a6162636465666768696a6b6c6d6e6f707172737475767778797a303132333435363738392b2fa2646970667358221220b42cf9e06518784b10a04633a6a02919cf25acafafc8821ccba3398871018a3264736f6c634300080f0033",
  "linkReferences": {},
  "deployedLinkReferences": {}
}