{
  "contracts/examples/TraitsStreamENS.sol": {
    "TraitsStreamENS": {
      "abi": [
        {
          "inputs": [
            {
              "internalType": "address",
              "name": "streamEns",
              "type": "address"
            }
          ],
          "stateMutability": "nonpayable",
          "type": "constructor"
        },
        {
          "anonymous": false,
          "inputs": [
            {
              "indexed": true,
              "internalType": "address",
              "name": "previousOwner",
              "type": "address"
            },
            {
              "indexed": true,
              "internalType": "address",
              "name": "newOwner",
              "type": "address"
            }
          ],
          "name": "OwnershipTransferred",
          "type": "event"
        },
        {
          "inputs": [
            {
              "internalType": "bytes",
              "name": "input",
              "type": "bytes"
            }
          ],
          "name": "fetch",
          "outputs": [
            {
              "internalType": "string",
              "name": "",
              "type": "string"
            }
          ],
          "stateMutability": "view",
          "type": "function"
        },
        {
          "inputs": [],
          "name": "owner",
          "outputs": [
            {
              "internalType": "address",
              "name": "",
              "type": "address"
            }
          ],
          "stateMutability": "view",
          "type": "function"
        },
        {
          "inputs": [],
          "name": "renounceOwnership",
          "outputs": [],
          "stateMutability": "nonpayable",
          "type": "function"
        },
        {
          "inputs": [
            {
              "internalType": "address",
              "name": "newOwner",
              "type": "address"
            }
          ],
          "name": "transferOwnership",
          "outputs": [],
          "stateMutability": "nonpayable",
          "type": "function"
        }
      ],
      "devdoc": {
        "author": "Kames Geraghty",
        "kind": "dev",
        "methods": {
          "owner()": {
            "details": "Returns the address of the current owner."
          },
          "renounceOwnership()": {
            "details": "Leaves the contract without owner. It will not be possible to call `onlyOwner` functions anymore. Can only be called by the current owner. NOTE: Renouncing ownership will leave the contract without an owner, thereby removing any functionality that is only available to the owner."
          },
          "transferOwnership(address)": {
            "details": "Transfers ownership of the contract to a new account (`newOwner`). Can only be called by the current owner."
          }
        },
        "title": "TraitsStreamENS",
        "version": 1
      },
      "evm": {
        "bytecode": {
          "linkReferences": {},
          "object": "608060405234801561001057600080fd5b50604051610b03380380610b0383398101604081905261002f916100ad565b6100383361005d565b600180546001600160a01b0319166001600160a01b03929092169190911790556100dd565b600080546001600160a01b038381166001600160a01b0319831681178455604051919092169283917f8be0079c531659141344cd1fd0a4f28419497f9722a3daafe3b4186f6b6457e09190a35050565b6000602082840312156100bf57600080fd5b81516001600160a01b03811681146100d657600080fd5b9392505050565b610a17806100ec6000396000f3fe608060405234801561001057600080fd5b506004361061004c5760003560e01c8063715018a6146100515780638da5cb5b1461005b578063f2fde38b1461007b578063f6559a6b1461008e575b600080fd5b6100596100ae565b005b6000546040516001600160a01b0390911681526020015b60405180910390f35b6100596100893660046105cc565b6100c2565b6100a161009c36600461065f565b610140565b604051610072919061070f565b6100b66101d2565b6100c0600061022c565b565b6100ca6101d2565b6001600160a01b0381166101345760405162461bcd60e51b815260206004820152602660248201527f4f776e61626c653a206e6577206f776e657220697320746865207a65726f206160448201526564647265737360d01b60648201526084015b60405180910390fd5b61013d8161022c565b50565b60606000828060200190518101906101589190610742565b90506101638161027c565b6101aa60405180604001604052806009815260200168656e7354726169747360b81b815250604051806040016040528060048152602001637472756560e01b8152506102a0565b6040516020016101bb92919061075f565b604051602081830303815290604052915050919050565b6000546001600160a01b031633146100c05760405162461bcd60e51b815260206004820181905260248201527f4f776e61626c653a2063616c6c6572206973206e6f7420746865206f776e6572604482015260640161012b565b600080546001600160a01b038381166001600160a01b0319831681178455604051919092169283917f8be0079c531659141344cd1fd0a4f28419497f9722a3daafe3b4186f6b6457e09190a35050565b606060008061028a846102cc565b9150915061029882826104fc565b949350505050565b606082826040516020016102b592919061078e565b604051602081830303815290604052905092915050565b6001546040516302ec2f6d60e11b81526001600160a01b038381166004830152606092839291169060009082906305d85eda90602401602060405180830381865afa15801561031f573d6000803e3d6000fd5b505050506040513d601f19601f820116820180604052508101906103439190610811565b905060008167ffffffffffffffff811115610360576103606105f0565b60405190808252806020026020018201604052801561039357816020015b606081526020019060019003908161037e5790505b50905060008267ffffffffffffffff8111156103b1576103b16105f0565b6040519080825280602002602001820160405280156103e457816020015b60608152602001906001900390816103cf5790505b50604051631c13359160e11b81526001600160a01b0389811660048301529192506000918291908716906338266b2290602401600060405180830381865afa158015610434573d6000803e3d6000fd5b505050506040513d6000823e601f3d908101601f1916820160405261045c9190810190610905565b9150915060005b858110156104ec5782818151811061047d5761047d610969565b602002602001015185828151811061049757610497610969565b60200260200101819052508181815181106104b4576104b4610969565b60200260200101518482815181106104ce576104ce610969565b602002602001018190525080806104e49061097f565b915050610463565b5092989197509095505050505050565b60408051602081019091526000808252606091905b84518110156105af57600084828151811061052e5761052e610969565b602002602001015151111561059d578161057a86838151811061055357610553610969565b602002602001015186848151811061056d5761056d610969565b60200260200101516102a0565b60405160200161058b9291906109a6565b60405160208183030381529060405291505b806105a78161097f565b915050610511565b509392505050565b6001600160a01b038116811461013d57600080fd5b6000602082840312156105de57600080fd5b81356105e9816105b7565b9392505050565b634e487b7160e01b600052604160045260246000fd5b604051601f8201601f1916810167ffffffffffffffff8111828210171561062f5761062f6105f0565b604052919050565b600067ffffffffffffffff821115610651576106516105f0565b50601f01601f191660200190565b60006020828403121561067157600080fd5b813567ffffffffffffffff81111561068857600080fd5b8201601f8101841361069957600080fd5b80356106ac6106a782610637565b610606565b8181528560208385010111156106c157600080fd5b81602084016020830137600091810160200191909152949350505050565b60005b838110156106fa5781810151838201526020016106e2565b83811115610709576000848401525b50505050565b602081526000825180602084015261072e8160408501602087016106df565b601f01601f19169190910160400192915050565b60006020828403121561075457600080fd5b81516105e9816105b7565b600083516107718184602088016106df565b8351908301906107858183602088016106df565b01949350505050565b6e3d913a3930b4ba2fba3cb832911d1160891b815282516000906107b981600f8501602088016106df565b61088b60f21b600f9184019182015267113b30b63ab2911d60c11b6011820152601160f91b601982015283516107f681601a8401602088016106df565b61227d60f01b601a9290910191820152601c01949350505050565b60006020828403121561082357600080fd5b5051919050565b600082601f83011261083b57600080fd5b8151602067ffffffffffffffff80831115610858576108586105f0565b8260051b610867838201610606565b938452858101830193838101908886111561088157600080fd5b84880192505b858310156108f95782518481111561089f5760008081fd5b8801603f81018a136108b15760008081fd5b8581015160406108c36106a783610637565b8281528c828486010111156108d85760008081fd5b6108e7838a83018487016106df565b85525050509184019190840190610887565b98975050505050505050565b6000806040838503121561091857600080fd5b825167ffffffffffffffff8082111561093057600080fd5b61093c8683870161082a565b9350602085015191508082111561095257600080fd5b5061095f8582860161082a565b9150509250929050565b634e487b7160e01b600052603260045260246000fd5b60006001820161099f57634e487b7160e01b600052601160045260246000fd5b5060010190565b600083516109b88184602088016106df565b8351908301906109cc8183602088016106df565b600b60fa1b910190815260010194935050505056fea2646970667358221220d46e9a7c78a2dca5708df2bcc57663c461e040af6495393421d2cd0f795aacab64736f6c634300080f0033",
          "opcodes": "PUSH1 0x80 PUSH1 0x40 MSTORE CALLVALUE DUP1 ISZERO PUSH2 0x10 JUMPI PUSH1 0x0 DUP1 REVERT JUMPDEST POP PUSH1 0x40 MLOAD PUSH2 0xB03 CODESIZE SUB DUP1 PUSH2 0xB03 DUP4 CODECOPY DUP2 ADD PUSH1 0x40 DUP2 SWAP1 MSTORE PUSH2 0x2F SWAP2 PUSH2 0xAD JUMP JUMPDEST PUSH2 0x38 CALLER PUSH2 0x5D JUMP JUMPDEST PUSH1 0x1 DUP1 SLOAD PUSH1 0x1 PUSH1 0x1 PUSH1 0xA0 SHL SUB NOT AND PUSH1 0x1 PUSH1 0x1 PUSH1 0xA0 SHL SUB SWAP3 SWAP1 SWAP3 AND SWAP2 SWAP1 SWAP2 OR SWAP1 SSTORE PUSH2 0xDD JUMP JUMPDEST PUSH1 0x0 DUP1 SLOAD PUSH1 0x1 PUSH1 0x1 PUSH1 0xA0 SHL SUB DUP4 DUP2 AND PUSH1 0x1 PUSH1 0x1 PUSH1 0xA0 SHL SUB NOT DUP4 AND DUP2 OR DUP5 SSTORE PUSH1 0x40 MLOAD SWAP2 SWAP1 SWAP3 AND SWAP3 DUP4 SWAP2 PUSH32 0x8BE0079C531659141344CD1FD0A4F28419497F9722A3DAAFE3B4186F6B6457E0 SWAP2 SWAP1 LOG3 POP POP JUMP JUMPDEST PUSH1 0x0 PUSH1 0x20 DUP3 DUP5 SUB SLT ISZERO PUSH2 0xBF JUMPI PUSH1 0x0 DUP1 REVERT JUMPDEST DUP2 MLOAD PUSH1 0x1 PUSH1 0x1 PUSH1 0xA0 SHL SUB DUP2 AND DUP2 EQ PUSH2 0xD6 JUMPI PUSH1 0x0 DUP1 REVERT JUMPDEST SWAP4 SWAP3 POP POP POP JUMP JUMPDEST PUSH2 0xA17 DUP1 PUSH2 0xEC PUSH1 0x0 CODECOPY PUSH1 0x0 RETURN INVALID PUSH1 0x80 PUSH1 0x40 MSTORE CALLVALUE DUP1 ISZERO PUSH2 0x10 JUMPI PUSH1 0x0 DUP1 REVERT JUMPDEST POP PUSH1 0x4 CALLDATASIZE LT PUSH2 0x4C JUMPI PUSH1 0x0 CALLDATALOAD PUSH1 0xE0 SHR DUP1 PUSH4 0x715018A6 EQ PUSH2 0x51 JUMPI DUP1 PUSH4 0x8DA5CB5B EQ PUSH2 0x5B JUMPI DUP1 PUSH4 0xF2FDE38B EQ PUSH2 0x7B JUMPI DUP1 PUSH4 0xF6559A6B EQ PUSH2 0x8E JUMPI JUMPDEST PUSH1 0x0 DUP1 REVERT JUMPDEST PUSH2 0x59 PUSH2 0xAE JUMP JUMPDEST STOP JUMPDEST PUSH1 0x0 SLOAD PUSH1 0x40 MLOAD PUSH1 0x1 PUSH1 0x1 PUSH1 0xA0 SHL SUB SWAP1 SWAP2 AND DUP2 MSTORE PUSH1 0x20 ADD JUMPDEST PUSH1 0x40 MLOAD DUP1 SWAP2 SUB SWAP1 RETURN JUMPDEST PUSH2 0x59 PUSH2 0x89 CALLDATASIZE PUSH1 0x4 PUSH2 0x5CC JUMP JUMPDEST PUSH2 0xC2 JUMP JUMPDEST PUSH2 0xA1 PUSH2 0x9C CALLDATASIZE PUSH1 0x4 PUSH2 0x65F JUMP JUMPDEST PUSH2 0x140 JUMP JUMPDEST PUSH1 0x40 MLOAD PUSH2 0x72 SWAP2 SWAP1 PUSH2 0x70F JUMP JUMPDEST PUSH2 0xB6 PUSH2 0x1D2 JUMP JUMPDEST PUSH2 0xC0 PUSH1 0x0 PUSH2 0x22C JUMP JUMPDEST JUMP JUMPDEST PUSH2 0xCA PUSH2 0x1D2 JUMP JUMPDEST PUSH1 0x1 PUSH1 0x1 PUSH1 0xA0 SHL SUB DUP2 AND PUSH2 0x134 JUMPI PUSH1 0x40 MLOAD PUSH3 0x461BCD PUSH1 0xE5 SHL DUP2 MSTORE PUSH1 0x20 PUSH1 0x4 DUP3 ADD MSTORE PUSH1 0x26 PUSH1 0x24 DUP3 ADD MSTORE PUSH32 0x4F776E61626C653A206E6577206F776E657220697320746865207A65726F2061 PUSH1 0x44 DUP3 ADD MSTORE PUSH6 0x646472657373 PUSH1 0xD0 SHL PUSH1 0x64 DUP3 ADD MSTORE PUSH1 0x84 ADD JUMPDEST PUSH1 0x40 MLOAD DUP1 SWAP2 SUB SWAP1 REVERT JUMPDEST PUSH2 0x13D DUP2 PUSH2 0x22C JUMP JUMPDEST POP JUMP JUMPDEST PUSH1 0x60 PUSH1 0x0 DUP3 DUP1 PUSH1 0x20 ADD SWAP1 MLOAD DUP2 ADD SWAP1 PUSH2 0x158 SWAP2 SWAP1 PUSH2 0x742 JUMP JUMPDEST SWAP1 POP PUSH2 0x163 DUP2 PUSH2 0x27C JUMP JUMPDEST PUSH2 0x1AA PUSH1 0x40 MLOAD DUP1 PUSH1 0x40 ADD PUSH1 0x40 MSTORE DUP1 PUSH1 0x9 DUP2 MSTORE PUSH1 0x20 ADD PUSH9 0x656E73547261697473 PUSH1 0xB8 SHL DUP2 MSTORE POP PUSH1 0x40 MLOAD DUP1 PUSH1 0x40 ADD PUSH1 0x40 MSTORE DUP1 PUSH1 0x4 DUP2 MSTORE PUSH1 0x20 ADD PUSH4 0x74727565 PUSH1 0xE0 SHL DUP2 MSTORE POP PUSH2 0x2A0 JUMP JUMPDEST PUSH1 0x40 MLOAD PUSH1 0x20 ADD PUSH2 0x1BB SWAP3 SWAP2 SWAP1 PUSH2 0x75F JUMP JUMPDEST PUSH1 0x40 MLOAD PUSH1 0x20 DUP2 DUP4 SUB SUB DUP2 MSTORE SWAP1 PUSH1 0x40 MSTORE SWAP2 POP POP SWAP2 SWAP1 POP JUMP JUMPDEST PUSH1 0x0 SLOAD PUSH1 0x1 PUSH1 0x1 PUSH1 0xA0 SHL SUB AND CALLER EQ PUSH2 0xC0 JUMPI PUSH1 0x40 MLOAD PUSH3 0x461BCD PUSH1 0xE5 SHL DUP2 MSTORE PUSH1 0x20 PUSH1 0x4 DUP3 ADD DUP2 SWAP1 MSTORE PUSH1 0x24 DUP3 ADD MSTORE PUSH32 0x4F776E61626C653A2063616C6C6572206973206E6F7420746865206F776E6572 PUSH1 0x44 DUP3 ADD MSTORE PUSH1 0x64 ADD PUSH2 0x12B JUMP JUMPDEST PUSH1 0x0 DUP1 SLOAD PUSH1 0x1 PUSH1 0x1 PUSH1 0xA0 SHL SUB DUP4 DUP2 AND PUSH1 0x1 PUSH1 0x1 PUSH1 0xA0 SHL SUB NOT DUP4 AND DUP2 OR DUP5 SSTORE PUSH1 0x40 MLOAD SWAP2 SWAP1 SWAP3 AND SWAP3 DUP4 SWAP2 PUSH32 0x8BE0079C531659141344CD1FD0A4F28419497F9722A3DAAFE3B4186F6B6457E0 SWAP2 SWAP1 LOG3 POP POP JUMP JUMPDEST PUSH1 0x60 PUSH1 0x0 DUP1 PUSH2 0x28A DUP5 PUSH2 0x2CC JUMP JUMPDEST SWAP2 POP SWAP2 POP PUSH2 0x298 DUP3 DUP3 PUSH2 0x4FC JUMP JUMPDEST SWAP5 SWAP4 POP POP POP POP JUMP JUMPDEST PUSH1 0x60 DUP3 DUP3 PUSH1 0x40 MLOAD PUSH1 0x20 ADD PUSH2 0x2B5 SWAP3 SWAP2 SWAP1 PUSH2 0x78E JUMP JUMPDEST PUSH1 0x40 MLOAD PUSH1 0x20 DUP2 DUP4 SUB SUB DUP2 MSTORE SWAP1 PUSH1 0x40 MSTORE SWAP1 POP SWAP3 SWAP2 POP POP JUMP JUMPDEST PUSH1 0x1 SLOAD PUSH1 0x40 MLOAD PUSH4 0x2EC2F6D PUSH1 0xE1 SHL DUP2 MSTORE PUSH1 0x1 PUSH1 0x1 PUSH1 0xA0 SHL SUB DUP4 DUP2 AND PUSH1 0x4 DUP4 ADD MSTORE PUSH1 0x60 SWAP3 DUP4 SWAP3 SWAP2 AND SWAP1 PUSH1 0x0 SWAP1 DUP3 SWAP1 PUSH4 0x5D85EDA SWAP1 PUSH1 0x24 ADD PUSH1 0x20 PUSH1 0x40 MLOAD DUP1 DUP4 SUB DUP2 DUP7 GAS STATICCALL ISZERO DUP1 ISZERO PUSH2 0x31F JUMPI RETURNDATASIZE PUSH1 0x0 DUP1 RETURNDATACOPY RETURNDATASIZE PUSH1 0x0 REVERT JUMPDEST POP POP POP POP PUSH1 0x40 MLOAD RETURNDATASIZE PUSH1 0x1F NOT PUSH1 0x1F DUP3 ADD AND DUP3 ADD DUP1 PUSH1 0x40 MSTORE POP DUP2 ADD SWAP1 PUSH2 0x343 SWAP2 SWAP1 PUSH2 0x811 JUMP JUMPDEST SWAP1 POP PUSH1 0x0 DUP2 PUSH8 0xFFFFFFFFFFFFFFFF DUP2 GT ISZERO PUSH2 0x360 JUMPI PUSH2 0x360 PUSH2 0x5F0 JUMP JUMPDEST PUSH1 0x40 MLOAD SWAP1 DUP1 DUP3 MSTORE DUP1 PUSH1 0x20 MUL PUSH1 0x20 ADD DUP3 ADD PUSH1 0x40 MSTORE DUP1 ISZERO PUSH2 0x393 JUMPI DUP2 PUSH1 0x20 ADD JUMPDEST PUSH1 0x60 DUP2 MSTORE PUSH1 0x20 ADD SWAP1 PUSH1 0x1 SWAP1 SUB SWAP1 DUP2 PUSH2 0x37E JUMPI SWAP1 POP JUMPDEST POP SWAP1 POP PUSH1 0x0 DUP3 PUSH8 0xFFFFFFFFFFFFFFFF DUP2 GT ISZERO PUSH2 0x3B1 JUMPI PUSH2 0x3B1 PUSH2 0x5F0 JUMP JUMPDEST PUSH1 0x40 MLOAD SWAP1 DUP1 DUP3 MSTORE DUP1 PUSH1 0x20 MUL PUSH1 0x20 ADD DUP3 ADD PUSH1 0x40 MSTORE DUP1 ISZERO PUSH2 0x3E4 JUMPI DUP2 PUSH1 0x20 ADD JUMPDEST PUSH1 0x60 DUP2 MSTORE PUSH1 0x20 ADD SWAP1 PUSH1 0x1 SWAP1 SUB SWAP1 DUP2 PUSH2 0x3CF JUMPI SWAP1 POP JUMPDEST POP PUSH1 0x40 MLOAD PUSH4 0x1C133591 PUSH1 0xE1 SHL DUP2 MSTORE PUSH1 0x1 PUSH1 0x1 PUSH1 0xA0 SHL SUB DUP10 DUP2 AND PUSH1 0x4 DUP4 ADD MSTORE SWAP2 SWAP3 POP PUSH1 0x0 SWAP2 DUP3 SWAP2 SWAP1 DUP8 AND SWAP1 PUSH4 0x38266B22 SWAP1 PUSH1 0x24 ADD PUSH1 0x0 PUSH1 0x40 MLOAD DUP1 DUP4 SUB DUP2 DUP7 GAS STATICCALL ISZERO DUP1 ISZERO PUSH2 0x434 JUMPI RETURNDATASIZE PUSH1 0x0 DUP1 RETURNDATACOPY RETURNDATASIZE PUSH1 0x0 REVERT JUMPDEST POP POP POP POP PUSH1 0x40 MLOAD RETURNDATASIZE PUSH1 0x0 DUP3 RETURNDATACOPY PUSH1 0x1F RETURNDATASIZE SWAP1 DUP2 ADD PUSH1 0x1F NOT AND DUP3 ADD PUSH1 0x40 MSTORE PUSH2 0x45C SWAP2 SWAP1 DUP2 ADD SWAP1 PUSH2 0x905 JUMP JUMPDEST SWAP2 POP SWAP2 POP PUSH1 0x0 JUMPDEST DUP6 DUP2 LT ISZERO PUSH2 0x4EC JUMPI DUP3 DUP2 DUP2 MLOAD DUP2 LT PUSH2 0x47D JUMPI PUSH2 0x47D PUSH2 0x969 JUMP JUMPDEST PUSH1 0x20 MUL PUSH1 0x20 ADD ADD MLOAD DUP6 DUP3 DUP2 MLOAD DUP2 LT PUSH2 0x497 JUMPI PUSH2 0x497 PUSH2 0x969 JUMP JUMPDEST PUSH1 0x20 MUL PUSH1 0x20 ADD ADD DUP2 SWAP1 MSTORE POP DUP2 DUP2 DUP2 MLOAD DUP2 LT PUSH2 0x4B4 JUMPI PUSH2 0x4B4 PUSH2 0x969 JUMP JUMPDEST PUSH1 0x20 MUL PUSH1 0x20 ADD ADD MLOAD DUP5 DUP3 DUP2 MLOAD DUP2 LT PUSH2 0x4CE JUMPI PUSH2 0x4CE PUSH2 0x969 JUMP JUMPDEST PUSH1 0x20 MUL PUSH1 0x20 ADD ADD DUP2 SWAP1 MSTORE POP DUP1 DUP1 PUSH2 0x4E4 SWAP1 PUSH2 0x97F JUMP JUMPDEST SWAP2 POP POP PUSH2 0x463 JUMP JUMPDEST POP SWAP3 SWAP9 SWAP2 SWAP8 POP SWAP1 SWAP6 POP POP POP POP POP POP JUMP JUMPDEST PUSH1 0x40 DUP1 MLOAD PUSH1 0x20 DUP2 ADD SWAP1 SWAP2 MSTORE PUSH1 0x0 DUP1 DUP3 MSTORE PUSH1 0x60 SWAP2 SWAP1 JUMPDEST DUP5 MLOAD DUP2 LT ISZERO PUSH2 0x5AF JUMPI PUSH1 0x0 DUP5 DUP3 DUP2 MLOAD DUP2 LT PUSH2 0x52E JUMPI PUSH2 0x52E PUSH2 0x969 JUMP JUMPDEST PUSH1 0x20 MUL PUSH1 0x20 ADD ADD MLOAD MLOAD GT ISZERO PUSH2 0x59D JUMPI DUP2 PUSH2 0x57A DUP7 DUP4 DUP2 MLOAD DUP2 LT PUSH2 0x553 JUMPI PUSH2 0x553 PUSH2 0x969 JUMP JUMPDEST PUSH1 0x20 MUL PUSH1 0x20 ADD ADD MLOAD DUP7 DUP5 DUP2 MLOAD DUP2 LT PUSH2 0x56D JUMPI PUSH2 0x56D PUSH2 0x969 JUMP JUMPDEST PUSH1 0x20 MUL PUSH1 0x20 ADD ADD MLOAD PUSH2 0x2A0 JUMP JUMPDEST PUSH1 0x40 MLOAD PUSH1 0x20 ADD PUSH2 0x58B SWAP3 SWAP2 SWAP1 PUSH2 0x9A6 JUMP JUMPDEST PUSH1 0x40 MLOAD PUSH1 0x20 DUP2 DUP4 SUB SUB DUP2 MSTORE SWAP1 PUSH1 0x40 MSTORE SWAP2 POP JUMPDEST DUP1 PUSH2 0x5A7 DUP2 PUSH2 0x97F JUMP JUMPDEST SWAP2 POP POP PUSH2 0x511 JUMP JUMPDEST POP SWAP4 SWAP3 POP POP POP JUMP JUMPDEST PUSH1 0x1 PUSH1 0x1 PUSH1 0xA0 SHL SUB DUP2 AND DUP2 EQ PUSH2 0x13D JUMPI PUSH1 0x0 DUP1 REVERT JUMPDEST PUSH1 0x0 PUSH1 0x20 DUP3 DUP5 SUB SLT ISZERO PUSH2 0x5DE JUMPI PUSH1 0x0 DUP1 REVERT JUMPDEST DUP2 CALLDATALOAD PUSH2 0x5E9 DUP2 PUSH2 0x5B7 JUMP JUMPDEST SWAP4 SWAP3 POP POP POP JUMP JUMPDEST PUSH4 0x4E487B71 PUSH1 0xE0 SHL PUSH1 0x0 MSTORE PUSH1 0x41 PUSH1 0x4 MSTORE PUSH1 0x24 PUSH1 0x0 REVERT JUMPDEST PUSH1 0x40 MLOAD PUSH1 0x1F DUP3 ADD PUSH1 0x1F NOT AND DUP2 ADD PUSH8 0xFFFFFFFFFFFFFFFF DUP2 GT DUP3 DUP3 LT OR ISZERO PUSH2 0x62F JUMPI PUSH2 0x62F PUSH2 0x5F0 JUMP JUMPDEST PUSH1 0x40 MSTORE SWAP2 SWAP1 POP JUMP JUMPDEST PUSH1 0x0 PUSH8 0xFFFFFFFFFFFFFFFF DUP3 GT ISZERO PUSH2 0x651 JUMPI PUSH2 0x651 PUSH2 0x5F0 JUMP JUMPDEST POP PUSH1 0x1F ADD PUSH1 0x1F NOT AND PUSH1 0x20 ADD SWAP1 JUMP JUMPDEST PUSH1 0x0 PUSH1 0x20 DUP3 DUP5 SUB SLT ISZERO PUSH2 0x671 JUMPI PUSH1 0x0 DUP1 REVERT JUMPDEST DUP2 CALLDATALOAD PUSH8 0xFFFFFFFFFFFFFFFF DUP2 GT ISZERO PUSH2 0x688 JUMPI PUSH1 0x0 DUP1 REVERT JUMPDEST DUP3 ADD PUSH1 0x1F DUP2 ADD DUP5 SGT PUSH2 0x699 JUMPI PUSH1 0x0 DUP1 REVERT JUMPDEST DUP1 CALLDATALOAD PUSH2 0x6AC PUSH2 0x6A7 DUP3 PUSH2 0x637 JUMP JUMPDEST PUSH2 0x606 JUMP JUMPDEST DUP2 DUP2 MSTORE DUP6 PUSH1 0x20 DUP4 DUP6 ADD ADD GT ISZERO PUSH2 0x6C1 JUMPI PUSH1 0x0 DUP1 REVERT JUMPDEST DUP2 PUSH1 0x20 DUP5 ADD PUSH1 0x20 DUP4 ADD CALLDATACOPY PUSH1 0x0 SWAP2 DUP2 ADD PUSH1 0x20 ADD SWAP2 SWAP1 SWAP2 MSTORE SWAP5 SWAP4 POP POP POP POP JUMP JUMPDEST PUSH1 0x0 JUMPDEST DUP4 DUP2 LT ISZERO PUSH2 0x6FA JUMPI DUP2 DUP2 ADD MLOAD DUP4 DUP3 ADD MSTORE PUSH1 0x20 ADD PUSH2 0x6E2 JUMP JUMPDEST DUP4 DUP2 GT ISZERO PUSH2 0x709 JUMPI PUSH1 0x0 DUP5 DUP5 ADD MSTORE JUMPDEST POP POP POP POP JUMP JUMPDEST PUSH1 0x20 DUP2 MSTORE PUSH1 0x0 DUP3 MLOAD DUP1 PUSH1 0x20 DUP5 ADD MSTORE PUSH2 0x72E DUP2 PUSH1 0x40 DUP6 ADD PUSH1 0x20 DUP8 ADD PUSH2 0x6DF JUMP JUMPDEST PUSH1 0x1F ADD PUSH1 0x1F NOT AND SWAP2 SWAP1 SWAP2 ADD PUSH1 0x40 ADD SWAP3 SWAP2 POP POP JUMP JUMPDEST PUSH1 0x0 PUSH1 0x20 DUP3 DUP5 SUB SLT ISZERO PUSH2 0x754 JUMPI PUSH1 0x0 DUP1 REVERT JUMPDEST DUP2 MLOAD PUSH2 0x5E9 DUP2 PUSH2 0x5B7 JUMP JUMPDEST PUSH1 0x0 DUP4 MLOAD PUSH2 0x771 DUP2 DUP5 PUSH1 0x20 DUP9 ADD PUSH2 0x6DF JUMP JUMPDEST DUP4 MLOAD SWAP1 DUP4 ADD SWAP1 PUSH2 0x785 DUP2 DUP4 PUSH1 0x20 DUP9 ADD PUSH2 0x6DF JUMP JUMPDEST ADD SWAP5 SWAP4 POP POP POP POP JUMP JUMPDEST PUSH15 0x3D913A3930B4BA2FBA3CB832911D11 PUSH1 0x89 SHL DUP2 MSTORE DUP3 MLOAD PUSH1 0x0 SWAP1 PUSH2 0x7B9 DUP2 PUSH1 0xF DUP6 ADD PUSH1 0x20 DUP9 ADD PUSH2 0x6DF JUMP JUMPDEST PUSH2 0x88B PUSH1 0xF2 SHL PUSH1 0xF SWAP2 DUP5 ADD SWAP2 DUP3 ADD MSTORE PUSH8 0x113B30B63AB2911D PUSH1 0xC1 SHL PUSH1 0x11 DUP3 ADD MSTORE PUSH1 0x11 PUSH1 0xF9 SHL PUSH1 0x19 DUP3 ADD MSTORE DUP4 MLOAD PUSH2 0x7F6 DUP2 PUSH1 0x1A DUP5 ADD PUSH1 0x20 DUP9 ADD PUSH2 0x6DF JUMP JUMPDEST PUSH2 0x227D PUSH1 0xF0 SHL PUSH1 0x1A SWAP3 SWAP1 SWAP2 ADD SWAP2 DUP3 ADD MSTORE PUSH1 0x1C ADD SWAP5 SWAP4 POP POP POP POP JUMP JUMPDEST PUSH1 0x0 PUSH1 0x20 DUP3 DUP5 SUB SLT ISZERO PUSH2 0x823 JUMPI PUSH1 0x0 DUP1 REVERT JUMPDEST POP MLOAD SWAP2 SWAP1 POP JUMP JUMPDEST PUSH1 0x0 DUP3 PUSH1 0x1F DUP4 ADD SLT PUSH2 0x83B JUMPI PUSH1 0x0 DUP1 REVERT JUMPDEST DUP2 MLOAD PUSH1 0x20 PUSH8 0xFFFFFFFFFFFFFFFF DUP1 DUP4 GT ISZERO PUSH2 0x858 JUMPI PUSH2 0x858 PUSH2 0x5F0 JUMP JUMPDEST DUP3 PUSH1 0x5 SHL PUSH2 0x867 DUP4 DUP3 ADD PUSH2 0x606 JUMP JUMPDEST SWAP4 DUP5 MSTORE DUP6 DUP2 ADD DUP4 ADD SWAP4 DUP4 DUP2 ADD SWAP1 DUP9 DUP7 GT ISZERO PUSH2 0x881 JUMPI PUSH1 0x0 DUP1 REVERT JUMPDEST DUP5 DUP9 ADD SWAP3 POP JUMPDEST DUP6 DUP4 LT ISZERO PUSH2 0x8F9 JUMPI DUP3 MLOAD DUP5 DUP2 GT ISZERO PUSH2 0x89F JUMPI PUSH1 0x0 DUP1 DUP2 REVERT JUMPDEST DUP9 ADD PUSH1 0x3F DUP2 ADD DUP11 SGT PUSH2 0x8B1 JUMPI PUSH1 0x0 DUP1 DUP2 REVERT JUMPDEST DUP6 DUP2 ADD MLOAD PUSH1 0x40 PUSH2 0x8C3 PUSH2 0x6A7 DUP4 PUSH2 0x637 JUMP JUMPDEST DUP3 DUP2 MSTORE DUP13 DUP3 DUP5 DUP7 ADD ADD GT ISZERO PUSH2 0x8D8 JUMPI PUSH1 0x0 DUP1 DUP2 REVERT JUMPDEST PUSH2 0x8E7 DUP4 DUP11 DUP4 ADD DUP5 DUP8 ADD PUSH2 0x6DF JUMP JUMPDEST DUP6 MSTORE POP POP POP SWAP2 DUP5 ADD SWAP2 SWAP1 DUP5 ADD SWAP1 PUSH2 0x887 JUMP JUMPDEST SWAP9 SWAP8 POP POP POP POP POP POP POP POP JUMP JUMPDEST PUSH1 0x0 DUP1 PUSH1 0x40 DUP4 DUP6 SUB SLT ISZERO PUSH2 0x918 JUMPI PUSH1 0x0 DUP1 REVERT JUMPDEST DUP3 MLOAD PUSH8 0xFFFFFFFFFFFFFFFF DUP1 DUP3 GT ISZERO PUSH2 0x930 JUMPI PUSH1 0x0 DUP1 REVERT JUMPDEST PUSH2 0x93C DUP7 DUP4 DUP8 ADD PUSH2 0x82A JUMP JUMPDEST SWAP4 POP PUSH1 0x20 DUP6 ADD MLOAD SWAP2 POP DUP1 DUP3 GT ISZERO PUSH2 0x952 JUMPI PUSH1 0x0 DUP1 REVERT JUMPDEST POP PUSH2 0x95F DUP6 DUP3 DUP7 ADD PUSH2 0x82A JUMP JUMPDEST SWAP2 POP POP SWAP3 POP SWAP3 SWAP1 POP JUMP JUMPDEST PUSH4 0x4E487B71 PUSH1 0xE0 SHL PUSH1 0x0 MSTORE PUSH1 0x32 PUSH1 0x4 MSTORE PUSH1 0x24 PUSH1 0x0 REVERT JUMPDEST PUSH1 0x0 PUSH1 0x1 DUP3 ADD PUSH2 0x99F JUMPI PUSH4 0x4E487B71 PUSH1 0xE0 SHL PUSH1 0x0 MSTORE PUSH1 0x11 PUSH1 0x4 MSTORE PUSH1 0x24 PUSH1 0x0 REVERT JUMPDEST POP PUSH1 0x1 ADD SWAP1 JUMP JUMPDEST PUSH1 0x0 DUP4 MLOAD PUSH2 0x9B8 DUP2 DUP5 PUSH1 0x20 DUP9 ADD PUSH2 0x6DF JUMP JUMPDEST DUP4 MLOAD SWAP1 DUP4 ADD SWAP1 PUSH2 0x9CC DUP2 DUP4 PUSH1 0x20 DUP9 ADD PUSH2 0x6DF JUMP JUMPDEST PUSH1 0xB PUSH1 0xFA SHL SWAP2 ADD SWAP1 DUP2 MSTORE PUSH1 0x1 ADD SWAP5 SWAP4 POP POP POP POP JUMP INVALID LOG2 PUSH5 0x6970667358 0x22 SLT KECCAK256 0xD4 PUSH15 0x9A7C78A2DCA5708DF2BCC57663C461 0xE0 BLOCKHASH 0xAF PUSH5 0x95393421D2 0xCD 0xF PUSH26 0x5AACAB64736F6C634300080F0033000000000000000000000000 "
        },
        "gasEstimates": {
          "creation": {
            "codeDepositCost": "516600",
            "executionCost": "infinite",
            "totalCost": "infinite"
          },
          "external": {
            "fetch(bytes)": "infinite",
            "owner()": "990",
            "renounceOwnership()": "infinite",
            "transferOwnership(address)": "infinite"
          },
          "internal": {
            "_generateTrait(string memory,string memory)": "infinite",
            "_generateTraits(string memory[] memory,string memory[] memory)": "infinite",
            "_getEnsTextFields(address)": "infinite",
            "_getUnwrappedTraits(address)": "infinite"
          }
        },
        "methodIdentifiers": {
          "fetch(bytes)": "f6559a6b",
          "owner()": "8da5cb5b",
          "renounceOwnership()": "715018a6",
          "transferOwnership(address)": "f2fde38b"
        }
      },
      "storageLayout": {
        "storage": [
          {
            "astId": 7,
            "contract": "contracts/examples/TraitsStreamENS.sol:TraitsStreamENS",
            "label": "_owner",
            "offset": 0,
            "slot": "0",
            "type": "t_address"
          },
          {
            "astId": 888,
            "contract": "contracts/examples/TraitsStreamENS.sol:TraitsStreamENS",
            "label": "_streamEns",
            "offset": 0,
            "slot": "1",
            "type": "t_address"
          }
        ],
        "types": {
          "t_address": {
            "encoding": "inplace",
            "label": "address",
            "numberOfBytes": "20"
          }
        }
      },
      "userdoc": {
        "kind": "user",
        "methods": {},
        "version": 1
      }
    }
  }
}