{
  "address": "0x9fE46736679d2D9a65F0992F2272dE9f3c7fa6e0",
  "abi": [
    {
      "inputs": [],
      "stateMutability": "nonpayable",
      "type": "constructor"
    },
    {
      "inputs": [
        {
          "internalType": "bytes",
          "name": "_colors",
          "type": "bytes"
        },
        {
          "internalType": "bytes",
          "name": "_id",
          "type": "bytes"
        },
        {
          "internalType": "bytes",
          "name": "_customAttributes",
          "type": "bytes"
        }
      ],
      "name": "autoLinearGradient",
      "outputs": [
        {
          "internalType": "bytes",
          "name": "",
          "type": "bytes"
        }
      ],
      "stateMutability": "view",
      "type": "function"
    },
    {
      "inputs": [
        {
          "internalType": "bytes",
          "name": "_coordinates",
          "type": "bytes"
        },
        {
          "internalType": "bytes",
          "name": "_colors",
          "type": "bytes"
        },
        {
          "internalType": "bytes",
          "name": "_id",
          "type": "bytes"
        },
        {
          "internalType": "bytes",
          "name": "_customAttributes",
          "type": "bytes"
        }
      ],
      "name": "autoLinearGradient",
      "outputs": [
        {
          "internalType": "bytes",
          "name": "",
          "type": "bytes"
        }
      ],
      "stateMutability": "view",
      "type": "function"
    },
    {
      "inputs": [
        {
          "internalType": "bytes",
          "name": "_data",
          "type": "bytes"
        },
        {
          "internalType": "uint256",
          "name": "_offset",
          "type": "uint256"
        }
      ],
      "name": "byte2uint8",
      "outputs": [
        {
          "internalType": "uint8",
          "name": "",
          "type": "uint8"
        }
      ],
      "stateMutability": "pure",
      "type": "function"
    },
    {
      "inputs": [
        {
          "internalType": "string",
          "name": "",
          "type": "string"
        }
      ],
      "name": "colors",
      "outputs": [
        {
          "internalType": "bytes",
          "name": "",
          "type": "bytes"
        }
      ],
      "stateMutability": "view",
      "type": "function"
    },
    {
      "inputs": [
        {
          "internalType": "string",
          "name": "_colorName",
          "type": "string"
        },
        {
          "internalType": "uint8",
          "name": "_alpha",
          "type": "uint8"
        }
      ],
      "name": "getColor",
      "outputs": [
        {
          "internalType": "bytes",
          "name": "",
          "type": "bytes"
        }
      ],
      "stateMutability": "view",
      "type": "function"
    },
    {
      "inputs": [
        {
          "internalType": "string",
          "name": "_colorName",
          "type": "string"
        }
      ],
      "name": "getColor",
      "outputs": [
        {
          "internalType": "bytes",
          "name": "",
          "type": "bytes"
        }
      ],
      "stateMutability": "view",
      "type": "function"
    },
    {
      "inputs": [
        {
          "internalType": "string",
          "name": "_colorName",
          "type": "string"
        }
      ],
      "name": "getRgba",
      "outputs": [
        {
          "internalType": "string",
          "name": "",
          "type": "string"
        }
      ],
      "stateMutability": "view",
      "type": "function"
    },
    {
      "inputs": [
        {
          "internalType": "bytes",
          "name": "_lg",
          "type": "bytes"
        },
        {
          "internalType": "bytes",
          "name": "_id",
          "type": "bytes"
        },
        {
          "internalType": "bytes",
          "name": "_customAttributes",
          "type": "bytes"
        }
      ],
      "name": "linearGradient",
      "outputs": [
        {
          "internalType": "bytes",
          "name": "",
          "type": "bytes"
        }
      ],
      "stateMutability": "pure",
      "type": "function"
    },
    {
      "inputs": [
        {
          "internalType": "bytes",
          "name": "_rgba",
          "type": "bytes"
        },
        {
          "internalType": "uint256",
          "name": "offset",
          "type": "uint256"
        }
      ],
      "name": "toRgba",
      "outputs": [
        {
          "internalType": "bytes",
          "name": "",
          "type": "bytes"
        }
      ],
      "stateMutability": "pure",
      "type": "function"
    }
  ],
  "transactionHash": "0x3160ab0115031be19c1607ca24b2e5f638b3baca3b5a84b2bf501955e9bd4b9e",
  "args": [],
  "numDeployments": 1,
  "solcInputHash": "0fa140c32b10b548f50f357244af68e7",
  "bytecode": "0x60806040523480156200001157600080fd5b50604051806040016040528060038152602001600081525060006040516200003990620001e0565b9081526020016040518091039020908162000055919062000471565b506040518060400160405280600381526020017fffffff000000000000000000000000000000000000000000000000000000000081525060006040516200009c90620005a8565b90815260200160405180910390209081620000b8919062000471565b506040518060400160405280600381526020017f23232300000000000000000000000000000000000000000000000000000000008152506000604051620000ff906200060f565b908152602001604051809103902090816200011b919062000471565b506040518060400160405280600381526020017f46464600000000000000000000000000000000000000000000000000000000008152506000604051620001629062000676565b908152602001604051809103902090816200017e919062000471565b506200068d565b600081905092915050565b7f426c61636b000000000000000000000000000000000000000000000000000000600082015250565b6000620001c860058362000185565b9150620001d58262000190565b600582019050919050565b6000620001ed82620001b9565b9150819050919050565b600081519050919050565b7f4e487b7100000000000000000000000000000000000000000000000000000000600052604160045260246000fd5b7f4e487b7100000000000000000000000000000000000000000000000000000000600052602260045260246000fd5b600060028204905060018216806200027957607f821691505b6020821081036200028f576200028e62000231565b5b50919050565b60008190508160005260206000209050919050565b60006020601f8301049050919050565b600082821b905092915050565b600060088302620002f97fffffffffffffffffffffffffffffffffffffffffffffffffffffffffffffffff82620002ba565b620003058683620002ba565b95508019841693508086168417925050509392505050565b6000819050919050565b6000819050919050565b6000620003526200034c62000346846200031d565b62000327565b6200031d565b9050919050565b6000819050919050565b6200036e8362000331565b620003866200037d8262000359565b848454620002c7565b825550505050565b600090565b6200039d6200038e565b620003aa81848462000363565b505050565b5b81811015620003d257620003c660008262000393565b600181019050620003b0565b5050565b601f8211156200042157620003eb8162000295565b620003f684620002aa565b8101602085101562000406578190505b6200041e6200041585620002aa565b830182620003af565b50505b505050565b600082821c905092915050565b6000620004466000198460080262000426565b1980831691505092915050565b600062000461838362000433565b9150826002028217905092915050565b6200047c82620001f7565b67ffffffffffffffff81111562000498576200049762000202565b5b620004a4825462000260565b620004b1828285620003d6565b600060209050601f831160018114620004e95760008415620004d4578287015190505b620004e0858262000453565b86555062000550565b601f198416620004f98662000295565b60005b828110156200052357848901518255600182019150602085019450602081019050620004fc565b868310156200054357848901516200053f601f89168262000433565b8355505b6001600288020188555050505b505050505050565b7f5768697465000000000000000000000000000000000000000000000000000000600082015250565b60006200059060058362000185565b91506200059d8262000558565b600582019050919050565b6000620005b58262000581565b9150819050919050565b7f4461726b31000000000000000000000000000000000000000000000000000000600082015250565b6000620005f760058362000185565b91506200060482620005bf565b600582019050919050565b60006200061c82620005e8565b9150819050919050565b7f4461726b32000000000000000000000000000000000000000000000000000000600082015250565b60006200065e60058362000185565b91506200066b8262000626565b600582019050919050565b600062000683826200064f565b9150819050919050565b611f9a806200069d6000396000f3fe608060405234801561001057600080fd5b50600436106100935760003560e01c8063b018757011610066578063b018757014610158578063cde5891014610188578063cf0eca09146101b8578063d6412c27146101e8578063e5d19e691461021857610093565b806340c629fe146100985780634b698358146100c85780635119ce4b146100f8578063525f365414610128575b600080fd5b6100b260048036038101906100ad9190610c42565b610248565b6040516100bf9190610d13565b60405180910390f35b6100e260048036038101906100dd9190610dd6565b6102fe565b6040516100ef9190610d13565b60405180910390f35b610112600480360381019061010d9190610eb3565b61038c565b60405161011f9190610f2b565b60405180910390f35b610142600480360381019061013d9190610f72565b6103fa565b60405161014f9190610d13565b60405180910390f35b610172600480360381019061016d9190610c42565b6104b0565b60405161017f9190610d13565b60405180910390f35b6101a2600480360381019061019d9190610c42565b610563565b6040516101af9190611023565b60405180910390f35b6101d260048036038101906101cd9190610dd6565b61057f565b6040516101df9190610d13565b60405180910390f35b61020260048036038101906101fd9190611045565b610716565b60405161020f9190610d13565b60405180910390f35b610232600480360381019061022d9190610eb3565b6108e4565b60405161023f9190610d13565b60405180910390f35b600081805160208101820180518482526020830160208501208183528095505050505050600091509050805461027d9061114b565b80601f01602080910402602001604051908101604052809291908181526020018280546102a99061114b565b80156102f65780601f106102cb576101008083540402835291602001916102f6565b820191906000526020600020905b8154815290600101906020018083116102d957829003601f168201915b505050505081565b60603073ffffffffffffffffffffffffffffffffffffffff1663d6412c278585856040518463ffffffff1660e01b815260040161033d939291906111a2565b600060405180830381865afa15801561035a573d6000803e3d6000fd5b505050506040513d6000823e3d601f19601f820116820180604052508101906103839190611271565b90509392505050565b6000818351116103d1576040517f08c379a00000000000000000000000000000000000000000000000000000000081526004016103c890611306565b60405180910390fd5b8282815181106103e4576103e3611326565b5b602001015160f81c60f81b60f81c905092915050565b6060600360008460405161040e9190611391565b908152602001604051809103902080546104279061114b565b905014610469576040517f08c379a0000000000000000000000000000000000000000000000000000000008152600401610460906113f4565b60405180910390fd5b6000836040516104799190611391565b9081526020016040518091039020826040516020016104999291906114ed565b604051602081830303815290604052905092915050565b606060036000836040516104c49190611391565b908152602001604051809103902080546104dd9061114b565b90501461051f576040517f08c379a0000000000000000000000000000000000000000000000000000000008152600401610516906113f4565b60405180910390fd5b60008260405161052f9190611391565b908152602001604051809103902060405160200161054d9190611561565b6040516020818303038152906040529050919050565b6060610578610571836104b0565b60006108e4565b9050919050565b6060806000600190506080808760008151811061059f5761059e611326565b5b602001015160f81c60f81b60f81c1660ff1603610637576105cc6105c487600161038c565b60ff16610988565b6105e26105da88600261038c565b60ff16610988565b6105f86105f089600361038c565b60ff16610988565b61060e6106068a600461038c565b60ff16610988565b60405160200161062194939291906116ff565b6040516020818303038152906040529150600590505b84848360405160200161064c93929190611889565b604051602081830303815290604052915060008160ff1690505b86518110156106ea578261068561067d898461038c565b60ff16610988565b61069b89600185610696919061190a565b6108e4565b886106b16106a98c8761038c565b60ff16610988565b6040516020016106c5959493929190611a90565b60405160208183030381529060405292506005816106e3919061190a565b9050610666565b50816040516020016106fc9190611b53565b604051602081830303815290604052925050509392505050565b60608060038651111561074d57608086604051602001610737929190611b75565b6040516020818303038152906040529050610767565b604051806040016040528060018152602001600081525090505b6000600486516107779190611bcc565b905060005b818160ff1610156108cc57826001836107959190611bfd565b60646107a19190611bcc565b8260ff166107af9190611c31565b886004846107bd9190611c8b565b60ff16815181106107d1576107d0611326565b5b602001015160f81c60f81b60f81c8960016004866107ef9190611c8b565b6107f99190611cc6565b60ff168151811061080d5761080c611326565b5b602001015160f81c60f81b60f81c8a600260048761082b9190611c8b565b6108359190611cc6565b60ff168151811061084957610848611326565b5b602001015160f81c60f81b60f81c8b60036004886108679190611c8b565b6108719190611cc6565b60ff168151811061088557610884611326565b5b602001015160f81c60f81b60f81c6040516020016108a896959493929190611cfd565b604051602081830303815290604052925080806108c490611d69565b91505061077c565b6108d783878761057f565b9350505050949350505050565b60606108fb6108f3848461038c565b60ff16610988565b61091c6109148560018661090f919061190a565b61038c565b60ff16610988565b61093d61093586600287610930919061190a565b61038c565b60ff16610988565b61095e61095687600388610951919061190a565b61038c565b60ff16610988565b6040516020016109719493929190611e76565b604051602081830303815290604052905092915050565b6060600082036109cf576040518060400160405280600181526020017f30000000000000000000000000000000000000000000000000000000000000008152509050610ae3565b600082905060005b60008214610a015780806109ea90611eeb565b915050600a826109fa9190611bcc565b91506109d7565b60008167ffffffffffffffff811115610a1d57610a1c610b17565b5b6040519080825280601f01601f191660200182016040528015610a4f5781602001600182028036833780820191505090505b5090505b60008514610adc57600182610a689190611bfd565b9150600a85610a779190611f33565b6030610a83919061190a565b60f81b818381518110610a9957610a98611326565b5b60200101907effffffffffffffffffffffffffffffffffffffffffffffffffffffffffffff1916908160001a905350600a85610ad59190611bcc565b9450610a53565b8093505050505b919050565b6000604051905090565b600080fd5b600080fd5b600080fd5b600080fd5b6000601f19601f8301169050919050565b7f4e487b7100000000000000000000000000000000000000000000000000000000600052604160045260246000fd5b610b4f82610b06565b810181811067ffffffffffffffff82111715610b6e57610b6d610b17565b5b80604052505050565b6000610b81610ae8565b9050610b8d8282610b46565b919050565b600067ffffffffffffffff821115610bad57610bac610b17565b5b610bb682610b06565b9050602081019050919050565b82818337600083830152505050565b6000610be5610be084610b92565b610b77565b905082815260208101848484011115610c0157610c00610b01565b5b610c0c848285610bc3565b509392505050565b600082601f830112610c2957610c28610afc565b5b8135610c39848260208601610bd2565b91505092915050565b600060208284031215610c5857610c57610af2565b5b600082013567ffffffffffffffff811115610c7657610c75610af7565b5b610c8284828501610c14565b91505092915050565b600081519050919050565b600082825260208201905092915050565b60005b83811015610cc5578082015181840152602081019050610caa565b83811115610cd4576000848401525b50505050565b6000610ce582610c8b565b610cef8185610c96565b9350610cff818560208601610ca7565b610d0881610b06565b840191505092915050565b60006020820190508181036000830152610d2d8184610cda565b905092915050565b600067ffffffffffffffff821115610d5057610d4f610b17565b5b610d5982610b06565b9050602081019050919050565b6000610d79610d7484610d35565b610b77565b905082815260208101848484011115610d9557610d94610b01565b5b610da0848285610bc3565b509392505050565b600082601f830112610dbd57610dbc610afc565b5b8135610dcd848260208601610d66565b91505092915050565b600080600060608486031215610def57610dee610af2565b5b600084013567ffffffffffffffff811115610e0d57610e0c610af7565b5b610e1986828701610da8565b935050602084013567ffffffffffffffff811115610e3a57610e39610af7565b5b610e4686828701610da8565b925050604084013567ffffffffffffffff811115610e6757610e66610af7565b5b610e7386828701610da8565b9150509250925092565b6000819050919050565b610e9081610e7d565b8114610e9b57600080fd5b50565b600081359050610ead81610e87565b92915050565b60008060408385031215610eca57610ec9610af2565b5b600083013567ffffffffffffffff811115610ee857610ee7610af7565b5b610ef485828601610da8565b9250506020610f0585828601610e9e565b9150509250929050565b600060ff82169050919050565b610f2581610f0f565b82525050565b6000602082019050610f406000830184610f1c565b92915050565b610f4f81610f0f565b8114610f5a57600080fd5b50565b600081359050610f6c81610f46565b92915050565b60008060408385031215610f8957610f88610af2565b5b600083013567ffffffffffffffff811115610fa757610fa6610af7565b5b610fb385828601610c14565b9250506020610fc485828601610f5d565b9150509250929050565b600081519050919050565b600082825260208201905092915050565b6000610ff582610fce565b610fff8185610fd9565b935061100f818560208601610ca7565b61101881610b06565b840191505092915050565b6000602082019050818103600083015261103d8184610fea565b905092915050565b6000806000806080858703121561105f5761105e610af2565b5b600085013567ffffffffffffffff81111561107d5761107c610af7565b5b61108987828801610da8565b945050602085013567ffffffffffffffff8111156110aa576110a9610af7565b5b6110b687828801610da8565b935050604085013567ffffffffffffffff8111156110d7576110d6610af7565b5b6110e387828801610da8565b925050606085013567ffffffffffffffff81111561110457611103610af7565b5b61111087828801610da8565b91505092959194509250565b7f4e487b7100000000000000000000000000000000000000000000000000000000600052602260045260246000fd5b6000600282049050600182168061116357607f821691505b6020821081036111765761117561111c565b5b50919050565b50565b600061118c600083610c96565b91506111978261117c565b600082019050919050565b600060808201905081810360008301526111bb8161117f565b905081810360208301526111cf8186610cda565b905081810360408301526111e38185610cda565b905081810360608301526111f78184610cda565b9050949350505050565b600061121461120f84610d35565b610b77565b9050828152602081018484840111156112305761122f610b01565b5b61123b848285610ca7565b509392505050565b600082601f83011261125857611257610afc565b5b8151611268848260208601611201565b91505092915050565b60006020828403121561128757611286610af2565b5b600082015167ffffffffffffffff8111156112a5576112a4610af7565b5b6112b184828501611243565b91505092915050565b7f4f7574206f662072616e67650000000000000000000000000000000000000000600082015250565b60006112f0600c83610fd9565b91506112fb826112ba565b602082019050919050565b6000602082019050818103600083015261131f816112e3565b9050919050565b7f4e487b7100000000000000000000000000000000000000000000000000000000600052603260045260246000fd5b600081905092915050565b600061136b82610fce565b6113758185611355565b9350611385818560208601610ca7565b80840191505092915050565b600061139d8284611360565b915081905092915050565b7f556e6b6e6f776e20636f6c6f7200000000000000000000000000000000000000600082015250565b60006113de600d83610fd9565b91506113e9826113a8565b602082019050919050565b6000602082019050818103600083015261140d816113d1565b9050919050565b600081905092915050565b60008190508160005260206000209050919050565b600081546114418161114b565b61144b8186611414565b94506001821660008114611466576001811461147b576114ae565b60ff19831686528115158202860193506114ae565b6114848561141f565b60005b838110156114a657815481890152600182019150602081019050611487565b838801955050505b50505092915050565b60008160f81b9050919050565b60006114cf826114b7565b9050919050565b6114e76114e282610f0f565b6114c4565b82525050565b60006114f98285611434565b915061150582846114d6565b6001820191508190509392505050565b7f6400000000000000000000000000000000000000000000000000000000000000600082015250565b600061154b600183611355565b915061155682611515565b600182019050919050565b600061156d8284611434565b91506115788261153e565b915081905092915050565b7f78313d2200000000000000000000000000000000000000000000000000000000600082015250565b60006115b9600483611355565b91506115c482611583565b600482019050919050565b7f25222078323d2200000000000000000000000000000000000000000000000000600082015250565b6000611605600783611355565b9150611610826115cf565b600782019050919050565b7f25222079313d2200000000000000000000000000000000000000000000000000600082015250565b6000611651600783611355565b915061165c8261161b565b600782019050919050565b7f25222079323d2200000000000000000000000000000000000000000000000000600082015250565b600061169d600783611355565b91506116a882611667565b600782019050919050565b7f2522000000000000000000000000000000000000000000000000000000000000600082015250565b60006116e9600283611355565b91506116f4826116b3565b600282019050919050565b600061170a826115ac565b91506117168287611360565b9150611721826115f8565b915061172d8286611360565b915061173882611644565b91506117448285611360565b915061174f82611690565b915061175b8284611360565b9150611766826116dc565b915081905095945050505050565b7f3c6c696e6561724772616469656e742069643d22000000000000000000000000600082015250565b60006117aa601483611355565b91506117b582611774565b601482019050919050565b60006117cb82610c8b565b6117d58185611414565b93506117e5818560208601610ca7565b80840191505092915050565b7f2220000000000000000000000000000000000000000000000000000000000000600082015250565b6000611827600283611355565b9150611832826117f1565b600282019050919050565b7f3e00000000000000000000000000000000000000000000000000000000000000600082015250565b6000611873600183611355565b915061187e8261183d565b600182019050919050565b60006118948261179d565b91506118a082866117c0565b91506118ab8261181a565b91506118b782856117c0565b91506118c382846117c0565b91506118ce82611866565b9150819050949350505050565b7f4e487b7100000000000000000000000000000000000000000000000000000000600052601160045260246000fd5b600061191582610e7d565b915061192083610e7d565b9250827fffffffffffffffffffffffffffffffffffffffffffffffffffffffffffffffff03821115611955576119546118db565b5b828201905092915050565b7f3c73746f70206f66667365743d22000000000000000000000000000000000000600082015250565b6000611996600e83611355565b91506119a182611960565b600e82019050919050565b7f25222073746f702d636f6c6f723d220000000000000000000000000000000000600082015250565b60006119e2600f83611355565b91506119ed826119ac565b600f82019050919050565b7f222069643d220000000000000000000000000000000000000000000000000000600082015250565b6000611a2e600683611355565b9150611a39826119f8565b600682019050919050565b7f222f3e0000000000000000000000000000000000000000000000000000000000600082015250565b6000611a7a600383611355565b9150611a8582611a44565b600382019050919050565b6000611a9c82886117c0565b9150611aa782611989565b9150611ab38287611360565b9150611abe826119d5565b9150611aca82866117c0565b9150611ad582611a21565b9150611ae182856117c0565b9150611aed8284611360565b9150611af882611a6d565b91508190509695505050505050565b7f3c2f6c696e6561724772616469656e743e000000000000000000000000000000600082015250565b6000611b3d601183611355565b9150611b4882611b07565b601182019050919050565b6000611b5f82846117c0565b9150611b6a82611b30565b915081905092915050565b6000611b8182856114d6565b600182019150611b9182846117c0565b91508190509392505050565b7f4e487b7100000000000000000000000000000000000000000000000000000000600052601260045260246000fd5b6000611bd782610e7d565b9150611be283610e7d565b925082611bf257611bf1611b9d565b5b828204905092915050565b6000611c0882610e7d565b9150611c1383610e7d565b925082821015611c2657611c256118db565b5b828203905092915050565b6000611c3c82610e7d565b9150611c4783610e7d565b9250817fffffffffffffffffffffffffffffffffffffffffffffffffffffffffffffffff0483118215151615611c8057611c7f6118db565b5b828202905092915050565b6000611c9682610f0f565b9150611ca183610f0f565b92508160ff0483118215151615611cbb57611cba6118db565b5b828202905092915050565b6000611cd182610f0f565b9150611cdc83610f0f565b92508260ff03821115611cf257611cf16118db565b5b828201905092915050565b6000611d0982896117c0565b9150611d1582886114d6565b600182019150611d2582876114d6565b600182019150611d3582866114d6565b600182019150611d4582856114d6565b600182019150611d5582846114d6565b600182019150819050979650505050505050565b6000611d7482610f0f565b915060ff8203611d8757611d866118db565b5b600182019050919050565b7f7267626128000000000000000000000000000000000000000000000000000000600082015250565b6000611dc8600583611355565b9150611dd382611d92565b600582019050919050565b7f2c00000000000000000000000000000000000000000000000000000000000000600082015250565b6000611e14600183611355565b9150611e1f82611dde565b600182019050919050565b7f2529000000000000000000000000000000000000000000000000000000000000600082015250565b6000611e60600283611355565b9150611e6b82611e2a565b600282019050919050565b6000611e8182611dbb565b9150611e8d8287611360565b9150611e9882611e07565b9150611ea48286611360565b9150611eaf82611e07565b9150611ebb8285611360565b9150611ec682611e07565b9150611ed28284611360565b9150611edd82611e53565b915081905095945050505050565b6000611ef682610e7d565b91507fffffffffffffffffffffffffffffffffffffffffffffffffffffffffffffffff8203611f2857611f276118db565b5b600182019050919050565b6000611f3e82610e7d565b9150611f4983610e7d565b925082611f5957611f58611b9d565b5b82820690509291505056fea2646970667358221220e67811229760362c3868bcfe2138e3732f59356cc7ca35adaa6d56cf8d5129a164736f6c634300080f0033",
  "devdoc": {
    "kind": "dev",
    "methods": {},
    "version": 1
  },
  "userdoc": {
    "kind": "user",
    "methods": {},
    "version": 1
  },
  "storageLayout": {
    "storage": [
      {
        "astId": 27,
        "contract": "@erc721k/periphery-sol/contracts/svg/SVGColor.sol:SVGColor",
        "label": "colors",
        "offset": 0,
        "slot": "0",
        "type": "t_mapping(t_string_memory_ptr,t_bytes_storage)"
      }
    ],
    "types": {
      "t_bytes_storage": {
        "encoding": "bytes",
        "label": "bytes",
        "numberOfBytes": "32"
      },
      "t_mapping(t_string_memory_ptr,t_bytes_storage)": {
        "encoding": "mapping",
        "key": "t_string_memory_ptr",
        "label": "mapping(string => bytes)",
        "numberOfBytes": "32",
        "value": "t_bytes_storage"
      },
      "t_string_memory_ptr": {
        "encoding": "bytes",
        "label": "string",
        "numberOfBytes": "32"
      }
    }
  }
}