{
  "address": "0x3Aa5ebB10DC797CAC828524e59A333d0A371443c",
  "abi": [
    {
      "inputs": [
        {
          "internalType": "string",
          "name": "name",
          "type": "string"
        },
        {
          "internalType": "string",
          "name": "symbol",
          "type": "string"
        },
        {
          "internalType": "address",
          "name": "erc721Storage",
          "type": "address"
        },
        {
          "internalType": "address",
          "name": "admin",
          "type": "address"
        }
      ],
      "stateMutability": "nonpayable",
      "type": "constructor"
    },
    {
      "inputs": [],
      "name": "AlreadyMinted",
      "type": "error"
    },
    {
      "inputs": [],
      "name": "ERC721Unauthorized",
      "type": "error"
    },
    {
      "inputs": [],
      "name": "InvalidRecipient",
      "type": "error"
    },
    {
      "inputs": [],
      "name": "NotMinted",
      "type": "error"
    },
    {
      "inputs": [],
      "name": "Unauthorized",
      "type": "error"
    },
    {
      "inputs": [],
      "name": "UnsafeRecipient",
      "type": "error"
    },
    {
      "inputs": [],
      "name": "WrongFrom",
      "type": "error"
    },
    {
      "inputs": [],
      "name": "ZeroAddress",
      "type": "error"
    },
    {
      "anonymous": false,
      "inputs": [
        {
          "indexed": true,
          "internalType": "address",
          "name": "owner",
          "type": "address"
        },
        {
          "indexed": true,
          "internalType": "address",
          "name": "spender",
          "type": "address"
        },
        {
          "indexed": true,
          "internalType": "uint256",
          "name": "id",
          "type": "uint256"
        }
      ],
      "name": "Approval",
      "type": "event"
    },
    {
      "anonymous": false,
      "inputs": [
        {
          "indexed": true,
          "internalType": "address",
          "name": "owner",
          "type": "address"
        },
        {
          "indexed": true,
          "internalType": "address",
          "name": "operator",
          "type": "address"
        },
        {
          "indexed": false,
          "internalType": "bool",
          "name": "approved",
          "type": "bool"
        }
      ],
      "name": "ApprovalForAll",
      "type": "event"
    },
    {
      "anonymous": false,
      "inputs": [
        {
          "indexed": false,
          "internalType": "address",
          "name": "erc721Storage",
          "type": "address"
        }
      ],
      "name": "ERC721StorageUpdated",
      "type": "event"
    },
    {
      "anonymous": false,
      "inputs": [
        {
          "indexed": true,
          "internalType": "address",
          "name": "user",
          "type": "address"
        },
        {
          "indexed": true,
          "internalType": "address",
          "name": "ownerCandidate",
          "type": "address"
        }
      ],
      "name": "OwnerUpdateInitiated",
      "type": "event"
    },
    {
      "anonymous": false,
      "inputs": [
        {
          "indexed": true,
          "internalType": "address",
          "name": "user",
          "type": "address"
        },
        {
          "indexed": true,
          "internalType": "address",
          "name": "newOwner",
          "type": "address"
        }
      ],
      "name": "OwnershipTransferred",
      "type": "event"
    },
    {
      "anonymous": false,
      "inputs": [
        {
          "indexed": true,
          "internalType": "bytes32",
          "name": "role",
          "type": "bytes32"
        },
        {
          "indexed": true,
          "internalType": "bytes32",
          "name": "previousAdminRole",
          "type": "bytes32"
        },
        {
          "indexed": true,
          "internalType": "bytes32",
          "name": "newAdminRole",
          "type": "bytes32"
        }
      ],
      "name": "RoleAdminChanged",
      "type": "event"
    },
    {
      "anonymous": false,
      "inputs": [
        {
          "indexed": true,
          "internalType": "bytes32",
          "name": "role",
          "type": "bytes32"
        },
        {
          "indexed": true,
          "internalType": "address",
          "name": "account",
          "type": "address"
        },
        {
          "indexed": true,
          "internalType": "address",
          "name": "sender",
          "type": "address"
        }
      ],
      "name": "RoleGranted",
      "type": "event"
    },
    {
      "anonymous": false,
      "inputs": [
        {
          "indexed": true,
          "internalType": "bytes32",
          "name": "role",
          "type": "bytes32"
        },
        {
          "indexed": true,
          "internalType": "address",
          "name": "account",
          "type": "address"
        },
        {
          "indexed": true,
          "internalType": "address",
          "name": "sender",
          "type": "address"
        }
      ],
      "name": "RoleRevoked",
      "type": "event"
    },
    {
      "anonymous": false,
      "inputs": [
        {
          "indexed": true,
          "internalType": "address",
          "name": "from",
          "type": "address"
        },
        {
          "indexed": true,
          "internalType": "address",
          "name": "to",
          "type": "address"
        },
        {
          "indexed": true,
          "internalType": "uint256",
          "name": "id",
          "type": "uint256"
        }
      ],
      "name": "Transfer",
      "type": "event"
    },
    {
      "inputs": [],
      "name": "DEFAULT_ADMIN_ROLE",
      "outputs": [
        {
          "internalType": "bytes32",
          "name": "",
          "type": "bytes32"
        }
      ],
      "stateMutability": "view",
      "type": "function"
    },
    {
      "inputs": [],
      "name": "MINTER_BURNER_ROLE",
      "outputs": [
        {
          "internalType": "bytes32",
          "name": "",
          "type": "bytes32"
        }
      ],
      "stateMutability": "view",
      "type": "function"
    },
    {
      "inputs": [
        {
          "internalType": "address",
          "name": "spender",
          "type": "address"
        },
        {
          "internalType": "uint256",
          "name": "id",
          "type": "uint256"
        }
      ],
      "name": "approve",
      "outputs": [],
      "stateMutability": "nonpayable",
      "type": "function"
    },
    {
      "inputs": [
        {
          "internalType": "address",
          "name": "owner",
          "type": "address"
        }
      ],
      "name": "balanceOf",
      "outputs": [
        {
          "internalType": "uint256",
          "name": "",
          "type": "uint256"
        }
      ],
      "stateMutability": "view",
      "type": "function"
    },
    {
      "inputs": [
        {
          "internalType": "uint256",
          "name": "tokenId",
          "type": "uint256"
        }
      ],
      "name": "burn",
      "outputs": [],
      "stateMutability": "nonpayable",
      "type": "function"
    },
    {
      "inputs": [],
      "name": "confirmOwner",
      "outputs": [],
      "stateMutability": "payable",
      "type": "function"
    },
    {
      "inputs": [],
      "name": "contractURI",
      "outputs": [
        {
          "internalType": "string",
          "name": "",
          "type": "string"
        }
      ],
      "stateMutability": "view",
      "type": "function"
    },
    {
      "inputs": [
        {
          "internalType": "uint256",
          "name": "",
          "type": "uint256"
        }
      ],
      "name": "getApproved",
      "outputs": [
        {
          "internalType": "address",
          "name": "",
          "type": "address"
        }
      ],
      "stateMutability": "view",
      "type": "function"
    },
    {
      "inputs": [],
      "name": "getERC721Storage",
      "outputs": [
        {
          "internalType": "address",
          "name": "",
          "type": "address"
        }
      ],
      "stateMutability": "view",
      "type": "function"
    },
    {
      "inputs": [
        {
          "internalType": "bytes32",
          "name": "role",
          "type": "bytes32"
        }
      ],
      "name": "getRoleAdmin",
      "outputs": [
        {
          "internalType": "bytes32",
          "name": "",
          "type": "bytes32"
        }
      ],
      "stateMutability": "view",
      "type": "function"
    },
    {
      "inputs": [
        {
          "internalType": "bytes32",
          "name": "role",
          "type": "bytes32"
        },
        {
          "internalType": "address",
          "name": "account",
          "type": "address"
        }
      ],
      "name": "grantRole",
      "outputs": [],
      "stateMutability": "nonpayable",
      "type": "function"
    },
    {
      "inputs": [
        {
          "internalType": "bytes32",
          "name": "role",
          "type": "bytes32"
        },
        {
          "internalType": "address",
          "name": "account",
          "type": "address"
        }
      ],
      "name": "hasRole",
      "outputs": [
        {
          "internalType": "bool",
          "name": "",
          "type": "bool"
        }
      ],
      "stateMutability": "view",
      "type": "function"
    },
    {
      "inputs": [
        {
          "internalType": "address",
          "name": "",
          "type": "address"
        },
        {
          "internalType": "address",
          "name": "",
          "type": "address"
        }
      ],
      "name": "isApprovedForAll",
      "outputs": [
        {
          "internalType": "bool",
          "name": "",
          "type": "bool"
        }
      ],
      "stateMutability": "view",
      "type": "function"
    },
    {
      "inputs": [
        {
          "internalType": "address",
          "name": "to",
          "type": "address"
        }
      ],
      "name": "mint",
      "outputs": [],
      "stateMutability": "nonpayable",
      "type": "function"
    },
    {
      "inputs": [],
      "name": "name",
      "outputs": [
        {
          "internalType": "string",
          "name": "",
          "type": "string"
        }
      ],
      "stateMutability": "view",
      "type": "function"
    },
    {
      "inputs": [],
      "name": "owner",
      "outputs": [
        {
          "internalType": "address",
          "name": "",
          "type": "address"
        }
      ],
      "stateMutability": "view",
      "type": "function"
    },
    {
      "inputs": [
        {
          "internalType": "uint256",
          "name": "tokenId",
          "type": "uint256"
        }
      ],
      "name": "ownerOf",
      "outputs": [
        {
          "internalType": "address",
          "name": "",
          "type": "address"
        }
      ],
      "stateMutability": "view",
      "type": "function"
    },
    {
      "inputs": [
        {
          "internalType": "address",
          "name": "account",
          "type": "address"
        }
      ],
      "name": "preview",
      "outputs": [
        {
          "internalType": "string",
          "name": "",
          "type": "string"
        }
      ],
      "stateMutability": "view",
      "type": "function"
    },
    {
      "inputs": [],
      "name": "renounceOwner",
      "outputs": [],
      "stateMutability": "payable",
      "type": "function"
    },
    {
      "inputs": [
        {
          "internalType": "bytes32",
          "name": "role",
          "type": "bytes32"
        },
        {
          "internalType": "address",
          "name": "account",
          "type": "address"
        }
      ],
      "name": "renounceRole",
      "outputs": [],
      "stateMutability": "nonpayable",
      "type": "function"
    },
    {
      "inputs": [
        {
          "internalType": "bytes32",
          "name": "role",
          "type": "bytes32"
        },
        {
          "internalType": "address",
          "name": "account",
          "type": "address"
        }
      ],
      "name": "revokeRole",
      "outputs": [],
      "stateMutability": "nonpayable",
      "type": "function"
    },
    {
      "inputs": [
        {
          "internalType": "address",
          "name": "from",
          "type": "address"
        },
        {
          "internalType": "address",
          "name": "to",
          "type": "address"
        },
        {
          "internalType": "uint256",
          "name": "id",
          "type": "uint256"
        }
      ],
      "name": "safeTransferFrom",
      "outputs": [],
      "stateMutability": "nonpayable",
      "type": "function"
    },
    {
      "inputs": [
        {
          "internalType": "address",
          "name": "from",
          "type": "address"
        },
        {
          "internalType": "address",
          "name": "to",
          "type": "address"
        },
        {
          "internalType": "uint256",
          "name": "id",
          "type": "uint256"
        },
        {
          "internalType": "bytes",
          "name": "data",
          "type": "bytes"
        }
      ],
      "name": "safeTransferFrom",
      "outputs": [],
      "stateMutability": "nonpayable",
      "type": "function"
    },
    {
      "inputs": [
        {
          "internalType": "address",
          "name": "operator",
          "type": "address"
        },
        {
          "internalType": "bool",
          "name": "approved",
          "type": "bool"
        }
      ],
      "name": "setApprovalForAll",
      "outputs": [],
      "stateMutability": "nonpayable",
      "type": "function"
    },
    {
      "inputs": [
        {
          "internalType": "address",
          "name": "erc721Storage",
          "type": "address"
        }
      ],
      "name": "setStorage",
      "outputs": [],
      "stateMutability": "nonpayable",
      "type": "function"
    },
    {
      "inputs": [
        {
          "internalType": "bytes4",
          "name": "interfaceId",
          "type": "bytes4"
        }
      ],
      "name": "supportsInterface",
      "outputs": [
        {
          "internalType": "bool",
          "name": "",
          "type": "bool"
        }
      ],
      "stateMutability": "view",
      "type": "function"
    },
    {
      "inputs": [],
      "name": "symbol",
      "outputs": [
        {
          "internalType": "string",
          "name": "",
          "type": "string"
        }
      ],
      "stateMutability": "view",
      "type": "function"
    },
    {
      "inputs": [
        {
          "internalType": "uint256",
          "name": "tokenId",
          "type": "uint256"
        }
      ],
      "name": "tokenURI",
      "outputs": [
        {
          "internalType": "string",
          "name": "",
          "type": "string"
        }
      ],
      "stateMutability": "view",
      "type": "function"
    },
    {
      "inputs": [],
      "name": "totalSupply",
      "outputs": [
        {
          "internalType": "uint256",
          "name": "",
          "type": "uint256"
        }
      ],
      "stateMutability": "view",
      "type": "function"
    },
    {
      "inputs": [
        {
          "internalType": "address",
          "name": "from",
          "type": "address"
        },
        {
          "internalType": "address",
          "name": "to",
          "type": "address"
        },
        {
          "internalType": "uint256",
          "name": "tokenId",
          "type": "uint256"
        }
      ],
      "name": "transferFrom",
      "outputs": [],
      "stateMutability": "nonpayable",
      "type": "function"
    },
    {
      "inputs": [
        {
          "internalType": "address",
          "name": "newOwner",
          "type": "address"
        }
      ],
      "name": "transferOwnership",
      "outputs": [],
      "stateMutability": "payable",
      "type": "function"
    }
  ],
  "transactionHash": "0x8aac46207086f845f6a619a482bafe9a4160cd330bba7213e60babb964f0c473",
  "args": [
    "Web3 Savings Card",
    "SAVE",
    "0x68B1D87F95878fE05B998F19b66F4baba5De1aed",
    "0x761d584f1C2d43cBc3F42ECd739701a36dFFAa31"
  ],
  "numDeployments": 1,
  "solcInputHash": "bce8c9a59deb035098ddf76bd51ea978",
  "bytecode": "0x60806040523480156200001157600080fd5b50604051620042283803806200422883398181016040528101906200003791906200052c565b83838333838381600090816200004e919062000827565b50806001908162000060919062000827565b50505080600660006101000a81548173ffffffffffffffffffffffffffffffffffffffff021916908373ffffffffffffffffffffffffffffffffffffffff1602179055508073ffffffffffffffffffffffffffffffffffffffff16600073ffffffffffffffffffffffffffffffffffffffff167f8be0079c531659141344cd1fd0a4f28419497f9722a3daafe3b4186f6b6457e060405160405180910390a35080600960006101000a81548173ffffffffffffffffffffffffffffffffffffffff021916908373ffffffffffffffffffffffffffffffffffffffff1602179055505050506008600081548092919062000159906200093d565b9190505550620001736000801b82620001af60201b60201c565b620001a57fcfd53186d792f1ec9d0679afc2dc3ffc86fc31fe1e0f342b838eb6c3eade62b382620001af60201b60201c565b505050506200098a565b620001c18282620001c560201b60201c565b5050565b620001d78282620002b760201b60201c565b620002b3576001600a600084815260200190815260200160002060000160008373ffffffffffffffffffffffffffffffffffffffff1673ffffffffffffffffffffffffffffffffffffffff16815260200190815260200160002060006101000a81548160ff021916908315150217905550620002586200032260201b60201c565b73ffffffffffffffffffffffffffffffffffffffff168173ffffffffffffffffffffffffffffffffffffffff16837f2f8788117e7eff1d82e926ec794901d17c78024a50270940304540a733656f0d60405160405180910390a45b5050565b6000600a600084815260200190815260200160002060000160008373ffffffffffffffffffffffffffffffffffffffff1673ffffffffffffffffffffffffffffffffffffffff16815260200190815260200160002060009054906101000a900460ff16905092915050565b600033905090565b6000604051905090565b600080fd5b600080fd5b600080fd5b600080fd5b6000601f19601f8301169050919050565b7f4e487b7100000000000000000000000000000000000000000000000000000000600052604160045260246000fd5b620003938262000348565b810181811067ffffffffffffffff82111715620003b557620003b462000359565b5b80604052505050565b6000620003ca6200032a565b9050620003d8828262000388565b919050565b600067ffffffffffffffff821115620003fb57620003fa62000359565b5b620004068262000348565b9050602081019050919050565b60005b838110156200043357808201518184015260208101905062000416565b8381111562000443576000848401525b50505050565b6000620004606200045a84620003dd565b620003be565b9050828152602081018484840111156200047f576200047e62000343565b5b6200048c84828562000413565b509392505050565b600082601f830112620004ac57620004ab6200033e565b5b8151620004be84826020860162000449565b91505092915050565b600073ffffffffffffffffffffffffffffffffffffffff82169050919050565b6000620004f482620004c7565b9050919050565b6200050681620004e7565b81146200051257600080fd5b50565b6000815190506200052681620004fb565b92915050565b6000806000806080858703121562000549576200054862000334565b5b600085015167ffffffffffffffff8111156200056a576200056962000339565b5b620005788782880162000494565b945050602085015167ffffffffffffffff8111156200059c576200059b62000339565b5b620005aa8782880162000494565b9350506040620005bd8782880162000515565b9250506060620005d08782880162000515565b91505092959194509250565b600081519050919050565b7f4e487b7100000000000000000000000000000000000000000000000000000000600052602260045260246000fd5b600060028204905060018216806200062f57607f821691505b602082108103620006455762000644620005e7565b5b50919050565b60008190508160005260206000209050919050565b60006020601f8301049050919050565b600082821b905092915050565b600060088302620006af7fffffffffffffffffffffffffffffffffffffffffffffffffffffffffffffffff8262000670565b620006bb868362000670565b95508019841693508086168417925050509392505050565b6000819050919050565b6000819050919050565b60006200070862000702620006fc84620006d3565b620006dd565b620006d3565b9050919050565b6000819050919050565b6200072483620006e7565b6200073c62000733826200070f565b8484546200067d565b825550505050565b600090565b6200075362000744565b6200076081848462000719565b505050565b5b8181101562000788576200077c60008262000749565b60018101905062000766565b5050565b601f821115620007d757620007a1816200064b565b620007ac8462000660565b81016020851015620007bc578190505b620007d4620007cb8562000660565b83018262000765565b50505b505050565b600082821c905092915050565b6000620007fc60001984600802620007dc565b1980831691505092915050565b6000620008178383620007e9565b9150826002028217905092915050565b6200083282620005dc565b67ffffffffffffffff8111156200084e576200084d62000359565b5b6200085a825462000616565b620008678282856200078c565b600060209050601f8311600181146200089f57600084156200088a578287015190505b62000896858262000809565b86555062000906565b601f198416620008af866200064b565b60005b82811015620008d957848901518255600182019150602085019450602081019050620008b2565b86831015620008f95784890151620008f5601f891682620007e9565b8355505b6001600288020188555050505b505050505050565b7f4e487b7100000000000000000000000000000000000000000000000000000000600052601160045260246000fd5b60006200094a82620006d3565b91507fffffffffffffffffffffffffffffffffffffffffffffffffffffffffffffffff82036200097f576200097e6200090e565b5b600182019050919050565b61388e806200099a6000396000f3fe6080604052600436106101d85760003560e01c806370a0823111610102578063a22cb46511610095578063d547741f11610064578063d547741f146106a0578063e8a3d485146106c9578063e985e9c5146106f4578063f2fde38b14610731576101d8565b8063a22cb46514610607578063b88d4fde14610630578063bd9b6d8614610659578063c87b56dd14610663576101d8565b80639137c1a7116100d15780639137c1a71461054b57806391d148541461057457806395d89b41146105b1578063a217fddf146105dc576101d8565b806370a082311461048d57806372c32860146104ca57806387a89ee6146104f55780638da5cb5b14610520576101d8565b8063248a9ca31161017a57806342842e0e1161014957806342842e0e146103d557806342966c68146103fe5780636352211e146104275780636a62784214610464576101d8565b8063248a9ca31461033c57806328c23a45146103795780632f2ff15d1461038357806336568abe146103ac576101d8565b8063095ea7b3116101b6578063095ea7b31461028257806313a69df9146102ab57806318160ddd146102e857806323b872dd14610313576101d8565b806301ffc9a7146101dd57806306fdde031461021a578063081812fc14610245575b600080fd5b3480156101e957600080fd5b5061020460048036038101906101ff91906129f4565b61074d565b6040516102119190612a3c565b60405180910390f35b34801561022657600080fd5b5061022f61075f565b60405161023c9190612af0565b60405180910390f35b34801561025157600080fd5b5061026c60048036038101906102679190612b48565b6107ed565b6040516102799190612bb6565b60405180910390f35b34801561028e57600080fd5b506102a960048036038101906102a49190612bfd565b610820565b005b3480156102b757600080fd5b506102d260048036038101906102cd9190612c3d565b610a04565b6040516102df9190612af0565b60405180910390f35b3480156102f457600080fd5b506102fd610bc5565b60405161030a9190612c79565b60405180910390f35b34801561031f57600080fd5b5061033a60048036038101906103359190612c94565b610bcf565b005b34801561034857600080fd5b50610363600480360381019061035e9190612d1d565b610bdf565b6040516103709190612d59565b60405180910390f35b610381610bff565b005b34801561038f57600080fd5b506103aa60048036038101906103a59190612d74565b610d08565b005b3480156103b857600080fd5b506103d360048036038101906103ce9190612d74565b610d29565b005b3480156103e157600080fd5b506103fc60048036038101906103f79190612c94565b610dac565b005b34801561040a57600080fd5b5061042560048036038101906104209190612b48565b610ed9565b005b34801561043357600080fd5b5061044e60048036038101906104499190612b48565b610f55565b60405161045b9190612bb6565b60405180910390f35b34801561047057600080fd5b5061048b60048036038101906104869190612c3d565b610fd6565b005b34801561049957600080fd5b506104b460048036038101906104af9190612c3d565b6110ad565b6040516104c19190612c79565b60405180910390f35b3480156104d657600080fd5b506104df61115b565b6040516104ec9190612d59565b60405180910390f35b34801561050157600080fd5b5061050a61117f565b6040516105179190612bb6565b60405180910390f35b34801561052c57600080fd5b506105356111a9565b6040516105429190612bb6565b60405180910390f35b34801561055757600080fd5b50610572600480360381019061056d9190612c3d565b6111cf565b005b34801561058057600080fd5b5061059b60048036038101906105969190612d74565b6112d1565b6040516105a89190612a3c565b60405180910390f35b3480156105bd57600080fd5b506105c661133c565b6040516105d39190612af0565b60405180910390f35b3480156105e857600080fd5b506105f16113ca565b6040516105fe9190612d59565b60405180910390f35b34801561061357600080fd5b5061062e60048036038101906106299190612de0565b6113d1565b005b34801561063c57600080fd5b5061065760048036038101906106529190612e85565b6114ce565b005b610661611601565b005b34801561066f57600080fd5b5061068a60048036038101906106859190612b48565b61181c565b6040516106979190612af0565b60405180910390f35b3480156106ac57600080fd5b506106c760048036038101906106c29190612d74565b6118dc565b005b3480156106d557600080fd5b506106de6118fd565b6040516106eb9190612af0565b60405180910390f35b34801561070057600080fd5b5061071b60048036038101906107169190612f0d565b61199a565b6040516107289190612a3c565b60405180910390f35b61074b60048036038101906107469190612c3d565b6119c9565b005b600061075882611aee565b9050919050565b6000805461076c90612f7c565b80601f016020809104026020016040519081016040528092919081815260200182805461079890612f7c565b80156107e55780601f106107ba576101008083540402835291602001916107e5565b820191906000526020600020905b8154815290600101906020018083116107c857829003601f168201915b505050505081565b60046020528060005260406000206000915054906101000a900473ffffffffffffffffffffffffffffffffffffffff1681565b60006002600083815260200190815260200160002060009054906101000a900473ffffffffffffffffffffffffffffffffffffffff1690508073ffffffffffffffffffffffffffffffffffffffff163373ffffffffffffffffffffffffffffffffffffffff161415801561091b5750600560008273ffffffffffffffffffffffffffffffffffffffff1673ffffffffffffffffffffffffffffffffffffffff16815260200190815260200160002060003373ffffffffffffffffffffffffffffffffffffffff1673ffffffffffffffffffffffffffffffffffffffff16815260200190815260200160002060009054906101000a900460ff16155b15610952576040517ffe822d7b00000000000000000000000000000000000000000000000000000000815260040160405180910390fd5b826004600084815260200190815260200160002060006101000a81548173ffffffffffffffffffffffffffffffffffffffff021916908373ffffffffffffffffffffffffffffffffffffffff160217905550818373ffffffffffffffffffffffffffffffffffffffff168273ffffffffffffffffffffffffffffffffffffffff167f8c5be1e5ebec7d5bd14f71427d1e84f3dd0314c0f7b2291e5b200ac8c7c3b92560405160405180910390a4505050565b60606000600960009054906101000a900473ffffffffffffffffffffffffffffffffffffffff1673ffffffffffffffffffffffffffffffffffffffff1663e82b14626000856040518363ffffffff1660e01b8152600401610a66929190612ff2565b600060405180830381865afa158015610a83573d6000803e3d6000fd5b505050506040513d6000823e3d601f19601f82011682018060405250810190610aac919061313c565b9050600960009054906101000a900473ffffffffffffffffffffffffffffffffffffffff1673ffffffffffffffffffffffffffffffffffffffff16639a17092a6040518163ffffffff1660e01b8152600401602060405180830381865afa158015610b1b573d6000803e3d6000fd5b505050506040513d601f19601f82011682018060405250810190610b3f919061319a565b73ffffffffffffffffffffffffffffffffffffffff1663316df61e826040518263ffffffff1660e01b8152600401610b77919061321c565b600060405180830381865afa158015610b94573d6000803e3d6000fd5b505050506040513d6000823e3d601f19601f82011682018060405250810190610bbd91906132df565b915050919050565b6000600854905090565b610bda838383611b68565b505050565b6000600a6000838152602001908152602001600020600101549050919050565b600660009054906101000a900473ffffffffffffffffffffffffffffffffffffffff1673ffffffffffffffffffffffffffffffffffffffff163373ffffffffffffffffffffffffffffffffffffffff1614610c86576040517f82b4290000000000000000000000000000000000000000000000000000000000815260040160405180910390fd5b600660006101000a81549073ffffffffffffffffffffffffffffffffffffffff0219169055600073ffffffffffffffffffffffffffffffffffffffff163373ffffffffffffffffffffffffffffffffffffffff167f8be0079c531659141344cd1fd0a4f28419497f9722a3daafe3b4186f6b6457e060405160405180910390a3565b610d1182610bdf565b610d1a81611f52565b610d248383611f66565b505050565b610d31612047565b73ffffffffffffffffffffffffffffffffffffffff168173ffffffffffffffffffffffffffffffffffffffff1614610d9e576040517f08c379a0000000000000000000000000000000000000000000000000000000008152600401610d959061339a565b60405180910390fd5b610da8828261204f565b5050565b610db7838383610bcf565b60008273ffffffffffffffffffffffffffffffffffffffff163b14610ed45763150b7a0260e01b7bffffffffffffffffffffffffffffffffffffffffffffffffffffffff19168273ffffffffffffffffffffffffffffffffffffffff1663150b7a023386856040518463ffffffff1660e01b8152600401610e3a939291906133e0565b6020604051808303816000875af1158015610e59573d6000803e3d6000fd5b505050506040513d601f19601f82011682018060405250810190610e7d919061343f565b7bffffffffffffffffffffffffffffffffffffffffffffffffffffffff191614610ed3576040517f3da6393100000000000000000000000000000000000000000000000000000000815260040160405180910390fd5b5b505050565b610f0a7fcfd53186d792f1ec9d0679afc2dc3ffc86fc31fe1e0f342b838eb6c3eade62b3610f05612047565b6112d1565b610f49576040517f08c379a0000000000000000000000000000000000000000000000000000000008152600401610f40906134b8565b60405180910390fd5b610f5281612131565b50565b6000806002600084815260200190815260200160002060009054906101000a900473ffffffffffffffffffffffffffffffffffffffff169050600073ffffffffffffffffffffffffffffffffffffffff168173ffffffffffffffffffffffffffffffffffffffff1603610fcc576000915050610fd1565b809150505b919050565b6110077fcfd53186d792f1ec9d0679afc2dc3ffc86fc31fe1e0f342b838eb6c3eade62b3611002612047565b6112d1565b611046576040517f08c379a000000000000000000000000000000000000000000000000000000000815260040161103d906134b8565b60405180910390fd5b60006008600081548092919060010191905055905080600b60008473ffffffffffffffffffffffffffffffffffffffff1673ffffffffffffffffffffffffffffffffffffffff168152602001908152602001600020819055506110a982826122eb565b5050565b60008073ffffffffffffffffffffffffffffffffffffffff168273ffffffffffffffffffffffffffffffffffffffff1603611114576040517fd92e233d00000000000000000000000000000000000000000000000000000000815260040160405180910390fd5b600360008373ffffffffffffffffffffffffffffffffffffffff1673ffffffffffffffffffffffffffffffffffffffff168152602001908152602001600020549050919050565b7fcfd53186d792f1ec9d0679afc2dc3ffc86fc31fe1e0f342b838eb6c3eade62b381565b6000600960009054906101000a900473ffffffffffffffffffffffffffffffffffffffff16905090565b600660009054906101000a900473ffffffffffffffffffffffffffffffffffffffff1681565b600660009054906101000a900473ffffffffffffffffffffffffffffffffffffffff1673ffffffffffffffffffffffffffffffffffffffff163373ffffffffffffffffffffffffffffffffffffffff1614611256576040517f82b4290000000000000000000000000000000000000000000000000000000000815260040160405180910390fd5b80600960006101000a81548173ffffffffffffffffffffffffffffffffffffffff021916908373ffffffffffffffffffffffffffffffffffffffff1602179055507fd833c7cea3bce2562e201bf7e85016d0bc1173580c719f63378cc5d0457552b6816040516112c69190612bb6565b60405180910390a150565b6000600a600084815260200190815260200160002060000160008373ffffffffffffffffffffffffffffffffffffffff1673ffffffffffffffffffffffffffffffffffffffff16815260200190815260200160002060009054906101000a900460ff16905092915050565b6001805461134990612f7c565b80601f016020809104026020016040519081016040528092919081815260200182805461137590612f7c565b80156113c25780601f10611397576101008083540402835291602001916113c2565b820191906000526020600020905b8154815290600101906020018083116113a557829003601f168201915b505050505081565b6000801b81565b80600560003373ffffffffffffffffffffffffffffffffffffffff1673ffffffffffffffffffffffffffffffffffffffff16815260200190815260200160002060008473ffffffffffffffffffffffffffffffffffffffff1673ffffffffffffffffffffffffffffffffffffffff16815260200190815260200160002060006101000a81548160ff0219169083151502179055508173ffffffffffffffffffffffffffffffffffffffff163373ffffffffffffffffffffffffffffffffffffffff167f17307eab39ab6107e8899845ad3d59bd9653f200f220920489ca2b5937696c31836040516114c29190612a3c565b60405180910390a35050565b6114d9858585610bcf565b60008473ffffffffffffffffffffffffffffffffffffffff163b146115fa5763150b7a0260e01b7bffffffffffffffffffffffffffffffffffffffffffffffffffffffff19168473ffffffffffffffffffffffffffffffffffffffff1663150b7a0233888787876040518663ffffffff1660e01b8152600401611560959493929190613514565b6020604051808303816000875af115801561157f573d6000803e3d6000fd5b505050506040513d601f19601f820116820180604052508101906115a3919061343f565b7bffffffffffffffffffffffffffffffffffffffffffffffffffffffff1916146115f9576040517f3da6393100000000000000000000000000000000000000000000000000000000815260040160405180910390fd5b5b5050505050565b600760149054906101000a900460ff161561177757600660009054906101000a900473ffffffffffffffffffffffffffffffffffffffff1673ffffffffffffffffffffffffffffffffffffffff163373ffffffffffffffffffffffffffffffffffffffff161461169d576040517f82b4290000000000000000000000000000000000000000000000000000000000815260040160405180910390fd5b600760146101000a81549060ff02191690556000600760009054906101000a900473ffffffffffffffffffffffffffffffffffffffff16905080600660006101000a81548173ffffffffffffffffffffffffffffffffffffffff021916908373ffffffffffffffffffffffffffffffffffffffff1602179055508073ffffffffffffffffffffffffffffffffffffffff163373ffffffffffffffffffffffffffffffffffffffff167f8be0079c531659141344cd1fd0a4f28419497f9722a3daafe3b4186f6b6457e060405160405180910390a35061181a565b600760009054906101000a900473ffffffffffffffffffffffffffffffffffffffff1673ffffffffffffffffffffffffffffffffffffffff163373ffffffffffffffffffffffffffffffffffffffff16146117fe576040517f82b4290000000000000000000000000000000000000000000000000000000000815260040160405180910390fd5b6001600760146101000a81548160ff0219169083151502179055505b565b606060008061182a846124eb565b91509150600960009054906101000a900473ffffffffffffffffffffffffffffffffffffffff1673ffffffffffffffffffffffffffffffffffffffff1663f06796168584846040518463ffffffff1660e01b815260040161188d93929190613562565b600060405180830381865afa1580156118aa573d6000803e3d6000fd5b505050506040513d6000823e3d601f19601f820116820180604052508101906118d391906132df565b92505050919050565b6118e582610bdf565b6118ee81611f52565b6118f8838361204f565b505050565b6060600960009054906101000a900473ffffffffffffffffffffffffffffffffffffffff1673ffffffffffffffffffffffffffffffffffffffff1663725fa09c6040518163ffffffff1660e01b8152600401600060405180830381865afa15801561196c573d6000803e3d6000fd5b505050506040513d6000823e3d601f19601f8201168201806040525081019061199591906132df565b905090565b60056020528160005260406000206020528060005260406000206000915091509054906101000a900460ff1681565b600660009054906101000a900473ffffffffffffffffffffffffffffffffffffffff1673ffffffffffffffffffffffffffffffffffffffff163373ffffffffffffffffffffffffffffffffffffffff1614611a50576040517f82b4290000000000000000000000000000000000000000000000000000000000815260040160405180910390fd5b80600760006101000a81548173ffffffffffffffffffffffffffffffffffffffff021916908373ffffffffffffffffffffffffffffffffffffffff1602179055508073ffffffffffffffffffffffffffffffffffffffff163373ffffffffffffffffffffffffffffffffffffffff167f365e8eca24e61548e99db9d948e4f9cf79224bcbf4fc81afe651e6e80921c87560405160405180910390a350565b60007f7965db0b000000000000000000000000000000000000000000000000000000007bffffffffffffffffffffffffffffffffffffffffffffffffffffffff1916827bffffffffffffffffffffffffffffffffffffffffffffffffffffffff19161480611b615750611b6082612645565b5b9050919050565b6002600082815260200190815260200160002060009054906101000a900473ffffffffffffffffffffffffffffffffffffffff1673ffffffffffffffffffffffffffffffffffffffff168373ffffffffffffffffffffffffffffffffffffffff1614611c00576040517fc6de3f2500000000000000000000000000000000000000000000000000000000815260040160405180910390fd5b600073ffffffffffffffffffffffffffffffffffffffff168273ffffffffffffffffffffffffffffffffffffffff1603611c66576040517f9c8d2cd200000000000000000000000000000000000000000000000000000000815260040160405180910390fd5b8273ffffffffffffffffffffffffffffffffffffffff163373ffffffffffffffffffffffffffffffffffffffff1614158015611d295750600560008473ffffffffffffffffffffffffffffffffffffffff1673ffffffffffffffffffffffffffffffffffffffff16815260200190815260200160002060003373ffffffffffffffffffffffffffffffffffffffff1673ffffffffffffffffffffffffffffffffffffffff16815260200190815260200160002060009054906101000a900460ff16155b8015611d9457506004600082815260200190815260200160002060009054906101000a900473ffffffffffffffffffffffffffffffffffffffff1673ffffffffffffffffffffffffffffffffffffffff163373ffffffffffffffffffffffffffffffffffffffff1614155b15611dcb576040517ffe822d7b00000000000000000000000000000000000000000000000000000000815260040160405180910390fd5b600360008473ffffffffffffffffffffffffffffffffffffffff1673ffffffffffffffffffffffffffffffffffffffff1681526020019081526020016000206000815480929190600190039190505550600360008373ffffffffffffffffffffffffffffffffffffffff1673ffffffffffffffffffffffffffffffffffffffff16815260200190815260200160002060008154809291906001019190505550816002600083815260200190815260200160002060006101000a81548173ffffffffffffffffffffffffffffffffffffffff021916908373ffffffffffffffffffffffffffffffffffffffff1602179055506004600082815260200190815260200160002060006101000a81549073ffffffffffffffffffffffffffffffffffffffff0219169055808273ffffffffffffffffffffffffffffffffffffffff168473ffffffffffffffffffffffffffffffffffffffff167fddf252ad1be2c89b69c2b068fc378daa952ba7f163c4a11628f55a4df523b3ef60405160405180910390a4505050565b611f6381611f5e612047565b6126af565b50565b611f7082826112d1565b612043576001600a600084815260200190815260200160002060000160008373ffffffffffffffffffffffffffffffffffffffff1673ffffffffffffffffffffffffffffffffffffffff16815260200190815260200160002060006101000a81548160ff021916908315150217905550611fe8612047565b73ffffffffffffffffffffffffffffffffffffffff168173ffffffffffffffffffffffffffffffffffffffff16837f2f8788117e7eff1d82e926ec794901d17c78024a50270940304540a733656f0d60405160405180910390a45b5050565b600033905090565b61205982826112d1565b1561212d576000600a600084815260200190815260200160002060000160008373ffffffffffffffffffffffffffffffffffffffff1673ffffffffffffffffffffffffffffffffffffffff16815260200190815260200160002060006101000a81548160ff0219169083151502179055506120d2612047565b73ffffffffffffffffffffffffffffffffffffffff168173ffffffffffffffffffffffffffffffffffffffff16837ff6391f5c32d9c69d2a47ea670b442974b53935d1edc7fd64eb21e047a839171b60405160405180910390a45b5050565b60006002600083815260200190815260200160002060009054906101000a900473ffffffffffffffffffffffffffffffffffffffff169050600073ffffffffffffffffffffffffffffffffffffffff168173ffffffffffffffffffffffffffffffffffffffff16036121cf576040517f4d5e5fb300000000000000000000000000000000000000000000000000000000815260040160405180910390fd5b600360008273ffffffffffffffffffffffffffffffffffffffff1673ffffffffffffffffffffffffffffffffffffffff16815260200190815260200160002060008154809291906001900391905055506002600083815260200190815260200160002060006101000a81549073ffffffffffffffffffffffffffffffffffffffff02191690556004600083815260200190815260200160002060006101000a81549073ffffffffffffffffffffffffffffffffffffffff021916905581600073ffffffffffffffffffffffffffffffffffffffff168273ffffffffffffffffffffffffffffffffffffffff167fddf252ad1be2c89b69c2b068fc378daa952ba7f163c4a11628f55a4df523b3ef60405160405180910390a45050565b600073ffffffffffffffffffffffffffffffffffffffff168273ffffffffffffffffffffffffffffffffffffffff1603612351576040517f9c8d2cd200000000000000000000000000000000000000000000000000000000815260040160405180910390fd5b600073ffffffffffffffffffffffffffffffffffffffff166002600083815260200190815260200160002060009054906101000a900473ffffffffffffffffffffffffffffffffffffffff1673ffffffffffffffffffffffffffffffffffffffff16146123ea576040517fddefae2800000000000000000000000000000000000000000000000000000000815260040160405180910390fd5b600360008373ffffffffffffffffffffffffffffffffffffffff1673ffffffffffffffffffffffffffffffffffffffff16815260200190815260200160002060008154809291906001019190505550816002600083815260200190815260200160002060006101000a81548173ffffffffffffffffffffffffffffffffffffffff021916908373ffffffffffffffffffffffffffffffffffffffff160217905550808273ffffffffffffffffffffffffffffffffffffffff16600073ffffffffffffffffffffffffffffffffffffffff167fddf252ad1be2c89b69c2b068fc378daa952ba7f163c4a11628f55a4df523b3ef60405160405180910390a45050565b6060806000600960009054906101000a900473ffffffffffffffffffffffffffffffffffffffff1673ffffffffffffffffffffffffffffffffffffffff16630976c517856040518263ffffffff1660e01b815260040161254b9190612c79565b600060405180830381865afa158015612568573d6000803e3d6000fd5b505050506040513d6000823e3d601f19601f82011682018060405250810190612591919061313c565b90506000600960009054906101000a900473ffffffffffffffffffffffffffffffffffffffff1673ffffffffffffffffffffffffffffffffffffffff16632d08d6b7866040518263ffffffff1660e01b81526004016125f09190612c79565b600060405180830381865afa15801561260d573d6000803e3d6000fd5b505050506040513d6000823e3d601f19601f82011682018060405250810190612636919061313c565b90508181935093505050915091565b60007f01ffc9a7000000000000000000000000000000000000000000000000000000007bffffffffffffffffffffffffffffffffffffffffffffffffffffffff1916827bffffffffffffffffffffffffffffffffffffffffffffffffffffffff1916149050919050565b6126b982826112d1565b612748576126de8173ffffffffffffffffffffffffffffffffffffffff16601461274c565b6126ec8360001c602061274c565b6040516020016126fd92919061367b565b6040516020818303038152906040526040517f08c379a000000000000000000000000000000000000000000000000000000000815260040161273f9190612af0565b60405180910390fd5b5050565b60606000600283600261275f91906136e4565b612769919061373e565b67ffffffffffffffff81111561278257612781613020565b5b6040519080825280601f01601f1916602001820160405280156127b45781602001600182028036833780820191505090505b5090507f3000000000000000000000000000000000000000000000000000000000000000816000815181106127ec576127eb613794565b5b60200101907effffffffffffffffffffffffffffffffffffffffffffffffffffffffffffff1916908160001a9053507f7800000000000000000000000000000000000000000000000000000000000000816001815181106128505761284f613794565b5b60200101907effffffffffffffffffffffffffffffffffffffffffffffffffffffffffffff1916908160001a9053506000600184600261289091906136e4565b61289a919061373e565b90505b600181111561293a577f3031323334353637383961626364656600000000000000000000000000000000600f8616601081106128dc576128db613794565b5b1a60f81b8282815181106128f3576128f2613794565b5b60200101907effffffffffffffffffffffffffffffffffffffffffffffffffffffffffffff1916908160001a905350600485901c945080612933906137c3565b905061289d565b506000841461297e576040517f08c379a000000000000000000000000000000000000000000000000000000000815260040161297590613838565b60405180910390fd5b8091505092915050565b6000604051905090565b600080fd5b600080fd5b60007fffffffff0000000000000000000000000000000000000000000000000000000082169050919050565b6129d18161299c565b81146129dc57600080fd5b50565b6000813590506129ee816129c8565b92915050565b600060208284031215612a0a57612a09612992565b5b6000612a18848285016129df565b91505092915050565b60008115159050919050565b612a3681612a21565b82525050565b6000602082019050612a516000830184612a2d565b92915050565b600081519050919050565b600082825260208201905092915050565b60005b83811015612a91578082015181840152602081019050612a76565b83811115612aa0576000848401525b50505050565b6000601f19601f8301169050919050565b6000612ac282612a57565b612acc8185612a62565b9350612adc818560208601612a73565b612ae581612aa6565b840191505092915050565b60006020820190508181036000830152612b0a8184612ab7565b905092915050565b6000819050919050565b612b2581612b12565b8114612b3057600080fd5b50565b600081359050612b4281612b1c565b92915050565b600060208284031215612b5e57612b5d612992565b5b6000612b6c84828501612b33565b91505092915050565b600073ffffffffffffffffffffffffffffffffffffffff82169050919050565b6000612ba082612b75565b9050919050565b612bb081612b95565b82525050565b6000602082019050612bcb6000830184612ba7565b92915050565b612bda81612b95565b8114612be557600080fd5b50565b600081359050612bf781612bd1565b92915050565b60008060408385031215612c1457612c13612992565b5b6000612c2285828601612be8565b9250506020612c3385828601612b33565b9150509250929050565b600060208284031215612c5357612c52612992565b5b6000612c6184828501612be8565b91505092915050565b612c7381612b12565b82525050565b6000602082019050612c8e6000830184612c6a565b92915050565b600080600060608486031215612cad57612cac612992565b5b6000612cbb86828701612be8565b9350506020612ccc86828701612be8565b9250506040612cdd86828701612b33565b9150509250925092565b6000819050919050565b612cfa81612ce7565b8114612d0557600080fd5b50565b600081359050612d1781612cf1565b92915050565b600060208284031215612d3357612d32612992565b5b6000612d4184828501612d08565b91505092915050565b612d5381612ce7565b82525050565b6000602082019050612d6e6000830184612d4a565b92915050565b60008060408385031215612d8b57612d8a612992565b5b6000612d9985828601612d08565b9250506020612daa85828601612be8565b9150509250929050565b612dbd81612a21565b8114612dc857600080fd5b50565b600081359050612dda81612db4565b92915050565b60008060408385031215612df757612df6612992565b5b6000612e0585828601612be8565b9250506020612e1685828601612dcb565b9150509250929050565b600080fd5b600080fd5b600080fd5b60008083601f840112612e4557612e44612e20565b5b8235905067ffffffffffffffff811115612e6257612e61612e25565b5b602083019150836001820283011115612e7e57612e7d612e2a565b5b9250929050565b600080600080600060808688031215612ea157612ea0612992565b5b6000612eaf88828901612be8565b9550506020612ec088828901612be8565b9450506040612ed188828901612b33565b935050606086013567ffffffffffffffff811115612ef257612ef1612997565b5b612efe88828901612e2f565b92509250509295509295909350565b60008060408385031215612f2457612f23612992565b5b6000612f3285828601612be8565b9250506020612f4385828601612be8565b9150509250929050565b7f4e487b7100000000000000000000000000000000000000000000000000000000600052602260045260246000fd5b60006002820490506001821680612f9457607f821691505b602082108103612fa757612fa6612f4d565b5b50919050565b6000819050919050565b6000819050919050565b6000612fdc612fd7612fd284612fad565b612fb7565b612b12565b9050919050565b612fec81612fc1565b82525050565b60006040820190506130076000830185612fe3565b6130146020830184612ba7565b9392505050565b600080fd5b7f4e487b7100000000000000000000000000000000000000000000000000000000600052604160045260246000fd5b61305882612aa6565b810181811067ffffffffffffffff8211171561307757613076613020565b5b80604052505050565b600061308a612988565b9050613096828261304f565b919050565b600067ffffffffffffffff8211156130b6576130b5613020565b5b6130bf82612aa6565b9050602081019050919050565b60006130df6130da8461309b565b613080565b9050828152602081018484840111156130fb576130fa61301b565b5b613106848285612a73565b509392505050565b600082601f83011261312357613122612e20565b5b81516131338482602086016130cc565b91505092915050565b60006020828403121561315257613151612992565b5b600082015167ffffffffffffffff8111156131705761316f612997565b5b61317c8482850161310e565b91505092915050565b60008151905061319481612bd1565b92915050565b6000602082840312156131b0576131af612992565b5b60006131be84828501613185565b91505092915050565b600081519050919050565b600082825260208201905092915050565b60006131ee826131c7565b6131f881856131d2565b9350613208818560208601612a73565b61321181612aa6565b840191505092915050565b6000602082019050818103600083015261323681846131e3565b905092915050565b600067ffffffffffffffff82111561325957613258613020565b5b61326282612aa6565b9050602081019050919050565b600061328261327d8461323e565b613080565b90508281526020810184848401111561329e5761329d61301b565b5b6132a9848285612a73565b509392505050565b600082601f8301126132c6576132c5612e20565b5b81516132d684826020860161326f565b91505092915050565b6000602082840312156132f5576132f4612992565b5b600082015167ffffffffffffffff81111561331357613312612997565b5b61331f848285016132b1565b91505092915050565b7f416363657373436f6e74726f6c3a2063616e206f6e6c792072656e6f756e636560008201527f20726f6c657320666f722073656c660000000000000000000000000000000000602082015250565b6000613384602f83612a62565b915061338f82613328565b604082019050919050565b600060208201905081810360008301526133b381613377565b9050919050565b50565b60006133ca6000836131d2565b91506133d5826133ba565b600082019050919050565b60006080820190506133f56000830186612ba7565b6134026020830185612ba7565b61340f6040830184612c6a565b8181036060830152613420816133bd565b9050949350505050565b600081519050613439816129c8565b92915050565b60006020828403121561345557613454612992565b5b60006134638482850161342a565b91505092915050565b7f57656233436172643a756e617574686f72697a65640000000000000000000000600082015250565b60006134a2601583612a62565b91506134ad8261346c565b602082019050919050565b600060208201905081810360008301526134d181613495565b9050919050565b82818337600083830152505050565b60006134f383856131d2565b93506135008385846134d8565b61350983612aa6565b840190509392505050565b60006080820190506135296000830188612ba7565b6135366020830187612ba7565b6135436040830186612c6a565b81810360608301526135568184866134e7565b90509695505050505050565b60006060820190506135776000830186612c6a565b818103602083015261358981856131e3565b9050818103604083015261359d81846131e3565b9050949350505050565b600081905092915050565b7f416363657373436f6e74726f6c3a206163636f756e7420000000000000000000600082015250565b60006135e86017836135a7565b91506135f3826135b2565b601782019050919050565b600061360982612a57565b61361381856135a7565b9350613623818560208601612a73565b80840191505092915050565b7f206973206d697373696e6720726f6c6520000000000000000000000000000000600082015250565b60006136656011836135a7565b91506136708261362f565b601182019050919050565b6000613686826135db565b915061369282856135fe565b915061369d82613658565b91506136a982846135fe565b91508190509392505050565b7f4e487b7100000000000000000000000000000000000000000000000000000000600052601160045260246000fd5b60006136ef82612b12565b91506136fa83612b12565b9250817fffffffffffffffffffffffffffffffffffffffffffffffffffffffffffffffff0483118215151615613733576137326136b5565b5b828202905092915050565b600061374982612b12565b915061375483612b12565b9250827fffffffffffffffffffffffffffffffffffffffffffffffffffffffffffffffff03821115613789576137886136b5565b5b828201905092915050565b7f4e487b7100000000000000000000000000000000000000000000000000000000600052603260045260246000fd5b60006137ce82612b12565b9150600082036137e1576137e06136b5565b5b600182039050919050565b7f537472696e67733a20686578206c656e67746820696e73756666696369656e74600082015250565b6000613822602083612a62565b915061382d826137ec565b602082019050919050565b6000602082019050818103600083015261385181613815565b905091905056fea264697066735822122009a70c1ffe76c25bba7b2af8cf02ea34dca39928730c868861b1b85f04aa4e2264736f6c634300080f0033",
  "devdoc": {
    "kind": "dev",
    "methods": {
      "burn(uint256)": {
        "params": {
          "tokenId": "uint256 - Token ID to burn"
        }
      },
      "getRoleAdmin(bytes32)": {
        "details": "Returns the admin role that controls `role`. See {grantRole} and {revokeRole}. To change a role's admin, use {_setRoleAdmin}."
      },
      "grantRole(bytes32,address)": {
        "details": "Grants `role` to `account`. If `account` had not been already granted `role`, emits a {RoleGranted} event. Requirements: - the caller must have ``role``'s admin role. May emit a {RoleGranted} event."
      },
      "hasRole(bytes32,address)": {
        "details": "Returns `true` if `account` has been granted `role`."
      },
      "mint(address)": {
        "params": {
          "to": "address - Address to mint to`"
        }
      },
      "renounceRole(bytes32,address)": {
        "details": "Revokes `role` from the calling account. Roles are often managed via {grantRole} and {revokeRole}: this function's purpose is to provide a mechanism for accounts to lose their privileges if they are compromised (such as when a trusted device is misplaced). If the calling account had been revoked `role`, emits a {RoleRevoked} event. Requirements: - the caller must be `account`. May emit a {RoleRevoked} event."
      },
      "revokeRole(bytes32,address)": {
        "details": "Revokes `role` from `account`. If `account` had been granted `role`, emits a {RoleRevoked} event. Requirements: - the caller must have ``role``'s admin role. May emit a {RoleRevoked} event."
      },
      "transferOwnership(address)": {
        "params": {
          "newOwner": "The `_ownerCandidate` that will `confirmOwner()`."
        }
      }
    },
    "version": 1
  },
  "userdoc": {
    "errors": {
      "NotMinted()": [
        {
          "notice": "----------------------------------------------------------------------- Custom Errors -----------------------------------------------------------------------"
        }
      ],
      "Unauthorized()": [
        {
          "notice": "----------------------------------------------------------------------- Custom Errors -----------------------------------------------------------------------"
        }
      ]
    },
    "events": {
      "OwnerUpdateInitiated(address,address)": {
        "notice": "----------------------------------------------------------------------- Events -----------------------------------------------------------------------"
      },
      "Transfer(address,address,uint256)": {
        "notice": "----------------------------------------------------------------------- Events -----------------------------------------------------------------------"
      }
    },
    "kind": "user",
    "methods": {
      "approve(address,uint256)": {
        "notice": "----------------------------------------------------------------------- ERC721 Logic -----------------------------------------------------------------------"
      },
      "burn(uint256)": {
        "notice": "Burns a token"
      },
      "confirmOwner()": {
        "notice": "Confirm ownership between `owner` and `_ownerCandidate`."
      },
      "getApproved(uint256)": {
        "notice": "----------------------------------------------------------------------- ERC721 Approval Storage -----------------------------------------------------------------------"
      },
      "mint(address)": {
        "notice": "Mints a new token to the given address"
      },
      "name()": {
        "notice": "----------------------------------------------------------------------- Metadata Storage/Logic -----------------------------------------------------------------------"
      },
      "owner()": {
        "notice": "----------------------------------------------------------------------- Ownership Storage -----------------------------------------------------------------------"
      },
      "renounceOwner()": {
        "notice": "Terminate ownership by `owner`."
      },
      "transferOwnership(address)": {
        "notice": "Initiate ownership transfer."
      }
    },
    "version": 1
  },
  "storageLayout": {
    "storage": [
      {
        "astId": 8087,
        "contract": "contracts/Web3Card.sol:Web3Card",
        "label": "name",
        "offset": 0,
        "slot": "0",
        "type": "t_string_storage"
      },
      {
        "astId": 8089,
        "contract": "contracts/Web3Card.sol:Web3Card",
        "label": "symbol",
        "offset": 0,
        "slot": "1",
        "type": "t_string_storage"
      },
      {
        "astId": 8101,
        "contract": "contracts/Web3Card.sol:Web3Card",
        "label": "_ownerOf",
        "offset": 0,
        "slot": "2",
        "type": "t_mapping(t_uint256,t_address)"
      },
      {
        "astId": 8105,
        "contract": "contracts/Web3Card.sol:Web3Card",
        "label": "_balanceOf",
        "offset": 0,
        "slot": "3",
        "type": "t_mapping(t_address,t_uint256)"
      },
      {
        "astId": 8155,
        "contract": "contracts/Web3Card.sol:Web3Card",
        "label": "getApproved",
        "offset": 0,
        "slot": "4",
        "type": "t_mapping(t_uint256,t_address)"
      },
      {
        "astId": 8161,
        "contract": "contracts/Web3Card.sol:Web3Card",
        "label": "isApprovedForAll",
        "offset": 0,
        "slot": "5",
        "type": "t_mapping(t_address,t_mapping(t_address,t_bool))"
      },
      {
        "astId": 7921,
        "contract": "contracts/Web3Card.sol:Web3Card",
        "label": "owner",
        "offset": 0,
        "slot": "6",
        "type": "t_address"
      },
      {
        "astId": 7923,
        "contract": "contracts/Web3Card.sol:Web3Card",
        "label": "_ownerCandidate",
        "offset": 0,
        "slot": "7",
        "type": "t_address"
      },
      {
        "astId": 7925,
        "contract": "contracts/Web3Card.sol:Web3Card",
        "label": "_ownerCandidateConfirmed",
        "offset": 20,
        "slot": "7",
        "type": "t_bool"
      },
      {
        "astId": 15,
        "contract": "contracts/Web3Card.sol:Web3Card",
        "label": "_idCounter",
        "offset": 0,
        "slot": "8",
        "type": "t_uint256"
      },
      {
        "astId": 18,
        "contract": "contracts/Web3Card.sol:Web3Card",
        "label": "_erc721Storage",
        "offset": 0,
        "slot": "9",
        "type": "t_address"
      },
      {
        "astId": 2166,
        "contract": "contracts/Web3Card.sol:Web3Card",
        "label": "_roles",
        "offset": 0,
        "slot": "10",
        "type": "t_mapping(t_bytes32,t_struct(RoleData)2161_storage)"
      },
      {
        "astId": 15590,
        "contract": "contracts/Web3Card.sol:Web3Card",
        "label": "_tokenOwners",
        "offset": 0,
        "slot": "11",
        "type": "t_mapping(t_address,t_uint256)"
      }
    ],
    "types": {
      "t_address": {
        "encoding": "inplace",
        "label": "address",
        "numberOfBytes": "20"
      },
      "t_bool": {
        "encoding": "inplace",
        "label": "bool",
        "numberOfBytes": "1"
      },
      "t_bytes32": {
        "encoding": "inplace",
        "label": "bytes32",
        "numberOfBytes": "32"
      },
      "t_mapping(t_address,t_bool)": {
        "encoding": "mapping",
        "key": "t_address",
        "label": "mapping(address => bool)",
        "numberOfBytes": "32",
        "value": "t_bool"
      },
      "t_mapping(t_address,t_mapping(t_address,t_bool))": {
        "encoding": "mapping",
        "key": "t_address",
        "label": "mapping(address => mapping(address => bool))",
        "numberOfBytes": "32",
        "value": "t_mapping(t_address,t_bool)"
      },
      "t_mapping(t_address,t_uint256)": {
        "encoding": "mapping",
        "key": "t_address",
        "label": "mapping(address => uint256)",
        "numberOfBytes": "32",
        "value": "t_uint256"
      },
      "t_mapping(t_bytes32,t_struct(RoleData)2161_storage)": {
        "encoding": "mapping",
        "key": "t_bytes32",
        "label": "mapping(bytes32 => struct AccessControl.RoleData)",
        "numberOfBytes": "32",
        "value": "t_struct(RoleData)2161_storage"
      },
      "t_mapping(t_uint256,t_address)": {
        "encoding": "mapping",
        "key": "t_uint256",
        "label": "mapping(uint256 => address)",
        "numberOfBytes": "32",
        "value": "t_address"
      },
      "t_string_storage": {
        "encoding": "bytes",
        "label": "string",
        "numberOfBytes": "32"
      },
      "t_struct(RoleData)2161_storage": {
        "encoding": "inplace",
        "label": "struct AccessControl.RoleData",
        "members": [
          {
            "astId": 2158,
            "contract": "contracts/Web3Card.sol:Web3Card",
            "label": "members",
            "offset": 0,
            "slot": "0",
            "type": "t_mapping(t_address,t_bool)"
          },
          {
            "astId": 2160,
            "contract": "contracts/Web3Card.sol:Web3Card",
            "label": "adminRole",
            "offset": 0,
            "slot": "1",
            "type": "t_bytes32"
          }
        ],
        "numberOfBytes": "64"
      },
      "t_uint256": {
        "encoding": "inplace",
        "label": "uint256",
        "numberOfBytes": "32"
      }
    }
  }
}