{
  "_format": "hh-sol-artifact-1",
  "contractName": "Web3Assets",
  "sourceName": "@web3-savings-cards/core-sol/contracts/Web3Assets.sol",
  "abi": [
    {
      "inputs": [
        {
          "internalType": "address",
          "name": "_owner",
          "type": "address"
        }
      ],
      "stateMutability": "nonpayable",
      "type": "constructor"
    },
    {
      "inputs": [],
      "name": "Unauthorized",
      "type": "error"
    },
    {
      "anonymous": false,
      "inputs": [
        {
          "indexed": true,
          "internalType": "address",
          "name": "user",
          "type": "address"
        },
        {
          "indexed": true,
          "internalType": "address",
          "name": "ownerCandidate",
          "type": "address"
        }
      ],
      "name": "OwnerUpdateInitiated",
      "type": "event"
    },
    {
      "anonymous": false,
      "inputs": [
        {
          "indexed": true,
          "internalType": "address",
          "name": "user",
          "type": "address"
        },
        {
          "indexed": true,
          "internalType": "address",
          "name": "newOwner",
          "type": "address"
        }
      ],
      "name": "OwnershipTransferred",
      "type": "event"
    },
    {
      "inputs": [],
      "name": "confirmOwner",
      "outputs": [],
      "stateMutability": "payable",
      "type": "function"
    },
    {
      "inputs": [
        {
          "internalType": "bytes",
          "name": "input",
          "type": "bytes"
        }
      ],
      "name": "decode",
      "outputs": [
        {
          "internalType": "string",
          "name": "",
          "type": "string"
        }
      ],
      "stateMutability": "view",
      "type": "function"
    },
    {
      "inputs": [
        {
          "internalType": "bytes32",
          "name": "position",
          "type": "bytes32"
        }
      ],
      "name": "get",
      "outputs": [
        {
          "internalType": "string",
          "name": "",
          "type": "string"
        }
      ],
      "stateMutability": "view",
      "type": "function"
    },
    {
      "inputs": [],
      "name": "getEncoding",
      "outputs": [
        {
          "internalType": "string",
          "name": "",
          "type": "string"
        }
      ],
      "stateMutability": "view",
      "type": "function"
    },
    {
      "inputs": [],
      "name": "owner",
      "outputs": [
        {
          "internalType": "address",
          "name": "",
          "type": "address"
        }
      ],
      "stateMutability": "view",
      "type": "function"
    },
    {
      "inputs": [],
      "name": "renounceOwner",
      "outputs": [],
      "stateMutability": "payable",
      "type": "function"
    },
    {
      "inputs": [
        {
          "internalType": "bytes32",
          "name": "position",
          "type": "bytes32"
        },
        {
          "internalType": "string",
          "name": "svg",
          "type": "string"
        }
      ],
      "name": "set",
      "outputs": [],
      "stateMutability": "nonpayable",
      "type": "function"
    },
    {
      "inputs": [
        {
          "internalType": "address",
          "name": "newOwner",
          "type": "address"
        }
      ],
      "name": "transferOwnership",
      "outputs": [],
      "stateMutability": "payable",
      "type": "function"
    }
  ],
  "bytecode": "0x60806040526040518060400160405280600e81526020017f2875696e74382c2075696e743829000000000000000000000000000000000000815250600290816200004a91906200039c565b503480156200005857600080fd5b506040516200159d3803806200159d83398181016040528101906200007e9190620004ed565b80806000806101000a81548173ffffffffffffffffffffffffffffffffffffffff021916908373ffffffffffffffffffffffffffffffffffffffff1602179055508073ffffffffffffffffffffffffffffffffffffffff16600073ffffffffffffffffffffffffffffffffffffffff167f8be0079c531659141344cd1fd0a4f28419497f9722a3daafe3b4186f6b6457e060405160405180910390a350506200051f565b600081519050919050565b7f4e487b7100000000000000000000000000000000000000000000000000000000600052604160045260246000fd5b7f4e487b7100000000000000000000000000000000000000000000000000000000600052602260045260246000fd5b60006002820490506001821680620001a457607f821691505b602082108103620001ba57620001b96200015c565b5b50919050565b60008190508160005260206000209050919050565b60006020601f8301049050919050565b600082821b905092915050565b600060088302620002247fffffffffffffffffffffffffffffffffffffffffffffffffffffffffffffffff82620001e5565b620002308683620001e5565b95508019841693508086168417925050509392505050565b6000819050919050565b6000819050919050565b60006200027d62000277620002718462000248565b62000252565b62000248565b9050919050565b6000819050919050565b62000299836200025c565b620002b1620002a88262000284565b848454620001f2565b825550505050565b600090565b620002c8620002b9565b620002d58184846200028e565b505050565b5b81811015620002fd57620002f1600082620002be565b600181019050620002db565b5050565b601f8211156200034c576200031681620001c0565b6200032184620001d5565b8101602085101562000331578190505b620003496200034085620001d5565b830182620002da565b50505b505050565b600082821c905092915050565b6000620003716000198460080262000351565b1980831691505092915050565b60006200038c83836200035e565b9150826002028217905092915050565b620003a78262000122565b67ffffffffffffffff811115620003c357620003c26200012d565b5b620003cf82546200018b565b620003dc82828562000301565b600060209050601f831160018114620004145760008415620003ff578287015190505b6200040b85826200037e565b8655506200047b565b601f1984166200042486620001c0565b60005b828110156200044e5784890151825560018201915060208501945060208101905062000427565b868310156200046e57848901516200046a601f8916826200035e565b8355505b6001600288020188555050505b505050505050565b600080fd5b600073ffffffffffffffffffffffffffffffffffffffff82169050919050565b6000620004b58262000488565b9050919050565b620004c781620004a8565b8114620004d357600080fd5b50565b600081519050620004e781620004bc565b92915050565b60006020828403121562000506576200050562000483565b5b60006200051684828501620004d6565b91505092915050565b61106e806200052f6000396000f3fe60806040526004361061007b5760003560e01c8063b48000331161004e578063b48000331461011d578063bd9b6d8614610146578063e5c5e9a314610150578063f2fde38b1461018d5761007b565b806328c23a45146100805780638da5cb5b1461008a5780638eaa6ac0146100b5578063b1cd921f146100f2575b600080fd5b6100886101a9565b005b34801561009657600080fd5b5061009f6102af565b6040516100ac91906108ed565b60405180910390f35b3480156100c157600080fd5b506100dc60048036038101906100d79190610952565b6102d3565b6040516100e99190610a18565b60405180910390f35b3480156100fe57600080fd5b50610107610378565b6040516101149190610a18565b60405180910390f35b34801561012957600080fd5b50610144600480360381019061013f9190610b6f565b61040a565b005b61014e6104b4565b005b34801561015c57600080fd5b5061017760048036038101906101729190610c6c565b6106cb565b6040516101849190610a18565b60405180910390f35b6101a760048036038101906101a29190610ce1565b610789565b005b60008054906101000a900473ffffffffffffffffffffffffffffffffffffffff1673ffffffffffffffffffffffffffffffffffffffff163373ffffffffffffffffffffffffffffffffffffffff161461022e576040517f82b4290000000000000000000000000000000000000000000000000000000000815260040160405180910390fd5b6000806101000a81549073ffffffffffffffffffffffffffffffffffffffff0219169055600073ffffffffffffffffffffffffffffffffffffffff163373ffffffffffffffffffffffffffffffffffffffff167f8be0079c531659141344cd1fd0a4f28419497f9722a3daafe3b4186f6b6457e060405160405180910390a3565b60008054906101000a900473ffffffffffffffffffffffffffffffffffffffff1681565b60606003600083815260200190815260200160002080546102f390610d3d565b80601f016020809104026020016040519081016040528092919081815260200182805461031f90610d3d565b801561036c5780601f106103415761010080835404028352916020019161036c565b820191906000526020600020905b81548152906001019060200180831161034f57829003601f168201915b50505050509050919050565b60606002805461038790610d3d565b80601f01602080910402602001604051908101604052809291908181526020018280546103b390610d3d565b80156104005780601f106103d557610100808354040283529160200191610400565b820191906000526020600020905b8154815290600101906020018083116103e357829003601f168201915b5050505050905090565b60008054906101000a900473ffffffffffffffffffffffffffffffffffffffff1673ffffffffffffffffffffffffffffffffffffffff163373ffffffffffffffffffffffffffffffffffffffff161461048f576040517f82b4290000000000000000000000000000000000000000000000000000000000815260040160405180910390fd5b806003600084815260200190815260200160002090816104af9190610f24565b505050565b600160149054906101000a900460ff16156106275760008054906101000a900473ffffffffffffffffffffffffffffffffffffffff1673ffffffffffffffffffffffffffffffffffffffff163373ffffffffffffffffffffffffffffffffffffffff161461054e576040517f82b4290000000000000000000000000000000000000000000000000000000000815260040160405180910390fd5b600160146101000a81549060ff02191690556000600160009054906101000a900473ffffffffffffffffffffffffffffffffffffffff169050806000806101000a81548173ffffffffffffffffffffffffffffffffffffffff021916908373ffffffffffffffffffffffffffffffffffffffff1602179055508073ffffffffffffffffffffffffffffffffffffffff163373ffffffffffffffffffffffffffffffffffffffff167f8be0079c531659141344cd1fd0a4f28419497f9722a3daafe3b4186f6b6457e060405160405180910390a3506106c9565b600160009054906101000a900473ffffffffffffffffffffffffffffffffffffffff1673ffffffffffffffffffffffffffffffffffffffff163373ffffffffffffffffffffffffffffffffffffffff16146106ae576040517f82b4290000000000000000000000000000000000000000000000000000000000815260040160405180910390fd5b60018060146101000a81548160ff0219169083151502179055505b565b60606000828060200190518101906106e3919061100b565b905060036000828152602001908152602001600020805461070390610d3d565b80601f016020809104026020016040519081016040528092919081815260200182805461072f90610d3d565b801561077c5780601f106107515761010080835404028352916020019161077c565b820191906000526020600020905b81548152906001019060200180831161075f57829003601f168201915b5050505050915050919050565b60008054906101000a900473ffffffffffffffffffffffffffffffffffffffff1673ffffffffffffffffffffffffffffffffffffffff163373ffffffffffffffffffffffffffffffffffffffff161461080e576040517f82b4290000000000000000000000000000000000000000000000000000000000815260040160405180910390fd5b80600160006101000a81548173ffffffffffffffffffffffffffffffffffffffff021916908373ffffffffffffffffffffffffffffffffffffffff1602179055508073ffffffffffffffffffffffffffffffffffffffff163373ffffffffffffffffffffffffffffffffffffffff167f365e8eca24e61548e99db9d948e4f9cf79224bcbf4fc81afe651e6e80921c87560405160405180910390a350565b600073ffffffffffffffffffffffffffffffffffffffff82169050919050565b60006108d7826108ac565b9050919050565b6108e7816108cc565b82525050565b600060208201905061090260008301846108de565b92915050565b6000604051905090565b600080fd5b600080fd5b6000819050919050565b61092f8161091c565b811461093a57600080fd5b50565b60008135905061094c81610926565b92915050565b60006020828403121561096857610967610912565b5b60006109768482850161093d565b91505092915050565b600081519050919050565b600082825260208201905092915050565b60005b838110156109b957808201518184015260208101905061099e565b838111156109c8576000848401525b50505050565b6000601f19601f8301169050919050565b60006109ea8261097f565b6109f4818561098a565b9350610a0481856020860161099b565b610a0d816109ce565b840191505092915050565b60006020820190508181036000830152610a3281846109df565b905092915050565b600080fd5b600080fd5b7f4e487b7100000000000000000000000000000000000000000000000000000000600052604160045260246000fd5b610a7c826109ce565b810181811067ffffffffffffffff82111715610a9b57610a9a610a44565b5b80604052505050565b6000610aae610908565b9050610aba8282610a73565b919050565b600067ffffffffffffffff821115610ada57610ad9610a44565b5b610ae3826109ce565b9050602081019050919050565b82818337600083830152505050565b6000610b12610b0d84610abf565b610aa4565b905082815260208101848484011115610b2e57610b2d610a3f565b5b610b39848285610af0565b509392505050565b600082601f830112610b5657610b55610a3a565b5b8135610b66848260208601610aff565b91505092915050565b60008060408385031215610b8657610b85610912565b5b6000610b948582860161093d565b925050602083013567ffffffffffffffff811115610bb557610bb4610917565b5b610bc185828601610b41565b9150509250929050565b600067ffffffffffffffff821115610be657610be5610a44565b5b610bef826109ce565b9050602081019050919050565b6000610c0f610c0a84610bcb565b610aa4565b905082815260208101848484011115610c2b57610c2a610a3f565b5b610c36848285610af0565b509392505050565b600082601f830112610c5357610c52610a3a565b5b8135610c63848260208601610bfc565b91505092915050565b600060208284031215610c8257610c81610912565b5b600082013567ffffffffffffffff811115610ca057610c9f610917565b5b610cac84828501610c3e565b91505092915050565b610cbe816108cc565b8114610cc957600080fd5b50565b600081359050610cdb81610cb5565b92915050565b600060208284031215610cf757610cf6610912565b5b6000610d0584828501610ccc565b91505092915050565b7f4e487b7100000000000000000000000000000000000000000000000000000000600052602260045260246000fd5b60006002820490506001821680610d5557607f821691505b602082108103610d6857610d67610d0e565b5b50919050565b60008190508160005260206000209050919050565b60006020601f8301049050919050565b600082821b905092915050565b600060088302610dd07fffffffffffffffffffffffffffffffffffffffffffffffffffffffffffffffff82610d93565b610dda8683610d93565b95508019841693508086168417925050509392505050565b6000819050919050565b6000819050919050565b6000610e21610e1c610e1784610df2565b610dfc565b610df2565b9050919050565b6000819050919050565b610e3b83610e06565b610e4f610e4782610e28565b848454610da0565b825550505050565b600090565b610e64610e57565b610e6f818484610e32565b505050565b5b81811015610e9357610e88600082610e5c565b600181019050610e75565b5050565b601f821115610ed857610ea981610d6e565b610eb284610d83565b81016020851015610ec1578190505b610ed5610ecd85610d83565b830182610e74565b50505b505050565b600082821c905092915050565b6000610efb60001984600802610edd565b1980831691505092915050565b6000610f148383610eea565b9150826002028217905092915050565b610f2d8261097f565b67ffffffffffffffff811115610f4657610f45610a44565b5b610f508254610d3d565b610f5b828285610e97565b600060209050601f831160018114610f8e5760008415610f7c578287015190505b610f868582610f08565b865550610fee565b601f198416610f9c86610d6e565b60005b82811015610fc457848901518255600182019150602085019450602081019050610f9f565b86831015610fe15784890151610fdd601f891682610eea565b8355505b6001600288020188555050505b505050505050565b60008151905061100581610926565b92915050565b60006020828403121561102157611020610912565b5b600061102f84828501610ff6565b9150509291505056fea26469706673582212203972446b6d88399968b996314f52a935d909c75fbe2f95b109267531d67f163964736f6c634300080f0033",
  "linkReferences": {},
  "deployedLinkReferences": {}
}