{
  "address": "0x5f326957caA591294A492aE05c7067136a821a9C",
  "abi": [
    {
      "inputs": [
        {
          "internalType": "address",
          "name": "svgLibrary_",
          "type": "address"
        },
        {
          "internalType": "address",
          "name": "svgRegistry_",
          "type": "address"
        }
      ],
      "stateMutability": "nonpayable",
      "type": "constructor"
    },
    {
      "anonymous": false,
      "inputs": [
        {
          "indexed": true,
          "internalType": "address",
          "name": "previousOwner",
          "type": "address"
        },
        {
          "indexed": true,
          "internalType": "address",
          "name": "newOwner",
          "type": "address"
        }
      ],
      "name": "OwnershipTransferred",
      "type": "event"
    },
    {
      "inputs": [],
      "name": "owner",
      "outputs": [
        {
          "internalType": "address",
          "name": "",
          "type": "address"
        }
      ],
      "stateMutability": "view",
      "type": "function"
    },
    {
      "inputs": [
        {
          "internalType": "bytes",
          "name": "input",
          "type": "bytes"
        }
      ],
      "name": "render",
      "outputs": [
        {
          "internalType": "string",
          "name": "",
          "type": "string"
        }
      ],
      "stateMutability": "view",
      "type": "function"
    },
    {
      "inputs": [],
      "name": "renounceOwnership",
      "outputs": [],
      "stateMutability": "nonpayable",
      "type": "function"
    },
    {
      "inputs": [],
      "name": "svgLibrary",
      "outputs": [
        {
          "internalType": "address",
          "name": "",
          "type": "address"
        }
      ],
      "stateMutability": "view",
      "type": "function"
    },
    {
      "inputs": [],
      "name": "svgRegistry",
      "outputs": [
        {
          "internalType": "address",
          "name": "",
          "type": "address"
        }
      ],
      "stateMutability": "view",
      "type": "function"
    },
    {
      "inputs": [
        {
          "internalType": "address",
          "name": "newOwner",
          "type": "address"
        }
      ],
      "name": "transferOwnership",
      "outputs": [],
      "stateMutability": "nonpayable",
      "type": "function"
    }
  ],
  "transactionHash": "0xa15939ae3dbab3c9bebc0ce08ed845bb963b8480333af095b35467eb5b5e8a05",
  "args": [
    "0xE22E9dCc5B84FF0AfF256A811274A5386Eb86700",
    "0x45AC510BA7A62Ed55dD43F4D7ef57D8DF4beCEd0"
  ],
  "numDeployments": 1,
  "solcInputHash": "edda6d6cec21d85ff915e4534e9ab164",
  "bytecode": "0x60806040523480156200001157600080fd5b506040516200485c3803806200485c833981810160405281019062000037919062000217565b620000576200004b620000e160201b60201c565b620000e960201b60201c565b81600160006101000a81548173ffffffffffffffffffffffffffffffffffffffff021916908373ffffffffffffffffffffffffffffffffffffffff16021790555080600260006101000a81548173ffffffffffffffffffffffffffffffffffffffff021916908373ffffffffffffffffffffffffffffffffffffffff16021790555050506200025e565b600033905090565b60008060009054906101000a900473ffffffffffffffffffffffffffffffffffffffff169050816000806101000a81548173ffffffffffffffffffffffffffffffffffffffff021916908373ffffffffffffffffffffffffffffffffffffffff1602179055508173ffffffffffffffffffffffffffffffffffffffff168173ffffffffffffffffffffffffffffffffffffffff167f8be0079c531659141344cd1fd0a4f28419497f9722a3daafe3b4186f6b6457e060405160405180910390a35050565b600080fd5b600073ffffffffffffffffffffffffffffffffffffffff82169050919050565b6000620001df82620001b2565b9050919050565b620001f181620001d2565b8114620001fd57600080fd5b50565b6000815190506200021181620001e6565b92915050565b60008060408385031215620002315762000230620001ad565b5b6000620002418582860162000200565b9250506020620002548582860162000200565b9150509250929050565b6145ee806200026e6000396000f3fe608060405234801561001057600080fd5b50600436106100625760003560e01c8063316df61e14610067578063715018a6146100975780638da5cb5b146100a1578063933d9eb5146100bf578063a001e0d5146100dd578063f2fde38b146100fb575b600080fd5b610081600480360381019061007c91906130e5565b610117565b60405161008e91906131b6565b60405180910390f35b61009f610187565b005b6100a961019b565b6040516100b69190613219565b60405180910390f35b6100c76101c4565b6040516100d49190613219565b60405180910390f35b6100e56101ea565b6040516100f29190613219565b60405180910390f35b61011560048036038101906101109190613260565b610210565b005b60606040518060400160405280601b81526020017f646174613a696d6167652f7376672b786d6c3b6261736536342c20000000000081525061016061015b84610293565b6106bc565b6040516020016101719291906132c9565b6040516020818303038152906040529050919050565b61018f610834565b61019960006108b2565b565b60008060009054906101000a900473ffffffffffffffffffffffffffffffffffffffff16905090565b600260009054906101000a900473ffffffffffffffffffffffffffffffffffffffff1681565b600160009054906101000a900473ffffffffffffffffffffffffffffffffffffffff1681565b610218610834565b600073ffffffffffffffffffffffffffffffffffffffff168173ffffffffffffffffffffffffffffffffffffffff1603610287576040517f08c379a000000000000000000000000000000000000000000000000000000000815260040161027e9061335f565b60405180910390fd5b610290816108b2565b50565b6060600080600080600080878060200190518101906102b29190613494565b95509550955095509550955060006040518060400160405280601481526020017f5765623320536176696e6773204e6574776f726b00000000000000000000000081525090506104f261036f6040518060400160405280600181526020017f78000000000000000000000000000000000000000000000000000000000000008152506040518060400160405280600a81526020017f302e303031393533313200000000000000000000000000000000000000000000815250610976565b6103e36040518060400160405280600581526020017f77696474680000000000000000000000000000000000000000000000000000008152506040518060400160405280600381526020017f3530300000000000000000000000000000000000000000000000000000000000815250610976565b6104576040518060400160405280600681526020017f68656967687400000000000000000000000000000000000000000000000000008152506040518060400160405280600381526020017f3330300000000000000000000000000000000000000000000000000000000000815250610976565b6104cb6040518060400160405280600481526020017f66696c6c000000000000000000000000000000000000000000000000000000008152506040518060400160405280601b81526020017f75726c28237061696e74305f6c696e6561725f3231335f383630290000000000815250610976565b6040516020016104de949392919061353d565b6040516020818303038152906040526109a2565b6106776105696040518060400160405280600181526020017f78000000000000000000000000000000000000000000000000000000000000008152506040518060400160405280600181526020017f3000000000000000000000000000000000000000000000000000000000000000815250610976565b6105dd6040518060400160405280600581526020017f77696474680000000000000000000000000000000000000000000000000000008152506040518060400160405280600381526020017f3530300000000000000000000000000000000000000000000000000000000000815250610976565b6106516040518060400160405280600681526020017f68656967687400000000000000000000000000000000000000000000000000008152506040518060400160405280600381526020017f3530300000000000000000000000000000000000000000000000000000000000815250610976565b6040516020016106639392919061357b565b6040516020818303038152906040526109a2565b610680886109ea565b61068c8a888787610a24565b60405160200161069f949392919061393f565b604051602081830303815290604052975050505050505050919050565b606060008251036106de5760405180602001604052806000815250905061082f565b6000604051806060016040528060408152602001614579604091399050600060036002855161070d91906139dc565b6107179190613a61565b60046107239190613a92565b9050600060208261073491906139dc565b67ffffffffffffffff81111561074d5761074c612fba565b5b6040519080825280601f01601f19166020018201604052801561077f5781602001600182028036833780820191505090505b509050818152600183018586518101602084015b818310156107ee576003830192508251603f8160121c168501518253600182019150603f81600c1c168501518253600182019150603f8160061c168501518253600182019150603f8116850151825360018201915050610793565b600389510660018114610808576002811461081857610823565b613d3d60f01b6002830352610823565b603d60f81b60018303525b50505050508093505050505b919050565b61083c610a6d565b73ffffffffffffffffffffffffffffffffffffffff1661085a61019b565b73ffffffffffffffffffffffffffffffffffffffff16146108b0576040517f08c379a00000000000000000000000000000000000000000000000000000000081526004016108a790613b38565b60405180910390fd5b565b60008060009054906101000a900473ffffffffffffffffffffffffffffffffffffffff169050816000806101000a81548173ffffffffffffffffffffffffffffffffffffffff021916908373ffffffffffffffffffffffffffffffffffffffff1602179055508173ffffffffffffffffffffffffffffffffffffffff168173ffffffffffffffffffffffffffffffffffffffff167f8be0079c531659141344cd1fd0a4f28419497f9722a3daafe3b4186f6b6457e060405160405180910390a35050565b6060828260405160200161098b929190613bca565b604051602081830303815290604052905092915050565b60606109e36040518060400160405280600481526020017f726563740000000000000000000000000000000000000000000000000000000081525083610a75565b9050919050565b60606109f582610aa1565b6109fd6110dc565b604051602001610a0e9291906132c9565b6040516020818303038152906040529050919050565b6060610a3185848461120c565b610a39611b64565b610a428661216c565b604051602001610a549392919061357b565b6040516020818303038152906040529050949350505050565b600033905090565b60608282604051602001610a8a929190613c8d565b604051602081830303815290604052905092915050565b6060610da5610b1a6040518060400160405280600181526020017f78000000000000000000000000000000000000000000000000000000000000008152506040518060400160405280600481526020017f372e352500000000000000000000000000000000000000000000000000000000815250610976565b610b8e6040518060400160405280600181526020017f79000000000000000000000000000000000000000000000000000000000000008152506040518060400160405280600481526020017f36322e3500000000000000000000000000000000000000000000000000000000815250610976565b610c026040518060400160405280600981526020017f666f6e742d73697a6500000000000000000000000000000000000000000000008152506040518060400160405280600281526020017f3138000000000000000000000000000000000000000000000000000000000000815250610976565b610c766040518060400160405280601281526020017f616c69676e6d656e742d626173656c696e6500000000000000000000000000008152506040518060400160405280600681526020017f6d6964646c650000000000000000000000000000000000000000000000000000815250610976565b610cea6040518060400160405280600b81526020017f746578742d616e63686f720000000000000000000000000000000000000000008152506040518060400160405280600581526020017f7374617274000000000000000000000000000000000000000000000000000000815250610976565b610d5e6040518060400160405280600481526020017f66696c6c000000000000000000000000000000000000000000000000000000008152506040518060400160405280600581526020017f7768697465000000000000000000000000000000000000000000000000000000815250610976565b604051602001610d7396959493929190613cde565b604051602081830303815290604052604051602001610d9190613d82565b6040516020818303038152906040526127bf565b6110b5610e1c6040518060400160405280600181526020017f78000000000000000000000000000000000000000000000000000000000000008152506040518060400160405280600481526020017f372e352500000000000000000000000000000000000000000000000000000000815250610976565b610e906040518060400160405280600181526020017f79000000000000000000000000000000000000000000000000000000000000008152506040518060400160405280600381526020017f3130300000000000000000000000000000000000000000000000000000000000815250610976565b610f046040518060400160405280600981526020017f666f6e742d73697a6500000000000000000000000000000000000000000000008152506040518060400160405280600281526020017f3332000000000000000000000000000000000000000000000000000000000000815250610976565b610f786040518060400160405280601281526020017f616c69676e6d656e742d626173656c696e6500000000000000000000000000008152506040518060400160405280600681526020017f6d6964646c650000000000000000000000000000000000000000000000000000815250610976565b610fec6040518060400160405280600b81526020017f746578742d616e63686f720000000000000000000000000000000000000000008152506040518060400160405280600581526020017f7374617274000000000000000000000000000000000000000000000000000000815250610976565b6110606040518060400160405280600481526020017f66696c6c000000000000000000000000000000000000000000000000000000008152506040518060400160405280600581526020017f7768697465000000000000000000000000000000000000000000000000000000815250610976565b60405160200161107596959493929190613cde565b6040516020818303038152906040526110918560066002612809565b6040516020016110a19190613dd0565b6040516020818303038152906040526127bf565b6040516020016110c69291906132c9565b6040516020818303038152906040529050919050565b60606111e86111556040518060400160405280600981526020017f7472616e73666f726d00000000000000000000000000000000000000000000008152506040518060400160405280601181526020017f7472616e736c617465283335302c333029000000000000000000000000000000815250610976565b6040516020016111659190613df6565b6040516020818303038152906040526111e37f574542335f41535345545300000000000000000000000000000000000000000060001b7f4c4f474f5f504f4f4c000000000000000000000000000000000000000000000060001b6040516020016111cf9190613e26565b6040516020818303038152906040526128b8565b612965565b6040516020016111f89190613df6565b604051602081830303815290604052905090565b60606114f36112856040518060400160405280600181526020017f78000000000000000000000000000000000000000000000000000000000000008152506040518060400160405280600481526020017f372e352500000000000000000000000000000000000000000000000000000000815250610976565b6112f96040518060400160405280600181526020017f79000000000000000000000000000000000000000000000000000000000000008152506040518060400160405280600581526020017f36372e3525000000000000000000000000000000000000000000000000000000815250610976565b61136d6040518060400160405280600981526020017f666f6e742d73697a6500000000000000000000000000000000000000000000008152506040518060400160405280600281526020017f3234000000000000000000000000000000000000000000000000000000000000815250610976565b6113e16040518060400160405280601281526020017f616c69676e6d656e742d626173656c696e6500000000000000000000000000008152506040518060400160405280600681526020017f6d6964646c650000000000000000000000000000000000000000000000000000815250610976565b6114556040518060400160405280600b81526020017f746578742d616e63686f720000000000000000000000000000000000000000008152506040518060400160405280600581526020017f7374617274000000000000000000000000000000000000000000000000000000815250610976565b6114c96040518060400160405280600481526020017f66696c6c000000000000000000000000000000000000000000000000000000008152506040518060400160405280600581526020017f7768697465000000000000000000000000000000000000000000000000000000815250610976565b6040516020016114de96959493929190613cde565b604051602081830303815290604052846127bf565b6117e061156a6040518060400160405280600181526020017f78000000000000000000000000000000000000000000000000000000000000008152506040518060400160405280600481526020017f372e352500000000000000000000000000000000000000000000000000000000815250610976565b6115de6040518060400160405280600181526020017f79000000000000000000000000000000000000000000000000000000000000008152506040518060400160405280600581526020017f37372e3525000000000000000000000000000000000000000000000000000000815250610976565b6116526040518060400160405280600981526020017f666f6e742d73697a6500000000000000000000000000000000000000000000008152506040518060400160405280600281526020017f3238000000000000000000000000000000000000000000000000000000000000815250610976565b6116c66040518060400160405280601281526020017f616c69676e6d656e742d626173656c696e6500000000000000000000000000008152506040518060400160405280600681526020017f6d6964646c650000000000000000000000000000000000000000000000000000815250610976565b61173a6040518060400160405280600b81526020017f746578742d616e63686f720000000000000000000000000000000000000000008152506040518060400160405280600581526020017f7374617274000000000000000000000000000000000000000000000000000000815250610976565b6117ae6040518060400160405280600481526020017f66696c6c000000000000000000000000000000000000000000000000000000008152506040518060400160405280600581526020017f7768697465000000000000000000000000000000000000000000000000000000815250610976565b6040516020016117c396959493929190613cde565b6040516020818303038152906040526117db876129af565b6127bf565b611b3a6118576040518060400160405280600181526020017f78000000000000000000000000000000000000000000000000000000000000008152506040518060400160405280600481526020017f372e352500000000000000000000000000000000000000000000000000000000815250610976565b6118cb6040518060400160405280600181526020017f79000000000000000000000000000000000000000000000000000000000000008152506040518060400160405280600581526020017f38372e3525000000000000000000000000000000000000000000000000000000815250610976565b61193f6040518060400160405280600981526020017f666f6e742d73697a6500000000000000000000000000000000000000000000008152506040518060400160405280600281526020017f3134000000000000000000000000000000000000000000000000000000000000815250610976565b6119b36040518060400160405280600b81526020017f666f6e742d7765696768740000000000000000000000000000000000000000008152506040518060400160405280600381526020017f3330300000000000000000000000000000000000000000000000000000000000815250610976565b611a276040518060400160405280601281526020017f616c69676e6d656e742d626173656c696e6500000000000000000000000000008152506040518060400160405280600681526020017f6d6964646c650000000000000000000000000000000000000000000000000000815250610976565b611a9b6040518060400160405280600b81526020017f746578742d616e63686f720000000000000000000000000000000000000000008152506040518060400160405280600581526020017f7374617274000000000000000000000000000000000000000000000000000000815250610976565b611b0f6040518060400160405280600481526020017f66696c6c000000000000000000000000000000000000000000000000000000008152506040518060400160405280600581526020017f7768697465000000000000000000000000000000000000000000000000000000815250610976565b604051602001611b259796959493929190613e41565b604051602081830303815290604052856127bf565b604051602001611b4c9392919061357b565b60405160208183030381529060405290509392505050565b60606000606060014603611bd5576040518060400160405280600881526020017f457468657265756d00000000000000000000000000000000000000000000000081525090507f49434f4e5f4e4554574f524b5f455448455245554d000000000000000000000060001b9150611d79565b600a4603611c40576040518060400160405280600881526020017f4f7074696d69736d00000000000000000000000000000000000000000000000081525090507f49434f4e5f4e4554574f524b5f4f5054494d49534d000000000000000000000060001b9150611d78565b60894603611cab576040518060400160405280600781526020017f506f6c79676f6e0000000000000000000000000000000000000000000000000081525090507f49434f4e5f4e4554574f524b5f504f4c59474f4e00000000000000000000000060001b9150611d77565b61a4b14603611d17576040518060400160405280600881526020017f417262697472756d00000000000000000000000000000000000000000000000081525090507f49434f4e5f4e4554574f524b5f415242495452554d000000000000000000000060001b9150611d76565b6040518060400160405280600781526020017f556e6b6e6f776e0000000000000000000000000000000000000000000000000081525090507f49434f4e5f4e4554574f524b5f5445535400000000000000000000000000000060001b91505b5b5b5b61205e611df06040518060400160405280600181526020017f78000000000000000000000000000000000000000000000000000000000000008152506040518060400160405280600381526020017f3835250000000000000000000000000000000000000000000000000000000000815250610976565b611e646040518060400160405280600181526020017f79000000000000000000000000000000000000000000000000000000000000008152506040518060400160405280600381526020017f3830250000000000000000000000000000000000000000000000000000000000815250610976565b611ed86040518060400160405280600981526020017f666f6e742d73697a6500000000000000000000000000000000000000000000008152506040518060400160405280600281526020017f3138000000000000000000000000000000000000000000000000000000000000815250610976565b611f4c6040518060400160405280601281526020017f616c69676e6d656e742d626173656c696e6500000000000000000000000000008152506040518060400160405280600681526020017f6d6964646c650000000000000000000000000000000000000000000000000000815250610976565b611fc06040518060400160405280600b81526020017f746578742d616e63686f720000000000000000000000000000000000000000008152506040518060400160405280600381526020017f656e640000000000000000000000000000000000000000000000000000000000815250610976565b6120346040518060400160405280600481526020017f66696c6c000000000000000000000000000000000000000000000000000000008152506040518060400160405280600581526020017f7768697465000000000000000000000000000000000000000000000000000000815250610976565b60405160200161204996959493929190613cde565b604051602081830303815290604052826127bf565b6121456120d56040518060400160405280600981526020017f7472616e73666f726d00000000000000000000000000000000000000000000008152506040518060400160405280601281526020017f7472616e736c617465283434302c323235290000000000000000000000000000815250610976565b6040516020016120e59190613df6565b6040516020818303038152906040526121407f574542335f41535345545300000000000000000000000000000000000000000060001b8660405160200161212c9190613e26565b6040516020818303038152906040526128b8565b612965565b6040516020016121569291906132c9565b6040516020818303038152906040529250505090565b60606124886121e56040518060400160405280600181526020017f78000000000000000000000000000000000000000000000000000000000000008152506040518060400160405280600381526020017f3935250000000000000000000000000000000000000000000000000000000000815250610976565b6122596040518060400160405280600181526020017f79000000000000000000000000000000000000000000000000000000000000008152506040518060400160405280600381526020017f3530250000000000000000000000000000000000000000000000000000000000815250610976565b6122cd6040518060400160405280600981526020017f666f6e742d73697a6500000000000000000000000000000000000000000000008152506040518060400160405280600281526020017f3134000000000000000000000000000000000000000000000000000000000000815250610976565b6123416040518060400160405280601281526020017f616c69676e6d656e742d626173656c696e6500000000000000000000000000008152506040518060400160405280600681526020017f6d6964646c650000000000000000000000000000000000000000000000000000815250610976565b6123b56040518060400160405280600b81526020017f746578742d616e63686f720000000000000000000000000000000000000000008152506040518060400160405280600381526020017f656e640000000000000000000000000000000000000000000000000000000000815250610976565b6124296040518060400160405280600481526020017f66696c6c000000000000000000000000000000000000000000000000000000008152506040518060400160405280600581526020017f7768697465000000000000000000000000000000000000000000000000000000815250610976565b60405160200161243e96959493929190613cde565b6040516020818303038152906040526040518060400160405280601281526020017f417667203630204461792042616c616e636500000000000000000000000000008152506127bf565b6127986124ff6040518060400160405280600181526020017f78000000000000000000000000000000000000000000000000000000000000008152506040518060400160405280600381526020017f3935250000000000000000000000000000000000000000000000000000000000815250610976565b6125736040518060400160405280600181526020017f79000000000000000000000000000000000000000000000000000000000000008152506040518060400160405280600381526020017f3630250000000000000000000000000000000000000000000000000000000000815250610976565b6125e76040518060400160405280600981526020017f666f6e742d73697a6500000000000000000000000000000000000000000000008152506040518060400160405280600281526020017f3234000000000000000000000000000000000000000000000000000000000000815250610976565b61265b6040518060400160405280601281526020017f616c69676e6d656e742d626173656c696e6500000000000000000000000000008152506040518060400160405280600681526020017f6d6964646c650000000000000000000000000000000000000000000000000000815250610976565b6126cf6040518060400160405280600b81526020017f746578742d616e63686f720000000000000000000000000000000000000000008152506040518060400160405280600381526020017f656e640000000000000000000000000000000000000000000000000000000000815250610976565b6127436040518060400160405280600481526020017f66696c6c000000000000000000000000000000000000000000000000000000008152506040518060400160405280600581526020017f7768697465000000000000000000000000000000000000000000000000000000815250610976565b60405160200161275896959493929190613cde565b6040516020818303038152906040526127748560066002612809565b6040516020016127849190613dd0565b6040516020818303038152906040526127bf565b6040516020016127a99291906132c9565b6040516020818303038152906040529050919050565b60606128016040518060400160405280600481526020017f74657874000000000000000000000000000000000000000000000000000000008152508484612aa0565b905092915050565b606061282b83600a61281b9190613fe6565b856128269190613a61565b612ad1565b61288f83600a61283b9190613fe6565b85600a6128489190613fe6565b876128539190613a61565b61285d9190613a92565b84866128699190614031565b600a6128759190613fe6565b876128809190613a61565b61288a9190614065565b612ad1565b6040516020016128a09291906140e5565b60405160208183030381529060405290509392505050565b6060600260009054906101000a900473ffffffffffffffffffffffffffffffffffffffff1673ffffffffffffffffffffffffffffffffffffffff16633a68f5db84846040518363ffffffff1660e01b8152600401612917929190614169565b600060405180830381865afa158015612934573d6000803e3d6000fd5b505050506040513d6000823e3d601f19601f8201168201806040525081019061295d9190614199565b905092915050565b60606129a76040518060400160405280600181526020017f67000000000000000000000000000000000000000000000000000000000000008152508484612aa0565b905092915050565b606060006129d48373ffffffffffffffffffffffffffffffffffffffff166014612c31565b90506000612a04826040516020016129ec9190613df6565b60405160208183030381529060405260006006612e6d565b90506000612a3483604051602001612a1c9190613df6565b60405160208183030381529060405260256004612e6d565b905081604051602001612a47919061421e565b60405160208183030381529060405281604051602001612a67919061421e565b604051602081830303815290604052604051602001612a8792919061425b565b6040516020818303038152906040529350505050919050565b606083838386604051602001612ab994939291906142da565b60405160208183030381529060405290509392505050565b606060008203612b18576040518060400160405280600181526020017f30000000000000000000000000000000000000000000000000000000000000008152509050612c2c565b600082905060005b60008214612b4a578080612b3390614363565b915050600a82612b439190613a61565b9150612b20565b60008167ffffffffffffffff811115612b6657612b65612fba565b5b6040519080825280601f01601f191660200182016040528015612b985781602001600182028036833780820191505090505b5090505b60008514612c2557600182612bb19190614065565b9150600a85612bc091906143ab565b6030612bcc91906139dc565b60f81b818381518110612be257612be16143dc565b5b60200101907effffffffffffffffffffffffffffffffffffffffffffffffffffffffffffff1916908160001a905350600a85612c1e9190613a61565b9450612b9c565b8093505050505b919050565b606060006002836002612c449190613a92565b612c4e91906139dc565b67ffffffffffffffff811115612c6757612c66612fba565b5b6040519080825280601f01601f191660200182016040528015612c995781602001600182028036833780820191505090505b5090507f300000000000000000000000000000000000000000000000000000000000000081600081518110612cd157612cd06143dc565b5b60200101907effffffffffffffffffffffffffffffffffffffffffffffffffffffffffffff1916908160001a9053507f780000000000000000000000000000000000000000000000000000000000000081600181518110612d3557612d346143dc565b5b60200101907effffffffffffffffffffffffffffffffffffffffffffffffffffffffffffff1916908160001a90535060006001846002612d759190613a92565b612d7f91906139dc565b90505b6001811115612e1f577f3031323334353637383961626364656600000000000000000000000000000000600f861660108110612dc157612dc06143dc565b5b1a60f81b828281518110612dd857612dd76143dc565b5b60200101907effffffffffffffffffffffffffffffffffffffffffffffffffffffffffffff1916908160001a905350600485901c945080612e189061440b565b9050612d82565b5060008414612e63576040517f08c379a0000000000000000000000000000000000000000000000000000000008152600401612e5a90614480565b60405180910390fd5b8091505092915050565b606081601f83612e7d91906139dc565b1015612ebe576040517f08c379a0000000000000000000000000000000000000000000000000000000008152600401612eb5906144ec565b60405180910390fd5b8183612eca91906139dc565b84511015612f0d576040517f08c379a0000000000000000000000000000000000000000000000000000000008152600401612f0490614558565b60405180910390fd5b6060821560008114612f2e5760405191506000825260208201604052612f7f565b6040519150601f8416801560200281840101858101878315602002848b0101015b81831015612f6c5780518352602083019250602081019050612f4f565b50868552601f19601f8301166040525050505b50809150509392505050565b6000604051905090565b600080fd5b600080fd5b600080fd5b600080fd5b6000601f19601f8301169050919050565b7f4e487b7100000000000000000000000000000000000000000000000000000000600052604160045260246000fd5b612ff282612fa9565b810181811067ffffffffffffffff8211171561301157613010612fba565b5b80604052505050565b6000613024612f8b565b90506130308282612fe9565b919050565b600067ffffffffffffffff8211156130505761304f612fba565b5b61305982612fa9565b9050602081019050919050565b82818337600083830152505050565b600061308861308384613035565b61301a565b9050828152602081018484840111156130a4576130a3612fa4565b5b6130af848285613066565b509392505050565b600082601f8301126130cc576130cb612f9f565b5b81356130dc848260208601613075565b91505092915050565b6000602082840312156130fb576130fa612f95565b5b600082013567ffffffffffffffff81111561311957613118612f9a565b5b613125848285016130b7565b91505092915050565b600081519050919050565b600082825260208201905092915050565b60005b8381101561316857808201518184015260208101905061314d565b83811115613177576000848401525b50505050565b60006131888261312e565b6131928185613139565b93506131a281856020860161314a565b6131ab81612fa9565b840191505092915050565b600060208201905081810360008301526131d0818461317d565b905092915050565b600073ffffffffffffffffffffffffffffffffffffffff82169050919050565b6000613203826131d8565b9050919050565b613213816131f8565b82525050565b600060208201905061322e600083018461320a565b92915050565b61323d816131f8565b811461324857600080fd5b50565b60008135905061325a81613234565b92915050565b60006020828403121561327657613275612f95565b5b60006132848482850161324b565b91505092915050565b600081905092915050565b60006132a38261312e565b6132ad818561328d565b93506132bd81856020860161314a565b80840191505092915050565b60006132d58285613298565b91506132e18284613298565b91508190509392505050565b7f4f776e61626c653a206e6577206f776e657220697320746865207a65726f206160008201527f6464726573730000000000000000000000000000000000000000000000000000602082015250565b6000613349602683613139565b9150613354826132ed565b604082019050919050565b600060208201905081810360008301526133788161333c565b9050919050565b600061338a826131d8565b9050919050565b61339a8161337f565b81146133a557600080fd5b50565b6000815190506133b781613391565b92915050565b6000819050919050565b6133d0816133bd565b81146133db57600080fd5b50565b6000815190506133ed816133c7565b92915050565b600067ffffffffffffffff82111561340e5761340d612fba565b5b61341782612fa9565b9050602081019050919050565b6000613437613432846133f3565b61301a565b90508281526020810184848401111561345357613452612fa4565b5b61345e84828561314a565b509392505050565b600082601f83011261347b5761347a612f9f565b5b815161348b848260208601613424565b91505092915050565b60008060008060008060c087890312156134b1576134b0612f95565b5b60006134bf89828a016133a8565b96505060206134d089828a016133de565b95505060406134e189828a016133de565b94505060606134f289828a016133de565b935050608061350389828a016133de565b92505060a087015167ffffffffffffffff81111561352457613523612f9a565b5b61353089828a01613466565b9150509295509295509295565b60006135498287613298565b91506135558286613298565b91506135618285613298565b915061356d8284613298565b915081905095945050505050565b60006135878286613298565b91506135938285613298565b915061359f8284613298565b9150819050949350505050565b7f3c73766720786d6c6e733d22687474703a2f2f7777772e77332e6f72672f323060008201527f30302f737667222077696474683d2235303022206865696768743d223330302260208201527f2076696577426f783d223020302035303020333030222066696c6c3d2223363360408201527f3345463722207374796c653d22666f6e742d66616d696c793a2073616e732d7360608201527f657269663b22203e000000000000000000000000000000000000000000000000608082015250565b600061367a60888361328d565b9150613685826135ac565b608882019050919050565b7f3c67206d61736b3d2275726c28236d61736b305f3231335f38363029223e203c60008201527f656c6c69707365206f7061636974793d22302e31222063783d2239332220637960208201527f3d22333030222072783d22323330222072793d22313435222066696c6c3d226260408201527f6c61636b222f3e203c656c6c69707365206f7061636974793d22302e3038222060608201527f63783d22353530222063793d222d313139222072783d22343530222072793d2260808201527f323437222066696c6c3d22626c61636b222f3e203c2f673e000000000000000060a082015250565b600061378460b88361328d565b915061378f82613690565b60b882019050919050565b7f3c646566733e3c7374796c653e2e636c732d317b66696c6c3a234646463b7d2e60008201527f746578742d736861646f772d6d64207b746578742d736861646f773a2030707860208201527f203470782031307078207267626128302c20302c20302c20302e3132293b7d3c60408201527f2f7374796c653e3c6c696e6561724772616469656e742069643d226d7947726160608201527f6469656e7422206772616469656e745472616e73666f726d3d22726f7461746560808201527f28393029223e203c73746f70206f66667365743d223525222073746f702d636f60a08201527f6c6f723d22676f6c6422202f3e203c73746f70206f66667365743d223935252260c08201527f2073746f702d636f6c6f723d2272656422202f3e203c2f6c696e65617247726160e08201527f6469656e743e3c2f646566733e0000000000000000000000000000000000000061010082015250565b600061390261010d8361328d565b915061390d8261379a565b61010d82019050919050565b7f3c2f7376673e0000000000000000000000000000000000000000000000000000815250565b600061394a8261366d565b91506139568287613298565b91506139628286613298565b915061396d82613777565b91506139798285613298565b91506139858284613298565b9150613990826138f4565b915061399b82613919565b60068201915081905095945050505050565b7f4e487b7100000000000000000000000000000000000000000000000000000000600052601160045260246000fd5b60006139e7826133bd565b91506139f2836133bd565b9250827fffffffffffffffffffffffffffffffffffffffffffffffffffffffffffffffff03821115613a2757613a266139ad565b5b828201905092915050565b7f4e487b7100000000000000000000000000000000000000000000000000000000600052601260045260246000fd5b6000613a6c826133bd565b9150613a77836133bd565b925082613a8757613a86613a32565b5b828204905092915050565b6000613a9d826133bd565b9150613aa8836133bd565b9250817fffffffffffffffffffffffffffffffffffffffffffffffffffffffffffffffff0483118215151615613ae157613ae06139ad565b5b828202905092915050565b7f4f776e61626c653a2063616c6c6572206973206e6f7420746865206f776e6572600082015250565b6000613b22602083613139565b9150613b2d82613aec565b602082019050919050565b60006020820190508181036000830152613b5181613b15565b9050919050565b7f3d00000000000000000000000000000000000000000000000000000000000000815250565b7f2200000000000000000000000000000000000000000000000000000000000000815250565b7f2220000000000000000000000000000000000000000000000000000000000000815250565b6000613bd68285613298565b9150613be182613b58565b600182019150613bf082613b7e565b600182019150613c008284613298565b9150613c0b82613ba4565b6002820191508190509392505050565b7f3c00000000000000000000000000000000000000000000000000000000000000815250565b7f2000000000000000000000000000000000000000000000000000000000000000815250565b7f2f3e000000000000000000000000000000000000000000000000000000000000815250565b6000613c9882613c1b565b600182019150613ca88285613298565b9150613cb382613c41565b600182019150613cc38284613298565b9150613cce82613c67565b6002820191508190509392505050565b6000613cea8289613298565b9150613cf68288613298565b9150613d028287613298565b9150613d0e8286613298565b9150613d1a8285613298565b9150613d268284613298565b9150819050979650505050505050565b7ff09f8f8600000000000000000000000000000000000000000000000000000000815250565b7f204368616e636500000000000000000000000000000000000000000000000000815250565b6000613d8d82613d36565b600482019150613d9c82613d5c565b600782019150819050919050565b7f2400000000000000000000000000000000000000000000000000000000000000815250565b6000613ddb82613daa565b600182019150613deb8284613298565b915081905092915050565b6000613e028284613298565b915081905092915050565b6000819050919050565b613e2081613e0d565b82525050565b6000602082019050613e3b6000830184613e17565b92915050565b6000613e4d828a613298565b9150613e598289613298565b9150613e658288613298565b9150613e718287613298565b9150613e7d8286613298565b9150613e898285613298565b9150613e958284613298565b915081905098975050505050505050565b60008160011c9050919050565b6000808291508390505b6001851115613efd57808604811115613ed957613ed86139ad565b5b6001851615613ee85780820291505b8081029050613ef685613ea6565b9450613ebd565b94509492505050565b600082613f165760019050613fd2565b81613f245760009050613fd2565b8160018114613f3a5760028114613f4457613f73565b6001915050613fd2565b60ff841115613f5657613f556139ad565b5b8360020a915084821115613f6d57613f6c6139ad565b5b50613fd2565b5060208310610133831016604e8410600b8410161715613fa85782820a905083811115613fa357613fa26139ad565b5b613fd2565b613fb58484846001613eb3565b92509050818404811115613fcc57613fcb6139ad565b5b81810290505b9392505050565b600060ff82169050919050565b6000613ff1826133bd565b9150613ffc83613fd9565b92506140297fffffffffffffffffffffffffffffffffffffffffffffffffffffffffffffffff8484613f06565b905092915050565b600061403c82613fd9565b915061404783613fd9565b92508282101561405a576140596139ad565b5b828203905092915050565b6000614070826133bd565b915061407b836133bd565b92508282101561408e5761408d6139ad565b5b828203905092915050565b7f2e00000000000000000000000000000000000000000000000000000000000000600082015250565b60006140cf60018361328d565b91506140da82614099565b600182019050919050565b60006140f18285613298565b91506140fc826140c2565b91506141088284613298565b91508190509392505050565b600081519050919050565b600082825260208201905092915050565b600061413b82614114565b614145818561411f565b935061415581856020860161314a565b61415e81612fa9565b840191505092915050565b600060408201905061417e6000830185613e17565b81810360208301526141908184614130565b90509392505050565b6000602082840312156141af576141ae612f95565b5b600082015167ffffffffffffffff8111156141cd576141cc612f9a565b5b6141d984828501613466565b91505092915050565b600081905092915050565b60006141f882614114565b61420281856141e2565b935061421281856020860161314a565b80840191505092915050565b600061422a82846141ed565b915081905092915050565b7f2e2e2e0000000000000000000000000000000000000000000000000000000000815250565b60006142678285613298565b915061427282614235565b6003820191506142828284613298565b91508190509392505050565b7f3e00000000000000000000000000000000000000000000000000000000000000815250565b7f3c2f000000000000000000000000000000000000000000000000000000000000815250565b60006142e582613c1b565b6001820191506142f58287613298565b915061430082613c41565b6001820191506143108286613298565b915061431b8261428e565b60018201915061432b8285613298565b9150614336826142b4565b6002820191506143468284613298565b91506143518261428e565b60018201915081905095945050505050565b600061436e826133bd565b91507fffffffffffffffffffffffffffffffffffffffffffffffffffffffffffffffff82036143a05761439f6139ad565b5b600182019050919050565b60006143b6826133bd565b91506143c1836133bd565b9250826143d1576143d0613a32565b5b828206905092915050565b7f4e487b7100000000000000000000000000000000000000000000000000000000600052603260045260246000fd5b6000614416826133bd565b915060008203614429576144286139ad565b5b600182039050919050565b7f537472696e67733a20686578206c656e67746820696e73756666696369656e74600082015250565b600061446a602083613139565b915061447582614434565b602082019050919050565b600060208201905081810360008301526144998161445d565b9050919050565b7f736c6963655f6f766572666c6f77000000000000000000000000000000000000600082015250565b60006144d6600e83613139565b91506144e1826144a0565b602082019050919050565b60006020820190508181036000830152614505816144c9565b9050919050565b7f736c6963655f6f75744f66426f756e6473000000000000000000000000000000600082015250565b6000614542601183613139565b915061454d8261450c565b602082019050919050565b6000602082019050818103600083015261457181614535565b905091905056fe4142434445464748494a4b4c4d4e4f505152535455565758595a6162636465666768696a6b6c6d6e6f707172737475767778797a303132333435363738392b2fa2646970667358221220f30f2d59718b9a4bea67995570f04f364b5aac894bac8c232a94a9473bb83aa464736f6c634300080f0033",
  "devdoc": {
    "kind": "dev",
    "methods": {
      "owner()": {
        "details": "Returns the address of the current owner."
      },
      "renounceOwnership()": {
        "details": "Leaves the contract without owner. It will not be possible to call `onlyOwner` functions anymore. Can only be called by the current owner. NOTE: Renouncing ownership will leave the contract without an owner, thereby removing any functionality that is only available to the owner."
      },
      "transferOwnership(address)": {
        "details": "Transfers ownership of the contract to a new account (`newOwner`). Can only be called by the current owner."
      }
    },
    "version": 1
  },
  "userdoc": {
    "kind": "user",
    "methods": {},
    "version": 1
  },
  "storageLayout": {
    "storage": [
      {
        "astId": 2542,
        "contract": "contracts/rendering/PoolTogetherV0Render.sol:PoolTogetherV0Render",
        "label": "_owner",
        "offset": 0,
        "slot": "0",
        "type": "t_address"
      },
      {
        "astId": 14855,
        "contract": "contracts/rendering/PoolTogetherV0Render.sol:PoolTogetherV0Render",
        "label": "svgLibrary",
        "offset": 0,
        "slot": "1",
        "type": "t_address"
      },
      {
        "astId": 14857,
        "contract": "contracts/rendering/PoolTogetherV0Render.sol:PoolTogetherV0Render",
        "label": "svgRegistry",
        "offset": 0,
        "slot": "2",
        "type": "t_address"
      }
    ],
    "types": {
      "t_address": {
        "encoding": "inplace",
        "label": "address",
        "numberOfBytes": "20"
      }
    }
  }
}