{
  "_format": "hh-sol-artifact-1",
  "contractName": "ERC20TWAB",
  "sourceName": "@web3-savings-cards/core-sol/contracts/ERC20TWAB.sol",
  "abi": [
    {
      "inputs": [
        {
          "internalType": "string",
          "name": "name",
          "type": "string"
        },
        {
          "internalType": "string",
          "name": "symbol",
          "type": "string"
        }
      ],
      "stateMutability": "nonpayable",
      "type": "constructor"
    },
    {
      "anonymous": false,
      "inputs": [
        {
          "indexed": true,
          "internalType": "address",
          "name": "owner",
          "type": "address"
        },
        {
          "indexed": true,
          "internalType": "address",
          "name": "spender",
          "type": "address"
        },
        {
          "indexed": false,
          "internalType": "uint256",
          "name": "value",
          "type": "uint256"
        }
      ],
      "name": "Approval",
      "type": "event"
    },
    {
      "anonymous": false,
      "inputs": [
        {
          "indexed": true,
          "internalType": "address",
          "name": "delegator",
          "type": "address"
        },
        {
          "indexed": true,
          "internalType": "address",
          "name": "delegate",
          "type": "address"
        }
      ],
      "name": "Delegated",
      "type": "event"
    },
    {
      "anonymous": false,
      "inputs": [
        {
          "components": [
            {
              "internalType": "uint224",
              "name": "amount",
              "type": "uint224"
            },
            {
              "internalType": "uint32",
              "name": "timestamp",
              "type": "uint32"
            }
          ],
          "indexed": false,
          "internalType": "struct ObservationLib.Observation",
          "name": "newTotalSupplyTwab",
          "type": "tuple"
        }
      ],
      "name": "NewTotalSupplyTwab",
      "type": "event"
    },
    {
      "anonymous": false,
      "inputs": [
        {
          "indexed": true,
          "internalType": "address",
          "name": "delegate",
          "type": "address"
        },
        {
          "components": [
            {
              "internalType": "uint224",
              "name": "amount",
              "type": "uint224"
            },
            {
              "internalType": "uint32",
              "name": "timestamp",
              "type": "uint32"
            }
          ],
          "indexed": false,
          "internalType": "struct ObservationLib.Observation",
          "name": "newTwab",
          "type": "tuple"
        }
      ],
      "name": "NewUserTwab",
      "type": "event"
    },
    {
      "anonymous": false,
      "inputs": [
        {
          "indexed": true,
          "internalType": "address",
          "name": "from",
          "type": "address"
        },
        {
          "indexed": true,
          "internalType": "address",
          "name": "to",
          "type": "address"
        },
        {
          "indexed": false,
          "internalType": "uint256",
          "name": "value",
          "type": "uint256"
        }
      ],
      "name": "Transfer",
      "type": "event"
    },
    {
      "inputs": [],
      "name": "DOMAIN_SEPARATOR",
      "outputs": [
        {
          "internalType": "bytes32",
          "name": "",
          "type": "bytes32"
        }
      ],
      "stateMutability": "view",
      "type": "function"
    },
    {
      "inputs": [
        {
          "internalType": "address",
          "name": "owner",
          "type": "address"
        },
        {
          "internalType": "address",
          "name": "spender",
          "type": "address"
        }
      ],
      "name": "allowance",
      "outputs": [
        {
          "internalType": "uint256",
          "name": "",
          "type": "uint256"
        }
      ],
      "stateMutability": "view",
      "type": "function"
    },
    {
      "inputs": [
        {
          "internalType": "address",
          "name": "spender",
          "type": "address"
        },
        {
          "internalType": "uint256",
          "name": "amount",
          "type": "uint256"
        }
      ],
      "name": "approve",
      "outputs": [
        {
          "internalType": "bool",
          "name": "",
          "type": "bool"
        }
      ],
      "stateMutability": "nonpayable",
      "type": "function"
    },
    {
      "inputs": [
        {
          "internalType": "address",
          "name": "account",
          "type": "address"
        }
      ],
      "name": "balanceOf",
      "outputs": [
        {
          "internalType": "uint256",
          "name": "",
          "type": "uint256"
        }
      ],
      "stateMutability": "view",
      "type": "function"
    },
    {
      "inputs": [],
      "name": "decimals",
      "outputs": [
        {
          "internalType": "uint8",
          "name": "",
          "type": "uint8"
        }
      ],
      "stateMutability": "view",
      "type": "function"
    },
    {
      "inputs": [
        {
          "internalType": "address",
          "name": "spender",
          "type": "address"
        },
        {
          "internalType": "uint256",
          "name": "subtractedValue",
          "type": "uint256"
        }
      ],
      "name": "decreaseAllowance",
      "outputs": [
        {
          "internalType": "bool",
          "name": "",
          "type": "bool"
        }
      ],
      "stateMutability": "nonpayable",
      "type": "function"
    },
    {
      "inputs": [
        {
          "internalType": "address",
          "name": "_to",
          "type": "address"
        }
      ],
      "name": "delegate",
      "outputs": [],
      "stateMutability": "nonpayable",
      "type": "function"
    },
    {
      "inputs": [
        {
          "internalType": "address",
          "name": "_user",
          "type": "address"
        }
      ],
      "name": "delegateOf",
      "outputs": [
        {
          "internalType": "address",
          "name": "",
          "type": "address"
        }
      ],
      "stateMutability": "view",
      "type": "function"
    },
    {
      "inputs": [
        {
          "internalType": "address",
          "name": "_user",
          "type": "address"
        },
        {
          "internalType": "address",
          "name": "_newDelegate",
          "type": "address"
        },
        {
          "internalType": "uint256",
          "name": "_deadline",
          "type": "uint256"
        },
        {
          "internalType": "uint8",
          "name": "_v",
          "type": "uint8"
        },
        {
          "internalType": "bytes32",
          "name": "_r",
          "type": "bytes32"
        },
        {
          "internalType": "bytes32",
          "name": "_s",
          "type": "bytes32"
        }
      ],
      "name": "delegateWithSignature",
      "outputs": [],
      "stateMutability": "nonpayable",
      "type": "function"
    },
    {
      "inputs": [
        {
          "internalType": "address",
          "name": "_user",
          "type": "address"
        }
      ],
      "name": "getAccountDetails",
      "outputs": [
        {
          "components": [
            {
              "internalType": "uint208",
              "name": "balance",
              "type": "uint208"
            },
            {
              "internalType": "uint24",
              "name": "nextTwabIndex",
              "type": "uint24"
            },
            {
              "internalType": "uint24",
              "name": "cardinality",
              "type": "uint24"
            }
          ],
          "internalType": "struct TwabLib.AccountDetails",
          "name": "",
          "type": "tuple"
        }
      ],
      "stateMutability": "view",
      "type": "function"
    },
    {
      "inputs": [
        {
          "internalType": "address",
          "name": "_user",
          "type": "address"
        },
        {
          "internalType": "uint64",
          "name": "_startTime",
          "type": "uint64"
        },
        {
          "internalType": "uint64",
          "name": "_endTime",
          "type": "uint64"
        }
      ],
      "name": "getAverageBalanceBetween",
      "outputs": [
        {
          "internalType": "uint256",
          "name": "",
          "type": "uint256"
        }
      ],
      "stateMutability": "view",
      "type": "function"
    },
    {
      "inputs": [
        {
          "internalType": "address",
          "name": "_user",
          "type": "address"
        },
        {
          "internalType": "uint64[]",
          "name": "_startTimes",
          "type": "uint64[]"
        },
        {
          "internalType": "uint64[]",
          "name": "_endTimes",
          "type": "uint64[]"
        }
      ],
      "name": "getAverageBalancesBetween",
      "outputs": [
        {
          "internalType": "uint256[]",
          "name": "",
          "type": "uint256[]"
        }
      ],
      "stateMutability": "view",
      "type": "function"
    },
    {
      "inputs": [
        {
          "internalType": "uint64[]",
          "name": "_startTimes",
          "type": "uint64[]"
        },
        {
          "internalType": "uint64[]",
          "name": "_endTimes",
          "type": "uint64[]"
        }
      ],
      "name": "getAverageTotalSuppliesBetween",
      "outputs": [
        {
          "internalType": "uint256[]",
          "name": "",
          "type": "uint256[]"
        }
      ],
      "stateMutability": "view",
      "type": "function"
    },
    {
      "inputs": [
        {
          "internalType": "address",
          "name": "_user",
          "type": "address"
        },
        {
          "internalType": "uint64",
          "name": "_target",
          "type": "uint64"
        }
      ],
      "name": "getBalanceAt",
      "outputs": [
        {
          "internalType": "uint256",
          "name": "",
          "type": "uint256"
        }
      ],
      "stateMutability": "view",
      "type": "function"
    },
    {
      "inputs": [
        {
          "internalType": "address",
          "name": "_user",
          "type": "address"
        },
        {
          "internalType": "uint64[]",
          "name": "_targets",
          "type": "uint64[]"
        }
      ],
      "name": "getBalancesAt",
      "outputs": [
        {
          "internalType": "uint256[]",
          "name": "",
          "type": "uint256[]"
        }
      ],
      "stateMutability": "view",
      "type": "function"
    },
    {
      "inputs": [
        {
          "internalType": "uint64[]",
          "name": "_targets",
          "type": "uint64[]"
        }
      ],
      "name": "getTotalSuppliesAt",
      "outputs": [
        {
          "internalType": "uint256[]",
          "name": "",
          "type": "uint256[]"
        }
      ],
      "stateMutability": "view",
      "type": "function"
    },
    {
      "inputs": [
        {
          "internalType": "uint64",
          "name": "_target",
          "type": "uint64"
        }
      ],
      "name": "getTotalSupplyAt",
      "outputs": [
        {
          "internalType": "uint256",
          "name": "",
          "type": "uint256"
        }
      ],
      "stateMutability": "view",
      "type": "function"
    },
    {
      "inputs": [
        {
          "internalType": "address",
          "name": "_user",
          "type": "address"
        },
        {
          "internalType": "uint16",
          "name": "_index",
          "type": "uint16"
        }
      ],
      "name": "getTwab",
      "outputs": [
        {
          "components": [
            {
              "internalType": "uint224",
              "name": "amount",
              "type": "uint224"
            },
            {
              "internalType": "uint32",
              "name": "timestamp",
              "type": "uint32"
            }
          ],
          "internalType": "struct ObservationLib.Observation",
          "name": "",
          "type": "tuple"
        }
      ],
      "stateMutability": "view",
      "type": "function"
    },
    {
      "inputs": [
        {
          "internalType": "address",
          "name": "spender",
          "type": "address"
        },
        {
          "internalType": "uint256",
          "name": "addedValue",
          "type": "uint256"
        }
      ],
      "name": "increaseAllowance",
      "outputs": [
        {
          "internalType": "bool",
          "name": "",
          "type": "bool"
        }
      ],
      "stateMutability": "nonpayable",
      "type": "function"
    },
    {
      "inputs": [],
      "name": "name",
      "outputs": [
        {
          "internalType": "string",
          "name": "",
          "type": "string"
        }
      ],
      "stateMutability": "view",
      "type": "function"
    },
    {
      "inputs": [
        {
          "internalType": "address",
          "name": "owner",
          "type": "address"
        }
      ],
      "name": "nonces",
      "outputs": [
        {
          "internalType": "uint256",
          "name": "",
          "type": "uint256"
        }
      ],
      "stateMutability": "view",
      "type": "function"
    },
    {
      "inputs": [
        {
          "internalType": "address",
          "name": "owner",
          "type": "address"
        },
        {
          "internalType": "address",
          "name": "spender",
          "type": "address"
        },
        {
          "internalType": "uint256",
          "name": "value",
          "type": "uint256"
        },
        {
          "internalType": "uint256",
          "name": "deadline",
          "type": "uint256"
        },
        {
          "internalType": "uint8",
          "name": "v",
          "type": "uint8"
        },
        {
          "internalType": "bytes32",
          "name": "r",
          "type": "bytes32"
        },
        {
          "internalType": "bytes32",
          "name": "s",
          "type": "bytes32"
        }
      ],
      "name": "permit",
      "outputs": [],
      "stateMutability": "nonpayable",
      "type": "function"
    },
    {
      "inputs": [],
      "name": "symbol",
      "outputs": [
        {
          "internalType": "string",
          "name": "",
          "type": "string"
        }
      ],
      "stateMutability": "view",
      "type": "function"
    },
    {
      "inputs": [],
      "name": "totalSupply",
      "outputs": [
        {
          "internalType": "uint256",
          "name": "",
          "type": "uint256"
        }
      ],
      "stateMutability": "view",
      "type": "function"
    },
    {
      "inputs": [
        {
          "internalType": "address",
          "name": "to",
          "type": "address"
        },
        {
          "internalType": "uint256",
          "name": "amount",
          "type": "uint256"
        }
      ],
      "name": "transfer",
      "outputs": [
        {
          "internalType": "bool",
          "name": "",
          "type": "bool"
        }
      ],
      "stateMutability": "nonpayable",
      "type": "function"
    },
    {
      "inputs": [
        {
          "internalType": "address",
          "name": "from",
          "type": "address"
        },
        {
          "internalType": "address",
          "name": "to",
          "type": "address"
        },
        {
          "internalType": "uint256",
          "name": "amount",
          "type": "uint256"
        }
      ],
      "name": "transferFrom",
      "outputs": [
        {
          "internalType": "bool",
          "name": "",
          "type": "bool"
        }
      ],
      "stateMutability": "nonpayable",
      "type": "function"
    }
  ],
  "bytecode": "0x61016060405269021e19e0c9bab24000006007557f94019368dc6b2ee4ac32010c9d0081ec29874325b541829d001d22c296b5246c610140908152503480156200004857600080fd5b50604051620060133803806200601383398181016040528101906200006e919062000397565b6040518060400160405280600981526020017f4552433230545741420000000000000000000000000000000000000000000000815250806040518060400160405280600181526020017f310000000000000000000000000000000000000000000000000000000000000081525084848160039081620000ee919062000667565b50806004908162000100919062000667565b50505060008280519060200120905060008280519060200120905060007f8b73c3c69bb8fe3d512ecc4cf759cc79239f7b179b0ffacaa9a75d522b39400f90508260e081815250508161010081815250504660a081815250506200016c818484620001be60201b60201c565b608081815250503073ffffffffffffffffffffffffffffffffffffffff1660c08173ffffffffffffffffffffffffffffffffffffffff168152505080610120818152505050505050505050506200081c565b60008383834630604051602001620001db959493929190620007bf565b6040516020818303038152906040528051906020012090509392505050565b6000604051905090565b600080fd5b600080fd5b600080fd5b600080fd5b6000601f19601f8301169050919050565b7f4e487b7100000000000000000000000000000000000000000000000000000000600052604160045260246000fd5b620002638262000218565b810181811067ffffffffffffffff8211171562000285576200028462000229565b5b80604052505050565b60006200029a620001fa565b9050620002a8828262000258565b919050565b600067ffffffffffffffff821115620002cb57620002ca62000229565b5b620002d68262000218565b9050602081019050919050565b60005b8381101562000303578082015181840152602081019050620002e6565b8381111562000313576000848401525b50505050565b6000620003306200032a84620002ad565b6200028e565b9050828152602081018484840111156200034f576200034e62000213565b5b6200035c848285620002e3565b509392505050565b600082601f8301126200037c576200037b6200020e565b5b81516200038e84826020860162000319565b91505092915050565b60008060408385031215620003b157620003b062000204565b5b600083015167ffffffffffffffff811115620003d257620003d162000209565b5b620003e08582860162000364565b925050602083015167ffffffffffffffff81111562000404576200040362000209565b5b620004128582860162000364565b9150509250929050565b600081519050919050565b7f4e487b7100000000000000000000000000000000000000000000000000000000600052602260045260246000fd5b600060028204905060018216806200046f57607f821691505b60208210810362000485576200048462000427565b5b50919050565b60008190508160005260206000209050919050565b60006020601f8301049050919050565b600082821b905092915050565b600060088302620004ef7fffffffffffffffffffffffffffffffffffffffffffffffffffffffffffffffff82620004b0565b620004fb8683620004b0565b95508019841693508086168417925050509392505050565b6000819050919050565b6000819050919050565b600062000548620005426200053c8462000513565b6200051d565b62000513565b9050919050565b6000819050919050565b620005648362000527565b6200057c62000573826200054f565b848454620004bd565b825550505050565b600090565b6200059362000584565b620005a081848462000559565b505050565b5b81811015620005c857620005bc60008262000589565b600181019050620005a6565b5050565b601f8211156200061757620005e1816200048b565b620005ec84620004a0565b81016020851015620005fc578190505b620006146200060b85620004a0565b830182620005a5565b50505b505050565b600082821c905092915050565b60006200063c600019846008026200061c565b1980831691505092915050565b600062000657838362000629565b9150826002028217905092915050565b62000672826200041c565b67ffffffffffffffff8111156200068e576200068d62000229565b5b6200069a825462000456565b620006a7828285620005cc565b600060209050601f831160018114620006df5760008415620006ca578287015190505b620006d6858262000649565b86555062000746565b601f198416620006ef866200048b565b60005b828110156200071957848901518255600182019150602085019450602081019050620006f2565b8683101562000739578489015162000735601f89168262000629565b8355505b6001600288020188555050505b505050505050565b6000819050919050565b62000763816200074e565b82525050565b620007748162000513565b82525050565b600073ffffffffffffffffffffffffffffffffffffffff82169050919050565b6000620007a7826200077a565b9050919050565b620007b9816200079a565b82525050565b600060a082019050620007d6600083018862000758565b620007e5602083018762000758565b620007f4604083018662000758565b62000803606083018562000769565b620008126080830184620007ae565b9695505050505050565b60805160a05160c05160e05161010051610120516101405161579c620008776000396000610f4501526000611b2401526000611b6601526000611b4501526000611a7a01526000611ad001526000611af9015261579c6000f3fe608060405234801561001057600080fd5b506004361061018e5760003560e01c806370a08231116100de57806395d89b4111610097578063a457c2d711610071578063a457c2d714610531578063a9059cbb14610561578063d505accf14610591578063dd62ed3e146105ad5761018e565b806395d89b41146104b357806398b16f36146104d15780639ecb0370146105015761018e565b806370a08231146103a75780637ecebe00146103d757806385beb5f1146104075780638d22ea2a146104375780638e6d536a14610467578063919974dc146104975761018e565b8063313ce5671161014b578063395093511161012557806339509351146102fb5780635c19a95c1461032b578063613ed6bd1461034757806368c7fd57146103775761018e565b8063313ce5671461028f5780633644e515146102ad57806336bb2a38146102cb5761018e565b806306fdde0314610193578063095ea7b3146101b157806318160ddd146101e157806323b872dd146101ff5780632aceb5341461022f5780632d0dd6861461025f575b600080fd5b61019b6105dd565b6040516101a89190613dce565b60405180910390f35b6101cb60048036038101906101c69190613e8e565b61066f565b6040516101d89190613ee9565b60405180910390f35b6101e9610692565b6040516101f69190613f13565b60405180910390f35b61021960048036038101906102149190613f2e565b61069c565b6040516102269190613ee9565b60405180910390f35b61024960048036038101906102449190613f81565b6106cb565b6040516102569190614043565b60405180910390f35b6102796004803603810190610274919061409e565b6107d5565b6040516102869190613f13565b60405180910390f35b6102976108ab565b6040516102a491906140e7565b60405180910390f35b6102b56108b4565b6040516102c2919061411b565b60405180910390f35b6102e560048036038101906102e09190614170565b6108c3565b6040516102f29190614235565b60405180910390f35b61031560048036038101906103109190613e8e565b6109cd565b6040516103229190613ee9565b60405180910390f35b61034560048036038101906103409190613f81565b610a04565b005b610361600480360381019061035c91906142b5565b610a11565b60405161036e91906143d3565b60405180910390f35b610391600480360381019061038c91906143f5565b610bee565b60405161039e91906143d3565b60405180910390f35b6103c160048036038101906103bc9190613f81565b610c46565b6040516103ce9190613f13565b60405180910390f35b6103f160048036038101906103ec9190613f81565b610c8e565b6040516103fe9190613f13565b60405180910390f35b610421600480360381019061041c919061448a565b610cde565b60405161042e91906143d3565b60405180910390f35b610451600480360381019061044c9190613f81565b610e78565b60405161045e91906144e6565b60405180910390f35b610481600480360381019061047c9190614501565b610ee4565b60405161048e91906143d3565b60405180910390f35b6104b160048036038101906104ac91906145da565b610efe565b005b6104bb61103c565b6040516104c89190613dce565b60405180910390f35b6104eb60048036038101906104e69190614667565b6110ce565b6040516104f89190613f13565b60405180910390f35b61051b600480360381019061051691906146ba565b6111e8565b6040516105289190613f13565b60405180910390f35b61054b60048036038101906105469190613e8e565b611300565b6040516105589190613ee9565b60405180910390f35b61057b60048036038101906105769190613e8e565b611377565b6040516105889190613ee9565b60405180910390f35b6105ab60048036038101906105a691906146fa565b61139a565b005b6105c760048036038101906105c2919061479c565b6114dc565b6040516105d49190613f13565b60405180910390f35b6060600380546105ec9061480b565b80601f01602080910402602001604051908101604052809291908181526020018280546106189061480b565b80156106655780601f1061063a57610100808354040283529160200191610665565b820191906000526020600020905b81548152906001019060200180831161064857829003601f168201915b5050505050905090565b60008061067a611563565b905061068781858561156b565b600191505092915050565b6000600254905090565b6000806106a7611563565b90506106b4858285611734565b6106bf8585856117c0565b60019150509392505050565b6106d3613cb0565b600860008373ffffffffffffffffffffffffffffffffffffffff1673ffffffffffffffffffffffffffffffffffffffff1681526020019081526020016000206000016040518060600160405290816000820160009054906101000a900479ffffffffffffffffffffffffffffffffffffffffffffffffffff1679ffffffffffffffffffffffffffffffffffffffffffffffffffff1679ffffffffffffffffffffffffffffffffffffffffffffffffffff16815260200160008201601a9054906101000a900462ffffff1662ffffff1662ffffff16815260200160008201601d9054906101000a900462ffffff1662ffffff1662ffffff16815250509050919050565b60006108a4600960010160096000016040518060600160405290816000820160009054906101000a900479ffffffffffffffffffffffffffffffffffffffffffffffffffff1679ffffffffffffffffffffffffffffffffffffffffffffffffffff1679ffffffffffffffffffffffffffffffffffffffffffffffffffff16815260200160008201601a9054906101000a900462ffffff1662ffffff1662ffffff16815260200160008201601d9054906101000a900462ffffff1662ffffff1662ffffff16815250508442611a3f565b9050919050565b60006012905090565b60006108be611a76565b905090565b6108cb613cf7565b600860008473ffffffffffffffffffffffffffffffffffffffff1673ffffffffffffffffffffffffffffffffffffffff1681526020019081526020016000206001018261ffff1662ffffff81106109255761092461483c565b5b016040518060400160405290816000820160009054906101000a90047bffffffffffffffffffffffffffffffffffffffffffffffffffffffff167bffffffffffffffffffffffffffffffffffffffffffffffffffffffff167bffffffffffffffffffffffffffffffffffffffffffffffffffffffff16815260200160008201601c9054906101000a900463ffffffff1663ffffffff1663ffffffff1681525050905092915050565b6000806109d8611563565b90506109f98185856109ea85896114dc565b6109f4919061489a565b61156b565b600191505092915050565b610a0e3382611b90565b50565b6060600083839050905060008167ffffffffffffffff811115610a3757610a366148f0565b5b604051908082528060200260200182016040528015610a655781602001602082028036833780820191505090505b5090506000600860008873ffffffffffffffffffffffffffffffffffffffff1673ffffffffffffffffffffffffffffffffffffffff16815260200190815260200160002090506000816000016040518060600160405290816000820160009054906101000a900479ffffffffffffffffffffffffffffffffffffffffffffffffffff1679ffffffffffffffffffffffffffffffffffffffffffffffffffff1679ffffffffffffffffffffffffffffffffffffffffffffffffffff16815260200160008201601a9054906101000a900462ffffff1662ffffff1662ffffff16815260200160008201601d9054906101000a900462ffffff1662ffffff1662ffffff1681525050905060005b84811015610bdf57610bad83600101838a8a85818110610b9257610b9161483c565b5b9050602002016020810190610ba7919061409e565b42611a3f565b848281518110610bc057610bbf61483c565b5b6020026020010181815250508080610bd79061491f565b915050610b6f565b50829450505050509392505050565b6060610c3b600860008873ffffffffffffffffffffffffffffffffffffffff1673ffffffffffffffffffffffffffffffffffffffff16815260200190815260200160002086868686611d2b565b905095945050505050565b60008060008373ffffffffffffffffffffffffffffffffffffffff1673ffffffffffffffffffffffffffffffffffffffff168152602001908152602001600020549050919050565b6000610cd7600560008473ffffffffffffffffffffffffffffffffffffffff1673ffffffffffffffffffffffffffffffffffffffff168152602001908152602001600020611f39565b9050919050565b6060600083839050905060008167ffffffffffffffff811115610d0457610d036148f0565b5b604051908082528060200260200182016040528015610d325781602001602082028036833780820191505090505b509050600060096000016040518060600160405290816000820160009054906101000a900479ffffffffffffffffffffffffffffffffffffffffffffffffffff1679ffffffffffffffffffffffffffffffffffffffffffffffffffff1679ffffffffffffffffffffffffffffffffffffffffffffffffffff16815260200160008201601a9054906101000a900462ffffff1662ffffff1662ffffff16815260200160008201601d9054906101000a900462ffffff1662ffffff1662ffffff1681525050905060005b83811015610e6b57610e39600960010183898985818110610e1e57610e1d61483c565b5b9050602002016020810190610e33919061409e565b42611a3f565b838281518110610e4c57610e4b61483c565b5b6020026020010181815250508080610e639061491f565b915050610dfa565b5081935050505092915050565b6000630100000960008373ffffffffffffffffffffffffffffffffffffffff1673ffffffffffffffffffffffffffffffffffffffff16815260200190815260200160002060009054906101000a900473ffffffffffffffffffffffffffffffffffffffff169050919050565b6060610ef4600986868686611d2b565b9050949350505050565b83421115610f41576040517f08c379a0000000000000000000000000000000000000000000000000000000008152600401610f38906149b3565b60405180910390fd5b60007f00000000000000000000000000000000000000000000000000000000000000008787610f6f8a611f47565b88604051602001610f849594939291906149d3565b6040516020818303038152906040528051906020012090506000610fa782611fa5565b90506000610fb782878787611fbf565b90508873ffffffffffffffffffffffffffffffffffffffff168173ffffffffffffffffffffffffffffffffffffffff1614611027576040517f08c379a000000000000000000000000000000000000000000000000000000000815260040161101e90614a98565b60405180910390fd5b6110318989611b90565b505050505050505050565b60606004805461104b9061480b565b80601f01602080910402602001604051908101604052809291908181526020018280546110779061480b565b80156110c45780601f10611099576101008083540402835291602001916110c4565b820191906000526020600020905b8154815290600101906020018083116110a757829003601f168201915b5050505050905090565b600080600860008673ffffffffffffffffffffffffffffffffffffffff1673ffffffffffffffffffffffffffffffffffffffff16815260200190815260200160002090506111de81600101826000016040518060600160405290816000820160009054906101000a900479ffffffffffffffffffffffffffffffffffffffffffffffffffff1679ffffffffffffffffffffffffffffffffffffffffffffffffffff1679ffffffffffffffffffffffffffffffffffffffffffffffffffff16815260200160008201601a9054906101000a900462ffffff1662ffffff1662ffffff16815260200160008201601d9054906101000a900462ffffff1662ffffff1662ffffff1681525050868642611fea565b9150509392505050565b600080600860008573ffffffffffffffffffffffffffffffffffffffff1673ffffffffffffffffffffffffffffffffffffffff16815260200190815260200160002090506112f781600101826000016040518060600160405290816000820160009054906101000a900479ffffffffffffffffffffffffffffffffffffffffffffffffffff1679ffffffffffffffffffffffffffffffffffffffffffffffffffff1679ffffffffffffffffffffffffffffffffffffffffffffffffffff16815260200160008201601a9054906101000a900462ffffff1662ffffff1662ffffff16815260200160008201601d9054906101000a900462ffffff1662ffffff1662ffffff16815250508542611a3f565b91505092915050565b60008061130b611563565b9050600061131982866114dc565b90508381101561135e576040517f08c379a000000000000000000000000000000000000000000000000000000000815260040161135590614b2a565b60405180910390fd5b61136b828686840361156b565b60019250505092915050565b600080611382611563565b905061138f8185856117c0565b600191505092915050565b834211156113dd576040517f08c379a00000000000000000000000000000000000000000000000000000000081526004016113d490614b96565b60405180910390fd5b60007f6e71edae12b1b97f4d1f60370fef10105fa2faae0126114a169c64845d6126c988888861140c8c611f47565b8960405160200161142296959493929190614bb6565b604051602081830303815290604052805190602001209050600061144582611fa5565b9050600061145582878787611fbf565b90508973ffffffffffffffffffffffffffffffffffffffff168173ffffffffffffffffffffffffffffffffffffffff16146114c5576040517f08c379a00000000000000000000000000000000000000000000000000000000081526004016114bc90614c63565b60405180910390fd5b6114d08a8a8a61156b565b50505050505050505050565b6000600160008473ffffffffffffffffffffffffffffffffffffffff1673ffffffffffffffffffffffffffffffffffffffff16815260200190815260200160002060008373ffffffffffffffffffffffffffffffffffffffff1673ffffffffffffffffffffffffffffffffffffffff16815260200190815260200160002054905092915050565b600033905090565b600073ffffffffffffffffffffffffffffffffffffffff168373ffffffffffffffffffffffffffffffffffffffff16036115da576040517f08c379a00000000000000000000000000000000000000000000000000000000081526004016115d190614cf5565b60405180910390fd5b600073ffffffffffffffffffffffffffffffffffffffff168273ffffffffffffffffffffffffffffffffffffffff1603611649576040517f08c379a000000000000000000000000000000000000000000000000000000000815260040161164090614d87565b60405180910390fd5b80600160008573ffffffffffffffffffffffffffffffffffffffff1673ffffffffffffffffffffffffffffffffffffffff16815260200190815260200160002060008473ffffffffffffffffffffffffffffffffffffffff1673ffffffffffffffffffffffffffffffffffffffff168152602001908152602001600020819055508173ffffffffffffffffffffffffffffffffffffffff168373ffffffffffffffffffffffffffffffffffffffff167f8c5be1e5ebec7d5bd14f71427d1e84f3dd0314c0f7b2291e5b200ac8c7c3b925836040516117279190613f13565b60405180910390a3505050565b600061174084846114dc565b90507fffffffffffffffffffffffffffffffffffffffffffffffffffffffffffffffff81146117ba57818110156117ac576040517f08c379a00000000000000000000000000000000000000000000000000000000081526004016117a390614df3565b60405180910390fd5b6117b9848484840361156b565b5b50505050565b600073ffffffffffffffffffffffffffffffffffffffff168373ffffffffffffffffffffffffffffffffffffffff160361182f576040517f08c379a000000000000000000000000000000000000000000000000000000000815260040161182690614e85565b60405180910390fd5b600073ffffffffffffffffffffffffffffffffffffffff168273ffffffffffffffffffffffffffffffffffffffff160361189e576040517f08c379a000000000000000000000000000000000000000000000000000000000815260040161189590614f17565b60405180910390fd5b6118a9838383612023565b60008060008573ffffffffffffffffffffffffffffffffffffffff1673ffffffffffffffffffffffffffffffffffffffff1681526020019081526020016000205490508181101561192f576040517f08c379a000000000000000000000000000000000000000000000000000000000815260040161192690614fa9565b60405180910390fd5b8181036000808673ffffffffffffffffffffffffffffffffffffffff1673ffffffffffffffffffffffffffffffffffffffff16815260200190815260200160002081905550816000808573ffffffffffffffffffffffffffffffffffffffff1673ffffffffffffffffffffffffffffffffffffffff16815260200190815260200160002060008282546119c2919061489a565b925050819055508273ffffffffffffffffffffffffffffffffffffffff168473ffffffffffffffffffffffffffffffffffffffff167fddf252ad1be2c89b69c2b068fc378daa952ba7f163c4a11628f55a4df523b3ef84604051611a269190613f13565b60405180910390a3611a398484846121a0565b50505050565b6000808263ffffffff168463ffffffff1611611a5b5783611a5d565b825b9050611a6b868683866121a5565b915050949350505050565b60007f000000000000000000000000000000000000000000000000000000000000000073ffffffffffffffffffffffffffffffffffffffff163073ffffffffffffffffffffffffffffffffffffffff16148015611af257507f000000000000000000000000000000000000000000000000000000000000000046145b15611b1f577f00000000000000000000000000000000000000000000000000000000000000009050611b8d565b611b8a7f00000000000000000000000000000000000000000000000000000000000000007f00000000000000000000000000000000000000000000000000000000000000007f00000000000000000000000000000000000000000000000000000000000000006122dc565b90505b90565b6000611b9b83610c46565b90506000630100000960008573ffffffffffffffffffffffffffffffffffffffff1673ffffffffffffffffffffffffffffffffffffffff16815260200190815260200160002060009054906101000a900473ffffffffffffffffffffffffffffffffffffffff1690508273ffffffffffffffffffffffffffffffffffffffff168173ffffffffffffffffffffffffffffffffffffffff1603611c3e575050611d27565b82630100000960008673ffffffffffffffffffffffffffffffffffffffff1673ffffffffffffffffffffffffffffffffffffffff16815260200190815260200160002060006101000a81548173ffffffffffffffffffffffffffffffffffffffff021916908373ffffffffffffffffffffffffffffffffffffffff160217905550611cca818484612316565b8273ffffffffffffffffffffffffffffffffffffffff168473ffffffffffffffffffffffffffffffffffffffff167f4bc154dd35d6a5cb9206482ecb473cdbf2473006d6bce728b9cc0741bcc59ea260405160405180910390a350505b5050565b60606000858590509050838390508114611d7a576040517f08c379a0000000000000000000000000000000000000000000000000000000008152600401611d719061503b565b60405180910390fd5b6000876000016040518060600160405290816000820160009054906101000a900479ffffffffffffffffffffffffffffffffffffffffffffffffffff1679ffffffffffffffffffffffffffffffffffffffffffffffffffff1679ffffffffffffffffffffffffffffffffffffffffffffffffffff16815260200160008201601a9054906101000a900462ffffff1662ffffff1662ffffff16815260200160008201601d9054906101000a900462ffffff1662ffffff1662ffffff1681525050905060008267ffffffffffffffff811115611e5757611e566148f0565b5b604051908082528060200260200182016040528015611e855781602001602082028036833780820191505090505b509050600042905060005b84811015611f2857611ef68b600101858c8c85818110611eb357611eb261483c565b5b9050602002016020810190611ec8919061409e565b8b8b86818110611edb57611eda61483c565b5b9050602002016020810190611ef0919061409e565b86611fea565b838281518110611f0957611f0861483c565b5b6020026020010181815250508080611f209061491f565b915050611e90565b508194505050505095945050505050565b600081600001549050919050565b600080600560008473ffffffffffffffffffffffffffffffffffffffff1673ffffffffffffffffffffffffffffffffffffffff1681526020019081526020016000209050611f9481611f39565b9150611f9f81612415565b50919050565b6000611fb8611fb2611a76565b8361242b565b9050919050565b6000806000611fd08787878761245e565b91509150611fdd8161256a565b8192505050949350505050565b6000808263ffffffff168463ffffffff16116120065783612008565b825b90506120178787878487612736565b91505095945050505050565b8173ffffffffffffffffffffffffffffffffffffffff168373ffffffffffffffffffffffffffffffffffffffff16031561219b5760008073ffffffffffffffffffffffffffffffffffffffff168473ffffffffffffffffffffffffffffffffffffffff16146120f257630100000960008573ffffffffffffffffffffffffffffffffffffffff1673ffffffffffffffffffffffffffffffffffffffff16815260200190815260200160002060009054906101000a900473ffffffffffffffffffffffffffffffffffffffff1690505b60008073ffffffffffffffffffffffffffffffffffffffff168473ffffffffffffffffffffffffffffffffffffffff161461218d57630100000960008573ffffffffffffffffffffffffffffffffffffffff1673ffffffffffffffffffffffffffffffffffffffff16815260200190815260200160002060009054906101000a900473ffffffffffffffffffffffffffffffffffffffff1690505b612198828285612316565b50505b505050565b505050565b6000806121b0613cf7565b6121b8613cf7565b6121c288886127e8565b80925081945050506121e98686836020015163ffffffff166128cf9092919063ffffffff16565b1561221957866000015179ffffffffffffffffffffffffffffffffffffffffffffffffffff1693505050506122d4565b600061222589896129a9565b809350819250505061224c8260200151878963ffffffff16612b4c9092919063ffffffff16565b1561225e5760009450505050506122d4565b6122708985838a8c604001518b612c24565b809450819350505061228b8360200151836020015188612eec565b63ffffffff16826000015184600001516122a5919061505b565b6122af91906150be565b7bffffffffffffffffffffffffffffffffffffffffffffffffffffffff169450505050505b949350505050565b600083838346306040516020016122f79594939291906150ef565b6040516020818303038152906040528051906020012090509392505050565b600073ffffffffffffffffffffffffffffffffffffffff168373ffffffffffffffffffffffffffffffffffffffff1614612393576123548382612fca565b600073ffffffffffffffffffffffffffffffffffffffff168273ffffffffffffffffffffffffffffffffffffffff1603612392576123918161316d565b5b5b600073ffffffffffffffffffffffffffffffffffffffff168273ffffffffffffffffffffffffffffffffffffffff1614612410576123d18282613299565b600073ffffffffffffffffffffffffffffffffffffffff168373ffffffffffffffffffffffffffffffffffffffff160361240f5761240e81613406565b5b5b505050565b6001816000016000828254019250508190555050565b600082826040516020016124409291906151ba565b60405160208183030381529060405280519060200120905092915050565b6000807f7fffffffffffffffffffffffffffffff5d576e7357a4501ddfe92f46681b20a08360001c1115612499576000600391509150612561565b601b8560ff16141580156124b15750601c8560ff1614155b156124c3576000600491509150612561565b6000600187878787604051600081526020016040526040516124e894939291906151f1565b6020604051602081039080840390855afa15801561250a573d6000803e3d6000fd5b505050602060405103519050600073ffffffffffffffffffffffffffffffffffffffff168173ffffffffffffffffffffffffffffffffffffffff160361255857600060019250925050612561565b80600092509250505b94509492505050565b6000600481111561257e5761257d615236565b5b81600481111561259157612590615236565b5b031561273357600160048111156125ab576125aa615236565b5b8160048111156125be576125bd615236565b5b036125fe576040517f08c379a00000000000000000000000000000000000000000000000000000000081526004016125f5906152b1565b60405180910390fd5b6002600481111561261257612611615236565b5b81600481111561262557612624615236565b5b03612665576040517f08c379a000000000000000000000000000000000000000000000000000000000815260040161265c9061531d565b60405180910390fd5b6003600481111561267957612678615236565b5b81600481111561268c5761268b615236565b5b036126cc576040517f08c379a00000000000000000000000000000000000000000000000000000000081526004016126c3906153af565b60405180910390fd5b6004808111156126df576126de615236565b5b8160048111156126f2576126f1615236565b5b03612732576040517f08c379a000000000000000000000000000000000000000000000000000000000815260040161272990615441565b60405180910390fd5b5b50565b600080600061274588886129a9565b915091506000806127568a8a6127e8565b91509150600061276c8b8b8487878a8f8e613519565b905060006127808c8c8588888b8f8f613519565b9050612795816020015183602001518a612eec565b63ffffffff16826000015182600001516127af919061505b565b6127b991906150be565b7bffffffffffffffffffffffffffffffffffffffffffffffffffffffff16965050505050505095945050505050565b60006127f2613cf7565b61280a836020015162ffffff1662ffffff801661368b565b9150838262ffffff1662ffffff81106128265761282561483c565b5b016040518060400160405290816000820160009054906101000a90047bffffffffffffffffffffffffffffffffffffffffffffffffffffffff167bffffffffffffffffffffffffffffffffffffffffffffffffffffffff167bffffffffffffffffffffffffffffffffffffffffffffffffffffffff16815260200160008201601c9054906101000a900463ffffffff1663ffffffff1663ffffffff168152505090509250929050565b60008163ffffffff168463ffffffff16111580156128f957508163ffffffff168363ffffffff1611155b15612915578263ffffffff168463ffffffff16111590506129a2565b60008263ffffffff168563ffffffff1611612946576401000000008563ffffffff166129419190615472565b61294e565b8463ffffffff165b64ffffffffff16905060008363ffffffff168563ffffffff1611612988576401000000008563ffffffff166129839190615472565b612990565b8463ffffffff165b64ffffffffff16905080821115925050505b9392505050565b60006129b3613cf7565b82602001519150838262ffffff1662ffffff81106129d4576129d361483c565b5b016040518060400160405290816000820160009054906101000a90047bffffffffffffffffffffffffffffffffffffffffffffffffffffffff167bffffffffffffffffffffffffffffffffffffffffffffffffffffffff167bffffffffffffffffffffffffffffffffffffffffffffffffffffffff16815260200160008201601c9054906101000a900463ffffffff1663ffffffff1663ffffffff168152505090506000816020015163ffffffff1603612b45576000915083600062ffffff8110612aa257612aa161483c565b5b016040518060400160405290816000820160009054906101000a90047bffffffffffffffffffffffffffffffffffffffffffffffffffffffff167bffffffffffffffffffffffffffffffffffffffffffffffffffffffff167bffffffffffffffffffffffffffffffffffffffffffffffffffffffff16815260200160008201601c9054906101000a900463ffffffff1663ffffffff1663ffffffff168152505090505b9250929050565b60008163ffffffff168463ffffffff1611158015612b7657508163ffffffff168363ffffffff1611155b15612b91578263ffffffff168463ffffffff16109050612c1d565b60008263ffffffff168563ffffffff1611612bc2576401000000008563ffffffff16612bbd9190615472565b612bca565b8463ffffffff165b64ffffffffff16905060008363ffffffff168563ffffffff1611612c04576401000000008563ffffffff16612bff9190615472565b612c0c565b8463ffffffff165b64ffffffffff169050808210925050505b9392505050565b612c2c613cf7565b612c34613cf7565b60008662ffffff1690506000818962ffffff1610612c57578862ffffff16612c75565b60018662ffffff1683612c6a919061489a565b612c7491906154ad565b5b905060005b600115612ede5760028284612c8f919061489a565b612c9991906154e1565b90508a612cab828962ffffff166136c7565b62ffffff1662ffffff8110612cc357612cc261483c565b5b016040518060400160405290816000820160009054906101000a90047bffffffffffffffffffffffffffffffffffffffffffffffffffffffff167bffffffffffffffffffffffffffffffffffffffffffffffffffffffff167bffffffffffffffffffffffffffffffffffffffffffffffffffffffff16815260200160008201601c9054906101000a900463ffffffff1663ffffffff1663ffffffff1681525050945060008560200151905060008163ffffffff1603612d9157600182612d89919061489a565b935050612c7a565b8b612da1838a62ffffff166136dd565b62ffffff1662ffffff8110612db957612db861483c565b5b016040518060400160405290816000820160009054906101000a90047bffffffffffffffffffffffffffffffffffffffffffffffffffffffff167bffffffffffffffffffffffffffffffffffffffffffffffffffffffff167bffffffffffffffffffffffffffffffffffffffffffffffffffffffff16815260200160008201601c9054906101000a900463ffffffff1663ffffffff1663ffffffff168152505094506000612e788a898463ffffffff166128cf9092919063ffffffff16565b9050808015612ea25750612ea18660200151898c63ffffffff166128cf9092919063ffffffff16565b5b15612eae575050612ede565b80612ec757600183612ec091906154ad565b9350612ed7565b600183612ed4919061489a565b94505b5050612c7a565b505050965096945050505050565b60008163ffffffff168463ffffffff1611158015612f1657508163ffffffff168363ffffffff1611155b15612f2e578284612f279190615512565b9050612fc3565b60008263ffffffff168563ffffffff1611612f5f576401000000008563ffffffff16612f5a9190615472565b612f67565b8463ffffffff165b64ffffffffff16905060008363ffffffff168563ffffffff1611612fa1576401000000008563ffffffff16612f9c9190615472565b612fa9565b8463ffffffff165b64ffffffffff1690508082612fbe91906154ad565b925050505b9392505050565b6000810315613169576000600860008473ffffffffffffffffffffffffffffffffffffffff1673ffffffffffffffffffffffffffffffffffffffff1681526020019081526020016000209050600080600061306484613028876136fd565b6040518060400160405280601b81526020017f5469636b65742f747761622d6275726e2d6c742d62616c616e6365000000000081525042613766565b925092509250828460000160008201518160000160006101000a81548179ffffffffffffffffffffffffffffffffffffffffffffffffffff021916908379ffffffffffffffffffffffffffffffffffffffffffffffffffff160217905550602082015181600001601a6101000a81548162ffffff021916908362ffffff160217905550604082015181600001601d6101000a81548162ffffff021916908362ffffff1602179055509050508015613164578573ffffffffffffffffffffffffffffffffffffffff167fdd3e7cd3a260a292b0b3306b2ca62f30a7349619a9d09c58109318774c6b627d8360405161315b9190614235565b60405180910390a25b505050505b5050565b60008103156132965760008060006131a86009613189866136fd565b6040518060600160405280602c815260200161573b602c913942613766565b92509250925082600960000160008201518160000160006101000a81548179ffffffffffffffffffffffffffffffffffffffffffffffffffff021916908379ffffffffffffffffffffffffffffffffffffffffffffffffffff160217905550602082015181600001601a6101000a81548162ffffff021916908362ffffff160217905550604082015181600001601d6101000a81548162ffffff021916908362ffffff1602179055509050508015613292577f3375b905d617084fa6b7531688cc8046feb1f1a0b8ba2273de03c59d8d84416c826040516132899190614235565b60405180910390a15b5050505b50565b6000810315613402576000600860008473ffffffffffffffffffffffffffffffffffffffff1673ffffffffffffffffffffffffffffffffffffffff168152602001908152602001600020905060008060006132fd846132f7876136fd565b4261392a565b925092509250828460000160008201518160000160006101000a81548179ffffffffffffffffffffffffffffffffffffffffffffffffffff021916908379ffffffffffffffffffffffffffffffffffffffffffffffffffff160217905550602082015181600001601a6101000a81548162ffffff021916908362ffffff160217905550604082015181600001601d6101000a81548162ffffff021916908362ffffff16021790555090505080156133fd578573ffffffffffffffffffffffffffffffffffffffff167fdd3e7cd3a260a292b0b3306b2ca62f30a7349619a9d09c58109318774c6b627d836040516133f49190614235565b60405180910390a25b505050505b5050565b60008103156135165760008060006134286009613422866136fd565b4261392a565b92509250925082600960000160008201518160000160006101000a81548179ffffffffffffffffffffffffffffffffffffffffffffffffffff021916908379ffffffffffffffffffffffffffffffffffffffffffffffffffff160217905550602082015181600001601a6101000a81548162ffffff021916908362ffffff160217905550604082015181600001601d6101000a81548162ffffff021916908362ffffff1602179055509050508015613512577f3375b905d617084fa6b7531688cc8046feb1f1a0b8ba2273de03c59d8d84416c826040516135099190614235565b60405180910390a15b5050505b50565b613521613cf7565b6135408383896020015163ffffffff16612b4c9092919063ffffffff16565b156135775761357087896000015179ffffffffffffffffffffffffffffffffffffffffffffffffffff1685613a73565b905061367f565b8263ffffffff16876020015163ffffffff16036135965786905061367f565b8263ffffffff16866020015163ffffffff16036135b55785905061367f565b6135d48660200151838563ffffffff16612b4c9092919063ffffffff16565b1561361a57604051806040016040528060007bffffffffffffffffffffffffffffffffffffffffffffffffffffffff1681526020018463ffffffff16815250905061367f565b60008061362f8b8888888e6040015189612c24565b9150915060006136488260200151846020015187612eec565b63ffffffff1683600001518360000151613662919061505b565b61366c91906150be565b9050613679838288613a73565b93505050505b98975050505050505050565b600080820361369d57600090506136c1565b6136be600183856136ae919061489a565b6136b891906154ad565b836136c7565b90505b92915050565b600081836136d59190615546565b905092915050565b60006136f56001846136ef919061489a565b836136c7565b905092915050565b600079ffffffffffffffffffffffffffffffffffffffffffffffffffff801682111561375e576040517f08c379a0000000000000000000000000000000000000000000000000000000008152600401613755906155e9565b60405180910390fd5b819050919050565b61376e613cb0565b613776613cf7565b600080876000016040518060600160405290816000820160009054906101000a900479ffffffffffffffffffffffffffffffffffffffffffffffffffff1679ffffffffffffffffffffffffffffffffffffffffffffffffffff1679ffffffffffffffffffffffffffffffffffffffffffffffffffff16815260200160008201601a9054906101000a900462ffffff1662ffffff1662ffffff16815260200160008201601d9054906101000a900462ffffff1662ffffff1662ffffff168152505090508679ffffffffffffffffffffffffffffffffffffffffffffffffffff16816000015179ffffffffffffffffffffffffffffffffffffffffffffffffffff16101586906138ba576040517f08c379a00000000000000000000000000000000000000000000000000000000081526004016138b19190613dce565b60405180910390fd5b506138c9886001018287613afb565b80945081955082965050505086846000018181510391509079ffffffffffffffffffffffffffffffffffffffffffffffffffff16908179ffffffffffffffffffffffffffffffffffffffffffffffffffff1681525050509450945094915050565b613932613cb0565b61393a613cf7565b600080866000016040518060600160405290816000820160009054906101000a900479ffffffffffffffffffffffffffffffffffffffffffffffffffff1679ffffffffffffffffffffffffffffffffffffffffffffffffffff1679ffffffffffffffffffffffffffffffffffffffffffffffffffff16815260200160008201601a9054906101000a900462ffffff1662ffffff1662ffffff16815260200160008201601d9054906101000a900462ffffff1662ffffff1662ffffff16815250509050613a0a876001018287613afb565b809450819550829650505050858160000151613a269190615609565b846000019079ffffffffffffffffffffffffffffffffffffffffffffffffffff16908179ffffffffffffffffffffffffffffffffffffffffffffffffffff16815250505093509350939050565b613a7b613cf7565b6040518060400160405280613aa58660200151858663ffffffff16612eec9092919063ffffffff16565b63ffffffff1685613ab69190615659565b8660000151613ac591906156af565b7bffffffffffffffffffffffffffffffffffffffffffffffffffffffff1681526020018363ffffffff1681525090509392505050565b613b03613cb0565b613b0b613cf7565b600080613b1887876127e8565b9150508463ffffffff16816020015163ffffffff1603613b42578581600093509350935050613c2d565b6000613b6f82886000015179ffffffffffffffffffffffffffffffffffffffffffffffffffff1688613a73565b90508088886020015162ffffff1662ffffff8110613b9057613b8f61483c565b5b0160008201518160000160006101000a8154817bffffffffffffffffffffffffffffffffffffffffffffffffffffffff02191690837bffffffffffffffffffffffffffffffffffffffffffffffffffffffff160217905550602082015181600001601c6101000a81548163ffffffff021916908363ffffffff1602179055509050506000613c1d88613c36565b9050808260019550955095505050505b93509350939050565b613c3e613cb0565b613c56826020015162ffffff1662ffffff80166136dd565b826020019062ffffff16908162ffffff168152505062ffffff8016826040015162ffffff161015613ca857600182604001818151613c949190615701565b91509062ffffff16908162ffffff16815250505b819050919050565b6040518060600160405280600079ffffffffffffffffffffffffffffffffffffffffffffffffffff168152602001600062ffffff168152602001600062ffffff1681525090565b604051806040016040528060007bffffffffffffffffffffffffffffffffffffffffffffffffffffffff168152602001600063ffffffff1681525090565b600081519050919050565b600082825260208201905092915050565b60005b83811015613d6f578082015181840152602081019050613d54565b83811115613d7e576000848401525b50505050565b6000601f19601f8301169050919050565b6000613da082613d35565b613daa8185613d40565b9350613dba818560208601613d51565b613dc381613d84565b840191505092915050565b60006020820190508181036000830152613de88184613d95565b905092915050565b600080fd5b600080fd5b600073ffffffffffffffffffffffffffffffffffffffff82169050919050565b6000613e2582613dfa565b9050919050565b613e3581613e1a565b8114613e4057600080fd5b50565b600081359050613e5281613e2c565b92915050565b6000819050919050565b613e6b81613e58565b8114613e7657600080fd5b50565b600081359050613e8881613e62565b92915050565b60008060408385031215613ea557613ea4613df0565b5b6000613eb385828601613e43565b9250506020613ec485828601613e79565b9150509250929050565b60008115159050919050565b613ee381613ece565b82525050565b6000602082019050613efe6000830184613eda565b92915050565b613f0d81613e58565b82525050565b6000602082019050613f286000830184613f04565b92915050565b600080600060608486031215613f4757613f46613df0565b5b6000613f5586828701613e43565b9350506020613f6686828701613e43565b9250506040613f7786828701613e79565b9150509250925092565b600060208284031215613f9757613f96613df0565b5b6000613fa584828501613e43565b91505092915050565b600079ffffffffffffffffffffffffffffffffffffffffffffffffffff82169050919050565b613fdd81613fae565b82525050565b600062ffffff82169050919050565b613ffb81613fe3565b82525050565b6060820160008201516140176000850182613fd4565b50602082015161402a6020850182613ff2565b50604082015161403d6040850182613ff2565b50505050565b60006060820190506140586000830184614001565b92915050565b600067ffffffffffffffff82169050919050565b61407b8161405e565b811461408657600080fd5b50565b60008135905061409881614072565b92915050565b6000602082840312156140b4576140b3613df0565b5b60006140c284828501614089565b91505092915050565b600060ff82169050919050565b6140e1816140cb565b82525050565b60006020820190506140fc60008301846140d8565b92915050565b6000819050919050565b61411581614102565b82525050565b6000602082019050614130600083018461410c565b92915050565b600061ffff82169050919050565b61414d81614136565b811461415857600080fd5b50565b60008135905061416a81614144565b92915050565b6000806040838503121561418757614186613df0565b5b600061419585828601613e43565b92505060206141a68582860161415b565b9150509250929050565b60007bffffffffffffffffffffffffffffffffffffffffffffffffffffffff82169050919050565b6141e1816141b0565b82525050565b600063ffffffff82169050919050565b614200816141e7565b82525050565b60408201600082015161421c60008501826141d8565b50602082015161422f60208501826141f7565b50505050565b600060408201905061424a6000830184614206565b92915050565b600080fd5b600080fd5b600080fd5b60008083601f84011261427557614274614250565b5b8235905067ffffffffffffffff81111561429257614291614255565b5b6020830191508360208202830111156142ae576142ad61425a565b5b9250929050565b6000806000604084860312156142ce576142cd613df0565b5b60006142dc86828701613e43565b935050602084013567ffffffffffffffff8111156142fd576142fc613df5565b5b6143098682870161425f565b92509250509250925092565b600081519050919050565b600082825260208201905092915050565b6000819050602082019050919050565b61434a81613e58565b82525050565b600061435c8383614341565b60208301905092915050565b6000602082019050919050565b600061438082614315565b61438a8185614320565b935061439583614331565b8060005b838110156143c65781516143ad8882614350565b97506143b883614368565b925050600181019050614399565b5085935050505092915050565b600060208201905081810360008301526143ed8184614375565b905092915050565b60008060008060006060868803121561441157614410613df0565b5b600061441f88828901613e43565b955050602086013567ffffffffffffffff8111156144405761443f613df5565b5b61444c8882890161425f565b9450945050604086013567ffffffffffffffff81111561446f5761446e613df5565b5b61447b8882890161425f565b92509250509295509295909350565b600080602083850312156144a1576144a0613df0565b5b600083013567ffffffffffffffff8111156144bf576144be613df5565b5b6144cb8582860161425f565b92509250509250929050565b6144e081613e1a565b82525050565b60006020820190506144fb60008301846144d7565b92915050565b6000806000806040858703121561451b5761451a613df0565b5b600085013567ffffffffffffffff81111561453957614538613df5565b5b6145458782880161425f565b9450945050602085013567ffffffffffffffff81111561456857614567613df5565b5b6145748782880161425f565b925092505092959194509250565b61458b816140cb565b811461459657600080fd5b50565b6000813590506145a881614582565b92915050565b6145b781614102565b81146145c257600080fd5b50565b6000813590506145d4816145ae565b92915050565b60008060008060008060c087890312156145f7576145f6613df0565b5b600061460589828a01613e43565b965050602061461689828a01613e43565b955050604061462789828a01613e79565b945050606061463889828a01614599565b935050608061464989828a016145c5565b92505060a061465a89828a016145c5565b9150509295509295509295565b6000806000606084860312156146805761467f613df0565b5b600061468e86828701613e43565b935050602061469f86828701614089565b92505060406146b086828701614089565b9150509250925092565b600080604083850312156146d1576146d0613df0565b5b60006146df85828601613e43565b92505060206146f085828601614089565b9150509250929050565b600080600080600080600060e0888a03121561471957614718613df0565b5b60006147278a828b01613e43565b97505060206147388a828b01613e43565b96505060406147498a828b01613e79565b955050606061475a8a828b01613e79565b945050608061476b8a828b01614599565b93505060a061477c8a828b016145c5565b92505060c061478d8a828b016145c5565b91505092959891949750929550565b600080604083850312156147b3576147b2613df0565b5b60006147c185828601613e43565b92505060206147d285828601613e43565b9150509250929050565b7f4e487b7100000000000000000000000000000000000000000000000000000000600052602260045260246000fd5b6000600282049050600182168061482357607f821691505b602082108103614836576148356147dc565b5b50919050565b7f4e487b7100000000000000000000000000000000000000000000000000000000600052603260045260246000fd5b7f4e487b7100000000000000000000000000000000000000000000000000000000600052601160045260246000fd5b60006148a582613e58565b91506148b083613e58565b9250827fffffffffffffffffffffffffffffffffffffffffffffffffffffffffffffffff038211156148e5576148e461486b565b5b828201905092915050565b7f4e487b7100000000000000000000000000000000000000000000000000000000600052604160045260246000fd5b600061492a82613e58565b91507fffffffffffffffffffffffffffffffffffffffffffffffffffffffffffffffff820361495c5761495b61486b565b5b600182019050919050565b7f5469636b65742f64656c65676174652d657870697265642d646561646c696e65600082015250565b600061499d602083613d40565b91506149a882614967565b602082019050919050565b600060208201905081810360008301526149cc81614990565b9050919050565b600060a0820190506149e8600083018861410c565b6149f560208301876144d7565b614a0260408301866144d7565b614a0f6060830185613f04565b614a1c6080830184613f04565b9695505050505050565b7f5469636b65742f64656c65676174652d696e76616c69642d7369676e6174757260008201527f6500000000000000000000000000000000000000000000000000000000000000602082015250565b6000614a82602183613d40565b9150614a8d82614a26565b604082019050919050565b60006020820190508181036000830152614ab181614a75565b9050919050565b7f45524332303a2064656372656173656420616c6c6f77616e63652062656c6f7760008201527f207a65726f000000000000000000000000000000000000000000000000000000602082015250565b6000614b14602583613d40565b9150614b1f82614ab8565b604082019050919050565b60006020820190508181036000830152614b4381614b07565b9050919050565b7f45524332305065726d69743a206578706972656420646561646c696e65000000600082015250565b6000614b80601d83613d40565b9150614b8b82614b4a565b602082019050919050565b60006020820190508181036000830152614baf81614b73565b9050919050565b600060c082019050614bcb600083018961410c565b614bd860208301886144d7565b614be560408301876144d7565b614bf26060830186613f04565b614bff6080830185613f04565b614c0c60a0830184613f04565b979650505050505050565b7f45524332305065726d69743a20696e76616c6964207369676e61747572650000600082015250565b6000614c4d601e83613d40565b9150614c5882614c17565b602082019050919050565b60006020820190508181036000830152614c7c81614c40565b9050919050565b7f45524332303a20617070726f76652066726f6d20746865207a65726f2061646460008201527f7265737300000000000000000000000000000000000000000000000000000000602082015250565b6000614cdf602483613d40565b9150614cea82614c83565b604082019050919050565b60006020820190508181036000830152614d0e81614cd2565b9050919050565b7f45524332303a20617070726f766520746f20746865207a65726f20616464726560008201527f7373000000000000000000000000000000000000000000000000000000000000602082015250565b6000614d71602283613d40565b9150614d7c82614d15565b604082019050919050565b60006020820190508181036000830152614da081614d64565b9050919050565b7f45524332303a20696e73756666696369656e7420616c6c6f77616e6365000000600082015250565b6000614ddd601d83613d40565b9150614de882614da7565b602082019050919050565b60006020820190508181036000830152614e0c81614dd0565b9050919050565b7f45524332303a207472616e736665722066726f6d20746865207a65726f20616460008201527f6472657373000000000000000000000000000000000000000000000000000000602082015250565b6000614e6f602583613d40565b9150614e7a82614e13565b604082019050919050565b60006020820190508181036000830152614e9e81614e62565b9050919050565b7f45524332303a207472616e7366657220746f20746865207a65726f206164647260008201527f6573730000000000000000000000000000000000000000000000000000000000602082015250565b6000614f01602383613d40565b9150614f0c82614ea5565b604082019050919050565b60006020820190508181036000830152614f3081614ef4565b9050919050565b7f45524332303a207472616e7366657220616d6f756e742065786365656473206260008201527f616c616e63650000000000000000000000000000000000000000000000000000602082015250565b6000614f93602683613d40565b9150614f9e82614f37565b604082019050919050565b60006020820190508181036000830152614fc281614f86565b9050919050565b7f5469636b65742f73746172742d656e642d74696d65732d6c656e6774682d6d6160008201527f7463680000000000000000000000000000000000000000000000000000000000602082015250565b6000615025602383613d40565b915061503082614fc9565b604082019050919050565b6000602082019050818103600083015261505481615018565b9050919050565b6000615066826141b0565b9150615071836141b0565b9250828210156150845761508361486b565b5b828203905092915050565b7f4e487b7100000000000000000000000000000000000000000000000000000000600052601260045260246000fd5b60006150c9826141b0565b91506150d4836141b0565b9250826150e4576150e361508f565b5b828204905092915050565b600060a082019050615104600083018861410c565b615111602083018761410c565b61511e604083018661410c565b61512b6060830185613f04565b61513860808301846144d7565b9695505050505050565b600081905092915050565b7f1901000000000000000000000000000000000000000000000000000000000000600082015250565b6000615183600283615142565b915061518e8261514d565b600282019050919050565b6000819050919050565b6151b46151af82614102565b615199565b82525050565b60006151c582615176565b91506151d182856151a3565b6020820191506151e182846151a3565b6020820191508190509392505050565b6000608082019050615206600083018761410c565b61521360208301866140d8565b615220604083018561410c565b61522d606083018461410c565b95945050505050565b7f4e487b7100000000000000000000000000000000000000000000000000000000600052602160045260246000fd5b7f45434453413a20696e76616c6964207369676e61747572650000000000000000600082015250565b600061529b601883613d40565b91506152a682615265565b602082019050919050565b600060208201905081810360008301526152ca8161528e565b9050919050565b7f45434453413a20696e76616c6964207369676e6174757265206c656e67746800600082015250565b6000615307601f83613d40565b9150615312826152d1565b602082019050919050565b60006020820190508181036000830152615336816152fa565b9050919050565b7f45434453413a20696e76616c6964207369676e6174757265202773272076616c60008201527f7565000000000000000000000000000000000000000000000000000000000000602082015250565b6000615399602283613d40565b91506153a48261533d565b604082019050919050565b600060208201905081810360008301526153c88161538c565b9050919050565b7f45434453413a20696e76616c6964207369676e6174757265202776272076616c60008201527f7565000000000000000000000000000000000000000000000000000000000000602082015250565b600061542b602283613d40565b9150615436826153cf565b604082019050919050565b6000602082019050818103600083015261545a8161541e565b9050919050565b600064ffffffffff82169050919050565b600061547d82615461565b915061548883615461565b92508264ffffffffff038211156154a2576154a161486b565b5b828201905092915050565b60006154b882613e58565b91506154c383613e58565b9250828210156154d6576154d561486b565b5b828203905092915050565b60006154ec82613e58565b91506154f783613e58565b9250826155075761550661508f565b5b828204905092915050565b600061551d826141e7565b9150615528836141e7565b92508282101561553b5761553a61486b565b5b828203905092915050565b600061555182613e58565b915061555c83613e58565b92508261556c5761556b61508f565b5b828206905092915050565b7f53616665436173743a2076616c756520646f65736e27742066697420696e203260008201527f3038206269747300000000000000000000000000000000000000000000000000602082015250565b60006155d3602783613d40565b91506155de82615577565b604082019050919050565b60006020820190508181036000830152615602816155c6565b9050919050565b600061561482613fae565b915061561f83613fae565b92508279ffffffffffffffffffffffffffffffffffffffffffffffffffff0382111561564e5761564d61486b565b5b828201905092915050565b6000615664826141b0565b915061566f836141b0565b9250817bffffffffffffffffffffffffffffffffffffffffffffffffffffffff04831182151516156156a4576156a361486b565b5b828202905092915050565b60006156ba826141b0565b91506156c5836141b0565b9250827bffffffffffffffffffffffffffffffffffffffffffffffffffffffff038211156156f6576156f561486b565b5b828201905092915050565b600061570c82613fe3565b915061571783613fe3565b92508262ffffff0382111561572f5761572e61486b565b5b82820190509291505056fe5469636b65742f6275726e2d616d6f756e742d657863656564732d746f74616c2d737570706c792d74776162a26469706673582212207e834c7c4baee26f310d76c8ba6e772f13942aad32d7c6f85ad385091826a58d64736f6c634300080f0033",
  "linkReferences": {},
  "deployedLinkReferences": {}
}