{
  "_format": "hh-sol-artifact-1",
  "contractName": "svg",
  "sourceName": "@web3-savings-cards/core-sol/contracts/svg/svg.sol",
  "abi": [
    {
      "inputs": [
        {
          "internalType": "bytes",
          "name": "_data",
          "type": "bytes"
        },
        {
          "internalType": "uint256",
          "name": "_offset",
          "type": "uint256"
        }
      ],
      "name": "byte2uint8",
      "outputs": [
        {
          "internalType": "uint8",
          "name": "",
          "type": "uint8"
        }
      ],
      "stateMutability": "pure",
      "type": "function"
    },
    {
      "inputs": [
        {
          "internalType": "bytes",
          "name": "_data",
          "type": "bytes"
        },
        {
          "internalType": "uint256",
          "name": "_offset",
          "type": "uint256"
        },
        {
          "internalType": "uint256",
          "name": "_len",
          "type": "uint256"
        }
      ],
      "name": "stringifyIntSet",
      "outputs": [
        {
          "internalType": "bytes",
          "name": "",
          "type": "bytes"
        }
      ],
      "stateMutability": "pure",
      "type": "function"
    }
  ],
  "bytecode": "0x6109e3610053600b82828239805160001a607314610046577f4e487b7100000000000000000000000000000000000000000000000000000000600052600060045260246000fd5b30600052607381538281f3fe73000000000000000000000000000000000000000030146080604052600436106100405760003560e01c80635119ce4b14610045578063c821f2ef14610075575b600080fd5b61005f600480360381019061005a91906104c5565b6100a5565b60405161006c919061053d565b60405180910390f35b61008f600480360381019061008a9190610558565b610113565b60405161009c919061064f565b60405180910390f35b6000818351116100ea576040517f08c379a00000000000000000000000000000000000000000000000000000000081526004016100e1906106ce565b60405180910390fd5b8282815181106100fd576100fc6106ee565b5b602001015160f81c60f81b60f81c905092915050565b6060808284610122919061074c565b85511015610165576040517f08c379a000000000000000000000000000000000000000000000000000000000815260040161015c906106ce565b60405180910390fd5b60008490505b8385610177919061074c565b8110156101c9578161019461018c88846100a5565b60ff166101d5565b6040516020016101a5929190610871565b604051602081830303815290604052915080806101c1906108a0565b91505061016b565b50809150509392505050565b60606000820361021c576040518060400160405280600181526020017f30000000000000000000000000000000000000000000000000000000000000008152509050610330565b600082905060005b6000821461024e578080610237906108a0565b915050600a826102479190610917565b9150610224565b60008167ffffffffffffffff81111561026a57610269610364565b5b6040519080825280601f01601f19166020018201604052801561029c5781602001600182028036833780820191505090505b5090505b60008514610329576001826102b59190610948565b9150600a856102c4919061097c565b60306102d0919061074c565b60f81b8183815181106102e6576102e56106ee565b5b60200101907effffffffffffffffffffffffffffffffffffffffffffffffffffffffffffff1916908160001a905350600a856103229190610917565b94506102a0565b8093505050505b919050565b6000604051905090565b600080fd5b600080fd5b600080fd5b600080fd5b6000601f19601f8301169050919050565b7f4e487b7100000000000000000000000000000000000000000000000000000000600052604160045260246000fd5b61039c82610353565b810181811067ffffffffffffffff821117156103bb576103ba610364565b5b80604052505050565b60006103ce610335565b90506103da8282610393565b919050565b600067ffffffffffffffff8211156103fa576103f9610364565b5b61040382610353565b9050602081019050919050565b82818337600083830152505050565b600061043261042d846103df565b6103c4565b90508281526020810184848401111561044e5761044d61034e565b5b610459848285610410565b509392505050565b600082601f83011261047657610475610349565b5b813561048684826020860161041f565b91505092915050565b6000819050919050565b6104a28161048f565b81146104ad57600080fd5b50565b6000813590506104bf81610499565b92915050565b600080604083850312156104dc576104db61033f565b5b600083013567ffffffffffffffff8111156104fa576104f9610344565b5b61050685828601610461565b9250506020610517858286016104b0565b9150509250929050565b600060ff82169050919050565b61053781610521565b82525050565b6000602082019050610552600083018461052e565b92915050565b6000806000606084860312156105715761057061033f565b5b600084013567ffffffffffffffff81111561058f5761058e610344565b5b61059b86828701610461565b93505060206105ac868287016104b0565b92505060406105bd868287016104b0565b9150509250925092565b600081519050919050565b600082825260208201905092915050565b60005b838110156106015780820151818401526020810190506105e6565b83811115610610576000848401525b50505050565b6000610621826105c7565b61062b81856105d2565b935061063b8185602086016105e3565b61064481610353565b840191505092915050565b600060208201905081810360008301526106698184610616565b905092915050565b600082825260208201905092915050565b7f4f7574206f662072616e67650000000000000000000000000000000000000000600082015250565b60006106b8600c83610671565b91506106c382610682565b602082019050919050565b600060208201905081810360008301526106e7816106ab565b9050919050565b7f4e487b7100000000000000000000000000000000000000000000000000000000600052603260045260246000fd5b7f4e487b7100000000000000000000000000000000000000000000000000000000600052601160045260246000fd5b60006107578261048f565b91506107628361048f565b9250827fffffffffffffffffffffffffffffffffffffffffffffffffffffffffffffffff038211156107975761079661071d565b5b828201905092915050565b600081905092915050565b60006107b8826105c7565b6107c281856107a2565b93506107d28185602086016105e3565b80840191505092915050565b600081519050919050565b600081905092915050565b60006107ff826107de565b61080981856107e9565b93506108198185602086016105e3565b80840191505092915050565b7f2000000000000000000000000000000000000000000000000000000000000000600082015250565b600061085b6001836107e9565b915061086682610825565b600182019050919050565b600061087d82856107ad565b915061088982846107f4565b91506108948261084e565b91508190509392505050565b60006108ab8261048f565b91507fffffffffffffffffffffffffffffffffffffffffffffffffffffffffffffffff82036108dd576108dc61071d565b5b600182019050919050565b7f4e487b7100000000000000000000000000000000000000000000000000000000600052601260045260246000fd5b60006109228261048f565b915061092d8361048f565b92508261093d5761093c6108e8565b5b828204905092915050565b60006109538261048f565b915061095e8361048f565b9250828210156109715761097061071d565b5b828203905092915050565b60006109878261048f565b91506109928361048f565b9250826109a2576109a16108e8565b5b82820690509291505056fea264697066735822122032616fa613eaf8ac060902eb550ca3576258d84db7b2077d531d540e120bb9f264736f6c634300080f0033",
  "linkReferences": {},
  "deployedLinkReferences": {}
}