{
  "_format": "hh-sol-artifact-1",
  "contractName": "ObservationLib",
  "sourceName": "@web3-savings-cards/core-sol/contracts/twab/ObservationLib.sol",
  "abi": [
    {
      "inputs": [],
      "name": "MAX_CARDINALITY",
      "outputs": [
        {
          "internalType": "uint24",
          "name": "",
          "type": "uint24"
        }
      ],
      "stateMutability": "view",
      "type": "function"
    }
  ],
  "bytecode": "0x60c4610052600b82828239805160001a607314610045577f4e487b7100000000000000000000000000000000000000000000000000000000600052600060045260246000fd5b30600052607381538281f3fe730000000000000000000000000000000000000000301460806040526004361060335760003560e01c80638200d873146038575b600080fd5b603e6052565b604051604991906075565b60405180910390f35b62ffffff81565b600062ffffff82169050919050565b606f816059565b82525050565b6000602082019050608860008301846068565b9291505056fea264697066735822122086b076e0329827da7fc43b42485cb8b5ddebce5c1b1e308e4a554dcd67d947a464736f6c634300080f0033",
  "linkReferences": {},
  "deployedLinkReferences": {}
}