{
  "_format": "hh-sol-artifact-1",
  "contractName": "RolesAuthority",
  "sourceName": "contracts/Solbase/auth/authorities/RolesAuthority.sol",
  "abi": [
    {
      "inputs": [
        {
          "internalType": "address",
          "name": "_owner",
          "type": "address"
        },
        {
          "internalType": "contract Authority",
          "name": "_authority",
          "type": "address"
        }
      ],
      "stateMutability": "nonpayable",
      "type": "constructor"
    },
    {
      "inputs": [],
      "name": "Unauthorized",
      "type": "error"
    },
    {
      "anonymous": false,
      "inputs": [
        {
          "indexed": true,
          "internalType": "address",
          "name": "user",
          "type": "address"
        },
        {
          "indexed": true,
          "internalType": "contract Authority",
          "name": "newAuthority",
          "type": "address"
        }
      ],
      "name": "AuthorityUpdated",
      "type": "event"
    },
    {
      "anonymous": false,
      "inputs": [
        {
          "indexed": true,
          "internalType": "address",
          "name": "user",
          "type": "address"
        },
        {
          "indexed": true,
          "internalType": "address",
          "name": "newOwner",
          "type": "address"
        }
      ],
      "name": "OwnershipTransferred",
      "type": "event"
    },
    {
      "anonymous": false,
      "inputs": [
        {
          "indexed": true,
          "internalType": "address",
          "name": "target",
          "type": "address"
        },
        {
          "indexed": true,
          "internalType": "bytes4",
          "name": "functionSig",
          "type": "bytes4"
        },
        {
          "indexed": false,
          "internalType": "bool",
          "name": "enabled",
          "type": "bool"
        }
      ],
      "name": "PublicCapabilityUpdated",
      "type": "event"
    },
    {
      "anonymous": false,
      "inputs": [
        {
          "indexed": true,
          "internalType": "uint8",
          "name": "role",
          "type": "uint8"
        },
        {
          "indexed": true,
          "internalType": "address",
          "name": "target",
          "type": "address"
        },
        {
          "indexed": true,
          "internalType": "bytes4",
          "name": "functionSig",
          "type": "bytes4"
        },
        {
          "indexed": false,
          "internalType": "bool",
          "name": "enabled",
          "type": "bool"
        }
      ],
      "name": "RoleCapabilityUpdated",
      "type": "event"
    },
    {
      "anonymous": false,
      "inputs": [
        {
          "indexed": true,
          "internalType": "address",
          "name": "user",
          "type": "address"
        },
        {
          "indexed": true,
          "internalType": "uint8",
          "name": "role",
          "type": "uint8"
        },
        {
          "indexed": false,
          "internalType": "bool",
          "name": "enabled",
          "type": "bool"
        }
      ],
      "name": "UserRoleUpdated",
      "type": "event"
    },
    {
      "inputs": [],
      "name": "authority",
      "outputs": [
        {
          "internalType": "contract Authority",
          "name": "",
          "type": "address"
        }
      ],
      "stateMutability": "view",
      "type": "function"
    },
    {
      "inputs": [
        {
          "internalType": "address",
          "name": "user",
          "type": "address"
        },
        {
          "internalType": "address",
          "name": "target",
          "type": "address"
        },
        {
          "internalType": "bytes4",
          "name": "functionSig",
          "type": "bytes4"
        }
      ],
      "name": "canCall",
      "outputs": [
        {
          "internalType": "bool",
          "name": "",
          "type": "bool"
        }
      ],
      "stateMutability": "view",
      "type": "function"
    },
    {
      "inputs": [
        {
          "internalType": "uint8",
          "name": "role",
          "type": "uint8"
        },
        {
          "internalType": "address",
          "name": "target",
          "type": "address"
        },
        {
          "internalType": "bytes4",
          "name": "functionSig",
          "type": "bytes4"
        }
      ],
      "name": "doesRoleHaveCapability",
      "outputs": [
        {
          "internalType": "bool",
          "name": "",
          "type": "bool"
        }
      ],
      "stateMutability": "view",
      "type": "function"
    },
    {
      "inputs": [
        {
          "internalType": "address",
          "name": "user",
          "type": "address"
        },
        {
          "internalType": "uint8",
          "name": "role",
          "type": "uint8"
        }
      ],
      "name": "doesUserHaveRole",
      "outputs": [
        {
          "internalType": "bool",
          "name": "",
          "type": "bool"
        }
      ],
      "stateMutability": "view",
      "type": "function"
    },
    {
      "inputs": [
        {
          "internalType": "address",
          "name": "",
          "type": "address"
        },
        {
          "internalType": "bytes4",
          "name": "",
          "type": "bytes4"
        }
      ],
      "name": "getRolesWithCapability",
      "outputs": [
        {
          "internalType": "bytes32",
          "name": "",
          "type": "bytes32"
        }
      ],
      "stateMutability": "view",
      "type": "function"
    },
    {
      "inputs": [
        {
          "internalType": "address",
          "name": "",
          "type": "address"
        }
      ],
      "name": "getUserRoles",
      "outputs": [
        {
          "internalType": "bytes32",
          "name": "",
          "type": "bytes32"
        }
      ],
      "stateMutability": "view",
      "type": "function"
    },
    {
      "inputs": [
        {
          "internalType": "address",
          "name": "",
          "type": "address"
        },
        {
          "internalType": "bytes4",
          "name": "",
          "type": "bytes4"
        }
      ],
      "name": "isCapabilityPublic",
      "outputs": [
        {
          "internalType": "bool",
          "name": "",
          "type": "bool"
        }
      ],
      "stateMutability": "view",
      "type": "function"
    },
    {
      "inputs": [],
      "name": "owner",
      "outputs": [
        {
          "internalType": "address",
          "name": "",
          "type": "address"
        }
      ],
      "stateMutability": "view",
      "type": "function"
    },
    {
      "inputs": [
        {
          "internalType": "contract Authority",
          "name": "newAuthority",
          "type": "address"
        }
      ],
      "name": "setAuthority",
      "outputs": [],
      "stateMutability": "payable",
      "type": "function"
    },
    {
      "inputs": [
        {
          "internalType": "address",
          "name": "target",
          "type": "address"
        },
        {
          "internalType": "bytes4",
          "name": "functionSig",
          "type": "bytes4"
        },
        {
          "internalType": "bool",
          "name": "enabled",
          "type": "bool"
        }
      ],
      "name": "setPublicCapability",
      "outputs": [],
      "stateMutability": "nonpayable",
      "type": "function"
    },
    {
      "inputs": [
        {
          "internalType": "uint8",
          "name": "role",
          "type": "uint8"
        },
        {
          "internalType": "address",
          "name": "target",
          "type": "address"
        },
        {
          "internalType": "bytes4",
          "name": "functionSig",
          "type": "bytes4"
        },
        {
          "internalType": "bool",
          "name": "enabled",
          "type": "bool"
        }
      ],
      "name": "setRoleCapability",
      "outputs": [],
      "stateMutability": "nonpayable",
      "type": "function"
    },
    {
      "inputs": [
        {
          "internalType": "address",
          "name": "user",
          "type": "address"
        },
        {
          "internalType": "uint8",
          "name": "role",
          "type": "uint8"
        },
        {
          "internalType": "bool",
          "name": "enabled",
          "type": "bool"
        }
      ],
      "name": "setUserRole",
      "outputs": [],
      "stateMutability": "nonpayable",
      "type": "function"
    },
    {
      "inputs": [
        {
          "internalType": "address",
          "name": "newOwner",
          "type": "address"
        }
      ],
      "name": "transferOwnership",
      "outputs": [],
      "stateMutability": "nonpayable",
      "type": "function"
    }
  ],
  "bytecode": "0x608060405234801561001057600080fd5b50604051610c14380380610c1483398101604081905261002f916100e1565b600080546001600160a01b03199081166001600160a01b0385811691821784556001805490931690851617909155604051849284929133917f8be0079c531659141344cd1fd0a4f28419497f9722a3daafe3b4186f6b6457e091a36040516001600160a01b0382169033907fa3396fd7f6e0a21b50e5089d2da70d5ac0a3bbbd1f617a93f134b7638998019890600090a35050505061011b565b6001600160a01b03811681146100de57600080fd5b50565b600080604083850312156100f457600080fd5b82516100ff816100c9565b6020840151909250610110816100c9565b809150509250929050565b610aea8061012a6000396000f3fe6080604052600436106100c25760003560e01c80638da5cb5b1161007f578063bf7e214f11610059578063bf7e214f14610291578063c6b0263e146102b1578063ea7ca276146102d1578063f2fde38b1461031557600080fd5b80638da5cb5b146101df578063b4bad06a14610217578063b70096131461027157600080fd5b806306a36aee146100c75780632f47571f1461010757806367aff484146101525780637917b794146101745780637a9e5e4b146101ac5780637d40583d146101bf575b600080fd5b3480156100d357600080fd5b506100f46100e2366004610875565b60026020526000908152604090205481565b6040519081526020015b60405180910390f35b34801561011357600080fd5b506101426101223660046108b6565b600360209081526000928352604080842090915290825290205460ff1681565b60405190151581526020016100fe565b34801561015e57600080fd5b5061017261016d36600461090a565b610335565b005b34801561018057600080fd5b506100f461018f3660046108b6565b600460209081526000928352604080842090915290825290205481565b6101726101ba366004610875565b61040a565b3480156101cb57600080fd5b506101726101da366004610953565b61050c565b3480156101eb57600080fd5b506000546101ff906001600160a01b031681565b6040516001600160a01b0390911681526020016100fe565b34801561022357600080fd5b506101426102323660046109ab565b6001600160a01b039190911660009081526004602090815260408083206001600160e01b031990941683529290522054600160ff929092161c16151590565b34801561027d57600080fd5b5061014261028c3660046109f0565b610617565b34801561029d57600080fd5b506001546101ff906001600160a01b031681565b3480156102bd57600080fd5b506101726102cc366004610a10565b610696565b3480156102dd57600080fd5b506101426102ec366004610a3e565b6001600160a01b0391909116600090815260026020526040902054600160ff9092161c16151590565b34801561032157600080fd5b50610172610330366004610875565b610737565b61034b336000356001600160e01b0319166107b4565b610367576040516282b42960e81b815260040160405180910390fd5b8015610396576001600160a01b03831660009081526002602052604090208054600160ff85161b1790556103bc565b6001600160a01b03831660009081526002602052604090208054600160ff85161b191690555b8160ff16836001600160a01b03167f4c9bdd0c8e073eb5eda2250b18d8e5121ff27b62064fbeeeed4869bb99bc5bf2836040516103fd911515815260200190565b60405180910390a3505050565b6000546001600160a01b031633148015906104a3575060015460405163b700961360e01b81526001600160a01b039091169063b70096139061046090339030906001600160e01b03196000351690600401610a6a565b602060405180830381865afa15801561047d573d6000803e3d6000fd5b505050506040513d601f19601f820116820180604052508101906104a19190610a97565b155b156104c0576040516282b42960e81b815260040160405180910390fd5b600180546001600160a01b0319166001600160a01b03831690811790915560405133907fa3396fd7f6e0a21b50e5089d2da70d5ac0a3bbbd1f617a93f134b7638998019890600090a350565b610522336000356001600160e01b0319166107b4565b61053e576040516282b42960e81b815260040160405180910390fd5b8015610582576001600160a01b03831660009081526004602090815260408083206001600160e01b03198616845290915290208054600160ff87161b1790556105bd565b6001600160a01b03831660009081526004602090815260408083206001600160e01b03198616845290915290208054600160ff87161b191690555b816001600160e01b031916836001600160a01b03168560ff167fa52ea92e6e955aa8ac66420b86350f7139959adfcc7e6a14eee1bd116d09860e84604051610609911515815260200190565b60405180910390a450505050565b6001600160a01b03821660009081526003602090815260408083206001600160e01b03198516845290915281205460ff168061068e57506001600160a01b0380841660009081526004602090815260408083206001600160e01b031987168452825280832054938816835260029091529020541615155b949350505050565b6106ac336000356001600160e01b0319166107b4565b6106c8576040516282b42960e81b815260040160405180910390fd5b6001600160a01b03831660008181526003602090815260408083206001600160e01b0319871680855290835292819020805460ff191686151590811790915590519081529192917f950a343f5d10445e82a71036d3f4fb3016180a25805141932543b83e2078a93e91016103fd565b61074d336000356001600160e01b0319166107b4565b610769576040516282b42960e81b815260040160405180910390fd5b600080546001600160a01b0319166001600160a01b0383169081178255604051909133917f8be0079c531659141344cd1fd0a4f28419497f9722a3daafe3b4186f6b6457e09190a350565b6001546000906001600160a01b0316801580159061083e575060405163b700961360e01b81526001600160a01b0382169063b7009613906107fd90879030908890600401610a6a565b602060405180830381865afa15801561081a573d6000803e3d6000fd5b505050506040513d601f19601f8201168201806040525081019061083e9190610a97565b8061068e57506000546001600160a01b03858116911614949350505050565b6001600160a01b038116811461087257600080fd5b50565b60006020828403121561088757600080fd5b81356108928161085d565b9392505050565b80356001600160e01b0319811681146108b157600080fd5b919050565b600080604083850312156108c957600080fd5b82356108d48161085d565b91506108e260208401610899565b90509250929050565b803560ff811681146108b157600080fd5b801515811461087257600080fd5b60008060006060848603121561091f57600080fd5b833561092a8161085d565b9250610938602085016108eb565b91506040840135610948816108fc565b809150509250925092565b6000806000806080858703121561096957600080fd5b610972856108eb565b935060208501356109828161085d565b925061099060408601610899565b915060608501356109a0816108fc565b939692955090935050565b6000806000606084860312156109c057600080fd5b6109c9846108eb565b925060208401356109d98161085d565b91506109e760408501610899565b90509250925092565b600080600060608486031215610a0557600080fd5b83356109c98161085d565b600080600060608486031215610a2557600080fd5b8335610a308161085d565b925061093860208501610899565b60008060408385031215610a5157600080fd5b8235610a5c8161085d565b91506108e2602084016108eb565b6001600160a01b0393841681529190921660208201526001600160e01b0319909116604082015260600190565b600060208284031215610aa957600080fd5b8151610892816108fc56fea26469706673582212203bdc0c961146e25e3fa05d1eecc7c3366396a5cf51719fea848bbf55b9ba570a64736f6c634300080f0033",
  "linkReferences": {},
  "deployedLinkReferences": {}
}