{
  "_format": "hh-sol-artifact-1",
  "contractName": "Web3CardActivator",
  "sourceName": "@web3-savings-cards/core-sol/contracts/Web3CardActivator.sol",
  "abi": [
    {
      "inputs": [
        {
          "internalType": "address",
          "name": "admin",
          "type": "address"
        },
        {
          "internalType": "address",
          "name": "_erc721KInstance",
          "type": "address"
        },
        {
          "internalType": "address",
          "name": "_erc721KDesignInstance",
          "type": "address"
        }
      ],
      "stateMutability": "nonpayable",
      "type": "constructor"
    },
    {
      "inputs": [],
      "name": "Unauthorized",
      "type": "error"
    },
    {
      "anonymous": false,
      "inputs": [
        {
          "indexed": true,
          "internalType": "address",
          "name": "user",
          "type": "address"
        },
        {
          "indexed": true,
          "internalType": "address",
          "name": "newOwner",
          "type": "address"
        }
      ],
      "name": "OwnershipTransferred",
      "type": "event"
    },
    {
      "inputs": [
        {
          "internalType": "address",
          "name": "to",
          "type": "address"
        }
      ],
      "name": "activate",
      "outputs": [],
      "stateMutability": "nonpayable",
      "type": "function"
    },
    {
      "inputs": [
        {
          "internalType": "address",
          "name": "to",
          "type": "address"
        },
        {
          "internalType": "uint8",
          "name": "color",
          "type": "uint8"
        },
        {
          "internalType": "uint8",
          "name": "emoji",
          "type": "uint8"
        }
      ],
      "name": "activateWithStyle",
      "outputs": [],
      "stateMutability": "payable",
      "type": "function"
    },
    {
      "inputs": [],
      "name": "erc721KDesignInstance",
      "outputs": [
        {
          "internalType": "address",
          "name": "",
          "type": "address"
        }
      ],
      "stateMutability": "view",
      "type": "function"
    },
    {
      "inputs": [],
      "name": "erc721KInstance",
      "outputs": [
        {
          "internalType": "address",
          "name": "",
          "type": "address"
        }
      ],
      "stateMutability": "view",
      "type": "function"
    },
    {
      "inputs": [],
      "name": "owner",
      "outputs": [
        {
          "internalType": "address",
          "name": "",
          "type": "address"
        }
      ],
      "stateMutability": "view",
      "type": "function"
    },
    {
      "inputs": [
        {
          "internalType": "uint256",
          "name": "amount",
          "type": "uint256"
        }
      ],
      "name": "release",
      "outputs": [],
      "stateMutability": "nonpayable",
      "type": "function"
    },
    {
      "inputs": [
        {
          "internalType": "address",
          "name": "newOwner",
          "type": "address"
        }
      ],
      "name": "transferOwnership",
      "outputs": [],
      "stateMutability": "payable",
      "type": "function"
    }
  ],
  "bytecode": "0x608060405234801561001057600080fd5b50604051610cf8380380610cf8833981810160405281019061003291906101bc565b82806000806101000a81548173ffffffffffffffffffffffffffffffffffffffff021916908373ffffffffffffffffffffffffffffffffffffffff1602179055508073ffffffffffffffffffffffffffffffffffffffff16600073ffffffffffffffffffffffffffffffffffffffff167f8be0079c531659141344cd1fd0a4f28419497f9722a3daafe3b4186f6b6457e060405160405180910390a35081600160006101000a81548173ffffffffffffffffffffffffffffffffffffffff021916908373ffffffffffffffffffffffffffffffffffffffff16021790555080600260006101000a81548173ffffffffffffffffffffffffffffffffffffffff021916908373ffffffffffffffffffffffffffffffffffffffff16021790555050505061020f565b600080fd5b600073ffffffffffffffffffffffffffffffffffffffff82169050919050565b60006101898261015e565b9050919050565b6101998161017e565b81146101a457600080fd5b50565b6000815190506101b681610190565b92915050565b6000806000606084860312156101d5576101d4610159565b5b60006101e3868287016101a7565b93505060206101f4868287016101a7565b9250506040610205868287016101a7565b9150509250925092565b610ada8061021e6000396000f3fe6080604052600436106100705760003560e01c80638da5cb5b1161004e5780638da5cb5b146100f2578063a3df94471461011d578063f009cec814610139578063f2fde38b1461016457610070565b80631c5a9d9c1461007557806337bdc99b1461009e5780636795a874146100c7575b600080fd5b34801561008157600080fd5b5061009c600480360381019061009791906106e6565b610180565b005b3480156100aa57600080fd5b506100c560048036038101906100c09190610749565b610222565b005b3480156100d357600080fd5b506100dc610357565b6040516100e99190610785565b60405180910390f35b3480156100fe57600080fd5b5061010761037d565b6040516101149190610785565b60405180910390f35b610137600480360381019061013291906107d9565b6103a1565b005b34801561014557600080fd5b5061014e61053b565b60405161015b9190610785565b60405180910390f35b61017e600480360381019061017991906106e6565b610561565b005b600160009054906101000a900473ffffffffffffffffffffffffffffffffffffffff1673ffffffffffffffffffffffffffffffffffffffff16636a627842826040518263ffffffff1660e01b81526004016101db9190610785565b6020604051808303816000875af11580156101fa573d6000803e3d6000fd5b505050506040513d601f19601f8201168201806040525081019061021e9190610841565b5050565b60008054906101000a900473ffffffffffffffffffffffffffffffffffffffff1673ffffffffffffffffffffffffffffffffffffffff163373ffffffffffffffffffffffffffffffffffffffff16146102a7576040517f82b4290000000000000000000000000000000000000000000000000000000000815260040160405180910390fd5b60003373ffffffffffffffffffffffffffffffffffffffff16826040516102cd9061089f565b60006040518083038185875af1925050503d806000811461030a576040519150601f19603f3d011682016040523d82523d6000602084013e61030f565b606091505b5050905080610353576040517f08c379a000000000000000000000000000000000000000000000000000000000815260040161034a90610937565b60405180910390fd5b5050565b600160009054906101000a900473ffffffffffffffffffffffffffffffffffffffff1681565b60008054906101000a900473ffffffffffffffffffffffffffffffffffffffff1681565b600181836103af9190610986565b60ff161061040257662386f26fc10000341015610401576040517f08c379a00000000000000000000000000000000000000000000000000000000081526004016103f890610a2f565b60405180910390fd5b5b6000600160009054906101000a900473ffffffffffffffffffffffffffffffffffffffff1673ffffffffffffffffffffffffffffffffffffffff16636a627842856040518263ffffffff1660e01b815260040161045f9190610785565b6020604051808303816000875af115801561047e573d6000803e3d6000fd5b505050506040513d601f19601f820116820180604052508101906104a29190610841565b9050600260009054906101000a900473ffffffffffffffffffffffffffffffffffffffff1673ffffffffffffffffffffffffffffffffffffffff16630cd5391e8285856040518463ffffffff1660e01b815260040161050393929190610a6d565b600060405180830381600087803b15801561051d57600080fd5b505af1158015610531573d6000803e3d6000fd5b5050505050505050565b600260009054906101000a900473ffffffffffffffffffffffffffffffffffffffff1681565b60008054906101000a900473ffffffffffffffffffffffffffffffffffffffff1673ffffffffffffffffffffffffffffffffffffffff163373ffffffffffffffffffffffffffffffffffffffff16146105e6576040517f82b4290000000000000000000000000000000000000000000000000000000000815260040160405180910390fd5b806000806101000a81548173ffffffffffffffffffffffffffffffffffffffff021916908373ffffffffffffffffffffffffffffffffffffffff1602179055508073ffffffffffffffffffffffffffffffffffffffff163373ffffffffffffffffffffffffffffffffffffffff167f8be0079c531659141344cd1fd0a4f28419497f9722a3daafe3b4186f6b6457e060405160405180910390a350565b600080fd5b600073ffffffffffffffffffffffffffffffffffffffff82169050919050565b60006106b382610688565b9050919050565b6106c3816106a8565b81146106ce57600080fd5b50565b6000813590506106e0816106ba565b92915050565b6000602082840312156106fc576106fb610683565b5b600061070a848285016106d1565b91505092915050565b6000819050919050565b61072681610713565b811461073157600080fd5b50565b6000813590506107438161071d565b92915050565b60006020828403121561075f5761075e610683565b5b600061076d84828501610734565b91505092915050565b61077f816106a8565b82525050565b600060208201905061079a6000830184610776565b92915050565b600060ff82169050919050565b6107b6816107a0565b81146107c157600080fd5b50565b6000813590506107d3816107ad565b92915050565b6000806000606084860312156107f2576107f1610683565b5b6000610800868287016106d1565b9350506020610811868287016107c4565b9250506040610822868287016107c4565b9150509250925092565b60008151905061083b8161071d565b92915050565b60006020828403121561085757610856610683565b5b60006108658482850161082c565b91505092915050565b600081905092915050565b50565b600061088960008361086e565b915061089482610879565b600082019050919050565b60006108aa8261087c565b9150819050919050565b600082825260208201905092915050565b7f5765623343617264416374697661746f723a6574682d72656c656173652d666160008201527f696c656400000000000000000000000000000000000000000000000000000000602082015250565b60006109216024836108b4565b915061092c826108c5565b604082019050919050565b6000602082019050818103600083015261095081610914565b9050919050565b7f4e487b7100000000000000000000000000000000000000000000000000000000600052601160045260246000fd5b6000610991826107a0565b915061099c836107a0565b92508260ff038211156109b2576109b1610957565b5b828201905092915050565b7f5765623343617264416374697661746f723a696e73756666696369656e742d6560008201527f7468000000000000000000000000000000000000000000000000000000000000602082015250565b6000610a196022836108b4565b9150610a24826109bd565b604082019050919050565b60006020820190508181036000830152610a4881610a0c565b9050919050565b610a5881610713565b82525050565b610a67816107a0565b82525050565b6000606082019050610a826000830186610a4f565b610a8f6020830185610a5e565b610a9c6040830184610a5e565b94935050505056fea26469706673582212200c1e3e921af734cc73a6a7b34fcdef3a0480ff1f2385a8c01ee8d33fe87b2ee464736f6c634300080f0033",
  "linkReferences": {},
  "deployedLinkReferences": {}
}