{
  "address": "0x5FC8d32690cc91D4c39d9d3abcBD16989F875707",
  "abi": [
    {
      "inputs": [
        {
          "internalType": "address",
          "name": "_svgLibrary_",
          "type": "address"
        }
      ],
      "stateMutability": "nonpayable",
      "type": "constructor"
    },
    {
      "anonymous": false,
      "inputs": [
        {
          "indexed": true,
          "internalType": "address",
          "name": "previousOwner",
          "type": "address"
        },
        {
          "indexed": true,
          "internalType": "address",
          "name": "newOwner",
          "type": "address"
        }
      ],
      "name": "OwnershipTransferred",
      "type": "event"
    },
    {
      "inputs": [
        {
          "internalType": "bytes",
          "name": "_input",
          "type": "bytes"
        }
      ],
      "name": "decode",
      "outputs": [
        {
          "internalType": "string",
          "name": "",
          "type": "string"
        }
      ],
      "stateMutability": "view",
      "type": "function"
    },
    {
      "inputs": [
        {
          "internalType": "uint8",
          "name": "position",
          "type": "uint8"
        },
        {
          "internalType": "uint8",
          "name": "slot",
          "type": "uint8"
        }
      ],
      "name": "getAsset",
      "outputs": [
        {
          "internalType": "string",
          "name": "",
          "type": "string"
        }
      ],
      "stateMutability": "view",
      "type": "function"
    },
    {
      "inputs": [],
      "name": "getEncoding",
      "outputs": [
        {
          "internalType": "string",
          "name": "",
          "type": "string"
        }
      ],
      "stateMutability": "view",
      "type": "function"
    },
    {
      "inputs": [],
      "name": "owner",
      "outputs": [
        {
          "internalType": "address",
          "name": "",
          "type": "address"
        }
      ],
      "stateMutability": "view",
      "type": "function"
    },
    {
      "inputs": [],
      "name": "renounceOwnership",
      "outputs": [],
      "stateMutability": "nonpayable",
      "type": "function"
    },
    {
      "inputs": [
        {
          "internalType": "uint8",
          "name": "_element",
          "type": "uint8"
        },
        {
          "internalType": "uint8",
          "name": "_position",
          "type": "uint8"
        },
        {
          "internalType": "string",
          "name": "_svg",
          "type": "string"
        }
      ],
      "name": "setAsset",
      "outputs": [],
      "stateMutability": "nonpayable",
      "type": "function"
    },
    {
      "inputs": [
        {
          "internalType": "address",
          "name": "newOwner",
          "type": "address"
        }
      ],
      "name": "transferOwnership",
      "outputs": [],
      "stateMutability": "nonpayable",
      "type": "function"
    }
  ],
  "transactionHash": "0xcf4f88e1e7e886fbc274fd4081eea0574f09dce917c6ea31050378ec3a6721d9",
  "args": [
    "0xCf7Ed3AccA5a467e9e704C703E8D87F634fB0Fc9"
  ],
  "numDeployments": 1,
  "solcInputHash": "4ef37faf7dd3b7fa520c15f0e8cdad15",
  "bytecode": "0x60c0604052600e60809081526d2875696e74382c2075696e74382960901b60a05260019061002d9082610157565b5034801561003a57600080fd5b50604051610aba380380610aba83398101604081905261005991610216565b61006233610068565b50610246565b600080546001600160a01b038381166001600160a01b0319831681178455604051919092169283917f8be0079c531659141344cd1fd0a4f28419497f9722a3daafe3b4186f6b6457e09190a35050565b634e487b7160e01b600052604160045260246000fd5b600181811c908216806100e257607f821691505b60208210810361010257634e487b7160e01b600052602260045260246000fd5b50919050565b601f82111561015257600081815260208120601f850160051c8101602086101561012f5750805b601f850160051c820191505b8181101561014e5782815560010161013b565b5050505b505050565b81516001600160401b03811115610170576101706100b8565b6101848161017e84546100ce565b84610108565b602080601f8311600181146101b957600084156101a15750858301515b600019600386901b1c1916600185901b17855561014e565b600085815260208120601f198616915b828110156101e8578886015182559484019460019091019084016101c9565b50858210156102065787850151600019600388901b60f8161c191681555b5050505050600190811b01905550565b60006020828403121561022857600080fd5b81516001600160a01b038116811461023f57600080fd5b9392505050565b610865806102556000396000f3fe608060405234801561001057600080fd5b506004361061007d5760003560e01c8063a641f3d01161005b578063a641f3d0146100bf578063b1cd921f146100df578063e5c5e9a3146100e7578063f2fde38b146100fa57600080fd5b8063715018a6146100825780638ae98cf71461008c5780638da5cb5b1461009f575b600080fd5b61008a61010d565b005b61008a61009a366004610532565b610121565b6000546040516001600160a01b0390911681526020015b60405180910390f35b6100d26100cd3660046105a8565b610158565b6040516100b691906105e1565b6100d261020c565b6100d26100f5366004610636565b61029e565b61008a610108366004610687565b61036f565b6101156103ed565b61011f6000610447565b565b6101296103ed565b60ff80841660009081526002602090815260408083209386168352929052206101528282610740565b50505050565b60ff8083166000908152600260209081526040808320938516835292905220805460609190610186906106b7565b80601f01602080910402602001604051908101604052809291908181526020018280546101b2906106b7565b80156101ff5780601f106101d4576101008083540402835291602001916101ff565b820191906000526020600020905b8154815290600101906020018083116101e257829003601f168201915b5050505050905092915050565b60606001805461021b906106b7565b80601f0160208091040260200160405190810160405280929190818152602001828054610247906106b7565b80156102945780601f1061026957610100808354040283529160200191610294565b820191906000526020600020905b81548152906001019060200180831161027757829003601f168201915b5050505050905090565b6060600080838060200190518101906102b79190610800565b60ff80831660009081526002602090815260408083209385168352929052208054929450909250906102e8906106b7565b80601f0160208091040260200160405190810160405280929190818152602001828054610314906106b7565b80156103615780601f1061033657610100808354040283529160200191610361565b820191906000526020600020905b81548152906001019060200180831161034457829003601f168201915b505050505092505050919050565b6103776103ed565b6001600160a01b0381166103e15760405162461bcd60e51b815260206004820152602660248201527f4f776e61626c653a206e6577206f776e657220697320746865207a65726f206160448201526564647265737360d01b60648201526084015b60405180910390fd5b6103ea81610447565b50565b6000546001600160a01b0316331461011f5760405162461bcd60e51b815260206004820181905260248201527f4f776e61626c653a2063616c6c6572206973206e6f7420746865206f776e657260448201526064016103d8565b600080546001600160a01b038381166001600160a01b0319831681178455604051919092169283917f8be0079c531659141344cd1fd0a4f28419497f9722a3daafe3b4186f6b6457e09190a35050565b60ff811681146103ea57600080fd5b634e487b7160e01b600052604160045260246000fd5b600067ffffffffffffffff808411156104d7576104d76104a6565b604051601f8501601f19908116603f011681019082821181831017156104ff576104ff6104a6565b8160405280935085815286868601111561051857600080fd5b858560208301376000602087830101525050509392505050565b60008060006060848603121561054757600080fd5b833561055281610497565b9250602084013561056281610497565b9150604084013567ffffffffffffffff81111561057e57600080fd5b8401601f8101861361058f57600080fd5b61059e868235602084016104bc565b9150509250925092565b600080604083850312156105bb57600080fd5b82356105c681610497565b915060208301356105d681610497565b809150509250929050565b600060208083528351808285015260005b8181101561060e578581018301518582016040015282016105f2565b81811115610620576000604083870101525b50601f01601f1916929092016040019392505050565b60006020828403121561064857600080fd5b813567ffffffffffffffff81111561065f57600080fd5b8201601f8101841361067057600080fd5b61067f848235602084016104bc565b949350505050565b60006020828403121561069957600080fd5b81356001600160a01b03811681146106b057600080fd5b9392505050565b600181811c908216806106cb57607f821691505b6020821081036106eb57634e487b7160e01b600052602260045260246000fd5b50919050565b601f82111561073b57600081815260208120601f850160051c810160208610156107185750805b601f850160051c820191505b8181101561073757828155600101610724565b5050505b505050565b815167ffffffffffffffff81111561075a5761075a6104a6565b61076e8161076884546106b7565b846106f1565b602080601f8311600181146107a3576000841561078b5750858301515b600019600386901b1c1916600185901b178555610737565b600085815260208120601f198616915b828110156107d2578886015182559484019460019091019084016107b3565b50858210156107f05787850151600019600388901b60f8161c191681555b5050505050600190811b01905550565b6000806040838503121561081357600080fd5b825161081e81610497565b60208401519092506105d68161049756fea2646970667358221220b7459562b848241bb89a018d565d93fa329f0c5226afb44f32beebf1c4bbf8ad64736f6c634300080f0033",
  "devdoc": {
    "kind": "dev",
    "methods": {
      "owner()": {
        "details": "Returns the address of the current owner."
      },
      "renounceOwnership()": {
        "details": "Leaves the contract without owner. It will not be possible to call `onlyOwner` functions anymore. Can only be called by the current owner. NOTE: Renouncing ownership will leave the contract without an owner, thereby removing any functionality that is only available to the owner."
      },
      "transferOwnership(address)": {
        "details": "Transfers ownership of the contract to a new account (`newOwner`). Can only be called by the current owner."
      }
    },
    "version": 1
  },
  "userdoc": {
    "kind": "user",
    "methods": {
      "constructor": {
        "notice": "----------------------------------------------------------------------- Constructor -----------------------------------------------------------------------"
      },
      "getEncoding()": {
        "notice": "----------------------------------------------------------------------- External Functions -----------------------------------------------------------------------"
      }
    },
    "version": 1
  },
  "storageLayout": {
    "storage": [
      {
        "astId": 2753,
        "contract": "@pixel-pals/pooly-sol/contracts/PixelPoolyAssets.sol:PixelPoolyAssets",
        "label": "_owner",
        "offset": 0,
        "slot": "0",
        "type": "t_address"
      },
      {
        "astId": 3595,
        "contract": "@pixel-pals/pooly-sol/contracts/PixelPoolyAssets.sol:PixelPoolyAssets",
        "label": "encoding",
        "offset": 0,
        "slot": "1",
        "type": "t_string_storage"
      },
      {
        "astId": 3601,
        "contract": "@pixel-pals/pooly-sol/contracts/PixelPoolyAssets.sol:PixelPoolyAssets",
        "label": "assets",
        "offset": 0,
        "slot": "2",
        "type": "t_mapping(t_uint8,t_mapping(t_uint8,t_string_storage))"
      }
    ],
    "types": {
      "t_address": {
        "encoding": "inplace",
        "label": "address",
        "numberOfBytes": "20"
      },
      "t_mapping(t_uint8,t_mapping(t_uint8,t_string_storage))": {
        "encoding": "mapping",
        "key": "t_uint8",
        "label": "mapping(uint8 => mapping(uint8 => string))",
        "numberOfBytes": "32",
        "value": "t_mapping(t_uint8,t_string_storage)"
      },
      "t_mapping(t_uint8,t_string_storage)": {
        "encoding": "mapping",
        "key": "t_uint8",
        "label": "mapping(uint8 => string)",
        "numberOfBytes": "32",
        "value": "t_string_storage"
      },
      "t_string_storage": {
        "encoding": "bytes",
        "label": "string",
        "numberOfBytes": "32"
      },
      "t_uint8": {
        "encoding": "inplace",
        "label": "uint8",
        "numberOfBytes": "1"
      }
    }
  }
}