{
  "address": "0xB7f8BC63BbcaD18155201308C8f3540b07f84F5e",
  "abi": [
    {
      "inputs": [
        {
          "internalType": "address",
          "name": "_svgLibrary_",
          "type": "address"
        },
        {
          "internalType": "address",
          "name": "_svgRegistry_",
          "type": "address"
        }
      ],
      "stateMutability": "nonpayable",
      "type": "constructor"
    },
    {
      "anonymous": false,
      "inputs": [
        {
          "indexed": true,
          "internalType": "address",
          "name": "previousOwner",
          "type": "address"
        },
        {
          "indexed": true,
          "internalType": "address",
          "name": "newOwner",
          "type": "address"
        }
      ],
      "name": "OwnershipTransferred",
      "type": "event"
    },
    {
      "inputs": [],
      "name": "owner",
      "outputs": [
        {
          "internalType": "address",
          "name": "",
          "type": "address"
        }
      ],
      "stateMutability": "view",
      "type": "function"
    },
    {
      "inputs": [
        {
          "internalType": "bytes",
          "name": "_input",
          "type": "bytes"
        }
      ],
      "name": "render",
      "outputs": [
        {
          "internalType": "string",
          "name": "",
          "type": "string"
        }
      ],
      "stateMutability": "view",
      "type": "function"
    },
    {
      "inputs": [],
      "name": "renounceOwnership",
      "outputs": [],
      "stateMutability": "nonpayable",
      "type": "function"
    },
    {
      "inputs": [
        {
          "internalType": "address",
          "name": "newOwner",
          "type": "address"
        }
      ],
      "name": "transferOwnership",
      "outputs": [],
      "stateMutability": "nonpayable",
      "type": "function"
    }
  ],
  "transactionHash": "0x00a3012fa354d44dfb8d91335968bc288a4191ab5307d7aa09f9b50a458a8768",
  "args": [
    "0xCf7Ed3AccA5a467e9e704C703E8D87F634fB0Fc9",
    "0xDc64a140Aa3E981100a9becA4E685f962f0cF6C9"
  ],
  "numDeployments": 1,
  "solcInputHash": "4ef37faf7dd3b7fa520c15f0e8cdad15",
  "bytecode": "0x608060405234801561001057600080fd5b50604051610d89380380610d8983398101604081905261002f916100d5565b61003833610069565b600180546001600160a01b039384166001600160a01b03199182161790915560028054929093169116179055610108565b600080546001600160a01b038381166001600160a01b0319831681178455604051919092169283917f8be0079c531659141344cd1fd0a4f28419497f9722a3daafe3b4186f6b6457e09190a35050565b80516001600160a01b03811681146100d057600080fd5b919050565b600080604083850312156100e857600080fd5b6100f1836100b9565b91506100ff602084016100b9565b90509250929050565b610c72806101176000396000f3fe608060405234801561001057600080fd5b506004361061004c5760003560e01c8063316df61e14610051578063715018a61461007a5780638da5cb5b14610084578063f2fde38b1461009f575b600080fd5b61006461005f366004610851565b6100b2565b604051610071919061092d565b60405180910390f35b6100826100cb565b005b6000546040516001600160a01b039091168152602001610071565b6100826100ad366004610940565b6100df565b60606100c56100c08361015d565b6103c5565b92915050565b6100d361042d565b6100dd6000610487565b565b6100e761042d565b6001600160a01b0381166101515760405162461bcd60e51b815260206004820152602660248201527f4f776e61626c653a206e6577206f776e657220697320746865207a65726f206160448201526564647265737360d01b60648201526084015b60405180910390fd5b61015a81610487565b50565b606061018d6040518060400160405280600d81526020016c68656c6c6f20776f726c64203160981b8152506104d7565b6000806000806000806000888060200190518101906101ac919061097f565b96509650965096509650965096506101e86040518060400160405280600d81526020016c3432b63637903bb7b93632101960991b8152506104d7565b6101f061051a565b604080516004602082015260ff8a1691810191909152610235906d0504958454c5f504f4f4c595f56360941b906060015b6040516020818303038152906040526105dd565b604080516000602082015260ff8a169181019190915261026a906d0504958454c5f504f4f4c595f56360941b90606001610221565b604080516001602082015260ff8a169181019190915261029f906d0504958454c5f504f4f4c595f56360941b90606001610221565b604080516002602082015260ff8a16918101919091526102d4906d0504958454c5f504f4f4c595f56360941b90606001610221565b604080516003602082015260ff8a1691810191909152610309906d0504958454c5f504f4f4c595f56360941b90606001610221565b604080516005602082015260ff8a169181019190915261033e906d0504958454c5f504f4f4c595f56360941b90606001610221565b604080516005602082015260ff8a1691810191909152610373906d0504958454c5f504f4f4c595f56360941b90606001610221565b6040805180820190915260068152651e17b9bb339f60d11b60208201526040516020016103a899989796959493929190610a05565b604051602081830303815290604052975050505050505050919050565b60606040518060400160405280601a81526020017f646174613a696d6167652f7376672b786d6c3b6261736536342c0000000000008152506104068361065c565b604051602001610417929190610ac6565b6040516020818303038152906040529050919050565b6000546001600160a01b031633146100dd5760405162461bcd60e51b815260206004820181905260248201527f4f776e61626c653a2063616c6c6572206973206e6f7420746865206f776e65726044820152606401610148565b600080546001600160a01b038381166001600160a01b0319831681178455604051919092169283917f8be0079c531659141344cd1fd0a4f28419497f9722a3daafe3b4186f6b6457e09190a35050565b61015a816040516024016104eb919061092d565b60408051601f198184030181529190526020810180516001600160e01b031663104c13eb60e21b1790526107c1565b60606040516020016105c9907f3c7376672077696474683d2233323022206865696768743d223332302220737481527503cb6329e913130b1b5b3b937bab7321d11a3232311160551b60208201527503b34b2bba137bc1e91181018101999181019991811160551b60368201527f786d6c6e733d22687474703a2f2f7777772e77332e6f72672f323030302f7376604c8201526203391160ed1b606c820152601f60f91b606f82015260700190565b604051602081830303815290604052905090565b600254604051633a68f5db60e01b81526060916001600160a01b031690633a68f5db906106109086908690600401610af5565b600060405180830381865afa15801561062d573d6000803e3d6000fd5b505050506040513d6000823e601f3d908101601f191682016040526106559190810190610b16565b9392505050565b6060815160000361067b57505060408051602081019091526000815290565b6000604051806060016040528060408152602001610bfd60409139905060006003845160026106aa9190610ba3565b6106b49190610bbb565b6106bf906004610bdd565b905060006106ce826020610ba3565b67ffffffffffffffff8111156106e6576106e66107e2565b6040519080825280601f01601f191660200182016040528015610710576020820181803683370190505b509050818152600183018586518101602084015b8183101561077c576003830192508251603f8160121c168501518253600182019150603f81600c1c168501518253600182019150603f8160061c168501518253600182019150603f8116850151825350600101610724565b60038951066001811461079657600281146107a7576107b3565b613d3d60f01b6001198301526107b3565b603d60f81b6000198301525b509398975050505050505050565b80516a636f6e736f6c652e6c6f67602083016000808483855afa5050505050565b634e487b7160e01b600052604160045260246000fd5b604051601f8201601f1916810167ffffffffffffffff81118282101715610821576108216107e2565b604052919050565b600067ffffffffffffffff821115610843576108436107e2565b50601f01601f191660200190565b60006020828403121561086357600080fd5b813567ffffffffffffffff81111561087a57600080fd5b8201601f8101841361088b57600080fd5b803561089e61089982610829565b6107f8565b8181528560208385010111156108b357600080fd5b81602084016020830137600091810160200191909152949350505050565b60005b838110156108ec5781810151838201526020016108d4565b838111156108fb576000848401525b50505050565b600081518084526109198160208601602086016108d1565b601f01601f19169290920160200192915050565b6020815260006106556020830184610901565b60006020828403121561095257600080fd5b81356001600160a01b038116811461065557600080fd5b805160ff8116811461097a57600080fd5b919050565b600080600080600080600060e0888a03121561099a57600080fd5b6109a388610969565b96506109b160208901610969565b95506109bf60408901610969565b94506109cd60608901610969565b93506109db60808901610969565b92506109e960a08901610969565b91506109f760c08901610969565b905092959891949750929550565b60008a51610a17818460208f016108d1565b8a51610a298183860160208f016108d1565b8a519184010190610a3e818360208e016108d1565b8951610a508183850160208e016108d1565b8951929091010190610a66818360208c016108d1565b8751610a788183850160208c016108d1565b8751929091010190610a8e818360208a016108d1565b8551610aa08183850160208a016108d1565b8551929091010190610ab68183602088016108d1565b019b9a5050505050505050505050565b60008351610ad88184602088016108d1565b835190830190610aec8183602088016108d1565b01949350505050565b828152604060208201526000610b0e6040830184610901565b949350505050565b600060208284031215610b2857600080fd5b815167ffffffffffffffff811115610b3f57600080fd5b8201601f81018413610b5057600080fd5b8051610b5e61089982610829565b818152856020838501011115610b7357600080fd5b610b848260208301602086016108d1565b95945050505050565b634e487b7160e01b600052601160045260246000fd5b60008219821115610bb657610bb6610b8d565b500190565b600082610bd857634e487b7160e01b600052601260045260246000fd5b500490565b6000816000190483118215151615610bf757610bf7610b8d565b50029056fe4142434445464748494a4b4c4d4e4f505152535455565758595a6162636465666768696a6b6c6d6e6f707172737475767778797a303132333435363738392b2fa26469706673582212207acf40a7c4efc701eb55d6b5ab3218bf494899aced60bed8db38d6aaff7fd4eb64736f6c634300080f0033",
  "devdoc": {
    "kind": "dev",
    "methods": {
      "owner()": {
        "details": "Returns the address of the current owner."
      },
      "renounceOwnership()": {
        "details": "Leaves the contract without owner. It will not be possible to call `onlyOwner` functions anymore. Can only be called by the current owner. NOTE: Renouncing ownership will leave the contract without an owner, thereby removing any functionality that is only available to the owner."
      },
      "transferOwnership(address)": {
        "details": "Transfers ownership of the contract to a new account (`newOwner`). Can only be called by the current owner."
      }
    },
    "version": 1
  },
  "userdoc": {
    "kind": "user",
    "methods": {
      "render(bytes)": {
        "notice": "----------------------------------------------------------------------- External Functions -----------------------------------------------------------------------"
      }
    },
    "version": 1
  },
  "storageLayout": {
    "storage": [
      {
        "astId": 2753,
        "contract": "@pixel-pals/pooly-sol/contracts/PixelPoolyRender.sol:PixelPoolyRender",
        "label": "_owner",
        "offset": 0,
        "slot": "0",
        "type": "t_address"
      },
      {
        "astId": 3699,
        "contract": "@pixel-pals/pooly-sol/contracts/PixelPoolyRender.sol:PixelPoolyRender",
        "label": "svgLibrary",
        "offset": 0,
        "slot": "1",
        "type": "t_address"
      },
      {
        "astId": 3701,
        "contract": "@pixel-pals/pooly-sol/contracts/PixelPoolyRender.sol:PixelPoolyRender",
        "label": "svgRegistry",
        "offset": 0,
        "slot": "2",
        "type": "t_address"
      }
    ],
    "types": {
      "t_address": {
        "encoding": "inplace",
        "label": "address",
        "numberOfBytes": "20"
      }
    }
  }
}