{
  "address": "0xE6E340D132b5f46d1e472DebcD681B2aBc16e57E",
  "abi": [
    {
      "inputs": [
        {
          "internalType": "address",
          "name": "_owner",
          "type": "address"
        }
      ],
      "stateMutability": "nonpayable",
      "type": "constructor"
    },
    {
      "inputs": [],
      "name": "Unauthorized",
      "type": "error"
    },
    {
      "anonymous": false,
      "inputs": [
        {
          "indexed": true,
          "internalType": "address",
          "name": "user",
          "type": "address"
        },
        {
          "indexed": true,
          "internalType": "address",
          "name": "ownerCandidate",
          "type": "address"
        }
      ],
      "name": "OwnerUpdateInitiated",
      "type": "event"
    },
    {
      "anonymous": false,
      "inputs": [
        {
          "indexed": true,
          "internalType": "address",
          "name": "user",
          "type": "address"
        },
        {
          "indexed": true,
          "internalType": "address",
          "name": "newOwner",
          "type": "address"
        }
      ],
      "name": "OwnershipTransferred",
      "type": "event"
    },
    {
      "inputs": [],
      "name": "confirmOwner",
      "outputs": [],
      "stateMutability": "payable",
      "type": "function"
    },
    {
      "inputs": [],
      "name": "erc721KMinterInstance",
      "outputs": [
        {
          "internalType": "address",
          "name": "",
          "type": "address"
        }
      ],
      "stateMutability": "view",
      "type": "function"
    },
    {
      "inputs": [
        {
          "internalType": "uint256",
          "name": "tokenId",
          "type": "uint256"
        }
      ],
      "name": "getColor",
      "outputs": [
        {
          "internalType": "bytes",
          "name": "",
          "type": "bytes"
        }
      ],
      "stateMutability": "view",
      "type": "function"
    },
    {
      "inputs": [
        {
          "internalType": "uint8",
          "name": "colorId",
          "type": "uint8"
        }
      ],
      "name": "getColorFromMap",
      "outputs": [
        {
          "internalType": "bytes",
          "name": "",
          "type": "bytes"
        }
      ],
      "stateMutability": "view",
      "type": "function"
    },
    {
      "inputs": [
        {
          "internalType": "uint256",
          "name": "tokenId",
          "type": "uint256"
        }
      ],
      "name": "getEmoji",
      "outputs": [
        {
          "internalType": "string",
          "name": "",
          "type": "string"
        }
      ],
      "stateMutability": "view",
      "type": "function"
    },
    {
      "inputs": [
        {
          "internalType": "uint8",
          "name": "emojiId",
          "type": "uint8"
        }
      ],
      "name": "getEmojiFromMap",
      "outputs": [
        {
          "internalType": "string",
          "name": "",
          "type": "string"
        }
      ],
      "stateMutability": "view",
      "type": "function"
    },
    {
      "inputs": [],
      "name": "owner",
      "outputs": [
        {
          "internalType": "address",
          "name": "",
          "type": "address"
        }
      ],
      "stateMutability": "view",
      "type": "function"
    },
    {
      "inputs": [],
      "name": "renounceOwner",
      "outputs": [],
      "stateMutability": "payable",
      "type": "function"
    },
    {
      "inputs": [
        {
          "internalType": "uint256",
          "name": "tokenId",
          "type": "uint256"
        },
        {
          "internalType": "uint8",
          "name": "color",
          "type": "uint8"
        }
      ],
      "name": "setColor",
      "outputs": [],
      "stateMutability": "payable",
      "type": "function"
    },
    {
      "inputs": [
        {
          "internalType": "uint256",
          "name": "tokenId",
          "type": "uint256"
        },
        {
          "internalType": "uint8",
          "name": "color",
          "type": "uint8"
        },
        {
          "internalType": "uint8",
          "name": "emoji",
          "type": "uint8"
        }
      ],
      "name": "setDuringMint",
      "outputs": [],
      "stateMutability": "nonpayable",
      "type": "function"
    },
    {
      "inputs": [
        {
          "internalType": "address",
          "name": "_erc721KMinterInstance",
          "type": "address"
        }
      ],
      "name": "setERC721KMinterInstance",
      "outputs": [],
      "stateMutability": "nonpayable",
      "type": "function"
    },
    {
      "inputs": [
        {
          "internalType": "uint256",
          "name": "tokenId",
          "type": "uint256"
        },
        {
          "internalType": "uint8",
          "name": "emoji",
          "type": "uint8"
        }
      ],
      "name": "setEmoji",
      "outputs": [],
      "stateMutability": "payable",
      "type": "function"
    },
    {
      "inputs": [
        {
          "internalType": "uint256",
          "name": "_styleUpgradeCost",
          "type": "uint256"
        }
      ],
      "name": "setStyleUpgradeCost",
      "outputs": [],
      "stateMutability": "nonpayable",
      "type": "function"
    },
    {
      "inputs": [
        {
          "internalType": "address",
          "name": "newOwner",
          "type": "address"
        }
      ],
      "name": "transferOwnership",
      "outputs": [],
      "stateMutability": "payable",
      "type": "function"
    }
  ],
  "transactionHash": "0xd6a508187b240019f7420322a7c3c0f01f6ceca1f04b583ba2812c9a2347b656",
  "args": [
    "0xf39Fd6e51aad88F6F4ce6aB8827279cffFb92266"
  ],
  "numDeployments": 1,
  "solcInputHash": "ec25c1383404eb224f2720283852d948",
  "bytecode": "0x6080604052662386f26fc100006003553480156200001c57600080fd5b5060405162002d5338038062002d5383398181016040528101906200004291906200117a565b80806000806101000a81548173ffffffffffffffffffffffffffffffffffffffff021916908373ffffffffffffffffffffffffffffffffffffffff1602179055508073ffffffffffffffffffffffffffffffffffffffff16600073ffffffffffffffffffffffffffffffffffffffff167f8be0079c531659141344cd1fd0a4f28419497f9722a3daafe3b4186f6b6457e060405160405180910390a3506040518060400160405280600381526020017f5b1fa80000000000000000000000000000000000000000000000000000000000815250600660008060ff168152602001908152602001600020908162000139919062001426565b506040518060400160405280600381526020017f292929000000000000000000000000000000000000000000000000000000000081525060066000600160ff168152602001908152602001600020908162000195919062001426565b506040518060400160405280600381526020017f782e1b000000000000000000000000000000000000000000000000000000000081525060066000600260ff1681526020019081526020016000209081620001f1919062001426565b506040518060400160405280600381526020017f1f387a000000000000000000000000000000000000000000000000000000000081525060066000600360ff16815260200190815260200160002090816200024d919062001426565b506040518060400160405280600481526020017ff09f8fa600000000000000000000000000000000000000000000000000000000815250600760008060ff1681526020019081526020016000209081620002a8919062001572565b506040518060400160405280600481526020017ff09f94a50000000000000000000000000000000000000000000000000000000081525060076000600160ff168152602001908152602001600020908162000304919062001572565b506040518060400160405280600481526020017ff09f8c9f0000000000000000000000000000000000000000000000000000000081525060076000600260ff168152602001908152602001600020908162000360919062001572565b506040518060400160405280600481526020017ff09f9a800000000000000000000000000000000000000000000000000000000081525060076000600360ff1681526020019081526020016000209081620003bc919062001572565b506040518060400160405280600481526020017ff09f91910000000000000000000000000000000000000000000000000000000081525060076000600460ff168152602001908152602001600020908162000418919062001572565b506040518060400160405280600481526020017ff09f94ae0000000000000000000000000000000000000000000000000000000081525060076000600560ff168152602001908152602001600020908162000474919062001572565b506040518060400160405280600481526020017ff09f8c880000000000000000000000000000000000000000000000000000000081525060076000600660ff1681526020019081526020016000209081620004d0919062001572565b506040518060400160405280600481526020017ff09f8e890000000000000000000000000000000000000000000000000000000081525060076000600760ff16815260200190815260200160002090816200052c919062001572565b506040518060400160405280600481526020017ff09f8e810000000000000000000000000000000000000000000000000000000081525060076000600860ff168152602001908152602001600020908162000588919062001572565b506040518060400160405280600481526020017ff09f8eb20000000000000000000000000000000000000000000000000000000081525060076000600960ff1681526020019081526020016000209081620005e4919062001572565b506040518060400160405280600481526020017ff09f8eb00000000000000000000000000000000000000000000000000000000081525060076000600a60ff168152602001908152602001600020908162000640919062001572565b506040518060400160405280600481526020017ff09f8eae0000000000000000000000000000000000000000000000000000000081525060076000600b60ff16815260200190815260200160002090816200069c919062001572565b506040518060400160405280600481526020017ff09f8eb30000000000000000000000000000000000000000000000000000000081525060076000600c60ff1681526020019081526020016000209081620006f8919062001572565b506040518060400160405280600481526020017ff09f8eb80000000000000000000000000000000000000000000000000000000081525060076000600d60ff168152602001908152602001600020908162000754919062001572565b506040518060400160405280600481526020017ff09f8eb90000000000000000000000000000000000000000000000000000000081525060076000600e60ff1681526020019081526020016000209081620007b0919062001572565b506040518060400160405280600481526020017ff09f8ebc0000000000000000000000000000000000000000000000000000000081525060076000600f60ff16815260200190815260200160002090816200080c919062001572565b506040518060400160405280600481526020017ff09f8f800000000000000000000000000000000000000000000000000000000081525060076000601060ff168152602001908152602001600020908162000868919062001572565b506040518060400160405280600481526020017ff09f8f880000000000000000000000000000000000000000000000000000000081525060076000601160ff1681526020019081526020016000209081620008c4919062001572565b506040518060400160405280600481526020017ff09f8f8a0000000000000000000000000000000000000000000000000000000081525060076000601360ff168152602001908152602001600020908162000920919062001572565b506040518060400160405280600481526020017ff09f8f860000000000000000000000000000000000000000000000000000000081525060076000601460ff16815260200190815260200160002090816200097c919062001572565b506040518060400160405280600481526020017ff09f8f930000000000000000000000000000000000000000000000000000000081525060076000601560ff1681526020019081526020016000209081620009d8919062001572565b506040518060400160405280600481526020017ff09f8f940000000000000000000000000000000000000000000000000000000081525060076000601660ff168152602001908152602001600020908162000a34919062001572565b506040518060400160405280600481526020017ff09f8f950000000000000000000000000000000000000000000000000000000081525060076000601760ff168152602001908152602001600020908162000a90919062001572565b506040518060400160405280600481526020017ff09f8f960000000000000000000000000000000000000000000000000000000081525060076000601860ff168152602001908152602001600020908162000aec919062001572565b506040518060400160405280600481526020017ff09f8f970000000000000000000000000000000000000000000000000000000081525060076000601960ff168152602001908152602001600020908162000b48919062001572565b506040518060400160405280600481526020017ff09f8f980000000000000000000000000000000000000000000000000000000081525060076000601a60ff168152602001908152602001600020908162000ba4919062001572565b506040518060400160405280600481526020017ff09f8f990000000000000000000000000000000000000000000000000000000081525060076000601b60ff168152602001908152602001600020908162000c00919062001572565b506040518060400160405280600481526020017ff09f8f9a0000000000000000000000000000000000000000000000000000000081525060076000601c60ff168152602001908152602001600020908162000c5c919062001572565b506040518060400160405280600481526020017ff09f8f9b0000000000000000000000000000000000000000000000000000000081525060076000601d60ff168152602001908152602001600020908162000cb8919062001572565b506040518060400160405280600481526020017ff09f8f9c0000000000000000000000000000000000000000000000000000000081525060076000601e60ff168152602001908152602001600020908162000d14919062001572565b506040518060400160405280600481526020017ff09f8f9d0000000000000000000000000000000000000000000000000000000081525060076000601f60ff168152602001908152602001600020908162000d70919062001572565b506040518060400160405280600481526020017ff09f8f9e0000000000000000000000000000000000000000000000000000000081525060076000602060ff168152602001908152602001600020908162000dcc919062001572565b506040518060400160405280600481526020017ff09fa69c0000000000000000000000000000000000000000000000000000000081525060076000602160ff168152602001908152602001600020908162000e28919062001572565b506040518060400160405280600481526020017ff09fa68a0000000000000000000000000000000000000000000000000000000081525060076000602360ff168152602001908152602001600020908162000e84919062001572565b506040518060400160405280600481526020017ff09fa68b0000000000000000000000000000000000000000000000000000000081525060076000602460ff168152602001908152602001600020908162000ee0919062001572565b506040518060400160405280600481526020017ff09fa68c0000000000000000000000000000000000000000000000000000000081525060076000602560ff168152602001908152602001600020908162000f3c919062001572565b506040518060400160405280600481526020017ff09fa68d0000000000000000000000000000000000000000000000000000000081525060076000602660ff168152602001908152602001600020908162000f98919062001572565b506040518060400160405280600481526020017ff09fa68e0000000000000000000000000000000000000000000000000000000081525060076000602760ff168152602001908152602001600020908162000ff4919062001572565b506040518060400160405280600481526020017ff09fa68f0000000000000000000000000000000000000000000000000000000081525060076000602860ff168152602001908152602001600020908162001050919062001572565b506040518060400160405280600481526020017ff09fa6900000000000000000000000000000000000000000000000000000000081525060076000602960ff1681526020019081526020016000209081620010ac919062001572565b506040518060400160405280600481526020017ff09fa6910000000000000000000000000000000000000000000000000000000081525060076000602a60ff168152602001908152602001600020908162001108919062001572565b505062001659565b600080fd5b600073ffffffffffffffffffffffffffffffffffffffff82169050919050565b6000620011428262001115565b9050919050565b620011548162001135565b81146200116057600080fd5b50565b600081519050620011748162001149565b92915050565b60006020828403121562001193576200119262001110565b5b6000620011a38482850162001163565b91505092915050565b600081519050919050565b7f4e487b7100000000000000000000000000000000000000000000000000000000600052604160045260246000fd5b7f4e487b7100000000000000000000000000000000000000000000000000000000600052602260045260246000fd5b600060028204905060018216806200122e57607f821691505b602082108103620012445762001243620011e6565b5b50919050565b60008190508160005260206000209050919050565b60006020601f8301049050919050565b600082821b905092915050565b600060088302620012ae7fffffffffffffffffffffffffffffffffffffffffffffffffffffffffffffffff826200126f565b620012ba86836200126f565b95508019841693508086168417925050509392505050565b6000819050919050565b6000819050919050565b60006200130762001301620012fb84620012d2565b620012dc565b620012d2565b9050919050565b6000819050919050565b6200132383620012e6565b6200133b62001332826200130e565b8484546200127c565b825550505050565b600090565b6200135262001343565b6200135f81848462001318565b505050565b5b8181101562001387576200137b60008262001348565b60018101905062001365565b5050565b601f821115620013d657620013a0816200124a565b620013ab846200125f565b81016020851015620013bb578190505b620013d3620013ca856200125f565b83018262001364565b50505b505050565b600082821c905092915050565b6000620013fb60001984600802620013db565b1980831691505092915050565b6000620014168383620013e8565b9150826002028217905092915050565b6200143182620011ac565b67ffffffffffffffff8111156200144d576200144c620011b7565b5b62001459825462001215565b620014668282856200138b565b600060209050601f8311600181146200149e576000841562001489578287015190505b62001495858262001408565b86555062001505565b601f198416620014ae866200124a565b60005b82811015620014d857848901518255600182019150602085019450602081019050620014b1565b86831015620014f85784890151620014f4601f891682620013e8565b8355505b6001600288020188555050505b505050505050565b60008190508160005260206000209050919050565b601f8211156200156d5762001537816200150d565b62001542846200125f565b8101602085101562001552578190505b6200156a62001561856200125f565b83018262001364565b50505b505050565b6200157d82620011ac565b67ffffffffffffffff811115620015995762001598620011b7565b5b620015a5825462001215565b620015b282828562001522565b600060209050601f831160018114620015ea5760008415620015d5578287015190505b620015e1858262001408565b86555062001651565b601f198416620015fa866200150d565b60005b828110156200162457848901518255600182019150602085019450602081019050620015fd565b8683101562001644578489015162001640601f891682620013e8565b8355505b6001600288020188555050505b505050505050565b6116ea80620016696000396000f3fe6080604052600436106100dd5760003560e01c806396cfdda81161007f578063bd9b6d8611610059578063bd9b6d8614610283578063be7d97b31461028d578063e4afc6fe146102ca578063f2fde38b146102f3576100dd565b806396cfdda8146101ed5780639f571e0b14610209578063a96cc2f914610246576100dd565b8063381d5910116100bb578063381d59101461013e57806363ff13681461016957806380057b9a146101855780638da5cb5b146101c2576100dd565b80630cd5391e146100e257806325eb50731461010b57806328c23a4514610134575b600080fd5b3480156100ee57600080fd5b506101096004803603810190610104919061111e565b61030f565b005b34801561011757600080fd5b50610132600480360381019061012d9190611171565b6103fc565b005b61013c61048b565b005b34801561014a57600080fd5b50610153610591565b60405161016091906111df565b60405180910390f35b610183600480360381019061017e91906111fa565b6105b7565b005b34801561019157600080fd5b506101ac60048036038101906101a79190611171565b61073e565b6040516101b991906112d3565b60405180910390f35b3480156101ce57600080fd5b506101d7610809565b6040516101e491906111df565b60405180910390f35b610207600480360381019061020291906111fa565b61082d565b005b34801561021557600080fd5b50610230600480360381019061022b91906112f5565b6109b4565b60405161023d91906112d3565b60405180910390f35b34801561025257600080fd5b5061026d600480360381019061026891906112f5565b610a5f565b60405161027a9190611377565b60405180910390f35b61028b610b0a565b005b34801561029957600080fd5b506102b460048036038101906102af9190611171565b610d21565b6040516102c19190611377565b60405180910390f35b3480156102d657600080fd5b506102f160048036038101906102ec91906113c5565b610dec565b005b61030d600480360381019061030891906113c5565b610eb5565b005b600260009054906101000a900473ffffffffffffffffffffffffffffffffffffffff1673ffffffffffffffffffffffffffffffffffffffff163373ffffffffffffffffffffffffffffffffffffffff161461039f576040517f08c379a00000000000000000000000000000000000000000000000000000000081526004016103969061143e565b60405180910390fd5b816004600085815260200190815260200160002060006101000a81548160ff021916908360ff160217905550806005600085815260200190815260200160002060006101000a81548160ff021916908360ff160217905550505050565b60008054906101000a900473ffffffffffffffffffffffffffffffffffffffff1673ffffffffffffffffffffffffffffffffffffffff163373ffffffffffffffffffffffffffffffffffffffff1614610481576040517f82b4290000000000000000000000000000000000000000000000000000000000815260040160405180910390fd5b8060038190555050565b60008054906101000a900473ffffffffffffffffffffffffffffffffffffffff1673ffffffffffffffffffffffffffffffffffffffff163373ffffffffffffffffffffffffffffffffffffffff1614610510576040517f82b4290000000000000000000000000000000000000000000000000000000000815260040160405180910390fd5b6000806101000a81549073ffffffffffffffffffffffffffffffffffffffff0219169055600073ffffffffffffffffffffffffffffffffffffffff163373ffffffffffffffffffffffffffffffffffffffff167f8be0079c531659141344cd1fd0a4f28419497f9722a3daafe3b4186f6b6457e060405160405180910390a3565b600260009054906101000a900473ffffffffffffffffffffffffffffffffffffffff1681565b6003543410156105fc576040517f08c379a00000000000000000000000000000000000000000000000000000000081526004016105f3906114aa565b60405180910390fd5b600260009054906101000a900473ffffffffffffffffffffffffffffffffffffffff1673ffffffffffffffffffffffffffffffffffffffff16636352211e836040518263ffffffff1660e01b815260040161065791906114d9565b602060405180830381865afa158015610674573d6000803e3d6000fd5b505050506040513d601f19601f820116820180604052508101906106989190611509565b73ffffffffffffffffffffffffffffffffffffffff163373ffffffffffffffffffffffffffffffffffffffff1614610705576040517f08c379a00000000000000000000000000000000000000000000000000000000081526004016106fc90611582565b60405180910390fd5b806004600084815260200190815260200160002060006101000a81548160ff021916908360ff16021790555061073a34610fd8565b5050565b6060600660006004600085815260200190815260200160002060009054906101000a900460ff1660ff1660ff1681526020019081526020016000208054610784906115d1565b80601f01602080910402602001604051908101604052809291908181526020018280546107b0906115d1565b80156107fd5780601f106107d2576101008083540402835291602001916107fd565b820191906000526020600020905b8154815290600101906020018083116107e057829003601f168201915b50505050509050919050565b60008054906101000a900473ffffffffffffffffffffffffffffffffffffffff1681565b600354341015610872576040517f08c379a0000000000000000000000000000000000000000000000000000000008152600401610869906114aa565b60405180910390fd5b600260009054906101000a900473ffffffffffffffffffffffffffffffffffffffff1673ffffffffffffffffffffffffffffffffffffffff16636352211e836040518263ffffffff1660e01b81526004016108cd91906114d9565b602060405180830381865afa1580156108ea573d6000803e3d6000fd5b505050506040513d601f19601f8201168201806040525081019061090e9190611509565b73ffffffffffffffffffffffffffffffffffffffff163373ffffffffffffffffffffffffffffffffffffffff161461097b576040517f08c379a000000000000000000000000000000000000000000000000000000000815260040161097290611582565b60405180910390fd5b806005600084815260200190815260200160002060006101000a81548160ff021916908360ff1602179055506109b034610fd8565b5050565b6060600660008360ff1660ff16815260200190815260200160002080546109da906115d1565b80601f0160208091040260200160405190810160405280929190818152602001828054610a06906115d1565b8015610a535780601f10610a2857610100808354040283529160200191610a53565b820191906000526020600020905b815481529060010190602001808311610a3657829003601f168201915b50505050509050919050565b6060600760008360ff1660ff1681526020019081526020016000208054610a85906115d1565b80601f0160208091040260200160405190810160405280929190818152602001828054610ab1906115d1565b8015610afe5780601f10610ad357610100808354040283529160200191610afe565b820191906000526020600020905b815481529060010190602001808311610ae157829003601f168201915b50505050509050919050565b600160149054906101000a900460ff1615610c7d5760008054906101000a900473ffffffffffffffffffffffffffffffffffffffff1673ffffffffffffffffffffffffffffffffffffffff163373ffffffffffffffffffffffffffffffffffffffff1614610ba4576040517f82b4290000000000000000000000000000000000000000000000000000000000815260040160405180910390fd5b600160146101000a81549060ff02191690556000600160009054906101000a900473ffffffffffffffffffffffffffffffffffffffff169050806000806101000a81548173ffffffffffffffffffffffffffffffffffffffff021916908373ffffffffffffffffffffffffffffffffffffffff1602179055508073ffffffffffffffffffffffffffffffffffffffff163373ffffffffffffffffffffffffffffffffffffffff167f8be0079c531659141344cd1fd0a4f28419497f9722a3daafe3b4186f6b6457e060405160405180910390a350610d1f565b600160009054906101000a900473ffffffffffffffffffffffffffffffffffffffff1673ffffffffffffffffffffffffffffffffffffffff163373ffffffffffffffffffffffffffffffffffffffff1614610d04576040517f82b4290000000000000000000000000000000000000000000000000000000000815260040160405180910390fd5b60018060146101000a81548160ff0219169083151502179055505b565b6060600760006005600085815260200190815260200160002060009054906101000a900460ff1660ff1660ff1681526020019081526020016000208054610d67906115d1565b80601f0160208091040260200160405190810160405280929190818152602001828054610d93906115d1565b8015610de05780601f10610db557610100808354040283529160200191610de0565b820191906000526020600020905b815481529060010190602001808311610dc357829003601f168201915b50505050509050919050565b60008054906101000a900473ffffffffffffffffffffffffffffffffffffffff1673ffffffffffffffffffffffffffffffffffffffff163373ffffffffffffffffffffffffffffffffffffffff1614610e71576040517f82b4290000000000000000000000000000000000000000000000000000000000815260040160405180910390fd5b80600260006101000a81548173ffffffffffffffffffffffffffffffffffffffff021916908373ffffffffffffffffffffffffffffffffffffffff16021790555050565b60008054906101000a900473ffffffffffffffffffffffffffffffffffffffff1673ffffffffffffffffffffffffffffffffffffffff163373ffffffffffffffffffffffffffffffffffffffff1614610f3a576040517f82b4290000000000000000000000000000000000000000000000000000000000815260040160405180910390fd5b80600160006101000a81548173ffffffffffffffffffffffffffffffffffffffff021916908373ffffffffffffffffffffffffffffffffffffffff1602179055508073ffffffffffffffffffffffffffffffffffffffff163373ffffffffffffffffffffffffffffffffffffffff167f365e8eca24e61548e99db9d948e4f9cf79224bcbf4fc81afe651e6e80921c87560405160405180910390a350565b6000600260009054906101000a900473ffffffffffffffffffffffffffffffffffffffff1673ffffffffffffffffffffffffffffffffffffffff168260405161102090611633565b60006040518083038185875af1925050503d806000811461105d576040519150601f19603f3d011682016040523d82523d6000602084013e611062565b606091505b50509050806110a6576040517f08c379a000000000000000000000000000000000000000000000000000000000815260040161109d90611694565b60405180910390fd5b5050565b600080fd5b6000819050919050565b6110c2816110af565b81146110cd57600080fd5b50565b6000813590506110df816110b9565b92915050565b600060ff82169050919050565b6110fb816110e5565b811461110657600080fd5b50565b600081359050611118816110f2565b92915050565b600080600060608486031215611137576111366110aa565b5b6000611145868287016110d0565b935050602061115686828701611109565b925050604061116786828701611109565b9150509250925092565b600060208284031215611187576111866110aa565b5b6000611195848285016110d0565b91505092915050565b600073ffffffffffffffffffffffffffffffffffffffff82169050919050565b60006111c98261119e565b9050919050565b6111d9816111be565b82525050565b60006020820190506111f460008301846111d0565b92915050565b60008060408385031215611211576112106110aa565b5b600061121f858286016110d0565b925050602061123085828601611109565b9150509250929050565b600081519050919050565b600082825260208201905092915050565b60005b83811015611274578082015181840152602081019050611259565b83811115611283576000848401525b50505050565b6000601f19601f8301169050919050565b60006112a58261123a565b6112af8185611245565b93506112bf818560208601611256565b6112c881611289565b840191505092915050565b600060208201905081810360008301526112ed818461129a565b905092915050565b60006020828403121561130b5761130a6110aa565b5b600061131984828501611109565b91505092915050565b600081519050919050565b600082825260208201905092915050565b600061134982611322565b611353818561132d565b9350611363818560208601611256565b61136c81611289565b840191505092915050565b60006020820190508181036000830152611391818461133e565b905092915050565b6113a2816111be565b81146113ad57600080fd5b50565b6000813590506113bf81611399565b92915050565b6000602082840312156113db576113da6110aa565b5b60006113e9848285016113b0565b91505092915050565b7f576562334361726444657369676e3a6e6f742d617574686f72697a6564000000600082015250565b6000611428601d8361132d565b9150611433826113f2565b602082019050919050565b600060208201905081810360008301526114578161141b565b9050919050565b7f576562334361726444657369676e3a696e73756666696369656e742d65746800600082015250565b6000611494601f8361132d565b915061149f8261145e565b602082019050919050565b600060208201905081810360008301526114c381611487565b9050919050565b6114d3816110af565b82525050565b60006020820190506114ee60008301846114ca565b92915050565b60008151905061150381611399565b92915050565b60006020828403121561151f5761151e6110aa565b5b600061152d848285016114f4565b91505092915050565b7f576562334361726444657369676e3a6e6f742d6f776e65720000000000000000600082015250565b600061156c60188361132d565b915061157782611536565b602082019050919050565b6000602082019050818103600083015261159b8161155f565b9050919050565b7f4e487b7100000000000000000000000000000000000000000000000000000000600052602260045260246000fd5b600060028204905060018216806115e957607f821691505b6020821081036115fc576115fb6115a2565b5b50919050565b600081905092915050565b50565b600061161d600083611602565b91506116288261160d565b600082019050919050565b600061163e82611610565b9150819050919050565b7f576562334361726444657369676e3a72656c656173652d6661696c6564000000600082015250565b600061167e601d8361132d565b915061168982611648565b602082019050919050565b600060208201905081810360008301526116ad81611671565b905091905056fea264697066735822122044e233b5fbc6c7bcb8ba969ca4b8620d2b8de09fa25457c4dc8401d4c868390964736f6c634300080f0033",
  "devdoc": {
    "kind": "dev",
    "methods": {
      "transferOwnership(address)": {
        "params": {
          "newOwner": "The `_ownerCandidate` that will `confirmOwner()`."
        }
      }
    },
    "version": 1
  },
  "userdoc": {
    "errors": {
      "Unauthorized()": [
        {
          "notice": "----------------------------------------------------------------------- Custom Errors -----------------------------------------------------------------------"
        }
      ]
    },
    "events": {
      "OwnerUpdateInitiated(address,address)": {
        "notice": "----------------------------------------------------------------------- Events -----------------------------------------------------------------------"
      }
    },
    "kind": "user",
    "methods": {
      "confirmOwner()": {
        "notice": "Confirm ownership between `owner` and `_ownerCandidate`."
      },
      "owner()": {
        "notice": "----------------------------------------------------------------------- Ownership Storage -----------------------------------------------------------------------"
      },
      "renounceOwner()": {
        "notice": "Terminate ownership by `owner`."
      },
      "transferOwnership(address)": {
        "notice": "Initiate ownership transfer."
      }
    },
    "version": 1
  },
  "storageLayout": {
    "storage": [
      {
        "astId": 6573,
        "contract": "@web3-savings-cards/core-sol/contracts/Web3CardDesign.sol:Web3CardDesign",
        "label": "owner",
        "offset": 0,
        "slot": "0",
        "type": "t_address"
      },
      {
        "astId": 6575,
        "contract": "@web3-savings-cards/core-sol/contracts/Web3CardDesign.sol:Web3CardDesign",
        "label": "_ownerCandidate",
        "offset": 0,
        "slot": "1",
        "type": "t_address"
      },
      {
        "astId": 6577,
        "contract": "@web3-savings-cards/core-sol/contracts/Web3CardDesign.sol:Web3CardDesign",
        "label": "_ownerCandidateConfirmed",
        "offset": 20,
        "slot": "1",
        "type": "t_bool"
      },
      {
        "astId": 8689,
        "contract": "@web3-savings-cards/core-sol/contracts/Web3CardDesign.sol:Web3CardDesign",
        "label": "erc721KMinterInstance",
        "offset": 0,
        "slot": "2",
        "type": "t_address"
      },
      {
        "astId": 8692,
        "contract": "@web3-savings-cards/core-sol/contracts/Web3CardDesign.sol:Web3CardDesign",
        "label": "STYLE_UPGRADE_COST",
        "offset": 0,
        "slot": "3",
        "type": "t_uint256"
      },
      {
        "astId": 8696,
        "contract": "@web3-savings-cards/core-sol/contracts/Web3CardDesign.sol:Web3CardDesign",
        "label": "_color",
        "offset": 0,
        "slot": "4",
        "type": "t_mapping(t_uint256,t_uint8)"
      },
      {
        "astId": 8700,
        "contract": "@web3-savings-cards/core-sol/contracts/Web3CardDesign.sol:Web3CardDesign",
        "label": "_emoji",
        "offset": 0,
        "slot": "5",
        "type": "t_mapping(t_uint256,t_uint8)"
      },
      {
        "astId": 8704,
        "contract": "@web3-savings-cards/core-sol/contracts/Web3CardDesign.sol:Web3CardDesign",
        "label": "_colorMap",
        "offset": 0,
        "slot": "6",
        "type": "t_mapping(t_uint8,t_bytes_storage)"
      },
      {
        "astId": 8708,
        "contract": "@web3-savings-cards/core-sol/contracts/Web3CardDesign.sol:Web3CardDesign",
        "label": "_emojiMap",
        "offset": 0,
        "slot": "7",
        "type": "t_mapping(t_uint8,t_string_storage)"
      },
      {
        "astId": 8712,
        "contract": "@web3-savings-cards/core-sol/contracts/Web3CardDesign.sol:Web3CardDesign",
        "label": "_supporter",
        "offset": 0,
        "slot": "8",
        "type": "t_mapping(t_address,t_bool)"
      }
    ],
    "types": {
      "t_address": {
        "encoding": "inplace",
        "label": "address",
        "numberOfBytes": "20"
      },
      "t_bool": {
        "encoding": "inplace",
        "label": "bool",
        "numberOfBytes": "1"
      },
      "t_bytes_storage": {
        "encoding": "bytes",
        "label": "bytes",
        "numberOfBytes": "32"
      },
      "t_mapping(t_address,t_bool)": {
        "encoding": "mapping",
        "key": "t_address",
        "label": "mapping(address => bool)",
        "numberOfBytes": "32",
        "value": "t_bool"
      },
      "t_mapping(t_uint256,t_uint8)": {
        "encoding": "mapping",
        "key": "t_uint256",
        "label": "mapping(uint256 => uint8)",
        "numberOfBytes": "32",
        "value": "t_uint8"
      },
      "t_mapping(t_uint8,t_bytes_storage)": {
        "encoding": "mapping",
        "key": "t_uint8",
        "label": "mapping(uint8 => bytes)",
        "numberOfBytes": "32",
        "value": "t_bytes_storage"
      },
      "t_mapping(t_uint8,t_string_storage)": {
        "encoding": "mapping",
        "key": "t_uint8",
        "label": "mapping(uint8 => string)",
        "numberOfBytes": "32",
        "value": "t_string_storage"
      },
      "t_string_storage": {
        "encoding": "bytes",
        "label": "string",
        "numberOfBytes": "32"
      },
      "t_uint256": {
        "encoding": "inplace",
        "label": "uint256",
        "numberOfBytes": "32"
      },
      "t_uint8": {
        "encoding": "inplace",
        "label": "uint8",
        "numberOfBytes": "1"
      }
    }
  }
}