{
  "address": "0x84eA74d481Ee0A5332c457a4d796187F6Ba67fEB",
  "abi": [
    {
      "inputs": [
        {
          "internalType": "string",
          "name": "name",
          "type": "string"
        },
        {
          "internalType": "string",
          "name": "symbol",
          "type": "string"
        },
        {
          "internalType": "address",
          "name": "erc721Storage",
          "type": "address"
        }
      ],
      "stateMutability": "nonpayable",
      "type": "constructor"
    },
    {
      "inputs": [],
      "name": "AlreadyMinted",
      "type": "error"
    },
    {
      "inputs": [],
      "name": "ERC721Unauthorized",
      "type": "error"
    },
    {
      "inputs": [],
      "name": "InvalidRecipient",
      "type": "error"
    },
    {
      "inputs": [],
      "name": "NewOwnerIsZeroAddress",
      "type": "error"
    },
    {
      "inputs": [],
      "name": "NoHandoverRequest",
      "type": "error"
    },
    {
      "inputs": [],
      "name": "NotMinted",
      "type": "error"
    },
    {
      "inputs": [],
      "name": "UnsafeRecipient",
      "type": "error"
    },
    {
      "inputs": [],
      "name": "WrongFrom",
      "type": "error"
    },
    {
      "inputs": [],
      "name": "ZeroAddress",
      "type": "error"
    },
    {
      "anonymous": false,
      "inputs": [
        {
          "indexed": true,
          "internalType": "address",
          "name": "owner",
          "type": "address"
        },
        {
          "indexed": true,
          "internalType": "address",
          "name": "spender",
          "type": "address"
        },
        {
          "indexed": true,
          "internalType": "uint256",
          "name": "id",
          "type": "uint256"
        }
      ],
      "name": "Approval",
      "type": "event"
    },
    {
      "anonymous": false,
      "inputs": [
        {
          "indexed": true,
          "internalType": "address",
          "name": "owner",
          "type": "address"
        },
        {
          "indexed": true,
          "internalType": "address",
          "name": "operator",
          "type": "address"
        },
        {
          "indexed": false,
          "internalType": "bool",
          "name": "approved",
          "type": "bool"
        }
      ],
      "name": "ApprovalForAll",
      "type": "event"
    },
    {
      "anonymous": false,
      "inputs": [
        {
          "indexed": false,
          "internalType": "address",
          "name": "erc721Storage",
          "type": "address"
        }
      ],
      "name": "ERC721StorageUpdated",
      "type": "event"
    },
    {
      "anonymous": false,
      "inputs": [
        {
          "indexed": true,
          "internalType": "address",
          "name": "pendingOwner",
          "type": "address"
        }
      ],
      "name": "OwnershipHandoverCanceled",
      "type": "event"
    },
    {
      "anonymous": false,
      "inputs": [
        {
          "indexed": true,
          "internalType": "address",
          "name": "pendingOwner",
          "type": "address"
        }
      ],
      "name": "OwnershipHandoverRequested",
      "type": "event"
    },
    {
      "anonymous": false,
      "inputs": [
        {
          "indexed": true,
          "internalType": "address",
          "name": "oldOwner",
          "type": "address"
        },
        {
          "indexed": true,
          "internalType": "address",
          "name": "newOwner",
          "type": "address"
        }
      ],
      "name": "OwnershipTransferred",
      "type": "event"
    },
    {
      "anonymous": false,
      "inputs": [
        {
          "indexed": true,
          "internalType": "address",
          "name": "user",
          "type": "address"
        },
        {
          "indexed": true,
          "internalType": "uint256",
          "name": "roles",
          "type": "uint256"
        }
      ],
      "name": "RolesUpdated",
      "type": "event"
    },
    {
      "anonymous": false,
      "inputs": [
        {
          "indexed": true,
          "internalType": "address",
          "name": "from",
          "type": "address"
        },
        {
          "indexed": true,
          "internalType": "address",
          "name": "to",
          "type": "address"
        },
        {
          "indexed": true,
          "internalType": "uint256",
          "name": "id",
          "type": "uint256"
        }
      ],
      "name": "Transfer",
      "type": "event"
    },
    {
      "inputs": [
        {
          "internalType": "address",
          "name": "spender",
          "type": "address"
        },
        {
          "internalType": "uint256",
          "name": "id",
          "type": "uint256"
        }
      ],
      "name": "approve",
      "outputs": [],
      "stateMutability": "nonpayable",
      "type": "function"
    },
    {
      "inputs": [
        {
          "internalType": "address",
          "name": "owner",
          "type": "address"
        }
      ],
      "name": "balanceOf",
      "outputs": [
        {
          "internalType": "uint256",
          "name": "",
          "type": "uint256"
        }
      ],
      "stateMutability": "view",
      "type": "function"
    },
    {
      "inputs": [
        {
          "internalType": "address",
          "name": "account",
          "type": "address"
        }
      ],
      "name": "belongsTo",
      "outputs": [
        {
          "internalType": "uint256",
          "name": "",
          "type": "uint256"
        }
      ],
      "stateMutability": "view",
      "type": "function"
    },
    {
      "inputs": [
        {
          "internalType": "uint256",
          "name": "tokenId",
          "type": "uint256"
        }
      ],
      "name": "burn",
      "outputs": [],
      "stateMutability": "nonpayable",
      "type": "function"
    },
    {
      "inputs": [],
      "name": "cancelOwnershipHandover",
      "outputs": [],
      "stateMutability": "payable",
      "type": "function"
    },
    {
      "inputs": [
        {
          "internalType": "address",
          "name": "pendingOwner",
          "type": "address"
        }
      ],
      "name": "completeOwnershipHandover",
      "outputs": [],
      "stateMutability": "payable",
      "type": "function"
    },
    {
      "inputs": [],
      "name": "contractURI",
      "outputs": [
        {
          "internalType": "string",
          "name": "",
          "type": "string"
        }
      ],
      "stateMutability": "view",
      "type": "function"
    },
    {
      "inputs": [
        {
          "internalType": "uint256",
          "name": "",
          "type": "uint256"
        }
      ],
      "name": "getApproved",
      "outputs": [
        {
          "internalType": "address",
          "name": "",
          "type": "address"
        }
      ],
      "stateMutability": "view",
      "type": "function"
    },
    {
      "inputs": [],
      "name": "getERC721Storage",
      "outputs": [
        {
          "internalType": "address",
          "name": "",
          "type": "address"
        }
      ],
      "stateMutability": "view",
      "type": "function"
    },
    {
      "inputs": [
        {
          "internalType": "address",
          "name": "user",
          "type": "address"
        },
        {
          "internalType": "uint256",
          "name": "roles",
          "type": "uint256"
        }
      ],
      "name": "grantRoles",
      "outputs": [],
      "stateMutability": "payable",
      "type": "function"
    },
    {
      "inputs": [
        {
          "internalType": "address",
          "name": "user",
          "type": "address"
        },
        {
          "internalType": "uint256",
          "name": "roles",
          "type": "uint256"
        }
      ],
      "name": "hasAllRoles",
      "outputs": [
        {
          "internalType": "bool",
          "name": "result",
          "type": "bool"
        }
      ],
      "stateMutability": "view",
      "type": "function"
    },
    {
      "inputs": [
        {
          "internalType": "address",
          "name": "user",
          "type": "address"
        },
        {
          "internalType": "uint256",
          "name": "roles",
          "type": "uint256"
        }
      ],
      "name": "hasAnyRole",
      "outputs": [
        {
          "internalType": "bool",
          "name": "result",
          "type": "bool"
        }
      ],
      "stateMutability": "view",
      "type": "function"
    },
    {
      "inputs": [
        {
          "internalType": "address",
          "name": "",
          "type": "address"
        },
        {
          "internalType": "address",
          "name": "",
          "type": "address"
        }
      ],
      "name": "isApprovedForAll",
      "outputs": [
        {
          "internalType": "bool",
          "name": "",
          "type": "bool"
        }
      ],
      "stateMutability": "view",
      "type": "function"
    },
    {
      "inputs": [
        {
          "internalType": "address",
          "name": "to",
          "type": "address"
        }
      ],
      "name": "mint",
      "outputs": [
        {
          "internalType": "uint256",
          "name": "",
          "type": "uint256"
        }
      ],
      "stateMutability": "nonpayable",
      "type": "function"
    },
    {
      "inputs": [],
      "name": "name",
      "outputs": [
        {
          "internalType": "string",
          "name": "",
          "type": "string"
        }
      ],
      "stateMutability": "view",
      "type": "function"
    },
    {
      "inputs": [
        {
          "internalType": "uint256",
          "name": "roles",
          "type": "uint256"
        }
      ],
      "name": "ordinalsFromRoles",
      "outputs": [
        {
          "internalType": "uint8[]",
          "name": "ordinals",
          "type": "uint8[]"
        }
      ],
      "stateMutability": "pure",
      "type": "function"
    },
    {
      "inputs": [],
      "name": "owner",
      "outputs": [
        {
          "internalType": "address",
          "name": "result",
          "type": "address"
        }
      ],
      "stateMutability": "view",
      "type": "function"
    },
    {
      "inputs": [
        {
          "internalType": "uint256",
          "name": "tokenId",
          "type": "uint256"
        }
      ],
      "name": "ownerOf",
      "outputs": [
        {
          "internalType": "address",
          "name": "",
          "type": "address"
        }
      ],
      "stateMutability": "view",
      "type": "function"
    },
    {
      "inputs": [
        {
          "internalType": "address",
          "name": "pendingOwner",
          "type": "address"
        }
      ],
      "name": "ownershipHandoverExpiresAt",
      "outputs": [
        {
          "internalType": "uint256",
          "name": "result",
          "type": "uint256"
        }
      ],
      "stateMutability": "view",
      "type": "function"
    },
    {
      "inputs": [],
      "name": "ownershipHandoverValidFor",
      "outputs": [
        {
          "internalType": "uint64",
          "name": "",
          "type": "uint64"
        }
      ],
      "stateMutability": "view",
      "type": "function"
    },
    {
      "inputs": [
        {
          "internalType": "address",
          "name": "account",
          "type": "address"
        }
      ],
      "name": "preview",
      "outputs": [
        {
          "internalType": "string",
          "name": "",
          "type": "string"
        }
      ],
      "stateMutability": "view",
      "type": "function"
    },
    {
      "inputs": [
        {
          "internalType": "address",
          "name": "account",
          "type": "address"
        },
        {
          "internalType": "uint8",
          "name": "color",
          "type": "uint8"
        },
        {
          "internalType": "uint8",
          "name": "emoji",
          "type": "uint8"
        }
      ],
      "name": "previewWithStyle",
      "outputs": [
        {
          "internalType": "string",
          "name": "",
          "type": "string"
        }
      ],
      "stateMutability": "view",
      "type": "function"
    },
    {
      "inputs": [],
      "name": "renounceOwnership",
      "outputs": [],
      "stateMutability": "payable",
      "type": "function"
    },
    {
      "inputs": [
        {
          "internalType": "uint256",
          "name": "roles",
          "type": "uint256"
        }
      ],
      "name": "renounceRoles",
      "outputs": [],
      "stateMutability": "payable",
      "type": "function"
    },
    {
      "inputs": [],
      "name": "requestOwnershipHandover",
      "outputs": [],
      "stateMutability": "payable",
      "type": "function"
    },
    {
      "inputs": [
        {
          "internalType": "address",
          "name": "user",
          "type": "address"
        },
        {
          "internalType": "uint256",
          "name": "roles",
          "type": "uint256"
        }
      ],
      "name": "revokeRoles",
      "outputs": [],
      "stateMutability": "payable",
      "type": "function"
    },
    {
      "inputs": [
        {
          "internalType": "uint8[]",
          "name": "ordinals",
          "type": "uint8[]"
        }
      ],
      "name": "rolesFromOrdinals",
      "outputs": [
        {
          "internalType": "uint256",
          "name": "roles",
          "type": "uint256"
        }
      ],
      "stateMutability": "pure",
      "type": "function"
    },
    {
      "inputs": [
        {
          "internalType": "address",
          "name": "user",
          "type": "address"
        }
      ],
      "name": "rolesOf",
      "outputs": [
        {
          "internalType": "uint256",
          "name": "roles",
          "type": "uint256"
        }
      ],
      "stateMutability": "view",
      "type": "function"
    },
    {
      "inputs": [
        {
          "internalType": "address",
          "name": "from",
          "type": "address"
        },
        {
          "internalType": "address",
          "name": "to",
          "type": "address"
        },
        {
          "internalType": "uint256",
          "name": "id",
          "type": "uint256"
        }
      ],
      "name": "safeTransferFrom",
      "outputs": [],
      "stateMutability": "nonpayable",
      "type": "function"
    },
    {
      "inputs": [
        {
          "internalType": "address",
          "name": "from",
          "type": "address"
        },
        {
          "internalType": "address",
          "name": "to",
          "type": "address"
        },
        {
          "internalType": "uint256",
          "name": "id",
          "type": "uint256"
        },
        {
          "internalType": "bytes",
          "name": "data",
          "type": "bytes"
        }
      ],
      "name": "safeTransferFrom",
      "outputs": [],
      "stateMutability": "nonpayable",
      "type": "function"
    },
    {
      "inputs": [
        {
          "internalType": "address",
          "name": "operator",
          "type": "address"
        },
        {
          "internalType": "bool",
          "name": "approved",
          "type": "bool"
        }
      ],
      "name": "setApprovalForAll",
      "outputs": [],
      "stateMutability": "nonpayable",
      "type": "function"
    },
    {
      "inputs": [
        {
          "internalType": "address",
          "name": "erc721Storage",
          "type": "address"
        }
      ],
      "name": "setStorage",
      "outputs": [],
      "stateMutability": "nonpayable",
      "type": "function"
    },
    {
      "inputs": [
        {
          "internalType": "bytes4",
          "name": "interfaceId",
          "type": "bytes4"
        }
      ],
      "name": "supportsInterface",
      "outputs": [
        {
          "internalType": "bool",
          "name": "",
          "type": "bool"
        }
      ],
      "stateMutability": "view",
      "type": "function"
    },
    {
      "inputs": [],
      "name": "symbol",
      "outputs": [
        {
          "internalType": "string",
          "name": "",
          "type": "string"
        }
      ],
      "stateMutability": "view",
      "type": "function"
    },
    {
      "inputs": [
        {
          "internalType": "uint256",
          "name": "tokenId",
          "type": "uint256"
        }
      ],
      "name": "tokenURI",
      "outputs": [
        {
          "internalType": "string",
          "name": "",
          "type": "string"
        }
      ],
      "stateMutability": "view",
      "type": "function"
    },
    {
      "inputs": [],
      "name": "totalSupply",
      "outputs": [
        {
          "internalType": "uint256",
          "name": "",
          "type": "uint256"
        }
      ],
      "stateMutability": "view",
      "type": "function"
    },
    {
      "inputs": [
        {
          "internalType": "address",
          "name": "from",
          "type": "address"
        },
        {
          "internalType": "address",
          "name": "to",
          "type": "address"
        },
        {
          "internalType": "uint256",
          "name": "tokenId",
          "type": "uint256"
        }
      ],
      "name": "transferFrom",
      "outputs": [],
      "stateMutability": "nonpayable",
      "type": "function"
    },
    {
      "inputs": [
        {
          "internalType": "address",
          "name": "newOwner",
          "type": "address"
        }
      ],
      "name": "transferOwnership",
      "outputs": [],
      "stateMutability": "payable",
      "type": "function"
    }
  ],
  "transactionHash": "0x6d34031e20d7055b60da8a0d9db2f4999d4a83f575de6aea434447d6244b63c3",
  "args": [
    "Web3 Savings Card",
    "SAVE",
    "0xc3e53F4d16Ae77Db1c982e75a937B9f60FE63690"
  ],
  "numDeployments": 1,
  "solcInputHash": "ec25c1383404eb224f2720283852d948",
  "bytecode": "0x60a0604052670de0b6b3a76400006080908152503480156200002057600080fd5b5060405162003c5b38038062003c5b833981810160405281019062000046919062000327565b828282828281600090816200005c91906200060c565b5080600190816200006e91906200060c565b50505080600760006101000a81548173ffffffffffffffffffffffffffffffffffffffff021916908373ffffffffffffffffffffffffffffffffffffffff160217905550620000c333620000e960201b60201c565b50505060066000815480929190620000db9062000722565b91905055505050506200076f565b8060601b60601c905080638b78c6d819558060007f8be0079c531659141344cd1fd0a4f28419497f9722a3daafe3b4186f6b6457e0600080a350565b6000604051905090565b600080fd5b600080fd5b600080fd5b600080fd5b6000601f19601f8301169050919050565b7f4e487b7100000000000000000000000000000000000000000000000000000000600052604160045260246000fd5b6200018e8262000143565b810181811067ffffffffffffffff82111715620001b057620001af62000154565b5b80604052505050565b6000620001c562000125565b9050620001d3828262000183565b919050565b600067ffffffffffffffff821115620001f657620001f562000154565b5b620002018262000143565b9050602081019050919050565b60005b838110156200022e57808201518184015260208101905062000211565b838111156200023e576000848401525b50505050565b60006200025b6200025584620001d8565b620001b9565b9050828152602081018484840111156200027a57620002796200013e565b5b620002878482856200020e565b509392505050565b600082601f830112620002a757620002a662000139565b5b8151620002b984826020860162000244565b91505092915050565b600073ffffffffffffffffffffffffffffffffffffffff82169050919050565b6000620002ef82620002c2565b9050919050565b6200030181620002e2565b81146200030d57600080fd5b50565b6000815190506200032181620002f6565b92915050565b6000806000606084860312156200034357620003426200012f565b5b600084015167ffffffffffffffff81111562000364576200036362000134565b5b62000372868287016200028f565b935050602084015167ffffffffffffffff81111562000396576200039562000134565b5b620003a4868287016200028f565b9250506040620003b78682870162000310565b9150509250925092565b600081519050919050565b7f4e487b7100000000000000000000000000000000000000000000000000000000600052602260045260246000fd5b600060028204905060018216806200041457607f821691505b6020821081036200042a5762000429620003cc565b5b50919050565b60008190508160005260206000209050919050565b60006020601f8301049050919050565b600082821b905092915050565b600060088302620004947fffffffffffffffffffffffffffffffffffffffffffffffffffffffffffffffff8262000455565b620004a0868362000455565b95508019841693508086168417925050509392505050565b6000819050919050565b6000819050919050565b6000620004ed620004e7620004e184620004b8565b620004c2565b620004b8565b9050919050565b6000819050919050565b6200050983620004cc565b620005216200051882620004f4565b84845462000462565b825550505050565b600090565b6200053862000529565b62000545818484620004fe565b505050565b5b818110156200056d57620005616000826200052e565b6001810190506200054b565b5050565b601f821115620005bc57620005868162000430565b620005918462000445565b81016020851015620005a1578190505b620005b9620005b08562000445565b8301826200054a565b50505b505050565b600082821c905092915050565b6000620005e160001984600802620005c1565b1980831691505092915050565b6000620005fc8383620005ce565b9150826002028217905092915050565b6200061782620003c1565b67ffffffffffffffff81111562000633576200063262000154565b5b6200063f8254620003fb565b6200064c82828562000571565b600060209050601f8311600181146200068457600084156200066f578287015190505b6200067b8582620005ee565b865550620006eb565b601f198416620006948662000430565b60005b82811015620006be5784890151825560018201915060208501945060208101905062000697565b86831015620006de5784890151620006da601f891682620005ce565b8355505b6001600288020188555050505b505050505050565b7f4e487b7100000000000000000000000000000000000000000000000000000000600052601160045260246000fd5b60006200072f82620004b8565b91507fffffffffffffffffffffffffffffffffffffffffffffffffffffffffffffffff8203620007645762000763620006f3565b5b600182019050919050565b6080516134c962000792600039600081816111b5015261138701526134c96000f3fe6080604052600436106102255760003560e01c80636352211e1161012357806395d89b41116100ab578063e8a3d4851161006f578063e8a3d48514610813578063e985e9c51461083e578063f04e283e1461087b578063f2fde38b14610897578063fee81cf4146108b357610225565b806395d89b411461072e578063a22cb46514610759578063b88d4fde14610782578063c87b56dd146107ab578063d7533f02146107e857610225565b80637359e41f116100f25780637359e41f146106355780638662d3ae1461067257806387a89ee6146106af5780638da5cb5b146106da5780639137c1a71461070557610225565b80636352211e146105745780636a627842146105b157806370a08231146105ee578063715018a61461062b57610225565b80631c10893f116101b157806342842e0e1161017557806342842e0e146104bf57806342966c68146104e85780634a4ee7b114610511578063514e62fc1461052d57806354d1f13d1461056a57610225565b80631c10893f146103f65780631cd64df41461041257806323b872dd1461044f57806325692962146104785780632de948071461048257610225565b806310b41c3e116101f857806310b41c3e146102f857806313a661ed1461033557806313a69df91461037257806318160ddd146103af578063183a4f6e146103da57610225565b806301ffc9a71461022a57806306fdde0314610267578063081812fc14610292578063095ea7b3146102cf575b600080fd5b34801561023657600080fd5b50610251600480360381019061024c9190612745565b6108f0565b60405161025e919061278d565b60405180910390f35b34801561027357600080fd5b5061027c610902565b6040516102899190612841565b60405180910390f35b34801561029e57600080fd5b506102b960048036038101906102b49190612899565b610990565b6040516102c69190612907565b60405180910390f35b3480156102db57600080fd5b506102f660048036038101906102f1919061294e565b6109c3565b005b34801561030457600080fd5b5061031f600480360381019061031a91906129c7565b610ba7565b60405161032c9190612841565b60405180910390f35b34801561034157600080fd5b5061035c60048036038101906103579190612b62565b610d6b565b6040516103699190612bba565b60405180910390f35b34801561037e57600080fd5b5061039960048036038101906103949190612bd5565b610d9e565b6040516103a69190612841565b60405180910390f35b3480156103bb57600080fd5b506103c4610f5c565b6040516103d19190612bba565b60405180910390f35b6103f460048036038101906103ef9190612899565b610f66565b005b610410600480360381019061040b919061294e565b610f73565b005b34801561041e57600080fd5b506104396004803603810190610434919061294e565b610f9c565b604051610446919061278d565b60405180910390f35b34801561045b57600080fd5b5061047660048036038101906104719190612c02565b610fbd565b005b610480611011565b005b34801561048e57600080fd5b506104a960048036038101906104a49190612bd5565b611066565b6040516104b69190612bba565b60405180910390f35b3480156104cb57600080fd5b506104e660048036038101906104e19190612c02565b611082565b005b3480156104f457600080fd5b5061050f600480360381019061050a9190612899565b6111af565b005b61052b6004803603810190610526919061294e565b611277565b005b34801561053957600080fd5b50610554600480360381019061054f919061294e565b6112a0565b604051610561919061278d565b60405180910390f35b6105726112c1565b005b34801561058057600080fd5b5061059b60048036038101906105969190612899565b6112fe565b6040516105a89190612907565b60405180910390f35b3480156105bd57600080fd5b506105d860048036038101906105d39190612bd5565b61137f565b6040516105e59190612bba565b60405180910390f35b3480156105fa57600080fd5b5061061560048036038101906106109190612bd5565b6114d8565b6040516106229190612bba565b60405180910390f35b610633611586565b005b34801561064157600080fd5b5061065c60048036038101906106579190612899565b6115d4565b6040516106699190612d13565b60405180910390f35b34801561067e57600080fd5b5061069960048036038101906106949190612bd5565b611626565b6040516106a69190612bba565b60405180910390f35b3480156106bb57600080fd5b506106c461166f565b6040516106d19190612907565b60405180910390f35b3480156106e657600080fd5b506106ef611699565b6040516106fc9190612907565b60405180910390f35b34801561071157600080fd5b5061072c60048036038101906107279190612bd5565b6116a7565b005b34801561073a57600080fd5b5061074361173d565b6040516107509190612841565b60405180910390f35b34801561076557600080fd5b50610780600480360381019061077b9190612d61565b6117cb565b005b34801561078e57600080fd5b506107a960048036038101906107a49190612dfc565b6118c8565b005b3480156107b757600080fd5b506107d260048036038101906107cd9190612899565b6119fb565b6040516107df9190612841565b60405180910390f35b3480156107f457600080fd5b506107fd611abb565b60405161080a9190612ea7565b60405180910390f35b34801561081f57600080fd5b50610828611ac6565b6040516108359190612841565b60405180910390f35b34801561084a57600080fd5b5061086560048036038101906108609190612ec2565b611b63565b604051610872919061278d565b60405180910390f35b61089560048036038101906108909190612bd5565b611b92565b005b6108b160048036038101906108ac9190612bd5565b611c16565b005b3480156108bf57600080fd5b506108da60048036038101906108d59190612bd5565b611c7f565b6040516108e79190612bba565b60405180910390f35b60006108fb82611c9b565b9050919050565b6000805461090f90612f31565b80601f016020809104026020016040519081016040528092919081815260200182805461093b90612f31565b80156109885780601f1061095d57610100808354040283529160200191610988565b820191906000526020600020905b81548152906001019060200180831161096b57829003601f168201915b505050505081565b60046020528060005260406000206000915054906101000a900473ffffffffffffffffffffffffffffffffffffffff1681565b60006002600083815260200190815260200160002060009054906101000a900473ffffffffffffffffffffffffffffffffffffffff1690508073ffffffffffffffffffffffffffffffffffffffff163373ffffffffffffffffffffffffffffffffffffffff1614158015610abe5750600560008273ffffffffffffffffffffffffffffffffffffffff1673ffffffffffffffffffffffffffffffffffffffff16815260200190815260200160002060003373ffffffffffffffffffffffffffffffffffffffff1673ffffffffffffffffffffffffffffffffffffffff16815260200190815260200160002060009054906101000a900460ff16155b15610af5576040517ffe822d7b00000000000000000000000000000000000000000000000000000000815260040160405180910390fd5b826004600084815260200190815260200160002060006101000a81548173ffffffffffffffffffffffffffffffffffffffff021916908373ffffffffffffffffffffffffffffffffffffffff160217905550818373ffffffffffffffffffffffffffffffffffffffff168273ffffffffffffffffffffffffffffffffffffffff167f8c5be1e5ebec7d5bd14f71427d1e84f3dd0314c0f7b2291e5b200ac8c7c3b92560405160405180910390a4505050565b60606000600760009054906101000a900473ffffffffffffffffffffffffffffffffffffffff1673ffffffffffffffffffffffffffffffffffffffff16634aabb0788686866040518463ffffffff1660e01b8152600401610c0a93929190612f71565b600060405180830381865afa158015610c27573d6000803e3d6000fd5b505050506040513d6000823e3d601f19601f82011682018060405250810190610c50919061304e565b9050600760009054906101000a900473ffffffffffffffffffffffffffffffffffffffff1673ffffffffffffffffffffffffffffffffffffffff16639a17092a6040518163ffffffff1660e01b8152600401602060405180830381865afa158015610cbf573d6000803e3d6000fd5b505050506040513d601f19601f82011682018060405250810190610ce391906130ac565b73ffffffffffffffffffffffffffffffffffffffff1663316df61e826040518263ffffffff1660e01b8152600401610d1b919061312e565b600060405180830381865afa158015610d38573d6000803e3d6000fd5b505050506040513d6000823e3d601f19601f82011682018060405250810190610d6191906131f1565b9150509392505050565b600060208201825160051b81015b808214610d9757600160ff8351161b83179250602082019150610d79565b5050919050565b60606000600760009054906101000a900473ffffffffffffffffffffffffffffffffffffffff1673ffffffffffffffffffffffffffffffffffffffff166383bc303c846040518263ffffffff1660e01b8152600401610dfd9190612907565b600060405180830381865afa158015610e1a573d6000803e3d6000fd5b505050506040513d6000823e3d601f19601f82011682018060405250810190610e43919061304e565b9050600760009054906101000a900473ffffffffffffffffffffffffffffffffffffffff1673ffffffffffffffffffffffffffffffffffffffff16639a17092a6040518163ffffffff1660e01b8152600401602060405180830381865afa158015610eb2573d6000803e3d6000fd5b505050506040513d601f19601f82011682018060405250810190610ed691906130ac565b73ffffffffffffffffffffffffffffffffffffffff1663316df61e826040518263ffffffff1660e01b8152600401610f0e919061312e565b600060405180830381865afa158015610f2b573d6000803e3d6000fd5b505050506040513d6000823e3d601f19601f82011682018060405250810190610f5491906131f1565b915050919050565b6000600654905090565b610f703382611cad565b50565b638b78c6d819543314610f8e576382b429006000526004601cfd5b610f988282611cfd565b5050565b6000638b78c6d88360601b1760005281826020600020541614905092915050565b80600860008473ffffffffffffffffffffffffffffffffffffffff1673ffffffffffffffffffffffffffffffffffffffff1681526020019081526020016000208190555061100c838383611d49565b505050565b600061101b611abb565b67ffffffffffffffff164201905063389a75e13360601b1760005280602060002055337fdbf36a107da19e49527a7176a1babf963b4b0ff8cde35ee35d6cd8f1f9ac7e1d600080a250565b6000638b78c6d88260601b176000526020600020549050919050565b61108d838383610fbd565b60008273ffffffffffffffffffffffffffffffffffffffff163b146111aa5763150b7a0260e01b7bffffffffffffffffffffffffffffffffffffffffffffffffffffffff19168273ffffffffffffffffffffffffffffffffffffffff1663150b7a023386856040518463ffffffff1660e01b815260040161111093929190613260565b6020604051808303816000875af115801561112f573d6000803e3d6000fd5b505050506040513d601f19601f8201168201806040525081019061115391906132bf565b7bffffffffffffffffffffffffffffffffffffffffffffffffffffffff1916146111a9576040517f3da6393100000000000000000000000000000000000000000000000000000000815260040160405180910390fd5b5b505050565b6111d9337f0000000000000000000000000000000000000000000000000000000000000000610f9c565b611218576040517f08c379a000000000000000000000000000000000000000000000000000000000815260040161120f90613338565b60405180910390fd5b6000611223826112fe565b90506000600860008373ffffffffffffffffffffffffffffffffffffffff1673ffffffffffffffffffffffffffffffffffffffff1681526020019081526020016000208190555061127382612133565b5050565b638b78c6d819543314611292576382b429006000526004601cfd5b61129c8282611cad565b5050565b6000638b78c6d88360601b1760005281602060002054161515905092915050565b63389a75e13360601b176000526000602060002055337ffa7b8eab7da67f412cc9575ed43464468f9bfbae89d1675917346ca6d8fe3c92600080a2565b6000806002600084815260200190815260200160002060009054906101000a900473ffffffffffffffffffffffffffffffffffffffff169050600073ffffffffffffffffffffffffffffffffffffffff168173ffffffffffffffffffffffffffffffffffffffff160361137557600091505061137a565b809150505b919050565b60006113ab337f0000000000000000000000000000000000000000000000000000000000000000610f9c565b6113ea576040517f08c379a00000000000000000000000000000000000000000000000000000000081526004016113e190613338565b60405180910390fd5b6000600860008473ffffffffffffffffffffffffffffffffffffffff1673ffffffffffffffffffffffffffffffffffffffff168152602001908152602001600020541461146c576040517f08c379a0000000000000000000000000000000000000000000000000000000008152600401611463906133a4565b60405180910390fd5b60006006600081548092919060010191905055905080600860008573ffffffffffffffffffffffffffffffffffffffff1673ffffffffffffffffffffffffffffffffffffffff168152602001908152602001600020819055506114cf83826122ed565b80915050919050565b60008073ffffffffffffffffffffffffffffffffffffffff168273ffffffffffffffffffffffffffffffffffffffff160361153f576040517fd92e233d00000000000000000000000000000000000000000000000000000000815260040160405180910390fd5b600360008373ffffffffffffffffffffffffffffffffffffffff1673ffffffffffffffffffffffffffffffffffffffff168152602001908152602001600020549050919050565b638b78c6d8195433146115a1576382b429006000526004601cfd5b6000337f8be0079c531659141344cd1fd0a4f28419497f9722a3daafe3b4186f6b6457e0600080a36000638b78c6d81955565b606060206040510160005b60011561160b578082526001841660051b820191508360011c9350831561160b576001810190506115df565b5060405191508060405260208201810360051c825250919050565b6000600860008373ffffffffffffffffffffffffffffffffffffffff1673ffffffffffffffffffffffffffffffffffffffff168152602001908152602001600020549050919050565b6000600760009054906101000a900473ffffffffffffffffffffffffffffffffffffffff16905090565b6000638b78c6d81954905090565b638b78c6d8195433146116c2576382b429006000526004601cfd5b80600760006101000a81548173ffffffffffffffffffffffffffffffffffffffff021916908373ffffffffffffffffffffffffffffffffffffffff1602179055507fd833c7cea3bce2562e201bf7e85016d0bc1173580c719f63378cc5d0457552b6816040516117329190612907565b60405180910390a150565b6001805461174a90612f31565b80601f016020809104026020016040519081016040528092919081815260200182805461177690612f31565b80156117c35780601f10611798576101008083540402835291602001916117c3565b820191906000526020600020905b8154815290600101906020018083116117a657829003601f168201915b505050505081565b80600560003373ffffffffffffffffffffffffffffffffffffffff1673ffffffffffffffffffffffffffffffffffffffff16815260200190815260200160002060008473ffffffffffffffffffffffffffffffffffffffff1673ffffffffffffffffffffffffffffffffffffffff16815260200190815260200160002060006101000a81548160ff0219169083151502179055508173ffffffffffffffffffffffffffffffffffffffff163373ffffffffffffffffffffffffffffffffffffffff167f17307eab39ab6107e8899845ad3d59bd9653f200f220920489ca2b5937696c31836040516118bc919061278d565b60405180910390a35050565b6118d3858585610fbd565b60008473ffffffffffffffffffffffffffffffffffffffff163b146119f45763150b7a0260e01b7bffffffffffffffffffffffffffffffffffffffffffffffffffffffff19168473ffffffffffffffffffffffffffffffffffffffff1663150b7a0233888787876040518663ffffffff1660e01b815260040161195a959493929190613400565b6020604051808303816000875af1158015611979573d6000803e3d6000fd5b505050506040513d601f19601f8201168201806040525081019061199d91906132bf565b7bffffffffffffffffffffffffffffffffffffffffffffffffffffffff1916146119f3576040517f3da6393100000000000000000000000000000000000000000000000000000000815260040160405180910390fd5b5b5050505050565b6060600080611a09846124ed565b91509150600760009054906101000a900473ffffffffffffffffffffffffffffffffffffffff1673ffffffffffffffffffffffffffffffffffffffff1663f06796168584846040518463ffffffff1660e01b8152600401611a6c9392919061344e565b600060405180830381865afa158015611a89573d6000803e3d6000fd5b505050506040513d6000823e3d601f19601f82011682018060405250810190611ab291906131f1565b92505050919050565b60006202a300905090565b6060600760009054906101000a900473ffffffffffffffffffffffffffffffffffffffff1673ffffffffffffffffffffffffffffffffffffffff1663725fa09c6040518163ffffffff1660e01b8152600401600060405180830381865afa158015611b35573d6000803e3d6000fd5b505050506040513d6000823e3d601f19601f82011682018060405250810190611b5e91906131f1565b905090565b60056020528160005260406000206020528060005260406000206000915091509054906101000a900460ff1681565b638b78c6d819543314611bad576382b429006000526004601cfd5b8060601b60601c905063389a75e18160601b1760005260206000208054421115611bdf57636f5e88186000526004601cfd5b6000815581337f8be0079c531659141344cd1fd0a4f28419497f9722a3daafe3b4186f6b6457e0600080a381638b78c6d819555050565b638b78c6d819543314611c31576382b429006000526004601cfd5b8060601b60601c905080611c4d57637448fbae6000526004601cfd5b80337f8be0079c531659141344cd1fd0a4f28419497f9722a3daafe3b4186f6b6457e0600080a380638b78c6d8195550565b600063389a75e18260601b176000526020600020549050919050565b6000611ca682612647565b9050919050565b638b78c6d88260601b17600052602060002080548281168118808355808560601b60601c7f715ad5ce61fc9595c7b415289d59cf203f23a94fa06f04af7e489a0a76e1fe26600080a35050505050565b638b78c6d88260601b17600052602060002081815417808255808460601b60601c7f715ad5ce61fc9595c7b415289d59cf203f23a94fa06f04af7e489a0a76e1fe26600080a350505050565b6002600082815260200190815260200160002060009054906101000a900473ffffffffffffffffffffffffffffffffffffffff1673ffffffffffffffffffffffffffffffffffffffff168373ffffffffffffffffffffffffffffffffffffffff1614611de1576040517fc6de3f2500000000000000000000000000000000000000000000000000000000815260040160405180910390fd5b600073ffffffffffffffffffffffffffffffffffffffff168273ffffffffffffffffffffffffffffffffffffffff1603611e47576040517f9c8d2cd200000000000000000000000000000000000000000000000000000000815260040160405180910390fd5b8273ffffffffffffffffffffffffffffffffffffffff163373ffffffffffffffffffffffffffffffffffffffff1614158015611f0a5750600560008473ffffffffffffffffffffffffffffffffffffffff1673ffffffffffffffffffffffffffffffffffffffff16815260200190815260200160002060003373ffffffffffffffffffffffffffffffffffffffff1673ffffffffffffffffffffffffffffffffffffffff16815260200190815260200160002060009054906101000a900460ff16155b8015611f7557506004600082815260200190815260200160002060009054906101000a900473ffffffffffffffffffffffffffffffffffffffff1673ffffffffffffffffffffffffffffffffffffffff163373ffffffffffffffffffffffffffffffffffffffff1614155b15611fac576040517ffe822d7b00000000000000000000000000000000000000000000000000000000815260040160405180910390fd5b600360008473ffffffffffffffffffffffffffffffffffffffff1673ffffffffffffffffffffffffffffffffffffffff1681526020019081526020016000206000815480929190600190039190505550600360008373ffffffffffffffffffffffffffffffffffffffff1673ffffffffffffffffffffffffffffffffffffffff16815260200190815260200160002060008154809291906001019190505550816002600083815260200190815260200160002060006101000a81548173ffffffffffffffffffffffffffffffffffffffff021916908373ffffffffffffffffffffffffffffffffffffffff1602179055506004600082815260200190815260200160002060006101000a81549073ffffffffffffffffffffffffffffffffffffffff0219169055808273ffffffffffffffffffffffffffffffffffffffff168473ffffffffffffffffffffffffffffffffffffffff167fddf252ad1be2c89b69c2b068fc378daa952ba7f163c4a11628f55a4df523b3ef60405160405180910390a4505050565b60006002600083815260200190815260200160002060009054906101000a900473ffffffffffffffffffffffffffffffffffffffff169050600073ffffffffffffffffffffffffffffffffffffffff168173ffffffffffffffffffffffffffffffffffffffff16036121d1576040517f4d5e5fb300000000000000000000000000000000000000000000000000000000815260040160405180910390fd5b600360008273ffffffffffffffffffffffffffffffffffffffff1673ffffffffffffffffffffffffffffffffffffffff16815260200190815260200160002060008154809291906001900391905055506002600083815260200190815260200160002060006101000a81549073ffffffffffffffffffffffffffffffffffffffff02191690556004600083815260200190815260200160002060006101000a81549073ffffffffffffffffffffffffffffffffffffffff021916905581600073ffffffffffffffffffffffffffffffffffffffff168273ffffffffffffffffffffffffffffffffffffffff167fddf252ad1be2c89b69c2b068fc378daa952ba7f163c4a11628f55a4df523b3ef60405160405180910390a45050565b600073ffffffffffffffffffffffffffffffffffffffff168273ffffffffffffffffffffffffffffffffffffffff1603612353576040517f9c8d2cd200000000000000000000000000000000000000000000000000000000815260040160405180910390fd5b600073ffffffffffffffffffffffffffffffffffffffff166002600083815260200190815260200160002060009054906101000a900473ffffffffffffffffffffffffffffffffffffffff1673ffffffffffffffffffffffffffffffffffffffff16146123ec576040517fddefae2800000000000000000000000000000000000000000000000000000000815260040160405180910390fd5b600360008373ffffffffffffffffffffffffffffffffffffffff1673ffffffffffffffffffffffffffffffffffffffff16815260200190815260200160002060008154809291906001019190505550816002600083815260200190815260200160002060006101000a81548173ffffffffffffffffffffffffffffffffffffffff021916908373ffffffffffffffffffffffffffffffffffffffff160217905550808273ffffffffffffffffffffffffffffffffffffffff16600073ffffffffffffffffffffffffffffffffffffffff167fddf252ad1be2c89b69c2b068fc378daa952ba7f163c4a11628f55a4df523b3ef60405160405180910390a45050565b6060806000600760009054906101000a900473ffffffffffffffffffffffffffffffffffffffff1673ffffffffffffffffffffffffffffffffffffffff16630976c517856040518263ffffffff1660e01b815260040161254d9190612bba565b600060405180830381865afa15801561256a573d6000803e3d6000fd5b505050506040513d6000823e3d601f19601f82011682018060405250810190612593919061304e565b90506000600760009054906101000a900473ffffffffffffffffffffffffffffffffffffffff1673ffffffffffffffffffffffffffffffffffffffff16632d08d6b7866040518263ffffffff1660e01b81526004016125f29190612bba565b600060405180830381865afa15801561260f573d6000803e3d6000fd5b505050506040513d6000823e3d601f19601f82011682018060405250810190612638919061304e565b90508181935093505050915091565b60006301ffc9a760e01b827bffffffffffffffffffffffffffffffffffffffffffffffffffffffff191614806126a257506380ac58cd60e01b827bffffffffffffffffffffffffffffffffffffffffffffffffffffffff1916145b806126d25750635b5e139f60e01b827bffffffffffffffffffffffffffffffffffffffffffffffffffffffff1916145b9050919050565b6000604051905090565b600080fd5b600080fd5b60007fffffffff0000000000000000000000000000000000000000000000000000000082169050919050565b612722816126ed565b811461272d57600080fd5b50565b60008135905061273f81612719565b92915050565b60006020828403121561275b5761275a6126e3565b5b600061276984828501612730565b91505092915050565b60008115159050919050565b61278781612772565b82525050565b60006020820190506127a2600083018461277e565b92915050565b600081519050919050565b600082825260208201905092915050565b60005b838110156127e25780820151818401526020810190506127c7565b838111156127f1576000848401525b50505050565b6000601f19601f8301169050919050565b6000612813826127a8565b61281d81856127b3565b935061282d8185602086016127c4565b612836816127f7565b840191505092915050565b6000602082019050818103600083015261285b8184612808565b905092915050565b6000819050919050565b61287681612863565b811461288157600080fd5b50565b6000813590506128938161286d565b92915050565b6000602082840312156128af576128ae6126e3565b5b60006128bd84828501612884565b91505092915050565b600073ffffffffffffffffffffffffffffffffffffffff82169050919050565b60006128f1826128c6565b9050919050565b612901816128e6565b82525050565b600060208201905061291c60008301846128f8565b92915050565b61292b816128e6565b811461293657600080fd5b50565b60008135905061294881612922565b92915050565b60008060408385031215612965576129646126e3565b5b600061297385828601612939565b925050602061298485828601612884565b9150509250929050565b600060ff82169050919050565b6129a48161298e565b81146129af57600080fd5b50565b6000813590506129c18161299b565b92915050565b6000806000606084860312156129e0576129df6126e3565b5b60006129ee86828701612939565b93505060206129ff868287016129b2565b9250506040612a10868287016129b2565b9150509250925092565b600080fd5b7f4e487b7100000000000000000000000000000000000000000000000000000000600052604160045260246000fd5b612a57826127f7565b810181811067ffffffffffffffff82111715612a7657612a75612a1f565b5b80604052505050565b6000612a896126d9565b9050612a958282612a4e565b919050565b600067ffffffffffffffff821115612ab557612ab4612a1f565b5b602082029050602081019050919050565b600080fd5b6000612ade612ad984612a9a565b612a7f565b90508083825260208201905060208402830185811115612b0157612b00612ac6565b5b835b81811015612b2a5780612b1688826129b2565b845260208401935050602081019050612b03565b5050509392505050565b600082601f830112612b4957612b48612a1a565b5b8135612b59848260208601612acb565b91505092915050565b600060208284031215612b7857612b776126e3565b5b600082013567ffffffffffffffff811115612b9657612b956126e8565b5b612ba284828501612b34565b91505092915050565b612bb481612863565b82525050565b6000602082019050612bcf6000830184612bab565b92915050565b600060208284031215612beb57612bea6126e3565b5b6000612bf984828501612939565b91505092915050565b600080600060608486031215612c1b57612c1a6126e3565b5b6000612c2986828701612939565b9350506020612c3a86828701612939565b9250506040612c4b86828701612884565b9150509250925092565b600081519050919050565b600082825260208201905092915050565b6000819050602082019050919050565b612c8a8161298e565b82525050565b6000612c9c8383612c81565b60208301905092915050565b6000602082019050919050565b6000612cc082612c55565b612cca8185612c60565b9350612cd583612c71565b8060005b83811015612d06578151612ced8882612c90565b9750612cf883612ca8565b925050600181019050612cd9565b5085935050505092915050565b60006020820190508181036000830152612d2d8184612cb5565b905092915050565b612d3e81612772565b8114612d4957600080fd5b50565b600081359050612d5b81612d35565b92915050565b60008060408385031215612d7857612d776126e3565b5b6000612d8685828601612939565b9250506020612d9785828601612d4c565b9150509250929050565b600080fd5b60008083601f840112612dbc57612dbb612a1a565b5b8235905067ffffffffffffffff811115612dd957612dd8612da1565b5b602083019150836001820283011115612df557612df4612ac6565b5b9250929050565b600080600080600060808688031215612e1857612e176126e3565b5b6000612e2688828901612939565b9550506020612e3788828901612939565b9450506040612e4888828901612884565b935050606086013567ffffffffffffffff811115612e6957612e686126e8565b5b612e7588828901612da6565b92509250509295509295909350565b600067ffffffffffffffff82169050919050565b612ea181612e84565b82525050565b6000602082019050612ebc6000830184612e98565b92915050565b60008060408385031215612ed957612ed86126e3565b5b6000612ee785828601612939565b9250506020612ef885828601612939565b9150509250929050565b7f4e487b7100000000000000000000000000000000000000000000000000000000600052602260045260246000fd5b60006002820490506001821680612f4957607f821691505b602082108103612f5c57612f5b612f02565b5b50919050565b612f6b8161298e565b82525050565b6000606082019050612f8660008301866128f8565b612f936020830185612f62565b612fa06040830184612f62565b949350505050565b600080fd5b600067ffffffffffffffff821115612fc857612fc7612a1f565b5b612fd1826127f7565b9050602081019050919050565b6000612ff1612fec84612fad565b612a7f565b90508281526020810184848401111561300d5761300c612fa8565b5b6130188482856127c4565b509392505050565b600082601f83011261303557613034612a1a565b5b8151613045848260208601612fde565b91505092915050565b600060208284031215613064576130636126e3565b5b600082015167ffffffffffffffff811115613082576130816126e8565b5b61308e84828501613020565b91505092915050565b6000815190506130a681612922565b92915050565b6000602082840312156130c2576130c16126e3565b5b60006130d084828501613097565b91505092915050565b600081519050919050565b600082825260208201905092915050565b6000613100826130d9565b61310a81856130e4565b935061311a8185602086016127c4565b613123816127f7565b840191505092915050565b6000602082019050818103600083015261314881846130f5565b905092915050565b600067ffffffffffffffff82111561316b5761316a612a1f565b5b613174826127f7565b9050602081019050919050565b600061319461318f84613150565b612a7f565b9050828152602081018484840111156131b0576131af612fa8565b5b6131bb8482856127c4565b509392505050565b600082601f8301126131d8576131d7612a1a565b5b81516131e8848260208601613181565b91505092915050565b600060208284031215613207576132066126e3565b5b600082015167ffffffffffffffff811115613225576132246126e8565b5b613231848285016131c3565b91505092915050565b50565b600061324a6000836130e4565b91506132558261323a565b600082019050919050565b600060808201905061327560008301866128f8565b61328260208301856128f8565b61328f6040830184612bab565b81810360608301526132a08161323d565b9050949350505050565b6000815190506132b981612719565b92915050565b6000602082840312156132d5576132d46126e3565b5b60006132e3848285016132aa565b91505092915050565b7f57656233436172643a756e617574686f72697a65640000000000000000000000600082015250565b60006133226015836127b3565b915061332d826132ec565b602082019050919050565b6000602082019050818103600083015261335181613315565b9050919050565b7f57656233436172643a6163746976617465640000000000000000000000000000600082015250565b600061338e6012836127b3565b915061339982613358565b602082019050919050565b600060208201905081810360008301526133bd81613381565b9050919050565b82818337600083830152505050565b60006133df83856130e4565b93506133ec8385846133c4565b6133f5836127f7565b840190509392505050565b600060808201905061341560008301886128f8565b61342260208301876128f8565b61342f6040830186612bab565b81810360608301526134428184866133d3565b90509695505050505050565b60006060820190506134636000830186612bab565b818103602083015261347581856130f5565b9050818103604083015261348981846130f5565b905094935050505056fea26469706673582212209d0dbb4a7f1c52a8015162940f4ab63f8d48efb119f528364919934ba4e5bc3c64736f6c634300080f0033",
  "devdoc": {
    "errors": {
      "NewOwnerIsZeroAddress()": [
        {
          "details": "The `newOwner` cannot be the zero address."
        }
      ],
      "NoHandoverRequest()": [
        {
          "details": "The `pendingOwner` does not have a valid handover request."
        }
      ]
    },
    "kind": "dev",
    "methods": {
      "burn(uint256)": {
        "params": {
          "tokenId": "uint256 - Token ID to burn"
        }
      },
      "cancelOwnershipHandover()": {
        "details": "Cancels the two-step ownership handover to the caller, if any."
      },
      "completeOwnershipHandover(address)": {
        "details": "Allows the owner to complete the two-step ownership handover to `pendingOwner`. Reverts if there is no existing ownership handover requested by `pendingOwner`."
      },
      "grantRoles(address,uint256)": {
        "details": "Allows the owner to grant `user` `roles`. If the `user` already has a role, then it will be an no-op for the role."
      },
      "hasAllRoles(address,uint256)": {
        "details": "Returns whether `user` has all of `roles`."
      },
      "hasAnyRole(address,uint256)": {
        "details": "Returns whether `user` has any of `roles`."
      },
      "mint(address)": {
        "params": {
          "to": "address - Address to mint to`"
        }
      },
      "ordinalsFromRoles(uint256)": {
        "details": "Convenience function to return an array of `ordinals` from the `roles` bitmap. This is meant for frontends like Etherscan, and is therefore not fully optimized. Not recommended to be called on-chain."
      },
      "owner()": {
        "details": "Returns the owner of the contract."
      },
      "ownershipHandoverExpiresAt(address)": {
        "details": "Returns the expiry timestamp for the two-step ownership handover to `pendingOwner`."
      },
      "ownershipHandoverValidFor()": {
        "details": "Returns how long a two-step ownership handover is valid for in seconds."
      },
      "renounceOwnership()": {
        "details": "Allows the owner to renounce their ownership."
      },
      "renounceRoles(uint256)": {
        "details": "Allow the caller to remove their own roles. If the caller does not have a role, then it will be an no-op for the role."
      },
      "requestOwnershipHandover()": {
        "details": "Request a two-step ownership handover to the caller. The request will be automatically expire in 48 hours (172800 seconds) by default."
      },
      "revokeRoles(address,uint256)": {
        "details": "Allows the owner to remove `user` `roles`. If the `user` does not have a role, then it will be an no-op for the role."
      },
      "rolesFromOrdinals(uint8[])": {
        "details": "Convenience function to return a `roles` bitmap from an array of `ordinals`. This is meant for frontends like Etherscan, and is therefore not fully optimized. Not recommended to be called on-chain."
      },
      "rolesOf(address)": {
        "details": "Returns the roles of `user`."
      },
      "transferOwnership(address)": {
        "details": "Allows the owner to transfer the ownership to `newOwner`."
      }
    },
    "version": 1
  },
  "userdoc": {
    "errors": {
      "NotMinted()": [
        {
          "notice": "----------------------------------------------------------------------- Custom Errors -----------------------------------------------------------------------"
        }
      ]
    },
    "events": {
      "Transfer(address,address,uint256)": {
        "notice": "----------------------------------------------------------------------- Events -----------------------------------------------------------------------"
      }
    },
    "kind": "user",
    "methods": {
      "approve(address,uint256)": {
        "notice": "----------------------------------------------------------------------- ERC721 Logic -----------------------------------------------------------------------"
      },
      "burn(uint256)": {
        "notice": "Burns a token"
      },
      "getApproved(uint256)": {
        "notice": "----------------------------------------------------------------------- ERC721 Approval Storage -----------------------------------------------------------------------"
      },
      "mint(address)": {
        "notice": "Mints a new token to the given address"
      },
      "name()": {
        "notice": "----------------------------------------------------------------------- Metadata Storage/Logic -----------------------------------------------------------------------"
      },
      "supportsInterface(bytes4)": {
        "notice": "----------------------------------------------------------------------- ERC165 Logic -----------------------------------------------------------------------"
      }
    },
    "version": 1
  },
  "storageLayout": {
    "storage": [
      {
        "astId": 6739,
        "contract": "@web3-savings-cards/core-sol/contracts/Web3Card.sol:Web3Card",
        "label": "name",
        "offset": 0,
        "slot": "0",
        "type": "t_string_storage"
      },
      {
        "astId": 6741,
        "contract": "@web3-savings-cards/core-sol/contracts/Web3Card.sol:Web3Card",
        "label": "symbol",
        "offset": 0,
        "slot": "1",
        "type": "t_string_storage"
      },
      {
        "astId": 6753,
        "contract": "@web3-savings-cards/core-sol/contracts/Web3Card.sol:Web3Card",
        "label": "_ownerOf",
        "offset": 0,
        "slot": "2",
        "type": "t_mapping(t_uint256,t_address)"
      },
      {
        "astId": 6757,
        "contract": "@web3-savings-cards/core-sol/contracts/Web3Card.sol:Web3Card",
        "label": "_balanceOf",
        "offset": 0,
        "slot": "3",
        "type": "t_mapping(t_address,t_uint256)"
      },
      {
        "astId": 6807,
        "contract": "@web3-savings-cards/core-sol/contracts/Web3Card.sol:Web3Card",
        "label": "getApproved",
        "offset": 0,
        "slot": "4",
        "type": "t_mapping(t_uint256,t_address)"
      },
      {
        "astId": 6813,
        "contract": "@web3-savings-cards/core-sol/contracts/Web3Card.sol:Web3Card",
        "label": "isApprovedForAll",
        "offset": 0,
        "slot": "5",
        "type": "t_mapping(t_address,t_mapping(t_address,t_bool))"
      },
      {
        "astId": 15,
        "contract": "@web3-savings-cards/core-sol/contracts/Web3Card.sol:Web3Card",
        "label": "_idCounter",
        "offset": 0,
        "slot": "6",
        "type": "t_uint256"
      },
      {
        "astId": 18,
        "contract": "@web3-savings-cards/core-sol/contracts/Web3Card.sol:Web3Card",
        "label": "_erc721Storage",
        "offset": 0,
        "slot": "7",
        "type": "t_address"
      },
      {
        "astId": 8288,
        "contract": "@web3-savings-cards/core-sol/contracts/Web3Card.sol:Web3Card",
        "label": "_belongsTo",
        "offset": 0,
        "slot": "8",
        "type": "t_mapping(t_address,t_uint256)"
      }
    ],
    "types": {
      "t_address": {
        "encoding": "inplace",
        "label": "address",
        "numberOfBytes": "20"
      },
      "t_bool": {
        "encoding": "inplace",
        "label": "bool",
        "numberOfBytes": "1"
      },
      "t_mapping(t_address,t_bool)": {
        "encoding": "mapping",
        "key": "t_address",
        "label": "mapping(address => bool)",
        "numberOfBytes": "32",
        "value": "t_bool"
      },
      "t_mapping(t_address,t_mapping(t_address,t_bool))": {
        "encoding": "mapping",
        "key": "t_address",
        "label": "mapping(address => mapping(address => bool))",
        "numberOfBytes": "32",
        "value": "t_mapping(t_address,t_bool)"
      },
      "t_mapping(t_address,t_uint256)": {
        "encoding": "mapping",
        "key": "t_address",
        "label": "mapping(address => uint256)",
        "numberOfBytes": "32",
        "value": "t_uint256"
      },
      "t_mapping(t_uint256,t_address)": {
        "encoding": "mapping",
        "key": "t_uint256",
        "label": "mapping(uint256 => address)",
        "numberOfBytes": "32",
        "value": "t_address"
      },
      "t_string_storage": {
        "encoding": "bytes",
        "label": "string",
        "numberOfBytes": "32"
      },
      "t_uint256": {
        "encoding": "inplace",
        "label": "uint256",
        "numberOfBytes": "32"
      }
    }
  }
}