{
  "_format": "hh-sol-artifact-1",
  "contractName": "CantBeEvil",
  "sourceName": "@a16z/contracts/licenses/CantBeEvil.sol",
  "abi": [
    {
      "inputs": [
        {
          "internalType": "enum LicenseVersion",
          "name": "_licenseVersion",
          "type": "uint8"
        }
      ],
      "stateMutability": "nonpayable",
      "type": "constructor"
    },
    {
      "inputs": [],
      "name": "getLicenseName",
      "outputs": [
        {
          "internalType": "string",
          "name": "",
          "type": "string"
        }
      ],
      "stateMutability": "view",
      "type": "function"
    },
    {
      "inputs": [],
      "name": "getLicenseURI",
      "outputs": [
        {
          "internalType": "string",
          "name": "",
          "type": "string"
        }
      ],
      "stateMutability": "view",
      "type": "function"
    },
    {
      "inputs": [],
      "name": "licenseVersion",
      "outputs": [
        {
          "internalType": "enum LicenseVersion",
          "name": "",
          "type": "uint8"
        }
      ],
      "stateMutability": "view",
      "type": "function"
    },
    {
      "inputs": [
        {
          "internalType": "bytes4",
          "name": "interfaceId",
          "type": "bytes4"
        }
      ],
      "name": "supportsInterface",
      "outputs": [
        {
          "internalType": "bool",
          "name": "",
          "type": "bool"
        }
      ],
      "stateMutability": "view",
      "type": "function"
    }
  ],
  "bytecode": "0x608060405234801561001057600080fd5b506040516106b63803806106b683398101604081905261002f91610059565b6000805482919060ff1916600183600581111561004e5761004e610081565b021790555050610097565b60006020828403121561006b57600080fd5b81516006811061007a57600080fd5b9392505050565b634e487b7160e01b600052602160045260246000fd5b610610806100a66000396000f3fe608060405234801561001057600080fd5b506004361061004c5760003560e01c806301ffc9a71461005157806350a5292f14610079578063a341793b14610093578063c7db2893146100a8575b600080fd5b61006461005f3660046103e0565b6100b0565b60405190151581526020015b60405180910390f35b6000546100869060ff1681565b6040516100709190610427565b61009b6100e7565b604051610070919061047f565b61009b6100fe565b60006001600160e01b03198216630c934a3560e31b14806100e157506301ffc9a760e01b6001600160e01b03198316145b92915050565b6000546060906100f99060ff1661015e565b905090565b60606040518060600160405280603181526020016105aa603191396000546101399060ff16600581111561013457610134610411565b6102d7565b60405160200161014a9291906104b2565b604051602081830303815290604052905090565b6060600682600581111561017457610174610411565b60ff16111561018257600080fd5b81600581111561019457610194610411565b6000036101be57505060408051808201909152600781526604342455f4343360cc1b602082015290565b8160058111156101d0576101d0610411565b6001036101fa57505060408051808201909152600781526621a122afa2a1a960c91b602082015290565b81600581111561020c5761020c610411565b60020361023757505060408051808201909152600881526721a122afa722a1a960c11b602082015290565b81600581111561024957610249610411565b60030361027757505060408051808201909152600b81526a4342455f4e4543525f485360a81b602082015290565b81600581111561028957610289610411565b6004036102b257505060408051808201909152600681526521a122afa82960d11b602082015290565b50506040805180820190915260098152684342455f50525f485360b81b602082015290565b6060816000036102fe5750506040805180820190915260018152600360fc1b602082015290565b8160005b81156103285780610312816104f7565b91506103219050600a83610526565b9150610302565b60008167ffffffffffffffff8111156103435761034361053a565b6040519080825280601f01601f19166020018201604052801561036d576020820181803683370190505b5090505b84156103d857610382600183610550565b915061038f600a86610567565b61039a90603061057b565b60f81b8183815181106103af576103af610593565b60200101906001600160f81b031916908160001a9053506103d1600a86610526565b9450610371565b949350505050565b6000602082840312156103f257600080fd5b81356001600160e01b03198116811461040a57600080fd5b9392505050565b634e487b7160e01b600052602160045260246000fd5b602081016006831061044957634e487b7160e01b600052602160045260246000fd5b91905290565b60005b8381101561046a578181015183820152602001610452565b83811115610479576000848401525b50505050565b602081526000825180602084015261049e81604085016020870161044f565b601f01601f19169190910160400192915050565b600083516104c481846020880161044f565b8351908301906104d881836020880161044f565b01949350505050565b634e487b7160e01b600052601160045260246000fd5b600060018201610509576105096104e1565b5060010190565b634e487b7160e01b600052601260045260246000fd5b60008261053557610535610510565b500490565b634e487b7160e01b600052604160045260246000fd5b600082821015610562576105626104e1565b500390565b60008261057657610576610510565b500690565b6000821982111561058e5761058e6104e1565b500190565b634e487b7160e01b600052603260045260246000fdfe61723a2f2f5f44396b4e3157724e576243713535425341475262544234625333763851415054596d42546853625833412fa2646970667358221220da4587c2263d7367a2fbe742be151db81ad28ca5692da5b9c63603c8b04a907264736f6c634300080f0033",
  "linkReferences": {},
  "deployedLinkReferences": {}
}