{
  "_format": "hh-sol-artifact-1",
  "contractName": "Web3CardStorage",
  "sourceName": "@web3-savings-cards/core-sol/contracts/Web3CardStorage.sol",
  "abi": [
    {
      "inputs": [
        {
          "internalType": "address",
          "name": "_svgRender_",
          "type": "address"
        },
        {
          "internalType": "address",
          "name": "_traitsFetch_",
          "type": "address"
        },
        {
          "components": [
            {
              "internalType": "string",
              "name": "name",
              "type": "string"
            },
            {
              "internalType": "string",
              "name": "description",
              "type": "string"
            },
            {
              "internalType": "string",
              "name": "image",
              "type": "string"
            },
            {
              "internalType": "string",
              "name": "externalLink",
              "type": "string"
            },
            {
              "internalType": "string",
              "name": "sellerFeeBasisPoints",
              "type": "string"
            },
            {
              "internalType": "string",
              "name": "feeRecipient",
              "type": "string"
            }
          ],
          "internalType": "struct ERC721Storage.ContractURI",
          "name": "_contractURI_",
          "type": "tuple"
        },
        {
          "internalType": "address",
          "name": "_erc20TWABInstance",
          "type": "address"
        },
        {
          "internalType": "address",
          "name": "_erc721KDesignInstance",
          "type": "address"
        },
        {
          "internalType": "address",
          "name": "_assetUnderlying",
          "type": "address"
        }
      ],
      "stateMutability": "nonpayable",
      "type": "constructor"
    },
    {
      "inputs": [],
      "name": "Unauthorized",
      "type": "error"
    },
    {
      "anonymous": false,
      "inputs": [
        {
          "components": [
            {
              "internalType": "string",
              "name": "name",
              "type": "string"
            },
            {
              "internalType": "string",
              "name": "description",
              "type": "string"
            },
            {
              "internalType": "string",
              "name": "image",
              "type": "string"
            },
            {
              "internalType": "string",
              "name": "externalLink",
              "type": "string"
            },
            {
              "internalType": "string",
              "name": "sellerFeeBasisPoints",
              "type": "string"
            },
            {
              "internalType": "string",
              "name": "feeRecipient",
              "type": "string"
            }
          ],
          "indexed": false,
          "internalType": "struct ERC721Storage.ContractURI",
          "name": "contractURI",
          "type": "tuple"
        }
      ],
      "name": "ContractURIUpdated",
      "type": "event"
    },
    {
      "anonymous": false,
      "inputs": [
        {
          "indexed": true,
          "internalType": "address",
          "name": "user",
          "type": "address"
        },
        {
          "indexed": true,
          "internalType": "address",
          "name": "newOwner",
          "type": "address"
        }
      ],
      "name": "OwnershipTransferred",
      "type": "event"
    },
    {
      "anonymous": false,
      "inputs": [
        {
          "indexed": false,
          "internalType": "address",
          "name": "svgRender",
          "type": "address"
        }
      ],
      "name": "SvgRenderUpdated",
      "type": "event"
    },
    {
      "anonymous": false,
      "inputs": [
        {
          "indexed": false,
          "internalType": "address",
          "name": "traitsFetch",
          "type": "address"
        }
      ],
      "name": "TraitsFetchUpdated",
      "type": "event"
    },
    {
      "inputs": [],
      "name": "assetUnderlying",
      "outputs": [
        {
          "internalType": "address",
          "name": "",
          "type": "address"
        }
      ],
      "stateMutability": "view",
      "type": "function"
    },
    {
      "inputs": [],
      "name": "constructContractURI",
      "outputs": [
        {
          "internalType": "string",
          "name": "uri",
          "type": "string"
        }
      ],
      "stateMutability": "view",
      "type": "function"
    },
    {
      "inputs": [
        {
          "internalType": "uint256",
          "name": "tokenId",
          "type": "uint256"
        },
        {
          "internalType": "bytes",
          "name": "input0",
          "type": "bytes"
        },
        {
          "internalType": "bytes",
          "name": "input1",
          "type": "bytes"
        }
      ],
      "name": "constructTokenURI",
      "outputs": [
        {
          "internalType": "string",
          "name": "uri",
          "type": "string"
        }
      ],
      "stateMutability": "view",
      "type": "function"
    },
    {
      "inputs": [],
      "name": "erc20TWABInstance",
      "outputs": [
        {
          "internalType": "address",
          "name": "",
          "type": "address"
        }
      ],
      "stateMutability": "view",
      "type": "function"
    },
    {
      "inputs": [],
      "name": "erc721KDesignInstance",
      "outputs": [
        {
          "internalType": "address",
          "name": "",
          "type": "address"
        }
      ],
      "stateMutability": "view",
      "type": "function"
    },
    {
      "inputs": [],
      "name": "erc721KInstance",
      "outputs": [
        {
          "internalType": "address",
          "name": "",
          "type": "address"
        }
      ],
      "stateMutability": "view",
      "type": "function"
    },
    {
      "inputs": [],
      "name": "getContractDescription",
      "outputs": [
        {
          "components": [
            {
              "internalType": "string",
              "name": "name",
              "type": "string"
            },
            {
              "internalType": "string",
              "name": "description",
              "type": "string"
            },
            {
              "internalType": "string",
              "name": "image",
              "type": "string"
            },
            {
              "internalType": "string",
              "name": "externalLink",
              "type": "string"
            },
            {
              "internalType": "string",
              "name": "sellerFeeBasisPoints",
              "type": "string"
            },
            {
              "internalType": "string",
              "name": "feeRecipient",
              "type": "string"
            }
          ],
          "internalType": "struct ERC721Storage.ContractURI",
          "name": "",
          "type": "tuple"
        }
      ],
      "stateMutability": "view",
      "type": "function"
    },
    {
      "inputs": [
        {
          "internalType": "uint256",
          "name": "tokenId",
          "type": "uint256"
        }
      ],
      "name": "getImageBytes",
      "outputs": [
        {
          "internalType": "bytes",
          "name": "",
          "type": "bytes"
        }
      ],
      "stateMutability": "view",
      "type": "function"
    },
    {
      "inputs": [
        {
          "internalType": "address",
          "name": "account",
          "type": "address"
        }
      ],
      "name": "getPreview",
      "outputs": [
        {
          "internalType": "bytes",
          "name": "imageData",
          "type": "bytes"
        }
      ],
      "stateMutability": "view",
      "type": "function"
    },
    {
      "inputs": [
        {
          "internalType": "address",
          "name": "account",
          "type": "address"
        },
        {
          "internalType": "uint8",
          "name": "color",
          "type": "uint8"
        },
        {
          "internalType": "uint8",
          "name": "emoji",
          "type": "uint8"
        }
      ],
      "name": "getPreviewWithStyle",
      "outputs": [
        {
          "internalType": "bytes",
          "name": "bytesData",
          "type": "bytes"
        }
      ],
      "stateMutability": "view",
      "type": "function"
    },
    {
      "inputs": [],
      "name": "getSvgRender",
      "outputs": [
        {
          "internalType": "address",
          "name": "",
          "type": "address"
        }
      ],
      "stateMutability": "view",
      "type": "function"
    },
    {
      "inputs": [
        {
          "internalType": "uint256",
          "name": "tokenId",
          "type": "uint256"
        }
      ],
      "name": "getTraitsBytes",
      "outputs": [
        {
          "internalType": "bytes",
          "name": "",
          "type": "bytes"
        }
      ],
      "stateMutability": "view",
      "type": "function"
    },
    {
      "inputs": [],
      "name": "getTraitsFetch",
      "outputs": [
        {
          "internalType": "address",
          "name": "",
          "type": "address"
        }
      ],
      "stateMutability": "view",
      "type": "function"
    },
    {
      "inputs": [],
      "name": "owner",
      "outputs": [
        {
          "internalType": "address",
          "name": "",
          "type": "address"
        }
      ],
      "stateMutability": "view",
      "type": "function"
    },
    {
      "inputs": [
        {
          "internalType": "bytes",
          "name": "input",
          "type": "bytes"
        }
      ],
      "name": "render",
      "outputs": [
        {
          "internalType": "string",
          "name": "",
          "type": "string"
        }
      ],
      "stateMutability": "view",
      "type": "function"
    },
    {
      "inputs": [
        {
          "components": [
            {
              "internalType": "string",
              "name": "name",
              "type": "string"
            },
            {
              "internalType": "string",
              "name": "description",
              "type": "string"
            },
            {
              "internalType": "string",
              "name": "image",
              "type": "string"
            },
            {
              "internalType": "string",
              "name": "externalLink",
              "type": "string"
            },
            {
              "internalType": "string",
              "name": "sellerFeeBasisPoints",
              "type": "string"
            },
            {
              "internalType": "string",
              "name": "feeRecipient",
              "type": "string"
            }
          ],
          "internalType": "struct ERC721Storage.ContractURI",
          "name": "contractURI",
          "type": "tuple"
        }
      ],
      "name": "setContractURI",
      "outputs": [],
      "stateMutability": "nonpayable",
      "type": "function"
    },
    {
      "inputs": [
        {
          "internalType": "address",
          "name": "_erc20TWABInstance",
          "type": "address"
        }
      ],
      "name": "setERC20TWABInstance",
      "outputs": [],
      "stateMutability": "nonpayable",
      "type": "function"
    },
    {
      "inputs": [
        {
          "internalType": "address",
          "name": "_erc721KDesignInstance",
          "type": "address"
        }
      ],
      "name": "setERC721KDesignInstance",
      "outputs": [],
      "stateMutability": "nonpayable",
      "type": "function"
    },
    {
      "inputs": [
        {
          "internalType": "address",
          "name": "_erc721KInstance",
          "type": "address"
        }
      ],
      "name": "setERC721KInstance",
      "outputs": [],
      "stateMutability": "nonpayable",
      "type": "function"
    },
    {
      "inputs": [
        {
          "internalType": "address",
          "name": "svgRender",
          "type": "address"
        }
      ],
      "name": "setSvgRender",
      "outputs": [],
      "stateMutability": "nonpayable",
      "type": "function"
    },
    {
      "inputs": [
        {
          "internalType": "address",
          "name": "traitsFetch",
          "type": "address"
        }
      ],
      "name": "setTraitsFetch",
      "outputs": [],
      "stateMutability": "nonpayable",
      "type": "function"
    },
    {
      "inputs": [
        {
          "internalType": "address",
          "name": "newOwner",
          "type": "address"
        }
      ],
      "name": "transferOwnership",
      "outputs": [],
      "stateMutability": "payable",
      "type": "function"
    }
  ],
  "bytecode": "0x60806040526040518060400160405280600381526020017f6236c50000000000000000000000000000000000000000000000000000000000815250600d90816200004a919062000582565b503480156200005857600080fd5b5060405162004a0d38038062004a0d83398181016040528101906200007e9190620009b1565b85858533806000806101000a81548173ffffffffffffffffffffffffffffffffffffffff021916908373ffffffffffffffffffffffffffffffffffffffff1602179055508073ffffffffffffffffffffffffffffffffffffffff16600073ffffffffffffffffffffffffffffffffffffffff167f8be0079c531659141344cd1fd0a4f28419497f9722a3daafe3b4186f6b6457e060405160405180910390a35082600160006101000a81548173ffffffffffffffffffffffffffffffffffffffff021916908373ffffffffffffffffffffffffffffffffffffffff16021790555081600260006101000a81548173ffffffffffffffffffffffffffffffffffffffff021916908373ffffffffffffffffffffffffffffffffffffffff1602179055508060036000820151816000019081620001ba919062000ad1565b506020820151816001019081620001d2919062000ad1565b506040820151816002019081620001ea919062000ad1565b50606082015181600301908162000202919062000ad1565b5060808201518160040190816200021a919062000ad1565b5060a082015181600501908162000232919062000ad1565b5090505050505082600a60006101000a81548173ffffffffffffffffffffffffffffffffffffffff021916908373ffffffffffffffffffffffffffffffffffffffff16021790555081600c60006101000a81548173ffffffffffffffffffffffffffffffffffffffff021916908373ffffffffffffffffffffffffffffffffffffffff16021790555080600960006101000a81548173ffffffffffffffffffffffffffffffffffffffff021916908373ffffffffffffffffffffffffffffffffffffffff16021790555050505050505062000bb8565b600081519050919050565b7f4e487b7100000000000000000000000000000000000000000000000000000000600052604160045260246000fd5b7f4e487b7100000000000000000000000000000000000000000000000000000000600052602260045260246000fd5b600060028204905060018216806200038a57607f821691505b602082108103620003a0576200039f62000342565b5b50919050565b60008190508160005260206000209050919050565b60006020601f8301049050919050565b600082821b905092915050565b6000600883026200040a7fffffffffffffffffffffffffffffffffffffffffffffffffffffffffffffffff82620003cb565b620004168683620003cb565b95508019841693508086168417925050509392505050565b6000819050919050565b6000819050919050565b6000620004636200045d62000457846200042e565b62000438565b6200042e565b9050919050565b6000819050919050565b6200047f8362000442565b620004976200048e826200046a565b848454620003d8565b825550505050565b600090565b620004ae6200049f565b620004bb81848462000474565b505050565b5b81811015620004e357620004d7600082620004a4565b600181019050620004c1565b5050565b601f8211156200053257620004fc81620003a6565b6200050784620003bb565b8101602085101562000517578190505b6200052f6200052685620003bb565b830182620004c0565b50505b505050565b600082821c905092915050565b6000620005576000198460080262000537565b1980831691505092915050565b600062000572838362000544565b9150826002028217905092915050565b6200058d8262000308565b67ffffffffffffffff811115620005a957620005a862000313565b5b620005b5825462000371565b620005c2828285620004e7565b600060209050601f831160018114620005fa5760008415620005e5578287015190505b620005f1858262000564565b86555062000661565b601f1984166200060a86620003a6565b60005b8281101562000634578489015182556001820191506020850194506020810190506200060d565b8683101562000654578489015162000650601f89168262000544565b8355505b6001600288020188555050505b505050505050565b6000604051905090565b600080fd5b600080fd5b600073ffffffffffffffffffffffffffffffffffffffff82169050919050565b6000620006aa826200067d565b9050919050565b620006bc816200069d565b8114620006c857600080fd5b50565b600081519050620006dc81620006b1565b92915050565b600080fd5b6000601f19601f8301169050919050565b6200070382620006e7565b810181811067ffffffffffffffff8211171562000725576200072462000313565b5b80604052505050565b60006200073a62000669565b9050620007488282620006f8565b919050565b600080fd5b600080fd5b600080fd5b600067ffffffffffffffff8211156200077a576200077962000313565b5b6200078582620006e7565b9050602081019050919050565b60005b83811015620007b257808201518184015260208101905062000795565b83811115620007c2576000848401525b50505050565b6000620007df620007d9846200075c565b6200072e565b905082815260208101848484011115620007fe57620007fd62000757565b5b6200080b84828562000792565b509392505050565b600082601f8301126200082b576200082a62000752565b5b81516200083d848260208601620007c8565b91505092915050565b600060c082840312156200085f576200085e620006e2565b5b6200086b60c06200072e565b9050600082015167ffffffffffffffff8111156200088e576200088d6200074d565b5b6200089c8482850162000813565b600083015250602082015167ffffffffffffffff811115620008c357620008c26200074d565b5b620008d18482850162000813565b602083015250604082015167ffffffffffffffff811115620008f857620008f76200074d565b5b620009068482850162000813565b604083015250606082015167ffffffffffffffff8111156200092d576200092c6200074d565b5b6200093b8482850162000813565b606083015250608082015167ffffffffffffffff8111156200096257620009616200074d565b5b620009708482850162000813565b60808301525060a082015167ffffffffffffffff8111156200099757620009966200074d565b5b620009a58482850162000813565b60a08301525092915050565b60008060008060008060c08789031215620009d157620009d062000673565b5b6000620009e189828a01620006cb565b9650506020620009f489828a01620006cb565b955050604087015167ffffffffffffffff81111562000a185762000a1762000678565b5b62000a2689828a0162000846565b945050606062000a3989828a01620006cb565b935050608062000a4c89828a01620006cb565b92505060a062000a5f89828a01620006cb565b9150509295509295509295565b60008190508160005260206000209050919050565b601f82111562000acc5762000a968162000a6c565b62000aa184620003bb565b8101602085101562000ab1578190505b62000ac962000ac085620003bb565b830182620004c0565b50505b505050565b62000adc8262000308565b67ffffffffffffffff81111562000af85762000af762000313565b5b62000b04825462000371565b62000b1182828562000a81565b600060209050601f83116001811462000b49576000841562000b34578287015190505b62000b40858262000564565b86555062000bb0565b601f19841662000b598662000a6c565b60005b8281101562000b835784890151825560018201915060208501945060208101905062000b5c565b8683101562000ba3578489015162000b9f601f89168262000544565b8355505b6001600288020188555050505b505050505050565b613e458062000bc86000396000f3fe6080604052600436106101355760003560e01c80639a17092a116100ab578063c0ee32bc1161006f578063c0ee32bc1461043c578063d12bcb1214610465578063e75b8ac414610490578063f009cec8146104b9578063f0679616146104e4578063f2fde38b1461052157610135565b80639a17092a146103695780639eda5e7614610394578063a3f22a20146103bd578063a92569a9146103e8578063ae70ed131461041357610135565b80634aabb078116100fd5780634aabb0781461024557806357e30f44146102825780636795a874146102ab578063725fa09c146102d657806383bc303c146103015780638da5cb5b1461033e57610135565b80630976c5171461013a5780632a1a8ec8146101775780632d08d6b7146101a2578063316df61e146101df5780633ee6fa921461021c575b600080fd5b34801561014657600080fd5b50610161600480360381019061015c9190612754565b61053d565b60405161016e919061281a565b60405180910390f35b34801561018357600080fd5b5061018c6105f1565b604051610199919061287d565b60405180910390f35b3480156101ae57600080fd5b506101c960048036038101906101c49190612754565b610617565b6040516101d6919061281a565b60405180910390f35b3480156101eb57600080fd5b50610206600480360381019061020191906129cd565b6106cb565b6040516102139190612a6b565b60405180910390f35b34801561022857600080fd5b50610243600480360381019061023e9190612ab9565b610775565b005b34801561025157600080fd5b5061026c60048036038101906102679190612b1f565b610875565b604051610279919061281a565b60405180910390f35b34801561028e57600080fd5b506102a960048036038101906102a49190612d65565b610fba565b005b3480156102b757600080fd5b506102c0611103565b6040516102cd919061287d565b60405180910390f35b3480156102e257600080fd5b506102eb611129565b6040516102f89190612a6b565b60405180910390f35b34801561030d57600080fd5b5061032860048036038101906103239190612ab9565b611198565b604051610335919061281a565b60405180910390f35b34801561034a57600080fd5b506103536111ac565b604051610360919061287d565b60405180910390f35b34801561037557600080fd5b5061037e6111d0565b60405161038b919061287d565b60405180910390f35b3480156103a057600080fd5b506103bb60048036038101906103b69190612ab9565b6111fa565b005b3480156103c957600080fd5b506103d26112c3565b6040516103df919061287d565b60405180910390f35b3480156103f457600080fd5b506103fd6112ed565b60405161040a919061287d565b60405180910390f35b34801561041f57600080fd5b5061043a60048036038101906104359190612ab9565b611313565b005b34801561044857600080fd5b50610463600480360381019061045e9190612ab9565b611413565b005b34801561047157600080fd5b5061047a6114dc565b6040516104879190612ea4565b60405180910390f35b34801561049c57600080fd5b506104b760048036038101906104b29190612ab9565b611862565b005b3480156104c557600080fd5b506104ce61192b565b6040516104db919061287d565b60405180910390f35b3480156104f057600080fd5b5061050b60048036038101906105069190612ec6565b611951565b6040516105189190612a6b565b60405180910390f35b61053b60048036038101906105369190612ab9565b611b05565b005b60606000600b60009054906101000a900473ffffffffffffffffffffffffffffffffffffffff1673ffffffffffffffffffffffffffffffffffffffff16636352211e846040518263ffffffff1660e01b815260040161059c9190612f60565b602060405180830381865afa1580156105b9573d6000803e3d6000fd5b505050506040513d601f19601f820116820180604052508101906105dd9190612f90565b90506105e98382611c27565b915050919050565b600a60009054906101000a900473ffffffffffffffffffffffffffffffffffffffff1681565b60606000600b60009054906101000a900473ffffffffffffffffffffffffffffffffffffffff1673ffffffffffffffffffffffffffffffffffffffff16636352211e846040518263ffffffff1660e01b81526004016106769190612f60565b602060405180830381865afa158015610693573d6000803e3d6000fd5b505050506040513d601f19601f820116820180604052508101906106b79190612f90565b90506106c38382611c27565b915050919050565b6060600160009054906101000a900473ffffffffffffffffffffffffffffffffffffffff1673ffffffffffffffffffffffffffffffffffffffff1663316df61e836040518263ffffffff1660e01b8152600401610728919061281a565b600060405180830381865afa158015610745573d6000803e3d6000fd5b505050506040513d6000823e3d601f19601f8201168201806040525081019061076e919061302d565b9050919050565b60008054906101000a900473ffffffffffffffffffffffffffffffffffffffff1673ffffffffffffffffffffffffffffffffffffffff163373ffffffffffffffffffffffffffffffffffffffff16146107fa576040517f82b4290000000000000000000000000000000000000000000000000000000000815260040160405180910390fd5b80600260006101000a81548173ffffffffffffffffffffffffffffffffffffffff021916908373ffffffffffffffffffffffffffffffffffffffff1602179055507f10c0817f42b2182992d55b707430b153f12e59d7e54a975bfec790497dd7f63f8160405161086a919061287d565b60405180910390a150565b60606000610881612648565b61088961268f565b600c60009054906101000a900473ffffffffffffffffffffffffffffffffffffffff1673ffffffffffffffffffffffffffffffffffffffff16639f571e0b876040518263ffffffff1660e01b81526004016108e49190613085565b600060405180830381865afa158015610901573d6000803e3d6000fd5b505050506040513d6000823e3d601f19601f8201168201806040525081019061092a9190613110565b8160e00181905250600c60009054906101000a900473ffffffffffffffffffffffffffffffffffffffff1673ffffffffffffffffffffffffffffffffffffffff1663a96cc2f9866040518263ffffffff1660e01b815260040161098d9190613085565b600060405180830381865afa1580156109aa573d6000803e3d6000fd5b505050506040513d6000823e3d601f19601f820116820180604052508101906109d3919061302d565b8160c0018190525060008160c001515103610a27576040518060400160405280600481526020017ff09f92b3000000000000000000000000000000000000000000000000000000008152508160c001819052505b60008160e001515103610ac857600d8054610a4190613188565b80601f0160208091040260200160405190810160405280929190818152602001828054610a6d90613188565b8015610aba5780601f10610a8f57610100808354040283529160200191610aba565b820191906000526020600020905b815481529060010190602001808311610a9d57829003601f168201915b50505050508160e001819052505b600073ffffffffffffffffffffffffffffffffffffffff16600a60009054906101000a900473ffffffffffffffffffffffffffffffffffffffff1673ffffffffffffffffffffffffffffffffffffffff1614610f3e57600a60009054906101000a900473ffffffffffffffffffffffffffffffffffffffff1673ffffffffffffffffffffffffffffffffffffffff166370a08231886040518263ffffffff1660e01b8152600401610b79919061287d565b602060405180830381865afa158015610b96573d6000803e3d6000fd5b505050506040513d601f19601f82011682018060405250810190610bba91906131ce565b9250600a60009054906101000a900473ffffffffffffffffffffffffffffffffffffffff1673ffffffffffffffffffffffffffffffffffffffff16632aceb534886040518263ffffffff1660e01b8152600401610c17919061287d565b606060405180830381865afa158015610c34573d6000803e3d6000fd5b505050506040513d601f19601f82011682018060405250810190610c5891906132ec565b91506000429050600a60009054906101000a900473ffffffffffffffffffffffffffffffffffffffff1673ffffffffffffffffffffffffffffffffffffffff166398b16f36896212750042610cad9190613348565b846040518463ffffffff1660e01b8152600401610ccc9392919061339f565b602060405180830381865afa158015610ce9573d6000803e3d6000fd5b505050506040513d601f19601f82011682018060405250810190610d0d91906131ce565b826040018181525050600a60009054906101000a900473ffffffffffffffffffffffffffffffffffffffff1673ffffffffffffffffffffffffffffffffffffffff166398b16f36896249d40042610d649190613348565b846040518463ffffffff1660e01b8152600401610d839392919061339f565b602060405180830381865afa158015610da0573d6000803e3d6000fd5b505050506040513d601f19601f82011682018060405250810190610dc491906131ce565b826060018181525050600a60009054906101000a900473ffffffffffffffffffffffffffffffffffffffff1673ffffffffffffffffffffffffffffffffffffffff166398b16f368962eff10042610e1b9190613348565b846040518463ffffffff1660e01b8152600401610e3a9392919061339f565b602060405180830381865afa158015610e57573d6000803e3d6000fd5b505050506040513d601f19601f82011682018060405250810190610e7b91906131ce565b826080018181525050600a60009054906101000a900473ffffffffffffffffffffffffffffffffffffffff1673ffffffffffffffffffffffffffffffffffffffff166398b16f36896301dfe20042610ed39190613348565b846040518463ffffffff1660e01b8152600401610ef29392919061339f565b602060405180830381865afa158015610f0f573d6000803e3d6000fd5b505050506040513d601f19601f82011682018060405250810190610f3391906131ce565b8260a0018181525050505b86600960009054906101000a900473ffffffffffffffffffffffffffffffffffffffff168484600001518460400151856060015186608001518760a001518860c001518960e00151604051602001610f9f9a999897969594939291906133e5565b60405160208183030381529060405293505050509392505050565b60008054906101000a900473ffffffffffffffffffffffffffffffffffffffff1673ffffffffffffffffffffffffffffffffffffffff163373ffffffffffffffffffffffffffffffffffffffff161461103f576040517f82b4290000000000000000000000000000000000000000000000000000000000815260040160405180910390fd5b8060036000820151816000019081611057919061363b565b50602082015181600101908161106d919061363b565b506040820151816002019081611083919061363b565b506060820151816003019081611099919061363b565b5060808201518160040190816110af919061363b565b5060a08201518160050190816110c5919061363b565b509050507f03a10335d532669eac03b3b7e4ce44aff7f8cb14b7aa397c653fdcb40ae06bec816040516110f89190612ea4565b60405180910390a150565b600b60009054906101000a900473ffffffffffffffffffffffffffffffffffffffff1681565b60606111746003600001600360010160036002016003800160036004016003600501604051602001611160969594939291906138f1565b60405160208183030381529060405261236b565b6040516020016111849190613ae3565b604051602081830303815290604052905090565b60606111a5600083611c27565b9050919050565b60008054906101000a900473ffffffffffffffffffffffffffffffffffffffff1681565b6000600160009054906101000a900473ffffffffffffffffffffffffffffffffffffffff16905090565b60008054906101000a900473ffffffffffffffffffffffffffffffffffffffff1673ffffffffffffffffffffffffffffffffffffffff163373ffffffffffffffffffffffffffffffffffffffff161461127f576040517f82b4290000000000000000000000000000000000000000000000000000000000815260040160405180910390fd5b80600b60006101000a81548173ffffffffffffffffffffffffffffffffffffffff021916908373ffffffffffffffffffffffffffffffffffffffff16021790555050565b6000600260009054906101000a900473ffffffffffffffffffffffffffffffffffffffff16905090565b600960009054906101000a900473ffffffffffffffffffffffffffffffffffffffff1681565b60008054906101000a900473ffffffffffffffffffffffffffffffffffffffff1673ffffffffffffffffffffffffffffffffffffffff163373ffffffffffffffffffffffffffffffffffffffff1614611398576040517f82b4290000000000000000000000000000000000000000000000000000000000815260040160405180910390fd5b80600160006101000a81548173ffffffffffffffffffffffffffffffffffffffff021916908373ffffffffffffffffffffffffffffffffffffffff1602179055507f3c2715cb5e4b39dd4af38ac12bb292a030fb6a063dbd5467ed49da665bcaa97381604051611408919061287d565b60405180910390a150565b60008054906101000a900473ffffffffffffffffffffffffffffffffffffffff1673ffffffffffffffffffffffffffffffffffffffff163373ffffffffffffffffffffffffffffffffffffffff1614611498576040517f82b4290000000000000000000000000000000000000000000000000000000000815260040160405180910390fd5b80600c60006101000a81548173ffffffffffffffffffffffffffffffffffffffff021916908373ffffffffffffffffffffffffffffffffffffffff16021790555050565b6114e46126d4565b60036040518060c001604052908160008201805461150190613188565b80601f016020809104026020016040519081016040528092919081815260200182805461152d90613188565b801561157a5780601f1061154f5761010080835404028352916020019161157a565b820191906000526020600020905b81548152906001019060200180831161155d57829003601f168201915b5050505050815260200160018201805461159390613188565b80601f01602080910402602001604051908101604052809291908181526020018280546115bf90613188565b801561160c5780601f106115e15761010080835404028352916020019161160c565b820191906000526020600020905b8154815290600101906020018083116115ef57829003601f168201915b5050505050815260200160028201805461162590613188565b80601f016020809104026020016040519081016040528092919081815260200182805461165190613188565b801561169e5780601f106116735761010080835404028352916020019161169e565b820191906000526020600020905b81548152906001019060200180831161168157829003601f168201915b505050505081526020016003820180546116b790613188565b80601f01602080910402602001604051908101604052809291908181526020018280546116e390613188565b80156117305780601f1061170557610100808354040283529160200191611730565b820191906000526020600020905b81548152906001019060200180831161171357829003601f168201915b5050505050815260200160048201805461174990613188565b80601f016020809104026020016040519081016040528092919081815260200182805461177590613188565b80156117c25780601f10611797576101008083540402835291602001916117c2565b820191906000526020600020905b8154815290600101906020018083116117a557829003601f168201915b505050505081526020016005820180546117db90613188565b80601f016020809104026020016040519081016040528092919081815260200182805461180790613188565b80156118545780601f1061182957610100808354040283529160200191611854565b820191906000526020600020905b81548152906001019060200180831161183757829003601f168201915b505050505081525050905090565b60008054906101000a900473ffffffffffffffffffffffffffffffffffffffff1673ffffffffffffffffffffffffffffffffffffffff163373ffffffffffffffffffffffffffffffffffffffff16146118e7576040517f82b4290000000000000000000000000000000000000000000000000000000000815260040160405180910390fd5b80600a60006101000a81548173ffffffffffffffffffffffffffffffffffffffff021916908373ffffffffffffffffffffffffffffffffffffffff16021790555050565b600c60009054906101000a900473ffffffffffffffffffffffffffffffffffffffff1681565b60606000600160009054906101000a900473ffffffffffffffffffffffffffffffffffffffff1673ffffffffffffffffffffffffffffffffffffffff1663316df61e856040518263ffffffff1660e01b81526004016119b0919061281a565b600060405180830381865afa1580156119cd573d6000803e3d6000fd5b505050506040513d6000823e3d601f19601f820116820180604052508101906119f6919061302d565b90506000600260009054906101000a900473ffffffffffffffffffffffffffffffffffffffff1673ffffffffffffffffffffffffffffffffffffffff1663f6559a6b856040518263ffffffff1660e01b8152600401611a55919061281a565b600060405180830381865afa158015611a72573d6000803e3d6000fd5b505050506040513d6000823e3d601f19601f82011682018060405250810190611a9b919061302d565b9050611adb611aa987612380565b611ab2886123b1565b8484604051602001611ac79493929190613b51565b60405160208183030381529060405261236b565b604051602001611aeb9190613ae3565b604051602081830303815290604052925050509392505050565b60008054906101000a900473ffffffffffffffffffffffffffffffffffffffff1673ffffffffffffffffffffffffffffffffffffffff163373ffffffffffffffffffffffffffffffffffffffff1614611b8a576040517f82b4290000000000000000000000000000000000000000000000000000000000815260040160405180910390fd5b806000806101000a81548173ffffffffffffffffffffffffffffffffffffffff021916908373ffffffffffffffffffffffffffffffffffffffff1602179055508073ffffffffffffffffffffffffffffffffffffffff163373ffffffffffffffffffffffffffffffffffffffff167f8be0079c531659141344cd1fd0a4f28419497f9722a3daafe3b4186f6b6457e060405160405180910390a350565b60606000611c33612648565b611c3b61268f565b600c60009054906101000a900473ffffffffffffffffffffffffffffffffffffffff1673ffffffffffffffffffffffffffffffffffffffff1663be7d97b3876040518263ffffffff1660e01b8152600401611c969190612f60565b600060405180830381865afa158015611cb3573d6000803e3d6000fd5b505050506040513d6000823e3d601f19601f82011682018060405250810190611cdc919061302d565b8160c00181905250600c60009054906101000a900473ffffffffffffffffffffffffffffffffffffffff1673ffffffffffffffffffffffffffffffffffffffff166380057b9a876040518263ffffffff1660e01b8152600401611d3f9190612f60565b600060405180830381865afa158015611d5c573d6000803e3d6000fd5b505050506040513d6000823e3d601f19601f82011682018060405250810190611d859190613110565b8160e0018190525060008160c001515103611dd9576040518060400160405280600481526020017ff09f92b3000000000000000000000000000000000000000000000000000000008152508160c001819052505b60008160e001515103611e7a57600d8054611df390613188565b80601f0160208091040260200160405190810160405280929190818152602001828054611e1f90613188565b8015611e6c5780601f10611e4157610100808354040283529160200191611e6c565b820191906000526020600020905b815481529060010190602001808311611e4f57829003601f168201915b50505050508160e001819052505b600073ffffffffffffffffffffffffffffffffffffffff16600a60009054906101000a900473ffffffffffffffffffffffffffffffffffffffff1673ffffffffffffffffffffffffffffffffffffffff16146122f057600a60009054906101000a900473ffffffffffffffffffffffffffffffffffffffff1673ffffffffffffffffffffffffffffffffffffffff166370a08231866040518263ffffffff1660e01b8152600401611f2b919061287d565b602060405180830381865afa158015611f48573d6000803e3d6000fd5b505050506040513d601f19601f82011682018060405250810190611f6c91906131ce565b9250600a60009054906101000a900473ffffffffffffffffffffffffffffffffffffffff1673ffffffffffffffffffffffffffffffffffffffff16632aceb534866040518263ffffffff1660e01b8152600401611fc9919061287d565b606060405180830381865afa158015611fe6573d6000803e3d6000fd5b505050506040513d601f19601f8201168201806040525081019061200a91906132ec565b91506000429050600a60009054906101000a900473ffffffffffffffffffffffffffffffffffffffff1673ffffffffffffffffffffffffffffffffffffffff166398b16f3687621275004261205f9190613348565b846040518463ffffffff1660e01b815260040161207e9392919061339f565b602060405180830381865afa15801561209b573d6000803e3d6000fd5b505050506040513d601f19601f820116820180604052508101906120bf91906131ce565b826040018181525050600a60009054906101000a900473ffffffffffffffffffffffffffffffffffffffff1673ffffffffffffffffffffffffffffffffffffffff166398b16f36876249d400426121169190613348565b846040518463ffffffff1660e01b81526004016121359392919061339f565b602060405180830381865afa158015612152573d6000803e3d6000fd5b505050506040513d601f19601f8201168201806040525081019061217691906131ce565b826060018181525050600a60009054906101000a900473ffffffffffffffffffffffffffffffffffffffff1673ffffffffffffffffffffffffffffffffffffffff166398b16f368762eff100426121cd9190613348565b846040518463ffffffff1660e01b81526004016121ec9392919061339f565b602060405180830381865afa158015612209573d6000803e3d6000fd5b505050506040513d601f19601f8201168201806040525081019061222d91906131ce565b826080018181525050600a60009054906101000a900473ffffffffffffffffffffffffffffffffffffffff1673ffffffffffffffffffffffffffffffffffffffff166398b16f36876301dfe200426122859190613348565b846040518463ffffffff1660e01b81526004016122a49392919061339f565b602060405180830381865afa1580156122c1573d6000803e3d6000fd5b505050506040513d601f19601f820116820180604052508101906122e591906131ce565b8260a0018181525050505b84600960009054906101000a900473ffffffffffffffffffffffffffffffffffffffff168484600001518460400151856060015186608001518760a001518860c001518960e001516040516020016123519a999897969594939291906133e5565b604051602081830303815290604052935050505092915050565b6060612379826000806123d3565b9050919050565b606061238b826124e8565b60405160200161239b9190613c69565b6040516020818303038152906040529050919050565b6060604051806060016040528060228152602001613dee602291399050919050565b6060835180156124e0576003600282010460021b60405192507f4142434445464748494a4b4c4d4e4f505152535455565758595a616263646566601f526102308515027f6768696a6b6c6d6e6f707172737475767778797a303132333435363738392d5f03603f52602083018181015b600115612499576003880197508751603f8160121c16518353603f81600c1c16516001840153603f8160061c16516002840153603f81165160038401536004830192508183106124935750612499565b50612443565b6003840686600081146124b7576001821482151501850387526124cf565b603d821515850353603d6001831460011b8503538487525b50601f19601f830116604052505050505b509392505050565b60606000820361252f576040518060400160405280600181526020017f30000000000000000000000000000000000000000000000000000000000000008152509050612643565b600082905060005b6000821461256157808061254a90613c8f565b915050600a8261255a9190613d06565b9150612537565b60008167ffffffffffffffff81111561257d5761257c6128a2565b5b6040519080825280601f01601f1916602001820160405280156125af5781602001600182028036833780820191505090505b5090505b6000851461263c576001826125c89190613348565b9150600a856125d79190613d37565b60306125e39190613d68565b60f81b8183815181106125f9576125f8613dbe565b5b60200101907effffffffffffffffffffffffffffffffffffffffffffffffffffffffffffff1916908160001a905350600a856126359190613d06565b94506125b3565b8093505050505b919050565b6040518060600160405280600079ffffffffffffffffffffffffffffffffffffffffffffffffffff168152602001600062ffffff168152602001600062ffffff1681525090565b60405180610100016040528060008152602001600081526020016000815260200160008152602001600081526020016000815260200160608152602001606081525090565b6040518060c001604052806060815260200160608152602001606081526020016060815260200160608152602001606081525090565b6000604051905090565b600080fd5b600080fd5b6000819050919050565b6127318161271e565b811461273c57600080fd5b50565b60008135905061274e81612728565b92915050565b60006020828403121561276a57612769612714565b5b60006127788482850161273f565b91505092915050565b600081519050919050565b600082825260208201905092915050565b60005b838110156127bb5780820151818401526020810190506127a0565b838111156127ca576000848401525b50505050565b6000601f19601f8301169050919050565b60006127ec82612781565b6127f6818561278c565b935061280681856020860161279d565b61280f816127d0565b840191505092915050565b6000602082019050818103600083015261283481846127e1565b905092915050565b600073ffffffffffffffffffffffffffffffffffffffff82169050919050565b60006128678261283c565b9050919050565b6128778161285c565b82525050565b6000602082019050612892600083018461286e565b92915050565b600080fd5b600080fd5b7f4e487b7100000000000000000000000000000000000000000000000000000000600052604160045260246000fd5b6128da826127d0565b810181811067ffffffffffffffff821117156128f9576128f86128a2565b5b80604052505050565b600061290c61270a565b905061291882826128d1565b919050565b600067ffffffffffffffff821115612938576129376128a2565b5b612941826127d0565b9050602081019050919050565b82818337600083830152505050565b600061297061296b8461291d565b612902565b90508281526020810184848401111561298c5761298b61289d565b5b61299784828561294e565b509392505050565b600082601f8301126129b4576129b3612898565b5b81356129c484826020860161295d565b91505092915050565b6000602082840312156129e3576129e2612714565b5b600082013567ffffffffffffffff811115612a0157612a00612719565b5b612a0d8482850161299f565b91505092915050565b600081519050919050565b600082825260208201905092915050565b6000612a3d82612a16565b612a478185612a21565b9350612a5781856020860161279d565b612a60816127d0565b840191505092915050565b60006020820190508181036000830152612a858184612a32565b905092915050565b612a968161285c565b8114612aa157600080fd5b50565b600081359050612ab381612a8d565b92915050565b600060208284031215612acf57612ace612714565b5b6000612add84828501612aa4565b91505092915050565b600060ff82169050919050565b612afc81612ae6565b8114612b0757600080fd5b50565b600081359050612b1981612af3565b92915050565b600080600060608486031215612b3857612b37612714565b5b6000612b4686828701612aa4565b9350506020612b5786828701612b0a565b9250506040612b6886828701612b0a565b9150509250925092565b600080fd5b600080fd5b600067ffffffffffffffff821115612b9757612b966128a2565b5b612ba0826127d0565b9050602081019050919050565b6000612bc0612bbb84612b7c565b612902565b905082815260208101848484011115612bdc57612bdb61289d565b5b612be784828561294e565b509392505050565b600082601f830112612c0457612c03612898565b5b8135612c14848260208601612bad565b91505092915050565b600060c08284031215612c3357612c32612b72565b5b612c3d60c0612902565b9050600082013567ffffffffffffffff811115612c5d57612c5c612b77565b5b612c6984828501612bef565b600083015250602082013567ffffffffffffffff811115612c8d57612c8c612b77565b5b612c9984828501612bef565b602083015250604082013567ffffffffffffffff811115612cbd57612cbc612b77565b5b612cc984828501612bef565b604083015250606082013567ffffffffffffffff811115612ced57612cec612b77565b5b612cf984828501612bef565b606083015250608082013567ffffffffffffffff811115612d1d57612d1c612b77565b5b612d2984828501612bef565b60808301525060a082013567ffffffffffffffff811115612d4d57612d4c612b77565b5b612d5984828501612bef565b60a08301525092915050565b600060208284031215612d7b57612d7a612714565b5b600082013567ffffffffffffffff811115612d9957612d98612719565b5b612da584828501612c1d565b91505092915050565b600082825260208201905092915050565b6000612dca82612a16565b612dd48185612dae565b9350612de481856020860161279d565b612ded816127d0565b840191505092915050565b600060c0830160008301518482036000860152612e158282612dbf565b91505060208301518482036020860152612e2f8282612dbf565b91505060408301518482036040860152612e498282612dbf565b91505060608301518482036060860152612e638282612dbf565b91505060808301518482036080860152612e7d8282612dbf565b91505060a083015184820360a0860152612e978282612dbf565b9150508091505092915050565b60006020820190508181036000830152612ebe8184612df8565b905092915050565b600080600060608486031215612edf57612ede612714565b5b6000612eed8682870161273f565b935050602084013567ffffffffffffffff811115612f0e57612f0d612719565b5b612f1a8682870161299f565b925050604084013567ffffffffffffffff811115612f3b57612f3a612719565b5b612f478682870161299f565b9150509250925092565b612f5a8161271e565b82525050565b6000602082019050612f756000830184612f51565b92915050565b600081519050612f8a81612a8d565b92915050565b600060208284031215612fa657612fa5612714565b5b6000612fb484828501612f7b565b91505092915050565b6000612fd0612fcb84612b7c565b612902565b905082815260208101848484011115612fec57612feb61289d565b5b612ff784828561279d565b509392505050565b600082601f83011261301457613013612898565b5b8151613024848260208601612fbd565b91505092915050565b60006020828403121561304357613042612714565b5b600082015167ffffffffffffffff81111561306157613060612719565b5b61306d84828501612fff565b91505092915050565b61307f81612ae6565b82525050565b600060208201905061309a6000830184613076565b92915050565b60006130b36130ae8461291d565b612902565b9050828152602081018484840111156130cf576130ce61289d565b5b6130da84828561279d565b509392505050565b600082601f8301126130f7576130f6612898565b5b81516131078482602086016130a0565b91505092915050565b60006020828403121561312657613125612714565b5b600082015167ffffffffffffffff81111561314457613143612719565b5b613150848285016130e2565b91505092915050565b7f4e487b7100000000000000000000000000000000000000000000000000000000600052602260045260246000fd5b600060028204905060018216806131a057607f821691505b6020821081036131b3576131b2613159565b5b50919050565b6000815190506131c881612728565b92915050565b6000602082840312156131e4576131e3612714565b5b60006131f2848285016131b9565b91505092915050565b600079ffffffffffffffffffffffffffffffffffffffffffffffffffff82169050919050565b61322a816131fb565b811461323557600080fd5b50565b60008151905061324781613221565b92915050565b600062ffffff82169050919050565b6132658161324d565b811461327057600080fd5b50565b6000815190506132828161325c565b92915050565b60006060828403121561329e5761329d612b72565b5b6132a86060612902565b905060006132b884828501613238565b60008301525060206132cc84828501613273565b60208301525060406132e084828501613273565b60408301525092915050565b60006060828403121561330257613301612714565b5b600061331084828501613288565b91505092915050565b7f4e487b7100000000000000000000000000000000000000000000000000000000600052601160045260246000fd5b60006133538261271e565b915061335e8361271e565b92508282101561337157613370613319565b5b828203905092915050565b600067ffffffffffffffff82169050919050565b6133998161337c565b82525050565b60006060820190506133b4600083018661286e565b6133c16020830185613390565b6133ce6040830184613390565b949350505050565b6133df816131fb565b82525050565b6000610140820190506133fb600083018d61286e565b613408602083018c61286e565b613415604083018b612f51565b613422606083018a6133d6565b61342f6080830189612f51565b61343c60a0830188612f51565b61344960c0830187612f51565b61345660e0830186612f51565b8181036101008301526134698185612a32565b905081810361012083015261347e81846127e1565b90509b9a5050505050505050505050565b60008190508160005260206000209050919050565b60006020601f8301049050919050565b600082821b905092915050565b6000600883026134f17fffffffffffffffffffffffffffffffffffffffffffffffffffffffffffffffff826134b4565b6134fb86836134b4565b95508019841693508086168417925050509392505050565b6000819050919050565b600061353861353361352e8461271e565b613513565b61271e565b9050919050565b6000819050919050565b6135528361351d565b61356661355e8261353f565b8484546134c1565b825550505050565b600090565b61357b61356e565b613586818484613549565b505050565b5b818110156135aa5761359f600082613573565b60018101905061358c565b5050565b601f8211156135ef576135c08161348f565b6135c9846134a4565b810160208510156135d8578190505b6135ec6135e4856134a4565b83018261358b565b50505b505050565b600082821c905092915050565b6000613612600019846008026135f4565b1980831691505092915050565b600061362b8383613601565b9150826002028217905092915050565b61364482612a16565b67ffffffffffffffff81111561365d5761365c6128a2565b5b6136678254613188565b6136728282856135ae565b600060209050601f8311600181146136a55760008415613693578287015190505b61369d858261361f565b865550613705565b601f1984166136b38661348f565b60005b828110156136db578489015182556001820191506020850194506020810190506136b6565b868310156136f857848901516136f4601f891682613601565b8355505b6001600288020188555050505b505050505050565b7f7b226e616d65223a000000000000000000000000000000000000000000000000815250565b7f2200000000000000000000000000000000000000000000000000000000000000815250565b600081905092915050565b6000815461377181613188565b61377b8186613759565b9450600182166000811461379657600181146137ab576137de565b60ff19831686528115158202860193506137de565b6137b48561348f565b60005b838110156137d6578154818901526001820191506020810190506137b7565b838801955050505b50505092915050565b7f222c000000000000000000000000000000000000000000000000000000000000815250565b7f226465736372697074696f6e223a000000000000000000000000000000000000815250565b7f22696d616765223a000000000000000000000000000000000000000000000000815250565b7f2265787465726e616c4c696e6b223a0000000000000000000000000000000000815250565b7f2273656c6c65724665654261736973506f696e7473223a000000000000000000815250565b7f22666565526563697069656e74223a0000000000000000000000000000000000815250565b7f7d00000000000000000000000000000000000000000000000000000000000000815250565b60006138fc8261370d565b60088201915061390b82613733565b60018201915061391b8289613764565b9150613926826137e7565b6002820191506139358261380d565b600e8201915061394482613733565b6001820191506139548288613764565b915061395f826137e7565b60028201915061396e82613833565b60088201915061397d82613733565b60018201915061398d8287613764565b9150613998826137e7565b6002820191506139a782613859565b600f820191506139b682613733565b6001820191506139c68286613764565b91506139d1826137e7565b6002820191506139e08261387f565b6017820191506139ef82613733565b6001820191506139ff8285613764565b9150613a0a826137e7565b600282019150613a19826138a5565b600f82019150613a2882613733565b600182019150613a388284613764565b9150613a4382613733565b600182019150613a52826138cb565b600182019150819050979650505050505050565b7f646174613a6170706c69636174696f6e2f6a736f6e3b6261736536342c000000600082015250565b6000613a9c601d83613759565b9150613aa782613a66565b601d82019050919050565b6000613abd82612a16565b613ac78185613759565b9350613ad781856020860161279d565b80840191505092915050565b6000613aee82613a8f565b9150613afa8284613ab2565b915081905092915050565b7f2261747472696275746573223a205b0000000000000000000000000000000000815250565b7f5d00000000000000000000000000000000000000000000000000000000000000815250565b6000613b5c8261370d565b600882019150613b6b82613733565b600182019150613b7b8287613ab2565b9150613b86826137e7565b600282019150613b958261380d565b600e82019150613ba482613733565b600182019150613bb48286613ab2565b9150613bbf826137e7565b600282019150613bce82613833565b600882019150613bdd82613733565b600182019150613bed8285613ab2565b9150613bf8826137e7565b600282019150613c0782613b05565b600f82019150613c178284613ab2565b9150613c2282613b2b565b600182019150613c31826138cb565b60018201915081905095945050505050565b7f5765623320536176696e67732043617264202300000000000000000000000000815250565b6000613c7482613c43565b601382019150613c848284613ab2565b915081905092915050565b6000613c9a8261271e565b91507fffffffffffffffffffffffffffffffffffffffffffffffffffffffffffffffff8203613ccc57613ccb613319565b5b600182019050919050565b7f4e487b7100000000000000000000000000000000000000000000000000000000600052601260045260246000fd5b6000613d118261271e565b9150613d1c8361271e565b925082613d2c57613d2b613cd7565b5b828204905092915050565b6000613d428261271e565b9150613d4d8361271e565b925082613d5d57613d5c613cd7565b5b828206905092915050565b6000613d738261271e565b9150613d7e8361271e565b9250827fffffffffffffffffffffffffffffffffffffffffffffffffffffffffffffffff03821115613db357613db2613319565b5b828201905092915050565b7f4e487b7100000000000000000000000000000000000000000000000000000000600052603260045260246000fdfe4d656d626572206f6620746865205765623320536176696e6773204e6574776f726ba2646970667358221220d0fa82c313e33984a9f4270c8974402575f943ce3ff0e4a221fabecbb25dbb4d64736f6c634300080f0033",
  "linkReferences": {},
  "deployedLinkReferences": {}
}