{
  "_format": "hh-sol-artifact-1",
  "contractName": "Web3CardStorage",
  "sourceName": "@web3-savings-cards/core-sol/contracts/Web3CardStorage.sol",
  "abi": [
    {
      "inputs": [
        {
          "internalType": "address",
          "name": "_svgRender_",
          "type": "address"
        },
        {
          "internalType": "address",
          "name": "_traitsFetch_",
          "type": "address"
        },
        {
          "components": [
            {
              "internalType": "string",
              "name": "name",
              "type": "string"
            },
            {
              "internalType": "string",
              "name": "description",
              "type": "string"
            },
            {
              "internalType": "string",
              "name": "image",
              "type": "string"
            },
            {
              "internalType": "string",
              "name": "externalLink",
              "type": "string"
            },
            {
              "internalType": "string",
              "name": "sellerFeeBasisPoints",
              "type": "string"
            },
            {
              "internalType": "string",
              "name": "feeRecipient",
              "type": "string"
            }
          ],
          "internalType": "struct ERC721Storage.ContractURI",
          "name": "_contractURI_",
          "type": "tuple"
        },
        {
          "internalType": "address",
          "name": "_erc20TWABInstance",
          "type": "address"
        },
        {
          "internalType": "address",
          "name": "_erc721KDesignInstance",
          "type": "address"
        },
        {
          "internalType": "address",
          "name": "_assetUnderlying",
          "type": "address"
        }
      ],
      "stateMutability": "nonpayable",
      "type": "constructor"
    },
    {
      "anonymous": false,
      "inputs": [
        {
          "components": [
            {
              "internalType": "string",
              "name": "name",
              "type": "string"
            },
            {
              "internalType": "string",
              "name": "description",
              "type": "string"
            },
            {
              "internalType": "string",
              "name": "image",
              "type": "string"
            },
            {
              "internalType": "string",
              "name": "externalLink",
              "type": "string"
            },
            {
              "internalType": "string",
              "name": "sellerFeeBasisPoints",
              "type": "string"
            },
            {
              "internalType": "string",
              "name": "feeRecipient",
              "type": "string"
            }
          ],
          "indexed": false,
          "internalType": "struct ERC721Storage.ContractURI",
          "name": "contractURI",
          "type": "tuple"
        }
      ],
      "name": "ContractURIUpdated",
      "type": "event"
    },
    {
      "anonymous": false,
      "inputs": [
        {
          "indexed": true,
          "internalType": "address",
          "name": "previousOwner",
          "type": "address"
        },
        {
          "indexed": true,
          "internalType": "address",
          "name": "newOwner",
          "type": "address"
        }
      ],
      "name": "OwnershipTransferred",
      "type": "event"
    },
    {
      "anonymous": false,
      "inputs": [
        {
          "indexed": false,
          "internalType": "address",
          "name": "svgRender",
          "type": "address"
        }
      ],
      "name": "SvgRenderUpdated",
      "type": "event"
    },
    {
      "anonymous": false,
      "inputs": [
        {
          "indexed": false,
          "internalType": "address",
          "name": "traitsFetch",
          "type": "address"
        }
      ],
      "name": "TraitsFetchUpdated",
      "type": "event"
    },
    {
      "inputs": [],
      "name": "assetUnderlying",
      "outputs": [
        {
          "internalType": "address",
          "name": "",
          "type": "address"
        }
      ],
      "stateMutability": "view",
      "type": "function"
    },
    {
      "inputs": [],
      "name": "constructContractURI",
      "outputs": [
        {
          "internalType": "string",
          "name": "uri",
          "type": "string"
        }
      ],
      "stateMutability": "view",
      "type": "function"
    },
    {
      "inputs": [
        {
          "internalType": "uint256",
          "name": "tokenId",
          "type": "uint256"
        },
        {
          "internalType": "bytes",
          "name": "input0",
          "type": "bytes"
        },
        {
          "internalType": "bytes",
          "name": "input1",
          "type": "bytes"
        }
      ],
      "name": "constructTokenURI",
      "outputs": [
        {
          "internalType": "string",
          "name": "uri",
          "type": "string"
        }
      ],
      "stateMutability": "view",
      "type": "function"
    },
    {
      "inputs": [],
      "name": "erc20TWABInstance",
      "outputs": [
        {
          "internalType": "address",
          "name": "",
          "type": "address"
        }
      ],
      "stateMutability": "view",
      "type": "function"
    },
    {
      "inputs": [],
      "name": "erc721KDesignInstance",
      "outputs": [
        {
          "internalType": "address",
          "name": "",
          "type": "address"
        }
      ],
      "stateMutability": "view",
      "type": "function"
    },
    {
      "inputs": [],
      "name": "erc721KInstance",
      "outputs": [
        {
          "internalType": "address",
          "name": "",
          "type": "address"
        }
      ],
      "stateMutability": "view",
      "type": "function"
    },
    {
      "inputs": [],
      "name": "getContractDescription",
      "outputs": [
        {
          "components": [
            {
              "internalType": "string",
              "name": "name",
              "type": "string"
            },
            {
              "internalType": "string",
              "name": "description",
              "type": "string"
            },
            {
              "internalType": "string",
              "name": "image",
              "type": "string"
            },
            {
              "internalType": "string",
              "name": "externalLink",
              "type": "string"
            },
            {
              "internalType": "string",
              "name": "sellerFeeBasisPoints",
              "type": "string"
            },
            {
              "internalType": "string",
              "name": "feeRecipient",
              "type": "string"
            }
          ],
          "internalType": "struct ERC721Storage.ContractURI",
          "name": "",
          "type": "tuple"
        }
      ],
      "stateMutability": "view",
      "type": "function"
    },
    {
      "inputs": [
        {
          "internalType": "uint256",
          "name": "tokenId",
          "type": "uint256"
        }
      ],
      "name": "getImageBytes",
      "outputs": [
        {
          "internalType": "bytes",
          "name": "",
          "type": "bytes"
        }
      ],
      "stateMutability": "view",
      "type": "function"
    },
    {
      "inputs": [
        {
          "internalType": "address",
          "name": "account",
          "type": "address"
        }
      ],
      "name": "getPreview",
      "outputs": [
        {
          "internalType": "bytes",
          "name": "imageData",
          "type": "bytes"
        }
      ],
      "stateMutability": "view",
      "type": "function"
    },
    {
      "inputs": [
        {
          "internalType": "address",
          "name": "account",
          "type": "address"
        },
        {
          "internalType": "uint8",
          "name": "color",
          "type": "uint8"
        },
        {
          "internalType": "uint8",
          "name": "emoji",
          "type": "uint8"
        }
      ],
      "name": "getPreviewWithStyle",
      "outputs": [
        {
          "internalType": "bytes",
          "name": "bytesData",
          "type": "bytes"
        }
      ],
      "stateMutability": "view",
      "type": "function"
    },
    {
      "inputs": [],
      "name": "getSvgRender",
      "outputs": [
        {
          "internalType": "address",
          "name": "",
          "type": "address"
        }
      ],
      "stateMutability": "view",
      "type": "function"
    },
    {
      "inputs": [
        {
          "internalType": "uint256",
          "name": "tokenId",
          "type": "uint256"
        }
      ],
      "name": "getTraitsBytes",
      "outputs": [
        {
          "internalType": "bytes",
          "name": "",
          "type": "bytes"
        }
      ],
      "stateMutability": "view",
      "type": "function"
    },
    {
      "inputs": [],
      "name": "getTraitsFetch",
      "outputs": [
        {
          "internalType": "address",
          "name": "",
          "type": "address"
        }
      ],
      "stateMutability": "view",
      "type": "function"
    },
    {
      "inputs": [],
      "name": "owner",
      "outputs": [
        {
          "internalType": "address",
          "name": "",
          "type": "address"
        }
      ],
      "stateMutability": "view",
      "type": "function"
    },
    {
      "inputs": [
        {
          "internalType": "bytes",
          "name": "input",
          "type": "bytes"
        }
      ],
      "name": "render",
      "outputs": [
        {
          "internalType": "string",
          "name": "",
          "type": "string"
        }
      ],
      "stateMutability": "view",
      "type": "function"
    },
    {
      "inputs": [],
      "name": "renounceOwnership",
      "outputs": [],
      "stateMutability": "nonpayable",
      "type": "function"
    },
    {
      "inputs": [
        {
          "components": [
            {
              "internalType": "string",
              "name": "name",
              "type": "string"
            },
            {
              "internalType": "string",
              "name": "description",
              "type": "string"
            },
            {
              "internalType": "string",
              "name": "image",
              "type": "string"
            },
            {
              "internalType": "string",
              "name": "externalLink",
              "type": "string"
            },
            {
              "internalType": "string",
              "name": "sellerFeeBasisPoints",
              "type": "string"
            },
            {
              "internalType": "string",
              "name": "feeRecipient",
              "type": "string"
            }
          ],
          "internalType": "struct ERC721Storage.ContractURI",
          "name": "contractURI",
          "type": "tuple"
        }
      ],
      "name": "setContractURI",
      "outputs": [],
      "stateMutability": "nonpayable",
      "type": "function"
    },
    {
      "inputs": [
        {
          "internalType": "address",
          "name": "_erc20TWABInstance",
          "type": "address"
        }
      ],
      "name": "setERC20TWABInstance",
      "outputs": [],
      "stateMutability": "nonpayable",
      "type": "function"
    },
    {
      "inputs": [
        {
          "internalType": "address",
          "name": "_erc721KDesignInstance",
          "type": "address"
        }
      ],
      "name": "setERC721KDesignInstance",
      "outputs": [],
      "stateMutability": "nonpayable",
      "type": "function"
    },
    {
      "inputs": [
        {
          "internalType": "address",
          "name": "_erc721KInstance",
          "type": "address"
        }
      ],
      "name": "setERC721KInstance",
      "outputs": [],
      "stateMutability": "nonpayable",
      "type": "function"
    },
    {
      "inputs": [
        {
          "internalType": "address",
          "name": "svgRender",
          "type": "address"
        }
      ],
      "name": "setSvgRender",
      "outputs": [],
      "stateMutability": "nonpayable",
      "type": "function"
    },
    {
      "inputs": [
        {
          "internalType": "address",
          "name": "traitsFetch",
          "type": "address"
        }
      ],
      "name": "setTraitsFetch",
      "outputs": [],
      "stateMutability": "nonpayable",
      "type": "function"
    },
    {
      "inputs": [
        {
          "internalType": "address",
          "name": "newOwner",
          "type": "address"
        }
      ],
      "name": "transferOwnership",
      "outputs": [],
      "stateMutability": "nonpayable",
      "type": "function"
    }
  ],
  "bytecode": "0x60806040526040518060400160405280600381526020017f28236e0000000000000000000000000000000000000000000000000000000000815250600d90816200004a9190620005d1565b503480156200005857600080fd5b50604051620049933803806200499383398181016040528101906200007e919062000a00565b858585620000a1620000956200028b60201b60201c565b6200029360201b60201c565b82600160006101000a81548173ffffffffffffffffffffffffffffffffffffffff021916908373ffffffffffffffffffffffffffffffffffffffff16021790555081600260006101000a81548173ffffffffffffffffffffffffffffffffffffffff021916908373ffffffffffffffffffffffffffffffffffffffff16021790555080600360008201518160000190816200013d919062000b20565b50602082015181600101908162000155919062000b20565b5060408201518160020190816200016d919062000b20565b50606082015181600301908162000185919062000b20565b5060808201518160040190816200019d919062000b20565b5060a0820151816005019081620001b5919062000b20565b5090505050505082600a60006101000a81548173ffffffffffffffffffffffffffffffffffffffff021916908373ffffffffffffffffffffffffffffffffffffffff16021790555081600c60006101000a81548173ffffffffffffffffffffffffffffffffffffffff021916908373ffffffffffffffffffffffffffffffffffffffff16021790555080600960006101000a81548173ffffffffffffffffffffffffffffffffffffffff021916908373ffffffffffffffffffffffffffffffffffffffff16021790555050505050505062000c07565b600033905090565b60008060009054906101000a900473ffffffffffffffffffffffffffffffffffffffff169050816000806101000a81548173ffffffffffffffffffffffffffffffffffffffff021916908373ffffffffffffffffffffffffffffffffffffffff1602179055508173ffffffffffffffffffffffffffffffffffffffff168173ffffffffffffffffffffffffffffffffffffffff167f8be0079c531659141344cd1fd0a4f28419497f9722a3daafe3b4186f6b6457e060405160405180910390a35050565b600081519050919050565b7f4e487b7100000000000000000000000000000000000000000000000000000000600052604160045260246000fd5b7f4e487b7100000000000000000000000000000000000000000000000000000000600052602260045260246000fd5b60006002820490506001821680620003d957607f821691505b602082108103620003ef57620003ee62000391565b5b50919050565b60008190508160005260206000209050919050565b60006020601f8301049050919050565b600082821b905092915050565b600060088302620004597fffffffffffffffffffffffffffffffffffffffffffffffffffffffffffffffff826200041a565b6200046586836200041a565b95508019841693508086168417925050509392505050565b6000819050919050565b6000819050919050565b6000620004b2620004ac620004a6846200047d565b62000487565b6200047d565b9050919050565b6000819050919050565b620004ce8362000491565b620004e6620004dd82620004b9565b84845462000427565b825550505050565b600090565b620004fd620004ee565b6200050a818484620004c3565b505050565b5b81811015620005325762000526600082620004f3565b60018101905062000510565b5050565b601f82111562000581576200054b81620003f5565b62000556846200040a565b8101602085101562000566578190505b6200057e62000575856200040a565b8301826200050f565b50505b505050565b600082821c905092915050565b6000620005a66000198460080262000586565b1980831691505092915050565b6000620005c1838362000593565b9150826002028217905092915050565b620005dc8262000357565b67ffffffffffffffff811115620005f857620005f762000362565b5b620006048254620003c0565b6200061182828562000536565b600060209050601f83116001811462000649576000841562000634578287015190505b620006408582620005b3565b865550620006b0565b601f1984166200065986620003f5565b60005b8281101562000683578489015182556001820191506020850194506020810190506200065c565b86831015620006a357848901516200069f601f89168262000593565b8355505b6001600288020188555050505b505050505050565b6000604051905090565b600080fd5b600080fd5b600073ffffffffffffffffffffffffffffffffffffffff82169050919050565b6000620006f982620006cc565b9050919050565b6200070b81620006ec565b81146200071757600080fd5b50565b6000815190506200072b8162000700565b92915050565b600080fd5b6000601f19601f8301169050919050565b620007528262000736565b810181811067ffffffffffffffff8211171562000774576200077362000362565b5b80604052505050565b600062000789620006b8565b905062000797828262000747565b919050565b600080fd5b600080fd5b600080fd5b600067ffffffffffffffff821115620007c957620007c862000362565b5b620007d48262000736565b9050602081019050919050565b60005b8381101562000801578082015181840152602081019050620007e4565b8381111562000811576000848401525b50505050565b60006200082e6200082884620007ab565b6200077d565b9050828152602081018484840111156200084d576200084c620007a6565b5b6200085a848285620007e1565b509392505050565b600082601f8301126200087a5762000879620007a1565b5b81516200088c84826020860162000817565b91505092915050565b600060c08284031215620008ae57620008ad62000731565b5b620008ba60c06200077d565b9050600082015167ffffffffffffffff811115620008dd57620008dc6200079c565b5b620008eb8482850162000862565b600083015250602082015167ffffffffffffffff8111156200091257620009116200079c565b5b620009208482850162000862565b602083015250604082015167ffffffffffffffff8111156200094757620009466200079c565b5b620009558482850162000862565b604083015250606082015167ffffffffffffffff8111156200097c576200097b6200079c565b5b6200098a8482850162000862565b606083015250608082015167ffffffffffffffff811115620009b157620009b06200079c565b5b620009bf8482850162000862565b60808301525060a082015167ffffffffffffffff811115620009e657620009e56200079c565b5b620009f48482850162000862565b60a08301525092915050565b60008060008060008060c0878903121562000a205762000a1f620006c2565b5b600062000a3089828a016200071a565b965050602062000a4389828a016200071a565b955050604087015167ffffffffffffffff81111562000a675762000a66620006c7565b5b62000a7589828a0162000895565b945050606062000a8889828a016200071a565b935050608062000a9b89828a016200071a565b92505060a062000aae89828a016200071a565b9150509295509295509295565b60008190508160005260206000209050919050565b601f82111562000b1b5762000ae58162000abb565b62000af0846200040a565b8101602085101562000b00578190505b62000b1862000b0f856200040a565b8301826200050f565b50505b505050565b62000b2b8262000357565b67ffffffffffffffff81111562000b475762000b4662000362565b5b62000b538254620003c0565b62000b6082828562000ad0565b600060209050601f83116001811462000b98576000841562000b83578287015190505b62000b8f8582620005b3565b86555062000bff565b601f19841662000ba88662000abb565b60005b8281101562000bd25784890151825560018201915060208501945060208101905062000bab565b8683101562000bf2578489015162000bee601f89168262000593565b8355505b6001600288020188555050505b505050505050565b613d7c8062000c176000396000f3fe608060405234801561001057600080fd5b506004361061014d5760003560e01c80638da5cb5b116100c3578063c0ee32bc1161007c578063c0ee32bc1461038e578063d12bcb12146103aa578063e75b8ac4146103c8578063f009cec8146103e4578063f067961614610402578063f2fde38b146104325761014d565b80638da5cb5b146102de5780639a17092a146102fc5780639eda5e761461031a578063a3f22a2014610336578063a92569a914610354578063ae70ed13146103725761014d565b80634aabb078116101155780634aabb0781461021c57806357e30f441461024c5780636795a87414610268578063715018a614610286578063725fa09c1461029057806383bc303c146102ae5761014d565b80630976c517146101525780632a1a8ec8146101825780632d08d6b7146101a0578063316df61e146101d05780633ee6fa9214610200575b600080fd5b61016c6004803603810190610167919061248e565b61044e565b6040516101799190612554565b60405180910390f35b61018a610502565b60405161019791906125b7565b60405180910390f35b6101ba60048036038101906101b5919061248e565b610528565b6040516101c79190612554565b60405180910390f35b6101ea60048036038101906101e59190612707565b6105dc565b6040516101f791906127a5565b60405180910390f35b61021a600480360381019061021591906127f3565b610686565b005b61023660048036038101906102319190612859565b610709565b6040516102439190612554565b60405180910390f35b61026660048036038101906102619190612a9f565b610e4e565b005b610270610f1a565b60405161027d91906125b7565b60405180910390f35b61028e610f40565b005b610298610f54565b6040516102a591906127a5565b60405180910390f35b6102c860048036038101906102c391906127f3565b610fc3565b6040516102d59190612554565b60405180910390f35b6102e6610fd7565b6040516102f391906125b7565b60405180910390f35b610304611000565b60405161031191906125b7565b60405180910390f35b610334600480360381019061032f91906127f3565b61102a565b005b61033e611076565b60405161034b91906125b7565b60405180910390f35b61035c6110a0565b60405161036991906125b7565b60405180910390f35b61038c600480360381019061038791906127f3565b6110c6565b005b6103a860048036038101906103a391906127f3565b611149565b005b6103b2611195565b6040516103bf9190612bde565b60405180910390f35b6103e260048036038101906103dd91906127f3565b61151b565b005b6103ec611567565b6040516103f991906125b7565b60405180910390f35b61041c60048036038101906104179190612c00565b61158d565b60405161042991906127a5565b60405180910390f35b61044c600480360381019061044791906127f3565b611741565b005b60606000600b60009054906101000a900473ffffffffffffffffffffffffffffffffffffffff1673ffffffffffffffffffffffffffffffffffffffff16636352211e846040518263ffffffff1660e01b81526004016104ad9190612c9a565b602060405180830381865afa1580156104ca573d6000803e3d6000fd5b505050506040513d601f19601f820116820180604052508101906104ee9190612cca565b90506104fa83826117c4565b915050919050565b600a60009054906101000a900473ffffffffffffffffffffffffffffffffffffffff1681565b60606000600b60009054906101000a900473ffffffffffffffffffffffffffffffffffffffff1673ffffffffffffffffffffffffffffffffffffffff16636352211e846040518263ffffffff1660e01b81526004016105879190612c9a565b602060405180830381865afa1580156105a4573d6000803e3d6000fd5b505050506040513d601f19601f820116820180604052508101906105c89190612cca565b90506105d483826117c4565b915050919050565b6060600160009054906101000a900473ffffffffffffffffffffffffffffffffffffffff1673ffffffffffffffffffffffffffffffffffffffff1663316df61e836040518263ffffffff1660e01b81526004016106399190612554565b600060405180830381865afa158015610656573d6000803e3d6000fd5b505050506040513d6000823e3d601f19601f8201168201806040525081019061067f9190612d67565b9050919050565b61068e611f08565b80600260006101000a81548173ffffffffffffffffffffffffffffffffffffffff021916908373ffffffffffffffffffffffffffffffffffffffff1602179055507f10c0817f42b2182992d55b707430b153f12e59d7e54a975bfec790497dd7f63f816040516106fe91906125b7565b60405180910390a150565b60606000610715612382565b61071d6123c9565b600c60009054906101000a900473ffffffffffffffffffffffffffffffffffffffff1673ffffffffffffffffffffffffffffffffffffffff16639f571e0b876040518263ffffffff1660e01b81526004016107789190612dbf565b600060405180830381865afa158015610795573d6000803e3d6000fd5b505050506040513d6000823e3d601f19601f820116820180604052508101906107be9190612e4a565b8160e00181905250600c60009054906101000a900473ffffffffffffffffffffffffffffffffffffffff1673ffffffffffffffffffffffffffffffffffffffff1663a96cc2f9866040518263ffffffff1660e01b81526004016108219190612dbf565b600060405180830381865afa15801561083e573d6000803e3d6000fd5b505050506040513d6000823e3d601f19601f820116820180604052508101906108679190612d67565b8160c0018190525060008160c0015151036108bb576040518060400160405280600481526020017ff09f92b3000000000000000000000000000000000000000000000000000000008152508160c001819052505b60008160e00151510361095c57600d80546108d590612ec2565b80601f016020809104026020016040519081016040528092919081815260200182805461090190612ec2565b801561094e5780601f106109235761010080835404028352916020019161094e565b820191906000526020600020905b81548152906001019060200180831161093157829003601f168201915b50505050508160e001819052505b600073ffffffffffffffffffffffffffffffffffffffff16600a60009054906101000a900473ffffffffffffffffffffffffffffffffffffffff1673ffffffffffffffffffffffffffffffffffffffff1614610dd257600a60009054906101000a900473ffffffffffffffffffffffffffffffffffffffff1673ffffffffffffffffffffffffffffffffffffffff166370a08231886040518263ffffffff1660e01b8152600401610a0d91906125b7565b602060405180830381865afa158015610a2a573d6000803e3d6000fd5b505050506040513d601f19601f82011682018060405250810190610a4e9190612f08565b9250600a60009054906101000a900473ffffffffffffffffffffffffffffffffffffffff1673ffffffffffffffffffffffffffffffffffffffff16632aceb534886040518263ffffffff1660e01b8152600401610aab91906125b7565b606060405180830381865afa158015610ac8573d6000803e3d6000fd5b505050506040513d601f19601f82011682018060405250810190610aec9190613026565b91506000429050600a60009054906101000a900473ffffffffffffffffffffffffffffffffffffffff1673ffffffffffffffffffffffffffffffffffffffff166398b16f36896212750042610b419190613082565b846040518463ffffffff1660e01b8152600401610b60939291906130d9565b602060405180830381865afa158015610b7d573d6000803e3d6000fd5b505050506040513d601f19601f82011682018060405250810190610ba19190612f08565b826040018181525050600a60009054906101000a900473ffffffffffffffffffffffffffffffffffffffff1673ffffffffffffffffffffffffffffffffffffffff166398b16f36896249d40042610bf89190613082565b846040518463ffffffff1660e01b8152600401610c17939291906130d9565b602060405180830381865afa158015610c34573d6000803e3d6000fd5b505050506040513d601f19601f82011682018060405250810190610c589190612f08565b826060018181525050600a60009054906101000a900473ffffffffffffffffffffffffffffffffffffffff1673ffffffffffffffffffffffffffffffffffffffff166398b16f368962eff10042610caf9190613082565b846040518463ffffffff1660e01b8152600401610cce939291906130d9565b602060405180830381865afa158015610ceb573d6000803e3d6000fd5b505050506040513d601f19601f82011682018060405250810190610d0f9190612f08565b826080018181525050600a60009054906101000a900473ffffffffffffffffffffffffffffffffffffffff1673ffffffffffffffffffffffffffffffffffffffff166398b16f36896301dfe20042610d679190613082565b846040518463ffffffff1660e01b8152600401610d86939291906130d9565b602060405180830381865afa158015610da3573d6000803e3d6000fd5b505050506040513d601f19601f82011682018060405250810190610dc79190612f08565b8260a0018181525050505b86600960009054906101000a900473ffffffffffffffffffffffffffffffffffffffff168484600001518460400151856060015186608001518760a001518860c001518960e00151604051602001610e339a9998979695949392919061311f565b60405160208183030381529060405293505050509392505050565b610e56611f08565b8060036000820151816000019081610e6e9190613375565b506020820151816001019081610e849190613375565b506040820151816002019081610e9a9190613375565b506060820151816003019081610eb09190613375565b506080820151816004019081610ec69190613375565b5060a0820151816005019081610edc9190613375565b509050507f03a10335d532669eac03b3b7e4ce44aff7f8cb14b7aa397c653fdcb40ae06bec81604051610f0f9190612bde565b60405180910390a150565b600b60009054906101000a900473ffffffffffffffffffffffffffffffffffffffff1681565b610f48611f08565b610f526000611f86565b565b6060610f9f6003600001600360010160036002016003800160036004016003600501604051602001610f8b9695949392919061362b565b60405160208183030381529060405261204a565b604051602001610faf919061381d565b604051602081830303815290604052905090565b6060610fd06000836117c4565b9050919050565b60008060009054906101000a900473ffffffffffffffffffffffffffffffffffffffff16905090565b6000600160009054906101000a900473ffffffffffffffffffffffffffffffffffffffff16905090565b611032611f08565b80600b60006101000a81548173ffffffffffffffffffffffffffffffffffffffff021916908373ffffffffffffffffffffffffffffffffffffffff16021790555050565b6000600260009054906101000a900473ffffffffffffffffffffffffffffffffffffffff16905090565b600960009054906101000a900473ffffffffffffffffffffffffffffffffffffffff1681565b6110ce611f08565b80600160006101000a81548173ffffffffffffffffffffffffffffffffffffffff021916908373ffffffffffffffffffffffffffffffffffffffff1602179055507f3c2715cb5e4b39dd4af38ac12bb292a030fb6a063dbd5467ed49da665bcaa9738160405161113e91906125b7565b60405180910390a150565b611151611f08565b80600c60006101000a81548173ffffffffffffffffffffffffffffffffffffffff021916908373ffffffffffffffffffffffffffffffffffffffff16021790555050565b61119d61240e565b60036040518060c00160405290816000820180546111ba90612ec2565b80601f01602080910402602001604051908101604052809291908181526020018280546111e690612ec2565b80156112335780601f1061120857610100808354040283529160200191611233565b820191906000526020600020905b81548152906001019060200180831161121657829003601f168201915b5050505050815260200160018201805461124c90612ec2565b80601f016020809104026020016040519081016040528092919081815260200182805461127890612ec2565b80156112c55780601f1061129a576101008083540402835291602001916112c5565b820191906000526020600020905b8154815290600101906020018083116112a857829003601f168201915b505050505081526020016002820180546112de90612ec2565b80601f016020809104026020016040519081016040528092919081815260200182805461130a90612ec2565b80156113575780601f1061132c57610100808354040283529160200191611357565b820191906000526020600020905b81548152906001019060200180831161133a57829003601f168201915b5050505050815260200160038201805461137090612ec2565b80601f016020809104026020016040519081016040528092919081815260200182805461139c90612ec2565b80156113e95780601f106113be576101008083540402835291602001916113e9565b820191906000526020600020905b8154815290600101906020018083116113cc57829003601f168201915b5050505050815260200160048201805461140290612ec2565b80601f016020809104026020016040519081016040528092919081815260200182805461142e90612ec2565b801561147b5780601f106114505761010080835404028352916020019161147b565b820191906000526020600020905b81548152906001019060200180831161145e57829003601f168201915b5050505050815260200160058201805461149490612ec2565b80601f01602080910402602001604051908101604052809291908181526020018280546114c090612ec2565b801561150d5780601f106114e25761010080835404028352916020019161150d565b820191906000526020600020905b8154815290600101906020018083116114f057829003601f168201915b505050505081525050905090565b611523611f08565b80600a60006101000a81548173ffffffffffffffffffffffffffffffffffffffff021916908373ffffffffffffffffffffffffffffffffffffffff16021790555050565b600c60009054906101000a900473ffffffffffffffffffffffffffffffffffffffff1681565b60606000600160009054906101000a900473ffffffffffffffffffffffffffffffffffffffff1673ffffffffffffffffffffffffffffffffffffffff1663316df61e856040518263ffffffff1660e01b81526004016115ec9190612554565b600060405180830381865afa158015611609573d6000803e3d6000fd5b505050506040513d6000823e3d601f19601f820116820180604052508101906116329190612d67565b90506000600260009054906101000a900473ffffffffffffffffffffffffffffffffffffffff1673ffffffffffffffffffffffffffffffffffffffff1663f6559a6b856040518263ffffffff1660e01b81526004016116919190612554565b600060405180830381865afa1580156116ae573d6000803e3d6000fd5b505050506040513d6000823e3d601f19601f820116820180604052508101906116d79190612d67565b90506117176116e5876121c2565b6116ee886121f3565b8484604051602001611703949392919061388b565b60405160208183030381529060405261204a565b604051602001611727919061381d565b604051602081830303815290604052925050509392505050565b611749611f08565b600073ffffffffffffffffffffffffffffffffffffffff168173ffffffffffffffffffffffffffffffffffffffff16036117b8576040517f08c379a00000000000000000000000000000000000000000000000000000000081526004016117af906139ef565b60405180910390fd5b6117c181611f86565b50565b606060006117d0612382565b6117d86123c9565b600c60009054906101000a900473ffffffffffffffffffffffffffffffffffffffff1673ffffffffffffffffffffffffffffffffffffffff1663be7d97b3876040518263ffffffff1660e01b81526004016118339190612c9a565b600060405180830381865afa158015611850573d6000803e3d6000fd5b505050506040513d6000823e3d601f19601f820116820180604052508101906118799190612d67565b8160c00181905250600c60009054906101000a900473ffffffffffffffffffffffffffffffffffffffff1673ffffffffffffffffffffffffffffffffffffffff166380057b9a876040518263ffffffff1660e01b81526004016118dc9190612c9a565b600060405180830381865afa1580156118f9573d6000803e3d6000fd5b505050506040513d6000823e3d601f19601f820116820180604052508101906119229190612e4a565b8160e0018190525060008160c001515103611976576040518060400160405280600481526020017ff09f92b3000000000000000000000000000000000000000000000000000000008152508160c001819052505b60008160e001515103611a1757600d805461199090612ec2565b80601f01602080910402602001604051908101604052809291908181526020018280546119bc90612ec2565b8015611a095780601f106119de57610100808354040283529160200191611a09565b820191906000526020600020905b8154815290600101906020018083116119ec57829003601f168201915b50505050508160e001819052505b600073ffffffffffffffffffffffffffffffffffffffff16600a60009054906101000a900473ffffffffffffffffffffffffffffffffffffffff1673ffffffffffffffffffffffffffffffffffffffff1614611e8d57600a60009054906101000a900473ffffffffffffffffffffffffffffffffffffffff1673ffffffffffffffffffffffffffffffffffffffff166370a08231866040518263ffffffff1660e01b8152600401611ac891906125b7565b602060405180830381865afa158015611ae5573d6000803e3d6000fd5b505050506040513d601f19601f82011682018060405250810190611b099190612f08565b9250600a60009054906101000a900473ffffffffffffffffffffffffffffffffffffffff1673ffffffffffffffffffffffffffffffffffffffff16632aceb534866040518263ffffffff1660e01b8152600401611b6691906125b7565b606060405180830381865afa158015611b83573d6000803e3d6000fd5b505050506040513d601f19601f82011682018060405250810190611ba79190613026565b91506000429050600a60009054906101000a900473ffffffffffffffffffffffffffffffffffffffff1673ffffffffffffffffffffffffffffffffffffffff166398b16f36876212750042611bfc9190613082565b846040518463ffffffff1660e01b8152600401611c1b939291906130d9565b602060405180830381865afa158015611c38573d6000803e3d6000fd5b505050506040513d601f19601f82011682018060405250810190611c5c9190612f08565b826040018181525050600a60009054906101000a900473ffffffffffffffffffffffffffffffffffffffff1673ffffffffffffffffffffffffffffffffffffffff166398b16f36876249d40042611cb39190613082565b846040518463ffffffff1660e01b8152600401611cd2939291906130d9565b602060405180830381865afa158015611cef573d6000803e3d6000fd5b505050506040513d601f19601f82011682018060405250810190611d139190612f08565b826060018181525050600a60009054906101000a900473ffffffffffffffffffffffffffffffffffffffff1673ffffffffffffffffffffffffffffffffffffffff166398b16f368762eff10042611d6a9190613082565b846040518463ffffffff1660e01b8152600401611d89939291906130d9565b602060405180830381865afa158015611da6573d6000803e3d6000fd5b505050506040513d601f19601f82011682018060405250810190611dca9190612f08565b826080018181525050600a60009054906101000a900473ffffffffffffffffffffffffffffffffffffffff1673ffffffffffffffffffffffffffffffffffffffff166398b16f36876301dfe20042611e229190613082565b846040518463ffffffff1660e01b8152600401611e41939291906130d9565b602060405180830381865afa158015611e5e573d6000803e3d6000fd5b505050506040513d601f19601f82011682018060405250810190611e829190612f08565b8260a0018181525050505b84600960009054906101000a900473ffffffffffffffffffffffffffffffffffffffff168484600001518460400151856060015186608001518760a001518860c001518960e00151604051602001611eee9a9998979695949392919061311f565b604051602081830303815290604052935050505092915050565b611f1061221a565b73ffffffffffffffffffffffffffffffffffffffff16611f2e610fd7565b73ffffffffffffffffffffffffffffffffffffffff1614611f84576040517f08c379a0000000000000000000000000000000000000000000000000000000008152600401611f7b90613a5b565b60405180910390fd5b565b60008060009054906101000a900473ffffffffffffffffffffffffffffffffffffffff169050816000806101000a81548173ffffffffffffffffffffffffffffffffffffffff021916908373ffffffffffffffffffffffffffffffffffffffff1602179055508173ffffffffffffffffffffffffffffffffffffffff168173ffffffffffffffffffffffffffffffffffffffff167f8be0079c531659141344cd1fd0a4f28419497f9722a3daafe3b4186f6b6457e060405160405180910390a35050565b6060600082510361206c576040518060200160405280600081525090506121bd565b6000604051806060016040528060408152602001613d07604091399050600060036002855161209b9190613a7b565b6120a59190613b00565b60046120b19190613b31565b905060006020826120c29190613a7b565b67ffffffffffffffff8111156120db576120da6125dc565b5b6040519080825280601f01601f19166020018201604052801561210d5781602001600182028036833780820191505090505b509050818152600183018586518101602084015b8183101561217c576003830192508251603f8160121c168501518253600182019150603f81600c1c168501518253600182019150603f8160061c168501518253600182019150603f8116850151825360018201915050612121565b60038951066001811461219657600281146121a6576121b1565b613d3d60f01b60028303526121b1565b603d60f81b60018303525b50505050508093505050505b919050565b60606121cd82612222565b6040516020016121dd9190613bb1565b6040516020818303038152906040529050919050565b606060405160200161220490613c49565b6040516020818303038152906040529050919050565b600033905090565b606060008203612269576040518060400160405280600181526020017f3000000000000000000000000000000000000000000000000000000000000000815250905061237d565b600082905060005b6000821461229b57808061228490613c5e565b915050600a826122949190613b00565b9150612271565b60008167ffffffffffffffff8111156122b7576122b66125dc565b5b6040519080825280601f01601f1916602001820160405280156122e95781602001600182028036833780820191505090505b5090505b60008514612376576001826123029190613082565b9150600a856123119190613ca6565b603061231d9190613a7b565b60f81b81838151811061233357612332613cd7565b5b60200101907effffffffffffffffffffffffffffffffffffffffffffffffffffffffffffff1916908160001a905350600a8561236f9190613b00565b94506122ed565b8093505050505b919050565b6040518060600160405280600079ffffffffffffffffffffffffffffffffffffffffffffffffffff168152602001600062ffffff168152602001600062ffffff1681525090565b60405180610100016040528060008152602001600081526020016000815260200160008152602001600081526020016000815260200160608152602001606081525090565b6040518060c001604052806060815260200160608152602001606081526020016060815260200160608152602001606081525090565b6000604051905090565b600080fd5b600080fd5b6000819050919050565b61246b81612458565b811461247657600080fd5b50565b60008135905061248881612462565b92915050565b6000602082840312156124a4576124a361244e565b5b60006124b284828501612479565b91505092915050565b600081519050919050565b600082825260208201905092915050565b60005b838110156124f55780820151818401526020810190506124da565b83811115612504576000848401525b50505050565b6000601f19601f8301169050919050565b6000612526826124bb565b61253081856124c6565b93506125408185602086016124d7565b6125498161250a565b840191505092915050565b6000602082019050818103600083015261256e818461251b565b905092915050565b600073ffffffffffffffffffffffffffffffffffffffff82169050919050565b60006125a182612576565b9050919050565b6125b181612596565b82525050565b60006020820190506125cc60008301846125a8565b92915050565b600080fd5b600080fd5b7f4e487b7100000000000000000000000000000000000000000000000000000000600052604160045260246000fd5b6126148261250a565b810181811067ffffffffffffffff82111715612633576126326125dc565b5b80604052505050565b6000612646612444565b9050612652828261260b565b919050565b600067ffffffffffffffff821115612672576126716125dc565b5b61267b8261250a565b9050602081019050919050565b82818337600083830152505050565b60006126aa6126a584612657565b61263c565b9050828152602081018484840111156126c6576126c56125d7565b5b6126d1848285612688565b509392505050565b600082601f8301126126ee576126ed6125d2565b5b81356126fe848260208601612697565b91505092915050565b60006020828403121561271d5761271c61244e565b5b600082013567ffffffffffffffff81111561273b5761273a612453565b5b612747848285016126d9565b91505092915050565b600081519050919050565b600082825260208201905092915050565b600061277782612750565b612781818561275b565b93506127918185602086016124d7565b61279a8161250a565b840191505092915050565b600060208201905081810360008301526127bf818461276c565b905092915050565b6127d081612596565b81146127db57600080fd5b50565b6000813590506127ed816127c7565b92915050565b6000602082840312156128095761280861244e565b5b6000612817848285016127de565b91505092915050565b600060ff82169050919050565b61283681612820565b811461284157600080fd5b50565b6000813590506128538161282d565b92915050565b6000806000606084860312156128725761287161244e565b5b6000612880868287016127de565b935050602061289186828701612844565b92505060406128a286828701612844565b9150509250925092565b600080fd5b600080fd5b600067ffffffffffffffff8211156128d1576128d06125dc565b5b6128da8261250a565b9050602081019050919050565b60006128fa6128f5846128b6565b61263c565b905082815260208101848484011115612916576129156125d7565b5b612921848285612688565b509392505050565b600082601f83011261293e5761293d6125d2565b5b813561294e8482602086016128e7565b91505092915050565b600060c0828403121561296d5761296c6128ac565b5b61297760c061263c565b9050600082013567ffffffffffffffff811115612997576129966128b1565b5b6129a384828501612929565b600083015250602082013567ffffffffffffffff8111156129c7576129c66128b1565b5b6129d384828501612929565b602083015250604082013567ffffffffffffffff8111156129f7576129f66128b1565b5b612a0384828501612929565b604083015250606082013567ffffffffffffffff811115612a2757612a266128b1565b5b612a3384828501612929565b606083015250608082013567ffffffffffffffff811115612a5757612a566128b1565b5b612a6384828501612929565b60808301525060a082013567ffffffffffffffff811115612a8757612a866128b1565b5b612a9384828501612929565b60a08301525092915050565b600060208284031215612ab557612ab461244e565b5b600082013567ffffffffffffffff811115612ad357612ad2612453565b5b612adf84828501612957565b91505092915050565b600082825260208201905092915050565b6000612b0482612750565b612b0e8185612ae8565b9350612b1e8185602086016124d7565b612b278161250a565b840191505092915050565b600060c0830160008301518482036000860152612b4f8282612af9565b91505060208301518482036020860152612b698282612af9565b91505060408301518482036040860152612b838282612af9565b91505060608301518482036060860152612b9d8282612af9565b91505060808301518482036080860152612bb78282612af9565b91505060a083015184820360a0860152612bd18282612af9565b9150508091505092915050565b60006020820190508181036000830152612bf88184612b32565b905092915050565b600080600060608486031215612c1957612c1861244e565b5b6000612c2786828701612479565b935050602084013567ffffffffffffffff811115612c4857612c47612453565b5b612c54868287016126d9565b925050604084013567ffffffffffffffff811115612c7557612c74612453565b5b612c81868287016126d9565b9150509250925092565b612c9481612458565b82525050565b6000602082019050612caf6000830184612c8b565b92915050565b600081519050612cc4816127c7565b92915050565b600060208284031215612ce057612cdf61244e565b5b6000612cee84828501612cb5565b91505092915050565b6000612d0a612d05846128b6565b61263c565b905082815260208101848484011115612d2657612d256125d7565b5b612d318482856124d7565b509392505050565b600082601f830112612d4e57612d4d6125d2565b5b8151612d5e848260208601612cf7565b91505092915050565b600060208284031215612d7d57612d7c61244e565b5b600082015167ffffffffffffffff811115612d9b57612d9a612453565b5b612da784828501612d39565b91505092915050565b612db981612820565b82525050565b6000602082019050612dd46000830184612db0565b92915050565b6000612ded612de884612657565b61263c565b905082815260208101848484011115612e0957612e086125d7565b5b612e148482856124d7565b509392505050565b600082601f830112612e3157612e306125d2565b5b8151612e41848260208601612dda565b91505092915050565b600060208284031215612e6057612e5f61244e565b5b600082015167ffffffffffffffff811115612e7e57612e7d612453565b5b612e8a84828501612e1c565b91505092915050565b7f4e487b7100000000000000000000000000000000000000000000000000000000600052602260045260246000fd5b60006002820490506001821680612eda57607f821691505b602082108103612eed57612eec612e93565b5b50919050565b600081519050612f0281612462565b92915050565b600060208284031215612f1e57612f1d61244e565b5b6000612f2c84828501612ef3565b91505092915050565b600079ffffffffffffffffffffffffffffffffffffffffffffffffffff82169050919050565b612f6481612f35565b8114612f6f57600080fd5b50565b600081519050612f8181612f5b565b92915050565b600062ffffff82169050919050565b612f9f81612f87565b8114612faa57600080fd5b50565b600081519050612fbc81612f96565b92915050565b600060608284031215612fd857612fd76128ac565b5b612fe2606061263c565b90506000612ff284828501612f72565b600083015250602061300684828501612fad565b602083015250604061301a84828501612fad565b60408301525092915050565b60006060828403121561303c5761303b61244e565b5b600061304a84828501612fc2565b91505092915050565b7f4e487b7100000000000000000000000000000000000000000000000000000000600052601160045260246000fd5b600061308d82612458565b915061309883612458565b9250828210156130ab576130aa613053565b5b828203905092915050565b600067ffffffffffffffff82169050919050565b6130d3816130b6565b82525050565b60006060820190506130ee60008301866125a8565b6130fb60208301856130ca565b61310860408301846130ca565b949350505050565b61311981612f35565b82525050565b600061014082019050613135600083018d6125a8565b613142602083018c6125a8565b61314f604083018b612c8b565b61315c606083018a613110565b6131696080830189612c8b565b61317660a0830188612c8b565b61318360c0830187612c8b565b61319060e0830186612c8b565b8181036101008301526131a3818561276c565b90508181036101208301526131b8818461251b565b90509b9a5050505050505050505050565b60008190508160005260206000209050919050565b60006020601f8301049050919050565b600082821b905092915050565b60006008830261322b7fffffffffffffffffffffffffffffffffffffffffffffffffffffffffffffffff826131ee565b61323586836131ee565b95508019841693508086168417925050509392505050565b6000819050919050565b600061327261326d61326884612458565b61324d565b612458565b9050919050565b6000819050919050565b61328c83613257565b6132a061329882613279565b8484546131fb565b825550505050565b600090565b6132b56132a8565b6132c0818484613283565b505050565b5b818110156132e4576132d96000826132ad565b6001810190506132c6565b5050565b601f821115613329576132fa816131c9565b613303846131de565b81016020851015613312578190505b61332661331e856131de565b8301826132c5565b50505b505050565b600082821c905092915050565b600061334c6000198460080261332e565b1980831691505092915050565b6000613365838361333b565b9150826002028217905092915050565b61337e82612750565b67ffffffffffffffff811115613397576133966125dc565b5b6133a18254612ec2565b6133ac8282856132e8565b600060209050601f8311600181146133df57600084156133cd578287015190505b6133d78582613359565b86555061343f565b601f1984166133ed866131c9565b60005b82811015613415578489015182556001820191506020850194506020810190506133f0565b86831015613432578489015161342e601f89168261333b565b8355505b6001600288020188555050505b505050505050565b7f7b226e616d65223a000000000000000000000000000000000000000000000000815250565b7f2200000000000000000000000000000000000000000000000000000000000000815250565b600081905092915050565b600081546134ab81612ec2565b6134b58186613493565b945060018216600081146134d057600181146134e557613518565b60ff1983168652811515820286019350613518565b6134ee856131c9565b60005b83811015613510578154818901526001820191506020810190506134f1565b838801955050505b50505092915050565b7f222c000000000000000000000000000000000000000000000000000000000000815250565b7f226465736372697074696f6e223a000000000000000000000000000000000000815250565b7f22696d616765223a000000000000000000000000000000000000000000000000815250565b7f2265787465726e616c4c696e6b223a0000000000000000000000000000000000815250565b7f2273656c6c65724665654261736973506f696e7473223a000000000000000000815250565b7f22666565526563697069656e74223a0000000000000000000000000000000000815250565b7f7d00000000000000000000000000000000000000000000000000000000000000815250565b600061363682613447565b6008820191506136458261346d565b600182019150613655828961349e565b915061366082613521565b60028201915061366f82613547565b600e8201915061367e8261346d565b60018201915061368e828861349e565b915061369982613521565b6002820191506136a88261356d565b6008820191506136b78261346d565b6001820191506136c7828761349e565b91506136d282613521565b6002820191506136e182613593565b600f820191506136f08261346d565b600182019150613700828661349e565b915061370b82613521565b60028201915061371a826135b9565b6017820191506137298261346d565b600182019150613739828561349e565b915061374482613521565b600282019150613753826135df565b600f820191506137628261346d565b600182019150613772828461349e565b915061377d8261346d565b60018201915061378c82613605565b600182019150819050979650505050505050565b7f646174613a6170706c69636174696f6e2f6a736f6e3b6261736536342c000000600082015250565b60006137d6601d83613493565b91506137e1826137a0565b601d82019050919050565b60006137f782612750565b6138018185613493565b93506138118185602086016124d7565b80840191505092915050565b6000613828826137c9565b915061383482846137ec565b915081905092915050565b7f2261747472696275746573223a205b0000000000000000000000000000000000815250565b7f5d00000000000000000000000000000000000000000000000000000000000000815250565b600061389682613447565b6008820191506138a58261346d565b6001820191506138b582876137ec565b91506138c082613521565b6002820191506138cf82613547565b600e820191506138de8261346d565b6001820191506138ee82866137ec565b91506138f982613521565b6002820191506139088261356d565b6008820191506139178261346d565b60018201915061392782856137ec565b915061393282613521565b6002820191506139418261383f565b600f8201915061395182846137ec565b915061395c82613865565b60018201915061396b82613605565b60018201915081905095945050505050565b7f4f776e61626c653a206e6577206f776e657220697320746865207a65726f206160008201527f6464726573730000000000000000000000000000000000000000000000000000602082015250565b60006139d960268361275b565b91506139e48261397d565b604082019050919050565b60006020820190508181036000830152613a08816139cc565b9050919050565b7f4f776e61626c653a2063616c6c6572206973206e6f7420746865206f776e6572600082015250565b6000613a4560208361275b565b9150613a5082613a0f565b602082019050919050565b60006020820190508181036000830152613a7481613a38565b9050919050565b6000613a8682612458565b9150613a9183612458565b9250827fffffffffffffffffffffffffffffffffffffffffffffffffffffffffffffffff03821115613ac657613ac5613053565b5b828201905092915050565b7f4e487b7100000000000000000000000000000000000000000000000000000000600052601260045260246000fd5b6000613b0b82612458565b9150613b1683612458565b925082613b2657613b25613ad1565b5b828204905092915050565b6000613b3c82612458565b9150613b4783612458565b9250817fffffffffffffffffffffffffffffffffffffffffffffffffffffffffffffffff0483118215151615613b8057613b7f613053565b5b828202905092915050565b7f5765623320536176696e67732043617264202300000000000000000000000000815250565b6000613bbc82613b8b565b601382019150613bcc82846137ec565b915081905092915050565b7f4d656d626572206f6620746865205765623320536176696e6773204e6574776f60008201527f726b3a0000000000000000000000000000000000000000000000000000000000602082015250565b6000613c33602383613493565b9150613c3e82613bd7565b602382019050919050565b6000613c5482613c26565b9150819050919050565b6000613c6982612458565b91507fffffffffffffffffffffffffffffffffffffffffffffffffffffffffffffffff8203613c9b57613c9a613053565b5b600182019050919050565b6000613cb182612458565b9150613cbc83612458565b925082613ccc57613ccb613ad1565b5b828206905092915050565b7f4e487b7100000000000000000000000000000000000000000000000000000000600052603260045260246000fdfe4142434445464748494a4b4c4d4e4f505152535455565758595a6162636465666768696a6b6c6d6e6f707172737475767778797a303132333435363738392b2fa26469706673582212207f34b8b9fba60a66039afd5c7ad1fca443c68e9018ca2d9fe30dce83aa609b5864736f6c634300080f0033",
  "linkReferences": {},
  "deployedLinkReferences": {}
}